{
  "_format": "hh-sol-artifact-1",
  "contractName": "KitsudenFoxfone",
  "sourceName": "contracts/KitsudenFoxfone.sol",
  "abi": [
    {
      "inputs": [],
      "stateMutability": "nonpayable",
      "type": "constructor"
    },
    {
      "inputs": [],
      "name": "ApprovalCallerNotOwnerNorApproved",
      "type": "error"
    },
    {
      "inputs": [],
      "name": "ApprovalQueryForNonexistentToken",
      "type": "error"
    },
    {
      "inputs": [],
      "name": "BalanceQueryForZeroAddress",
      "type": "error"
    },
    {
      "inputs": [],
      "name": "ExceededLimit",
      "type": "error"
    },
    {
      "inputs": [],
      "name": "InvalidMerkle",
      "type": "error"
    },
    {
      "inputs": [],
      "name": "MintERC2309QuantityExceedsLimit",
      "type": "error"
    },
    {
      "inputs": [],
      "name": "MintToZeroAddress",
      "type": "error"
    },
    {
      "inputs": [],
      "name": "MintZeroQuantity",
      "type": "error"
    },
    {
      "inputs": [],
      "name": "NotEnoughTokensLeft",
      "type": "error"
    },
    {
      "inputs": [],
      "name": "OwnerQueryForNonexistentToken",
      "type": "error"
    },
    {
      "inputs": [],
      "name": "OwnershipNotInitializedForExtraData",
      "type": "error"
    },
    {
      "inputs": [],
      "name": "PublicSaleNotLive",
      "type": "error"
    },
    {
      "inputs": [],
      "name": "TransferCallerNotOwnerNorApproved",
      "type": "error"
    },
    {
      "inputs": [],
      "name": "TransferFromIncorrectOwner",
      "type": "error"
    },
    {
      "inputs": [],
      "name": "TransferToNonERC721ReceiverImplementer",
      "type": "error"
    },
    {
      "inputs": [],
      "name": "TransferToZeroAddress",
      "type": "error"
    },
    {
      "inputs": [],
      "name": "URIQueryForNonexistentToken",
      "type": "error"
    },
    {
      "inputs": [],
      "name": "WhitelistNotLive",
      "type": "error"
    },
    {
      "inputs": [],
      "name": "WrongEther",
      "type": "error"
    },
    {
      "anonymous": false,
      "inputs": [
        {
          "indexed": true,
          "internalType": "address",
          "name": "owner",
          "type": "address"
        },
        {
          "indexed": true,
          "internalType": "address",
          "name": "approved",
          "type": "address"
        },
        {
          "indexed": true,
          "internalType": "uint256",
          "name": "tokenId",
          "type": "uint256"
        }
      ],
      "name": "Approval",
      "type": "event"
    },
    {
      "anonymous": false,
      "inputs": [
        {
          "indexed": true,
          "internalType": "address",
          "name": "owner",
          "type": "address"
        },
        {
          "indexed": true,
          "internalType": "address",
          "name": "operator",
          "type": "address"
        },
        {
          "indexed": false,
          "internalType": "bool",
          "name": "approved",
          "type": "bool"
        }
      ],
      "name": "ApprovalForAll",
      "type": "event"
    },
    {
      "anonymous": false,
      "inputs": [
        {
          "indexed": true,
          "internalType": "uint256",
          "name": "fromTokenId",
          "type": "uint256"
        },
        {
          "indexed": false,
          "internalType": "uint256",
          "name": "toTokenId",
          "type": "uint256"
        },
        {
          "indexed": true,
          "internalType": "address",
          "name": "from",
          "type": "address"
        },
        {
          "indexed": true,
          "internalType": "address",
          "name": "to",
          "type": "address"
        }
      ],
      "name": "ConsecutiveTransfer",
      "type": "event"
    },
    {
      "anonymous": false,
      "inputs": [
        {
          "indexed": true,
          "internalType": "address",
          "name": "previousOwner",
          "type": "address"
        },
        {
          "indexed": true,
          "internalType": "address",
          "name": "newOwner",
          "type": "address"
        }
      ],
      "name": "OwnershipTransferred",
      "type": "event"
    },
    {
      "anonymous": false,
      "inputs": [
        {
          "indexed": true,
          "internalType": "address",
          "name": "from",
          "type": "address"
        },
        {
          "indexed": true,
          "internalType": "address",
          "name": "to",
          "type": "address"
        },
        {
          "indexed": true,
          "internalType": "uint256",
          "name": "tokenId",
          "type": "uint256"
        }
      ],
      "name": "Transfer",
      "type": "event"
    },
    {
      "inputs": [
        {
          "internalType": "address",
          "name": "to",
          "type": "address"
        },
        {
          "internalType": "uint256",
          "name": "tokenId",
          "type": "uint256"
        }
      ],
      "name": "approve",
      "outputs": [],
      "stateMutability": "payable",
      "type": "function"
    },
    {
      "inputs": [
        {
          "internalType": "address",
          "name": "owner",
          "type": "address"
        }
      ],
      "name": "balanceOf",
      "outputs": [
        {
          "internalType": "uint256",
          "name": "",
          "type": "uint256"
        }
      ],
      "stateMutability": "view",
      "type": "function"
    },
    {
      "inputs": [],
      "name": "baseExtension",
      "outputs": [
        {
          "internalType": "string",
          "name": "",
          "type": "string"
        }
      ],
      "stateMutability": "view",
      "type": "function"
    },
    {
      "inputs": [],
      "name": "baseHiddenUri",
      "outputs": [
        {
          "internalType": "string",
          "name": "",
          "type": "string"
        }
      ],
      "stateMutability": "view",
      "type": "function"
    },
    {
      "inputs": [],
      "name": "baseURI",
      "outputs": [
        {
          "internalType": "string",
          "name": "",
          "type": "string"
        }
      ],
      "stateMutability": "view",
      "type": "function"
    },
    {
      "inputs": [
        {
          "internalType": "uint256",
          "name": "tokenId",
          "type": "uint256"
        }
      ],
      "name": "getApproved",
      "outputs": [
        {
          "internalType": "address",
          "name": "",
          "type": "address"
        }
      ],
      "stateMutability": "view",
      "type": "function"
    },
    {
      "inputs": [
        {
          "internalType": "address",
          "name": "owner",
          "type": "address"
        },
        {
          "internalType": "address",
          "name": "operator",
          "type": "address"
        }
      ],
      "name": "isApprovedForAll",
      "outputs": [
        {
          "internalType": "bool",
          "name": "",
          "type": "bool"
        }
      ],
      "stateMutability": "view",
      "type": "function"
    },
    {
      "inputs": [],
      "name": "maxMints",
      "outputs": [
        {
          "internalType": "uint256",
          "name": "",
          "type": "uint256"
        }
      ],
      "stateMutability": "view",
      "type": "function"
    },
    {
      "inputs": [],
      "name": "maxSupply",
      "outputs": [
        {
          "internalType": "uint256",
          "name": "",
          "type": "uint256"
        }
      ],
      "stateMutability": "view",
      "type": "function"
    },
    {
      "inputs": [],
      "name": "merkleRoot",
      "outputs": [
        {
          "internalType": "bytes32",
          "name": "",
          "type": "bytes32"
        }
      ],
      "stateMutability": "view",
      "type": "function"
    },
    {
      "inputs": [
        {
          "internalType": "uint256",
          "name": "quantity",
          "type": "uint256"
        }
      ],
      "name": "mint",
      "outputs": [],
      "stateMutability": "payable",
      "type": "function"
    },
    {
      "inputs": [],
      "name": "mintPhase",
      "outputs": [
        {
          "internalType": "uint256",
          "name": "",
          "type": "uint256"
        }
      ],
      "stateMutability": "view",
      "type": "function"
    },
    {
      "inputs": [],
      "name": "mintRate",
      "outputs": [
        {
          "internalType": "uint256",
          "name": "",
          "type": "uint256"
        }
      ],
      "stateMutability": "view",
      "type": "function"
    },
    {
      "inputs": [],
      "name": "name",
      "outputs": [
        {
          "internalType": "string",
          "name": "",
          "type": "string"
        }
      ],
      "stateMutability": "view",
      "type": "function"
    },
    {
      "inputs": [],
      "name": "owner",
      "outputs": [
        {
          "internalType": "address",
          "name": "",
          "type": "address"
        }
      ],
      "stateMutability": "view",
      "type": "function"
    },
    {
      "inputs": [
        {
          "internalType": "uint256",
          "name": "tokenId",
          "type": "uint256"
        }
      ],
      "name": "ownerOf",
      "outputs": [
        {
          "internalType": "address",
          "name": "",
          "type": "address"
        }
      ],
      "stateMutability": "view",
      "type": "function"
    },
    {
      "inputs": [],
      "name": "paused",
      "outputs": [
        {
          "internalType": "bool",
          "name": "",
          "type": "bool"
        }
      ],
      "stateMutability": "view",
      "type": "function"
    },
    {
      "inputs": [],
      "name": "renounceOwnership",
      "outputs": [],
      "stateMutability": "nonpayable",
      "type": "function"
    },
    {
      "inputs": [
        {
          "internalType": "uint256",
          "name": "quantity",
          "type": "uint256"
        }
      ],
      "name": "reserveMint",
      "outputs": [],
      "stateMutability": "nonpayable",
      "type": "function"
    },
    {
      "inputs": [],
      "name": "revealed",
      "outputs": [
        {
          "internalType": "bool",
          "name": "",
          "type": "bool"
        }
      ],
      "stateMutability": "view",
      "type": "function"
    },
    {
      "inputs": [
        {
          "internalType": "address",
          "name": "from",
          "type": "address"
        },
        {
          "internalType": "address",
          "name": "to",
          "type": "address"
        },
        {
          "internalType": "uint256",
          "name": "tokenId",
          "type": "uint256"
        }
      ],
      "name": "safeTransferFrom",
      "outputs": [],
      "stateMutability": "payable",
      "type": "function"
    },
    {
      "inputs": [
        {
          "internalType": "address",
          "name": "from",
          "type": "address"
        },
        {
          "internalType": "address",
          "name": "to",
          "type": "address"
        },
        {
          "internalType": "uint256",
          "name": "tokenId",
          "type": "uint256"
        },
        {
          "internalType": "bytes",
          "name": "_data",
          "type": "bytes"
        }
      ],
      "name": "safeTransferFrom",
      "outputs": [],
      "stateMutability": "payable",
      "type": "function"
    },
    {
      "inputs": [
        {
          "internalType": "address",
          "name": "operator",
          "type": "address"
        },
        {
          "internalType": "bool",
          "name": "approved",
          "type": "bool"
        }
      ],
      "name": "setApprovalForAll",
      "outputs": [],
      "stateMutability": "nonpayable",
      "type": "function"
    },
    {
      "inputs": [
        {
          "internalType": "string",
          "name": "_newBaseURI",
          "type": "string"
        }
      ],
      "name": "setBaseURI",
      "outputs": [],
      "stateMutability": "nonpayable",
      "type": "function"
    },
    {
      "inputs": [
        {
          "internalType": "bytes32",
          "name": "_root",
          "type": "bytes32"
        }
      ],
      "name": "setMerkleRoot",
      "outputs": [],
      "stateMutability": "nonpayable",
      "type": "function"
    },
    {
      "inputs": [
        {
          "internalType": "uint256",
          "name": "_phase",
          "type": "uint256"
        }
      ],
      "name": "setMintPhase",
      "outputs": [],
      "stateMutability": "nonpayable",
      "type": "function"
    },
    {
      "inputs": [],
      "name": "setTogglePaused",
      "outputs": [],
      "stateMutability": "nonpayable",
      "type": "function"
    },
    {
      "inputs": [
        {
          "internalType": "string",
          "name": "str",
          "type": "string"
        },
        {
          "internalType": "uint256",
          "name": "startIndex",
          "type": "uint256"
        },
        {
          "internalType": "uint256",
          "name": "endIndex",
          "type": "uint256"
        }
      ],
      "name": "substring",
      "outputs": [
        {
          "internalType": "string",
          "name": "",
          "type": "string"
        }
      ],
      "stateMutability": "pure",
      "type": "function"
    },
    {
      "inputs": [
        {
          "internalType": "bytes4",
          "name": "interfaceId",
          "type": "bytes4"
        }
      ],
      "name": "supportsInterface",
      "outputs": [
        {
          "internalType": "bool",
          "name": "",
          "type": "bool"
        }
      ],
      "stateMutability": "view",
      "type": "function"
    },
    {
      "inputs": [],
      "name": "symbol",
      "outputs": [
        {
          "internalType": "string",
          "name": "",
          "type": "string"
        }
      ],
      "stateMutability": "view",
      "type": "function"
    },
    {
      "inputs": [
        {
          "internalType": "uint256",
          "name": "_tokenId",
          "type": "uint256"
        }
      ],
      "name": "tokenURI",
      "outputs": [
        {
          "internalType": "string",
          "name": "",
          "type": "string"
        }
      ],
      "stateMutability": "view",
      "type": "function"
    },
    {
      "inputs": [],
      "name": "totalSupply",
      "outputs": [
        {
          "internalType": "uint256",
          "name": "",
          "type": "uint256"
        }
      ],
      "stateMutability": "view",
      "type": "function"
    },
    {
      "inputs": [
        {
          "internalType": "address",
          "name": "from",
          "type": "address"
        },
        {
          "internalType": "address",
          "name": "to",
          "type": "address"
        },
        {
          "internalType": "uint256",
          "name": "tokenId",
          "type": "uint256"
        }
      ],
      "name": "transferFrom",
      "outputs": [],
      "stateMutability": "payable",
      "type": "function"
    },
    {
      "inputs": [
        {
          "internalType": "address",
          "name": "newOwner",
          "type": "address"
        }
      ],
      "name": "transferOwnership",
      "outputs": [],
      "stateMutability": "nonpayable",
      "type": "function"
    },
    {
      "inputs": [
        {
          "internalType": "address",
          "name": "",
          "type": "address"
        }
      ],
      "name": "usedAddresses",
      "outputs": [
        {
          "internalType": "uint256",
          "name": "",
          "type": "uint256"
        }
      ],
      "stateMutability": "view",
      "type": "function"
    },
    {
      "inputs": [],
      "name": "whiteListMaxMints",
      "outputs": [
        {
          "internalType": "uint256",
          "name": "",
          "type": "uint256"
        }
      ],
      "stateMutability": "view",
      "type": "function"
    },
    {
      "inputs": [
        {
          "internalType": "uint256",
          "name": "quantity",
          "type": "uint256"
        },
        {
          "internalType": "bytes32[]",
          "name": "proof",
          "type": "bytes32[]"
        }
      ],
      "name": "whiteListMint",
      "outputs": [],
      "stateMutability": "payable",
      "type": "function"
    },
    {
      "inputs": [
        {
          "internalType": "address",
          "name": "",
          "type": "address"
        }
      ],
      "name": "whiteListUsedAddresses",
      "outputs": [
        {
          "internalType": "uint256",
          "name": "",
          "type": "uint256"
        }
      ],
      "stateMutability": "view",
      "type": "function"
    },
    {
      "inputs": [],
      "name": "withdraw",
      "outputs": [],
      "stateMutability": "nonpayable",
      "type": "function"
    }
  ],
  "bytecode": "0x60806040526005600a556002600b55611a0a600c55666a94d74f430000600d556040518060400160405280600581526020017f2e6a736f6e000000000000000000000000000000000000000000000000000000815250600e90805190602001906200006c929190620002ba565b5060405180602001604052806000815250600f908051906020019062000094929190620002ba565b5060405180608001604052806053815260200162003e866053913960109080519060200190620000c6929190620002ba565b506000601260006101000a81548160ff0219169083151502179055506000601260016101000a81548160ff0219169083151502179055503480156200010a57600080fd5b506040518060400160405280600f81526020017f4b6974737564656e466f78466f6e6500000000000000000000000000000000008152506040518060400160405280600581526020017f4b5344464600000000000000000000000000000000000000000000000000000081525081600290805190602001906200018f929190620002ba565b508060039080519060200190620001a8929190620002ba565b50620001b9620001e760201b60201c565b6000819055505050620001e1620001d5620001ec60201b60201c565b620001f460201b60201c565b620003cf565b600090565b600033905090565b6000600860009054906101000a900473ffffffffffffffffffffffffffffffffffffffff16905081600860006101000a81548173ffffffffffffffffffffffffffffffffffffffff021916908373ffffffffffffffffffffffffffffffffffffffff1602179055508173ffffffffffffffffffffffffffffffffffffffff168173ffffffffffffffffffffffffffffffffffffffff167f8be0079c531659141344cd1fd0a4f28419497f9722a3daafe3b4186f6b6457e060405160405180910390a35050565b828054620002c89062000399565b90600052602060002090601f016020900481019282620002ec576000855562000338565b82601f106200030757805160ff191683800117855562000338565b8280016001018555821562000338579182015b82811115620003375782518255916020019190600101906200031a565b5b5090506200034791906200034b565b5090565b5b80821115620003665760008160009055506001016200034c565b5090565b7f4e487b7100000000000000000000000000000000000000000000000000000000600052602260045260246000fd5b60006002820490506001821680620003b257607f821691505b60208210811415620003c957620003c86200036a565b5b50919050565b613aa780620003df6000396000f3fe6080604052600436106102305760003560e01c806370a082311161012e578063b6b6f0c3116100ab578063d5abeb011161006f578063d5abeb01146107ef578063e985e9c51461081a578063ee5735a814610857578063f14a058814610882578063f2fde38b1461089957610230565b8063b6b6f0c314610715578063b88d4fde14610740578063c66828621461075c578063c87b56dd14610787578063ca0dcf16146107c457610230565b8063943431bf116100f2578063943431bf1461063f57806395d89b4114610668578063a0712d6814610693578063a22cb465146106af578063acdce273146106d857610230565b806370a082311461056c578063715018a6146105a95780637cb64759146105c05780638da5cb5b146105e95780638fe11a971461061457610230565b80631dcd9b55116101bc5780635183022711610180578063518302271461048557806355f804b3146104b05780635c975abb146104d95780636352211e146105045780636c0360eb1461054157610230565b80631dcd9b55146103ce57806323b872dd1461040b5780632eb4a7ab146104275780633ccfd60b1461045257806342842e0e1461046957610230565b8063118768751161020357806311876875146102f65780631342ff4c1461031257806313bfabc01461033b57806317881cbf1461037857806318160ddd146103a357610230565b806301ffc9a71461023557806306fdde0314610272578063081812fc1461029d578063095ea7b3146102da575b600080fd5b34801561024157600080fd5b5061025c60048036038101906102579190612a59565b6108c2565b6040516102699190612aa1565b60405180910390f35b34801561027e57600080fd5b50610287610954565b6040516102949190612b55565b60405180910390f35b3480156102a957600080fd5b506102c460048036038101906102bf9190612bad565b6109e6565b6040516102d19190612c1b565b60405180910390f35b6102f460048036038101906102ef9190612c62565b610a65565b005b610310600480360381019061030b9190612d07565b610ba9565b005b34801561031e57600080fd5b5061033960048036038101906103349190612bad565b610df5565b005b34801561034757600080fd5b50610362600480360381019061035d9190612d67565b610e58565b60405161036f9190612da3565b60405180910390f35b34801561038457600080fd5b5061038d610e70565b60405161039a9190612da3565b60405180910390f35b3480156103af57600080fd5b506103b8610e76565b6040516103c59190612da3565b60405180910390f35b3480156103da57600080fd5b506103f560048036038101906103f09190612eee565b610e8d565b6040516104029190612b55565b60405180910390f35b61042560048036038101906104209190612f5d565b610f89565b005b34801561043357600080fd5b5061043c6112ae565b6040516104499190612fc9565b60405180910390f35b34801561045e57600080fd5b506104676112b4565b005b610483600480360381019061047e9190612f5d565b61130c565b005b34801561049157600080fd5b5061049a61132c565b6040516104a79190612aa1565b60405180910390f35b3480156104bc57600080fd5b506104d760048036038101906104d29190612fe4565b61133f565b005b3480156104e557600080fd5b506104ee6114b8565b6040516104fb9190612aa1565b60405180910390f35b34801561051057600080fd5b5061052b60048036038101906105269190612bad565b6114cb565b6040516105389190612c1b565b60405180910390f35b34801561054d57600080fd5b506105566114dd565b6040516105639190612b55565b60405180910390f35b34801561057857600080fd5b50610593600480360381019061058e9190612d67565b61156b565b6040516105a09190612da3565b60405180910390f35b3480156105b557600080fd5b506105be611624565b005b3480156105cc57600080fd5b506105e760048036038101906105e29190613059565b611638565b005b3480156105f557600080fd5b506105fe61164a565b60405161060b9190612c1b565b60405180910390f35b34801561062057600080fd5b50610629611674565b6040516106369190612b55565b60405180910390f35b34801561064b57600080fd5b5061066660048036038101906106619190612bad565b611702565b005b34801561067457600080fd5b5061067d611714565b60405161068a9190612b55565b60405180910390f35b6106ad60048036038101906106a89190612bad565b6117a6565b005b3480156106bb57600080fd5b506106d660048036038101906106d191906130b2565b6119af565b005b3480156106e457600080fd5b506106ff60048036038101906106fa9190612d67565b611aba565b60405161070c9190612da3565b60405180910390f35b34801561072157600080fd5b5061072a611ad2565b6040516107379190612da3565b60405180910390f35b61075a60048036038101906107559190613193565b611ad8565b005b34801561076857600080fd5b50610771611b4b565b60405161077e9190612b55565b60405180910390f35b34801561079357600080fd5b506107ae60048036038101906107a99190612bad565b611bd9565b6040516107bb9190612b55565b60405180910390f35b3480156107d057600080fd5b506107d9611ca3565b6040516107e69190612da3565b60405180910390f35b3480156107fb57600080fd5b50610804611ca9565b6040516108119190612da3565b60405180910390f35b34801561082657600080fd5b50610841600480360381019061083c9190613216565b611caf565b60405161084e9190612aa1565b60405180910390f35b34801561086357600080fd5b5061086c611d43565b6040516108799190612da3565b60405180910390f35b34801561088e57600080fd5b50610897611d49565b005b3480156108a557600080fd5b506108c060048036038101906108bb9190612d67565b611d7d565b005b60006301ffc9a760e01b827bffffffffffffffffffffffffffffffffffffffffffffffffffffffff1916148061091d57506380ac58cd60e01b827bffffffffffffffffffffffffffffffffffffffffffffffffffffffff1916145b8061094d5750635b5e139f60e01b827bffffffffffffffffffffffffffffffffffffffffffffffffffffffff1916145b9050919050565b60606002805461096390613285565b80601f016020809104026020016040519081016040528092919081815260200182805461098f90613285565b80156109dc5780601f106109b1576101008083540402835291602001916109dc565b820191906000526020600020905b8154815290600101906020018083116109bf57829003601f168201915b5050505050905090565b60006109f182611e01565b610a27576040517fcf4700e400000000000000000000000000000000000000000000000000000000815260040160405180910390fd5b6006600083815260200190815260200160002060000160009054906101000a900473ffffffffffffffffffffffffffffffffffffffff169050919050565b6000610a70826114cb565b90508073ffffffffffffffffffffffffffffffffffffffff16610a91611e60565b73ffffffffffffffffffffffffffffffffffffffff1614610af457610abd81610ab8611e60565b611caf565b610af3576040517fcfb3b94200000000000000000000000000000000000000000000000000000000815260040160405180910390fd5b5b826006600084815260200190815260200160002060000160006101000a81548173ffffffffffffffffffffffffffffffffffffffff021916908373ffffffffffffffffffffffffffffffffffffffff160217905550818373ffffffffffffffffffffffffffffffffffffffff168273ffffffffffffffffffffffffffffffffffffffff167f8c5be1e5ebec7d5bd14f71427d1e84f3dd0314c0f7b2291e5b200ac8c7c3b92560405160405180910390a4505050565b601260009054906101000a900460ff1615610bf9576040517f08c379a0000000000000000000000000000000000000000000000000000000008152600401610bf090613303565b60405180910390fd5b600160115414610c35576040517f1e94bf2d00000000000000000000000000000000000000000000000000000000815260040160405180910390fd5b610c40338383611e68565b610c76576040517f3f1636e200000000000000000000000000000000000000000000000000000000815260040160405180910390fd5b600c5483610c82610e76565b610c8c9190613352565b1115610cc4576040517f76592c6f00000000000000000000000000000000000000000000000000000000815260040160405180910390fd5b3483600d54610cd391906133a8565b14610d0a576040517fb457f15800000000000000000000000000000000000000000000000000000000815260040160405180910390fd5b600b5483601360003373ffffffffffffffffffffffffffffffffffffffff1673ffffffffffffffffffffffffffffffffffffffff16815260200190815260200160002054610d589190613352565b1115610d90576040517f38d8b70c00000000000000000000000000000000000000000000000000000000815260040160405180910390fd5b82601360003373ffffffffffffffffffffffffffffffffffffffff1673ffffffffffffffffffffffffffffffffffffffff1681526020019081526020016000206000828254610ddf9190613352565b92505081905550610df03384611ec6565b505050565b610dfd612083565b600c5481610e09610e76565b610e139190613352565b1115610e4b576040517f76592c6f00000000000000000000000000000000000000000000000000000000815260040160405180910390fd5b610e553382611ec6565b50565b60136020528060005260406000206000915090505481565b60115481565b6000610e80612101565b6001546000540303905090565b6060600084905060008484610ea29190613402565b67ffffffffffffffff811115610ebb57610eba612dc3565b5b6040519080825280601f01601f191660200182016040528015610eed5781602001600182028036833780820191505090505b50905060008590505b84811015610f7c57828181518110610f1157610f10613436565b5b602001015160f81c60f81b828783610f299190613402565b81518110610f3a57610f39613436565b5b60200101907effffffffffffffffffffffffffffffffffffffffffffffffffffffffffffff1916908160001a9053508080610f7490613465565b915050610ef6565b5080925050509392505050565b6000610f9482612106565b90508373ffffffffffffffffffffffffffffffffffffffff168173ffffffffffffffffffffffffffffffffffffffff1614610ffb576040517fa114810000000000000000000000000000000000000000000000000000000000815260040160405180910390fd5b600080611007846121d4565b9150915061101d8187611018611e60565b6121fb565b611069576110328661102d611e60565b611caf565b611068576040517f59c896be00000000000000000000000000000000000000000000000000000000815260040160405180910390fd5b5b600073ffffffffffffffffffffffffffffffffffffffff168573ffffffffffffffffffffffffffffffffffffffff1614156110d0576040517fea553b3400000000000000000000000000000000000000000000000000000000815260040160405180910390fd5b6110dd868686600161223f565b80156110e857600082555b600560008773ffffffffffffffffffffffffffffffffffffffff1673ffffffffffffffffffffffffffffffffffffffff168152602001908152602001600020600081546001900391905081905550600560008673ffffffffffffffffffffffffffffffffffffffff1673ffffffffffffffffffffffffffffffffffffffff16815260200190815260200160002060008154600101919050819055506111b685611192888887612245565b7c02000000000000000000000000000000000000000000000000000000001761226d565b600460008681526020019081526020016000208190555060007c02000000000000000000000000000000000000000000000000000000008416141561123e57600060018501905060006004600083815260200190815260200160002054141561123c57600054811461123b578360046000838152602001908152602001600020819055505b5b505b838573ffffffffffffffffffffffffffffffffffffffff168773ffffffffffffffffffffffffffffffffffffffff167fddf252ad1be2c89b69c2b068fc378daa952ba7f163c4a11628f55a4df523b3ef60405160405180910390a46112a68686866001612298565b505050505050565b60095481565b6112bc612083565b6112c461164a565b73ffffffffffffffffffffffffffffffffffffffff166108fc479081150290604051600060405180830381858888f19350505050158015611309573d6000803e3d6000fd5b50565b61132783838360405180602001604052806000815250611ad8565b505050565b601260019054906101000a900460ff1681565b611347612083565b600181511161138b576040517f08c379a0000000000000000000000000000000000000000000000000000000008152600401611382906134fa565b60405180910390fd5b60006113968261229e565b905060006113b1836001846113ab9190613402565b84610e8d565b90506113f2816040518060400160405280600181526020017f2f00000000000000000000000000000000000000000000000000000000000000815250612453565b611431576040517f08c379a00000000000000000000000000000000000000000000000000000000081526004016114289061358c565b60405180910390fd5b601260019054906101000a900460ff1615611481576040517f08c379a0000000000000000000000000000000000000000000000000000000008152600401611478906135f8565b60405180910390fd5b6001601260016101000a81548160ff02191690831515021790555082600f90805190602001906114b292919061294a565b50505050565b601260009054906101000a900460ff1681565b60006114d682612106565b9050919050565b600f80546114ea90613285565b80601f016020809104026020016040519081016040528092919081815260200182805461151690613285565b80156115635780601f1061153857610100808354040283529160200191611563565b820191906000526020600020905b81548152906001019060200180831161154657829003601f168201915b505050505081565b60008073ffffffffffffffffffffffffffffffffffffffff168273ffffffffffffffffffffffffffffffffffffffff1614156115d3576040517f8f4eb60400000000000000000000000000000000000000000000000000000000815260040160405180910390fd5b67ffffffffffffffff600560008473ffffffffffffffffffffffffffffffffffffffff1673ffffffffffffffffffffffffffffffffffffffff16815260200190815260200160002054169050919050565b61162c612083565b61163660006124ac565b565b611640612083565b8060098190555050565b6000600860009054906101000a900473ffffffffffffffffffffffffffffffffffffffff16905090565b6010805461168190613285565b80601f01602080910402602001604051908101604052809291908181526020018280546116ad90613285565b80156116fa5780601f106116cf576101008083540402835291602001916116fa565b820191906000526020600020905b8154815290600101906020018083116116dd57829003601f168201915b505050505081565b61170a612083565b8060118190555050565b60606003805461172390613285565b80601f016020809104026020016040519081016040528092919081815260200182805461174f90613285565b801561179c5780601f106117715761010080835404028352916020019161179c565b820191906000526020600020905b81548152906001019060200180831161177f57829003601f168201915b5050505050905090565b601260009054906101000a900460ff16156117f6576040517f08c379a00000000000000000000000000000000000000000000000000000000081526004016117ed90613303565b60405180910390fd5b600260115414611832576040517fa9f4f87100000000000000000000000000000000000000000000000000000000815260040160405180910390fd5b600c548161183e610e76565b6118489190613352565b1115611880576040517f76592c6f00000000000000000000000000000000000000000000000000000000815260040160405180910390fd5b3481600d5461188f91906133a8565b146118c6576040517fb457f15800000000000000000000000000000000000000000000000000000000815260040160405180910390fd5b600a54601460003373ffffffffffffffffffffffffffffffffffffffff1673ffffffffffffffffffffffffffffffffffffffff16815260200190815260200160002054826119149190613352565b111561194c576040517f38d8b70c00000000000000000000000000000000000000000000000000000000815260040160405180910390fd5b80601460003373ffffffffffffffffffffffffffffffffffffffff1673ffffffffffffffffffffffffffffffffffffffff168152602001908152602001600020600082825461199b9190613352565b925050819055506119ac3382611ec6565b50565b80600760006119bc611e60565b73ffffffffffffffffffffffffffffffffffffffff1673ffffffffffffffffffffffffffffffffffffffff16815260200190815260200160002060008473ffffffffffffffffffffffffffffffffffffffff1673ffffffffffffffffffffffffffffffffffffffff16815260200190815260200160002060006101000a81548160ff0219169083151502179055508173ffffffffffffffffffffffffffffffffffffffff16611a69611e60565b73ffffffffffffffffffffffffffffffffffffffff167f17307eab39ab6107e8899845ad3d59bd9653f200f220920489ca2b5937696c3183604051611aae9190612aa1565b60405180910390a35050565b60146020528060005260406000206000915090505481565b600a5481565b611ae3848484610f89565b60008373ffffffffffffffffffffffffffffffffffffffff163b14611b4557611b0e84848484612572565b611b44576040517fd1a57ed600000000000000000000000000000000000000000000000000000000815260040160405180910390fd5b5b50505050565b600e8054611b5890613285565b80601f0160208091040260200160405190810160405280929190818152602001828054611b8490613285565b8015611bd15780601f10611ba657610100808354040283529160200191611bd1565b820191906000526020600020905b815481529060010190602001808311611bb457829003601f168201915b505050505081565b6060611be482611e01565b611c23576040517f08c379a0000000000000000000000000000000000000000000000000000000008152600401611c1a90613664565b60405180910390fd5b601260019054906101000a900460ff1615611c6d57600f611c43836126d2565b600e604051602001611c5793929190613754565b6040516020818303038152906040529050611c9e565b6010611c78836126d2565b600e604051602001611c8c93929190613754565b60405160208183030381529060405290505b919050565b600d5481565b600c5481565b6000600760008473ffffffffffffffffffffffffffffffffffffffff1673ffffffffffffffffffffffffffffffffffffffff16815260200190815260200160002060008373ffffffffffffffffffffffffffffffffffffffff1673ffffffffffffffffffffffffffffffffffffffff16815260200190815260200160002060009054906101000a900460ff16905092915050565b600b5481565b611d51612083565b601260009054906101000a900460ff1615601260006101000a81548160ff021916908315150217905550565b611d85612083565b600073ffffffffffffffffffffffffffffffffffffffff168173ffffffffffffffffffffffffffffffffffffffff161415611df5576040517f08c379a0000000000000000000000000000000000000000000000000000000008152600401611dec906137f7565b60405180910390fd5b611dfe816124ac565b50565b600081611e0c612101565b11158015611e1b575060005482105b8015611e59575060007c0100000000000000000000000000000000000000000000000000000000600460008581526020019081526020016000205416145b9050919050565b600033905090565b6000611ebd611e7685612833565b848480806020026020016040519081016040528093929190818152602001838360200280828437600081840152601f19601f82011690508083019250505050505050612863565b90509392505050565b6000805490506000821415611f07576040517fb562e8dd00000000000000000000000000000000000000000000000000000000815260040160405180910390fd5b611f14600084838561223f565b600160406001901b178202600560008573ffffffffffffffffffffffffffffffffffffffff1673ffffffffffffffffffffffffffffffffffffffff16815260200190815260200160002060008282540192505081905550611f8b83611f7c6000866000612245565b611f858561287a565b1761226d565b6004600083815260200190815260200160002081905550600080838301905073ffffffffffffffffffffffffffffffffffffffff85169150828260007fddf252ad1be2c89b69c2b068fc378daa952ba7f163c4a11628f55a4df523b3ef600080a4600183015b81811461202c57808360007fddf252ad1be2c89b69c2b068fc378daa952ba7f163c4a11628f55a4df523b3ef600080a4600181019050611ff1565b506000821415612068576040517f2e07630000000000000000000000000000000000000000000000000000000000815260040160405180910390fd5b80600081905550505061207e6000848385612298565b505050565b61208b61288a565b73ffffffffffffffffffffffffffffffffffffffff166120a961164a565b73ffffffffffffffffffffffffffffffffffffffff16146120ff576040517f08c379a00000000000000000000000000000000000000000000000000000000081526004016120f690613863565b60405180910390fd5b565b600090565b60008082905080612115612101565b1161219d5760005481101561219c5760006004600083815260200190815260200160002054905060007c01000000000000000000000000000000000000000000000000000000008216141561219a575b6000811415612190576004600083600190039350838152602001908152602001600020549050612165565b80925050506121cf565b505b5b6040517fdf2d9b4200000000000000000000000000000000000000000000000000000000815260040160405180910390fd5b919050565b60008060006006600085815260200190815260200160002090508092508254915050915091565b600073ffffffffffffffffffffffffffffffffffffffff8316925073ffffffffffffffffffffffffffffffffffffffff821691508382148383141790509392505050565b50505050565b60008060e883901c905060e861225c868684612892565b62ffffff16901b9150509392505050565b600073ffffffffffffffffffffffffffffffffffffffff83169250814260a01b178317905092915050565b50505050565b60008060008084519050600092505b808210156124485760008583815181106122ca576122c9613436565b5b602001015160f81c60f81b9050608060f81b817effffffffffffffffffffffffffffffffffffffffffffffffffffffffffffff19161015612319576001836123129190613352565b9250612434565b60e060f81b817effffffffffffffffffffffffffffffffffffffffffffffffffffffffffffff1916101561235b576002836123549190613352565b9250612433565b60f060f81b817effffffffffffffffffffffffffffffffffffffffffffffffffffffffffffff1916101561239d576003836123969190613352565b9250612432565b60f8801b817effffffffffffffffffffffffffffffffffffffffffffffffffffffffffffff191610156123de576004836123d79190613352565b9250612431565b60fc60f81b817effffffffffffffffffffffffffffffffffffffffffffffffffffffffffffff19161015612420576005836124199190613352565b9250612430565b60068361242d9190613352565b92505b5b5b5b5b50828061244090613465565b9350506122ad565b829350505050919050565b6000816040516020016124669190613883565b604051602081830303815290604052805190602001208360405160200161248d9190613883565b6040516020818303038152906040528051906020012014905092915050565b6000600860009054906101000a900473ffffffffffffffffffffffffffffffffffffffff16905081600860006101000a81548173ffffffffffffffffffffffffffffffffffffffff021916908373ffffffffffffffffffffffffffffffffffffffff1602179055508173ffffffffffffffffffffffffffffffffffffffff168173ffffffffffffffffffffffffffffffffffffffff167f8be0079c531659141344cd1fd0a4f28419497f9722a3daafe3b4186f6b6457e060405160405180910390a35050565b60008373ffffffffffffffffffffffffffffffffffffffff1663150b7a02612598611e60565b8786866040518563ffffffff1660e01b81526004016125ba94939291906138ef565b602060405180830381600087803b1580156125d457600080fd5b505af192505050801561260557506040513d601f19601f820116820180604052508101906126029190613950565b60015b61267f573d8060008114612635576040519150601f19603f3d011682016040523d82523d6000602084013e61263a565b606091505b50600081511415612677576040517fd1a57ed600000000000000000000000000000000000000000000000000000000815260040160405180910390fd5b805181602001fd5b63150b7a0260e01b7bffffffffffffffffffffffffffffffffffffffffffffffffffffffff1916817bffffffffffffffffffffffffffffffffffffffffffffffffffffffff191614915050949350505050565b6060600082141561271a576040518060400160405280600181526020017f3000000000000000000000000000000000000000000000000000000000000000815250905061282e565b600082905060005b6000821461274c57808061273590613465565b915050600a8261274591906139ac565b9150612722565b60008167ffffffffffffffff81111561276857612767612dc3565b5b6040519080825280601f01601f19166020018201604052801561279a5781602001600182028036833780820191505090505b5090505b60008514612827576001826127b39190613402565b9150600a856127c291906139dd565b60306127ce9190613352565b60f81b8183815181106127e4576127e3613436565b5b60200101907effffffffffffffffffffffffffffffffffffffffffffffffffffffffffffff1916908160001a905350600a8561282091906139ac565b945061279e565b8093505050505b919050565b6000816040516020016128469190613a56565b604051602081830303815290604052805190602001209050919050565b6000612872826009548561289b565b905092915050565b60006001821460e11b9050919050565b600033905090565b60009392505050565b6000826128a885846128b2565b1490509392505050565b60008082905060005b84518110156128fd576128e8828683815181106128db576128da613436565b5b6020026020010151612908565b915080806128f590613465565b9150506128bb565b508091505092915050565b60008183106129205761291b8284612933565b61292b565b61292a8383612933565b5b905092915050565b600082600052816020526040600020905092915050565b82805461295690613285565b90600052602060002090601f01602090048101928261297857600085556129bf565b82601f1061299157805160ff19168380011785556129bf565b828001600101855582156129bf579182015b828111156129be5782518255916020019190600101906129a3565b5b5090506129cc91906129d0565b5090565b5b808211156129e95760008160009055506001016129d1565b5090565b6000604051905090565b600080fd5b600080fd5b60007fffffffff0000000000000000000000000000000000000000000000000000000082169050919050565b612a3681612a01565b8114612a4157600080fd5b50565b600081359050612a5381612a2d565b92915050565b600060208284031215612a6f57612a6e6129f7565b5b6000612a7d84828501612a44565b91505092915050565b60008115159050919050565b612a9b81612a86565b82525050565b6000602082019050612ab66000830184612a92565b92915050565b600081519050919050565b600082825260208201905092915050565b60005b83811015612af6578082015181840152602081019050612adb565b83811115612b05576000848401525b50505050565b6000601f19601f8301169050919050565b6000612b2782612abc565b612b318185612ac7565b9350612b41818560208601612ad8565b612b4a81612b0b565b840191505092915050565b60006020820190508181036000830152612b6f8184612b1c565b905092915050565b6000819050919050565b612b8a81612b77565b8114612b9557600080fd5b50565b600081359050612ba781612b81565b92915050565b600060208284031215612bc357612bc26129f7565b5b6000612bd184828501612b98565b91505092915050565b600073ffffffffffffffffffffffffffffffffffffffff82169050919050565b6000612c0582612bda565b9050919050565b612c1581612bfa565b82525050565b6000602082019050612c306000830184612c0c565b92915050565b612c3f81612bfa565b8114612c4a57600080fd5b50565b600081359050612c5c81612c36565b92915050565b60008060408385031215612c7957612c786129f7565b5b6000612c8785828601612c4d565b9250506020612c9885828601612b98565b9150509250929050565b600080fd5b600080fd5b600080fd5b60008083601f840112612cc757612cc6612ca2565b5b8235905067ffffffffffffffff811115612ce457612ce3612ca7565b5b602083019150836020820283011115612d0057612cff612cac565b5b9250929050565b600080600060408486031215612d2057612d1f6129f7565b5b6000612d2e86828701612b98565b935050602084013567ffffffffffffffff811115612d4f57612d4e6129fc565b5b612d5b86828701612cb1565b92509250509250925092565b600060208284031215612d7d57612d7c6129f7565b5b6000612d8b84828501612c4d565b91505092915050565b612d9d81612b77565b82525050565b6000602082019050612db86000830184612d94565b92915050565b600080fd5b7f4e487b7100000000000000000000000000000000000000000000000000000000600052604160045260246000fd5b612dfb82612b0b565b810181811067ffffffffffffffff82111715612e1a57612e19612dc3565b5b80604052505050565b6000612e2d6129ed565b9050612e398282612df2565b919050565b600067ffffffffffffffff821115612e5957612e58612dc3565b5b612e6282612b0b565b9050602081019050919050565b82818337600083830152505050565b6000612e91612e8c84612e3e565b612e23565b905082815260208101848484011115612ead57612eac612dbe565b5b612eb8848285612e6f565b509392505050565b600082601f830112612ed557612ed4612ca2565b5b8135612ee5848260208601612e7e565b91505092915050565b600080600060608486031215612f0757612f066129f7565b5b600084013567ffffffffffffffff811115612f2557612f246129fc565b5b612f3186828701612ec0565b9350506020612f4286828701612b98565b9250506040612f5386828701612b98565b9150509250925092565b600080600060608486031215612f7657612f756129f7565b5b6000612f8486828701612c4d565b9350506020612f9586828701612c4d565b9250506040612fa686828701612b98565b9150509250925092565b6000819050919050565b612fc381612fb0565b82525050565b6000602082019050612fde6000830184612fba565b92915050565b600060208284031215612ffa57612ff96129f7565b5b600082013567ffffffffffffffff811115613018576130176129fc565b5b61302484828501612ec0565b91505092915050565b61303681612fb0565b811461304157600080fd5b50565b6000813590506130538161302d565b92915050565b60006020828403121561306f5761306e6129f7565b5b600061307d84828501613044565b91505092915050565b61308f81612a86565b811461309a57600080fd5b50565b6000813590506130ac81613086565b92915050565b600080604083850312156130c9576130c86129f7565b5b60006130d785828601612c4d565b92505060206130e88582860161309d565b9150509250929050565b600067ffffffffffffffff82111561310d5761310c612dc3565b5b61311682612b0b565b9050602081019050919050565b6000613136613131846130f2565b612e23565b90508281526020810184848401111561315257613151612dbe565b5b61315d848285612e6f565b509392505050565b600082601f83011261317a57613179612ca2565b5b813561318a848260208601613123565b91505092915050565b600080600080608085870312156131ad576131ac6129f7565b5b60006131bb87828801612c4d565b94505060206131cc87828801612c4d565b93505060406131dd87828801612b98565b925050606085013567ffffffffffffffff8111156131fe576131fd6129fc565b5b61320a87828801613165565b91505092959194509250565b6000806040838503121561322d5761322c6129f7565b5b600061323b85828601612c4d565b925050602061324c85828601612c4d565b9150509250929050565b7f4e487b7100000000000000000000000000000000000000000000000000000000600052602260045260246000fd5b6000600282049050600182168061329d57607f821691505b602082108114156132b1576132b0613256565b5b50919050565b7f5061757365640000000000000000000000000000000000000000000000000000600082015250565b60006132ed600683612ac7565b91506132f8826132b7565b602082019050919050565b6000602082019050818103600083015261331c816132e0565b9050919050565b7f4e487b7100000000000000000000000000000000000000000000000000000000600052601160045260246000fd5b600061335d82612b77565b915061336883612b77565b9250827fffffffffffffffffffffffffffffffffffffffffffffffffffffffffffffffff0382111561339d5761339c613323565b5b828201905092915050565b60006133b382612b77565b91506133be83612b77565b9250817fffffffffffffffffffffffffffffffffffffffffffffffffffffffffffffffff04831182151516156133f7576133f6613323565b5b828202905092915050565b600061340d82612b77565b915061341883612b77565b92508282101561342b5761342a613323565b5b828203905092915050565b7f4e487b7100000000000000000000000000000000000000000000000000000000600052603260045260246000fd5b600061347082612b77565b91507fffffffffffffffffffffffffffffffffffffffffffffffffffffffffffffffff8214156134a3576134a2613323565b5b600182019050919050565b7f5f6e6577426173655552492063616e6e6f7420626520656d7074792100000000600082015250565b60006134e4601c83612ac7565b91506134ef826134ae565b602082019050919050565b60006020820190508181036000830152613513816134d7565b9050919050565b7f5f6e6577426173655552492073686f756c64206861766520612073756666697860008201527f206f6620272f2700000000000000000000000000000000000000000000000000602082015250565b6000613576602783612ac7565b91506135818261351a565b604082019050919050565b600060208201905081810360008301526135a581613569565b9050919050565b7f596f752063616e206f6e6c79207365742062617365555249206f6e6365210000600082015250565b60006135e2601e83612ac7565b91506135ed826135ac565b602082019050919050565b60006020820190508181036000830152613611816135d5565b9050919050565b7f746f6b656e20646f6573206e6f74206578697374210000000000000000000000600082015250565b600061364e601583612ac7565b915061365982613618565b602082019050919050565b6000602082019050818103600083015261367d81613641565b9050919050565b600081905092915050565b60008190508160005260206000209050919050565b600081546136b181613285565b6136bb8186613684565b945060018216600081146136d657600181146136e75761371a565b60ff1983168652818601935061371a565b6136f08561368f565b60005b83811015613712578154818901526001820191506020810190506136f3565b838801955050505b50505092915050565b600061372e82612abc565b6137388185613684565b9350613748818560208601612ad8565b80840191505092915050565b600061376082866136a4565b915061376c8285613723565b915061377882846136a4565b9150819050949350505050565b7f4f776e61626c653a206e6577206f776e657220697320746865207a65726f206160008201527f6464726573730000000000000000000000000000000000000000000000000000602082015250565b60006137e1602683612ac7565b91506137ec82613785565b604082019050919050565b60006020820190508181036000830152613810816137d4565b9050919050565b7f4f776e61626c653a2063616c6c6572206973206e6f7420746865206f776e6572600082015250565b600061384d602083612ac7565b915061385882613817565b602082019050919050565b6000602082019050818103600083015261387c81613840565b9050919050565b600061388f8284613723565b915081905092915050565b600081519050919050565b600082825260208201905092915050565b60006138c18261389a565b6138cb81856138a5565b93506138db818560208601612ad8565b6138e481612b0b565b840191505092915050565b60006080820190506139046000830187612c0c565b6139116020830186612c0c565b61391e6040830185612d94565b818103606083015261393081846138b6565b905095945050505050565b60008151905061394a81612a2d565b92915050565b600060208284031215613966576139656129f7565b5b60006139748482850161393b565b91505092915050565b7f4e487b7100000000000000000000000000000000000000000000000000000000600052601260045260246000fd5b60006139b782612b77565b91506139c283612b77565b9250826139d2576139d161397d565b5b828204905092915050565b60006139e882612b77565b91506139f383612b77565b925082613a0357613a0261397d565b5b828206905092915050565b60008160601b9050919050565b6000613a2682613a0e565b9050919050565b6000613a3882613a1b565b9050919050565b613a50613a4b82612bfa565b613a2d565b82525050565b6000613a628284613a3f565b6014820191508190509291505056fea2646970667358221220b7762cd37df9e0141f06b985887d953050e3249727715bd2e667bfbc1fe81e7764736f6c6343000809003368747470733a2f2f6b6974737564656e2e696e667572612d697066732e696f2f697066732f516d543857775575417a70654c7169784a446676564878394b7278466f387762473831314a5a426a6b6672364367",
  "linkReferences": {},
  "deployedLinkReferences": {}
}