{
  "_format": "hh-sol-artifact-1",
  "contractName": "KitsudenFoxfone",
  "sourceName": "contracts/KitsudenFoxfone.sol",
  "abi": [
    {
      "inputs": [],
      "stateMutability": "nonpayable",
      "type": "constructor"
    },
    {
      "inputs": [],
      "name": "ApprovalCallerNotOwnerNorApproved",
      "type": "error"
    },
    {
      "inputs": [],
      "name": "ApprovalQueryForNonexistentToken",
      "type": "error"
    },
    {
      "inputs": [],
      "name": "ApprovalToCurrentOwner",
      "type": "error"
    },
    {
      "inputs": [],
      "name": "ApproveToCaller",
      "type": "error"
    },
    {
      "inputs": [],
      "name": "BalanceQueryForZeroAddress",
      "type": "error"
    },
    {
      "inputs": [],
      "name": "ExceededLimit",
      "type": "error"
    },
    {
      "inputs": [],
      "name": "InvalidMerkle",
      "type": "error"
    },
    {
      "inputs": [],
      "name": "MintToZeroAddress",
      "type": "error"
    },
    {
      "inputs": [],
      "name": "MintZeroQuantity",
      "type": "error"
    },
    {
      "inputs": [],
      "name": "NotEnoughTokensLeft",
      "type": "error"
    },
    {
      "inputs": [],
      "name": "OwnerQueryForNonexistentToken",
      "type": "error"
    },
    {
      "inputs": [],
      "name": "PublicSaleNotLive",
      "type": "error"
    },
    {
      "inputs": [],
      "name": "TransferCallerNotOwnerNorApproved",
      "type": "error"
    },
    {
      "inputs": [],
      "name": "TransferFromIncorrectOwner",
      "type": "error"
    },
    {
      "inputs": [],
      "name": "TransferToNonERC721ReceiverImplementer",
      "type": "error"
    },
    {
      "inputs": [],
      "name": "TransferToZeroAddress",
      "type": "error"
    },
    {
      "inputs": [],
      "name": "URIQueryForNonexistentToken",
      "type": "error"
    },
    {
      "inputs": [],
      "name": "WhitelistNotActive",
      "type": "error"
    },
    {
      "inputs": [],
      "name": "WhitelistUsed",
      "type": "error"
    },
    {
      "inputs": [],
      "name": "WrongEther",
      "type": "error"
    },
    {
      "anonymous": false,
      "inputs": [
        {
          "indexed": true,
          "internalType": "address",
          "name": "owner",
          "type": "address"
        },
        {
          "indexed": true,
          "internalType": "address",
          "name": "approved",
          "type": "address"
        },
        {
          "indexed": true,
          "internalType": "uint256",
          "name": "tokenId",
          "type": "uint256"
        }
      ],
      "name": "Approval",
      "type": "event"
    },
    {
      "anonymous": false,
      "inputs": [
        {
          "indexed": true,
          "internalType": "address",
          "name": "owner",
          "type": "address"
        },
        {
          "indexed": true,
          "internalType": "address",
          "name": "operator",
          "type": "address"
        },
        {
          "indexed": false,
          "internalType": "bool",
          "name": "approved",
          "type": "bool"
        }
      ],
      "name": "ApprovalForAll",
      "type": "event"
    },
    {
      "anonymous": false,
      "inputs": [
        {
          "indexed": true,
          "internalType": "address",
          "name": "previousOwner",
          "type": "address"
        },
        {
          "indexed": true,
          "internalType": "address",
          "name": "newOwner",
          "type": "address"
        }
      ],
      "name": "OwnershipTransferred",
      "type": "event"
    },
    {
      "anonymous": false,
      "inputs": [
        {
          "indexed": true,
          "internalType": "address",
          "name": "from",
          "type": "address"
        },
        {
          "indexed": true,
          "internalType": "address",
          "name": "to",
          "type": "address"
        },
        {
          "indexed": true,
          "internalType": "uint256",
          "name": "tokenId",
          "type": "uint256"
        }
      ],
      "name": "Transfer",
      "type": "event"
    },
    {
      "inputs": [
        {
          "internalType": "address",
          "name": "to",
          "type": "address"
        },
        {
          "internalType": "uint256",
          "name": "tokenId",
          "type": "uint256"
        }
      ],
      "name": "approve",
      "outputs": [],
      "stateMutability": "nonpayable",
      "type": "function"
    },
    {
      "inputs": [
        {
          "internalType": "address",
          "name": "owner",
          "type": "address"
        }
      ],
      "name": "balanceOf",
      "outputs": [
        {
          "internalType": "uint256",
          "name": "",
          "type": "uint256"
        }
      ],
      "stateMutability": "view",
      "type": "function"
    },
    {
      "inputs": [],
      "name": "baseExtension",
      "outputs": [
        {
          "internalType": "string",
          "name": "",
          "type": "string"
        }
      ],
      "stateMutability": "view",
      "type": "function"
    },
    {
      "inputs": [],
      "name": "baseHiddenUri",
      "outputs": [
        {
          "internalType": "string",
          "name": "",
          "type": "string"
        }
      ],
      "stateMutability": "view",
      "type": "function"
    },
    {
      "inputs": [],
      "name": "baseTokenURI",
      "outputs": [
        {
          "internalType": "string",
          "name": "",
          "type": "string"
        }
      ],
      "stateMutability": "view",
      "type": "function"
    },
    {
      "inputs": [],
      "name": "baseURI",
      "outputs": [
        {
          "internalType": "string",
          "name": "",
          "type": "string"
        }
      ],
      "stateMutability": "view",
      "type": "function"
    },
    {
      "inputs": [
        {
          "internalType": "uint256",
          "name": "tokenId",
          "type": "uint256"
        }
      ],
      "name": "getApproved",
      "outputs": [
        {
          "internalType": "address",
          "name": "",
          "type": "address"
        }
      ],
      "stateMutability": "view",
      "type": "function"
    },
    {
      "inputs": [
        {
          "internalType": "address",
          "name": "owner",
          "type": "address"
        },
        {
          "internalType": "address",
          "name": "operator",
          "type": "address"
        }
      ],
      "name": "isApprovedForAll",
      "outputs": [
        {
          "internalType": "bool",
          "name": "",
          "type": "bool"
        }
      ],
      "stateMutability": "view",
      "type": "function"
    },
    {
      "inputs": [],
      "name": "maxMints",
      "outputs": [
        {
          "internalType": "uint256",
          "name": "",
          "type": "uint256"
        }
      ],
      "stateMutability": "view",
      "type": "function"
    },
    {
      "inputs": [],
      "name": "maxSupply",
      "outputs": [
        {
          "internalType": "uint256",
          "name": "",
          "type": "uint256"
        }
      ],
      "stateMutability": "view",
      "type": "function"
    },
    {
      "inputs": [],
      "name": "merkleRoot",
      "outputs": [
        {
          "internalType": "bytes32",
          "name": "",
          "type": "bytes32"
        }
      ],
      "stateMutability": "view",
      "type": "function"
    },
    {
      "inputs": [
        {
          "internalType": "uint256",
          "name": "quantity",
          "type": "uint256"
        }
      ],
      "name": "mint",
      "outputs": [],
      "stateMutability": "payable",
      "type": "function"
    },
    {
      "inputs": [],
      "name": "mintAvailable",
      "outputs": [
        {
          "internalType": "uint256",
          "name": "",
          "type": "uint256"
        }
      ],
      "stateMutability": "view",
      "type": "function"
    },
    {
      "inputs": [],
      "name": "mintRate",
      "outputs": [
        {
          "internalType": "uint256",
          "name": "",
          "type": "uint256"
        }
      ],
      "stateMutability": "view",
      "type": "function"
    },
    {
      "inputs": [],
      "name": "name",
      "outputs": [
        {
          "internalType": "string",
          "name": "",
          "type": "string"
        }
      ],
      "stateMutability": "view",
      "type": "function"
    },
    {
      "inputs": [],
      "name": "owner",
      "outputs": [
        {
          "internalType": "address",
          "name": "",
          "type": "address"
        }
      ],
      "stateMutability": "view",
      "type": "function"
    },
    {
      "inputs": [
        {
          "internalType": "uint256",
          "name": "tokenId",
          "type": "uint256"
        }
      ],
      "name": "ownerOf",
      "outputs": [
        {
          "internalType": "address",
          "name": "",
          "type": "address"
        }
      ],
      "stateMutability": "view",
      "type": "function"
    },
    {
      "inputs": [],
      "name": "publicSale",
      "outputs": [
        {
          "internalType": "bool",
          "name": "",
          "type": "bool"
        }
      ],
      "stateMutability": "view",
      "type": "function"
    },
    {
      "inputs": [],
      "name": "renounceOwnership",
      "outputs": [],
      "stateMutability": "nonpayable",
      "type": "function"
    },
    {
      "inputs": [],
      "name": "revealed",
      "outputs": [
        {
          "internalType": "bool",
          "name": "",
          "type": "bool"
        }
      ],
      "stateMutability": "view",
      "type": "function"
    },
    {
      "inputs": [
        {
          "internalType": "address",
          "name": "from",
          "type": "address"
        },
        {
          "internalType": "address",
          "name": "to",
          "type": "address"
        },
        {
          "internalType": "uint256",
          "name": "tokenId",
          "type": "uint256"
        }
      ],
      "name": "safeTransferFrom",
      "outputs": [],
      "stateMutability": "nonpayable",
      "type": "function"
    },
    {
      "inputs": [
        {
          "internalType": "address",
          "name": "from",
          "type": "address"
        },
        {
          "internalType": "address",
          "name": "to",
          "type": "address"
        },
        {
          "internalType": "uint256",
          "name": "tokenId",
          "type": "uint256"
        },
        {
          "internalType": "bytes",
          "name": "_data",
          "type": "bytes"
        }
      ],
      "name": "safeTransferFrom",
      "outputs": [],
      "stateMutability": "nonpayable",
      "type": "function"
    },
    {
      "inputs": [
        {
          "internalType": "address",
          "name": "operator",
          "type": "address"
        },
        {
          "internalType": "bool",
          "name": "approved",
          "type": "bool"
        }
      ],
      "name": "setApprovalForAll",
      "outputs": [],
      "stateMutability": "nonpayable",
      "type": "function"
    },
    {
      "inputs": [
        {
          "internalType": "string",
          "name": "_baseHiddenUri",
          "type": "string"
        }
      ],
      "name": "setBaseHiddenUri",
      "outputs": [],
      "stateMutability": "nonpayable",
      "type": "function"
    },
    {
      "inputs": [
        {
          "internalType": "string",
          "name": "_newBaseURI",
          "type": "string"
        }
      ],
      "name": "setBaseURI",
      "outputs": [],
      "stateMutability": "nonpayable",
      "type": "function"
    },
    {
      "inputs": [
        {
          "internalType": "uint256",
          "name": "_newMaxMints",
          "type": "uint256"
        }
      ],
      "name": "setMaxMints",
      "outputs": [],
      "stateMutability": "nonpayable",
      "type": "function"
    },
    {
      "inputs": [
        {
          "internalType": "uint256",
          "name": "_newSupply",
          "type": "uint256"
        }
      ],
      "name": "setMaxSupply",
      "outputs": [],
      "stateMutability": "nonpayable",
      "type": "function"
    },
    {
      "inputs": [
        {
          "internalType": "bytes32",
          "name": "_root",
          "type": "bytes32"
        }
      ],
      "name": "setMerkleRoot",
      "outputs": [],
      "stateMutability": "nonpayable",
      "type": "function"
    },
    {
      "inputs": [
        {
          "internalType": "uint256",
          "name": "_mintRate",
          "type": "uint256"
        }
      ],
      "name": "setMintRate",
      "outputs": [],
      "stateMutability": "nonpayable",
      "type": "function"
    },
    {
      "inputs": [
        {
          "internalType": "uint256",
          "name": "_newWhiteListMaxMints",
          "type": "uint256"
        }
      ],
      "name": "setWhiteListMaxMints",
      "outputs": [],
      "stateMutability": "nonpayable",
      "type": "function"
    },
    {
      "inputs": [
        {
          "internalType": "uint256",
          "name": "_mintRate",
          "type": "uint256"
        }
      ],
      "name": "setWhitelistMintRate",
      "outputs": [],
      "stateMutability": "nonpayable",
      "type": "function"
    },
    {
      "inputs": [
        {
          "internalType": "bytes4",
          "name": "interfaceId",
          "type": "bytes4"
        }
      ],
      "name": "supportsInterface",
      "outputs": [
        {
          "internalType": "bool",
          "name": "",
          "type": "bool"
        }
      ],
      "stateMutability": "view",
      "type": "function"
    },
    {
      "inputs": [],
      "name": "symbol",
      "outputs": [
        {
          "internalType": "string",
          "name": "",
          "type": "string"
        }
      ],
      "stateMutability": "view",
      "type": "function"
    },
    {
      "inputs": [],
      "name": "togglePublicSale",
      "outputs": [],
      "stateMutability": "nonpayable",
      "type": "function"
    },
    {
      "inputs": [],
      "name": "toggleReveal",
      "outputs": [],
      "stateMutability": "nonpayable",
      "type": "function"
    },
    {
      "inputs": [],
      "name": "toggleWhitelistSale",
      "outputs": [],
      "stateMutability": "nonpayable",
      "type": "function"
    },
    {
      "inputs": [
        {
          "internalType": "uint256",
          "name": "tokenId",
          "type": "uint256"
        }
      ],
      "name": "tokenURI",
      "outputs": [
        {
          "internalType": "string",
          "name": "",
          "type": "string"
        }
      ],
      "stateMutability": "view",
      "type": "function"
    },
    {
      "inputs": [],
      "name": "totalSupply",
      "outputs": [
        {
          "internalType": "uint256",
          "name": "",
          "type": "uint256"
        }
      ],
      "stateMutability": "view",
      "type": "function"
    },
    {
      "inputs": [
        {
          "internalType": "address",
          "name": "from",
          "type": "address"
        },
        {
          "internalType": "address",
          "name": "to",
          "type": "address"
        },
        {
          "internalType": "uint256",
          "name": "tokenId",
          "type": "uint256"
        }
      ],
      "name": "transferFrom",
      "outputs": [],
      "stateMutability": "nonpayable",
      "type": "function"
    },
    {
      "inputs": [
        {
          "internalType": "address",
          "name": "newOwner",
          "type": "address"
        }
      ],
      "name": "transferOwnership",
      "outputs": [],
      "stateMutability": "nonpayable",
      "type": "function"
    },
    {
      "inputs": [
        {
          "internalType": "address",
          "name": "",
          "type": "address"
        }
      ],
      "name": "usedAddresses",
      "outputs": [
        {
          "internalType": "uint256",
          "name": "",
          "type": "uint256"
        }
      ],
      "stateMutability": "view",
      "type": "function"
    },
    {
      "inputs": [],
      "name": "whiteListMaxMints",
      "outputs": [
        {
          "internalType": "uint256",
          "name": "",
          "type": "uint256"
        }
      ],
      "stateMutability": "view",
      "type": "function"
    },
    {
      "inputs": [
        {
          "internalType": "uint256",
          "name": "quantity",
          "type": "uint256"
        },
        {
          "internalType": "bytes32[]",
          "name": "proof",
          "type": "bytes32[]"
        }
      ],
      "name": "whiteListMint",
      "outputs": [],
      "stateMutability": "payable",
      "type": "function"
    },
    {
      "inputs": [
        {
          "internalType": "address",
          "name": "",
          "type": "address"
        }
      ],
      "name": "whiteListUsedAddresses",
      "outputs": [
        {
          "internalType": "uint256",
          "name": "",
          "type": "uint256"
        }
      ],
      "stateMutability": "view",
      "type": "function"
    },
    {
      "inputs": [],
      "name": "whitelistMintRate",
      "outputs": [
        {
          "internalType": "uint256",
          "name": "",
          "type": "uint256"
        }
      ],
      "stateMutability": "view",
      "type": "function"
    },
    {
      "inputs": [],
      "name": "whitelistSale",
      "outputs": [
        {
          "internalType": "bool",
          "name": "",
          "type": "bool"
        }
      ],
      "stateMutability": "view",
      "type": "function"
    },
    {
      "inputs": [],
      "name": "withdraw",
      "outputs": [],
      "stateMutability": "payable",
      "type": "function"
    }
  ],
  "bytecode": "0x60806040526005600c556002600d55611a0a600e556701144b67282ea000600f5566c55a6e4145e0006010556040518060400160405280600581526020017f2e6a736f6e0000000000000000000000000000000000000000000000000000008152506011908051906020019062000078929190620002df565b506040518060200160405280600081525060129080519060200190620000a0929190620002df565b506040518060200160405280600081525060139080519060200190620000c8929190620002df565b506000601460006101000a81548160ff0219169083151502179055506000601460016101000a81548160ff0219169083151502179055506000601460026101000a81548160ff0219169083151502179055503480156200012757600080fd5b506040518060400160405280601081526020017f4b6974737564656e20466f78666f6e65000000000000000000000000000000008152506040518060400160405280600681526020017f4b53444e464600000000000000000000000000000000000000000000000000008152508160029080519060200190620001ac929190620002df565b508060039080519060200190620001c5929190620002df565b50620001d66200020c60201b60201c565b6000819055505050600160088190555062000206620001fa6200021160201b60201c565b6200021960201b60201c565b620003f4565b600090565b600033905090565b6000600960009054906101000a900473ffffffffffffffffffffffffffffffffffffffff16905081600960006101000a81548173ffffffffffffffffffffffffffffffffffffffff021916908373ffffffffffffffffffffffffffffffffffffffff1602179055508173ffffffffffffffffffffffffffffffffffffffff168173ffffffffffffffffffffffffffffffffffffffff167f8be0079c531659141344cd1fd0a4f28419497f9722a3daafe3b4186f6b6457e060405160405180910390a35050565b828054620002ed906200038f565b90600052602060002090601f0160209004810192826200031157600085556200035d565b82601f106200032c57805160ff19168380011785556200035d565b828001600101855582156200035d579182015b828111156200035c5782518255916020019190600101906200033f565b5b5090506200036c919062000370565b5090565b5b808211156200038b57600081600090555060010162000371565b5090565b60006002820490506001821680620003a857607f821691505b60208210811415620003bf57620003be620003c5565b5b50919050565b7f4e487b7100000000000000000000000000000000000000000000000000000000600052602260045260246000fd5b6145e980620004046000396000f3fe6080604052600436106102885760003560e01c80636f8b44b01161015a578063b6b6f0c3116100c1578063d5abeb011161007a578063d5abeb011461095b578063dbe2193f14610986578063e222c7f9146109af578063e985e9c5146109c6578063ee5735a814610a03578063f2fde38b14610a2e57610288565b8063b6b6f0c314610849578063b88d4fde14610874578063c66828621461089d578063c87b56dd146108c8578063ca0dcf1614610905578063d547cfb71461093057610288565b80638fe11a97116101135780638fe11a971461074657806395d89b411461077157806399f19cea1461079c578063a0712d68146107c7578063a22cb465146107e3578063acdce2731461080c57610288565b80636f8b44b01461064c57806370a0823114610675578063715018a6146106b257806379c9cb7b146106c95780637cb64759146106f25780638da5cb5b1461071b57610288565b80632e809ec1116101fe57806351830227116101b7578063518302271461056257806355f804b31461058d57806359eda1b5146105b65780635b8ad429146105cd5780636352211e146105e45780636c0360eb1461062157610288565b80632e809ec1146104835780632eb4a7ab146104ae57806331ffd6f1146104d957806333bc1c5c146105045780633ccfd60b1461052f57806342842e0e1461053957610288565b806313bfabc01161025057806313bfabc0146103775780631432d72d146103b45780631598279f146103dd57806318160ddd146104065780631b7746871461043157806323b872dd1461045a57610288565b806301ffc9a71461028d57806306fdde03146102ca578063081812fc146102f5578063095ea7b314610332578063118768751461035b575b600080fd5b34801561029957600080fd5b506102b460048036038101906102af9190613b2c565b610a57565b6040516102c19190613ef4565b60405180910390f35b3480156102d657600080fd5b506102df610b39565b6040516102ec9190613f2a565b60405180910390f35b34801561030157600080fd5b5061031c60048036038101906103179190613bbf565b610bcb565b6040516103299190613e8d565b60405180910390f35b34801561033e57600080fd5b5061035960048036038101906103549190613ac7565b610c47565b005b61037560048036038101906103709190613be8565b610d4c565b005b34801561038357600080fd5b5061039e6004803603810190610399919061395c565b610fe4565b6040516103ab9190613fcc565b60405180910390f35b3480156103c057600080fd5b506103db60048036038101906103d69190613bbf565b610ffc565b005b3480156103e957600080fd5b5061040460048036038101906103ff9190613b7e565b611082565b005b34801561041257600080fd5b5061041b611118565b6040516104289190613fcc565b60405180910390f35b34801561043d57600080fd5b5061045860048036038101906104539190613bbf565b61112f565b005b34801561046657600080fd5b50610481600480360381019061047c91906139c1565b6111b5565b005b34801561048f57600080fd5b506104986111c5565b6040516104a59190613fcc565b60405180910390f35b3480156104ba57600080fd5b506104c36111cb565b6040516104d09190613f0f565b60405180910390f35b3480156104e557600080fd5b506104ee6111d1565b6040516104fb9190613ef4565b60405180910390f35b34801561051057600080fd5b506105196111e4565b6040516105269190613ef4565b60405180910390f35b6105376111f7565b005b34801561054557600080fd5b50610560600480360381019061055b91906139c1565b6112c3565b005b34801561056e57600080fd5b506105776112e3565b6040516105849190613ef4565b60405180910390f35b34801561059957600080fd5b506105b460048036038101906105af9190613b7e565b6112f6565b005b3480156105c257600080fd5b506105cb61138c565b005b3480156105d957600080fd5b506105e2611434565b005b3480156105f057600080fd5b5061060b60048036038101906106069190613bbf565b6114dc565b6040516106189190613e8d565b60405180910390f35b34801561062d57600080fd5b506106366114f2565b6040516106439190613f2a565b60405180910390f35b34801561065857600080fd5b50610673600480360381019061066e9190613bbf565b611580565b005b34801561068157600080fd5b5061069c6004803603810190610697919061395c565b611606565b6040516106a99190613fcc565b60405180910390f35b3480156106be57600080fd5b506106c76116d6565b005b3480156106d557600080fd5b506106f060048036038101906106eb9190613bbf565b61175e565b005b3480156106fe57600080fd5b5061071960048036038101906107149190613b03565b6117e4565b005b34801561072757600080fd5b5061073061186a565b60405161073d9190613e8d565b60405180910390f35b34801561075257600080fd5b5061075b611894565b6040516107689190613f2a565b60405180910390f35b34801561077d57600080fd5b50610786611922565b6040516107939190613f2a565b60405180910390f35b3480156107a857600080fd5b506107b16119b4565b6040516107be9190613fcc565b60405180910390f35b6107e160048036038101906107dc9190613bbf565b611a59565b005b3480156107ef57600080fd5b5061080a60048036038101906108059190613a8b565b611c2f565b005b34801561081857600080fd5b50610833600480360381019061082e919061395c565b611da7565b6040516108409190613fcc565b60405180910390f35b34801561085557600080fd5b5061085e611dbf565b60405161086b9190613fcc565b60405180910390f35b34801561088057600080fd5b5061089b60048036038101906108969190613a10565b611dc5565b005b3480156108a957600080fd5b506108b2611e3d565b6040516108bf9190613f2a565b60405180910390f35b3480156108d457600080fd5b506108ef60048036038101906108ea9190613bbf565b611ecb565b6040516108fc9190613f2a565b60405180910390f35b34801561091157600080fd5b5061091a611fea565b6040516109279190613fcc565b60405180910390f35b34801561093c57600080fd5b50610945611ff0565b6040516109529190613f2a565b60405180910390f35b34801561096757600080fd5b50610970612082565b60405161097d9190613fcc565b60405180910390f35b34801561099257600080fd5b506109ad60048036038101906109a89190613bbf565b612088565b005b3480156109bb57600080fd5b506109c461210e565b005b3480156109d257600080fd5b506109ed60048036038101906109e89190613985565b6121b6565b6040516109fa9190613ef4565b60405180910390f35b348015610a0f57600080fd5b50610a1861224a565b604051610a259190613fcc565b60405180910390f35b348015610a3a57600080fd5b50610a556004803603810190610a50919061395c565b612250565b005b60007f80ac58cd000000000000000000000000000000000000000000000000000000007bffffffffffffffffffffffffffffffffffffffffffffffffffffffff1916827bffffffffffffffffffffffffffffffffffffffffffffffffffffffff19161480610b2257507f5b5e139f000000000000000000000000000000000000000000000000000000007bffffffffffffffffffffffffffffffffffffffffffffffffffffffff1916827bffffffffffffffffffffffffffffffffffffffffffffffffffffffff1916145b80610b325750610b3182612348565b5b9050919050565b606060028054610b489061429b565b80601f0160208091040260200160405190810160405280929190818152602001828054610b749061429b565b8015610bc15780601f10610b9657610100808354040283529160200191610bc1565b820191906000526020600020905b815481529060010190602001808311610ba457829003601f168201915b5050505050905090565b6000610bd6826123b2565b610c0c576040517fcf4700e400000000000000000000000000000000000000000000000000000000815260040160405180910390fd5b6006600083815260200190815260200160002060009054906101000a900473ffffffffffffffffffffffffffffffffffffffff169050919050565b6000610c52826114dc565b90508073ffffffffffffffffffffffffffffffffffffffff168373ffffffffffffffffffffffffffffffffffffffff161415610cba576040517f943f7b8c00000000000000000000000000000000000000000000000000000000815260040160405180910390fd5b8073ffffffffffffffffffffffffffffffffffffffff16610cd9612400565b73ffffffffffffffffffffffffffffffffffffffff1614610d3c57610d0581610d00612400565b6121b6565b610d3b576040517fcfb3b94200000000000000000000000000000000000000000000000000000000815260040160405180910390fd5b5b610d47838383612408565b505050565b60026008541415610d92576040517f08c379a0000000000000000000000000000000000000000000000000000000008152600401610d8990613fac565b60405180910390fd5b6002600881905550600d54831115610dd6576040517f38d8b70c00000000000000000000000000000000000000000000000000000000815260040160405180910390fd5b3483601054610de5919061414d565b14610e1c576040517fb457f15800000000000000000000000000000000000000000000000000000000815260040160405180910390fd5b600d5483601660003373ffffffffffffffffffffffffffffffffffffffff1673ffffffffffffffffffffffffffffffffffffffff16815260200190815260200160002054610e6a91906140c6565b1115610ea2576040517f90b8614100000000000000000000000000000000000000000000000000000000815260040160405180910390fd5b601460029054906101000a900460ff16610ee8576040517f04cc9ce200000000000000000000000000000000000000000000000000000000815260040160405180910390fd5b600e5483610ef4611118565b610efe91906140c6565b1115610f36576040517f76592c6f00000000000000000000000000000000000000000000000000000000815260040160405180910390fd5b610f413383836124ba565b610f77576040517f3f1636e200000000000000000000000000000000000000000000000000000000815260040160405180910390fd5b82601660003373ffffffffffffffffffffffffffffffffffffffff1673ffffffffffffffffffffffffffffffffffffffff1681526020019081526020016000206000828254610fc691906140c6565b92505081905550610fd73384612518565b6001600881905550505050565b60156020528060005260406000206000915090505481565b611004612400565b73ffffffffffffffffffffffffffffffffffffffff1661102261186a565b73ffffffffffffffffffffffffffffffffffffffff1614611078576040517f08c379a000000000000000000000000000000000000000000000000000000000815260040161106f90613f8c565b60405180910390fd5b8060108190555050565b61108a612400565b73ffffffffffffffffffffffffffffffffffffffff166110a861186a565b73ffffffffffffffffffffffffffffffffffffffff16146110fe576040517f08c379a00000000000000000000000000000000000000000000000000000000081526004016110f590613f8c565b60405180910390fd5b80601390805190602001906111149291906136de565b5050565b6000611122612536565b6001546000540303905090565b611137612400565b73ffffffffffffffffffffffffffffffffffffffff1661115561186a565b73ffffffffffffffffffffffffffffffffffffffff16146111ab576040517f08c379a00000000000000000000000000000000000000000000000000000000081526004016111a290613f8c565b60405180910390fd5b80600d8190555050565b6111c083838361253b565b505050565b60105481565b600b5481565b601460029054906101000a900460ff1681565b601460019054906101000a900460ff1681565b6111ff612400565b73ffffffffffffffffffffffffffffffffffffffff1661121d61186a565b73ffffffffffffffffffffffffffffffffffffffff1614611273576040517f08c379a000000000000000000000000000000000000000000000000000000000815260040161126a90613f8c565b60405180910390fd5b61127b61186a565b73ffffffffffffffffffffffffffffffffffffffff166108fc479081150290604051600060405180830381858888f193505050501580156112c0573d6000803e3d6000fd5b50565b6112de83838360405180602001604052806000815250611dc5565b505050565b601460009054906101000a900460ff1681565b6112fe612400565b73ffffffffffffffffffffffffffffffffffffffff1661131c61186a565b73ffffffffffffffffffffffffffffffffffffffff1614611372576040517f08c379a000000000000000000000000000000000000000000000000000000000815260040161136990613f8c565b60405180910390fd5b80601290805190602001906113889291906136de565b5050565b611394612400565b73ffffffffffffffffffffffffffffffffffffffff166113b261186a565b73ffffffffffffffffffffffffffffffffffffffff1614611408576040517f08c379a00000000000000000000000000000000000000000000000000000000081526004016113ff90613f8c565b60405180910390fd5b601460029054906101000a900460ff1615601460026101000a81548160ff021916908315150217905550565b61143c612400565b73ffffffffffffffffffffffffffffffffffffffff1661145a61186a565b73ffffffffffffffffffffffffffffffffffffffff16146114b0576040517f08c379a00000000000000000000000000000000000000000000000000000000081526004016114a790613f8c565b60405180910390fd5b601460009054906101000a900460ff1615601460006101000a81548160ff021916908315150217905550565b60006114e7826129f1565b600001519050919050565b601280546114ff9061429b565b80601f016020809104026020016040519081016040528092919081815260200182805461152b9061429b565b80156115785780601f1061154d57610100808354040283529160200191611578565b820191906000526020600020905b81548152906001019060200180831161155b57829003601f168201915b505050505081565b611588612400565b73ffffffffffffffffffffffffffffffffffffffff166115a661186a565b73ffffffffffffffffffffffffffffffffffffffff16146115fc576040517f08c379a00000000000000000000000000000000000000000000000000000000081526004016115f390613f8c565b60405180910390fd5b80600e8190555050565b60008073ffffffffffffffffffffffffffffffffffffffff168273ffffffffffffffffffffffffffffffffffffffff16141561166e576040517f8f4eb60400000000000000000000000000000000000000000000000000000000815260040160405180910390fd5b600560008373ffffffffffffffffffffffffffffffffffffffff1673ffffffffffffffffffffffffffffffffffffffff16815260200190815260200160002060000160009054906101000a900467ffffffffffffffff1667ffffffffffffffff169050919050565b6116de612400565b73ffffffffffffffffffffffffffffffffffffffff166116fc61186a565b73ffffffffffffffffffffffffffffffffffffffff1614611752576040517f08c379a000000000000000000000000000000000000000000000000000000000815260040161174990613f8c565b60405180910390fd5b61175c6000612c7c565b565b611766612400565b73ffffffffffffffffffffffffffffffffffffffff1661178461186a565b73ffffffffffffffffffffffffffffffffffffffff16146117da576040517f08c379a00000000000000000000000000000000000000000000000000000000081526004016117d190613f8c565b60405180910390fd5b80600c8190555050565b6117ec612400565b73ffffffffffffffffffffffffffffffffffffffff1661180a61186a565b73ffffffffffffffffffffffffffffffffffffffff1614611860576040517f08c379a000000000000000000000000000000000000000000000000000000000815260040161185790613f8c565b60405180910390fd5b80600b8190555050565b6000600960009054906101000a900473ffffffffffffffffffffffffffffffffffffffff16905090565b601380546118a19061429b565b80601f01602080910402602001604051908101604052809291908181526020018280546118cd9061429b565b801561191a5780601f106118ef5761010080835404028352916020019161191a565b820191906000526020600020905b8154815290600101906020018083116118fd57829003601f168201915b505050505081565b6060600380546119319061429b565b80601f016020809104026020016040519081016040528092919081815260200182805461195d9061429b565b80156119aa5780601f1061197f576101008083540402835291602001916119aa565b820191906000526020600020905b81548152906001019060200180831161198d57829003601f168201915b5050505050905090565b6000601460029054906101000a900460ff1615611a1f57601660003373ffffffffffffffffffffffffffffffffffffffff1673ffffffffffffffffffffffffffffffffffffffff16815260200190815260200160002054600d54611a1891906141a7565b9050611a56565b601460019054906101000a900460ff1615611a5157611a3d33612d42565b600c54611a4a91906141a7565b9050611a56565b600090505b90565b60026008541415611a9f576040517f08c379a0000000000000000000000000000000000000000000000000000000008152600401611a9690613fac565b60405180910390fd5b6002600881905550601460019054906101000a900460ff16611aed576040517fa9f4f87100000000000000000000000000000000000000000000000000000000815260040160405180910390fd5b600c54601660003373ffffffffffffffffffffffffffffffffffffffff1673ffffffffffffffffffffffffffffffffffffffff16815260200190815260200160002054611b3933612d42565b83611b4491906140c6565b611b4e91906141a7565b1115611b86576040517f38d8b70c00000000000000000000000000000000000000000000000000000000815260040160405180910390fd5b600e5481611b92611118565b611b9c91906140c6565b1115611bd4576040517f76592c6f00000000000000000000000000000000000000000000000000000000815260040160405180910390fd5b3481600f54611be3919061414d565b14611c1a576040517fb457f15800000000000000000000000000000000000000000000000000000000815260040160405180910390fd5b611c243382612518565b600160088190555050565b611c37612400565b73ffffffffffffffffffffffffffffffffffffffff168273ffffffffffffffffffffffffffffffffffffffff161415611c9c576040517fb06307db00000000000000000000000000000000000000000000000000000000815260040160405180910390fd5b8060076000611ca9612400565b73ffffffffffffffffffffffffffffffffffffffff1673ffffffffffffffffffffffffffffffffffffffff16815260200190815260200160002060008473ffffffffffffffffffffffffffffffffffffffff1673ffffffffffffffffffffffffffffffffffffffff16815260200190815260200160002060006101000a81548160ff0219169083151502179055508173ffffffffffffffffffffffffffffffffffffffff16611d56612400565b73ffffffffffffffffffffffffffffffffffffffff167f17307eab39ab6107e8899845ad3d59bd9653f200f220920489ca2b5937696c3183604051611d9b9190613ef4565b60405180910390a35050565b60166020528060005260406000206000915090505481565b600c5481565b611dd084848461253b565b611def8373ffffffffffffffffffffffffffffffffffffffff16612dac565b15611e3757611e0084848484612dcf565b611e36576040517fd1a57ed600000000000000000000000000000000000000000000000000000000815260040160405180910390fd5b5b50505050565b60118054611e4a9061429b565b80601f0160208091040260200160405190810160405280929190818152602001828054611e769061429b565b8015611ec35780601f10611e9857610100808354040283529160200191611ec3565b820191906000526020600020905b815481529060010190602001808311611ea657829003601f168201915b505050505081565b6060611ed6826123b2565b611f15576040517f08c379a0000000000000000000000000000000000000000000000000000000008152600401611f0c90613f6c565b60405180910390fd5b601460009054906101000a900460ff16611f89576000611f33612f2f565b90506000815111611f535760405180602001604052806000815250611f81565b80611f5d84612fc1565b6011604051602001611f7193929190613e5c565b6040516020818303038152906040525b915050611fe5565b6000611f9361316e565b90506000815111611fb35760405180602001604052806000815250611fe1565b80611fbd84612fc1565b6011604051602001611fd193929190613e5c565b6040516020818303038152906040525b9150505b919050565b600f5481565b606060128054611fff9061429b565b80601f016020809104026020016040519081016040528092919081815260200182805461202b9061429b565b80156120785780601f1061204d57610100808354040283529160200191612078565b820191906000526020600020905b81548152906001019060200180831161205b57829003601f168201915b5050505050905090565b600e5481565b612090612400565b73ffffffffffffffffffffffffffffffffffffffff166120ae61186a565b73ffffffffffffffffffffffffffffffffffffffff1614612104576040517f08c379a00000000000000000000000000000000000000000000000000000000081526004016120fb90613f8c565b60405180910390fd5b80600f8190555050565b612116612400565b73ffffffffffffffffffffffffffffffffffffffff1661213461186a565b73ffffffffffffffffffffffffffffffffffffffff161461218a576040517f08c379a000000000000000000000000000000000000000000000000000000000815260040161218190613f8c565b60405180910390fd5b601460019054906101000a900460ff1615601460016101000a81548160ff021916908315150217905550565b6000600760008473ffffffffffffffffffffffffffffffffffffffff1673ffffffffffffffffffffffffffffffffffffffff16815260200190815260200160002060008373ffffffffffffffffffffffffffffffffffffffff1673ffffffffffffffffffffffffffffffffffffffff16815260200190815260200160002060009054906101000a900460ff16905092915050565b600d5481565b612258612400565b73ffffffffffffffffffffffffffffffffffffffff1661227661186a565b73ffffffffffffffffffffffffffffffffffffffff16146122cc576040517f08c379a00000000000000000000000000000000000000000000000000000000081526004016122c390613f8c565b60405180910390fd5b600073ffffffffffffffffffffffffffffffffffffffff168173ffffffffffffffffffffffffffffffffffffffff16141561233c576040517f08c379a000000000000000000000000000000000000000000000000000000000815260040161233390613f4c565b60405180910390fd5b61234581612c7c565b50565b60007f01ffc9a7000000000000000000000000000000000000000000000000000000007bffffffffffffffffffffffffffffffffffffffffffffffffffffffff1916827bffffffffffffffffffffffffffffffffffffffffffffffffffffffff1916149050919050565b6000816123bd612536565b111580156123cc575060005482105b80156123f9575060046000838152602001908152602001600020600001601c9054906101000a900460ff16155b9050919050565b600033905090565b826006600084815260200190815260200160002060006101000a81548173ffffffffffffffffffffffffffffffffffffffff021916908373ffffffffffffffffffffffffffffffffffffffff160217905550818373ffffffffffffffffffffffffffffffffffffffff168273ffffffffffffffffffffffffffffffffffffffff167f8c5be1e5ebec7d5bd14f71427d1e84f3dd0314c0f7b2291e5b200ac8c7c3b92560405160405180910390a4505050565b600061250f6124c885613200565b848480806020026020016040519081016040528093929190818152602001838360200280828437600081840152601f19601f82011690508083019250505050505050613230565b90509392505050565b612532828260405180602001604052806000815250613247565b5050565b600090565b6000612546826129f1565b90508373ffffffffffffffffffffffffffffffffffffffff16816000015173ffffffffffffffffffffffffffffffffffffffff16146125b1576040517fa114810000000000000000000000000000000000000000000000000000000000815260040160405180910390fd5b60008473ffffffffffffffffffffffffffffffffffffffff166125d2612400565b73ffffffffffffffffffffffffffffffffffffffff1614806126015750612600856125fb612400565b6121b6565b5b80612646575061260f612400565b73ffffffffffffffffffffffffffffffffffffffff1661262e84610bcb565b73ffffffffffffffffffffffffffffffffffffffff16145b90508061267f576040517f59c896be00000000000000000000000000000000000000000000000000000000815260040160405180910390fd5b600073ffffffffffffffffffffffffffffffffffffffff168473ffffffffffffffffffffffffffffffffffffffff1614156126e6576040517fea553b3400000000000000000000000000000000000000000000000000000000815260040160405180910390fd5b6126f38585856001613609565b6126ff60008487612408565b6001600560008773ffffffffffffffffffffffffffffffffffffffff1673ffffffffffffffffffffffffffffffffffffffff16815260200190815260200160002060000160008282829054906101000a900467ffffffffffffffff160392506101000a81548167ffffffffffffffff021916908367ffffffffffffffff1602179055506001600560008673ffffffffffffffffffffffffffffffffffffffff1673ffffffffffffffffffffffffffffffffffffffff16815260200190815260200160002060000160008282829054906101000a900467ffffffffffffffff160192506101000a81548167ffffffffffffffff021916908367ffffffffffffffff1602179055506000600460008581526020019081526020016000209050848160000160006101000a81548173ffffffffffffffffffffffffffffffffffffffff021916908373ffffffffffffffffffffffffffffffffffffffff160217905550428160000160146101000a81548167ffffffffffffffff021916908367ffffffffffffffff16021790555060006001850190506000600460008381526020019081526020016000209050600073ffffffffffffffffffffffffffffffffffffffff168160000160009054906101000a900473ffffffffffffffffffffffffffffffffffffffff1673ffffffffffffffffffffffffffffffffffffffff16141561297f57600054821461297e57878160000160006101000a81548173ffffffffffffffffffffffffffffffffffffffff021916908373ffffffffffffffffffffffffffffffffffffffff16021790555084602001518160000160146101000a81548167ffffffffffffffff021916908367ffffffffffffffff1602179055505b5b505050828473ffffffffffffffffffffffffffffffffffffffff168673ffffffffffffffffffffffffffffffffffffffff167fddf252ad1be2c89b69c2b068fc378daa952ba7f163c4a11628f55a4df523b3ef60405160405180910390a46129ea858585600161360f565b5050505050565b6129f9613764565b600082905080612a07612536565b11612c4557600054811015612c44576000600460008381526020019081526020016000206040518060600160405290816000820160009054906101000a900473ffffffffffffffffffffffffffffffffffffffff1673ffffffffffffffffffffffffffffffffffffffff1673ffffffffffffffffffffffffffffffffffffffff1681526020016000820160149054906101000a900467ffffffffffffffff1667ffffffffffffffff1667ffffffffffffffff16815260200160008201601c9054906101000a900460ff16151515158152505090508060400151612c4257600073ffffffffffffffffffffffffffffffffffffffff16816000015173ffffffffffffffffffffffffffffffffffffffff1614612b26578092505050612c77565b5b600115612c4157818060019003925050600460008381526020019081526020016000206040518060600160405290816000820160009054906101000a900473ffffffffffffffffffffffffffffffffffffffff1673ffffffffffffffffffffffffffffffffffffffff1673ffffffffffffffffffffffffffffffffffffffff1681526020016000820160149054906101000a900467ffffffffffffffff1667ffffffffffffffff1667ffffffffffffffff16815260200160008201601c9054906101000a900460ff1615151515815250509050600073ffffffffffffffffffffffffffffffffffffffff16816000015173ffffffffffffffffffffffffffffffffffffffff1614612c3c578092505050612c77565b612b27565b5b505b5b6040517fdf2d9b4200000000000000000000000000000000000000000000000000000000815260040160405180910390fd5b919050565b6000600960009054906101000a900473ffffffffffffffffffffffffffffffffffffffff16905081600960006101000a81548173ffffffffffffffffffffffffffffffffffffffff021916908373ffffffffffffffffffffffffffffffffffffffff1602179055508173ffffffffffffffffffffffffffffffffffffffff168173ffffffffffffffffffffffffffffffffffffffff167f8be0079c531659141344cd1fd0a4f28419497f9722a3daafe3b4186f6b6457e060405160405180910390a35050565b6000600560008373ffffffffffffffffffffffffffffffffffffffff1673ffffffffffffffffffffffffffffffffffffffff16815260200190815260200160002060000160089054906101000a900467ffffffffffffffff1667ffffffffffffffff169050919050565b6000808273ffffffffffffffffffffffffffffffffffffffff163b119050919050565b60008373ffffffffffffffffffffffffffffffffffffffff1663150b7a02612df5612400565b8786866040518563ffffffff1660e01b8152600401612e179493929190613ea8565b602060405180830381600087803b158015612e3157600080fd5b505af1925050508015612e6257506040513d601f19601f82011682018060405250810190612e5f9190613b55565b60015b612edc573d8060008114612e92576040519150601f19603f3d011682016040523d82523d6000602084013e612e97565b606091505b50600081511415612ed4576040517fd1a57ed600000000000000000000000000000000000000000000000000000000815260040160405180910390fd5b805181602001fd5b63150b7a0260e01b7bffffffffffffffffffffffffffffffffffffffffffffffffffffffff1916817bffffffffffffffffffffffffffffffffffffffffffffffffffffffff191614915050949350505050565b606060138054612f3e9061429b565b80601f0160208091040260200160405190810160405280929190818152602001828054612f6a9061429b565b8015612fb75780601f10612f8c57610100808354040283529160200191612fb7565b820191906000526020600020905b815481529060010190602001808311612f9a57829003601f168201915b5050505050905090565b60606000821415613009576040518060400160405280600181526020017f30000000000000000000000000000000000000000000000000000000000000008152509050613169565b600082905060005b6000821461303b578080613024906142fe565b915050600a82613034919061411c565b9150613011565b60008167ffffffffffffffff81111561307d577f4e487b7100000000000000000000000000000000000000000000000000000000600052604160045260246000fd5b6040519080825280601f01601f1916602001820160405280156130af5781602001600182028036833780820191505090505b5090505b60008514613162576001826130c891906141a7565b9150600a856130d7919061436b565b60306130e391906140c6565b60f81b81838151811061311f577f4e487b7100000000000000000000000000000000000000000000000000000000600052603260045260246000fd5b60200101907effffffffffffffffffffffffffffffffffffffffffffffffffffffffffffff1916908160001a905350600a8561315b919061411c565b94506130b3565b8093505050505b919050565b60606012805461317d9061429b565b80601f01602080910402602001604051908101604052809291908181526020018280546131a99061429b565b80156131f65780601f106131cb576101008083540402835291602001916131f6565b820191906000526020600020905b8154815290600101906020018083116131d957829003601f168201915b5050505050905090565b6000816040516020016132139190613e41565b604051602081830303815290604052805190602001209050919050565b600061323f82600b5485613615565b905092915050565b600080549050600073ffffffffffffffffffffffffffffffffffffffff168473ffffffffffffffffffffffffffffffffffffffff1614156132b4576040517f2e07630000000000000000000000000000000000000000000000000000000000815260040160405180910390fd5b60008314156132ef576040517fb562e8dd00000000000000000000000000000000000000000000000000000000815260040160405180910390fd5b6132fc6000858386613609565b82600560008673ffffffffffffffffffffffffffffffffffffffff1673ffffffffffffffffffffffffffffffffffffffff16815260200190815260200160002060000160008282829054906101000a900467ffffffffffffffff160192506101000a81548167ffffffffffffffff021916908367ffffffffffffffff16021790555082600560008673ffffffffffffffffffffffffffffffffffffffff1673ffffffffffffffffffffffffffffffffffffffff16815260200190815260200160002060000160088282829054906101000a900467ffffffffffffffff160192506101000a81548167ffffffffffffffff021916908367ffffffffffffffff160217905550836004600083815260200190815260200160002060000160006101000a81548173ffffffffffffffffffffffffffffffffffffffff021916908373ffffffffffffffffffffffffffffffffffffffff160217905550426004600083815260200190815260200160002060000160146101000a81548167ffffffffffffffff021916908367ffffffffffffffff1602179055506000819050600084820190506134bd8673ffffffffffffffffffffffffffffffffffffffff16612dac565b15613582575b818673ffffffffffffffffffffffffffffffffffffffff16600073ffffffffffffffffffffffffffffffffffffffff167fddf252ad1be2c89b69c2b068fc378daa952ba7f163c4a11628f55a4df523b3ef60405160405180910390a46135326000878480600101955087612dcf565b613568576040517fd1a57ed600000000000000000000000000000000000000000000000000000000815260040160405180910390fd5b8082106134c357826000541461357d57600080fd5b6135ed565b5b818060010192508673ffffffffffffffffffffffffffffffffffffffff16600073ffffffffffffffffffffffffffffffffffffffff167fddf252ad1be2c89b69c2b068fc378daa952ba7f163c4a11628f55a4df523b3ef60405160405180910390a4808210613583575b816000819055505050613603600085838661360f565b50505050565b50505050565b50505050565b600082613622858461362c565b1490509392505050565b60008082905060005b84518110156136bc576000858281518110613679577f4e487b7100000000000000000000000000000000000000000000000000000000600052603260045260246000fd5b6020026020010151905080831161369b5761369483826136c7565b92506136a8565b6136a581846136c7565b92505b5080806136b4906142fe565b915050613635565b508091505092915050565b600082600052816020526040600020905092915050565b8280546136ea9061429b565b90600052602060002090601f01602090048101928261370c5760008555613753565b82601f1061372557805160ff1916838001178555613753565b82800160010185558215613753579182015b82811115613752578251825591602001919060010190613737565b5b50905061376091906137a7565b5090565b6040518060600160405280600073ffffffffffffffffffffffffffffffffffffffff168152602001600067ffffffffffffffff1681526020016000151581525090565b5b808211156137c05760008160009055506001016137a8565b5090565b60006137d76137d28461400c565b613fe7565b9050828152602081018484840111156137ef57600080fd5b6137fa848285614259565b509392505050565b60006138156138108461403d565b613fe7565b90508281526020810184848401111561382d57600080fd5b613838848285614259565b509392505050565b60008135905061384f81614540565b92915050565b60008083601f84011261386757600080fd5b8235905067ffffffffffffffff81111561388057600080fd5b60208301915083602082028301111561389857600080fd5b9250929050565b6000813590506138ae81614557565b92915050565b6000813590506138c38161456e565b92915050565b6000813590506138d881614585565b92915050565b6000815190506138ed81614585565b92915050565b600082601f83011261390457600080fd5b81356139148482602086016137c4565b91505092915050565b600082601f83011261392e57600080fd5b813561393e848260208601613802565b91505092915050565b6000813590506139568161459c565b92915050565b60006020828403121561396e57600080fd5b600061397c84828501613840565b91505092915050565b6000806040838503121561399857600080fd5b60006139a685828601613840565b92505060206139b785828601613840565b9150509250929050565b6000806000606084860312156139d657600080fd5b60006139e486828701613840565b93505060206139f586828701613840565b9250506040613a0686828701613947565b9150509250925092565b60008060008060808587031215613a2657600080fd5b6000613a3487828801613840565b9450506020613a4587828801613840565b9350506040613a5687828801613947565b925050606085013567ffffffffffffffff811115613a7357600080fd5b613a7f878288016138f3565b91505092959194509250565b60008060408385031215613a9e57600080fd5b6000613aac85828601613840565b9250506020613abd8582860161389f565b9150509250929050565b60008060408385031215613ada57600080fd5b6000613ae885828601613840565b9250506020613af985828601613947565b9150509250929050565b600060208284031215613b1557600080fd5b6000613b23848285016138b4565b91505092915050565b600060208284031215613b3e57600080fd5b6000613b4c848285016138c9565b91505092915050565b600060208284031215613b6757600080fd5b6000613b75848285016138de565b91505092915050565b600060208284031215613b9057600080fd5b600082013567ffffffffffffffff811115613baa57600080fd5b613bb68482850161391d565b91505092915050565b600060208284031215613bd157600080fd5b6000613bdf84828501613947565b91505092915050565b600080600060408486031215613bfd57600080fd5b6000613c0b86828701613947565b935050602084013567ffffffffffffffff811115613c2857600080fd5b613c3486828701613855565b92509250509250925092565b613c49816141db565b82525050565b613c60613c5b826141db565b614347565b82525050565b613c6f816141ed565b82525050565b613c7e816141f9565b82525050565b6000613c8f82614083565b613c998185614099565b9350613ca9818560208601614268565b613cb281614458565b840191505092915050565b6000613cc88261408e565b613cd281856140aa565b9350613ce2818560208601614268565b613ceb81614458565b840191505092915050565b6000613d018261408e565b613d0b81856140bb565b9350613d1b818560208601614268565b80840191505092915050565b60008154613d348161429b565b613d3e81866140bb565b94506001821660008114613d595760018114613d6a57613d9d565b60ff19831686528186019350613d9d565b613d738561406e565b60005b83811015613d9557815481890152600182019150602081019050613d76565b838801955050505b50505092915050565b6000613db36026836140aa565b9150613dbe82614476565b604082019050919050565b6000613dd66011836140aa565b9150613de1826144c5565b602082019050919050565b6000613df96020836140aa565b9150613e04826144ee565b602082019050919050565b6000613e1c601f836140aa565b9150613e2782614517565b602082019050919050565b613e3b8161424f565b82525050565b6000613e4d8284613c4f565b60148201915081905092915050565b6000613e688286613cf6565b9150613e748285613cf6565b9150613e808284613d27565b9150819050949350505050565b6000602082019050613ea26000830184613c40565b92915050565b6000608082019050613ebd6000830187613c40565b613eca6020830186613c40565b613ed76040830185613e32565b8181036060830152613ee98184613c84565b905095945050505050565b6000602082019050613f096000830184613c66565b92915050565b6000602082019050613f246000830184613c75565b92915050565b60006020820190508181036000830152613f448184613cbd565b905092915050565b60006020820190508181036000830152613f6581613da6565b9050919050565b60006020820190508181036000830152613f8581613dc9565b9050919050565b60006020820190508181036000830152613fa581613dec565b9050919050565b60006020820190508181036000830152613fc581613e0f565b9050919050565b6000602082019050613fe16000830184613e32565b92915050565b6000613ff1614002565b9050613ffd82826142cd565b919050565b6000604051905090565b600067ffffffffffffffff82111561402757614026614429565b5b61403082614458565b9050602081019050919050565b600067ffffffffffffffff82111561405857614057614429565b5b61406182614458565b9050602081019050919050565b60008190508160005260206000209050919050565b600081519050919050565b600081519050919050565b600082825260208201905092915050565b600082825260208201905092915050565b600081905092915050565b60006140d18261424f565b91506140dc8361424f565b9250827fffffffffffffffffffffffffffffffffffffffffffffffffffffffffffffffff038211156141115761411061439c565b5b828201905092915050565b60006141278261424f565b91506141328361424f565b925082614142576141416143cb565b5b828204905092915050565b60006141588261424f565b91506141638361424f565b9250817fffffffffffffffffffffffffffffffffffffffffffffffffffffffffffffffff048311821515161561419c5761419b61439c565b5b828202905092915050565b60006141b28261424f565b91506141bd8361424f565b9250828210156141d0576141cf61439c565b5b828203905092915050565b60006141e68261422f565b9050919050565b60008115159050919050565b6000819050919050565b60007fffffffff0000000000000000000000000000000000000000000000000000000082169050919050565b600073ffffffffffffffffffffffffffffffffffffffff82169050919050565b6000819050919050565b82818337600083830152505050565b60005b8381101561428657808201518184015260208101905061426b565b83811115614295576000848401525b50505050565b600060028204905060018216806142b357607f821691505b602082108114156142c7576142c66143fa565b5b50919050565b6142d682614458565b810181811067ffffffffffffffff821117156142f5576142f4614429565b5b80604052505050565b60006143098261424f565b91507fffffffffffffffffffffffffffffffffffffffffffffffffffffffffffffffff82141561433c5761433b61439c565b5b600182019050919050565b600061435282614359565b9050919050565b600061436482614469565b9050919050565b60006143768261424f565b91506143818361424f565b925082614391576143906143cb565b5b828206905092915050565b7f4e487b7100000000000000000000000000000000000000000000000000000000600052601160045260246000fd5b7f4e487b7100000000000000000000000000000000000000000000000000000000600052601260045260246000fd5b7f4e487b7100000000000000000000000000000000000000000000000000000000600052602260045260246000fd5b7f4e487b7100000000000000000000000000000000000000000000000000000000600052604160045260246000fd5b6000601f19601f8301169050919050565b60008160601b9050919050565b7f4f776e61626c653a206e6577206f776e657220697320746865207a65726f206160008201527f6464726573730000000000000000000000000000000000000000000000000000602082015250565b7f6e6f6e6578697374656e7420746f6b656e000000000000000000000000000000600082015250565b7f4f776e61626c653a2063616c6c6572206973206e6f7420746865206f776e6572600082015250565b7f5265656e7472616e637947756172643a207265656e7472616e742063616c6c00600082015250565b614549816141db565b811461455457600080fd5b50565b614560816141ed565b811461456b57600080fd5b50565b614577816141f9565b811461458257600080fd5b50565b61458e81614203565b811461459957600080fd5b50565b6145a58161424f565b81146145b057600080fd5b5056fea264697066735822122014a19eaceecc75c98befbbd81fd2606546de6e0360ba43c8c24ba3d731755b5f64736f6c63430008040033",
  "linkReferences": {},
  "deployedLinkReferences": {}
}