{
  "_format": "hh-sol-artifact-1",
  "contractName": "KitsudenFoxfone",
  "sourceName": "contracts/KitsudenFoxfone.sol",
  "abi": [
    {
      "inputs": [],
      "stateMutability": "nonpayable",
      "type": "constructor"
    },
    {
      "inputs": [],
      "name": "ApprovalCallerNotOwnerNorApproved",
      "type": "error"
    },
    {
      "inputs": [],
      "name": "ApprovalQueryForNonexistentToken",
      "type": "error"
    },
    {
      "inputs": [],
      "name": "BalanceQueryForZeroAddress",
      "type": "error"
    },
    {
      "inputs": [],
      "name": "ExceededLimit",
      "type": "error"
    },
    {
      "inputs": [],
      "name": "InvalidMerkle",
      "type": "error"
    },
    {
      "inputs": [],
      "name": "MintERC2309QuantityExceedsLimit",
      "type": "error"
    },
    {
      "inputs": [],
      "name": "MintToZeroAddress",
      "type": "error"
    },
    {
      "inputs": [],
      "name": "MintZeroQuantity",
      "type": "error"
    },
    {
      "inputs": [],
      "name": "NotEnoughTokensLeft",
      "type": "error"
    },
    {
      "inputs": [
        {
          "internalType": "address",
          "name": "operator",
          "type": "address"
        }
      ],
      "name": "OperatorNotAllowed",
      "type": "error"
    },
    {
      "inputs": [],
      "name": "OwnerQueryForNonexistentToken",
      "type": "error"
    },
    {
      "inputs": [],
      "name": "OwnershipNotInitializedForExtraData",
      "type": "error"
    },
    {
      "inputs": [],
      "name": "PublicSaleNotLive",
      "type": "error"
    },
    {
      "inputs": [],
      "name": "TransferCallerNotOwnerNorApproved",
      "type": "error"
    },
    {
      "inputs": [],
      "name": "TransferFromIncorrectOwner",
      "type": "error"
    },
    {
      "inputs": [],
      "name": "TransferToNonERC721ReceiverImplementer",
      "type": "error"
    },
    {
      "inputs": [],
      "name": "TransferToZeroAddress",
      "type": "error"
    },
    {
      "inputs": [],
      "name": "URIQueryForNonexistentToken",
      "type": "error"
    },
    {
      "inputs": [],
      "name": "WhitelistNotLive",
      "type": "error"
    },
    {
      "inputs": [],
      "name": "WrongEther",
      "type": "error"
    },
    {
      "anonymous": false,
      "inputs": [
        {
          "indexed": true,
          "internalType": "address",
          "name": "owner",
          "type": "address"
        },
        {
          "indexed": true,
          "internalType": "address",
          "name": "approved",
          "type": "address"
        },
        {
          "indexed": true,
          "internalType": "uint256",
          "name": "tokenId",
          "type": "uint256"
        }
      ],
      "name": "Approval",
      "type": "event"
    },
    {
      "anonymous": false,
      "inputs": [
        {
          "indexed": true,
          "internalType": "address",
          "name": "owner",
          "type": "address"
        },
        {
          "indexed": true,
          "internalType": "address",
          "name": "operator",
          "type": "address"
        },
        {
          "indexed": false,
          "internalType": "bool",
          "name": "approved",
          "type": "bool"
        }
      ],
      "name": "ApprovalForAll",
      "type": "event"
    },
    {
      "anonymous": false,
      "inputs": [
        {
          "indexed": true,
          "internalType": "uint256",
          "name": "fromTokenId",
          "type": "uint256"
        },
        {
          "indexed": false,
          "internalType": "uint256",
          "name": "toTokenId",
          "type": "uint256"
        },
        {
          "indexed": true,
          "internalType": "address",
          "name": "from",
          "type": "address"
        },
        {
          "indexed": true,
          "internalType": "address",
          "name": "to",
          "type": "address"
        }
      ],
      "name": "ConsecutiveTransfer",
      "type": "event"
    },
    {
      "anonymous": false,
      "inputs": [
        {
          "indexed": true,
          "internalType": "address",
          "name": "previousOwner",
          "type": "address"
        },
        {
          "indexed": true,
          "internalType": "address",
          "name": "newOwner",
          "type": "address"
        }
      ],
      "name": "OwnershipTransferred",
      "type": "event"
    },
    {
      "anonymous": false,
      "inputs": [
        {
          "indexed": true,
          "internalType": "address",
          "name": "from",
          "type": "address"
        },
        {
          "indexed": true,
          "internalType": "address",
          "name": "to",
          "type": "address"
        },
        {
          "indexed": true,
          "internalType": "uint256",
          "name": "tokenId",
          "type": "uint256"
        }
      ],
      "name": "Transfer",
      "type": "event"
    },
    {
      "inputs": [],
      "name": "OPERATOR_FILTER_REGISTRY",
      "outputs": [
        {
          "internalType": "contract IOperatorFilterRegistry",
          "name": "",
          "type": "address"
        }
      ],
      "stateMutability": "view",
      "type": "function"
    },
    {
      "inputs": [
        {
          "internalType": "address",
          "name": "operator",
          "type": "address"
        },
        {
          "internalType": "uint256",
          "name": "tokenId",
          "type": "uint256"
        }
      ],
      "name": "approve",
      "outputs": [],
      "stateMutability": "payable",
      "type": "function"
    },
    {
      "inputs": [
        {
          "internalType": "address",
          "name": "owner",
          "type": "address"
        }
      ],
      "name": "balanceOf",
      "outputs": [
        {
          "internalType": "uint256",
          "name": "",
          "type": "uint256"
        }
      ],
      "stateMutability": "view",
      "type": "function"
    },
    {
      "inputs": [],
      "name": "baseExtension",
      "outputs": [
        {
          "internalType": "string",
          "name": "",
          "type": "string"
        }
      ],
      "stateMutability": "view",
      "type": "function"
    },
    {
      "inputs": [],
      "name": "baseHiddenUri",
      "outputs": [
        {
          "internalType": "string",
          "name": "",
          "type": "string"
        }
      ],
      "stateMutability": "view",
      "type": "function"
    },
    {
      "inputs": [],
      "name": "baseURI",
      "outputs": [
        {
          "internalType": "string",
          "name": "",
          "type": "string"
        }
      ],
      "stateMutability": "view",
      "type": "function"
    },
    {
      "inputs": [
        {
          "internalType": "uint256",
          "name": "tokenId",
          "type": "uint256"
        }
      ],
      "name": "getApproved",
      "outputs": [
        {
          "internalType": "address",
          "name": "",
          "type": "address"
        }
      ],
      "stateMutability": "view",
      "type": "function"
    },
    {
      "inputs": [
        {
          "internalType": "address",
          "name": "owner",
          "type": "address"
        },
        {
          "internalType": "address",
          "name": "operator",
          "type": "address"
        }
      ],
      "name": "isApprovedForAll",
      "outputs": [
        {
          "internalType": "bool",
          "name": "",
          "type": "bool"
        }
      ],
      "stateMutability": "view",
      "type": "function"
    },
    {
      "inputs": [],
      "name": "maxMints",
      "outputs": [
        {
          "internalType": "uint256",
          "name": "",
          "type": "uint256"
        }
      ],
      "stateMutability": "view",
      "type": "function"
    },
    {
      "inputs": [],
      "name": "maxSupply",
      "outputs": [
        {
          "internalType": "uint256",
          "name": "",
          "type": "uint256"
        }
      ],
      "stateMutability": "view",
      "type": "function"
    },
    {
      "inputs": [],
      "name": "merkleRoot",
      "outputs": [
        {
          "internalType": "bytes32",
          "name": "",
          "type": "bytes32"
        }
      ],
      "stateMutability": "view",
      "type": "function"
    },
    {
      "inputs": [
        {
          "internalType": "uint256",
          "name": "quantity",
          "type": "uint256"
        }
      ],
      "name": "mint",
      "outputs": [],
      "stateMutability": "payable",
      "type": "function"
    },
    {
      "inputs": [],
      "name": "mintPhase",
      "outputs": [
        {
          "internalType": "uint256",
          "name": "",
          "type": "uint256"
        }
      ],
      "stateMutability": "view",
      "type": "function"
    },
    {
      "inputs": [],
      "name": "mintRate",
      "outputs": [
        {
          "internalType": "uint256",
          "name": "",
          "type": "uint256"
        }
      ],
      "stateMutability": "view",
      "type": "function"
    },
    {
      "inputs": [],
      "name": "name",
      "outputs": [
        {
          "internalType": "string",
          "name": "",
          "type": "string"
        }
      ],
      "stateMutability": "view",
      "type": "function"
    },
    {
      "inputs": [],
      "name": "owner",
      "outputs": [
        {
          "internalType": "address",
          "name": "",
          "type": "address"
        }
      ],
      "stateMutability": "view",
      "type": "function"
    },
    {
      "inputs": [
        {
          "internalType": "uint256",
          "name": "tokenId",
          "type": "uint256"
        }
      ],
      "name": "ownerOf",
      "outputs": [
        {
          "internalType": "address",
          "name": "",
          "type": "address"
        }
      ],
      "stateMutability": "view",
      "type": "function"
    },
    {
      "inputs": [],
      "name": "paused",
      "outputs": [
        {
          "internalType": "bool",
          "name": "",
          "type": "bool"
        }
      ],
      "stateMutability": "view",
      "type": "function"
    },
    {
      "inputs": [],
      "name": "renounceOwnership",
      "outputs": [],
      "stateMutability": "nonpayable",
      "type": "function"
    },
    {
      "inputs": [
        {
          "internalType": "uint256",
          "name": "quantity",
          "type": "uint256"
        }
      ],
      "name": "reserveMint",
      "outputs": [],
      "stateMutability": "nonpayable",
      "type": "function"
    },
    {
      "inputs": [],
      "name": "revealed",
      "outputs": [
        {
          "internalType": "bool",
          "name": "",
          "type": "bool"
        }
      ],
      "stateMutability": "view",
      "type": "function"
    },
    {
      "inputs": [
        {
          "internalType": "uint256",
          "name": "_tokenId",
          "type": "uint256"
        },
        {
          "internalType": "uint256",
          "name": "_salePrice",
          "type": "uint256"
        }
      ],
      "name": "royaltyInfo",
      "outputs": [
        {
          "internalType": "address",
          "name": "",
          "type": "address"
        },
        {
          "internalType": "uint256",
          "name": "",
          "type": "uint256"
        }
      ],
      "stateMutability": "view",
      "type": "function"
    },
    {
      "inputs": [
        {
          "internalType": "address",
          "name": "from",
          "type": "address"
        },
        {
          "internalType": "address",
          "name": "to",
          "type": "address"
        },
        {
          "internalType": "uint256",
          "name": "tokenId",
          "type": "uint256"
        }
      ],
      "name": "safeTransferFrom",
      "outputs": [],
      "stateMutability": "payable",
      "type": "function"
    },
    {
      "inputs": [
        {
          "internalType": "address",
          "name": "from",
          "type": "address"
        },
        {
          "internalType": "address",
          "name": "to",
          "type": "address"
        },
        {
          "internalType": "uint256",
          "name": "tokenId",
          "type": "uint256"
        },
        {
          "internalType": "bytes",
          "name": "data",
          "type": "bytes"
        }
      ],
      "name": "safeTransferFrom",
      "outputs": [],
      "stateMutability": "payable",
      "type": "function"
    },
    {
      "inputs": [
        {
          "internalType": "address",
          "name": "operator",
          "type": "address"
        },
        {
          "internalType": "bool",
          "name": "approved",
          "type": "bool"
        }
      ],
      "name": "setApprovalForAll",
      "outputs": [],
      "stateMutability": "nonpayable",
      "type": "function"
    },
    {
      "inputs": [
        {
          "internalType": "string",
          "name": "_newBaseURI",
          "type": "string"
        }
      ],
      "name": "setBaseURI",
      "outputs": [],
      "stateMutability": "nonpayable",
      "type": "function"
    },
    {
      "inputs": [
        {
          "internalType": "bytes32",
          "name": "_root",
          "type": "bytes32"
        }
      ],
      "name": "setMerkleRoot",
      "outputs": [],
      "stateMutability": "nonpayable",
      "type": "function"
    },
    {
      "inputs": [
        {
          "internalType": "uint256",
          "name": "_phase",
          "type": "uint256"
        }
      ],
      "name": "setMintPhase",
      "outputs": [],
      "stateMutability": "nonpayable",
      "type": "function"
    },
    {
      "inputs": [],
      "name": "setTogglePaused",
      "outputs": [],
      "stateMutability": "nonpayable",
      "type": "function"
    },
    {
      "inputs": [
        {
          "internalType": "string",
          "name": "str",
          "type": "string"
        },
        {
          "internalType": "uint256",
          "name": "startIndex",
          "type": "uint256"
        },
        {
          "internalType": "uint256",
          "name": "endIndex",
          "type": "uint256"
        }
      ],
      "name": "substring",
      "outputs": [
        {
          "internalType": "string",
          "name": "",
          "type": "string"
        }
      ],
      "stateMutability": "pure",
      "type": "function"
    },
    {
      "inputs": [
        {
          "internalType": "bytes4",
          "name": "_interfaceId",
          "type": "bytes4"
        }
      ],
      "name": "supportsInterface",
      "outputs": [
        {
          "internalType": "bool",
          "name": "",
          "type": "bool"
        }
      ],
      "stateMutability": "view",
      "type": "function"
    },
    {
      "inputs": [],
      "name": "symbol",
      "outputs": [
        {
          "internalType": "string",
          "name": "",
          "type": "string"
        }
      ],
      "stateMutability": "view",
      "type": "function"
    },
    {
      "inputs": [
        {
          "internalType": "uint256",
          "name": "_tokenId",
          "type": "uint256"
        }
      ],
      "name": "tokenURI",
      "outputs": [
        {
          "internalType": "string",
          "name": "",
          "type": "string"
        }
      ],
      "stateMutability": "view",
      "type": "function"
    },
    {
      "inputs": [],
      "name": "totalSupply",
      "outputs": [
        {
          "internalType": "uint256",
          "name": "",
          "type": "uint256"
        }
      ],
      "stateMutability": "view",
      "type": "function"
    },
    {
      "inputs": [
        {
          "internalType": "address",
          "name": "from",
          "type": "address"
        },
        {
          "internalType": "address",
          "name": "to",
          "type": "address"
        },
        {
          "internalType": "uint256",
          "name": "tokenId",
          "type": "uint256"
        }
      ],
      "name": "transferFrom",
      "outputs": [],
      "stateMutability": "payable",
      "type": "function"
    },
    {
      "inputs": [
        {
          "internalType": "address",
          "name": "newOwner",
          "type": "address"
        }
      ],
      "name": "transferOwnership",
      "outputs": [],
      "stateMutability": "nonpayable",
      "type": "function"
    },
    {
      "inputs": [
        {
          "internalType": "address",
          "name": "",
          "type": "address"
        }
      ],
      "name": "usedAddresses",
      "outputs": [
        {
          "internalType": "uint256",
          "name": "",
          "type": "uint256"
        }
      ],
      "stateMutability": "view",
      "type": "function"
    },
    {
      "inputs": [],
      "name": "whiteListMaxMints",
      "outputs": [
        {
          "internalType": "uint256",
          "name": "",
          "type": "uint256"
        }
      ],
      "stateMutability": "view",
      "type": "function"
    },
    {
      "inputs": [
        {
          "internalType": "uint256",
          "name": "quantity",
          "type": "uint256"
        },
        {
          "internalType": "bytes32[]",
          "name": "proof",
          "type": "bytes32[]"
        }
      ],
      "name": "whiteListMint",
      "outputs": [],
      "stateMutability": "payable",
      "type": "function"
    },
    {
      "inputs": [
        {
          "internalType": "address",
          "name": "",
          "type": "address"
        }
      ],
      "name": "whiteListUsedAddresses",
      "outputs": [
        {
          "internalType": "uint256",
          "name": "",
          "type": "uint256"
        }
      ],
      "stateMutability": "view",
      "type": "function"
    },
    {
      "inputs": [],
      "name": "withdraw",
      "outputs": [],
      "stateMutability": "nonpayable",
      "type": "function"
    }
  ],
  "bytecode": "0x60806040526005600c556001600d55611a0a600e55666a94d74f430000600f556040518060400160405280600581526020017f2e6a736f6e000000000000000000000000000000000000000000000000000000815250601090805190602001906200006c9291906200069d565b506040518060200160405280600081525060119080519060200190620000949291906200069d565b5060405180608001604052806054815260200162004b7d6054913960129080519060200190620000c69291906200069d565b506000601460006101000a81548160ff0219169083151502179055506000601460016101000a81548160ff0219169083151502179055503480156200010a57600080fd5b50733cc6cdda760b79bafa08df41ecfa224f810dceb660016040518060400160405280600f81526020017f4b6974737564656e466f78466f6e6500000000000000000000000000000000008152506040518060400160405280600581526020017f4b534446460000000000000000000000000000000000000000000000000000008152508160029080519060200190620001a69291906200069d565b508060039080519060200190620001bf9291906200069d565b50620001d06200041d60201b60201c565b6000819055505050620001f8620001ec6200042260201b60201c565b6200042a60201b60201c565b60006daaeb6d7670e522a718067333cd4e73ffffffffffffffffffffffffffffffffffffffff163b1115620003ed578015620002b3576daaeb6d7670e522a718067333cd4e73ffffffffffffffffffffffffffffffffffffffff16637d3e3dbe30846040518363ffffffff1660e01b81526004016200027992919062000792565b600060405180830381600087803b1580156200029457600080fd5b505af1158015620002a9573d6000803e3d6000fd5b50505050620003ec565b600073ffffffffffffffffffffffffffffffffffffffff168273ffffffffffffffffffffffffffffffffffffffff16146200036d576daaeb6d7670e522a718067333cd4e73ffffffffffffffffffffffffffffffffffffffff1663a0af290330846040518363ffffffff1660e01b81526004016200033392919062000792565b600060405180830381600087803b1580156200034e57600080fd5b505af115801562000363573d6000803e3d6000fd5b50505050620003eb565b6daaeb6d7670e522a718067333cd4e73ffffffffffffffffffffffffffffffffffffffff16634420e486306040518263ffffffff1660e01b8152600401620003b69190620007bf565b600060405180830381600087803b158015620003d157600080fd5b505af1158015620003e6573d6000803e3d6000fd5b505050505b5b5b505062000417731c0c70453c5ed96c7c4ec2ea98c3a99fc1dd27ef6102bc620004f060201b60201c565b6200095b565b600090565b600033905090565b6000600860009054906101000a900473ffffffffffffffffffffffffffffffffffffffff16905081600860006101000a81548173ffffffffffffffffffffffffffffffffffffffff021916908373ffffffffffffffffffffffffffffffffffffffff1602179055508173ffffffffffffffffffffffffffffffffffffffff168173ffffffffffffffffffffffffffffffffffffffff167f8be0079c531659141344cd1fd0a4f28419497f9722a3daafe3b4186f6b6457e060405160405180910390a35050565b620005006200069360201b60201c565b6bffffffffffffffffffffffff16816bffffffffffffffffffffffff16111562000561576040517f08c379a0000000000000000000000000000000000000000000000000000000008152600401620005589062000863565b60405180910390fd5b600073ffffffffffffffffffffffffffffffffffffffff168273ffffffffffffffffffffffffffffffffffffffff1603620005d3576040517f08c379a0000000000000000000000000000000000000000000000000000000008152600401620005ca90620008d5565b60405180910390fd5b60405180604001604052808373ffffffffffffffffffffffffffffffffffffffff168152602001826bffffffffffffffffffffffff16815250600960008201518160000160006101000a81548173ffffffffffffffffffffffffffffffffffffffff021916908373ffffffffffffffffffffffffffffffffffffffff16021790555060208201518160000160146101000a8154816bffffffffffffffffffffffff02191690836bffffffffffffffffffffffff1602179055509050505050565b6000612710905090565b828054620006ab9062000926565b90600052602060002090601f016020900481019282620006cf57600085556200071b565b82601f10620006ea57805160ff19168380011785556200071b565b828001600101855582156200071b579182015b828111156200071a578251825591602001919060010190620006fd565b5b5090506200072a91906200072e565b5090565b5b80821115620007495760008160009055506001016200072f565b5090565b600073ffffffffffffffffffffffffffffffffffffffff82169050919050565b60006200077a826200074d565b9050919050565b6200078c816200076d565b82525050565b6000604082019050620007a9600083018562000781565b620007b8602083018462000781565b9392505050565b6000602082019050620007d6600083018462000781565b92915050565b600082825260208201905092915050565b7f455243323938313a20726f79616c7479206665652077696c6c2065786365656460008201527f2073616c65507269636500000000000000000000000000000000000000000000602082015250565b60006200084b602a83620007dc565b91506200085882620007ed565b604082019050919050565b600060208201905081810360008301526200087e816200083c565b9050919050565b7f455243323938313a20696e76616c696420726563656976657200000000000000600082015250565b6000620008bd601983620007dc565b9150620008ca8262000885565b602082019050919050565b60006020820190508181036000830152620008f081620008ae565b9050919050565b7f4e487b7100000000000000000000000000000000000000000000000000000000600052602260045260246000fd5b600060028204905060018216806200093f57607f821691505b602082108103620009555762000954620008f7565b5b50919050565b614212806200096b6000396000f3fe6080604052600436106102465760003560e01c80636c0360eb11610139578063acdce273116100b6578063ca0dcf161161007a578063ca0dcf1614610843578063d5abeb011461086e578063e985e9c514610899578063ee5735a8146108d6578063f14a058814610901578063f2fde38b1461091857610246565b8063acdce27314610757578063b6b6f0c314610794578063b88d4fde146107bf578063c6682862146107db578063c87b56dd1461080657610246565b80638fe11a97116100fd5780638fe11a9714610693578063943431bf146106be57806395d89b41146106e7578063a0712d6814610712578063a22cb4651461072e57610246565b80636c0360eb146105c057806370a08231146105eb578063715018a6146106285780637cb647591461063f5780638da5cb5b1461066857610246565b806323b872dd116101c757806342842e0e1161018b57806342842e0e146104e8578063518302271461050457806355f804b31461052f5780635c975abb146105585780636352211e1461058357610246565b806323b872dd146104215780632a55205a1461043d5780632eb4a7ab1461047b5780633ccfd60b146104a657806341f43434146104bd57610246565b80631342ff4c1161020e5780631342ff4c1461032857806313bfabc01461035157806317881cbf1461038e57806318160ddd146103b95780631dcd9b55146103e457610246565b806301ffc9a71461024b57806306fdde0314610288578063081812fc146102b3578063095ea7b3146102f0578063118768751461030c575b600080fd5b34801561025757600080fd5b50610272600480360381019061026d91906130a9565b610941565b60405161027f91906130f1565b60405180910390f35b34801561029457600080fd5b5061029d610963565b6040516102aa91906131a5565b60405180910390f35b3480156102bf57600080fd5b506102da60048036038101906102d591906131fd565b6109f5565b6040516102e7919061326b565b60405180910390f35b61030a600480360381019061030591906132b2565b610a74565b005b61032660048036038101906103219190613357565b610a8d565b005b34801561033457600080fd5b5061034f600480360381019061034a91906131fd565b610cd9565b005b34801561035d57600080fd5b50610378600480360381019061037391906133b7565b610d3c565b60405161038591906133f3565b60405180910390f35b34801561039a57600080fd5b506103a3610d54565b6040516103b091906133f3565b60405180910390f35b3480156103c557600080fd5b506103ce610d5a565b6040516103db91906133f3565b60405180910390f35b3480156103f057600080fd5b5061040b6004803603810190610406919061353e565b610d71565b60405161041891906131a5565b60405180910390f35b61043b600480360381019061043691906135ad565b610e6d565b005b34801561044957600080fd5b50610464600480360381019061045f9190613600565b610ebc565b604051610472929190613640565b60405180910390f35b34801561048757600080fd5b506104906110a6565b60405161049d9190613682565b60405180910390f35b3480156104b257600080fd5b506104bb6110ac565b005b3480156104c957600080fd5b506104d2611104565b6040516104df91906136fc565b60405180910390f35b61050260048036038101906104fd91906135ad565b611116565b005b34801561051057600080fd5b50610519611165565b60405161052691906130f1565b60405180910390f35b34801561053b57600080fd5b5061055660048036038101906105519190613717565b611178565b005b34801561056457600080fd5b5061056d6112f1565b60405161057a91906130f1565b60405180910390f35b34801561058f57600080fd5b506105aa60048036038101906105a591906131fd565b611304565b6040516105b7919061326b565b60405180910390f35b3480156105cc57600080fd5b506105d5611316565b6040516105e291906131a5565b60405180910390f35b3480156105f757600080fd5b50610612600480360381019061060d91906133b7565b6113a4565b60405161061f91906133f3565b60405180910390f35b34801561063457600080fd5b5061063d61145c565b005b34801561064b57600080fd5b506106666004803603810190610661919061378c565b611470565b005b34801561067457600080fd5b5061067d611482565b60405161068a919061326b565b60405180910390f35b34801561069f57600080fd5b506106a86114ac565b6040516106b591906131a5565b60405180910390f35b3480156106ca57600080fd5b506106e560048036038101906106e091906131fd565b61153a565b005b3480156106f357600080fd5b506106fc61154c565b60405161070991906131a5565b60405180910390f35b61072c600480360381019061072791906131fd565b6115de565b005b34801561073a57600080fd5b50610755600480360381019061075091906137e5565b6117e7565b005b34801561076357600080fd5b5061077e600480360381019061077991906133b7565b611800565b60405161078b91906133f3565b60405180910390f35b3480156107a057600080fd5b506107a9611818565b6040516107b691906133f3565b60405180910390f35b6107d960048036038101906107d491906138c6565b61181e565b005b3480156107e757600080fd5b506107f061186f565b6040516107fd91906131a5565b60405180910390f35b34801561081257600080fd5b5061082d600480360381019061082891906131fd565b6118fd565b60405161083a91906131a5565b60405180910390f35b34801561084f57600080fd5b506108586119c7565b60405161086591906133f3565b60405180910390f35b34801561087a57600080fd5b506108836119cd565b60405161089091906133f3565b60405180910390f35b3480156108a557600080fd5b506108c060048036038101906108bb9190613949565b6119d3565b6040516108cd91906130f1565b60405180910390f35b3480156108e257600080fd5b506108eb611a67565b6040516108f891906133f3565b60405180910390f35b34801561090d57600080fd5b50610916611a6d565b005b34801561092457600080fd5b5061093f600480360381019061093a91906133b7565b611aa1565b005b600061094c82611b24565b8061095c575061095b82611bb6565b5b9050919050565b606060028054610972906139b8565b80601f016020809104026020016040519081016040528092919081815260200182805461099e906139b8565b80156109eb5780601f106109c0576101008083540402835291602001916109eb565b820191906000526020600020905b8154815290600101906020018083116109ce57829003601f168201915b5050505050905090565b6000610a0082611c30565b610a36576040517fcf4700e400000000000000000000000000000000000000000000000000000000815260040160405180910390fd5b6006600083815260200190815260200160002060000160009054906101000a900473ffffffffffffffffffffffffffffffffffffffff169050919050565b81610a7e81611c8f565b610a888383611d8c565b505050565b601460009054906101000a900460ff1615610add576040517f08c379a0000000000000000000000000000000000000000000000000000000008152600401610ad490613a35565b60405180910390fd5b600160135414610b19576040517f1e94bf2d00000000000000000000000000000000000000000000000000000000815260040160405180910390fd5b610b24338383611ed0565b610b5a576040517f3f1636e200000000000000000000000000000000000000000000000000000000815260040160405180910390fd5b600e5483610b66610d5a565b610b709190613a84565b1115610ba8576040517f76592c6f00000000000000000000000000000000000000000000000000000000815260040160405180910390fd5b3483600f54610bb79190613ada565b14610bee576040517fb457f15800000000000000000000000000000000000000000000000000000000815260040160405180910390fd5b600d5483601560003373ffffffffffffffffffffffffffffffffffffffff1673ffffffffffffffffffffffffffffffffffffffff16815260200190815260200160002054610c3c9190613a84565b1115610c74576040517f38d8b70c00000000000000000000000000000000000000000000000000000000815260040160405180910390fd5b82601560003373ffffffffffffffffffffffffffffffffffffffff1673ffffffffffffffffffffffffffffffffffffffff1681526020019081526020016000206000828254610cc39190613a84565b92505081905550610cd43384611f2e565b505050565b610ce16120e9565b600e5481610ced610d5a565b610cf79190613a84565b1115610d2f576040517f76592c6f00000000000000000000000000000000000000000000000000000000815260040160405180910390fd5b610d393382611f2e565b50565b60156020528060005260406000206000915090505481565b60135481565b6000610d64612167565b6001546000540303905090565b6060600084905060008484610d869190613b34565b67ffffffffffffffff811115610d9f57610d9e613413565b5b6040519080825280601f01601f191660200182016040528015610dd15781602001600182028036833780820191505090505b50905060008590505b84811015610e6057828181518110610df557610df4613b68565b5b602001015160f81c60f81b828783610e0d9190613b34565b81518110610e1e57610e1d613b68565b5b60200101907effffffffffffffffffffffffffffffffffffffffffffffffffffffffffffff1916908160001a9053508080610e5890613b97565b915050610dda565b5080925050509392505050565b823373ffffffffffffffffffffffffffffffffffffffff168173ffffffffffffffffffffffffffffffffffffffff1614610eab57610eaa33611c8f565b5b610eb684848461216c565b50505050565b6000806000600a60008681526020019081526020016000206040518060400160405290816000820160009054906101000a900473ffffffffffffffffffffffffffffffffffffffff1673ffffffffffffffffffffffffffffffffffffffff1673ffffffffffffffffffffffffffffffffffffffff1681526020016000820160149054906101000a90046bffffffffffffffffffffffff166bffffffffffffffffffffffff166bffffffffffffffffffffffff16815250509050600073ffffffffffffffffffffffffffffffffffffffff16816000015173ffffffffffffffffffffffffffffffffffffffff16036110515760096040518060400160405290816000820160009054906101000a900473ffffffffffffffffffffffffffffffffffffffff1673ffffffffffffffffffffffffffffffffffffffff1673ffffffffffffffffffffffffffffffffffffffff1681526020016000820160149054906101000a90046bffffffffffffffffffffffff166bffffffffffffffffffffffff166bffffffffffffffffffffffff168152505090505b600061105b61248e565b6bffffffffffffffffffffffff1682602001516bffffffffffffffffffffffff16866110879190613ada565b6110919190613c0e565b90508160000151819350935050509250929050565b600b5481565b6110b46120e9565b6110bc611482565b73ffffffffffffffffffffffffffffffffffffffff166108fc479081150290604051600060405180830381858888f19350505050158015611101573d6000803e3d6000fd5b50565b6daaeb6d7670e522a718067333cd4e81565b823373ffffffffffffffffffffffffffffffffffffffff168173ffffffffffffffffffffffffffffffffffffffff16146111545761115333611c8f565b5b61115f848484612498565b50505050565b601460019054906101000a900460ff1681565b6111806120e9565b60018151116111c4576040517f08c379a00000000000000000000000000000000000000000000000000000000081526004016111bb90613c8b565b60405180910390fd5b60006111cf826124b8565b905060006111ea836001846111e49190613b34565b84610d71565b905061122b816040518060400160405280600181526020017f2f0000000000000000000000000000000000000000000000000000000000000081525061266d565b61126a576040517f08c379a000000000000000000000000000000000000000000000000000000000815260040161126190613d1d565b60405180910390fd5b601460019054906101000a900460ff16156112ba576040517f08c379a00000000000000000000000000000000000000000000000000000000081526004016112b190613d89565b60405180910390fd5b6001601460016101000a81548160ff02191690831515021790555082601190805190602001906112eb929190612f9a565b50505050565b601460009054906101000a900460ff1681565b600061130f826126c6565b9050919050565b60118054611323906139b8565b80601f016020809104026020016040519081016040528092919081815260200182805461134f906139b8565b801561139c5780601f106113715761010080835404028352916020019161139c565b820191906000526020600020905b81548152906001019060200180831161137f57829003601f168201915b505050505081565b60008073ffffffffffffffffffffffffffffffffffffffff168273ffffffffffffffffffffffffffffffffffffffff160361140b576040517f8f4eb60400000000000000000000000000000000000000000000000000000000815260040160405180910390fd5b67ffffffffffffffff600560008473ffffffffffffffffffffffffffffffffffffffff1673ffffffffffffffffffffffffffffffffffffffff16815260200190815260200160002054169050919050565b6114646120e9565b61146e6000612792565b565b6114786120e9565b80600b8190555050565b6000600860009054906101000a900473ffffffffffffffffffffffffffffffffffffffff16905090565b601280546114b9906139b8565b80601f01602080910402602001604051908101604052809291908181526020018280546114e5906139b8565b80156115325780601f1061150757610100808354040283529160200191611532565b820191906000526020600020905b81548152906001019060200180831161151557829003601f168201915b505050505081565b6115426120e9565b8060138190555050565b60606003805461155b906139b8565b80601f0160208091040260200160405190810160405280929190818152602001828054611587906139b8565b80156115d45780601f106115a9576101008083540402835291602001916115d4565b820191906000526020600020905b8154815290600101906020018083116115b757829003601f168201915b5050505050905090565b601460009054906101000a900460ff161561162e576040517f08c379a000000000000000000000000000000000000000000000000000000000815260040161162590613a35565b60405180910390fd5b60026013541461166a576040517fa9f4f87100000000000000000000000000000000000000000000000000000000815260040160405180910390fd5b600e5481611676610d5a565b6116809190613a84565b11156116b8576040517f76592c6f00000000000000000000000000000000000000000000000000000000815260040160405180910390fd5b3481600f546116c79190613ada565b146116fe576040517fb457f15800000000000000000000000000000000000000000000000000000000815260040160405180910390fd5b600c54601660003373ffffffffffffffffffffffffffffffffffffffff1673ffffffffffffffffffffffffffffffffffffffff168152602001908152602001600020548261174c9190613a84565b1115611784576040517f38d8b70c00000000000000000000000000000000000000000000000000000000815260040160405180910390fd5b80601660003373ffffffffffffffffffffffffffffffffffffffff1673ffffffffffffffffffffffffffffffffffffffff16815260200190815260200160002060008282546117d39190613a84565b925050819055506117e43382611f2e565b50565b816117f181611c8f565b6117fb8383612858565b505050565b60166020528060005260406000206000915090505481565b600c5481565b833373ffffffffffffffffffffffffffffffffffffffff168173ffffffffffffffffffffffffffffffffffffffff161461185c5761185b33611c8f565b5b61186885858585612963565b5050505050565b6010805461187c906139b8565b80601f01602080910402602001604051908101604052809291908181526020018280546118a8906139b8565b80156118f55780601f106118ca576101008083540402835291602001916118f5565b820191906000526020600020905b8154815290600101906020018083116118d857829003601f168201915b505050505081565b606061190882611c30565b611947576040517f08c379a000000000000000000000000000000000000000000000000000000000815260040161193e90613df5565b60405180910390fd5b601460019054906101000a900460ff1615611991576011611967836129d6565b601060405160200161197b93929190613ee5565b60405160208183030381529060405290506119c2565b601261199c836129d6565b60106040516020016119b093929190613ee5565b60405160208183030381529060405290505b919050565b600f5481565b600e5481565b6000600760008473ffffffffffffffffffffffffffffffffffffffff1673ffffffffffffffffffffffffffffffffffffffff16815260200190815260200160002060008373ffffffffffffffffffffffffffffffffffffffff1673ffffffffffffffffffffffffffffffffffffffff16815260200190815260200160002060009054906101000a900460ff16905092915050565b600d5481565b611a756120e9565b601460009054906101000a900460ff1615601460006101000a81548160ff021916908315150217905550565b611aa96120e9565b600073ffffffffffffffffffffffffffffffffffffffff168173ffffffffffffffffffffffffffffffffffffffff1603611b18576040517f08c379a0000000000000000000000000000000000000000000000000000000008152600401611b0f90613f88565b60405180910390fd5b611b2181612792565b50565b60006301ffc9a760e01b827bffffffffffffffffffffffffffffffffffffffffffffffffffffffff19161480611b7f57506380ac58cd60e01b827bffffffffffffffffffffffffffffffffffffffffffffffffffffffff1916145b80611baf5750635b5e139f60e01b827bffffffffffffffffffffffffffffffffffffffffffffffffffffffff1916145b9050919050565b60007f2a55205a000000000000000000000000000000000000000000000000000000007bffffffffffffffffffffffffffffffffffffffffffffffffffffffff1916827bffffffffffffffffffffffffffffffffffffffffffffffffffffffff19161480611c295750611c2882612aa4565b5b9050919050565b600081611c3b612167565b11158015611c4a575060005482105b8015611c88575060007c0100000000000000000000000000000000000000000000000000000000600460008581526020019081526020016000205416145b9050919050565b60006daaeb6d7670e522a718067333cd4e73ffffffffffffffffffffffffffffffffffffffff163b1115611d89576daaeb6d7670e522a718067333cd4e73ffffffffffffffffffffffffffffffffffffffff1663c617113430836040518363ffffffff1660e01b8152600401611d06929190613fa8565b602060405180830381865afa158015611d23573d6000803e3d6000fd5b505050506040513d601f19601f82011682018060405250810190611d479190613fe6565b611d8857806040517fede71dcc000000000000000000000000000000000000000000000000000000008152600401611d7f919061326b565b60405180910390fd5b5b50565b6000611d9782611304565b90508073ffffffffffffffffffffffffffffffffffffffff16611db8612b0e565b73ffffffffffffffffffffffffffffffffffffffff1614611e1b57611de481611ddf612b0e565b6119d3565b611e1a576040517fcfb3b94200000000000000000000000000000000000000000000000000000000815260040160405180910390fd5b5b826006600084815260200190815260200160002060000160006101000a81548173ffffffffffffffffffffffffffffffffffffffff021916908373ffffffffffffffffffffffffffffffffffffffff160217905550818373ffffffffffffffffffffffffffffffffffffffff168273ffffffffffffffffffffffffffffffffffffffff167f8c5be1e5ebec7d5bd14f71427d1e84f3dd0314c0f7b2291e5b200ac8c7c3b92560405160405180910390a4505050565b6000611f25611ede85612b16565b848480806020026020016040519081016040528093929190818152602001838360200280828437600081840152601f19601f82011690508083019250505050505050612b46565b90509392505050565b60008054905060008203611f6e576040517fb562e8dd00000000000000000000000000000000000000000000000000000000815260040160405180910390fd5b611f7b6000848385612b5d565b600160406001901b178202600560008573ffffffffffffffffffffffffffffffffffffffff1673ffffffffffffffffffffffffffffffffffffffff16815260200190815260200160002060008282540192505081905550611ff283611fe36000866000612b63565b611fec85612b8b565b17612b9b565b6004600083815260200190815260200160002081905550600080838301905073ffffffffffffffffffffffffffffffffffffffff85169150828260007fddf252ad1be2c89b69c2b068fc378daa952ba7f163c4a11628f55a4df523b3ef600080a4600183015b81811461209357808360007fddf252ad1be2c89b69c2b068fc378daa952ba7f163c4a11628f55a4df523b3ef600080a4600181019050612058565b50600082036120ce576040517f2e07630000000000000000000000000000000000000000000000000000000000815260040160405180910390fd5b8060008190555050506120e46000848385612bc6565b505050565b6120f1612bcc565b73ffffffffffffffffffffffffffffffffffffffff1661210f611482565b73ffffffffffffffffffffffffffffffffffffffff1614612165576040517f08c379a000000000000000000000000000000000000000000000000000000000815260040161215c9061405f565b60405180910390fd5b565b600090565b6000612177826126c6565b90508373ffffffffffffffffffffffffffffffffffffffff168173ffffffffffffffffffffffffffffffffffffffff16146121de576040517fa114810000000000000000000000000000000000000000000000000000000000815260040160405180910390fd5b6000806121ea84612bd4565b9150915061220081876121fb612b0e565b612bfb565b61224c5761221586612210612b0e565b6119d3565b61224b576040517f59c896be00000000000000000000000000000000000000000000000000000000815260040160405180910390fd5b5b600073ffffffffffffffffffffffffffffffffffffffff168573ffffffffffffffffffffffffffffffffffffffff16036122b2576040517fea553b3400000000000000000000000000000000000000000000000000000000815260040160405180910390fd5b6122bf8686866001612b5d565b80156122ca57600082555b600560008773ffffffffffffffffffffffffffffffffffffffff1673ffffffffffffffffffffffffffffffffffffffff168152602001908152602001600020600081546001900391905081905550600560008673ffffffffffffffffffffffffffffffffffffffff1673ffffffffffffffffffffffffffffffffffffffff168152602001908152602001600020600081546001019190508190555061239885612374888887612b63565b7c020000000000000000000000000000000000000000000000000000000017612b9b565b600460008681526020019081526020016000208190555060007c020000000000000000000000000000000000000000000000000000000084160361241e576000600185019050600060046000838152602001908152602001600020540361241c57600054811461241b578360046000838152602001908152602001600020819055505b5b505b838573ffffffffffffffffffffffffffffffffffffffff168773ffffffffffffffffffffffffffffffffffffffff167fddf252ad1be2c89b69c2b068fc378daa952ba7f163c4a11628f55a4df523b3ef60405160405180910390a46124868686866001612bc6565b505050505050565b6000612710905090565b6124b38383836040518060200160405280600081525061181e565b505050565b60008060008084519050600092505b808210156126625760008583815181106124e4576124e3613b68565b5b602001015160f81c60f81b9050608060f81b817effffffffffffffffffffffffffffffffffffffffffffffffffffffffffffff191610156125335760018361252c9190613a84565b925061264e565b60e060f81b817effffffffffffffffffffffffffffffffffffffffffffffffffffffffffffff191610156125755760028361256e9190613a84565b925061264d565b60f060f81b817effffffffffffffffffffffffffffffffffffffffffffffffffffffffffffff191610156125b7576003836125b09190613a84565b925061264c565b60f8801b817effffffffffffffffffffffffffffffffffffffffffffffffffffffffffffff191610156125f8576004836125f19190613a84565b925061264b565b60fc60f81b817effffffffffffffffffffffffffffffffffffffffffffffffffffffffffffff1916101561263a576005836126339190613a84565b925061264a565b6006836126479190613a84565b92505b5b5b5b5b50828061265a90613b97565b9350506124c7565b829350505050919050565b600081604051602001612680919061407f565b60405160208183030381529060405280519060200120836040516020016126a7919061407f565b6040516020818303038152906040528051906020012014905092915050565b600080829050806126d5612167565b1161275b5760005481101561275a5760006004600083815260200190815260200160002054905060007c0100000000000000000000000000000000000000000000000000000000821603612758575b6000810361274e576004600083600190039350838152602001908152602001600020549050612724565b809250505061278d565b505b5b6040517fdf2d9b4200000000000000000000000000000000000000000000000000000000815260040160405180910390fd5b919050565b6000600860009054906101000a900473ffffffffffffffffffffffffffffffffffffffff16905081600860006101000a81548173ffffffffffffffffffffffffffffffffffffffff021916908373ffffffffffffffffffffffffffffffffffffffff1602179055508173ffffffffffffffffffffffffffffffffffffffff168173ffffffffffffffffffffffffffffffffffffffff167f8be0079c531659141344cd1fd0a4f28419497f9722a3daafe3b4186f6b6457e060405160405180910390a35050565b8060076000612865612b0e565b73ffffffffffffffffffffffffffffffffffffffff1673ffffffffffffffffffffffffffffffffffffffff16815260200190815260200160002060008473ffffffffffffffffffffffffffffffffffffffff1673ffffffffffffffffffffffffffffffffffffffff16815260200190815260200160002060006101000a81548160ff0219169083151502179055508173ffffffffffffffffffffffffffffffffffffffff16612912612b0e565b73ffffffffffffffffffffffffffffffffffffffff167f17307eab39ab6107e8899845ad3d59bd9653f200f220920489ca2b5937696c318360405161295791906130f1565b60405180910390a35050565b61296e848484610e6d565b60008373ffffffffffffffffffffffffffffffffffffffff163b146129d05761299984848484612c3f565b6129cf576040517fd1a57ed600000000000000000000000000000000000000000000000000000000815260040160405180910390fd5b5b50505050565b6060600060016129e584612d8f565b01905060008167ffffffffffffffff811115612a0457612a03613413565b5b6040519080825280601f01601f191660200182016040528015612a365781602001600182028036833780820191505090505b509050600082602001820190505b600115612a99578080600190039150507f3031323334353637383961626364656600000000000000000000000000000000600a86061a8153600a8581612a8d57612a8c613bdf565b5b04945060008503612a44575b819350505050919050565b60007f01ffc9a7000000000000000000000000000000000000000000000000000000007bffffffffffffffffffffffffffffffffffffffffffffffffffffffff1916827bffffffffffffffffffffffffffffffffffffffffffffffffffffffff1916149050919050565b600033905090565b600081604051602001612b2991906140de565b604051602081830303815290604052805190602001209050919050565b6000612b5582600b5485612ee2565b905092915050565b50505050565b60008060e883901c905060e8612b7a868684612ef9565b62ffffff16901b9150509392505050565b60006001821460e11b9050919050565b600073ffffffffffffffffffffffffffffffffffffffff83169250814260a01b178317905092915050565b50505050565b600033905090565b60008060006006600085815260200190815260200160002090508092508254915050915091565b600073ffffffffffffffffffffffffffffffffffffffff8316925073ffffffffffffffffffffffffffffffffffffffff821691508382148383141790509392505050565b60008373ffffffffffffffffffffffffffffffffffffffff1663150b7a02612c65612b0e565b8786866040518563ffffffff1660e01b8152600401612c87949392919061414e565b6020604051808303816000875af1925050508015612cc357506040513d601f19601f82011682018060405250810190612cc091906141af565b60015b612d3c573d8060008114612cf3576040519150601f19603f3d011682016040523d82523d6000602084013e612cf8565b606091505b506000815103612d34576040517fd1a57ed600000000000000000000000000000000000000000000000000000000815260040160405180910390fd5b805181602001fd5b63150b7a0260e01b7bffffffffffffffffffffffffffffffffffffffffffffffffffffffff1916817bffffffffffffffffffffffffffffffffffffffffffffffffffffffff191614915050949350505050565b600080600090507a184f03e93ff9f4daa797ed6e38ed64bf6a1f0100000000000000008310612ded577a184f03e93ff9f4daa797ed6e38ed64bf6a1f0100000000000000008381612de357612de2613bdf565b5b0492506040810190505b6d04ee2d6d415b85acef81000000008310612e2a576d04ee2d6d415b85acef81000000008381612e2057612e1f613bdf565b5b0492506020810190505b662386f26fc100008310612e5957662386f26fc100008381612e4f57612e4e613bdf565b5b0492506010810190505b6305f5e1008310612e82576305f5e1008381612e7857612e77613bdf565b5b0492506008810190505b6127108310612ea7576127108381612e9d57612e9c613bdf565b5b0492506004810190505b60648310612eca5760648381612ec057612ebf613bdf565b5b0492506002810190505b600a8310612ed9576001810190505b80915050919050565b600082612eef8584612f02565b1490509392505050565b60009392505050565b60008082905060005b8451811015612f4d57612f3882868381518110612f2b57612f2a613b68565b5b6020026020010151612f58565b91508080612f4590613b97565b915050612f0b565b508091505092915050565b6000818310612f7057612f6b8284612f83565b612f7b565b612f7a8383612f83565b5b905092915050565b600082600052816020526040600020905092915050565b828054612fa6906139b8565b90600052602060002090601f016020900481019282612fc8576000855561300f565b82601f10612fe157805160ff191683800117855561300f565b8280016001018555821561300f579182015b8281111561300e578251825591602001919060010190612ff3565b5b50905061301c9190613020565b5090565b5b80821115613039576000816000905550600101613021565b5090565b6000604051905090565b600080fd5b600080fd5b60007fffffffff0000000000000000000000000000000000000000000000000000000082169050919050565b61308681613051565b811461309157600080fd5b50565b6000813590506130a38161307d565b92915050565b6000602082840312156130bf576130be613047565b5b60006130cd84828501613094565b91505092915050565b60008115159050919050565b6130eb816130d6565b82525050565b600060208201905061310660008301846130e2565b92915050565b600081519050919050565b600082825260208201905092915050565b60005b8381101561314657808201518184015260208101905061312b565b83811115613155576000848401525b50505050565b6000601f19601f8301169050919050565b60006131778261310c565b6131818185613117565b9350613191818560208601613128565b61319a8161315b565b840191505092915050565b600060208201905081810360008301526131bf818461316c565b905092915050565b6000819050919050565b6131da816131c7565b81146131e557600080fd5b50565b6000813590506131f7816131d1565b92915050565b60006020828403121561321357613212613047565b5b6000613221848285016131e8565b91505092915050565b600073ffffffffffffffffffffffffffffffffffffffff82169050919050565b60006132558261322a565b9050919050565b6132658161324a565b82525050565b6000602082019050613280600083018461325c565b92915050565b61328f8161324a565b811461329a57600080fd5b50565b6000813590506132ac81613286565b92915050565b600080604083850312156132c9576132c8613047565b5b60006132d78582860161329d565b92505060206132e8858286016131e8565b9150509250929050565b600080fd5b600080fd5b600080fd5b60008083601f840112613317576133166132f2565b5b8235905067ffffffffffffffff811115613334576133336132f7565b5b6020830191508360208202830111156133505761334f6132fc565b5b9250929050565b6000806000604084860312156133705761336f613047565b5b600061337e868287016131e8565b935050602084013567ffffffffffffffff81111561339f5761339e61304c565b5b6133ab86828701613301565b92509250509250925092565b6000602082840312156133cd576133cc613047565b5b60006133db8482850161329d565b91505092915050565b6133ed816131c7565b82525050565b600060208201905061340860008301846133e4565b92915050565b600080fd5b7f4e487b7100000000000000000000000000000000000000000000000000000000600052604160045260246000fd5b61344b8261315b565b810181811067ffffffffffffffff8211171561346a57613469613413565b5b80604052505050565b600061347d61303d565b90506134898282613442565b919050565b600067ffffffffffffffff8211156134a9576134a8613413565b5b6134b28261315b565b9050602081019050919050565b82818337600083830152505050565b60006134e16134dc8461348e565b613473565b9050828152602081018484840111156134fd576134fc61340e565b5b6135088482856134bf565b509392505050565b600082601f830112613525576135246132f2565b5b81356135358482602086016134ce565b91505092915050565b60008060006060848603121561355757613556613047565b5b600084013567ffffffffffffffff8111156135755761357461304c565b5b61358186828701613510565b9350506020613592868287016131e8565b92505060406135a3868287016131e8565b9150509250925092565b6000806000606084860312156135c6576135c5613047565b5b60006135d48682870161329d565b93505060206135e58682870161329d565b92505060406135f6868287016131e8565b9150509250925092565b6000806040838503121561361757613616613047565b5b6000613625858286016131e8565b9250506020613636858286016131e8565b9150509250929050565b6000604082019050613655600083018561325c565b61366260208301846133e4565b9392505050565b6000819050919050565b61367c81613669565b82525050565b60006020820190506136976000830184613673565b92915050565b6000819050919050565b60006136c26136bd6136b88461322a565b61369d565b61322a565b9050919050565b60006136d4826136a7565b9050919050565b60006136e6826136c9565b9050919050565b6136f6816136db565b82525050565b600060208201905061371160008301846136ed565b92915050565b60006020828403121561372d5761372c613047565b5b600082013567ffffffffffffffff81111561374b5761374a61304c565b5b61375784828501613510565b91505092915050565b61376981613669565b811461377457600080fd5b50565b60008135905061378681613760565b92915050565b6000602082840312156137a2576137a1613047565b5b60006137b084828501613777565b91505092915050565b6137c2816130d6565b81146137cd57600080fd5b50565b6000813590506137df816137b9565b92915050565b600080604083850312156137fc576137fb613047565b5b600061380a8582860161329d565b925050602061381b858286016137d0565b9150509250929050565b600067ffffffffffffffff8211156138405761383f613413565b5b6138498261315b565b9050602081019050919050565b600061386961386484613825565b613473565b9050828152602081018484840111156138855761388461340e565b5b6138908482856134bf565b509392505050565b600082601f8301126138ad576138ac6132f2565b5b81356138bd848260208601613856565b91505092915050565b600080600080608085870312156138e0576138df613047565b5b60006138ee8782880161329d565b94505060206138ff8782880161329d565b9350506040613910878288016131e8565b925050606085013567ffffffffffffffff8111156139315761393061304c565b5b61393d87828801613898565b91505092959194509250565b600080604083850312156139605761395f613047565b5b600061396e8582860161329d565b925050602061397f8582860161329d565b9150509250929050565b7f4e487b7100000000000000000000000000000000000000000000000000000000600052602260045260246000fd5b600060028204905060018216806139d057607f821691505b6020821081036139e3576139e2613989565b5b50919050565b7f5061757365640000000000000000000000000000000000000000000000000000600082015250565b6000613a1f600683613117565b9150613a2a826139e9565b602082019050919050565b60006020820190508181036000830152613a4e81613a12565b9050919050565b7f4e487b7100000000000000000000000000000000000000000000000000000000600052601160045260246000fd5b6000613a8f826131c7565b9150613a9a836131c7565b9250827fffffffffffffffffffffffffffffffffffffffffffffffffffffffffffffffff03821115613acf57613ace613a55565b5b828201905092915050565b6000613ae5826131c7565b9150613af0836131c7565b9250817fffffffffffffffffffffffffffffffffffffffffffffffffffffffffffffffff0483118215151615613b2957613b28613a55565b5b828202905092915050565b6000613b3f826131c7565b9150613b4a836131c7565b925082821015613b5d57613b5c613a55565b5b828203905092915050565b7f4e487b7100000000000000000000000000000000000000000000000000000000600052603260045260246000fd5b6000613ba2826131c7565b91507fffffffffffffffffffffffffffffffffffffffffffffffffffffffffffffffff8203613bd457613bd3613a55565b5b600182019050919050565b7f4e487b7100000000000000000000000000000000000000000000000000000000600052601260045260246000fd5b6000613c19826131c7565b9150613c24836131c7565b925082613c3457613c33613bdf565b5b828204905092915050565b7f5f6e6577426173655552492063616e6e6f7420626520656d7074792100000000600082015250565b6000613c75601c83613117565b9150613c8082613c3f565b602082019050919050565b60006020820190508181036000830152613ca481613c68565b9050919050565b7f5f6e6577426173655552492073686f756c64206861766520612073756666697860008201527f206f6620272f2700000000000000000000000000000000000000000000000000602082015250565b6000613d07602783613117565b9150613d1282613cab565b604082019050919050565b60006020820190508181036000830152613d3681613cfa565b9050919050565b7f596f752063616e206f6e6c79207365742062617365555249206f6e6365210000600082015250565b6000613d73601e83613117565b9150613d7e82613d3d565b602082019050919050565b60006020820190508181036000830152613da281613d66565b9050919050565b7f746f6b656e20646f6573206e6f74206578697374210000000000000000000000600082015250565b6000613ddf601583613117565b9150613dea82613da9565b602082019050919050565b60006020820190508181036000830152613e0e81613dd2565b9050919050565b600081905092915050565b60008190508160005260206000209050919050565b60008154613e42816139b8565b613e4c8186613e15565b94506001821660008114613e675760018114613e7857613eab565b60ff19831686528186019350613eab565b613e8185613e20565b60005b83811015613ea357815481890152600182019150602081019050613e84565b838801955050505b50505092915050565b6000613ebf8261310c565b613ec98185613e15565b9350613ed9818560208601613128565b80840191505092915050565b6000613ef18286613e35565b9150613efd8285613eb4565b9150613f098284613e35565b9150819050949350505050565b7f4f776e61626c653a206e6577206f776e657220697320746865207a65726f206160008201527f6464726573730000000000000000000000000000000000000000000000000000602082015250565b6000613f72602683613117565b9150613f7d82613f16565b604082019050919050565b60006020820190508181036000830152613fa181613f65565b9050919050565b6000604082019050613fbd600083018561325c565b613fca602083018461325c565b9392505050565b600081519050613fe0816137b9565b92915050565b600060208284031215613ffc57613ffb613047565b5b600061400a84828501613fd1565b91505092915050565b7f4f776e61626c653a2063616c6c6572206973206e6f7420746865206f776e6572600082015250565b6000614049602083613117565b915061405482614013565b602082019050919050565b600060208201905081810360008301526140788161403c565b9050919050565b600061408b8284613eb4565b915081905092915050565b60008160601b9050919050565b60006140ae82614096565b9050919050565b60006140c0826140a3565b9050919050565b6140d86140d38261324a565b6140b5565b82525050565b60006140ea82846140c7565b60148201915081905092915050565b600081519050919050565b600082825260208201905092915050565b6000614120826140f9565b61412a8185614104565b935061413a818560208601613128565b6141438161315b565b840191505092915050565b6000608082019050614163600083018761325c565b614170602083018661325c565b61417d60408301856133e4565b818103606083015261418f8184614115565b905095945050505050565b6000815190506141a98161307d565b92915050565b6000602082840312156141c5576141c4613047565b5b60006141d38482850161419a565b9150509291505056fea2646970667358221220c200e16691838258522e56c80aead73039e041a3558411836deec0d961671a9f64736f6c634300080d003368747470733a2f2f6b6974737564656e2e696e667572612d697066732e696f2f697066732f516d543774737669674169783441517673667648744a4a563755384a46595575394d4d336a346345536b5653504a2f",
  "linkReferences": {},
  "deployedLinkReferences": {}
}