{
  "_format": "hh-sol-artifact-1",
  "contractName": "KitsudenFoxfone",
  "sourceName": "contracts/KitsudenFoxfone.sol",
  "abi": [
    {
      "inputs": [
        {
          "internalType": "string",
          "name": "_baseHiddenUri",
          "type": "string"
        }
      ],
      "stateMutability": "nonpayable",
      "type": "constructor"
    },
    {
      "inputs": [],
      "name": "ApprovalCallerNotOwnerNorApproved",
      "type": "error"
    },
    {
      "inputs": [],
      "name": "ApprovalQueryForNonexistentToken",
      "type": "error"
    },
    {
      "inputs": [],
      "name": "BalanceQueryForZeroAddress",
      "type": "error"
    },
    {
      "inputs": [],
      "name": "ExceededLimit",
      "type": "error"
    },
    {
      "inputs": [],
      "name": "InvalidMerkle",
      "type": "error"
    },
    {
      "inputs": [],
      "name": "MintERC2309QuantityExceedsLimit",
      "type": "error"
    },
    {
      "inputs": [],
      "name": "MintToZeroAddress",
      "type": "error"
    },
    {
      "inputs": [],
      "name": "MintZeroQuantity",
      "type": "error"
    },
    {
      "inputs": [],
      "name": "NotEnoughTokensLeft",
      "type": "error"
    },
    {
      "inputs": [],
      "name": "OwnerQueryForNonexistentToken",
      "type": "error"
    },
    {
      "inputs": [],
      "name": "OwnershipNotInitializedForExtraData",
      "type": "error"
    },
    {
      "inputs": [],
      "name": "PublicSaleNotLive",
      "type": "error"
    },
    {
      "inputs": [],
      "name": "TransferCallerNotOwnerNorApproved",
      "type": "error"
    },
    {
      "inputs": [],
      "name": "TransferFromIncorrectOwner",
      "type": "error"
    },
    {
      "inputs": [],
      "name": "TransferToNonERC721ReceiverImplementer",
      "type": "error"
    },
    {
      "inputs": [],
      "name": "TransferToZeroAddress",
      "type": "error"
    },
    {
      "inputs": [],
      "name": "URIQueryForNonexistentToken",
      "type": "error"
    },
    {
      "inputs": [],
      "name": "WhitelistNotLive",
      "type": "error"
    },
    {
      "inputs": [],
      "name": "WrongEther",
      "type": "error"
    },
    {
      "anonymous": false,
      "inputs": [
        {
          "indexed": true,
          "internalType": "address",
          "name": "owner",
          "type": "address"
        },
        {
          "indexed": true,
          "internalType": "address",
          "name": "approved",
          "type": "address"
        },
        {
          "indexed": true,
          "internalType": "uint256",
          "name": "tokenId",
          "type": "uint256"
        }
      ],
      "name": "Approval",
      "type": "event"
    },
    {
      "anonymous": false,
      "inputs": [
        {
          "indexed": true,
          "internalType": "address",
          "name": "owner",
          "type": "address"
        },
        {
          "indexed": true,
          "internalType": "address",
          "name": "operator",
          "type": "address"
        },
        {
          "indexed": false,
          "internalType": "bool",
          "name": "approved",
          "type": "bool"
        }
      ],
      "name": "ApprovalForAll",
      "type": "event"
    },
    {
      "anonymous": false,
      "inputs": [
        {
          "indexed": true,
          "internalType": "uint256",
          "name": "fromTokenId",
          "type": "uint256"
        },
        {
          "indexed": false,
          "internalType": "uint256",
          "name": "toTokenId",
          "type": "uint256"
        },
        {
          "indexed": true,
          "internalType": "address",
          "name": "from",
          "type": "address"
        },
        {
          "indexed": true,
          "internalType": "address",
          "name": "to",
          "type": "address"
        }
      ],
      "name": "ConsecutiveTransfer",
      "type": "event"
    },
    {
      "anonymous": false,
      "inputs": [
        {
          "indexed": true,
          "internalType": "address",
          "name": "previousOwner",
          "type": "address"
        },
        {
          "indexed": true,
          "internalType": "address",
          "name": "newOwner",
          "type": "address"
        }
      ],
      "name": "OwnershipTransferred",
      "type": "event"
    },
    {
      "anonymous": false,
      "inputs": [
        {
          "indexed": true,
          "internalType": "address",
          "name": "from",
          "type": "address"
        },
        {
          "indexed": true,
          "internalType": "address",
          "name": "to",
          "type": "address"
        },
        {
          "indexed": true,
          "internalType": "uint256",
          "name": "tokenId",
          "type": "uint256"
        }
      ],
      "name": "Transfer",
      "type": "event"
    },
    {
      "inputs": [
        {
          "internalType": "address",
          "name": "to",
          "type": "address"
        },
        {
          "internalType": "uint256",
          "name": "tokenId",
          "type": "uint256"
        }
      ],
      "name": "approve",
      "outputs": [],
      "stateMutability": "payable",
      "type": "function"
    },
    {
      "inputs": [
        {
          "internalType": "address",
          "name": "owner",
          "type": "address"
        }
      ],
      "name": "balanceOf",
      "outputs": [
        {
          "internalType": "uint256",
          "name": "",
          "type": "uint256"
        }
      ],
      "stateMutability": "view",
      "type": "function"
    },
    {
      "inputs": [],
      "name": "baseExtension",
      "outputs": [
        {
          "internalType": "string",
          "name": "",
          "type": "string"
        }
      ],
      "stateMutability": "view",
      "type": "function"
    },
    {
      "inputs": [],
      "name": "baseHiddenUri",
      "outputs": [
        {
          "internalType": "string",
          "name": "",
          "type": "string"
        }
      ],
      "stateMutability": "view",
      "type": "function"
    },
    {
      "inputs": [],
      "name": "baseURI",
      "outputs": [
        {
          "internalType": "string",
          "name": "",
          "type": "string"
        }
      ],
      "stateMutability": "view",
      "type": "function"
    },
    {
      "inputs": [
        {
          "internalType": "uint256",
          "name": "tokenId",
          "type": "uint256"
        }
      ],
      "name": "getApproved",
      "outputs": [
        {
          "internalType": "address",
          "name": "",
          "type": "address"
        }
      ],
      "stateMutability": "view",
      "type": "function"
    },
    {
      "inputs": [
        {
          "internalType": "address",
          "name": "owner",
          "type": "address"
        },
        {
          "internalType": "address",
          "name": "operator",
          "type": "address"
        }
      ],
      "name": "isApprovedForAll",
      "outputs": [
        {
          "internalType": "bool",
          "name": "",
          "type": "bool"
        }
      ],
      "stateMutability": "view",
      "type": "function"
    },
    {
      "inputs": [],
      "name": "maxMints",
      "outputs": [
        {
          "internalType": "uint256",
          "name": "",
          "type": "uint256"
        }
      ],
      "stateMutability": "view",
      "type": "function"
    },
    {
      "inputs": [],
      "name": "maxSupply",
      "outputs": [
        {
          "internalType": "uint256",
          "name": "",
          "type": "uint256"
        }
      ],
      "stateMutability": "view",
      "type": "function"
    },
    {
      "inputs": [],
      "name": "merkleRoot",
      "outputs": [
        {
          "internalType": "bytes32",
          "name": "",
          "type": "bytes32"
        }
      ],
      "stateMutability": "view",
      "type": "function"
    },
    {
      "inputs": [
        {
          "internalType": "uint256",
          "name": "quantity",
          "type": "uint256"
        }
      ],
      "name": "mint",
      "outputs": [],
      "stateMutability": "payable",
      "type": "function"
    },
    {
      "inputs": [],
      "name": "mintRate",
      "outputs": [
        {
          "internalType": "uint256",
          "name": "",
          "type": "uint256"
        }
      ],
      "stateMutability": "view",
      "type": "function"
    },
    {
      "inputs": [],
      "name": "name",
      "outputs": [
        {
          "internalType": "string",
          "name": "",
          "type": "string"
        }
      ],
      "stateMutability": "view",
      "type": "function"
    },
    {
      "inputs": [],
      "name": "owner",
      "outputs": [
        {
          "internalType": "address",
          "name": "",
          "type": "address"
        }
      ],
      "stateMutability": "view",
      "type": "function"
    },
    {
      "inputs": [
        {
          "internalType": "uint256",
          "name": "tokenId",
          "type": "uint256"
        }
      ],
      "name": "ownerOf",
      "outputs": [
        {
          "internalType": "address",
          "name": "",
          "type": "address"
        }
      ],
      "stateMutability": "view",
      "type": "function"
    },
    {
      "inputs": [],
      "name": "publicSale",
      "outputs": [
        {
          "internalType": "bool",
          "name": "",
          "type": "bool"
        }
      ],
      "stateMutability": "view",
      "type": "function"
    },
    {
      "inputs": [],
      "name": "renounceOwnership",
      "outputs": [],
      "stateMutability": "nonpayable",
      "type": "function"
    },
    {
      "inputs": [
        {
          "internalType": "uint256",
          "name": "quantity",
          "type": "uint256"
        }
      ],
      "name": "reserveMint",
      "outputs": [],
      "stateMutability": "nonpayable",
      "type": "function"
    },
    {
      "inputs": [],
      "name": "revealed",
      "outputs": [
        {
          "internalType": "bool",
          "name": "",
          "type": "bool"
        }
      ],
      "stateMutability": "view",
      "type": "function"
    },
    {
      "inputs": [
        {
          "internalType": "address",
          "name": "from",
          "type": "address"
        },
        {
          "internalType": "address",
          "name": "to",
          "type": "address"
        },
        {
          "internalType": "uint256",
          "name": "tokenId",
          "type": "uint256"
        }
      ],
      "name": "safeTransferFrom",
      "outputs": [],
      "stateMutability": "payable",
      "type": "function"
    },
    {
      "inputs": [
        {
          "internalType": "address",
          "name": "from",
          "type": "address"
        },
        {
          "internalType": "address",
          "name": "to",
          "type": "address"
        },
        {
          "internalType": "uint256",
          "name": "tokenId",
          "type": "uint256"
        },
        {
          "internalType": "bytes",
          "name": "_data",
          "type": "bytes"
        }
      ],
      "name": "safeTransferFrom",
      "outputs": [],
      "stateMutability": "payable",
      "type": "function"
    },
    {
      "inputs": [
        {
          "internalType": "address",
          "name": "operator",
          "type": "address"
        },
        {
          "internalType": "bool",
          "name": "approved",
          "type": "bool"
        }
      ],
      "name": "setApprovalForAll",
      "outputs": [],
      "stateMutability": "nonpayable",
      "type": "function"
    },
    {
      "inputs": [
        {
          "internalType": "string",
          "name": "_newBaseURI",
          "type": "string"
        }
      ],
      "name": "setBaseURI",
      "outputs": [],
      "stateMutability": "nonpayable",
      "type": "function"
    },
    {
      "inputs": [
        {
          "internalType": "bytes32",
          "name": "_root",
          "type": "bytes32"
        }
      ],
      "name": "setMerkleRoot",
      "outputs": [],
      "stateMutability": "nonpayable",
      "type": "function"
    },
    {
      "inputs": [
        {
          "internalType": "string",
          "name": "str",
          "type": "string"
        },
        {
          "internalType": "uint256",
          "name": "startIndex",
          "type": "uint256"
        },
        {
          "internalType": "uint256",
          "name": "endIndex",
          "type": "uint256"
        }
      ],
      "name": "substring",
      "outputs": [
        {
          "internalType": "string",
          "name": "",
          "type": "string"
        }
      ],
      "stateMutability": "pure",
      "type": "function"
    },
    {
      "inputs": [
        {
          "internalType": "bytes4",
          "name": "interfaceId",
          "type": "bytes4"
        }
      ],
      "name": "supportsInterface",
      "outputs": [
        {
          "internalType": "bool",
          "name": "",
          "type": "bool"
        }
      ],
      "stateMutability": "view",
      "type": "function"
    },
    {
      "inputs": [],
      "name": "symbol",
      "outputs": [
        {
          "internalType": "string",
          "name": "",
          "type": "string"
        }
      ],
      "stateMutability": "view",
      "type": "function"
    },
    {
      "inputs": [],
      "name": "togglePublicSale",
      "outputs": [],
      "stateMutability": "nonpayable",
      "type": "function"
    },
    {
      "inputs": [],
      "name": "toggleWhitelistSale",
      "outputs": [],
      "stateMutability": "nonpayable",
      "type": "function"
    },
    {
      "inputs": [
        {
          "internalType": "uint256",
          "name": "tokenId",
          "type": "uint256"
        }
      ],
      "name": "tokenURI",
      "outputs": [
        {
          "internalType": "string",
          "name": "",
          "type": "string"
        }
      ],
      "stateMutability": "view",
      "type": "function"
    },
    {
      "inputs": [],
      "name": "totalSupply",
      "outputs": [
        {
          "internalType": "uint256",
          "name": "",
          "type": "uint256"
        }
      ],
      "stateMutability": "view",
      "type": "function"
    },
    {
      "inputs": [
        {
          "internalType": "address",
          "name": "from",
          "type": "address"
        },
        {
          "internalType": "address",
          "name": "to",
          "type": "address"
        },
        {
          "internalType": "uint256",
          "name": "tokenId",
          "type": "uint256"
        }
      ],
      "name": "transferFrom",
      "outputs": [],
      "stateMutability": "payable",
      "type": "function"
    },
    {
      "inputs": [
        {
          "internalType": "address",
          "name": "newOwner",
          "type": "address"
        }
      ],
      "name": "transferOwnership",
      "outputs": [],
      "stateMutability": "nonpayable",
      "type": "function"
    },
    {
      "inputs": [
        {
          "internalType": "address",
          "name": "",
          "type": "address"
        }
      ],
      "name": "usedAddresses",
      "outputs": [
        {
          "internalType": "uint256",
          "name": "",
          "type": "uint256"
        }
      ],
      "stateMutability": "view",
      "type": "function"
    },
    {
      "inputs": [],
      "name": "whiteListMaxMints",
      "outputs": [
        {
          "internalType": "uint256",
          "name": "",
          "type": "uint256"
        }
      ],
      "stateMutability": "view",
      "type": "function"
    },
    {
      "inputs": [
        {
          "internalType": "uint256",
          "name": "quantity",
          "type": "uint256"
        },
        {
          "internalType": "bytes32[]",
          "name": "proof",
          "type": "bytes32[]"
        }
      ],
      "name": "whiteListMint",
      "outputs": [],
      "stateMutability": "payable",
      "type": "function"
    },
    {
      "inputs": [
        {
          "internalType": "address",
          "name": "",
          "type": "address"
        }
      ],
      "name": "whiteListUsedAddresses",
      "outputs": [
        {
          "internalType": "uint256",
          "name": "",
          "type": "uint256"
        }
      ],
      "stateMutability": "view",
      "type": "function"
    },
    {
      "inputs": [],
      "name": "whitelistMintRate",
      "outputs": [
        {
          "internalType": "uint256",
          "name": "",
          "type": "uint256"
        }
      ],
      "stateMutability": "view",
      "type": "function"
    },
    {
      "inputs": [],
      "name": "whitelistSale",
      "outputs": [
        {
          "internalType": "bool",
          "name": "",
          "type": "bool"
        }
      ],
      "stateMutability": "view",
      "type": "function"
    },
    {
      "inputs": [],
      "name": "withdraw",
      "outputs": [],
      "stateMutability": "nonpayable",
      "type": "function"
    }
  ],
  "bytecode": "0x60806040526005600b556002600c55611a0a600d5566670758aa7c8000600e5566670758aa7c8000600f556040518060400160405280600581526020017f2e6a736f6e000000000000000000000000000000000000000000000000000000815250601090805190602001906200007792919062000358565b5060405180602001604052806000815250601190805190602001906200009f92919062000358565b506040518060200160405280600081525060129080519060200190620000c792919062000358565b506000601360006101000a81548160ff0219169083151502179055506000601360016101000a81548160ff0219169083151502179055506000601360026101000a81548160ff0219169083151502179055503480156200012657600080fd5b50604051620051bf380380620051bf83398181016040528101906200014c9190620005a5565b6040518060400160405280600f81526020017f4b6974737564656e466f78466f6e6500000000000000000000000000000000008152506040518060400160405280600581526020017f4b534446460000000000000000000000000000000000000000000000000000008152508160029080519060200190620001d092919062000358565b508060039080519060200190620001e992919062000358565b50620001fa6200028260201b60201c565b600081905550505060016008819055506200022a6200021e6200028760201b60201c565b6200028f60201b60201c565b62000246678fac2edd317f8f1060c01b6200035560201b60201c565b62000262678cd017a1cc1be36260c01b6200035560201b60201c565b80601290805190602001906200027a92919062000358565b50506200065b565b600090565b600033905090565b6000600960009054906101000a900473ffffffffffffffffffffffffffffffffffffffff16905081600960006101000a81548173ffffffffffffffffffffffffffffffffffffffff021916908373ffffffffffffffffffffffffffffffffffffffff1602179055508173ffffffffffffffffffffffffffffffffffffffff168173ffffffffffffffffffffffffffffffffffffffff167f8be0079c531659141344cd1fd0a4f28419497f9722a3daafe3b4186f6b6457e060405160405180910390a35050565b50565b828054620003669062000625565b90600052602060002090601f0160209004810192826200038a5760008555620003d6565b82601f10620003a557805160ff1916838001178555620003d6565b82800160010185558215620003d6579182015b82811115620003d5578251825591602001919060010190620003b8565b5b509050620003e59190620003e9565b5090565b5b8082111562000404576000816000905550600101620003ea565b5090565b6000604051905090565b600080fd5b600080fd5b600080fd5b600080fd5b6000601f19601f8301169050919050565b7f4e487b7100000000000000000000000000000000000000000000000000000000600052604160045260246000fd5b620004718262000426565b810181811067ffffffffffffffff8211171562000493576200049262000437565b5b80604052505050565b6000620004a862000408565b9050620004b6828262000466565b919050565b600067ffffffffffffffff821115620004d957620004d862000437565b5b620004e48262000426565b9050602081019050919050565b60005b8381101562000511578082015181840152602081019050620004f4565b8381111562000521576000848401525b50505050565b60006200053e6200053884620004bb565b6200049c565b9050828152602081018484840111156200055d576200055c62000421565b5b6200056a848285620004f1565b509392505050565b600082601f8301126200058a57620005896200041c565b5b81516200059c84826020860162000527565b91505092915050565b600060208284031215620005be57620005bd62000412565b5b600082015167ffffffffffffffff811115620005df57620005de62000417565b5b620005ed8482850162000572565b91505092915050565b7f4e487b7100000000000000000000000000000000000000000000000000000000600052602260045260246000fd5b600060028204905060018216806200063e57607f821691505b60208210811415620006555762000654620005f6565b5b50919050565b614b54806200066b6000396000f3fe60806040526004361061023b5760003560e01c80636c0360eb1161012e578063b6b6f0c3116100ab578063d5abeb011161006f578063d5abeb0114610813578063e222c7f91461083e578063e985e9c514610855578063ee5735a814610892578063f2fde38b146108bd5761023b565b8063b6b6f0c314610739578063b88d4fde14610764578063c668286214610780578063c87b56dd146107ab578063ca0dcf16146107e85761023b565b80638fe11a97116100f25780638fe11a971461066157806395d89b411461068c578063a0712d68146106b7578063a22cb465146106d3578063acdce273146106fc5761023b565b80636c0360eb1461058e57806370a08231146105b9578063715018a6146105f65780637cb647591461060d5780638da5cb5b146106365761023b565b80632e809ec1116101bc57806342842e0e1161018057806342842e0e146104ca57806351830227146104e657806355f804b31461051157806359eda1b51461053a5780636352211e146105515761023b565b80632e809ec1146104075780632eb4a7ab1461043257806331ffd6f11461045d57806333bc1c5c146104885780633ccfd60b146104b35761023b565b80631342ff4c116102035780631342ff4c1461031d57806313bfabc01461034657806318160ddd146103835780631dcd9b55146103ae57806323b872dd146103eb5761023b565b806301ffc9a71461024057806306fdde031461027d578063081812fc146102a8578063095ea7b3146102e55780631187687514610301575b600080fd5b34801561024c57600080fd5b5061026760048036038101906102629190613b06565b6108e6565b6040516102749190613b4e565b60405180910390f35b34801561028957600080fd5b50610292610978565b60405161029f9190613c02565b60405180910390f35b3480156102b457600080fd5b506102cf60048036038101906102ca9190613c5a565b610a0a565b6040516102dc9190613cc8565b60405180910390f35b6102ff60048036038101906102fa9190613d0f565b610a89565b005b61031b60048036038101906103169190613db4565b610bcd565b005b34801561032957600080fd5b50610344600480360381019061033f9190613c5a565b61106d565b005b34801561035257600080fd5b5061036d60048036038101906103689190613e14565b611198565b60405161037a9190613e50565b60405180910390f35b34801561038f57600080fd5b506103986111b0565b6040516103a59190613e50565b60405180910390f35b3480156103ba57600080fd5b506103d560048036038101906103d09190613f9b565b6111c7565b6040516103e29190613c02565b60405180910390f35b6104056004803603810190610400919061400a565b61138b565b005b34801561041357600080fd5b5061041c6116b0565b6040516104299190613e50565b60405180910390f35b34801561043e57600080fd5b506104476116b6565b6040516104549190614076565b60405180910390f35b34801561046957600080fd5b506104726116bc565b60405161047f9190613b4e565b60405180910390f35b34801561049457600080fd5b5061049d6116cf565b6040516104aa9190613b4e565b60405180910390f35b3480156104bf57600080fd5b506104c86116e2565b005b6104e460048036038101906104df919061400a565b61179e565b005b3480156104f257600080fd5b506104fb6117be565b6040516105089190613b4e565b60405180910390f35b34801561051d57600080fd5b5061053860048036038101906105339190614091565b6117d1565b005b34801561054657600080fd5b5061054f611aee565b005b34801561055d57600080fd5b5061057860048036038101906105739190613c5a565b611b71565b6040516105859190613cc8565b60405180910390f35b34801561059a57600080fd5b506105a3611b83565b6040516105b09190613c02565b60405180910390f35b3480156105c557600080fd5b506105e060048036038101906105db9190613e14565b611c11565b6040516105ed9190613e50565b60405180910390f35b34801561060257600080fd5b5061060b611cca565b005b34801561061957600080fd5b50610634600480360381019061062f9190614106565b611cde565b005b34801561064257600080fd5b5061064b611d40565b6040516106589190613cc8565b60405180910390f35b34801561066d57600080fd5b50610676611d6a565b6040516106839190613c02565b60405180910390f35b34801561069857600080fd5b506106a1611df8565b6040516106ae9190613c02565b60405180910390f35b6106d160048036038101906106cc9190613c5a565b611e8a565b005b3480156106df57600080fd5b506106fa60048036038101906106f5919061415f565b612297565b005b34801561070857600080fd5b50610723600480360381019061071e9190613e14565b6123a2565b6040516107309190613e50565b60405180910390f35b34801561074557600080fd5b5061074e6123ba565b60405161075b9190613e50565b60405180910390f35b61077e60048036038101906107799190614240565b6123c0565b005b34801561078c57600080fd5b50610795612433565b6040516107a29190613c02565b60405180910390f35b3480156107b757600080fd5b506107d260048036038101906107cd9190613c5a565b6124c1565b6040516107df9190613c02565b60405180910390f35b3480156107f457600080fd5b506107fd6127a2565b60405161080a9190613e50565b60405180910390f35b34801561081f57600080fd5b506108286127a8565b6040516108359190613e50565b60405180910390f35b34801561084a57600080fd5b506108536127ae565b005b34801561086157600080fd5b5061087c600480360381019061087791906142c3565b612832565b6040516108899190613b4e565b60405180910390f35b34801561089e57600080fd5b506108a76128c6565b6040516108b49190613e50565b60405180910390f35b3480156108c957600080fd5b506108e460048036038101906108df9190613e14565b6128cc565b005b60006301ffc9a760e01b827bffffffffffffffffffffffffffffffffffffffffffffffffffffffff1916148061094157506380ac58cd60e01b827bffffffffffffffffffffffffffffffffffffffffffffffffffffffff1916145b806109715750635b5e139f60e01b827bffffffffffffffffffffffffffffffffffffffffffffffffffffffff1916145b9050919050565b60606002805461098790614332565b80601f01602080910402602001604051908101604052809291908181526020018280546109b390614332565b8015610a005780601f106109d557610100808354040283529160200191610a00565b820191906000526020600020905b8154815290600101906020018083116109e357829003601f168201915b5050505050905090565b6000610a1582612950565b610a4b576040517fcf4700e400000000000000000000000000000000000000000000000000000000815260040160405180910390fd5b6006600083815260200190815260200160002060000160009054906101000a900473ffffffffffffffffffffffffffffffffffffffff169050919050565b6000610a9482611b71565b90508073ffffffffffffffffffffffffffffffffffffffff16610ab56129af565b73ffffffffffffffffffffffffffffffffffffffff1614610b1857610ae181610adc6129af565b612832565b610b17576040517fcfb3b94200000000000000000000000000000000000000000000000000000000815260040160405180910390fd5b5b826006600084815260200190815260200160002060000160006101000a81548173ffffffffffffffffffffffffffffffffffffffff021916908373ffffffffffffffffffffffffffffffffffffffff160217905550818373ffffffffffffffffffffffffffffffffffffffff168273ffffffffffffffffffffffffffffffffffffffff167f8c5be1e5ebec7d5bd14f71427d1e84f3dd0314c0f7b2291e5b200ac8c7c3b92560405160405180910390a4505050565b610be16771bac3c6a61a05fc60c01b6129b7565b60026008541415610c27576040517f08c379a0000000000000000000000000000000000000000000000000000000008152600401610c1e906143b0565b60405180910390fd5b6002600881905550610c4367281191e9a085dcce60c01b6129b7565b610c5767311f082d541b2cdc60c01b6129b7565b610c6b6766a3ef949887a81360c01b6129b7565b610c7f6715ccc638f5fa087f60c01b6129b7565b601360029054906101000a900460ff16610cd957610ca767e3abc856c35aa45860c01b6129b7565b6040517f1e94bf2d00000000000000000000000000000000000000000000000000000000815260040160405180910390fd5b610ced6716939d4a8f65e53260c01b6129b7565b610d0167da005070d22498c860c01b6129b7565b610d1567ea349d65fa22ebf560c01b6129b7565b610d203383836129ba565b610d6a57610d3867d7b14be5ab4339e160c01b6129b7565b6040517f3f1636e200000000000000000000000000000000000000000000000000000000815260040160405180910390fd5b610d7e6775a87a744fda813a60c01b6129b7565b610d926720e637d7f6eadf4b60c01b6129b7565b610da667c7788dd91ace80c060c01b6129b7565b600d5483610db26111b0565b610dbc91906143ff565b1115610e1c57610dd6678558968a03f310a760c01b6129b7565b610dea67cae43f51d2da16de60c01b6129b7565b6040517f76592c6f00000000000000000000000000000000000000000000000000000000815260040160405180910390fd5b610e306773ba8f36e203bde560c01b6129b7565b610e4467fadcb1936560ed9560c01b6129b7565b610e58670707ec1d5f0981d160c01b6129b7565b3483600f54610e679190614455565b14610ec657610e806742f1481aab5c6ab460c01b6129b7565b610e946739c04464baedf3d760c01b6129b7565b6040517fb457f15800000000000000000000000000000000000000000000000000000000815260040160405180910390fd5b610eda673f22c7dd3af8fb3a60c01b6129b7565b610eee67667d81a6fc3522c960c01b6129b7565b610f02675c21f349a125160960c01b6129b7565b600c5483601460003373ffffffffffffffffffffffffffffffffffffffff1673ffffffffffffffffffffffffffffffffffffffff16815260200190815260200160002054610f5091906143ff565b1115610fb057610f6a67449244b9b3bd1aac60c01b6129b7565b610f7e67eec595b53d84638660c01b6129b7565b6040517f38d8b70c00000000000000000000000000000000000000000000000000000000815260040160405180910390fd5b610fc467e72991fbdfc27fba60c01b6129b7565b610fd867dce334ea26a269b160c01b6129b7565b82601460003373ffffffffffffffffffffffffffffffffffffffff1673ffffffffffffffffffffffffffffffffffffffff168152602001908152602001600020600082825461102791906143ff565b925050819055506110426713c409b9ba64450c60c01b6129b7565b61105667d0bff00e676ce46f60c01b6129b7565b6110603384612a54565b6001600881905550505050565b61108167973a2a9cea29956360c01b6129b7565b611089612c11565b61109d67517264e0f0ce986f60c01b6129b7565b6110b1678b7e74df9a874d5c60c01b6129b7565b6110c567d64322e79ec27e8b60c01b6129b7565b6110d967505eb9481236e06560c01b6129b7565b600d54816110e56111b0565b6110ef91906143ff565b111561114f5761110967e1b82b9f68fb800a60c01b6129b7565b61111d677432ed32836809dc60c01b6129b7565b6040517f76592c6f00000000000000000000000000000000000000000000000000000000815260040160405180910390fd5b61116367629aee9857a87eb760c01b6129b7565b61117767210c5960760fb0bf60c01b6129b7565b61118b675e1f2ec2cc29f61360c01b6129b7565b6111953382612a54565b50565b60146020528060005260406000206000915090505481565b60006111ba612c8f565b6001546000540303905090565b60606111dd671034483de3dd3e1560c01b6129b7565b6111f167c1e69ad5669426db60c01b6129b7565b611205678c11de76baa0d56c60c01b6129b7565b600084905061121e67a495284dc0df4ad760c01b6129b7565b6112326749637b306db26d4360c01b6129b7565b6000848461124091906144af565b67ffffffffffffffff81111561125957611258613e70565b5b6040519080825280601f01601f19166020018201604052801561128b5781602001600182028036833780820191505090505b5090506112a267af620b66b82548aa60c01b6129b7565b6112b667963f35512dfdd91e60c01b6129b7565b60008590505b84811015611356576112d867bc4bcf2f6d3c2c0d60c01b6129b7565b8281815181106112eb576112ea6144e3565b5b602001015160f81c60f81b82878361130391906144af565b81518110611314576113136144e3565b5b60200101907effffffffffffffffffffffffffffffffffffffffffffffffffffffffffffff1916908160001a905350808061134e90614512565b9150506112bc565b5061136b67e6150e6341cde2a460c01b6129b7565b61137f677c0bb4834fface7a60c01b6129b7565b80925050509392505050565b600061139682612c94565b90508373ffffffffffffffffffffffffffffffffffffffff168173ffffffffffffffffffffffffffffffffffffffff16146113fd576040517fa114810000000000000000000000000000000000000000000000000000000000815260040160405180910390fd5b60008061140984612d62565b9150915061141f818761141a6129af565b612d89565b61146b576114348661142f6129af565b612832565b61146a576040517f59c896be00000000000000000000000000000000000000000000000000000000815260040160405180910390fd5b5b600073ffffffffffffffffffffffffffffffffffffffff168573ffffffffffffffffffffffffffffffffffffffff1614156114d2576040517fea553b3400000000000000000000000000000000000000000000000000000000815260040160405180910390fd5b6114df8686866001612dcd565b80156114ea57600082555b600560008773ffffffffffffffffffffffffffffffffffffffff1673ffffffffffffffffffffffffffffffffffffffff168152602001908152602001600020600081546001900391905081905550600560008673ffffffffffffffffffffffffffffffffffffffff1673ffffffffffffffffffffffffffffffffffffffff16815260200190815260200160002060008154600101919050819055506115b885611594888887612dd3565b7c020000000000000000000000000000000000000000000000000000000017612dfb565b600460008681526020019081526020016000208190555060007c02000000000000000000000000000000000000000000000000000000008416141561164057600060018501905060006004600083815260200190815260200160002054141561163e57600054811461163d578360046000838152602001908152602001600020819055505b5b505b838573ffffffffffffffffffffffffffffffffffffffff168773ffffffffffffffffffffffffffffffffffffffff167fddf252ad1be2c89b69c2b068fc378daa952ba7f163c4a11628f55a4df523b3ef60405160405180910390a46116a88686866001612e26565b505050505050565b600f5481565b600a5481565b601360029054906101000a900460ff1681565b601360019054906101000a900460ff1681565b6116f667f63c7029d2b890df60c01b6129b7565b6116fe612c11565b6117126784a8480d31f80b7760c01b6129b7565b61172667c45eee93741bf7ab60c01b6129b7565b61173a6731e2bb0fd85a3a8f60c01b6129b7565b61174e6753041934e226a22160c01b6129b7565b611756611d40565b73ffffffffffffffffffffffffffffffffffffffff166108fc479081150290604051600060405180830381858888f1935050505015801561179b573d6000803e3d6000fd5b50565b6117b9838383604051806020016040528060008152506123c0565b505050565b601360009054906101000a900460ff1681565b6117e567b82a65beb413160f60c01b6129b7565b6117ed612c11565b611801674295597ec8604a0860c01b6129b7565b61181567d7588c0e2923cd1a60c01b6129b7565b61182967893c99f235686ea760c01b6129b7565b61183d674f4cef6d9ca9998b60c01b6129b7565b611851671e8b6a47ba098fa860c01b6129b7565b6001815111611895576040517f08c379a000000000000000000000000000000000000000000000000000000000815260040161188c906145a7565b60405180910390fd5b6118a967e5a3cfdf941932b360c01b6129b7565b6118bd6731aba78cc56ffda060c01b6129b7565b6118d167bb827d1bd8ffa92060c01b6129b7565b60006118dc82612e2c565b90506118f267e3da0dcf01946e1e60c01b6129b7565b6119066796468fc91954a2a360c01b6129b7565b600061191f8360018461191991906144af565b846111c7565b90506119356734c5995ab410c9d060c01b6129b7565b61194967b015e0048196898660c01b6129b7565b61195d679d0314ec9e415dca60c01b6129b7565b61199c816040518060400160405280600181526020017f2f0000000000000000000000000000000000000000000000000000000000000081525061329f565b6119db576040517f08c379a00000000000000000000000000000000000000000000000000000000081526004016119d290614639565b60405180910390fd5b6119ef67b4a770f99bb88b4260c01b6129b7565b611a0367675dc516e1014f2560c01b6129b7565b611a1767fb5653f0afd2ed3660c01b6129b7565b611a2b67ae8a21194ac416f660c01b6129b7565b601360009054906101000a900460ff1615611a7b576040517f08c379a0000000000000000000000000000000000000000000000000000000008152600401611a72906146a5565b60405180910390fd5b611a8f67c5599d553101339160c01b6129b7565b611aa3670dbdfffbded7110560c01b6129b7565b6001601360006101000a81548160ff021916908315150217905550611ad2678cdaff9dbfd39cda60c01b6129b7565b8260119080519060200190611ae89291906139f7565b50505050565b611b02673b025b20ebd200d560c01b6129b7565b611b0a612c11565b611b1d66efcb4bdfbcc6db60c01b6129b7565b611b31673778b1e1ef7be57c60c01b6129b7565b611b45670cc61e96ab3a87d660c01b6129b7565b601360029054906101000a900460ff1615601360026101000a81548160ff021916908315150217905550565b6000611b7c82612c94565b9050919050565b60118054611b9090614332565b80601f0160208091040260200160405190810160405280929190818152602001828054611bbc90614332565b8015611c095780601f10611bde57610100808354040283529160200191611c09565b820191906000526020600020905b815481529060010190602001808311611bec57829003601f168201915b505050505081565b60008073ffffffffffffffffffffffffffffffffffffffff168273ffffffffffffffffffffffffffffffffffffffff161415611c79576040517f8f4eb60400000000000000000000000000000000000000000000000000000000815260040160405180910390fd5b67ffffffffffffffff600560008473ffffffffffffffffffffffffffffffffffffffff1673ffffffffffffffffffffffffffffffffffffffff16815260200190815260200160002054169050919050565b611cd2612c11565b611cdc6000613334565b565b611cf267104d45d00471aeb360c01b6129b7565b611cfa612c11565b611d0e6775d91e70e1ba3c6060c01b6129b7565b611d2267f595ef221c6d3b7c60c01b6129b7565b611d3667c12ba541e012160d60c01b6129b7565b80600a8190555050565b6000600960009054906101000a900473ffffffffffffffffffffffffffffffffffffffff16905090565b60128054611d7790614332565b80601f0160208091040260200160405190810160405280929190818152602001828054611da390614332565b8015611df05780601f10611dc557610100808354040283529160200191611df0565b820191906000526020600020905b815481529060010190602001808311611dd357829003601f168201915b505050505081565b606060038054611e0790614332565b80601f0160208091040260200160405190810160405280929190818152602001828054611e3390614332565b8015611e805780601f10611e5557610100808354040283529160200191611e80565b820191906000526020600020905b815481529060010190602001808311611e6357829003601f168201915b5050505050905090565b611e9e6797f1543cf257e2db60c01b6129b7565b60026008541415611ee4576040517f08c379a0000000000000000000000000000000000000000000000000000000008152600401611edb906143b0565b60405180910390fd5b6002600881905550611f0067d3b8064de29e656260c01b6129b7565b611f146756849502e5f580ee60c01b6129b7565b611f28671a34d03a384bb85860c01b6129b7565b611f3c6714fb42c6d5fd766060c01b6129b7565b601360019054906101000a900460ff16611f9657611f6467188cd67335614d6e60c01b6129b7565b6040517fa9f4f87100000000000000000000000000000000000000000000000000000000815260040160405180910390fd5b611faa674fa151c1073c201e60c01b6129b7565b611fbe6770ef0d496ddb021160c01b6129b7565b611fd2677ebe9c5786cff2a260c01b6129b7565b600d5481611fde6111b0565b611fe891906143ff565b1115612048576120026721d6cbc59e7abd1d60c01b6129b7565b61201667323008bc89bc3ec960c01b6129b7565b6040517f76592c6f00000000000000000000000000000000000000000000000000000000815260040160405180910390fd5b61205c67a579e903e048f9db60c01b6129b7565b612070675fe8fe00bf42647860c01b6129b7565b61208467c396d3a2848f3dd860c01b6129b7565b3481600e546120939190614455565b146120f2576120ac67b9d1ea1dde16b8ca60c01b6129b7565b6120c067d276a7c0cf18648060c01b6129b7565b6040517fb457f15800000000000000000000000000000000000000000000000000000000815260040160405180910390fd5b61210667f61e71283b08a52460c01b6129b7565b61211a6794ff45e808183cf660c01b6129b7565b61212e67d6247be22b1ec44a60c01b6129b7565b600b54601560003373ffffffffffffffffffffffffffffffffffffffff1673ffffffffffffffffffffffffffffffffffffffff168152602001908152602001600020548261217c91906143ff565b11156121dc57612196674f86afd73e60a56260c01b6129b7565b6121aa67ca252b3b45769db960c01b6129b7565b6040517f38d8b70c00000000000000000000000000000000000000000000000000000000815260040160405180910390fd5b6121f067cb55f435322ba3af60c01b6129b7565b61220467d0a825058134a34160c01b6129b7565b80601560003373ffffffffffffffffffffffffffffffffffffffff1673ffffffffffffffffffffffffffffffffffffffff168152602001908152602001600020600082825461225391906143ff565b9250508190555061226e6746a9bd98bc8827f560c01b6129b7565b61228267372208349912c4fb60c01b6129b7565b61228c3382612a54565b600160088190555050565b80600760006122a46129af565b73ffffffffffffffffffffffffffffffffffffffff1673ffffffffffffffffffffffffffffffffffffffff16815260200190815260200160002060008473ffffffffffffffffffffffffffffffffffffffff1673ffffffffffffffffffffffffffffffffffffffff16815260200190815260200160002060006101000a81548160ff0219169083151502179055508173ffffffffffffffffffffffffffffffffffffffff166123516129af565b73ffffffffffffffffffffffffffffffffffffffff167f17307eab39ab6107e8899845ad3d59bd9653f200f220920489ca2b5937696c31836040516123969190613b4e565b60405180910390a35050565b60156020528060005260406000206000915090505481565b600b5481565b6123cb84848461138b565b60008373ffffffffffffffffffffffffffffffffffffffff163b1461242d576123f6848484846133fa565b61242c576040517fd1a57ed600000000000000000000000000000000000000000000000000000000815260040160405180910390fd5b5b50505050565b6010805461244090614332565b80601f016020809104026020016040519081016040528092919081815260200182805461246c90614332565b80156124b95780601f1061248e576101008083540402835291602001916124b9565b820191906000526020600020905b81548152906001019060200180831161249c57829003601f168201915b505050505081565b60606124d7670395a2eb79f168fd60c01b6129b7565b6124eb67129735c86123175d60c01b6129b7565b6124ff67443276c5cd79642860c01b6129b7565b61251367a9505b3610cae99460c01b6129b7565b61251c82612950565b61255b576040517f08c379a000000000000000000000000000000000000000000000000000000000815260040161255290614711565b60405180910390fd5b61256f6733c524b0dc56016e60c01b6129b7565b61258367effec71e6927a2ff60c01b6129b7565b612597675c950464c868fe2660c01b6129b7565b601360009054906101000a900460ff166126a6576125bf672c0012cbb2c02c1c60c01b6129b7565b6125d3677ce499f4288e9c0260c01b6129b7565b6125e767b6c1faaa4f9b5af860c01b6129b7565b60006125f161355a565b90506126076734d661f3dc7de35460c01b6129b7565b61261b676e5e3e8ec06298e360c01b6129b7565b6000815111801561263c575061263b67ba597d7d230442f460c01b613628565b5b8061265757506126566727303de4dbeee1fc60c01b613633565b5b612670576040518060200160405280600081525061269e565b8061267a8461363a565b601060405160200161268e93929190614801565b6040516020818303038152906040525b91505061279d565b6126ba67a76537f2d61ec8c560c01b6129b7565b6126ce67a7bf69ae1153db5660c01b6129b7565b6126e267ac3b9e2c8566957760c01b6129b7565b60006126ec61379b565b905061270267e60e6e64d474c4f260c01b6129b7565b6127166722dcd01658129f5260c01b6129b7565b60008151118015612737575061273667eaeb4c46cb52de6460c01b613628565b5b80612752575061275167cb1f2b7d8f5aa48660c01b613633565b5b61276b5760405180602001604052806000815250612799565b806127758461363a565b601060405160200161278993929190614801565b6040516020818303038152906040525b9150505b919050565b600e5481565b600d5481565b6127c267c7635ec9f1eb31ad60c01b6129b7565b6127ca612c11565b6127de67320f20d4ec2ecfa760c01b6129b7565b6127f2674212987e838677a060c01b6129b7565b612806672b835d87cb58d01260c01b6129b7565b601360019054906101000a900460ff1615601360016101000a81548160ff021916908315150217905550565b6000600760008473ffffffffffffffffffffffffffffffffffffffff1673ffffffffffffffffffffffffffffffffffffffff16815260200190815260200160002060008373ffffffffffffffffffffffffffffffffffffffff1673ffffffffffffffffffffffffffffffffffffffff16815260200190815260200160002060009054906101000a900460ff16905092915050565b600c5481565b6128d4612c11565b600073ffffffffffffffffffffffffffffffffffffffff168173ffffffffffffffffffffffffffffffffffffffff161415612944576040517f08c379a000000000000000000000000000000000000000000000000000000000815260040161293b906148a4565b60405180910390fd5b61294d81613334565b50565b60008161295b612c8f565b1115801561296a575060005482105b80156129a8575060007c0100000000000000000000000000000000000000000000000000000000600460008581526020019081526020016000205416145b9050919050565b600033905090565b50565b60006129d067581014eecd816f1960c01b6129b7565b6129e467f7bccf225e5ab84460c01b6129b7565b6129f867b7b336ccb1dd138c60c01b6129b7565b612a4b612a0485613869565b848480806020026020016040519081016040528093929190818152602001838360200280828437600081840152601f19601f820116905080830192505050505050506138d4565b90509392505050565b6000805490506000821415612a95576040517fb562e8dd00000000000000000000000000000000000000000000000000000000815260040160405180910390fd5b612aa26000848385612dcd565b600160406001901b178202600560008573ffffffffffffffffffffffffffffffffffffffff1673ffffffffffffffffffffffffffffffffffffffff16815260200190815260200160002060008282540192505081905550612b1983612b0a6000866000612dd3565b612b1385613927565b17612dfb565b6004600083815260200190815260200160002081905550600080838301905073ffffffffffffffffffffffffffffffffffffffff85169150828260007fddf252ad1be2c89b69c2b068fc378daa952ba7f163c4a11628f55a4df523b3ef600080a4600183015b818114612bba57808360007fddf252ad1be2c89b69c2b068fc378daa952ba7f163c4a11628f55a4df523b3ef600080a4600181019050612b7f565b506000821415612bf6576040517f2e07630000000000000000000000000000000000000000000000000000000000815260040160405180910390fd5b806000819055505050612c0c6000848385612e26565b505050565b612c19613937565b73ffffffffffffffffffffffffffffffffffffffff16612c37611d40565b73ffffffffffffffffffffffffffffffffffffffff1614612c8d576040517f08c379a0000000000000000000000000000000000000000000000000000000008152600401612c8490614910565b60405180910390fd5b565b600090565b60008082905080612ca3612c8f565b11612d2b57600054811015612d2a5760006004600083815260200190815260200160002054905060007c010000000000000000000000000000000000000000000000000000000082161415612d28575b6000811415612d1e576004600083600190039350838152602001908152602001600020549050612cf3565b8092505050612d5d565b505b5b6040517fdf2d9b4200000000000000000000000000000000000000000000000000000000815260040160405180910390fd5b919050565b60008060006006600085815260200190815260200160002090508092508254915050915091565b600073ffffffffffffffffffffffffffffffffffffffff8316925073ffffffffffffffffffffffffffffffffffffffff821691508382148383141790509392505050565b50505050565b60008060e883901c905060e8612dea86868461393f565b62ffffff16901b9150509392505050565b600073ffffffffffffffffffffffffffffffffffffffff83169250814260a01b178317905092915050565b50505050565b6000612e42674b9ebfcb8cefffd560c01b6129b7565b612e566795c1c10dabb31d8f60c01b6129b7565b612e6a67decb31538dc7c26460c01b6129b7565b6000612e80672b8a8fcdb984245360c01b6129b7565b612e9467cddd6b1d1c799f0460c01b6129b7565b6000612eaa6767d9c0e5b9a0fc5f60c01b6129b7565b612ebe6703118a805209ebde60c01b6129b7565b600084519050612ed8679baa8263c3e42a3e60c01b6129b7565b612eec67753e01b2185b597360c01b6129b7565b600092505b8082101561326c57612f0d677d6f84922193788360c01b6129b7565b612f21675c81bf40a855270f60c01b6129b7565b6000858381518110612f3657612f356144e3565b5b602001015160f81c60f81b9050612f5767467d0ef2c75b9de760c01b6129b7565b612f6b67857dea15a4b86d2360c01b6129b7565b608060f81b817effffffffffffffffffffffffffffffffffffffffffffffffffffffffffffff19161015612fd557612fad67628c4b3fcf22800d60c01b6129b7565b612fc167ad34cf1db0fcee5560c01b6129b7565b600183612fce91906143ff565b9250613258565b612fe967784cd16d6070534160c01b6129b7565b612ffd6729c0d0f3fe57767360c01b6129b7565b60e060f81b817effffffffffffffffffffffffffffffffffffffffffffffffffffffffffffff191610156130675761303f67bb11dbb7cebd004960c01b6129b7565b613053672779b43b86a65e1560c01b6129b7565b60028361306091906143ff565b9250613257565b61307b67396d63f08242900960c01b6129b7565b61308f67ab5e352b4be6e8e260c01b6129b7565b60f060f81b817effffffffffffffffffffffffffffffffffffffffffffffffffffffffffffff191610156130f9576130d167df0d88ccc1f086c560c01b6129b7565b6130e56798d2844db859d85460c01b6129b7565b6003836130f291906143ff565b9250613256565b61310d6760630243f00ee42b60c01b6129b7565b61312167da94771a5b9b66af60c01b6129b7565b60f8801b817effffffffffffffffffffffffffffffffffffffffffffffffffffffffffffff1916101561318a5761316267e7512416f2b731ae60c01b6129b7565b6131766705c8a881b780b5f560c01b6129b7565b60048361318391906143ff565b9250613255565b61319e6701ff81eea5fe455e60c01b6129b7565b6131b267ef965669ebd1326160c01b6129b7565b60fc60f81b817effffffffffffffffffffffffffffffffffffffffffffffffffffffffffffff1916101561321c576131f4673324c1b7dc1dabee60c01b6129b7565b61320867aec9c2b72e53eba760c01b6129b7565b60058361321591906143ff565b9250613254565b61323067d0efbfbc5a3ceea360c01b6129b7565b613244672be04c704e11f16060c01b6129b7565b60068361325191906143ff565b92505b5b5b5b5b50828061326490614512565b935050612ef1565b61328067dc3cc729dc490c1f60c01b6129b7565b6132946781bccb181d05560d60c01b6129b7565b829350505050919050565b60006132b567a5f081fff0f3714960c01b6129b7565b6132c9675dfadf620b418f7360c01b6129b7565b6132dd67dff81491a81c2bef60c01b6129b7565b816040516020016132ee9190614930565b60405160208183030381529060405280519060200120836040516020016133159190614930565b6040516020818303038152906040528051906020012014905092915050565b6000600960009054906101000a900473ffffffffffffffffffffffffffffffffffffffff16905081600960006101000a81548173ffffffffffffffffffffffffffffffffffffffff021916908373ffffffffffffffffffffffffffffffffffffffff1602179055508173ffffffffffffffffffffffffffffffffffffffff168173ffffffffffffffffffffffffffffffffffffffff167f8be0079c531659141344cd1fd0a4f28419497f9722a3daafe3b4186f6b6457e060405160405180910390a35050565b60008373ffffffffffffffffffffffffffffffffffffffff1663150b7a026134206129af565b8786866040518563ffffffff1660e01b8152600401613442949392919061499c565b602060405180830381600087803b15801561345c57600080fd5b505af192505050801561348d57506040513d601f19601f8201168201806040525081019061348a91906149fd565b60015b613507573d80600081146134bd576040519150601f19603f3d011682016040523d82523d6000602084013e6134c2565b606091505b506000815114156134ff576040517fd1a57ed600000000000000000000000000000000000000000000000000000000815260040160405180910390fd5b805181602001fd5b63150b7a0260e01b7bffffffffffffffffffffffffffffffffffffffffffffffffffffffff1916817bffffffffffffffffffffffffffffffffffffffffffffffffffffffff191614915050949350505050565b606061357067d1ab6145dbc7d12560c01b6129b7565b6135846780391af6e8d1f4c560c01b6129b7565b61359867768504eba625e47560c01b6129b7565b601280546135a590614332565b80601f01602080910402602001604051908101604052809291908181526020018280546135d190614332565b801561361e5780601f106135f35761010080835404028352916020019161361e565b820191906000526020600020905b81548152906001019060200180831161360157829003601f168201915b5050505050905090565b600060019050919050565b6000919050565b60606000821415613682576040518060400160405280600181526020017f30000000000000000000000000000000000000000000000000000000000000008152509050613796565b600082905060005b600082146136b457808061369d90614512565b915050600a826136ad9190614a59565b915061368a565b60008167ffffffffffffffff8111156136d0576136cf613e70565b5b6040519080825280601f01601f1916602001820160405280156137025781602001600182028036833780820191505090505b5090505b6000851461378f5760018261371b91906144af565b9150600a8561372a9190614a8a565b603061373691906143ff565b60f81b81838151811061374c5761374b6144e3565b5b60200101907effffffffffffffffffffffffffffffffffffffffffffffffffffffffffffff1916908160001a905350600a856137889190614a59565b9450613706565b8093505050505b919050565b60606137b167877fba6da24299bd60c01b6129b7565b6137c567db859c105f6166a460c01b6129b7565b6137d967692a47330164830f60c01b6129b7565b601180546137e690614332565b80601f016020809104026020016040519081016040528092919081815260200182805461381290614332565b801561385f5780601f106138345761010080835404028352916020019161385f565b820191906000526020600020905b81548152906001019060200180831161384257829003601f168201915b5050505050905090565b600061387f67492540f399057d7260c01b6129b7565b61389367fa00648dde61950560c01b6129b7565b6138a6661282bafa4ae6ce60c01b6129b7565b816040516020016138b79190614b03565b604051602081830303815290604052805190602001209050919050565b60006138ea67b319ca0b92df16f160c01b6129b7565b6138fe6788ffccaf8e487a5d60c01b6129b7565b61391267f1d0cff929d0736560c01b6129b7565b61391f82600a5485613948565b905092915050565b60006001821460e11b9050919050565b600033905090565b60009392505050565b600082613955858461395f565b1490509392505050565b60008082905060005b84518110156139aa5761399582868381518110613988576139876144e3565b5b60200260200101516139b5565b915080806139a290614512565b915050613968565b508091505092915050565b60008183106139cd576139c882846139e0565b6139d8565b6139d783836139e0565b5b905092915050565b600082600052816020526040600020905092915050565b828054613a0390614332565b90600052602060002090601f016020900481019282613a255760008555613a6c565b82601f10613a3e57805160ff1916838001178555613a6c565b82800160010185558215613a6c579182015b82811115613a6b578251825591602001919060010190613a50565b5b509050613a799190613a7d565b5090565b5b80821115613a96576000816000905550600101613a7e565b5090565b6000604051905090565b600080fd5b600080fd5b60007fffffffff0000000000000000000000000000000000000000000000000000000082169050919050565b613ae381613aae565b8114613aee57600080fd5b50565b600081359050613b0081613ada565b92915050565b600060208284031215613b1c57613b1b613aa4565b5b6000613b2a84828501613af1565b91505092915050565b60008115159050919050565b613b4881613b33565b82525050565b6000602082019050613b636000830184613b3f565b92915050565b600081519050919050565b600082825260208201905092915050565b60005b83811015613ba3578082015181840152602081019050613b88565b83811115613bb2576000848401525b50505050565b6000601f19601f8301169050919050565b6000613bd482613b69565b613bde8185613b74565b9350613bee818560208601613b85565b613bf781613bb8565b840191505092915050565b60006020820190508181036000830152613c1c8184613bc9565b905092915050565b6000819050919050565b613c3781613c24565b8114613c4257600080fd5b50565b600081359050613c5481613c2e565b92915050565b600060208284031215613c7057613c6f613aa4565b5b6000613c7e84828501613c45565b91505092915050565b600073ffffffffffffffffffffffffffffffffffffffff82169050919050565b6000613cb282613c87565b9050919050565b613cc281613ca7565b82525050565b6000602082019050613cdd6000830184613cb9565b92915050565b613cec81613ca7565b8114613cf757600080fd5b50565b600081359050613d0981613ce3565b92915050565b60008060408385031215613d2657613d25613aa4565b5b6000613d3485828601613cfa565b9250506020613d4585828601613c45565b9150509250929050565b600080fd5b600080fd5b600080fd5b60008083601f840112613d7457613d73613d4f565b5b8235905067ffffffffffffffff811115613d9157613d90613d54565b5b602083019150836020820283011115613dad57613dac613d59565b5b9250929050565b600080600060408486031215613dcd57613dcc613aa4565b5b6000613ddb86828701613c45565b935050602084013567ffffffffffffffff811115613dfc57613dfb613aa9565b5b613e0886828701613d5e565b92509250509250925092565b600060208284031215613e2a57613e29613aa4565b5b6000613e3884828501613cfa565b91505092915050565b613e4a81613c24565b82525050565b6000602082019050613e656000830184613e41565b92915050565b600080fd5b7f4e487b7100000000000000000000000000000000000000000000000000000000600052604160045260246000fd5b613ea882613bb8565b810181811067ffffffffffffffff82111715613ec757613ec6613e70565b5b80604052505050565b6000613eda613a9a565b9050613ee68282613e9f565b919050565b600067ffffffffffffffff821115613f0657613f05613e70565b5b613f0f82613bb8565b9050602081019050919050565b82818337600083830152505050565b6000613f3e613f3984613eeb565b613ed0565b905082815260208101848484011115613f5a57613f59613e6b565b5b613f65848285613f1c565b509392505050565b600082601f830112613f8257613f81613d4f565b5b8135613f92848260208601613f2b565b91505092915050565b600080600060608486031215613fb457613fb3613aa4565b5b600084013567ffffffffffffffff811115613fd257613fd1613aa9565b5b613fde86828701613f6d565b9350506020613fef86828701613c45565b925050604061400086828701613c45565b9150509250925092565b60008060006060848603121561402357614022613aa4565b5b600061403186828701613cfa565b935050602061404286828701613cfa565b925050604061405386828701613c45565b9150509250925092565b6000819050919050565b6140708161405d565b82525050565b600060208201905061408b6000830184614067565b92915050565b6000602082840312156140a7576140a6613aa4565b5b600082013567ffffffffffffffff8111156140c5576140c4613aa9565b5b6140d184828501613f6d565b91505092915050565b6140e38161405d565b81146140ee57600080fd5b50565b600081359050614100816140da565b92915050565b60006020828403121561411c5761411b613aa4565b5b600061412a848285016140f1565b91505092915050565b61413c81613b33565b811461414757600080fd5b50565b60008135905061415981614133565b92915050565b6000806040838503121561417657614175613aa4565b5b600061418485828601613cfa565b92505060206141958582860161414a565b9150509250929050565b600067ffffffffffffffff8211156141ba576141b9613e70565b5b6141c382613bb8565b9050602081019050919050565b60006141e36141de8461419f565b613ed0565b9050828152602081018484840111156141ff576141fe613e6b565b5b61420a848285613f1c565b509392505050565b600082601f83011261422757614226613d4f565b5b81356142378482602086016141d0565b91505092915050565b6000806000806080858703121561425a57614259613aa4565b5b600061426887828801613cfa565b945050602061427987828801613cfa565b935050604061428a87828801613c45565b925050606085013567ffffffffffffffff8111156142ab576142aa613aa9565b5b6142b787828801614212565b91505092959194509250565b600080604083850312156142da576142d9613aa4565b5b60006142e885828601613cfa565b92505060206142f985828601613cfa565b9150509250929050565b7f4e487b7100000000000000000000000000000000000000000000000000000000600052602260045260246000fd5b6000600282049050600182168061434a57607f821691505b6020821081141561435e5761435d614303565b5b50919050565b7f5265656e7472616e637947756172643a207265656e7472616e742063616c6c00600082015250565b600061439a601f83613b74565b91506143a582614364565b602082019050919050565b600060208201905081810360008301526143c98161438d565b9050919050565b7f4e487b7100000000000000000000000000000000000000000000000000000000600052601160045260246000fd5b600061440a82613c24565b915061441583613c24565b9250827fffffffffffffffffffffffffffffffffffffffffffffffffffffffffffffffff0382111561444a576144496143d0565b5b828201905092915050565b600061446082613c24565b915061446b83613c24565b9250817fffffffffffffffffffffffffffffffffffffffffffffffffffffffffffffffff04831182151516156144a4576144a36143d0565b5b828202905092915050565b60006144ba82613c24565b91506144c583613c24565b9250828210156144d8576144d76143d0565b5b828203905092915050565b7f4e487b7100000000000000000000000000000000000000000000000000000000600052603260045260246000fd5b600061451d82613c24565b91507fffffffffffffffffffffffffffffffffffffffffffffffffffffffffffffffff8214156145505761454f6143d0565b5b600182019050919050565b7f5f6e6577426173655552492063616e6e6f7420626520656d7074792100000000600082015250565b6000614591601c83613b74565b915061459c8261455b565b602082019050919050565b600060208201905081810360008301526145c081614584565b9050919050565b7f5f6e6577426173655552492073686f756c64206861766520612073756666697860008201527f206f6620272f2700000000000000000000000000000000000000000000000000602082015250565b6000614623602783613b74565b915061462e826145c7565b604082019050919050565b6000602082019050818103600083015261465281614616565b9050919050565b7f596f752063616e206f6e6c79207365742062617365555249206f6e6365210000600082015250565b600061468f601e83613b74565b915061469a82614659565b602082019050919050565b600060208201905081810360008301526146be81614682565b9050919050565b7f746f6b656e20646f6573206e6f74206578697374210000000000000000000000600082015250565b60006146fb601583613b74565b9150614706826146c5565b602082019050919050565b6000602082019050818103600083015261472a816146ee565b9050919050565b600081905092915050565b600061474782613b69565b6147518185614731565b9350614761818560208601613b85565b80840191505092915050565b60008190508160005260206000209050919050565b6000815461478f81614332565b6147998186614731565b945060018216600081146147b457600181146147c5576147f8565b60ff198316865281860193506147f8565b6147ce8561476d565b60005b838110156147f0578154818901526001820191506020810190506147d1565b838801955050505b50505092915050565b600061480d828661473c565b9150614819828561473c565b91506148258284614782565b9150819050949350505050565b7f4f776e61626c653a206e6577206f776e657220697320746865207a65726f206160008201527f6464726573730000000000000000000000000000000000000000000000000000602082015250565b600061488e602683613b74565b915061489982614832565b604082019050919050565b600060208201905081810360008301526148bd81614881565b9050919050565b7f4f776e61626c653a2063616c6c6572206973206e6f7420746865206f776e6572600082015250565b60006148fa602083613b74565b9150614905826148c4565b602082019050919050565b60006020820190508181036000830152614929816148ed565b9050919050565b600061493c828461473c565b915081905092915050565b600081519050919050565b600082825260208201905092915050565b600061496e82614947565b6149788185614952565b9350614988818560208601613b85565b61499181613bb8565b840191505092915050565b60006080820190506149b16000830187613cb9565b6149be6020830186613cb9565b6149cb6040830185613e41565b81810360608301526149dd8184614963565b905095945050505050565b6000815190506149f781613ada565b92915050565b600060208284031215614a1357614a12613aa4565b5b6000614a21848285016149e8565b91505092915050565b7f4e487b7100000000000000000000000000000000000000000000000000000000600052601260045260246000fd5b6000614a6482613c24565b9150614a6f83613c24565b925082614a7f57614a7e614a2a565b5b828204905092915050565b6000614a9582613c24565b9150614aa083613c24565b925082614ab057614aaf614a2a565b5b828206905092915050565b60008160601b9050919050565b6000614ad382614abb565b9050919050565b6000614ae582614ac8565b9050919050565b614afd614af882613ca7565b614ada565b82525050565b6000614b0f8284614aec565b6014820191508190509291505056fea264697066735822122071c3d4e74a17ef3dbd536d852f3f35088a4d24823d1515d7885ff9eb5546eb4464736f6c63430008090033",
  "linkReferences": {},
  "deployedLinkReferences": {}
}