{
  "_format": "hh-sol-artifact-1",
  "contractName": "KitsudenFoxfone",
  "sourceName": "contracts/KitsudenFoxfone.sol",
  "abi": [
    {
      "inputs": [],
      "stateMutability": "nonpayable",
      "type": "constructor"
    },
    {
      "inputs": [],
      "name": "ApprovalCallerNotOwnerNorApproved",
      "type": "error"
    },
    {
      "inputs": [],
      "name": "ApprovalQueryForNonexistentToken",
      "type": "error"
    },
    {
      "inputs": [],
      "name": "BalanceQueryForZeroAddress",
      "type": "error"
    },
    {
      "inputs": [],
      "name": "ExceededLimit",
      "type": "error"
    },
    {
      "inputs": [],
      "name": "InvalidMerkle",
      "type": "error"
    },
    {
      "inputs": [],
      "name": "MintERC2309QuantityExceedsLimit",
      "type": "error"
    },
    {
      "inputs": [],
      "name": "MintToZeroAddress",
      "type": "error"
    },
    {
      "inputs": [],
      "name": "MintZeroQuantity",
      "type": "error"
    },
    {
      "inputs": [],
      "name": "NotEnoughTokensLeft",
      "type": "error"
    },
    {
      "inputs": [],
      "name": "OwnerQueryForNonexistentToken",
      "type": "error"
    },
    {
      "inputs": [],
      "name": "OwnershipNotInitializedForExtraData",
      "type": "error"
    },
    {
      "inputs": [],
      "name": "PublicSaleNotLive",
      "type": "error"
    },
    {
      "inputs": [],
      "name": "TransferCallerNotOwnerNorApproved",
      "type": "error"
    },
    {
      "inputs": [],
      "name": "TransferFromIncorrectOwner",
      "type": "error"
    },
    {
      "inputs": [],
      "name": "TransferToNonERC721ReceiverImplementer",
      "type": "error"
    },
    {
      "inputs": [],
      "name": "TransferToZeroAddress",
      "type": "error"
    },
    {
      "inputs": [],
      "name": "URIQueryForNonexistentToken",
      "type": "error"
    },
    {
      "inputs": [],
      "name": "WhitelistNotLive",
      "type": "error"
    },
    {
      "inputs": [],
      "name": "WrongEther",
      "type": "error"
    },
    {
      "anonymous": false,
      "inputs": [
        {
          "indexed": true,
          "internalType": "address",
          "name": "owner",
          "type": "address"
        },
        {
          "indexed": true,
          "internalType": "address",
          "name": "approved",
          "type": "address"
        },
        {
          "indexed": true,
          "internalType": "uint256",
          "name": "tokenId",
          "type": "uint256"
        }
      ],
      "name": "Approval",
      "type": "event"
    },
    {
      "anonymous": false,
      "inputs": [
        {
          "indexed": true,
          "internalType": "address",
          "name": "owner",
          "type": "address"
        },
        {
          "indexed": true,
          "internalType": "address",
          "name": "operator",
          "type": "address"
        },
        {
          "indexed": false,
          "internalType": "bool",
          "name": "approved",
          "type": "bool"
        }
      ],
      "name": "ApprovalForAll",
      "type": "event"
    },
    {
      "anonymous": false,
      "inputs": [
        {
          "indexed": true,
          "internalType": "uint256",
          "name": "fromTokenId",
          "type": "uint256"
        },
        {
          "indexed": false,
          "internalType": "uint256",
          "name": "toTokenId",
          "type": "uint256"
        },
        {
          "indexed": true,
          "internalType": "address",
          "name": "from",
          "type": "address"
        },
        {
          "indexed": true,
          "internalType": "address",
          "name": "to",
          "type": "address"
        }
      ],
      "name": "ConsecutiveTransfer",
      "type": "event"
    },
    {
      "anonymous": false,
      "inputs": [
        {
          "indexed": true,
          "internalType": "address",
          "name": "previousOwner",
          "type": "address"
        },
        {
          "indexed": true,
          "internalType": "address",
          "name": "newOwner",
          "type": "address"
        }
      ],
      "name": "OwnershipTransferred",
      "type": "event"
    },
    {
      "anonymous": false,
      "inputs": [
        {
          "indexed": true,
          "internalType": "address",
          "name": "from",
          "type": "address"
        },
        {
          "indexed": true,
          "internalType": "address",
          "name": "to",
          "type": "address"
        },
        {
          "indexed": true,
          "internalType": "uint256",
          "name": "tokenId",
          "type": "uint256"
        }
      ],
      "name": "Transfer",
      "type": "event"
    },
    {
      "inputs": [
        {
          "internalType": "address",
          "name": "to",
          "type": "address"
        },
        {
          "internalType": "uint256",
          "name": "tokenId",
          "type": "uint256"
        }
      ],
      "name": "approve",
      "outputs": [],
      "stateMutability": "payable",
      "type": "function"
    },
    {
      "inputs": [
        {
          "internalType": "address",
          "name": "owner",
          "type": "address"
        }
      ],
      "name": "balanceOf",
      "outputs": [
        {
          "internalType": "uint256",
          "name": "",
          "type": "uint256"
        }
      ],
      "stateMutability": "view",
      "type": "function"
    },
    {
      "inputs": [],
      "name": "baseExtension",
      "outputs": [
        {
          "internalType": "string",
          "name": "",
          "type": "string"
        }
      ],
      "stateMutability": "view",
      "type": "function"
    },
    {
      "inputs": [],
      "name": "baseHiddenUri",
      "outputs": [
        {
          "internalType": "string",
          "name": "",
          "type": "string"
        }
      ],
      "stateMutability": "view",
      "type": "function"
    },
    {
      "inputs": [],
      "name": "baseURI",
      "outputs": [
        {
          "internalType": "string",
          "name": "",
          "type": "string"
        }
      ],
      "stateMutability": "view",
      "type": "function"
    },
    {
      "inputs": [
        {
          "internalType": "uint256",
          "name": "tokenId",
          "type": "uint256"
        }
      ],
      "name": "getApproved",
      "outputs": [
        {
          "internalType": "address",
          "name": "",
          "type": "address"
        }
      ],
      "stateMutability": "view",
      "type": "function"
    },
    {
      "inputs": [
        {
          "internalType": "address",
          "name": "owner",
          "type": "address"
        },
        {
          "internalType": "address",
          "name": "operator",
          "type": "address"
        }
      ],
      "name": "isApprovedForAll",
      "outputs": [
        {
          "internalType": "bool",
          "name": "",
          "type": "bool"
        }
      ],
      "stateMutability": "view",
      "type": "function"
    },
    {
      "inputs": [],
      "name": "maxMints",
      "outputs": [
        {
          "internalType": "uint256",
          "name": "",
          "type": "uint256"
        }
      ],
      "stateMutability": "view",
      "type": "function"
    },
    {
      "inputs": [],
      "name": "maxSupply",
      "outputs": [
        {
          "internalType": "uint256",
          "name": "",
          "type": "uint256"
        }
      ],
      "stateMutability": "view",
      "type": "function"
    },
    {
      "inputs": [],
      "name": "merkleRoot",
      "outputs": [
        {
          "internalType": "bytes32",
          "name": "",
          "type": "bytes32"
        }
      ],
      "stateMutability": "view",
      "type": "function"
    },
    {
      "inputs": [
        {
          "internalType": "uint256",
          "name": "quantity",
          "type": "uint256"
        }
      ],
      "name": "mint",
      "outputs": [],
      "stateMutability": "payable",
      "type": "function"
    },
    {
      "inputs": [],
      "name": "mintAvailable",
      "outputs": [
        {
          "internalType": "uint256",
          "name": "",
          "type": "uint256"
        }
      ],
      "stateMutability": "view",
      "type": "function"
    },
    {
      "inputs": [],
      "name": "mintRate",
      "outputs": [
        {
          "internalType": "uint256",
          "name": "",
          "type": "uint256"
        }
      ],
      "stateMutability": "view",
      "type": "function"
    },
    {
      "inputs": [],
      "name": "name",
      "outputs": [
        {
          "internalType": "string",
          "name": "",
          "type": "string"
        }
      ],
      "stateMutability": "view",
      "type": "function"
    },
    {
      "inputs": [],
      "name": "owner",
      "outputs": [
        {
          "internalType": "address",
          "name": "",
          "type": "address"
        }
      ],
      "stateMutability": "view",
      "type": "function"
    },
    {
      "inputs": [
        {
          "internalType": "uint256",
          "name": "tokenId",
          "type": "uint256"
        }
      ],
      "name": "ownerOf",
      "outputs": [
        {
          "internalType": "address",
          "name": "",
          "type": "address"
        }
      ],
      "stateMutability": "view",
      "type": "function"
    },
    {
      "inputs": [],
      "name": "publicSale",
      "outputs": [
        {
          "internalType": "bool",
          "name": "",
          "type": "bool"
        }
      ],
      "stateMutability": "view",
      "type": "function"
    },
    {
      "inputs": [],
      "name": "renounceOwnership",
      "outputs": [],
      "stateMutability": "nonpayable",
      "type": "function"
    },
    {
      "inputs": [
        {
          "internalType": "uint256",
          "name": "quantity",
          "type": "uint256"
        }
      ],
      "name": "reserveMint",
      "outputs": [],
      "stateMutability": "nonpayable",
      "type": "function"
    },
    {
      "inputs": [],
      "name": "revealed",
      "outputs": [
        {
          "internalType": "bool",
          "name": "",
          "type": "bool"
        }
      ],
      "stateMutability": "view",
      "type": "function"
    },
    {
      "inputs": [
        {
          "internalType": "address",
          "name": "from",
          "type": "address"
        },
        {
          "internalType": "address",
          "name": "to",
          "type": "address"
        },
        {
          "internalType": "uint256",
          "name": "tokenId",
          "type": "uint256"
        }
      ],
      "name": "safeTransferFrom",
      "outputs": [],
      "stateMutability": "payable",
      "type": "function"
    },
    {
      "inputs": [
        {
          "internalType": "address",
          "name": "from",
          "type": "address"
        },
        {
          "internalType": "address",
          "name": "to",
          "type": "address"
        },
        {
          "internalType": "uint256",
          "name": "tokenId",
          "type": "uint256"
        },
        {
          "internalType": "bytes",
          "name": "_data",
          "type": "bytes"
        }
      ],
      "name": "safeTransferFrom",
      "outputs": [],
      "stateMutability": "payable",
      "type": "function"
    },
    {
      "inputs": [
        {
          "internalType": "address",
          "name": "operator",
          "type": "address"
        },
        {
          "internalType": "bool",
          "name": "approved",
          "type": "bool"
        }
      ],
      "name": "setApprovalForAll",
      "outputs": [],
      "stateMutability": "nonpayable",
      "type": "function"
    },
    {
      "inputs": [
        {
          "internalType": "string",
          "name": "_newBaseURI",
          "type": "string"
        }
      ],
      "name": "setBaseURI",
      "outputs": [],
      "stateMutability": "nonpayable",
      "type": "function"
    },
    {
      "inputs": [
        {
          "internalType": "bytes32",
          "name": "_root",
          "type": "bytes32"
        }
      ],
      "name": "setMerkleRoot",
      "outputs": [],
      "stateMutability": "nonpayable",
      "type": "function"
    },
    {
      "inputs": [
        {
          "internalType": "bytes4",
          "name": "interfaceId",
          "type": "bytes4"
        }
      ],
      "name": "supportsInterface",
      "outputs": [
        {
          "internalType": "bool",
          "name": "",
          "type": "bool"
        }
      ],
      "stateMutability": "view",
      "type": "function"
    },
    {
      "inputs": [],
      "name": "symbol",
      "outputs": [
        {
          "internalType": "string",
          "name": "",
          "type": "string"
        }
      ],
      "stateMutability": "view",
      "type": "function"
    },
    {
      "inputs": [],
      "name": "togglePublicSale",
      "outputs": [],
      "stateMutability": "nonpayable",
      "type": "function"
    },
    {
      "inputs": [],
      "name": "toggleWhitelistSale",
      "outputs": [],
      "stateMutability": "nonpayable",
      "type": "function"
    },
    {
      "inputs": [
        {
          "internalType": "uint256",
          "name": "tokenId",
          "type": "uint256"
        }
      ],
      "name": "tokenURI",
      "outputs": [
        {
          "internalType": "string",
          "name": "",
          "type": "string"
        }
      ],
      "stateMutability": "view",
      "type": "function"
    },
    {
      "inputs": [],
      "name": "totalSupply",
      "outputs": [
        {
          "internalType": "uint256",
          "name": "",
          "type": "uint256"
        }
      ],
      "stateMutability": "view",
      "type": "function"
    },
    {
      "inputs": [
        {
          "internalType": "address",
          "name": "from",
          "type": "address"
        },
        {
          "internalType": "address",
          "name": "to",
          "type": "address"
        },
        {
          "internalType": "uint256",
          "name": "tokenId",
          "type": "uint256"
        }
      ],
      "name": "transferFrom",
      "outputs": [],
      "stateMutability": "payable",
      "type": "function"
    },
    {
      "inputs": [
        {
          "internalType": "address",
          "name": "newOwner",
          "type": "address"
        }
      ],
      "name": "transferOwnership",
      "outputs": [],
      "stateMutability": "nonpayable",
      "type": "function"
    },
    {
      "inputs": [
        {
          "internalType": "address",
          "name": "",
          "type": "address"
        }
      ],
      "name": "usedAddresses",
      "outputs": [
        {
          "internalType": "uint256",
          "name": "",
          "type": "uint256"
        }
      ],
      "stateMutability": "view",
      "type": "function"
    },
    {
      "inputs": [],
      "name": "whiteListMaxMints",
      "outputs": [
        {
          "internalType": "uint256",
          "name": "",
          "type": "uint256"
        }
      ],
      "stateMutability": "view",
      "type": "function"
    },
    {
      "inputs": [
        {
          "internalType": "uint256",
          "name": "quantity",
          "type": "uint256"
        },
        {
          "internalType": "bytes32[]",
          "name": "proof",
          "type": "bytes32[]"
        }
      ],
      "name": "whiteListMint",
      "outputs": [],
      "stateMutability": "payable",
      "type": "function"
    },
    {
      "inputs": [
        {
          "internalType": "address",
          "name": "",
          "type": "address"
        }
      ],
      "name": "whiteListUsedAddresses",
      "outputs": [
        {
          "internalType": "uint256",
          "name": "",
          "type": "uint256"
        }
      ],
      "stateMutability": "view",
      "type": "function"
    },
    {
      "inputs": [],
      "name": "whitelistMintRate",
      "outputs": [
        {
          "internalType": "uint256",
          "name": "",
          "type": "uint256"
        }
      ],
      "stateMutability": "view",
      "type": "function"
    },
    {
      "inputs": [],
      "name": "whitelistSale",
      "outputs": [
        {
          "internalType": "bool",
          "name": "",
          "type": "bool"
        }
      ],
      "stateMutability": "view",
      "type": "function"
    },
    {
      "inputs": [],
      "name": "withdraw",
      "outputs": [],
      "stateMutability": "nonpayable",
      "type": "function"
    }
  ],
  "bytecode": "0x60806040526005600b556002600c55611a0a600d5566670758aa7c8000600e5566670758aa7c8000600f556040518060400160405280600681526020017f2f2e6a736f6e00000000000000000000000000000000000000000000000000008152506010908051906020019062000077929190620002de565b5060405180602001604052806000815250601190805190602001906200009f929190620002de565b506040518060200160405280600081525060129080519060200190620000c7929190620002de565b506000601360006101000a81548160ff0219169083151502179055506000601360016101000a81548160ff0219169083151502179055506000601360026101000a81548160ff0219169083151502179055503480156200012657600080fd5b506040518060400160405280600f81526020017f4b6974737564656e466f78466f6e6500000000000000000000000000000000008152506040518060400160405280600581526020017f4b534446460000000000000000000000000000000000000000000000000000008152508160029080519060200190620001ab929190620002de565b508060039080519060200190620001c4929190620002de565b50620001d56200020b60201b60201c565b6000819055505050600160088190555062000205620001f96200021060201b60201c565b6200021860201b60201c565b620003f3565b600090565b600033905090565b6000600960009054906101000a900473ffffffffffffffffffffffffffffffffffffffff16905081600960006101000a81548173ffffffffffffffffffffffffffffffffffffffff021916908373ffffffffffffffffffffffffffffffffffffffff1602179055508173ffffffffffffffffffffffffffffffffffffffff168173ffffffffffffffffffffffffffffffffffffffff167f8be0079c531659141344cd1fd0a4f28419497f9722a3daafe3b4186f6b6457e060405160405180910390a35050565b828054620002ec90620003bd565b90600052602060002090601f0160209004810192826200031057600085556200035c565b82601f106200032b57805160ff19168380011785556200035c565b828001600101855582156200035c579182015b828111156200035b5782518255916020019190600101906200033e565b5b5090506200036b91906200036f565b5090565b5b808211156200038a57600081600090555060010162000370565b5090565b7f4e487b7100000000000000000000000000000000000000000000000000000000600052602260045260246000fd5b60006002820490506001821680620003d657607f821691505b60208210811415620003ed57620003ec6200038e565b5b50919050565b61385380620004036000396000f3fe60806040526004361061023b5760003560e01c806370a082311161012e578063b6b6f0c3116100ab578063d5abeb011161006f578063d5abeb0114610801578063e222c7f91461082c578063e985e9c514610843578063ee5735a814610880578063f2fde38b146108ab5761023b565b8063b6b6f0c314610727578063b88d4fde14610752578063c66828621461076e578063c87b56dd14610799578063ca0dcf16146107d65761023b565b806395d89b41116100f257806395d89b411461064f57806399f19cea1461067a578063a0712d68146106a5578063a22cb465146106c1578063acdce273146106ea5761023b565b806370a082311461057c578063715018a6146105b95780637cb64759146105d05780638da5cb5b146105f95780638fe11a97146106245761023b565b80632eb4a7ab116101bc578063518302271161018057806351830227146104a957806355f804b3146104d457806359eda1b5146104fd5780636352211e146105145780636c0360eb146105515761023b565b80632eb4a7ab146103f557806331ffd6f11461042057806333bc1c5c1461044b5780633ccfd60b1461047657806342842e0e1461048d5761023b565b80631342ff4c116102035780631342ff4c1461031d57806313bfabc01461034657806318160ddd1461038357806323b872dd146103ae5780632e809ec1146103ca5761023b565b806301ffc9a71461024057806306fdde031461027d578063081812fc146102a8578063095ea7b3146102e55780631187687514610301575b600080fd5b34801561024c57600080fd5b5061026760048036038101906102629190612989565b6108d4565b60405161027491906129d1565b60405180910390f35b34801561028957600080fd5b50610292610966565b60405161029f9190612a85565b60405180910390f35b3480156102b457600080fd5b506102cf60048036038101906102ca9190612add565b6109f8565b6040516102dc9190612b4b565b60405180910390f35b6102ff60048036038101906102fa9190612b92565b610a77565b005b61031b60048036038101906103169190612c37565b610bbb565b005b34801561032957600080fd5b50610344600480360381019061033f9190612add565b610e17565b005b34801561035257600080fd5b5061036d60048036038101906103689190612c97565b610e7a565b60405161037a9190612cd3565b60405180910390f35b34801561038f57600080fd5b50610398610e92565b6040516103a59190612cd3565b60405180910390f35b6103c860048036038101906103c39190612cee565b610ea9565b005b3480156103d657600080fd5b506103df6111ce565b6040516103ec9190612cd3565b60405180910390f35b34801561040157600080fd5b5061040a6111d4565b6040516104179190612d5a565b60405180910390f35b34801561042c57600080fd5b506104356111da565b60405161044291906129d1565b60405180910390f35b34801561045757600080fd5b506104606111ed565b60405161046d91906129d1565b60405180910390f35b34801561048257600080fd5b5061048b611200565b005b6104a760048036038101906104a29190612cee565b611258565b005b3480156104b557600080fd5b506104be611278565b6040516104cb91906129d1565b60405180910390f35b3480156104e057600080fd5b506104fb60048036038101906104f69190612ea5565b61128b565b005b34801561050957600080fd5b50610512611318565b005b34801561052057600080fd5b5061053b60048036038101906105369190612add565b61134c565b6040516105489190612b4b565b60405180910390f35b34801561055d57600080fd5b5061056661135e565b6040516105739190612a85565b60405180910390f35b34801561058857600080fd5b506105a3600480360381019061059e9190612c97565b6113ec565b6040516105b09190612cd3565b60405180910390f35b3480156105c557600080fd5b506105ce6114a5565b005b3480156105dc57600080fd5b506105f760048036038101906105f29190612f1a565b6114b9565b005b34801561060557600080fd5b5061060e6114cb565b60405161061b9190612b4b565b60405180910390f35b34801561063057600080fd5b506106396114f5565b6040516106469190612a85565b60405180910390f35b34801561065b57600080fd5b50610664611583565b6040516106719190612a85565b60405180910390f35b34801561068657600080fd5b5061068f611615565b60405161069c9190612cd3565b60405180910390f35b6106bf60048036038101906106ba9190612add565b6116f1565b005b3480156106cd57600080fd5b506106e860048036038101906106e39190612f73565b61191d565b005b3480156106f657600080fd5b50610711600480360381019061070c9190612c97565b611a28565b60405161071e9190612cd3565b60405180910390f35b34801561073357600080fd5b5061073c611a40565b6040516107499190612cd3565b60405180910390f35b61076c60048036038101906107679190613054565b611a46565b005b34801561077a57600080fd5b50610783611ab9565b6040516107909190612a85565b60405180910390f35b3480156107a557600080fd5b506107c060048036038101906107bb9190612add565b611b47565b6040516107cd9190612a85565b60405180910390f35b3480156107e257600080fd5b506107eb611c66565b6040516107f89190612cd3565b60405180910390f35b34801561080d57600080fd5b50610816611c6c565b6040516108239190612cd3565b60405180910390f35b34801561083857600080fd5b50610841611c72565b005b34801561084f57600080fd5b5061086a600480360381019061086591906130d7565b611ca6565b60405161087791906129d1565b60405180910390f35b34801561088c57600080fd5b50610895611d3a565b6040516108a29190612cd3565b60405180910390f35b3480156108b757600080fd5b506108d260048036038101906108cd9190612c97565b611d40565b005b60006301ffc9a760e01b827bffffffffffffffffffffffffffffffffffffffffffffffffffffffff1916148061092f57506380ac58cd60e01b827bffffffffffffffffffffffffffffffffffffffffffffffffffffffff1916145b8061095f5750635b5e139f60e01b827bffffffffffffffffffffffffffffffffffffffffffffffffffffffff1916145b9050919050565b60606002805461097590613146565b80601f01602080910402602001604051908101604052809291908181526020018280546109a190613146565b80156109ee5780601f106109c3576101008083540402835291602001916109ee565b820191906000526020600020905b8154815290600101906020018083116109d157829003601f168201915b5050505050905090565b6000610a0382611dc4565b610a39576040517fcf4700e400000000000000000000000000000000000000000000000000000000815260040160405180910390fd5b6006600083815260200190815260200160002060000160009054906101000a900473ffffffffffffffffffffffffffffffffffffffff169050919050565b6000610a828261134c565b90508073ffffffffffffffffffffffffffffffffffffffff16610aa3611e23565b73ffffffffffffffffffffffffffffffffffffffff1614610b0657610acf81610aca611e23565b611ca6565b610b05576040517fcfb3b94200000000000000000000000000000000000000000000000000000000815260040160405180910390fd5b5b826006600084815260200190815260200160002060000160006101000a81548173ffffffffffffffffffffffffffffffffffffffff021916908373ffffffffffffffffffffffffffffffffffffffff160217905550818373ffffffffffffffffffffffffffffffffffffffff168273ffffffffffffffffffffffffffffffffffffffff167f8c5be1e5ebec7d5bd14f71427d1e84f3dd0314c0f7b2291e5b200ac8c7c3b92560405160405180910390a4505050565b60026008541415610c01576040517f08c379a0000000000000000000000000000000000000000000000000000000008152600401610bf8906131c4565b60405180910390fd5b6002600881905550601360029054906101000a900460ff16610c4f576040517f1e94bf2d00000000000000000000000000000000000000000000000000000000815260040160405180910390fd5b610c5a338383611e2b565b610c90576040517f3f1636e200000000000000000000000000000000000000000000000000000000815260040160405180910390fd5b600d5483610c9c610e92565b610ca69190613213565b1115610cde576040517f76592c6f00000000000000000000000000000000000000000000000000000000815260040160405180910390fd5b3483600f54610ced9190613269565b14610d24576040517fb457f15800000000000000000000000000000000000000000000000000000000815260040160405180910390fd5b600c5483601460003373ffffffffffffffffffffffffffffffffffffffff1673ffffffffffffffffffffffffffffffffffffffff16815260200190815260200160002054610d729190613213565b1115610daa576040517f38d8b70c00000000000000000000000000000000000000000000000000000000815260040160405180910390fd5b82601460003373ffffffffffffffffffffffffffffffffffffffff1673ffffffffffffffffffffffffffffffffffffffff1681526020019081526020016000206000828254610df99190613213565b92505081905550610e0a3384611e89565b6001600881905550505050565b610e1f612046565b600d5481610e2b610e92565b610e359190613213565b1115610e6d576040517f76592c6f00000000000000000000000000000000000000000000000000000000815260040160405180910390fd5b610e773382611e89565b50565b60146020528060005260406000206000915090505481565b6000610e9c6120c4565b6001546000540303905090565b6000610eb4826120c9565b90508373ffffffffffffffffffffffffffffffffffffffff168173ffffffffffffffffffffffffffffffffffffffff1614610f1b576040517fa114810000000000000000000000000000000000000000000000000000000000815260040160405180910390fd5b600080610f2784612197565b91509150610f3d8187610f38611e23565b6121be565b610f8957610f5286610f4d611e23565b611ca6565b610f88576040517f59c896be00000000000000000000000000000000000000000000000000000000815260040160405180910390fd5b5b600073ffffffffffffffffffffffffffffffffffffffff168573ffffffffffffffffffffffffffffffffffffffff161415610ff0576040517fea553b3400000000000000000000000000000000000000000000000000000000815260040160405180910390fd5b610ffd8686866001612202565b801561100857600082555b600560008773ffffffffffffffffffffffffffffffffffffffff1673ffffffffffffffffffffffffffffffffffffffff168152602001908152602001600020600081546001900391905081905550600560008673ffffffffffffffffffffffffffffffffffffffff1673ffffffffffffffffffffffffffffffffffffffff16815260200190815260200160002060008154600101919050819055506110d6856110b2888887612208565b7c020000000000000000000000000000000000000000000000000000000017612230565b600460008681526020019081526020016000208190555060007c02000000000000000000000000000000000000000000000000000000008416141561115e57600060018501905060006004600083815260200190815260200160002054141561115c57600054811461115b578360046000838152602001908152602001600020819055505b5b505b838573ffffffffffffffffffffffffffffffffffffffff168773ffffffffffffffffffffffffffffffffffffffff167fddf252ad1be2c89b69c2b068fc378daa952ba7f163c4a11628f55a4df523b3ef60405160405180910390a46111c6868686600161225b565b505050505050565b600f5481565b600a5481565b601360029054906101000a900460ff1681565b601360019054906101000a900460ff1681565b611208612046565b6112106114cb565b73ffffffffffffffffffffffffffffffffffffffff166108fc479081150290604051600060405180830381858888f19350505050158015611255573d6000803e3d6000fd5b50565b61127383838360405180602001604052806000815250611a46565b505050565b601360009054906101000a900460ff1681565b611293612046565b601360009054906101000a900460ff16156112e3576040517f08c379a00000000000000000000000000000000000000000000000000000000081526004016112da9061330f565b60405180910390fd5b6001601360006101000a81548160ff021916908315150217905550806011908051906020019061131492919061287a565b5050565b611320612046565b601360029054906101000a900460ff1615601360026101000a81548160ff021916908315150217905550565b6000611357826120c9565b9050919050565b6011805461136b90613146565b80601f016020809104026020016040519081016040528092919081815260200182805461139790613146565b80156113e45780601f106113b9576101008083540402835291602001916113e4565b820191906000526020600020905b8154815290600101906020018083116113c757829003601f168201915b505050505081565b60008073ffffffffffffffffffffffffffffffffffffffff168273ffffffffffffffffffffffffffffffffffffffff161415611454576040517f8f4eb60400000000000000000000000000000000000000000000000000000000815260040160405180910390fd5b67ffffffffffffffff600560008473ffffffffffffffffffffffffffffffffffffffff1673ffffffffffffffffffffffffffffffffffffffff16815260200190815260200160002054169050919050565b6114ad612046565b6114b76000612261565b565b6114c1612046565b80600a8190555050565b6000600960009054906101000a900473ffffffffffffffffffffffffffffffffffffffff16905090565b6012805461150290613146565b80601f016020809104026020016040519081016040528092919081815260200182805461152e90613146565b801561157b5780601f106115505761010080835404028352916020019161157b565b820191906000526020600020905b81548152906001019060200180831161155e57829003601f168201915b505050505081565b60606003805461159290613146565b80601f01602080910402602001604051908101604052809291908181526020018280546115be90613146565b801561160b5780601f106115e05761010080835404028352916020019161160b565b820191906000526020600020905b8154815290600101906020018083116115ee57829003601f168201915b5050505050905090565b6000601360029054906101000a900460ff161561168057601460003373ffffffffffffffffffffffffffffffffffffffff1673ffffffffffffffffffffffffffffffffffffffff16815260200190815260200160002054600c54611679919061332f565b90506116ee565b601360019054906101000a900460ff16156116e957601560003373ffffffffffffffffffffffffffffffffffffffff1673ffffffffffffffffffffffffffffffffffffffff16815260200190815260200160002054600b546116e2919061332f565b90506116ee565b600090505b90565b60026008541415611737576040517f08c379a000000000000000000000000000000000000000000000000000000000815260040161172e906131c4565b60405180910390fd5b6002600881905550601360019054906101000a900460ff16611785576040517fa9f4f87100000000000000000000000000000000000000000000000000000000815260040160405180910390fd5b600d5481611791610e92565b61179b9190613213565b11156117d3576040517f76592c6f00000000000000000000000000000000000000000000000000000000815260040160405180910390fd5b3481600e546117e29190613269565b14611819576040517fb457f15800000000000000000000000000000000000000000000000000000000815260040160405180910390fd5b600b54601560003373ffffffffffffffffffffffffffffffffffffffff1673ffffffffffffffffffffffffffffffffffffffff1681526020019081526020016000205461186533612327565b836118709190613213565b61187a919061332f565b11156118b2576040517f38d8b70c00000000000000000000000000000000000000000000000000000000815260040160405180910390fd5b80601560003373ffffffffffffffffffffffffffffffffffffffff1673ffffffffffffffffffffffffffffffffffffffff16815260200190815260200160002060008282546119019190613213565b925050819055506119123382611e89565b600160088190555050565b806007600061192a611e23565b73ffffffffffffffffffffffffffffffffffffffff1673ffffffffffffffffffffffffffffffffffffffff16815260200190815260200160002060008473ffffffffffffffffffffffffffffffffffffffff1673ffffffffffffffffffffffffffffffffffffffff16815260200190815260200160002060006101000a81548160ff0219169083151502179055508173ffffffffffffffffffffffffffffffffffffffff166119d7611e23565b73ffffffffffffffffffffffffffffffffffffffff167f17307eab39ab6107e8899845ad3d59bd9653f200f220920489ca2b5937696c3183604051611a1c91906129d1565b60405180910390a35050565b60156020528060005260406000206000915090505481565b600b5481565b611a51848484610ea9565b60008373ffffffffffffffffffffffffffffffffffffffff163b14611ab357611a7c8484848461237e565b611ab2576040517fd1a57ed600000000000000000000000000000000000000000000000000000000815260040160405180910390fd5b5b50505050565b60108054611ac690613146565b80601f0160208091040260200160405190810160405280929190818152602001828054611af290613146565b8015611b3f5780601f10611b1457610100808354040283529160200191611b3f565b820191906000526020600020905b815481529060010190602001808311611b2257829003601f168201915b505050505081565b6060611b5282611dc4565b611b91576040517f08c379a0000000000000000000000000000000000000000000000000000000008152600401611b88906133af565b60405180910390fd5b601360009054906101000a900460ff16611c05576000611baf6124de565b90506000815111611bcf5760405180602001604052806000815250611bfd565b80611bd984612570565b6010604051602001611bed9392919061349f565b6040516020818303038152906040525b915050611c61565b6000611c0f6126d1565b90506000815111611c2f5760405180602001604052806000815250611c5d565b80611c3984612570565b6010604051602001611c4d9392919061349f565b6040516020818303038152906040525b9150505b919050565b600e5481565b600d5481565b611c7a612046565b601360019054906101000a900460ff1615601360016101000a81548160ff021916908315150217905550565b6000600760008473ffffffffffffffffffffffffffffffffffffffff1673ffffffffffffffffffffffffffffffffffffffff16815260200190815260200160002060008373ffffffffffffffffffffffffffffffffffffffff1673ffffffffffffffffffffffffffffffffffffffff16815260200190815260200160002060009054906101000a900460ff16905092915050565b600c5481565b611d48612046565b600073ffffffffffffffffffffffffffffffffffffffff168173ffffffffffffffffffffffffffffffffffffffff161415611db8576040517f08c379a0000000000000000000000000000000000000000000000000000000008152600401611daf90613542565b60405180910390fd5b611dc181612261565b50565b600081611dcf6120c4565b11158015611dde575060005482105b8015611e1c575060007c0100000000000000000000000000000000000000000000000000000000600460008581526020019081526020016000205416145b9050919050565b600033905090565b6000611e80611e3985612763565b848480806020026020016040519081016040528093929190818152602001838360200280828437600081840152601f19601f82011690508083019250505050505050612793565b90509392505050565b6000805490506000821415611eca576040517fb562e8dd00000000000000000000000000000000000000000000000000000000815260040160405180910390fd5b611ed76000848385612202565b600160406001901b178202600560008573ffffffffffffffffffffffffffffffffffffffff1673ffffffffffffffffffffffffffffffffffffffff16815260200190815260200160002060008282540192505081905550611f4e83611f3f6000866000612208565b611f48856127aa565b17612230565b6004600083815260200190815260200160002081905550600080838301905073ffffffffffffffffffffffffffffffffffffffff85169150828260007fddf252ad1be2c89b69c2b068fc378daa952ba7f163c4a11628f55a4df523b3ef600080a4600183015b818114611fef57808360007fddf252ad1be2c89b69c2b068fc378daa952ba7f163c4a11628f55a4df523b3ef600080a4600181019050611fb4565b50600082141561202b576040517f2e07630000000000000000000000000000000000000000000000000000000000815260040160405180910390fd5b806000819055505050612041600084838561225b565b505050565b61204e6127ba565b73ffffffffffffffffffffffffffffffffffffffff1661206c6114cb565b73ffffffffffffffffffffffffffffffffffffffff16146120c2576040517f08c379a00000000000000000000000000000000000000000000000000000000081526004016120b9906135ae565b60405180910390fd5b565b600090565b600080829050806120d86120c4565b116121605760005481101561215f5760006004600083815260200190815260200160002054905060007c01000000000000000000000000000000000000000000000000000000008216141561215d575b6000811415612153576004600083600190039350838152602001908152602001600020549050612128565b8092505050612192565b505b5b6040517fdf2d9b4200000000000000000000000000000000000000000000000000000000815260040160405180910390fd5b919050565b60008060006006600085815260200190815260200160002090508092508254915050915091565b600073ffffffffffffffffffffffffffffffffffffffff8316925073ffffffffffffffffffffffffffffffffffffffff821691508382148383141790509392505050565b50505050565b60008060e883901c905060e861221f8686846127c2565b62ffffff16901b9150509392505050565b600073ffffffffffffffffffffffffffffffffffffffff83169250814260a01b178317905092915050565b50505050565b6000600960009054906101000a900473ffffffffffffffffffffffffffffffffffffffff16905081600960006101000a81548173ffffffffffffffffffffffffffffffffffffffff021916908373ffffffffffffffffffffffffffffffffffffffff1602179055508173ffffffffffffffffffffffffffffffffffffffff168173ffffffffffffffffffffffffffffffffffffffff167f8be0079c531659141344cd1fd0a4f28419497f9722a3daafe3b4186f6b6457e060405160405180910390a35050565b600067ffffffffffffffff6040600560008573ffffffffffffffffffffffffffffffffffffffff1673ffffffffffffffffffffffffffffffffffffffff16815260200190815260200160002054901c169050919050565b60008373ffffffffffffffffffffffffffffffffffffffff1663150b7a026123a4611e23565b8786866040518563ffffffff1660e01b81526004016123c69493929190613623565b602060405180830381600087803b1580156123e057600080fd5b505af192505050801561241157506040513d601f19601f8201168201806040525081019061240e9190613684565b60015b61248b573d8060008114612441576040519150601f19603f3d011682016040523d82523d6000602084013e612446565b606091505b50600081511415612483576040517fd1a57ed600000000000000000000000000000000000000000000000000000000815260040160405180910390fd5b805181602001fd5b63150b7a0260e01b7bffffffffffffffffffffffffffffffffffffffffffffffffffffffff1916817bffffffffffffffffffffffffffffffffffffffffffffffffffffffff191614915050949350505050565b6060601280546124ed90613146565b80601f016020809104026020016040519081016040528092919081815260200182805461251990613146565b80156125665780601f1061253b57610100808354040283529160200191612566565b820191906000526020600020905b81548152906001019060200180831161254957829003601f168201915b5050505050905090565b606060008214156125b8576040518060400160405280600181526020017f300000000000000000000000000000000000000000000000000000000000000081525090506126cc565b600082905060005b600082146125ea5780806125d3906136b1565b915050600a826125e39190613729565b91506125c0565b60008167ffffffffffffffff81111561260657612605612d7a565b5b6040519080825280601f01601f1916602001820160405280156126385781602001600182028036833780820191505090505b5090505b600085146126c557600182612651919061332f565b9150600a85612660919061375a565b603061266c9190613213565b60f81b8183815181106126825761268161378b565b5b60200101907effffffffffffffffffffffffffffffffffffffffffffffffffffffffffffff1916908160001a905350600a856126be9190613729565b945061263c565b8093505050505b919050565b6060601180546126e090613146565b80601f016020809104026020016040519081016040528092919081815260200182805461270c90613146565b80156127595780601f1061272e57610100808354040283529160200191612759565b820191906000526020600020905b81548152906001019060200180831161273c57829003601f168201915b5050505050905090565b6000816040516020016127769190613802565b604051602081830303815290604052805190602001209050919050565b60006127a282600a54856127cb565b905092915050565b60006001821460e11b9050919050565b600033905090565b60009392505050565b6000826127d885846127e2565b1490509392505050565b60008082905060005b845181101561282d576128188286838151811061280b5761280a61378b565b5b6020026020010151612838565b91508080612825906136b1565b9150506127eb565b508091505092915050565b60008183106128505761284b8284612863565b61285b565b61285a8383612863565b5b905092915050565b600082600052816020526040600020905092915050565b82805461288690613146565b90600052602060002090601f0160209004810192826128a857600085556128ef565b82601f106128c157805160ff19168380011785556128ef565b828001600101855582156128ef579182015b828111156128ee5782518255916020019190600101906128d3565b5b5090506128fc9190612900565b5090565b5b80821115612919576000816000905550600101612901565b5090565b6000604051905090565b600080fd5b600080fd5b60007fffffffff0000000000000000000000000000000000000000000000000000000082169050919050565b61296681612931565b811461297157600080fd5b50565b6000813590506129838161295d565b92915050565b60006020828403121561299f5761299e612927565b5b60006129ad84828501612974565b91505092915050565b60008115159050919050565b6129cb816129b6565b82525050565b60006020820190506129e660008301846129c2565b92915050565b600081519050919050565b600082825260208201905092915050565b60005b83811015612a26578082015181840152602081019050612a0b565b83811115612a35576000848401525b50505050565b6000601f19601f8301169050919050565b6000612a57826129ec565b612a6181856129f7565b9350612a71818560208601612a08565b612a7a81612a3b565b840191505092915050565b60006020820190508181036000830152612a9f8184612a4c565b905092915050565b6000819050919050565b612aba81612aa7565b8114612ac557600080fd5b50565b600081359050612ad781612ab1565b92915050565b600060208284031215612af357612af2612927565b5b6000612b0184828501612ac8565b91505092915050565b600073ffffffffffffffffffffffffffffffffffffffff82169050919050565b6000612b3582612b0a565b9050919050565b612b4581612b2a565b82525050565b6000602082019050612b606000830184612b3c565b92915050565b612b6f81612b2a565b8114612b7a57600080fd5b50565b600081359050612b8c81612b66565b92915050565b60008060408385031215612ba957612ba8612927565b5b6000612bb785828601612b7d565b9250506020612bc885828601612ac8565b9150509250929050565b600080fd5b600080fd5b600080fd5b60008083601f840112612bf757612bf6612bd2565b5b8235905067ffffffffffffffff811115612c1457612c13612bd7565b5b602083019150836020820283011115612c3057612c2f612bdc565b5b9250929050565b600080600060408486031215612c5057612c4f612927565b5b6000612c5e86828701612ac8565b935050602084013567ffffffffffffffff811115612c7f57612c7e61292c565b5b612c8b86828701612be1565b92509250509250925092565b600060208284031215612cad57612cac612927565b5b6000612cbb84828501612b7d565b91505092915050565b612ccd81612aa7565b82525050565b6000602082019050612ce86000830184612cc4565b92915050565b600080600060608486031215612d0757612d06612927565b5b6000612d1586828701612b7d565b9350506020612d2686828701612b7d565b9250506040612d3786828701612ac8565b9150509250925092565b6000819050919050565b612d5481612d41565b82525050565b6000602082019050612d6f6000830184612d4b565b92915050565b600080fd5b7f4e487b7100000000000000000000000000000000000000000000000000000000600052604160045260246000fd5b612db282612a3b565b810181811067ffffffffffffffff82111715612dd157612dd0612d7a565b5b80604052505050565b6000612de461291d565b9050612df08282612da9565b919050565b600067ffffffffffffffff821115612e1057612e0f612d7a565b5b612e1982612a3b565b9050602081019050919050565b82818337600083830152505050565b6000612e48612e4384612df5565b612dda565b905082815260208101848484011115612e6457612e63612d75565b5b612e6f848285612e26565b509392505050565b600082601f830112612e8c57612e8b612bd2565b5b8135612e9c848260208601612e35565b91505092915050565b600060208284031215612ebb57612eba612927565b5b600082013567ffffffffffffffff811115612ed957612ed861292c565b5b612ee584828501612e77565b91505092915050565b612ef781612d41565b8114612f0257600080fd5b50565b600081359050612f1481612eee565b92915050565b600060208284031215612f3057612f2f612927565b5b6000612f3e84828501612f05565b91505092915050565b612f50816129b6565b8114612f5b57600080fd5b50565b600081359050612f6d81612f47565b92915050565b60008060408385031215612f8a57612f89612927565b5b6000612f9885828601612b7d565b9250506020612fa985828601612f5e565b9150509250929050565b600067ffffffffffffffff821115612fce57612fcd612d7a565b5b612fd782612a3b565b9050602081019050919050565b6000612ff7612ff284612fb3565b612dda565b90508281526020810184848401111561301357613012612d75565b5b61301e848285612e26565b509392505050565b600082601f83011261303b5761303a612bd2565b5b813561304b848260208601612fe4565b91505092915050565b6000806000806080858703121561306e5761306d612927565b5b600061307c87828801612b7d565b945050602061308d87828801612b7d565b935050604061309e87828801612ac8565b925050606085013567ffffffffffffffff8111156130bf576130be61292c565b5b6130cb87828801613026565b91505092959194509250565b600080604083850312156130ee576130ed612927565b5b60006130fc85828601612b7d565b925050602061310d85828601612b7d565b9150509250929050565b7f4e487b7100000000000000000000000000000000000000000000000000000000600052602260045260246000fd5b6000600282049050600182168061315e57607f821691505b6020821081141561317257613171613117565b5b50919050565b7f5265656e7472616e637947756172643a207265656e7472616e742063616c6c00600082015250565b60006131ae601f836129f7565b91506131b982613178565b602082019050919050565b600060208201905081810360008301526131dd816131a1565b9050919050565b7f4e487b7100000000000000000000000000000000000000000000000000000000600052601160045260246000fd5b600061321e82612aa7565b915061322983612aa7565b9250827fffffffffffffffffffffffffffffffffffffffffffffffffffffffffffffffff0382111561325e5761325d6131e4565b5b828201905092915050565b600061327482612aa7565b915061327f83612aa7565b9250817fffffffffffffffffffffffffffffffffffffffffffffffffffffffffffffffff04831182151516156132b8576132b76131e4565b5b828202905092915050565b7f596f752063616e206f6e6c79207365742062617365555249206f6e6365210000600082015250565b60006132f9601e836129f7565b9150613304826132c3565b602082019050919050565b60006020820190508181036000830152613328816132ec565b9050919050565b600061333a82612aa7565b915061334583612aa7565b925082821015613358576133576131e4565b5b828203905092915050565b7f746f6b656e20646f6573206e6f74206578697374210000000000000000000000600082015250565b60006133996015836129f7565b91506133a482613363565b602082019050919050565b600060208201905081810360008301526133c88161338c565b9050919050565b600081905092915050565b60006133e5826129ec565b6133ef81856133cf565b93506133ff818560208601612a08565b80840191505092915050565b60008190508160005260206000209050919050565b6000815461342d81613146565b61343781866133cf565b94506001821660008114613452576001811461346357613496565b60ff19831686528186019350613496565b61346c8561340b565b60005b8381101561348e5781548189015260018201915060208101905061346f565b838801955050505b50505092915050565b60006134ab82866133da565b91506134b782856133da565b91506134c38284613420565b9150819050949350505050565b7f4f776e61626c653a206e6577206f776e657220697320746865207a65726f206160008201527f6464726573730000000000000000000000000000000000000000000000000000602082015250565b600061352c6026836129f7565b9150613537826134d0565b604082019050919050565b6000602082019050818103600083015261355b8161351f565b9050919050565b7f4f776e61626c653a2063616c6c6572206973206e6f7420746865206f776e6572600082015250565b60006135986020836129f7565b91506135a382613562565b602082019050919050565b600060208201905081810360008301526135c78161358b565b9050919050565b600081519050919050565b600082825260208201905092915050565b60006135f5826135ce565b6135ff81856135d9565b935061360f818560208601612a08565b61361881612a3b565b840191505092915050565b60006080820190506136386000830187612b3c565b6136456020830186612b3c565b6136526040830185612cc4565b818103606083015261366481846135ea565b905095945050505050565b60008151905061367e8161295d565b92915050565b60006020828403121561369a57613699612927565b5b60006136a88482850161366f565b91505092915050565b60006136bc82612aa7565b91507fffffffffffffffffffffffffffffffffffffffffffffffffffffffffffffffff8214156136ef576136ee6131e4565b5b600182019050919050565b7f4e487b7100000000000000000000000000000000000000000000000000000000600052601260045260246000fd5b600061373482612aa7565b915061373f83612aa7565b92508261374f5761374e6136fa565b5b828204905092915050565b600061376582612aa7565b915061377083612aa7565b9250826137805761377f6136fa565b5b828206905092915050565b7f4e487b7100000000000000000000000000000000000000000000000000000000600052603260045260246000fd5b60008160601b9050919050565b60006137d2826137ba565b9050919050565b60006137e4826137c7565b9050919050565b6137fc6137f782612b2a565b6137d9565b82525050565b600061380e82846137eb565b6014820191508190509291505056fea26469706673582212205b2799ca3075cd54afc2bb9f0c1585ae868a136c741d4e24f8693f7dcdce581b64736f6c63430008090033",
  "linkReferences": {},
  "deployedLinkReferences": {}
}