{
  "_format": "hh-sol-artifact-1",
  "contractName": "KitsudenFoxfone",
  "sourceName": "contracts/KitsudenFoxfone.sol",
  "abi": [
    {
      "inputs": [],
      "stateMutability": "nonpayable",
      "type": "constructor"
    },
    {
      "inputs": [],
      "name": "ApprovalCallerNotOwnerNorApproved",
      "type": "error"
    },
    {
      "inputs": [],
      "name": "ApprovalQueryForNonexistentToken",
      "type": "error"
    },
    {
      "inputs": [],
      "name": "BalanceQueryForZeroAddress",
      "type": "error"
    },
    {
      "inputs": [],
      "name": "ExceededLimit",
      "type": "error"
    },
    {
      "inputs": [],
      "name": "InvalidMerkle",
      "type": "error"
    },
    {
      "inputs": [],
      "name": "MintERC2309QuantityExceedsLimit",
      "type": "error"
    },
    {
      "inputs": [],
      "name": "MintToZeroAddress",
      "type": "error"
    },
    {
      "inputs": [],
      "name": "MintZeroQuantity",
      "type": "error"
    },
    {
      "inputs": [],
      "name": "NotEnoughTokensLeft",
      "type": "error"
    },
    {
      "inputs": [
        {
          "internalType": "address",
          "name": "operator",
          "type": "address"
        }
      ],
      "name": "OperatorNotAllowed",
      "type": "error"
    },
    {
      "inputs": [],
      "name": "OwnerQueryForNonexistentToken",
      "type": "error"
    },
    {
      "inputs": [],
      "name": "OwnershipNotInitializedForExtraData",
      "type": "error"
    },
    {
      "inputs": [],
      "name": "PublicSaleNotLive",
      "type": "error"
    },
    {
      "inputs": [],
      "name": "TransferCallerNotOwnerNorApproved",
      "type": "error"
    },
    {
      "inputs": [],
      "name": "TransferFromIncorrectOwner",
      "type": "error"
    },
    {
      "inputs": [],
      "name": "TransferToNonERC721ReceiverImplementer",
      "type": "error"
    },
    {
      "inputs": [],
      "name": "TransferToZeroAddress",
      "type": "error"
    },
    {
      "inputs": [],
      "name": "URIQueryForNonexistentToken",
      "type": "error"
    },
    {
      "inputs": [],
      "name": "WhitelistNotLive",
      "type": "error"
    },
    {
      "inputs": [],
      "name": "WrongEther",
      "type": "error"
    },
    {
      "anonymous": false,
      "inputs": [
        {
          "indexed": true,
          "internalType": "address",
          "name": "owner",
          "type": "address"
        },
        {
          "indexed": true,
          "internalType": "address",
          "name": "approved",
          "type": "address"
        },
        {
          "indexed": true,
          "internalType": "uint256",
          "name": "tokenId",
          "type": "uint256"
        }
      ],
      "name": "Approval",
      "type": "event"
    },
    {
      "anonymous": false,
      "inputs": [
        {
          "indexed": true,
          "internalType": "address",
          "name": "owner",
          "type": "address"
        },
        {
          "indexed": true,
          "internalType": "address",
          "name": "operator",
          "type": "address"
        },
        {
          "indexed": false,
          "internalType": "bool",
          "name": "approved",
          "type": "bool"
        }
      ],
      "name": "ApprovalForAll",
      "type": "event"
    },
    {
      "anonymous": false,
      "inputs": [
        {
          "indexed": true,
          "internalType": "uint256",
          "name": "fromTokenId",
          "type": "uint256"
        },
        {
          "indexed": false,
          "internalType": "uint256",
          "name": "toTokenId",
          "type": "uint256"
        },
        {
          "indexed": true,
          "internalType": "address",
          "name": "from",
          "type": "address"
        },
        {
          "indexed": true,
          "internalType": "address",
          "name": "to",
          "type": "address"
        }
      ],
      "name": "ConsecutiveTransfer",
      "type": "event"
    },
    {
      "anonymous": false,
      "inputs": [
        {
          "indexed": true,
          "internalType": "address",
          "name": "previousOwner",
          "type": "address"
        },
        {
          "indexed": true,
          "internalType": "address",
          "name": "newOwner",
          "type": "address"
        }
      ],
      "name": "OwnershipTransferred",
      "type": "event"
    },
    {
      "anonymous": false,
      "inputs": [
        {
          "indexed": true,
          "internalType": "address",
          "name": "from",
          "type": "address"
        },
        {
          "indexed": true,
          "internalType": "address",
          "name": "to",
          "type": "address"
        },
        {
          "indexed": true,
          "internalType": "uint256",
          "name": "tokenId",
          "type": "uint256"
        }
      ],
      "name": "Transfer",
      "type": "event"
    },
    {
      "inputs": [
        {
          "internalType": "address",
          "name": "to",
          "type": "address"
        },
        {
          "internalType": "uint256",
          "name": "tokenId",
          "type": "uint256"
        }
      ],
      "name": "approve",
      "outputs": [],
      "stateMutability": "payable",
      "type": "function"
    },
    {
      "inputs": [
        {
          "internalType": "address",
          "name": "owner",
          "type": "address"
        }
      ],
      "name": "balanceOf",
      "outputs": [
        {
          "internalType": "uint256",
          "name": "",
          "type": "uint256"
        }
      ],
      "stateMutability": "view",
      "type": "function"
    },
    {
      "inputs": [],
      "name": "baseExtension",
      "outputs": [
        {
          "internalType": "string",
          "name": "",
          "type": "string"
        }
      ],
      "stateMutability": "view",
      "type": "function"
    },
    {
      "inputs": [],
      "name": "baseHiddenUri",
      "outputs": [
        {
          "internalType": "string",
          "name": "",
          "type": "string"
        }
      ],
      "stateMutability": "view",
      "type": "function"
    },
    {
      "inputs": [],
      "name": "baseURI",
      "outputs": [
        {
          "internalType": "string",
          "name": "",
          "type": "string"
        }
      ],
      "stateMutability": "view",
      "type": "function"
    },
    {
      "inputs": [
        {
          "internalType": "uint256",
          "name": "tokenId",
          "type": "uint256"
        }
      ],
      "name": "getApproved",
      "outputs": [
        {
          "internalType": "address",
          "name": "",
          "type": "address"
        }
      ],
      "stateMutability": "view",
      "type": "function"
    },
    {
      "inputs": [
        {
          "internalType": "address",
          "name": "owner",
          "type": "address"
        },
        {
          "internalType": "address",
          "name": "operator",
          "type": "address"
        }
      ],
      "name": "isApprovedForAll",
      "outputs": [
        {
          "internalType": "bool",
          "name": "",
          "type": "bool"
        }
      ],
      "stateMutability": "view",
      "type": "function"
    },
    {
      "inputs": [],
      "name": "maxMints",
      "outputs": [
        {
          "internalType": "uint256",
          "name": "",
          "type": "uint256"
        }
      ],
      "stateMutability": "view",
      "type": "function"
    },
    {
      "inputs": [],
      "name": "maxSupply",
      "outputs": [
        {
          "internalType": "uint256",
          "name": "",
          "type": "uint256"
        }
      ],
      "stateMutability": "view",
      "type": "function"
    },
    {
      "inputs": [],
      "name": "merkleRoot",
      "outputs": [
        {
          "internalType": "bytes32",
          "name": "",
          "type": "bytes32"
        }
      ],
      "stateMutability": "view",
      "type": "function"
    },
    {
      "inputs": [
        {
          "internalType": "uint256",
          "name": "quantity",
          "type": "uint256"
        }
      ],
      "name": "mint",
      "outputs": [],
      "stateMutability": "payable",
      "type": "function"
    },
    {
      "inputs": [],
      "name": "mintPhase",
      "outputs": [
        {
          "internalType": "uint256",
          "name": "",
          "type": "uint256"
        }
      ],
      "stateMutability": "view",
      "type": "function"
    },
    {
      "inputs": [],
      "name": "mintRate",
      "outputs": [
        {
          "internalType": "uint256",
          "name": "",
          "type": "uint256"
        }
      ],
      "stateMutability": "view",
      "type": "function"
    },
    {
      "inputs": [],
      "name": "name",
      "outputs": [
        {
          "internalType": "string",
          "name": "",
          "type": "string"
        }
      ],
      "stateMutability": "view",
      "type": "function"
    },
    {
      "inputs": [],
      "name": "owner",
      "outputs": [
        {
          "internalType": "address",
          "name": "",
          "type": "address"
        }
      ],
      "stateMutability": "view",
      "type": "function"
    },
    {
      "inputs": [
        {
          "internalType": "uint256",
          "name": "tokenId",
          "type": "uint256"
        }
      ],
      "name": "ownerOf",
      "outputs": [
        {
          "internalType": "address",
          "name": "",
          "type": "address"
        }
      ],
      "stateMutability": "view",
      "type": "function"
    },
    {
      "inputs": [],
      "name": "paused",
      "outputs": [
        {
          "internalType": "bool",
          "name": "",
          "type": "bool"
        }
      ],
      "stateMutability": "view",
      "type": "function"
    },
    {
      "inputs": [],
      "name": "renounceOwnership",
      "outputs": [],
      "stateMutability": "nonpayable",
      "type": "function"
    },
    {
      "inputs": [
        {
          "internalType": "uint256",
          "name": "quantity",
          "type": "uint256"
        }
      ],
      "name": "reserveMint",
      "outputs": [],
      "stateMutability": "nonpayable",
      "type": "function"
    },
    {
      "inputs": [],
      "name": "revealed",
      "outputs": [
        {
          "internalType": "bool",
          "name": "",
          "type": "bool"
        }
      ],
      "stateMutability": "view",
      "type": "function"
    },
    {
      "inputs": [
        {
          "internalType": "uint256",
          "name": "_tokenId",
          "type": "uint256"
        },
        {
          "internalType": "uint256",
          "name": "_salePrice",
          "type": "uint256"
        }
      ],
      "name": "royaltyInfo",
      "outputs": [
        {
          "internalType": "address",
          "name": "",
          "type": "address"
        },
        {
          "internalType": "uint256",
          "name": "",
          "type": "uint256"
        }
      ],
      "stateMutability": "view",
      "type": "function"
    },
    {
      "inputs": [
        {
          "internalType": "address",
          "name": "from",
          "type": "address"
        },
        {
          "internalType": "address",
          "name": "to",
          "type": "address"
        },
        {
          "internalType": "uint256",
          "name": "tokenId",
          "type": "uint256"
        }
      ],
      "name": "safeTransferFrom",
      "outputs": [],
      "stateMutability": "payable",
      "type": "function"
    },
    {
      "inputs": [
        {
          "internalType": "address",
          "name": "from",
          "type": "address"
        },
        {
          "internalType": "address",
          "name": "to",
          "type": "address"
        },
        {
          "internalType": "uint256",
          "name": "tokenId",
          "type": "uint256"
        },
        {
          "internalType": "bytes",
          "name": "data",
          "type": "bytes"
        }
      ],
      "name": "safeTransferFrom",
      "outputs": [],
      "stateMutability": "payable",
      "type": "function"
    },
    {
      "inputs": [
        {
          "internalType": "address",
          "name": "operator",
          "type": "address"
        },
        {
          "internalType": "bool",
          "name": "approved",
          "type": "bool"
        }
      ],
      "name": "setApprovalForAll",
      "outputs": [],
      "stateMutability": "nonpayable",
      "type": "function"
    },
    {
      "inputs": [
        {
          "internalType": "string",
          "name": "_newBaseURI",
          "type": "string"
        }
      ],
      "name": "setBaseURI",
      "outputs": [],
      "stateMutability": "nonpayable",
      "type": "function"
    },
    {
      "inputs": [
        {
          "internalType": "bytes32",
          "name": "_root",
          "type": "bytes32"
        }
      ],
      "name": "setMerkleRoot",
      "outputs": [],
      "stateMutability": "nonpayable",
      "type": "function"
    },
    {
      "inputs": [
        {
          "internalType": "uint256",
          "name": "_phase",
          "type": "uint256"
        }
      ],
      "name": "setMintPhase",
      "outputs": [],
      "stateMutability": "nonpayable",
      "type": "function"
    },
    {
      "inputs": [],
      "name": "setTogglePaused",
      "outputs": [],
      "stateMutability": "nonpayable",
      "type": "function"
    },
    {
      "inputs": [
        {
          "internalType": "string",
          "name": "str",
          "type": "string"
        },
        {
          "internalType": "uint256",
          "name": "startIndex",
          "type": "uint256"
        },
        {
          "internalType": "uint256",
          "name": "endIndex",
          "type": "uint256"
        }
      ],
      "name": "substring",
      "outputs": [
        {
          "internalType": "string",
          "name": "",
          "type": "string"
        }
      ],
      "stateMutability": "pure",
      "type": "function"
    },
    {
      "inputs": [
        {
          "internalType": "bytes4",
          "name": "_interfaceId",
          "type": "bytes4"
        }
      ],
      "name": "supportsInterface",
      "outputs": [
        {
          "internalType": "bool",
          "name": "",
          "type": "bool"
        }
      ],
      "stateMutability": "view",
      "type": "function"
    },
    {
      "inputs": [],
      "name": "symbol",
      "outputs": [
        {
          "internalType": "string",
          "name": "",
          "type": "string"
        }
      ],
      "stateMutability": "view",
      "type": "function"
    },
    {
      "inputs": [
        {
          "internalType": "uint256",
          "name": "_tokenId",
          "type": "uint256"
        }
      ],
      "name": "tokenURI",
      "outputs": [
        {
          "internalType": "string",
          "name": "",
          "type": "string"
        }
      ],
      "stateMutability": "view",
      "type": "function"
    },
    {
      "inputs": [],
      "name": "totalSupply",
      "outputs": [
        {
          "internalType": "uint256",
          "name": "",
          "type": "uint256"
        }
      ],
      "stateMutability": "view",
      "type": "function"
    },
    {
      "inputs": [
        {
          "internalType": "address",
          "name": "from",
          "type": "address"
        },
        {
          "internalType": "address",
          "name": "to",
          "type": "address"
        },
        {
          "internalType": "uint256",
          "name": "tokenId",
          "type": "uint256"
        }
      ],
      "name": "transferFrom",
      "outputs": [],
      "stateMutability": "payable",
      "type": "function"
    },
    {
      "inputs": [
        {
          "internalType": "address",
          "name": "newOwner",
          "type": "address"
        }
      ],
      "name": "transferOwnership",
      "outputs": [],
      "stateMutability": "nonpayable",
      "type": "function"
    },
    {
      "inputs": [
        {
          "internalType": "address",
          "name": "",
          "type": "address"
        }
      ],
      "name": "usedAddresses",
      "outputs": [
        {
          "internalType": "uint256",
          "name": "",
          "type": "uint256"
        }
      ],
      "stateMutability": "view",
      "type": "function"
    },
    {
      "inputs": [],
      "name": "whiteListMaxMints",
      "outputs": [
        {
          "internalType": "uint256",
          "name": "",
          "type": "uint256"
        }
      ],
      "stateMutability": "view",
      "type": "function"
    },
    {
      "inputs": [
        {
          "internalType": "uint256",
          "name": "quantity",
          "type": "uint256"
        },
        {
          "internalType": "bytes32[]",
          "name": "proof",
          "type": "bytes32[]"
        }
      ],
      "name": "whiteListMint",
      "outputs": [],
      "stateMutability": "payable",
      "type": "function"
    },
    {
      "inputs": [
        {
          "internalType": "address",
          "name": "",
          "type": "address"
        }
      ],
      "name": "whiteListUsedAddresses",
      "outputs": [
        {
          "internalType": "uint256",
          "name": "",
          "type": "uint256"
        }
      ],
      "stateMutability": "view",
      "type": "function"
    },
    {
      "inputs": [],
      "name": "withdraw",
      "outputs": [],
      "stateMutability": "nonpayable",
      "type": "function"
    }
  ],
  "bytecode": "0x60806040526005600c556001600d55611a0a600e55666a94d74f430000600f556040518060400160405280600581526020017f2e6a736f6e000000000000000000000000000000000000000000000000000000815250601090805190602001906200006c9291906200069e565b506040518060200160405280600081525060119080519060200190620000949291906200069e565b5060405180608001604052806054815260200162004e326054913960129080519060200190620000c69291906200069e565b506000601460006101000a81548160ff0219169083151502179055506000601460016101000a81548160ff0219169083151502179055503480156200010a57600080fd5b50733cc6cdda760b79bafa08df41ecfa224f810dceb660016040518060400160405280600f81526020017f4b6974737564656e466f78466f6e6500000000000000000000000000000000008152506040518060400160405280600581526020017f4b534446460000000000000000000000000000000000000000000000000000008152508160029080519060200190620001a69291906200069e565b508060039080519060200190620001bf9291906200069e565b50620001d06200041d60201b60201c565b6000819055505050620001f8620001ec6200042260201b60201c565b6200042a60201b60201c565b60006daaeb6d7670e522a718067333cd4e73ffffffffffffffffffffffffffffffffffffffff163b1115620003ed578015620002b3576daaeb6d7670e522a718067333cd4e73ffffffffffffffffffffffffffffffffffffffff16637d3e3dbe30846040518363ffffffff1660e01b81526004016200027992919062000793565b600060405180830381600087803b1580156200029457600080fd5b505af1158015620002a9573d6000803e3d6000fd5b50505050620003ec565b600073ffffffffffffffffffffffffffffffffffffffff168273ffffffffffffffffffffffffffffffffffffffff16146200036d576daaeb6d7670e522a718067333cd4e73ffffffffffffffffffffffffffffffffffffffff1663a0af290330846040518363ffffffff1660e01b81526004016200033392919062000793565b600060405180830381600087803b1580156200034e57600080fd5b505af115801562000363573d6000803e3d6000fd5b50505050620003eb565b6daaeb6d7670e522a718067333cd4e73ffffffffffffffffffffffffffffffffffffffff16634420e486306040518263ffffffff1660e01b8152600401620003b69190620007c0565b600060405180830381600087803b158015620003d157600080fd5b505af1158015620003e6573d6000803e3d6000fd5b505050505b5b5b505062000417731c0c70453c5ed96c7c4ec2ea98c3a99fc1dd27ef6102bc620004f060201b60201c565b6200095d565b600090565b600033905090565b6000600860009054906101000a900473ffffffffffffffffffffffffffffffffffffffff16905081600860006101000a81548173ffffffffffffffffffffffffffffffffffffffff021916908373ffffffffffffffffffffffffffffffffffffffff1602179055508173ffffffffffffffffffffffffffffffffffffffff168173ffffffffffffffffffffffffffffffffffffffff167f8be0079c531659141344cd1fd0a4f28419497f9722a3daafe3b4186f6b6457e060405160405180910390a35050565b620005006200069460201b60201c565b6bffffffffffffffffffffffff16816bffffffffffffffffffffffff16111562000561576040517f08c379a0000000000000000000000000000000000000000000000000000000008152600401620005589062000864565b60405180910390fd5b600073ffffffffffffffffffffffffffffffffffffffff168273ffffffffffffffffffffffffffffffffffffffff161415620005d4576040517f08c379a0000000000000000000000000000000000000000000000000000000008152600401620005cb90620008d6565b60405180910390fd5b60405180604001604052808373ffffffffffffffffffffffffffffffffffffffff168152602001826bffffffffffffffffffffffff16815250600960008201518160000160006101000a81548173ffffffffffffffffffffffffffffffffffffffff021916908373ffffffffffffffffffffffffffffffffffffffff16021790555060208201518160000160146101000a8154816bffffffffffffffffffffffff02191690836bffffffffffffffffffffffff1602179055509050505050565b6000612710905090565b828054620006ac9062000927565b90600052602060002090601f016020900481019282620006d057600085556200071c565b82601f10620006eb57805160ff19168380011785556200071c565b828001600101855582156200071c579182015b828111156200071b578251825591602001919060010190620006fe565b5b5090506200072b91906200072f565b5090565b5b808211156200074a57600081600090555060010162000730565b5090565b600073ffffffffffffffffffffffffffffffffffffffff82169050919050565b60006200077b826200074e565b9050919050565b6200078d816200076e565b82525050565b6000604082019050620007aa600083018562000782565b620007b9602083018462000782565b9392505050565b6000602082019050620007d7600083018462000782565b92915050565b600082825260208201905092915050565b7f455243323938313a20726f79616c7479206665652077696c6c2065786365656460008201527f2073616c65507269636500000000000000000000000000000000000000000000602082015250565b60006200084c602a83620007dd565b91506200085982620007ee565b604082019050919050565b600060208201905081810360008301526200087f816200083d565b9050919050565b7f455243323938313a20696e76616c696420726563656976657200000000000000600082015250565b6000620008be601983620007dd565b9150620008cb8262000886565b602082019050919050565b60006020820190508181036000830152620008f181620008af565b9050919050565b7f4e487b7100000000000000000000000000000000000000000000000000000000600052602260045260246000fd5b600060028204905060018216806200094057607f821691505b60208210811415620009575762000956620008f8565b5b50919050565b6144c5806200096d6000396000f3fe60806040526004361061023b5760003560e01c806370a082311161012e578063b6b6f0c3116100ab578063d5abeb011161006f578063d5abeb0114610838578063e985e9c514610863578063ee5735a8146108a0578063f14a0588146108cb578063f2fde38b146108e25761023b565b8063b6b6f0c31461075e578063b88d4fde14610789578063c6682862146107a5578063c87b56dd146107d0578063ca0dcf161461080d5761023b565b8063943431bf116100f2578063943431bf1461068857806395d89b41146106b1578063a0712d68146106dc578063a22cb465146106f8578063acdce273146107215761023b565b806370a08231146105b5578063715018a6146105f25780637cb64759146106095780638da5cb5b146106325780638fe11a971461065d5761023b565b806323b872dd116101bc578063518302271161018057806351830227146104ce57806355f804b3146104f95780635c975abb146105225780636352211e1461054d5780636c0360eb1461058a5761023b565b806323b872dd146104165780632a55205a146104325780632eb4a7ab146104705780633ccfd60b1461049b57806342842e0e146104b25761023b565b80631342ff4c116102035780631342ff4c1461031d57806313bfabc01461034657806317881cbf1461038357806318160ddd146103ae5780631dcd9b55146103d95761023b565b806301ffc9a71461024057806306fdde031461027d578063081812fc146102a8578063095ea7b3146102e55780631187687514610301575b600080fd5b34801561024c57600080fd5b50610267600480360381019061026291906133a3565b61090b565b60405161027491906133eb565b60405180910390f35b34801561028957600080fd5b5061029261092d565b60405161029f919061349f565b60405180910390f35b3480156102b457600080fd5b506102cf60048036038101906102ca91906134f7565b6109bf565b6040516102dc9190613565565b60405180910390f35b6102ff60048036038101906102fa91906135ac565b610a3e565b005b61031b60048036038101906103169190613651565b610b82565b005b34801561032957600080fd5b50610344600480360381019061033f91906134f7565b610dce565b005b34801561035257600080fd5b5061036d600480360381019061036891906136b1565b610e31565b60405161037a91906136ed565b60405180910390f35b34801561038f57600080fd5b50610398610e49565b6040516103a591906136ed565b60405180910390f35b3480156103ba57600080fd5b506103c3610e4f565b6040516103d091906136ed565b60405180910390f35b3480156103e557600080fd5b5061040060048036038101906103fb9190613838565b610e66565b60405161040d919061349f565b60405180910390f35b610430600480360381019061042b91906138a7565b610f62565b005b34801561043e57600080fd5b50610459600480360381019061045491906138fa565b611163565b60405161046792919061393a565b60405180910390f35b34801561047c57600080fd5b5061048561134e565b604051610492919061397c565b60405180910390f35b3480156104a757600080fd5b506104b0611354565b005b6104cc60048036038101906104c791906138a7565b6113ac565b005b3480156104da57600080fd5b506104e36115ad565b6040516104f091906133eb565b60405180910390f35b34801561050557600080fd5b50610520600480360381019061051b9190613997565b6115c0565b005b34801561052e57600080fd5b50610537611739565b60405161054491906133eb565b60405180910390f35b34801561055957600080fd5b50610574600480360381019061056f91906134f7565b61174c565b6040516105819190613565565b60405180910390f35b34801561059657600080fd5b5061059f61175e565b6040516105ac919061349f565b60405180910390f35b3480156105c157600080fd5b506105dc60048036038101906105d791906136b1565b6117ec565b6040516105e991906136ed565b60405180910390f35b3480156105fe57600080fd5b506106076118a5565b005b34801561061557600080fd5b50610630600480360381019061062b9190613a0c565b6118b9565b005b34801561063e57600080fd5b506106476118cb565b6040516106549190613565565b60405180910390f35b34801561066957600080fd5b506106726118f5565b60405161067f919061349f565b60405180910390f35b34801561069457600080fd5b506106af60048036038101906106aa91906134f7565b611983565b005b3480156106bd57600080fd5b506106c6611995565b6040516106d3919061349f565b60405180910390f35b6106f660048036038101906106f191906134f7565b611a27565b005b34801561070457600080fd5b5061071f600480360381019061071a9190613a65565b611c30565b005b34801561072d57600080fd5b50610748600480360381019061074391906136b1565b611d3b565b60405161075591906136ed565b60405180910390f35b34801561076a57600080fd5b50610773611d53565b60405161078091906136ed565b60405180910390f35b6107a3600480360381019061079e9190613b46565b611d59565b005b3480156107b157600080fd5b506107ba611f5d565b6040516107c7919061349f565b60405180910390f35b3480156107dc57600080fd5b506107f760048036038101906107f291906134f7565b611feb565b604051610804919061349f565b60405180910390f35b34801561081957600080fd5b506108226120b5565b60405161082f91906136ed565b60405180910390f35b34801561084457600080fd5b5061084d6120bb565b60405161085a91906136ed565b60405180910390f35b34801561086f57600080fd5b5061088a60048036038101906108859190613bc9565b6120c1565b60405161089791906133eb565b60405180910390f35b3480156108ac57600080fd5b506108b5612155565b6040516108c291906136ed565b60405180910390f35b3480156108d757600080fd5b506108e061215b565b005b3480156108ee57600080fd5b50610909600480360381019061090491906136b1565b61218f565b005b600061091682612213565b806109265750610925826122a5565b5b9050919050565b60606002805461093c90613c38565b80601f016020809104026020016040519081016040528092919081815260200182805461096890613c38565b80156109b55780601f1061098a576101008083540402835291602001916109b5565b820191906000526020600020905b81548152906001019060200180831161099857829003601f168201915b5050505050905090565b60006109ca8261231f565b610a00576040517fcf4700e400000000000000000000000000000000000000000000000000000000815260040160405180910390fd5b6006600083815260200190815260200160002060000160009054906101000a900473ffffffffffffffffffffffffffffffffffffffff169050919050565b6000610a498261174c565b90508073ffffffffffffffffffffffffffffffffffffffff16610a6a61237e565b73ffffffffffffffffffffffffffffffffffffffff1614610acd57610a9681610a9161237e565b6120c1565b610acc576040517fcfb3b94200000000000000000000000000000000000000000000000000000000815260040160405180910390fd5b5b826006600084815260200190815260200160002060000160006101000a81548173ffffffffffffffffffffffffffffffffffffffff021916908373ffffffffffffffffffffffffffffffffffffffff160217905550818373ffffffffffffffffffffffffffffffffffffffff168273ffffffffffffffffffffffffffffffffffffffff167f8c5be1e5ebec7d5bd14f71427d1e84f3dd0314c0f7b2291e5b200ac8c7c3b92560405160405180910390a4505050565b601460009054906101000a900460ff1615610bd2576040517f08c379a0000000000000000000000000000000000000000000000000000000008152600401610bc990613cb6565b60405180910390fd5b600160135414610c0e576040517f1e94bf2d00000000000000000000000000000000000000000000000000000000815260040160405180910390fd5b610c19338383612386565b610c4f576040517f3f1636e200000000000000000000000000000000000000000000000000000000815260040160405180910390fd5b600e5483610c5b610e4f565b610c659190613d05565b1115610c9d576040517f76592c6f00000000000000000000000000000000000000000000000000000000815260040160405180910390fd5b3483600f54610cac9190613d5b565b14610ce3576040517fb457f15800000000000000000000000000000000000000000000000000000000815260040160405180910390fd5b600d5483601560003373ffffffffffffffffffffffffffffffffffffffff1673ffffffffffffffffffffffffffffffffffffffff16815260200190815260200160002054610d319190613d05565b1115610d69576040517f38d8b70c00000000000000000000000000000000000000000000000000000000815260040160405180910390fd5b82601560003373ffffffffffffffffffffffffffffffffffffffff1673ffffffffffffffffffffffffffffffffffffffff1681526020019081526020016000206000828254610db89190613d05565b92505081905550610dc933846123e4565b505050565b610dd66125a1565b600e5481610de2610e4f565b610dec9190613d05565b1115610e24576040517f76592c6f00000000000000000000000000000000000000000000000000000000815260040160405180910390fd5b610e2e33826123e4565b50565b60156020528060005260406000206000915090505481565b60135481565b6000610e5961261f565b6001546000540303905090565b6060600084905060008484610e7b9190613db5565b67ffffffffffffffff811115610e9457610e9361370d565b5b6040519080825280601f01601f191660200182016040528015610ec65781602001600182028036833780820191505090505b50905060008590505b84811015610f5557828181518110610eea57610ee9613de9565b5b602001015160f81c60f81b828783610f029190613db5565b81518110610f1357610f12613de9565b5b60200101907effffffffffffffffffffffffffffffffffffffffffffffffffffffffffffff1916908160001a9053508080610f4d90613e18565b915050610ecf565b5080925050509392505050565b8260006daaeb6d7670e522a718067333cd4e73ffffffffffffffffffffffffffffffffffffffff163b1115611151573373ffffffffffffffffffffffffffffffffffffffff168173ffffffffffffffffffffffffffffffffffffffff161415610fd557610fd0848484612624565b61115d565b6daaeb6d7670e522a718067333cd4e73ffffffffffffffffffffffffffffffffffffffff1663c617113430336040518363ffffffff1660e01b815260040161101e929190613e61565b60206040518083038186803b15801561103657600080fd5b505afa15801561104a573d6000803e3d6000fd5b505050506040513d601f19601f8201168201806040525081019061106e9190613e9f565b801561110f57506daaeb6d7670e522a718067333cd4e73ffffffffffffffffffffffffffffffffffffffff1663c617113430836040518363ffffffff1660e01b81526004016110be929190613e61565b60206040518083038186803b1580156110d657600080fd5b505afa1580156110ea573d6000803e3d6000fd5b505050506040513d601f19601f8201168201806040525081019061110e9190613e9f565b5b61115057336040517fede71dcc0000000000000000000000000000000000000000000000000000000081526004016111479190613565565b60405180910390fd5b5b61115c848484612624565b5b50505050565b6000806000600a60008681526020019081526020016000206040518060400160405290816000820160009054906101000a900473ffffffffffffffffffffffffffffffffffffffff1673ffffffffffffffffffffffffffffffffffffffff1673ffffffffffffffffffffffffffffffffffffffff1681526020016000820160149054906101000a90046bffffffffffffffffffffffff166bffffffffffffffffffffffff166bffffffffffffffffffffffff16815250509050600073ffffffffffffffffffffffffffffffffffffffff16816000015173ffffffffffffffffffffffffffffffffffffffff1614156112f95760096040518060400160405290816000820160009054906101000a900473ffffffffffffffffffffffffffffffffffffffff1673ffffffffffffffffffffffffffffffffffffffff1673ffffffffffffffffffffffffffffffffffffffff1681526020016000820160149054906101000a90046bffffffffffffffffffffffff166bffffffffffffffffffffffff166bffffffffffffffffffffffff168152505090505b6000611303612949565b6bffffffffffffffffffffffff1682602001516bffffffffffffffffffffffff168661132f9190613d5b565b6113399190613efb565b90508160000151819350935050509250929050565b600b5481565b61135c6125a1565b6113646118cb565b73ffffffffffffffffffffffffffffffffffffffff166108fc479081150290604051600060405180830381858888f193505050501580156113a9573d6000803e3d6000fd5b50565b8260006daaeb6d7670e522a718067333cd4e73ffffffffffffffffffffffffffffffffffffffff163b111561159b573373ffffffffffffffffffffffffffffffffffffffff168173ffffffffffffffffffffffffffffffffffffffff16141561141f5761141a848484612953565b6115a7565b6daaeb6d7670e522a718067333cd4e73ffffffffffffffffffffffffffffffffffffffff1663c617113430336040518363ffffffff1660e01b8152600401611468929190613e61565b60206040518083038186803b15801561148057600080fd5b505afa158015611494573d6000803e3d6000fd5b505050506040513d601f19601f820116820180604052508101906114b89190613e9f565b801561155957506daaeb6d7670e522a718067333cd4e73ffffffffffffffffffffffffffffffffffffffff1663c617113430836040518363ffffffff1660e01b8152600401611508929190613e61565b60206040518083038186803b15801561152057600080fd5b505afa158015611534573d6000803e3d6000fd5b505050506040513d601f19601f820116820180604052508101906115589190613e9f565b5b61159a57336040517fede71dcc0000000000000000000000000000000000000000000000000000000081526004016115919190613565565b60405180910390fd5b5b6115a6848484612953565b5b50505050565b601460019054906101000a900460ff1681565b6115c86125a1565b600181511161160c576040517f08c379a000000000000000000000000000000000000000000000000000000000815260040161160390613f78565b60405180910390fd5b600061161782612973565b905060006116328360018461162c9190613db5565b84610e66565b9050611673816040518060400160405280600181526020017f2f00000000000000000000000000000000000000000000000000000000000000815250612b28565b6116b2576040517f08c379a00000000000000000000000000000000000000000000000000000000081526004016116a99061400a565b60405180910390fd5b601460019054906101000a900460ff1615611702576040517f08c379a00000000000000000000000000000000000000000000000000000000081526004016116f990614076565b60405180910390fd5b6001601460016101000a81548160ff0219169083151502179055508260119080519060200190611733929190613294565b50505050565b601460009054906101000a900460ff1681565b600061175782612b81565b9050919050565b6011805461176b90613c38565b80601f016020809104026020016040519081016040528092919081815260200182805461179790613c38565b80156117e45780601f106117b9576101008083540402835291602001916117e4565b820191906000526020600020905b8154815290600101906020018083116117c757829003601f168201915b505050505081565b60008073ffffffffffffffffffffffffffffffffffffffff168273ffffffffffffffffffffffffffffffffffffffff161415611854576040517f8f4eb60400000000000000000000000000000000000000000000000000000000815260040160405180910390fd5b67ffffffffffffffff600560008473ffffffffffffffffffffffffffffffffffffffff1673ffffffffffffffffffffffffffffffffffffffff16815260200190815260200160002054169050919050565b6118ad6125a1565b6118b76000612c4f565b565b6118c16125a1565b80600b8190555050565b6000600860009054906101000a900473ffffffffffffffffffffffffffffffffffffffff16905090565b6012805461190290613c38565b80601f016020809104026020016040519081016040528092919081815260200182805461192e90613c38565b801561197b5780601f106119505761010080835404028352916020019161197b565b820191906000526020600020905b81548152906001019060200180831161195e57829003601f168201915b505050505081565b61198b6125a1565b8060138190555050565b6060600380546119a490613c38565b80601f01602080910402602001604051908101604052809291908181526020018280546119d090613c38565b8015611a1d5780601f106119f257610100808354040283529160200191611a1d565b820191906000526020600020905b815481529060010190602001808311611a0057829003601f168201915b5050505050905090565b601460009054906101000a900460ff1615611a77576040517f08c379a0000000000000000000000000000000000000000000000000000000008152600401611a6e90613cb6565b60405180910390fd5b600260135414611ab3576040517fa9f4f87100000000000000000000000000000000000000000000000000000000815260040160405180910390fd5b600e5481611abf610e4f565b611ac99190613d05565b1115611b01576040517f76592c6f00000000000000000000000000000000000000000000000000000000815260040160405180910390fd5b3481600f54611b109190613d5b565b14611b47576040517fb457f15800000000000000000000000000000000000000000000000000000000815260040160405180910390fd5b600c54601660003373ffffffffffffffffffffffffffffffffffffffff1673ffffffffffffffffffffffffffffffffffffffff1681526020019081526020016000205482611b959190613d05565b1115611bcd576040517f38d8b70c00000000000000000000000000000000000000000000000000000000815260040160405180910390fd5b80601660003373ffffffffffffffffffffffffffffffffffffffff1673ffffffffffffffffffffffffffffffffffffffff1681526020019081526020016000206000828254611c1c9190613d05565b92505081905550611c2d33826123e4565b50565b8060076000611c3d61237e565b73ffffffffffffffffffffffffffffffffffffffff1673ffffffffffffffffffffffffffffffffffffffff16815260200190815260200160002060008473ffffffffffffffffffffffffffffffffffffffff1673ffffffffffffffffffffffffffffffffffffffff16815260200190815260200160002060006101000a81548160ff0219169083151502179055508173ffffffffffffffffffffffffffffffffffffffff16611cea61237e565b73ffffffffffffffffffffffffffffffffffffffff167f17307eab39ab6107e8899845ad3d59bd9653f200f220920489ca2b5937696c3183604051611d2f91906133eb565b60405180910390a35050565b60166020528060005260406000206000915090505481565b600c5481565b8360006daaeb6d7670e522a718067333cd4e73ffffffffffffffffffffffffffffffffffffffff163b1115611f49573373ffffffffffffffffffffffffffffffffffffffff168173ffffffffffffffffffffffffffffffffffffffff161415611dcd57611dc885858585612d15565b611f56565b6daaeb6d7670e522a718067333cd4e73ffffffffffffffffffffffffffffffffffffffff1663c617113430336040518363ffffffff1660e01b8152600401611e16929190613e61565b60206040518083038186803b158015611e2e57600080fd5b505afa158015611e42573d6000803e3d6000fd5b505050506040513d601f19601f82011682018060405250810190611e669190613e9f565b8015611f0757506daaeb6d7670e522a718067333cd4e73ffffffffffffffffffffffffffffffffffffffff1663c617113430836040518363ffffffff1660e01b8152600401611eb6929190613e61565b60206040518083038186803b158015611ece57600080fd5b505afa158015611ee2573d6000803e3d6000fd5b505050506040513d601f19601f82011682018060405250810190611f069190613e9f565b5b611f4857336040517fede71dcc000000000000000000000000000000000000000000000000000000008152600401611f3f9190613565565b60405180910390fd5b5b611f5585858585612d15565b5b5050505050565b60108054611f6a90613c38565b80601f0160208091040260200160405190810160405280929190818152602001828054611f9690613c38565b8015611fe35780601f10611fb857610100808354040283529160200191611fe3565b820191906000526020600020905b815481529060010190602001808311611fc657829003601f168201915b505050505081565b6060611ff68261231f565b612035576040517f08c379a000000000000000000000000000000000000000000000000000000000815260040161202c906140e2565b60405180910390fd5b601460019054906101000a900460ff161561207f57601161205583612d88565b6010604051602001612069939291906141d2565b60405160208183030381529060405290506120b0565b601261208a83612d88565b601060405160200161209e939291906141d2565b60405160208183030381529060405290505b919050565b600f5481565b600e5481565b6000600760008473ffffffffffffffffffffffffffffffffffffffff1673ffffffffffffffffffffffffffffffffffffffff16815260200190815260200160002060008373ffffffffffffffffffffffffffffffffffffffff1673ffffffffffffffffffffffffffffffffffffffff16815260200190815260200160002060009054906101000a900460ff16905092915050565b600d5481565b6121636125a1565b601460009054906101000a900460ff1615601460006101000a81548160ff021916908315150217905550565b6121976125a1565b600073ffffffffffffffffffffffffffffffffffffffff168173ffffffffffffffffffffffffffffffffffffffff161415612207576040517f08c379a00000000000000000000000000000000000000000000000000000000081526004016121fe90614275565b60405180910390fd5b61221081612c4f565b50565b60006301ffc9a760e01b827bffffffffffffffffffffffffffffffffffffffffffffffffffffffff1916148061226e57506380ac58cd60e01b827bffffffffffffffffffffffffffffffffffffffffffffffffffffffff1916145b8061229e5750635b5e139f60e01b827bffffffffffffffffffffffffffffffffffffffffffffffffffffffff1916145b9050919050565b60007f2a55205a000000000000000000000000000000000000000000000000000000007bffffffffffffffffffffffffffffffffffffffffffffffffffffffff1916827bffffffffffffffffffffffffffffffffffffffffffffffffffffffff19161480612318575061231782612ee9565b5b9050919050565b60008161232a61261f565b11158015612339575060005482105b8015612377575060007c0100000000000000000000000000000000000000000000000000000000600460008581526020019081526020016000205416145b9050919050565b600033905090565b60006123db61239485612f53565b848480806020026020016040519081016040528093929190818152602001838360200280828437600081840152601f19601f82011690508083019250505050505050612f83565b90509392505050565b6000805490506000821415612425576040517fb562e8dd00000000000000000000000000000000000000000000000000000000815260040160405180910390fd5b6124326000848385612f9a565b600160406001901b178202600560008573ffffffffffffffffffffffffffffffffffffffff1673ffffffffffffffffffffffffffffffffffffffff168152602001908152602001600020600082825401925050819055506124a98361249a6000866000612fa0565b6124a385612fc8565b17612fd8565b6004600083815260200190815260200160002081905550600080838301905073ffffffffffffffffffffffffffffffffffffffff85169150828260007fddf252ad1be2c89b69c2b068fc378daa952ba7f163c4a11628f55a4df523b3ef600080a4600183015b81811461254a57808360007fddf252ad1be2c89b69c2b068fc378daa952ba7f163c4a11628f55a4df523b3ef600080a460018101905061250f565b506000821415612586576040517f2e07630000000000000000000000000000000000000000000000000000000000815260040160405180910390fd5b80600081905550505061259c6000848385613003565b505050565b6125a9613009565b73ffffffffffffffffffffffffffffffffffffffff166125c76118cb565b73ffffffffffffffffffffffffffffffffffffffff161461261d576040517f08c379a0000000000000000000000000000000000000000000000000000000008152600401612614906142e1565b60405180910390fd5b565b600090565b600061262f82612b81565b90508373ffffffffffffffffffffffffffffffffffffffff168173ffffffffffffffffffffffffffffffffffffffff1614612696576040517fa114810000000000000000000000000000000000000000000000000000000000815260040160405180910390fd5b6000806126a284613011565b915091506126b881876126b361237e565b613038565b612704576126cd866126c861237e565b6120c1565b612703576040517f59c896be00000000000000000000000000000000000000000000000000000000815260040160405180910390fd5b5b600073ffffffffffffffffffffffffffffffffffffffff168573ffffffffffffffffffffffffffffffffffffffff16141561276b576040517fea553b3400000000000000000000000000000000000000000000000000000000815260040160405180910390fd5b6127788686866001612f9a565b801561278357600082555b600560008773ffffffffffffffffffffffffffffffffffffffff1673ffffffffffffffffffffffffffffffffffffffff168152602001908152602001600020600081546001900391905081905550600560008673ffffffffffffffffffffffffffffffffffffffff1673ffffffffffffffffffffffffffffffffffffffff16815260200190815260200160002060008154600101919050819055506128518561282d888887612fa0565b7c020000000000000000000000000000000000000000000000000000000017612fd8565b600460008681526020019081526020016000208190555060007c0200000000000000000000000000000000000000000000000000000000841614156128d95760006001850190506000600460008381526020019081526020016000205414156128d75760005481146128d6578360046000838152602001908152602001600020819055505b5b505b838573ffffffffffffffffffffffffffffffffffffffff168773ffffffffffffffffffffffffffffffffffffffff167fddf252ad1be2c89b69c2b068fc378daa952ba7f163c4a11628f55a4df523b3ef60405160405180910390a46129418686866001613003565b505050505050565b6000612710905090565b61296e83838360405180602001604052806000815250611d59565b505050565b60008060008084519050600092505b80821015612b1d57600085838151811061299f5761299e613de9565b5b602001015160f81c60f81b9050608060f81b817effffffffffffffffffffffffffffffffffffffffffffffffffffffffffffff191610156129ee576001836129e79190613d05565b9250612b09565b60e060f81b817effffffffffffffffffffffffffffffffffffffffffffffffffffffffffffff19161015612a3057600283612a299190613d05565b9250612b08565b60f060f81b817effffffffffffffffffffffffffffffffffffffffffffffffffffffffffffff19161015612a7257600383612a6b9190613d05565b9250612b07565b60f8801b817effffffffffffffffffffffffffffffffffffffffffffffffffffffffffffff19161015612ab357600483612aac9190613d05565b9250612b06565b60fc60f81b817effffffffffffffffffffffffffffffffffffffffffffffffffffffffffffff19161015612af557600583612aee9190613d05565b9250612b05565b600683612b029190613d05565b92505b5b5b5b5b508280612b1590613e18565b935050612982565b829350505050919050565b600081604051602001612b3b9190614301565b6040516020818303038152906040528051906020012083604051602001612b629190614301565b6040516020818303038152906040528051906020012014905092915050565b60008082905080612b9061261f565b11612c1857600054811015612c175760006004600083815260200190815260200160002054905060007c010000000000000000000000000000000000000000000000000000000082161415612c15575b6000811415612c0b576004600083600190039350838152602001908152602001600020549050612be0565b8092505050612c4a565b505b5b6040517fdf2d9b4200000000000000000000000000000000000000000000000000000000815260040160405180910390fd5b919050565b6000600860009054906101000a900473ffffffffffffffffffffffffffffffffffffffff16905081600860006101000a81548173ffffffffffffffffffffffffffffffffffffffff021916908373ffffffffffffffffffffffffffffffffffffffff1602179055508173ffffffffffffffffffffffffffffffffffffffff168173ffffffffffffffffffffffffffffffffffffffff167f8be0079c531659141344cd1fd0a4f28419497f9722a3daafe3b4186f6b6457e060405160405180910390a35050565b612d20848484610f62565b60008373ffffffffffffffffffffffffffffffffffffffff163b14612d8257612d4b8484848461307c565b612d81576040517fd1a57ed600000000000000000000000000000000000000000000000000000000815260040160405180910390fd5b5b50505050565b60606000821415612dd0576040518060400160405280600181526020017f30000000000000000000000000000000000000000000000000000000000000008152509050612ee4565b600082905060005b60008214612e02578080612deb90613e18565b915050600a82612dfb9190613efb565b9150612dd8565b60008167ffffffffffffffff811115612e1e57612e1d61370d565b5b6040519080825280601f01601f191660200182016040528015612e505781602001600182028036833780820191505090505b5090505b60008514612edd57600182612e699190613db5565b9150600a85612e789190614318565b6030612e849190613d05565b60f81b818381518110612e9a57612e99613de9565b5b60200101907effffffffffffffffffffffffffffffffffffffffffffffffffffffffffffff1916908160001a905350600a85612ed69190613efb565b9450612e54565b8093505050505b919050565b60007f01ffc9a7000000000000000000000000000000000000000000000000000000007bffffffffffffffffffffffffffffffffffffffffffffffffffffffff1916827bffffffffffffffffffffffffffffffffffffffffffffffffffffffff1916149050919050565b600081604051602001612f669190614391565b604051602081830303815290604052805190602001209050919050565b6000612f9282600b54856131dc565b905092915050565b50505050565b60008060e883901c905060e8612fb78686846131f3565b62ffffff16901b9150509392505050565b60006001821460e11b9050919050565b600073ffffffffffffffffffffffffffffffffffffffff83169250814260a01b178317905092915050565b50505050565b600033905090565b60008060006006600085815260200190815260200160002090508092508254915050915091565b600073ffffffffffffffffffffffffffffffffffffffff8316925073ffffffffffffffffffffffffffffffffffffffff821691508382148383141790509392505050565b60008373ffffffffffffffffffffffffffffffffffffffff1663150b7a026130a261237e565b8786866040518563ffffffff1660e01b81526004016130c49493929190614401565b602060405180830381600087803b1580156130de57600080fd5b505af192505050801561310f57506040513d601f19601f8201168201806040525081019061310c9190614462565b60015b613189573d806000811461313f576040519150601f19603f3d011682016040523d82523d6000602084013e613144565b606091505b50600081511415613181576040517fd1a57ed600000000000000000000000000000000000000000000000000000000815260040160405180910390fd5b805181602001fd5b63150b7a0260e01b7bffffffffffffffffffffffffffffffffffffffffffffffffffffffff1916817bffffffffffffffffffffffffffffffffffffffffffffffffffffffff191614915050949350505050565b6000826131e985846131fc565b1490509392505050565b60009392505050565b60008082905060005b8451811015613247576132328286838151811061322557613224613de9565b5b6020026020010151613252565b9150808061323f90613e18565b915050613205565b508091505092915050565b600081831061326a57613265828461327d565b613275565b613274838361327d565b5b905092915050565b600082600052816020526040600020905092915050565b8280546132a090613c38565b90600052602060002090601f0160209004810192826132c25760008555613309565b82601f106132db57805160ff1916838001178555613309565b82800160010185558215613309579182015b828111156133085782518255916020019190600101906132ed565b5b509050613316919061331a565b5090565b5b8082111561333357600081600090555060010161331b565b5090565b6000604051905090565b600080fd5b600080fd5b60007fffffffff0000000000000000000000000000000000000000000000000000000082169050919050565b6133808161334b565b811461338b57600080fd5b50565b60008135905061339d81613377565b92915050565b6000602082840312156133b9576133b8613341565b5b60006133c78482850161338e565b91505092915050565b60008115159050919050565b6133e5816133d0565b82525050565b600060208201905061340060008301846133dc565b92915050565b600081519050919050565b600082825260208201905092915050565b60005b83811015613440578082015181840152602081019050613425565b8381111561344f576000848401525b50505050565b6000601f19601f8301169050919050565b600061347182613406565b61347b8185613411565b935061348b818560208601613422565b61349481613455565b840191505092915050565b600060208201905081810360008301526134b98184613466565b905092915050565b6000819050919050565b6134d4816134c1565b81146134df57600080fd5b50565b6000813590506134f1816134cb565b92915050565b60006020828403121561350d5761350c613341565b5b600061351b848285016134e2565b91505092915050565b600073ffffffffffffffffffffffffffffffffffffffff82169050919050565b600061354f82613524565b9050919050565b61355f81613544565b82525050565b600060208201905061357a6000830184613556565b92915050565b61358981613544565b811461359457600080fd5b50565b6000813590506135a681613580565b92915050565b600080604083850312156135c3576135c2613341565b5b60006135d185828601613597565b92505060206135e2858286016134e2565b9150509250929050565b600080fd5b600080fd5b600080fd5b60008083601f840112613611576136106135ec565b5b8235905067ffffffffffffffff81111561362e5761362d6135f1565b5b60208301915083602082028301111561364a576136496135f6565b5b9250929050565b60008060006040848603121561366a57613669613341565b5b6000613678868287016134e2565b935050602084013567ffffffffffffffff81111561369957613698613346565b5b6136a5868287016135fb565b92509250509250925092565b6000602082840312156136c7576136c6613341565b5b60006136d584828501613597565b91505092915050565b6136e7816134c1565b82525050565b600060208201905061370260008301846136de565b92915050565b600080fd5b7f4e487b7100000000000000000000000000000000000000000000000000000000600052604160045260246000fd5b61374582613455565b810181811067ffffffffffffffff821117156137645761376361370d565b5b80604052505050565b6000613777613337565b9050613783828261373c565b919050565b600067ffffffffffffffff8211156137a3576137a261370d565b5b6137ac82613455565b9050602081019050919050565b82818337600083830152505050565b60006137db6137d684613788565b61376d565b9050828152602081018484840111156137f7576137f6613708565b5b6138028482856137b9565b509392505050565b600082601f83011261381f5761381e6135ec565b5b813561382f8482602086016137c8565b91505092915050565b60008060006060848603121561385157613850613341565b5b600084013567ffffffffffffffff81111561386f5761386e613346565b5b61387b8682870161380a565b935050602061388c868287016134e2565b925050604061389d868287016134e2565b9150509250925092565b6000806000606084860312156138c0576138bf613341565b5b60006138ce86828701613597565b93505060206138df86828701613597565b92505060406138f0868287016134e2565b9150509250925092565b6000806040838503121561391157613910613341565b5b600061391f858286016134e2565b9250506020613930858286016134e2565b9150509250929050565b600060408201905061394f6000830185613556565b61395c60208301846136de565b9392505050565b6000819050919050565b61397681613963565b82525050565b6000602082019050613991600083018461396d565b92915050565b6000602082840312156139ad576139ac613341565b5b600082013567ffffffffffffffff8111156139cb576139ca613346565b5b6139d78482850161380a565b91505092915050565b6139e981613963565b81146139f457600080fd5b50565b600081359050613a06816139e0565b92915050565b600060208284031215613a2257613a21613341565b5b6000613a30848285016139f7565b91505092915050565b613a42816133d0565b8114613a4d57600080fd5b50565b600081359050613a5f81613a39565b92915050565b60008060408385031215613a7c57613a7b613341565b5b6000613a8a85828601613597565b9250506020613a9b85828601613a50565b9150509250929050565b600067ffffffffffffffff821115613ac057613abf61370d565b5b613ac982613455565b9050602081019050919050565b6000613ae9613ae484613aa5565b61376d565b905082815260208101848484011115613b0557613b04613708565b5b613b108482856137b9565b509392505050565b600082601f830112613b2d57613b2c6135ec565b5b8135613b3d848260208601613ad6565b91505092915050565b60008060008060808587031215613b6057613b5f613341565b5b6000613b6e87828801613597565b9450506020613b7f87828801613597565b9350506040613b90878288016134e2565b925050606085013567ffffffffffffffff811115613bb157613bb0613346565b5b613bbd87828801613b18565b91505092959194509250565b60008060408385031215613be057613bdf613341565b5b6000613bee85828601613597565b9250506020613bff85828601613597565b9150509250929050565b7f4e487b7100000000000000000000000000000000000000000000000000000000600052602260045260246000fd5b60006002820490506001821680613c5057607f821691505b60208210811415613c6457613c63613c09565b5b50919050565b7f5061757365640000000000000000000000000000000000000000000000000000600082015250565b6000613ca0600683613411565b9150613cab82613c6a565b602082019050919050565b60006020820190508181036000830152613ccf81613c93565b9050919050565b7f4e487b7100000000000000000000000000000000000000000000000000000000600052601160045260246000fd5b6000613d10826134c1565b9150613d1b836134c1565b9250827fffffffffffffffffffffffffffffffffffffffffffffffffffffffffffffffff03821115613d5057613d4f613cd6565b5b828201905092915050565b6000613d66826134c1565b9150613d71836134c1565b9250817fffffffffffffffffffffffffffffffffffffffffffffffffffffffffffffffff0483118215151615613daa57613da9613cd6565b5b828202905092915050565b6000613dc0826134c1565b9150613dcb836134c1565b925082821015613dde57613ddd613cd6565b5b828203905092915050565b7f4e487b7100000000000000000000000000000000000000000000000000000000600052603260045260246000fd5b6000613e23826134c1565b91507fffffffffffffffffffffffffffffffffffffffffffffffffffffffffffffffff821415613e5657613e55613cd6565b5b600182019050919050565b6000604082019050613e766000830185613556565b613e836020830184613556565b9392505050565b600081519050613e9981613a39565b92915050565b600060208284031215613eb557613eb4613341565b5b6000613ec384828501613e8a565b91505092915050565b7f4e487b7100000000000000000000000000000000000000000000000000000000600052601260045260246000fd5b6000613f06826134c1565b9150613f11836134c1565b925082613f2157613f20613ecc565b5b828204905092915050565b7f5f6e6577426173655552492063616e6e6f7420626520656d7074792100000000600082015250565b6000613f62601c83613411565b9150613f6d82613f2c565b602082019050919050565b60006020820190508181036000830152613f9181613f55565b9050919050565b7f5f6e6577426173655552492073686f756c64206861766520612073756666697860008201527f206f6620272f2700000000000000000000000000000000000000000000000000602082015250565b6000613ff4602783613411565b9150613fff82613f98565b604082019050919050565b6000602082019050818103600083015261402381613fe7565b9050919050565b7f596f752063616e206f6e6c79207365742062617365555249206f6e6365210000600082015250565b6000614060601e83613411565b915061406b8261402a565b602082019050919050565b6000602082019050818103600083015261408f81614053565b9050919050565b7f746f6b656e20646f6573206e6f74206578697374210000000000000000000000600082015250565b60006140cc601583613411565b91506140d782614096565b602082019050919050565b600060208201905081810360008301526140fb816140bf565b9050919050565b600081905092915050565b60008190508160005260206000209050919050565b6000815461412f81613c38565b6141398186614102565b94506001821660008114614154576001811461416557614198565b60ff19831686528186019350614198565b61416e8561410d565b60005b8381101561419057815481890152600182019150602081019050614171565b838801955050505b50505092915050565b60006141ac82613406565b6141b68185614102565b93506141c6818560208601613422565b80840191505092915050565b60006141de8286614122565b91506141ea82856141a1565b91506141f68284614122565b9150819050949350505050565b7f4f776e61626c653a206e6577206f776e657220697320746865207a65726f206160008201527f6464726573730000000000000000000000000000000000000000000000000000602082015250565b600061425f602683613411565b915061426a82614203565b604082019050919050565b6000602082019050818103600083015261428e81614252565b9050919050565b7f4f776e61626c653a2063616c6c6572206973206e6f7420746865206f776e6572600082015250565b60006142cb602083613411565b91506142d682614295565b602082019050919050565b600060208201905081810360008301526142fa816142be565b9050919050565b600061430d82846141a1565b915081905092915050565b6000614323826134c1565b915061432e836134c1565b92508261433e5761433d613ecc565b5b828206905092915050565b60008160601b9050919050565b600061436182614349565b9050919050565b600061437382614356565b9050919050565b61438b61438682613544565b614368565b82525050565b600061439d828461437a565b60148201915081905092915050565b600081519050919050565b600082825260208201905092915050565b60006143d3826143ac565b6143dd81856143b7565b93506143ed818560208601613422565b6143f681613455565b840191505092915050565b60006080820190506144166000830187613556565b6144236020830186613556565b61443060408301856136de565b818103606083015261444281846143c8565b905095945050505050565b60008151905061445c81613377565b92915050565b60006020828403121561447857614477613341565b5b60006144868482850161444d565b9150509291505056fea26469706673582212205686c7d47d895bea869a34bb26498dc2affff43ec2aef72cdb9704dba28b208464736f6c6343000809003368747470733a2f2f6b6974737564656e2e696e667572612d697066732e696f2f697066732f516d543857775575417a70654c7169784a446676564878394b7278466f387762473831314a5a426a6b66723643672f",
  "linkReferences": {},
  "deployedLinkReferences": {}
}