{
  "_format": "hh-sol-artifact-1",
  "contractName": "KitsudenFoxfone",
  "sourceName": "contracts/KitsudenFoxfone.sol",
  "abi": [
    {
      "inputs": [],
      "stateMutability": "nonpayable",
      "type": "constructor"
    },
    {
      "inputs": [],
      "name": "ApprovalCallerNotOwnerNorApproved",
      "type": "error"
    },
    {
      "inputs": [],
      "name": "ApprovalQueryForNonexistentToken",
      "type": "error"
    },
    {
      "inputs": [],
      "name": "BalanceQueryForZeroAddress",
      "type": "error"
    },
    {
      "inputs": [],
      "name": "ExceededLimit",
      "type": "error"
    },
    {
      "inputs": [],
      "name": "InvalidMerkle",
      "type": "error"
    },
    {
      "inputs": [],
      "name": "MintERC2309QuantityExceedsLimit",
      "type": "error"
    },
    {
      "inputs": [],
      "name": "MintToZeroAddress",
      "type": "error"
    },
    {
      "inputs": [],
      "name": "MintZeroQuantity",
      "type": "error"
    },
    {
      "inputs": [],
      "name": "NotEnoughTokensLeft",
      "type": "error"
    },
    {
      "inputs": [
        {
          "internalType": "address",
          "name": "operator",
          "type": "address"
        }
      ],
      "name": "OperatorNotAllowed",
      "type": "error"
    },
    {
      "inputs": [],
      "name": "OwnerQueryForNonexistentToken",
      "type": "error"
    },
    {
      "inputs": [],
      "name": "OwnershipNotInitializedForExtraData",
      "type": "error"
    },
    {
      "inputs": [],
      "name": "PublicSaleNotLive",
      "type": "error"
    },
    {
      "inputs": [],
      "name": "TransferCallerNotOwnerNorApproved",
      "type": "error"
    },
    {
      "inputs": [],
      "name": "TransferFromIncorrectOwner",
      "type": "error"
    },
    {
      "inputs": [],
      "name": "TransferToNonERC721ReceiverImplementer",
      "type": "error"
    },
    {
      "inputs": [],
      "name": "TransferToZeroAddress",
      "type": "error"
    },
    {
      "inputs": [],
      "name": "URIQueryForNonexistentToken",
      "type": "error"
    },
    {
      "inputs": [],
      "name": "WhitelistNotLive",
      "type": "error"
    },
    {
      "inputs": [],
      "name": "WrongEther",
      "type": "error"
    },
    {
      "anonymous": false,
      "inputs": [
        {
          "indexed": true,
          "internalType": "address",
          "name": "owner",
          "type": "address"
        },
        {
          "indexed": true,
          "internalType": "address",
          "name": "approved",
          "type": "address"
        },
        {
          "indexed": true,
          "internalType": "uint256",
          "name": "tokenId",
          "type": "uint256"
        }
      ],
      "name": "Approval",
      "type": "event"
    },
    {
      "anonymous": false,
      "inputs": [
        {
          "indexed": true,
          "internalType": "address",
          "name": "owner",
          "type": "address"
        },
        {
          "indexed": true,
          "internalType": "address",
          "name": "operator",
          "type": "address"
        },
        {
          "indexed": false,
          "internalType": "bool",
          "name": "approved",
          "type": "bool"
        }
      ],
      "name": "ApprovalForAll",
      "type": "event"
    },
    {
      "anonymous": false,
      "inputs": [
        {
          "indexed": true,
          "internalType": "uint256",
          "name": "fromTokenId",
          "type": "uint256"
        },
        {
          "indexed": false,
          "internalType": "uint256",
          "name": "toTokenId",
          "type": "uint256"
        },
        {
          "indexed": true,
          "internalType": "address",
          "name": "from",
          "type": "address"
        },
        {
          "indexed": true,
          "internalType": "address",
          "name": "to",
          "type": "address"
        }
      ],
      "name": "ConsecutiveTransfer",
      "type": "event"
    },
    {
      "anonymous": false,
      "inputs": [
        {
          "indexed": true,
          "internalType": "address",
          "name": "previousOwner",
          "type": "address"
        },
        {
          "indexed": true,
          "internalType": "address",
          "name": "newOwner",
          "type": "address"
        }
      ],
      "name": "OwnershipTransferred",
      "type": "event"
    },
    {
      "anonymous": false,
      "inputs": [
        {
          "indexed": true,
          "internalType": "address",
          "name": "from",
          "type": "address"
        },
        {
          "indexed": true,
          "internalType": "address",
          "name": "to",
          "type": "address"
        },
        {
          "indexed": true,
          "internalType": "uint256",
          "name": "tokenId",
          "type": "uint256"
        }
      ],
      "name": "Transfer",
      "type": "event"
    },
    {
      "inputs": [
        {
          "internalType": "address",
          "name": "to",
          "type": "address"
        },
        {
          "internalType": "uint256",
          "name": "tokenId",
          "type": "uint256"
        }
      ],
      "name": "approve",
      "outputs": [],
      "stateMutability": "payable",
      "type": "function"
    },
    {
      "inputs": [
        {
          "internalType": "address",
          "name": "owner",
          "type": "address"
        }
      ],
      "name": "balanceOf",
      "outputs": [
        {
          "internalType": "uint256",
          "name": "",
          "type": "uint256"
        }
      ],
      "stateMutability": "view",
      "type": "function"
    },
    {
      "inputs": [],
      "name": "baseExtension",
      "outputs": [
        {
          "internalType": "string",
          "name": "",
          "type": "string"
        }
      ],
      "stateMutability": "view",
      "type": "function"
    },
    {
      "inputs": [],
      "name": "baseHiddenUri",
      "outputs": [
        {
          "internalType": "string",
          "name": "",
          "type": "string"
        }
      ],
      "stateMutability": "view",
      "type": "function"
    },
    {
      "inputs": [],
      "name": "baseURI",
      "outputs": [
        {
          "internalType": "string",
          "name": "",
          "type": "string"
        }
      ],
      "stateMutability": "view",
      "type": "function"
    },
    {
      "inputs": [
        {
          "internalType": "uint256",
          "name": "tokenId",
          "type": "uint256"
        }
      ],
      "name": "getApproved",
      "outputs": [
        {
          "internalType": "address",
          "name": "",
          "type": "address"
        }
      ],
      "stateMutability": "view",
      "type": "function"
    },
    {
      "inputs": [
        {
          "internalType": "address",
          "name": "owner",
          "type": "address"
        },
        {
          "internalType": "address",
          "name": "operator",
          "type": "address"
        }
      ],
      "name": "isApprovedForAll",
      "outputs": [
        {
          "internalType": "bool",
          "name": "",
          "type": "bool"
        }
      ],
      "stateMutability": "view",
      "type": "function"
    },
    {
      "inputs": [],
      "name": "maxMints",
      "outputs": [
        {
          "internalType": "uint256",
          "name": "",
          "type": "uint256"
        }
      ],
      "stateMutability": "view",
      "type": "function"
    },
    {
      "inputs": [],
      "name": "maxSupply",
      "outputs": [
        {
          "internalType": "uint256",
          "name": "",
          "type": "uint256"
        }
      ],
      "stateMutability": "view",
      "type": "function"
    },
    {
      "inputs": [],
      "name": "merkleRoot",
      "outputs": [
        {
          "internalType": "bytes32",
          "name": "",
          "type": "bytes32"
        }
      ],
      "stateMutability": "view",
      "type": "function"
    },
    {
      "inputs": [
        {
          "internalType": "uint256",
          "name": "quantity",
          "type": "uint256"
        }
      ],
      "name": "mint",
      "outputs": [],
      "stateMutability": "payable",
      "type": "function"
    },
    {
      "inputs": [],
      "name": "mintPhase",
      "outputs": [
        {
          "internalType": "uint256",
          "name": "",
          "type": "uint256"
        }
      ],
      "stateMutability": "view",
      "type": "function"
    },
    {
      "inputs": [],
      "name": "mintRate",
      "outputs": [
        {
          "internalType": "uint256",
          "name": "",
          "type": "uint256"
        }
      ],
      "stateMutability": "view",
      "type": "function"
    },
    {
      "inputs": [],
      "name": "name",
      "outputs": [
        {
          "internalType": "string",
          "name": "",
          "type": "string"
        }
      ],
      "stateMutability": "view",
      "type": "function"
    },
    {
      "inputs": [],
      "name": "owner",
      "outputs": [
        {
          "internalType": "address",
          "name": "",
          "type": "address"
        }
      ],
      "stateMutability": "view",
      "type": "function"
    },
    {
      "inputs": [
        {
          "internalType": "uint256",
          "name": "tokenId",
          "type": "uint256"
        }
      ],
      "name": "ownerOf",
      "outputs": [
        {
          "internalType": "address",
          "name": "",
          "type": "address"
        }
      ],
      "stateMutability": "view",
      "type": "function"
    },
    {
      "inputs": [],
      "name": "paused",
      "outputs": [
        {
          "internalType": "bool",
          "name": "",
          "type": "bool"
        }
      ],
      "stateMutability": "view",
      "type": "function"
    },
    {
      "inputs": [],
      "name": "renounceOwnership",
      "outputs": [],
      "stateMutability": "nonpayable",
      "type": "function"
    },
    {
      "inputs": [
        {
          "internalType": "uint256",
          "name": "quantity",
          "type": "uint256"
        }
      ],
      "name": "reserveMint",
      "outputs": [],
      "stateMutability": "nonpayable",
      "type": "function"
    },
    {
      "inputs": [],
      "name": "revealed",
      "outputs": [
        {
          "internalType": "bool",
          "name": "",
          "type": "bool"
        }
      ],
      "stateMutability": "view",
      "type": "function"
    },
    {
      "inputs": [
        {
          "internalType": "address",
          "name": "from",
          "type": "address"
        },
        {
          "internalType": "address",
          "name": "to",
          "type": "address"
        },
        {
          "internalType": "uint256",
          "name": "tokenId",
          "type": "uint256"
        }
      ],
      "name": "safeTransferFrom",
      "outputs": [],
      "stateMutability": "payable",
      "type": "function"
    },
    {
      "inputs": [
        {
          "internalType": "address",
          "name": "from",
          "type": "address"
        },
        {
          "internalType": "address",
          "name": "to",
          "type": "address"
        },
        {
          "internalType": "uint256",
          "name": "tokenId",
          "type": "uint256"
        },
        {
          "internalType": "bytes",
          "name": "data",
          "type": "bytes"
        }
      ],
      "name": "safeTransferFrom",
      "outputs": [],
      "stateMutability": "payable",
      "type": "function"
    },
    {
      "inputs": [
        {
          "internalType": "address",
          "name": "operator",
          "type": "address"
        },
        {
          "internalType": "bool",
          "name": "approved",
          "type": "bool"
        }
      ],
      "name": "setApprovalForAll",
      "outputs": [],
      "stateMutability": "nonpayable",
      "type": "function"
    },
    {
      "inputs": [
        {
          "internalType": "string",
          "name": "_newBaseURI",
          "type": "string"
        }
      ],
      "name": "setBaseURI",
      "outputs": [],
      "stateMutability": "nonpayable",
      "type": "function"
    },
    {
      "inputs": [
        {
          "internalType": "bytes32",
          "name": "_root",
          "type": "bytes32"
        }
      ],
      "name": "setMerkleRoot",
      "outputs": [],
      "stateMutability": "nonpayable",
      "type": "function"
    },
    {
      "inputs": [
        {
          "internalType": "uint256",
          "name": "_phase",
          "type": "uint256"
        }
      ],
      "name": "setMintPhase",
      "outputs": [],
      "stateMutability": "nonpayable",
      "type": "function"
    },
    {
      "inputs": [],
      "name": "setTogglePaused",
      "outputs": [],
      "stateMutability": "nonpayable",
      "type": "function"
    },
    {
      "inputs": [
        {
          "internalType": "string",
          "name": "str",
          "type": "string"
        },
        {
          "internalType": "uint256",
          "name": "startIndex",
          "type": "uint256"
        },
        {
          "internalType": "uint256",
          "name": "endIndex",
          "type": "uint256"
        }
      ],
      "name": "substring",
      "outputs": [
        {
          "internalType": "string",
          "name": "",
          "type": "string"
        }
      ],
      "stateMutability": "pure",
      "type": "function"
    },
    {
      "inputs": [
        {
          "internalType": "bytes4",
          "name": "interfaceId",
          "type": "bytes4"
        }
      ],
      "name": "supportsInterface",
      "outputs": [
        {
          "internalType": "bool",
          "name": "",
          "type": "bool"
        }
      ],
      "stateMutability": "view",
      "type": "function"
    },
    {
      "inputs": [],
      "name": "symbol",
      "outputs": [
        {
          "internalType": "string",
          "name": "",
          "type": "string"
        }
      ],
      "stateMutability": "view",
      "type": "function"
    },
    {
      "inputs": [
        {
          "internalType": "uint256",
          "name": "_tokenId",
          "type": "uint256"
        }
      ],
      "name": "tokenURI",
      "outputs": [
        {
          "internalType": "string",
          "name": "",
          "type": "string"
        }
      ],
      "stateMutability": "view",
      "type": "function"
    },
    {
      "inputs": [],
      "name": "totalSupply",
      "outputs": [
        {
          "internalType": "uint256",
          "name": "",
          "type": "uint256"
        }
      ],
      "stateMutability": "view",
      "type": "function"
    },
    {
      "inputs": [
        {
          "internalType": "address",
          "name": "from",
          "type": "address"
        },
        {
          "internalType": "address",
          "name": "to",
          "type": "address"
        },
        {
          "internalType": "uint256",
          "name": "tokenId",
          "type": "uint256"
        }
      ],
      "name": "transferFrom",
      "outputs": [],
      "stateMutability": "payable",
      "type": "function"
    },
    {
      "inputs": [
        {
          "internalType": "address",
          "name": "newOwner",
          "type": "address"
        }
      ],
      "name": "transferOwnership",
      "outputs": [],
      "stateMutability": "nonpayable",
      "type": "function"
    },
    {
      "inputs": [
        {
          "internalType": "address",
          "name": "",
          "type": "address"
        }
      ],
      "name": "usedAddresses",
      "outputs": [
        {
          "internalType": "uint256",
          "name": "",
          "type": "uint256"
        }
      ],
      "stateMutability": "view",
      "type": "function"
    },
    {
      "inputs": [],
      "name": "whiteListMaxMints",
      "outputs": [
        {
          "internalType": "uint256",
          "name": "",
          "type": "uint256"
        }
      ],
      "stateMutability": "view",
      "type": "function"
    },
    {
      "inputs": [
        {
          "internalType": "uint256",
          "name": "quantity",
          "type": "uint256"
        },
        {
          "internalType": "bytes32[]",
          "name": "proof",
          "type": "bytes32[]"
        }
      ],
      "name": "whiteListMint",
      "outputs": [],
      "stateMutability": "payable",
      "type": "function"
    },
    {
      "inputs": [
        {
          "internalType": "address",
          "name": "",
          "type": "address"
        }
      ],
      "name": "whiteListUsedAddresses",
      "outputs": [
        {
          "internalType": "uint256",
          "name": "",
          "type": "uint256"
        }
      ],
      "stateMutability": "view",
      "type": "function"
    },
    {
      "inputs": [],
      "name": "withdraw",
      "outputs": [],
      "stateMutability": "nonpayable",
      "type": "function"
    }
  ],
  "bytecode": "0x60806040526005600a556001600b55611a0a600c55666a94d74f430000600d556040518060400160405280600581526020017f2e6a736f6e000000000000000000000000000000000000000000000000000000815250600e90805190602001906200006c929190620004b4565b5060405180602001604052806000815250600f908051906020019062000094929190620004b4565b50604051806080016040528060548152602001620047806054913960109080519060200190620000c6929190620004b4565b506000601260006101000a81548160ff0219169083151502179055506000601260016101000a81548160ff0219169083151502179055503480156200010a57600080fd5b506000806040518060400160405280600f81526020017f4b6974737564656e466f78466f6e6500000000000000000000000000000000008152506040518060400160405280600581526020017f4b53444646000000000000000000000000000000000000000000000000000000815250816002908051906020019062000192929190620004b4565b508060039080519060200190620001ab929190620004b4565b50620001bc620003e160201b60201c565b6000819055505050620001e4620001d8620003e660201b60201c565b620003ee60201b60201c565b60006daaeb6d7670e522a718067333cd4e73ffffffffffffffffffffffffffffffffffffffff163b1115620003d95780156200029f576daaeb6d7670e522a718067333cd4e73ffffffffffffffffffffffffffffffffffffffff16637d3e3dbe30846040518363ffffffff1660e01b815260040162000265929190620005a9565b600060405180830381600087803b1580156200028057600080fd5b505af115801562000295573d6000803e3d6000fd5b50505050620003d8565b600073ffffffffffffffffffffffffffffffffffffffff168273ffffffffffffffffffffffffffffffffffffffff161462000359576daaeb6d7670e522a718067333cd4e73ffffffffffffffffffffffffffffffffffffffff1663a0af290330846040518363ffffffff1660e01b81526004016200031f929190620005a9565b600060405180830381600087803b1580156200033a57600080fd5b505af11580156200034f573d6000803e3d6000fd5b50505050620003d7565b6daaeb6d7670e522a718067333cd4e73ffffffffffffffffffffffffffffffffffffffff16634420e486306040518263ffffffff1660e01b8152600401620003a29190620005d6565b600060405180830381600087803b158015620003bd57600080fd5b505af1158015620003d2573d6000803e3d6000fd5b505050505b5b5b505062000658565b600090565b600033905090565b6000600860009054906101000a900473ffffffffffffffffffffffffffffffffffffffff16905081600860006101000a81548173ffffffffffffffffffffffffffffffffffffffff021916908373ffffffffffffffffffffffffffffffffffffffff1602179055508173ffffffffffffffffffffffffffffffffffffffff168173ffffffffffffffffffffffffffffffffffffffff167f8be0079c531659141344cd1fd0a4f28419497f9722a3daafe3b4186f6b6457e060405160405180910390a35050565b828054620004c29062000622565b90600052602060002090601f016020900481019282620004e6576000855562000532565b82601f106200050157805160ff191683800117855562000532565b8280016001018555821562000532579182015b828111156200053157825182559160200191906001019062000514565b5b50905062000541919062000545565b5090565b5b808211156200056057600081600090555060010162000546565b5090565b600073ffffffffffffffffffffffffffffffffffffffff82169050919050565b6000620005918262000564565b9050919050565b620005a38162000584565b82525050565b6000604082019050620005c0600083018562000598565b620005cf602083018462000598565b9392505050565b6000602082019050620005ed600083018462000598565b92915050565b7f4e487b7100000000000000000000000000000000000000000000000000000000600052602260045260246000fd5b600060028204905060018216806200063b57607f821691505b60208210811415620006525762000651620005f3565b5b50919050565b61411880620006686000396000f3fe6080604052600436106102305760003560e01c806370a082311161012e578063b6b6f0c3116100ab578063d5abeb011161006f578063d5abeb01146107ef578063e985e9c51461081a578063ee5735a814610857578063f14a058814610882578063f2fde38b1461089957610230565b8063b6b6f0c314610715578063b88d4fde14610740578063c66828621461075c578063c87b56dd14610787578063ca0dcf16146107c457610230565b8063943431bf116100f2578063943431bf1461063f57806395d89b4114610668578063a0712d6814610693578063a22cb465146106af578063acdce273146106d857610230565b806370a082311461056c578063715018a6146105a95780637cb64759146105c05780638da5cb5b146105e95780638fe11a971461061457610230565b80631dcd9b55116101bc5780635183022711610180578063518302271461048557806355f804b3146104b05780635c975abb146104d95780636352211e146105045780636c0360eb1461054157610230565b80631dcd9b55146103ce57806323b872dd1461040b5780632eb4a7ab146104275780633ccfd60b1461045257806342842e0e1461046957610230565b8063118768751161020357806311876875146102f65780631342ff4c1461031257806313bfabc01461033b57806317881cbf1461037857806318160ddd146103a357610230565b806301ffc9a71461023557806306fdde0314610272578063081812fc1461029d578063095ea7b3146102da575b600080fd5b34801561024157600080fd5b5061025c6004803603810190610257919061305f565b6108c2565b60405161026991906130a7565b60405180910390f35b34801561027e57600080fd5b50610287610954565b604051610294919061315b565b60405180910390f35b3480156102a957600080fd5b506102c460048036038101906102bf91906131b3565b6109e6565b6040516102d19190613221565b60405180910390f35b6102f460048036038101906102ef9190613268565b610a65565b005b610310600480360381019061030b919061330d565b610ba9565b005b34801561031e57600080fd5b50610339600480360381019061033491906131b3565b610df5565b005b34801561034757600080fd5b50610362600480360381019061035d919061336d565b610e58565b60405161036f91906133a9565b60405180910390f35b34801561038457600080fd5b5061038d610e70565b60405161039a91906133a9565b60405180910390f35b3480156103af57600080fd5b506103b8610e76565b6040516103c591906133a9565b60405180910390f35b3480156103da57600080fd5b506103f560048036038101906103f091906134f4565b610e8d565b604051610402919061315b565b60405180910390f35b61042560048036038101906104209190613563565b610f89565b005b34801561043357600080fd5b5061043c61118a565b60405161044991906135cf565b60405180910390f35b34801561045e57600080fd5b50610467611190565b005b610483600480360381019061047e9190613563565b6111e8565b005b34801561049157600080fd5b5061049a6113e9565b6040516104a791906130a7565b60405180910390f35b3480156104bc57600080fd5b506104d760048036038101906104d291906135ea565b6113fc565b005b3480156104e557600080fd5b506104ee611575565b6040516104fb91906130a7565b60405180910390f35b34801561051057600080fd5b5061052b600480360381019061052691906131b3565b611588565b6040516105389190613221565b60405180910390f35b34801561054d57600080fd5b5061055661159a565b604051610563919061315b565b60405180910390f35b34801561057857600080fd5b50610593600480360381019061058e919061336d565b611628565b6040516105a091906133a9565b60405180910390f35b3480156105b557600080fd5b506105be6116e1565b005b3480156105cc57600080fd5b506105e760048036038101906105e2919061365f565b6116f5565b005b3480156105f557600080fd5b506105fe611707565b60405161060b9190613221565b60405180910390f35b34801561062057600080fd5b50610629611731565b604051610636919061315b565b60405180910390f35b34801561064b57600080fd5b50610666600480360381019061066191906131b3565b6117bf565b005b34801561067457600080fd5b5061067d6117d1565b60405161068a919061315b565b60405180910390f35b6106ad60048036038101906106a891906131b3565b611863565b005b3480156106bb57600080fd5b506106d660048036038101906106d191906136b8565b611a6c565b005b3480156106e457600080fd5b506106ff60048036038101906106fa919061336d565b611b77565b60405161070c91906133a9565b60405180910390f35b34801561072157600080fd5b5061072a611b8f565b60405161073791906133a9565b60405180910390f35b61075a60048036038101906107559190613799565b611b95565b005b34801561076857600080fd5b50610771611d99565b60405161077e919061315b565b60405180910390f35b34801561079357600080fd5b506107ae60048036038101906107a991906131b3565b611e27565b6040516107bb919061315b565b60405180910390f35b3480156107d057600080fd5b506107d9611ef1565b6040516107e691906133a9565b60405180910390f35b3480156107fb57600080fd5b50610804611ef7565b60405161081191906133a9565b60405180910390f35b34801561082657600080fd5b50610841600480360381019061083c919061381c565b611efd565b60405161084e91906130a7565b60405180910390f35b34801561086357600080fd5b5061086c611f91565b60405161087991906133a9565b60405180910390f35b34801561088e57600080fd5b50610897611f97565b005b3480156108a557600080fd5b506108c060048036038101906108bb919061336d565b611fcb565b005b60006301ffc9a760e01b827bffffffffffffffffffffffffffffffffffffffffffffffffffffffff1916148061091d57506380ac58cd60e01b827bffffffffffffffffffffffffffffffffffffffffffffffffffffffff1916145b8061094d5750635b5e139f60e01b827bffffffffffffffffffffffffffffffffffffffffffffffffffffffff1916145b9050919050565b6060600280546109639061388b565b80601f016020809104026020016040519081016040528092919081815260200182805461098f9061388b565b80156109dc5780601f106109b1576101008083540402835291602001916109dc565b820191906000526020600020905b8154815290600101906020018083116109bf57829003601f168201915b5050505050905090565b60006109f18261204f565b610a27576040517fcf4700e400000000000000000000000000000000000000000000000000000000815260040160405180910390fd5b6006600083815260200190815260200160002060000160009054906101000a900473ffffffffffffffffffffffffffffffffffffffff169050919050565b6000610a7082611588565b90508073ffffffffffffffffffffffffffffffffffffffff16610a916120ae565b73ffffffffffffffffffffffffffffffffffffffff1614610af457610abd81610ab86120ae565b611efd565b610af3576040517fcfb3b94200000000000000000000000000000000000000000000000000000000815260040160405180910390fd5b5b826006600084815260200190815260200160002060000160006101000a81548173ffffffffffffffffffffffffffffffffffffffff021916908373ffffffffffffffffffffffffffffffffffffffff160217905550818373ffffffffffffffffffffffffffffffffffffffff168273ffffffffffffffffffffffffffffffffffffffff167f8c5be1e5ebec7d5bd14f71427d1e84f3dd0314c0f7b2291e5b200ac8c7c3b92560405160405180910390a4505050565b601260009054906101000a900460ff1615610bf9576040517f08c379a0000000000000000000000000000000000000000000000000000000008152600401610bf090613909565b60405180910390fd5b600160115414610c35576040517f1e94bf2d00000000000000000000000000000000000000000000000000000000815260040160405180910390fd5b610c403383836120b6565b610c76576040517f3f1636e200000000000000000000000000000000000000000000000000000000815260040160405180910390fd5b600c5483610c82610e76565b610c8c9190613958565b1115610cc4576040517f76592c6f00000000000000000000000000000000000000000000000000000000815260040160405180910390fd5b3483600d54610cd391906139ae565b14610d0a576040517fb457f15800000000000000000000000000000000000000000000000000000000815260040160405180910390fd5b600b5483601360003373ffffffffffffffffffffffffffffffffffffffff1673ffffffffffffffffffffffffffffffffffffffff16815260200190815260200160002054610d589190613958565b1115610d90576040517f38d8b70c00000000000000000000000000000000000000000000000000000000815260040160405180910390fd5b82601360003373ffffffffffffffffffffffffffffffffffffffff1673ffffffffffffffffffffffffffffffffffffffff1681526020019081526020016000206000828254610ddf9190613958565b92505081905550610df03384612114565b505050565b610dfd6122d1565b600c5481610e09610e76565b610e139190613958565b1115610e4b576040517f76592c6f00000000000000000000000000000000000000000000000000000000815260040160405180910390fd5b610e553382612114565b50565b60136020528060005260406000206000915090505481565b60115481565b6000610e8061234f565b6001546000540303905090565b6060600084905060008484610ea29190613a08565b67ffffffffffffffff811115610ebb57610eba6133c9565b5b6040519080825280601f01601f191660200182016040528015610eed5781602001600182028036833780820191505090505b50905060008590505b84811015610f7c57828181518110610f1157610f10613a3c565b5b602001015160f81c60f81b828783610f299190613a08565b81518110610f3a57610f39613a3c565b5b60200101907effffffffffffffffffffffffffffffffffffffffffffffffffffffffffffff1916908160001a9053508080610f7490613a6b565b915050610ef6565b5080925050509392505050565b8260006daaeb6d7670e522a718067333cd4e73ffffffffffffffffffffffffffffffffffffffff163b1115611178573373ffffffffffffffffffffffffffffffffffffffff168173ffffffffffffffffffffffffffffffffffffffff161415610ffc57610ff7848484612354565b611184565b6daaeb6d7670e522a718067333cd4e73ffffffffffffffffffffffffffffffffffffffff1663c617113430336040518363ffffffff1660e01b8152600401611045929190613ab4565b60206040518083038186803b15801561105d57600080fd5b505afa158015611071573d6000803e3d6000fd5b505050506040513d601f19601f820116820180604052508101906110959190613af2565b801561113657506daaeb6d7670e522a718067333cd4e73ffffffffffffffffffffffffffffffffffffffff1663c617113430836040518363ffffffff1660e01b81526004016110e5929190613ab4565b60206040518083038186803b1580156110fd57600080fd5b505afa158015611111573d6000803e3d6000fd5b505050506040513d601f19601f820116820180604052508101906111359190613af2565b5b61117757336040517fede71dcc00000000000000000000000000000000000000000000000000000000815260040161116e9190613221565b60405180910390fd5b5b611183848484612354565b5b50505050565b60095481565b6111986122d1565b6111a0611707565b73ffffffffffffffffffffffffffffffffffffffff166108fc479081150290604051600060405180830381858888f193505050501580156111e5573d6000803e3d6000fd5b50565b8260006daaeb6d7670e522a718067333cd4e73ffffffffffffffffffffffffffffffffffffffff163b11156113d7573373ffffffffffffffffffffffffffffffffffffffff168173ffffffffffffffffffffffffffffffffffffffff16141561125b57611256848484612679565b6113e3565b6daaeb6d7670e522a718067333cd4e73ffffffffffffffffffffffffffffffffffffffff1663c617113430336040518363ffffffff1660e01b81526004016112a4929190613ab4565b60206040518083038186803b1580156112bc57600080fd5b505afa1580156112d0573d6000803e3d6000fd5b505050506040513d601f19601f820116820180604052508101906112f49190613af2565b801561139557506daaeb6d7670e522a718067333cd4e73ffffffffffffffffffffffffffffffffffffffff1663c617113430836040518363ffffffff1660e01b8152600401611344929190613ab4565b60206040518083038186803b15801561135c57600080fd5b505afa158015611370573d6000803e3d6000fd5b505050506040513d601f19601f820116820180604052508101906113949190613af2565b5b6113d657336040517fede71dcc0000000000000000000000000000000000000000000000000000000081526004016113cd9190613221565b60405180910390fd5b5b6113e2848484612679565b5b50505050565b601260019054906101000a900460ff1681565b6114046122d1565b6001815111611448576040517f08c379a000000000000000000000000000000000000000000000000000000000815260040161143f90613b6b565b60405180910390fd5b600061145382612699565b9050600061146e836001846114689190613a08565b84610e8d565b90506114af816040518060400160405280600181526020017f2f0000000000000000000000000000000000000000000000000000000000000081525061284e565b6114ee576040517f08c379a00000000000000000000000000000000000000000000000000000000081526004016114e590613bfd565b60405180910390fd5b601260019054906101000a900460ff161561153e576040517f08c379a000000000000000000000000000000000000000000000000000000000815260040161153590613c69565b60405180910390fd5b6001601260016101000a81548160ff02191690831515021790555082600f908051906020019061156f929190612f50565b50505050565b601260009054906101000a900460ff1681565b6000611593826128a7565b9050919050565b600f80546115a79061388b565b80601f01602080910402602001604051908101604052809291908181526020018280546115d39061388b565b80156116205780601f106115f557610100808354040283529160200191611620565b820191906000526020600020905b81548152906001019060200180831161160357829003601f168201915b505050505081565b60008073ffffffffffffffffffffffffffffffffffffffff168273ffffffffffffffffffffffffffffffffffffffff161415611690576040517f8f4eb60400000000000000000000000000000000000000000000000000000000815260040160405180910390fd5b67ffffffffffffffff600560008473ffffffffffffffffffffffffffffffffffffffff1673ffffffffffffffffffffffffffffffffffffffff16815260200190815260200160002054169050919050565b6116e96122d1565b6116f36000612975565b565b6116fd6122d1565b8060098190555050565b6000600860009054906101000a900473ffffffffffffffffffffffffffffffffffffffff16905090565b6010805461173e9061388b565b80601f016020809104026020016040519081016040528092919081815260200182805461176a9061388b565b80156117b75780601f1061178c576101008083540402835291602001916117b7565b820191906000526020600020905b81548152906001019060200180831161179a57829003601f168201915b505050505081565b6117c76122d1565b8060118190555050565b6060600380546117e09061388b565b80601f016020809104026020016040519081016040528092919081815260200182805461180c9061388b565b80156118595780601f1061182e57610100808354040283529160200191611859565b820191906000526020600020905b81548152906001019060200180831161183c57829003601f168201915b5050505050905090565b601260009054906101000a900460ff16156118b3576040517f08c379a00000000000000000000000000000000000000000000000000000000081526004016118aa90613909565b60405180910390fd5b6002601154146118ef576040517fa9f4f87100000000000000000000000000000000000000000000000000000000815260040160405180910390fd5b600c54816118fb610e76565b6119059190613958565b111561193d576040517f76592c6f00000000000000000000000000000000000000000000000000000000815260040160405180910390fd5b3481600d5461194c91906139ae565b14611983576040517fb457f15800000000000000000000000000000000000000000000000000000000815260040160405180910390fd5b600a54601460003373ffffffffffffffffffffffffffffffffffffffff1673ffffffffffffffffffffffffffffffffffffffff16815260200190815260200160002054826119d19190613958565b1115611a09576040517f38d8b70c00000000000000000000000000000000000000000000000000000000815260040160405180910390fd5b80601460003373ffffffffffffffffffffffffffffffffffffffff1673ffffffffffffffffffffffffffffffffffffffff1681526020019081526020016000206000828254611a589190613958565b92505081905550611a693382612114565b50565b8060076000611a796120ae565b73ffffffffffffffffffffffffffffffffffffffff1673ffffffffffffffffffffffffffffffffffffffff16815260200190815260200160002060008473ffffffffffffffffffffffffffffffffffffffff1673ffffffffffffffffffffffffffffffffffffffff16815260200190815260200160002060006101000a81548160ff0219169083151502179055508173ffffffffffffffffffffffffffffffffffffffff16611b266120ae565b73ffffffffffffffffffffffffffffffffffffffff167f17307eab39ab6107e8899845ad3d59bd9653f200f220920489ca2b5937696c3183604051611b6b91906130a7565b60405180910390a35050565b60146020528060005260406000206000915090505481565b600a5481565b8360006daaeb6d7670e522a718067333cd4e73ffffffffffffffffffffffffffffffffffffffff163b1115611d85573373ffffffffffffffffffffffffffffffffffffffff168173ffffffffffffffffffffffffffffffffffffffff161415611c0957611c0485858585612a3b565b611d92565b6daaeb6d7670e522a718067333cd4e73ffffffffffffffffffffffffffffffffffffffff1663c617113430336040518363ffffffff1660e01b8152600401611c52929190613ab4565b60206040518083038186803b158015611c6a57600080fd5b505afa158015611c7e573d6000803e3d6000fd5b505050506040513d601f19601f82011682018060405250810190611ca29190613af2565b8015611d4357506daaeb6d7670e522a718067333cd4e73ffffffffffffffffffffffffffffffffffffffff1663c617113430836040518363ffffffff1660e01b8152600401611cf2929190613ab4565b60206040518083038186803b158015611d0a57600080fd5b505afa158015611d1e573d6000803e3d6000fd5b505050506040513d601f19601f82011682018060405250810190611d429190613af2565b5b611d8457336040517fede71dcc000000000000000000000000000000000000000000000000000000008152600401611d7b9190613221565b60405180910390fd5b5b611d9185858585612a3b565b5b5050505050565b600e8054611da69061388b565b80601f0160208091040260200160405190810160405280929190818152602001828054611dd29061388b565b8015611e1f5780601f10611df457610100808354040283529160200191611e1f565b820191906000526020600020905b815481529060010190602001808311611e0257829003601f168201915b505050505081565b6060611e328261204f565b611e71576040517f08c379a0000000000000000000000000000000000000000000000000000000008152600401611e6890613cd5565b60405180910390fd5b601260019054906101000a900460ff1615611ebb57600f611e9183612aae565b600e604051602001611ea593929190613dc5565b6040516020818303038152906040529050611eec565b6010611ec683612aae565b600e604051602001611eda93929190613dc5565b60405160208183030381529060405290505b919050565b600d5481565b600c5481565b6000600760008473ffffffffffffffffffffffffffffffffffffffff1673ffffffffffffffffffffffffffffffffffffffff16815260200190815260200160002060008373ffffffffffffffffffffffffffffffffffffffff1673ffffffffffffffffffffffffffffffffffffffff16815260200190815260200160002060009054906101000a900460ff16905092915050565b600b5481565b611f9f6122d1565b601260009054906101000a900460ff1615601260006101000a81548160ff021916908315150217905550565b611fd36122d1565b600073ffffffffffffffffffffffffffffffffffffffff168173ffffffffffffffffffffffffffffffffffffffff161415612043576040517f08c379a000000000000000000000000000000000000000000000000000000000815260040161203a90613e68565b60405180910390fd5b61204c81612975565b50565b60008161205a61234f565b11158015612069575060005482105b80156120a7575060007c0100000000000000000000000000000000000000000000000000000000600460008581526020019081526020016000205416145b9050919050565b600033905090565b600061210b6120c485612c0f565b848480806020026020016040519081016040528093929190818152602001838360200280828437600081840152601f19601f82011690508083019250505050505050612c3f565b90509392505050565b6000805490506000821415612155576040517fb562e8dd00000000000000000000000000000000000000000000000000000000815260040160405180910390fd5b6121626000848385612c56565b600160406001901b178202600560008573ffffffffffffffffffffffffffffffffffffffff1673ffffffffffffffffffffffffffffffffffffffff168152602001908152602001600020600082825401925050819055506121d9836121ca6000866000612c5c565b6121d385612c84565b17612c94565b6004600083815260200190815260200160002081905550600080838301905073ffffffffffffffffffffffffffffffffffffffff85169150828260007fddf252ad1be2c89b69c2b068fc378daa952ba7f163c4a11628f55a4df523b3ef600080a4600183015b81811461227a57808360007fddf252ad1be2c89b69c2b068fc378daa952ba7f163c4a11628f55a4df523b3ef600080a460018101905061223f565b5060008214156122b6576040517f2e07630000000000000000000000000000000000000000000000000000000000815260040160405180910390fd5b8060008190555050506122cc6000848385612cbf565b505050565b6122d9612cc5565b73ffffffffffffffffffffffffffffffffffffffff166122f7611707565b73ffffffffffffffffffffffffffffffffffffffff161461234d576040517f08c379a000000000000000000000000000000000000000000000000000000000815260040161234490613ed4565b60405180910390fd5b565b600090565b600061235f826128a7565b90508373ffffffffffffffffffffffffffffffffffffffff168173ffffffffffffffffffffffffffffffffffffffff16146123c6576040517fa114810000000000000000000000000000000000000000000000000000000000815260040160405180910390fd5b6000806123d284612ccd565b915091506123e881876123e36120ae565b612cf4565b612434576123fd866123f86120ae565b611efd565b612433576040517f59c896be00000000000000000000000000000000000000000000000000000000815260040160405180910390fd5b5b600073ffffffffffffffffffffffffffffffffffffffff168573ffffffffffffffffffffffffffffffffffffffff16141561249b576040517fea553b3400000000000000000000000000000000000000000000000000000000815260040160405180910390fd5b6124a88686866001612c56565b80156124b357600082555b600560008773ffffffffffffffffffffffffffffffffffffffff1673ffffffffffffffffffffffffffffffffffffffff168152602001908152602001600020600081546001900391905081905550600560008673ffffffffffffffffffffffffffffffffffffffff1673ffffffffffffffffffffffffffffffffffffffff16815260200190815260200160002060008154600101919050819055506125818561255d888887612c5c565b7c020000000000000000000000000000000000000000000000000000000017612c94565b600460008681526020019081526020016000208190555060007c020000000000000000000000000000000000000000000000000000000084161415612609576000600185019050600060046000838152602001908152602001600020541415612607576000548114612606578360046000838152602001908152602001600020819055505b5b505b838573ffffffffffffffffffffffffffffffffffffffff168773ffffffffffffffffffffffffffffffffffffffff167fddf252ad1be2c89b69c2b068fc378daa952ba7f163c4a11628f55a4df523b3ef60405160405180910390a46126718686866001612cbf565b505050505050565b61269483838360405180602001604052806000815250611b95565b505050565b60008060008084519050600092505b808210156128435760008583815181106126c5576126c4613a3c565b5b602001015160f81c60f81b9050608060f81b817effffffffffffffffffffffffffffffffffffffffffffffffffffffffffffff191610156127145760018361270d9190613958565b925061282f565b60e060f81b817effffffffffffffffffffffffffffffffffffffffffffffffffffffffffffff191610156127565760028361274f9190613958565b925061282e565b60f060f81b817effffffffffffffffffffffffffffffffffffffffffffffffffffffffffffff19161015612798576003836127919190613958565b925061282d565b60f8801b817effffffffffffffffffffffffffffffffffffffffffffffffffffffffffffff191610156127d9576004836127d29190613958565b925061282c565b60fc60f81b817effffffffffffffffffffffffffffffffffffffffffffffffffffffffffffff1916101561281b576005836128149190613958565b925061282b565b6006836128289190613958565b92505b5b5b5b5b50828061283b90613a6b565b9350506126a8565b829350505050919050565b6000816040516020016128619190613ef4565b60405160208183030381529060405280519060200120836040516020016128889190613ef4565b6040516020818303038152906040528051906020012014905092915050565b600080829050806128b661234f565b1161293e5760005481101561293d5760006004600083815260200190815260200160002054905060007c01000000000000000000000000000000000000000000000000000000008216141561293b575b6000811415612931576004600083600190039350838152602001908152602001600020549050612906565b8092505050612970565b505b5b6040517fdf2d9b4200000000000000000000000000000000000000000000000000000000815260040160405180910390fd5b919050565b6000600860009054906101000a900473ffffffffffffffffffffffffffffffffffffffff16905081600860006101000a81548173ffffffffffffffffffffffffffffffffffffffff021916908373ffffffffffffffffffffffffffffffffffffffff1602179055508173ffffffffffffffffffffffffffffffffffffffff168173ffffffffffffffffffffffffffffffffffffffff167f8be0079c531659141344cd1fd0a4f28419497f9722a3daafe3b4186f6b6457e060405160405180910390a35050565b612a46848484610f89565b60008373ffffffffffffffffffffffffffffffffffffffff163b14612aa857612a7184848484612d38565b612aa7576040517fd1a57ed600000000000000000000000000000000000000000000000000000000815260040160405180910390fd5b5b50505050565b60606000821415612af6576040518060400160405280600181526020017f30000000000000000000000000000000000000000000000000000000000000008152509050612c0a565b600082905060005b60008214612b28578080612b1190613a6b565b915050600a82612b219190613f3a565b9150612afe565b60008167ffffffffffffffff811115612b4457612b436133c9565b5b6040519080825280601f01601f191660200182016040528015612b765781602001600182028036833780820191505090505b5090505b60008514612c0357600182612b8f9190613a08565b9150600a85612b9e9190613f6b565b6030612baa9190613958565b60f81b818381518110612bc057612bbf613a3c565b5b60200101907effffffffffffffffffffffffffffffffffffffffffffffffffffffffffffff1916908160001a905350600a85612bfc9190613f3a565b9450612b7a565b8093505050505b919050565b600081604051602001612c229190613fe4565b604051602081830303815290604052805190602001209050919050565b6000612c4e8260095485612e98565b905092915050565b50505050565b60008060e883901c905060e8612c73868684612eaf565b62ffffff16901b9150509392505050565b60006001821460e11b9050919050565b600073ffffffffffffffffffffffffffffffffffffffff83169250814260a01b178317905092915050565b50505050565b600033905090565b60008060006006600085815260200190815260200160002090508092508254915050915091565b600073ffffffffffffffffffffffffffffffffffffffff8316925073ffffffffffffffffffffffffffffffffffffffff821691508382148383141790509392505050565b60008373ffffffffffffffffffffffffffffffffffffffff1663150b7a02612d5e6120ae565b8786866040518563ffffffff1660e01b8152600401612d809493929190614054565b602060405180830381600087803b158015612d9a57600080fd5b505af1925050508015612dcb57506040513d601f19601f82011682018060405250810190612dc891906140b5565b60015b612e45573d8060008114612dfb576040519150601f19603f3d011682016040523d82523d6000602084013e612e00565b606091505b50600081511415612e3d576040517fd1a57ed600000000000000000000000000000000000000000000000000000000815260040160405180910390fd5b805181602001fd5b63150b7a0260e01b7bffffffffffffffffffffffffffffffffffffffffffffffffffffffff1916817bffffffffffffffffffffffffffffffffffffffffffffffffffffffff191614915050949350505050565b600082612ea58584612eb8565b1490509392505050565b60009392505050565b60008082905060005b8451811015612f0357612eee82868381518110612ee157612ee0613a3c565b5b6020026020010151612f0e565b91508080612efb90613a6b565b915050612ec1565b508091505092915050565b6000818310612f2657612f218284612f39565b612f31565b612f308383612f39565b5b905092915050565b600082600052816020526040600020905092915050565b828054612f5c9061388b565b90600052602060002090601f016020900481019282612f7e5760008555612fc5565b82601f10612f9757805160ff1916838001178555612fc5565b82800160010185558215612fc5579182015b82811115612fc4578251825591602001919060010190612fa9565b5b509050612fd29190612fd6565b5090565b5b80821115612fef576000816000905550600101612fd7565b5090565b6000604051905090565b600080fd5b600080fd5b60007fffffffff0000000000000000000000000000000000000000000000000000000082169050919050565b61303c81613007565b811461304757600080fd5b50565b60008135905061305981613033565b92915050565b60006020828403121561307557613074612ffd565b5b60006130838482850161304a565b91505092915050565b60008115159050919050565b6130a18161308c565b82525050565b60006020820190506130bc6000830184613098565b92915050565b600081519050919050565b600082825260208201905092915050565b60005b838110156130fc5780820151818401526020810190506130e1565b8381111561310b576000848401525b50505050565b6000601f19601f8301169050919050565b600061312d826130c2565b61313781856130cd565b93506131478185602086016130de565b61315081613111565b840191505092915050565b600060208201905081810360008301526131758184613122565b905092915050565b6000819050919050565b6131908161317d565b811461319b57600080fd5b50565b6000813590506131ad81613187565b92915050565b6000602082840312156131c9576131c8612ffd565b5b60006131d78482850161319e565b91505092915050565b600073ffffffffffffffffffffffffffffffffffffffff82169050919050565b600061320b826131e0565b9050919050565b61321b81613200565b82525050565b60006020820190506132366000830184613212565b92915050565b61324581613200565b811461325057600080fd5b50565b6000813590506132628161323c565b92915050565b6000806040838503121561327f5761327e612ffd565b5b600061328d85828601613253565b925050602061329e8582860161319e565b9150509250929050565b600080fd5b600080fd5b600080fd5b60008083601f8401126132cd576132cc6132a8565b5b8235905067ffffffffffffffff8111156132ea576132e96132ad565b5b602083019150836020820283011115613306576133056132b2565b5b9250929050565b60008060006040848603121561332657613325612ffd565b5b60006133348682870161319e565b935050602084013567ffffffffffffffff81111561335557613354613002565b5b613361868287016132b7565b92509250509250925092565b60006020828403121561338357613382612ffd565b5b600061339184828501613253565b91505092915050565b6133a38161317d565b82525050565b60006020820190506133be600083018461339a565b92915050565b600080fd5b7f4e487b7100000000000000000000000000000000000000000000000000000000600052604160045260246000fd5b61340182613111565b810181811067ffffffffffffffff821117156134205761341f6133c9565b5b80604052505050565b6000613433612ff3565b905061343f82826133f8565b919050565b600067ffffffffffffffff82111561345f5761345e6133c9565b5b61346882613111565b9050602081019050919050565b82818337600083830152505050565b600061349761349284613444565b613429565b9050828152602081018484840111156134b3576134b26133c4565b5b6134be848285613475565b509392505050565b600082601f8301126134db576134da6132a8565b5b81356134eb848260208601613484565b91505092915050565b60008060006060848603121561350d5761350c612ffd565b5b600084013567ffffffffffffffff81111561352b5761352a613002565b5b613537868287016134c6565b93505060206135488682870161319e565b92505060406135598682870161319e565b9150509250925092565b60008060006060848603121561357c5761357b612ffd565b5b600061358a86828701613253565b935050602061359b86828701613253565b92505060406135ac8682870161319e565b9150509250925092565b6000819050919050565b6135c9816135b6565b82525050565b60006020820190506135e460008301846135c0565b92915050565b600060208284031215613600576135ff612ffd565b5b600082013567ffffffffffffffff81111561361e5761361d613002565b5b61362a848285016134c6565b91505092915050565b61363c816135b6565b811461364757600080fd5b50565b60008135905061365981613633565b92915050565b60006020828403121561367557613674612ffd565b5b60006136838482850161364a565b91505092915050565b6136958161308c565b81146136a057600080fd5b50565b6000813590506136b28161368c565b92915050565b600080604083850312156136cf576136ce612ffd565b5b60006136dd85828601613253565b92505060206136ee858286016136a3565b9150509250929050565b600067ffffffffffffffff821115613713576137126133c9565b5b61371c82613111565b9050602081019050919050565b600061373c613737846136f8565b613429565b905082815260208101848484011115613758576137576133c4565b5b613763848285613475565b509392505050565b600082601f8301126137805761377f6132a8565b5b8135613790848260208601613729565b91505092915050565b600080600080608085870312156137b3576137b2612ffd565b5b60006137c187828801613253565b94505060206137d287828801613253565b93505060406137e38782880161319e565b925050606085013567ffffffffffffffff81111561380457613803613002565b5b6138108782880161376b565b91505092959194509250565b6000806040838503121561383357613832612ffd565b5b600061384185828601613253565b925050602061385285828601613253565b9150509250929050565b7f4e487b7100000000000000000000000000000000000000000000000000000000600052602260045260246000fd5b600060028204905060018216806138a357607f821691505b602082108114156138b7576138b661385c565b5b50919050565b7f5061757365640000000000000000000000000000000000000000000000000000600082015250565b60006138f36006836130cd565b91506138fe826138bd565b602082019050919050565b60006020820190508181036000830152613922816138e6565b9050919050565b7f4e487b7100000000000000000000000000000000000000000000000000000000600052601160045260246000fd5b60006139638261317d565b915061396e8361317d565b9250827fffffffffffffffffffffffffffffffffffffffffffffffffffffffffffffffff038211156139a3576139a2613929565b5b828201905092915050565b60006139b98261317d565b91506139c48361317d565b9250817fffffffffffffffffffffffffffffffffffffffffffffffffffffffffffffffff04831182151516156139fd576139fc613929565b5b828202905092915050565b6000613a138261317d565b9150613a1e8361317d565b925082821015613a3157613a30613929565b5b828203905092915050565b7f4e487b7100000000000000000000000000000000000000000000000000000000600052603260045260246000fd5b6000613a768261317d565b91507fffffffffffffffffffffffffffffffffffffffffffffffffffffffffffffffff821415613aa957613aa8613929565b5b600182019050919050565b6000604082019050613ac96000830185613212565b613ad66020830184613212565b9392505050565b600081519050613aec8161368c565b92915050565b600060208284031215613b0857613b07612ffd565b5b6000613b1684828501613add565b91505092915050565b7f5f6e6577426173655552492063616e6e6f7420626520656d7074792100000000600082015250565b6000613b55601c836130cd565b9150613b6082613b1f565b602082019050919050565b60006020820190508181036000830152613b8481613b48565b9050919050565b7f5f6e6577426173655552492073686f756c64206861766520612073756666697860008201527f206f6620272f2700000000000000000000000000000000000000000000000000602082015250565b6000613be76027836130cd565b9150613bf282613b8b565b604082019050919050565b60006020820190508181036000830152613c1681613bda565b9050919050565b7f596f752063616e206f6e6c79207365742062617365555249206f6e6365210000600082015250565b6000613c53601e836130cd565b9150613c5e82613c1d565b602082019050919050565b60006020820190508181036000830152613c8281613c46565b9050919050565b7f746f6b656e20646f6573206e6f74206578697374210000000000000000000000600082015250565b6000613cbf6015836130cd565b9150613cca82613c89565b602082019050919050565b60006020820190508181036000830152613cee81613cb2565b9050919050565b600081905092915050565b60008190508160005260206000209050919050565b60008154613d228161388b565b613d2c8186613cf5565b94506001821660008114613d475760018114613d5857613d8b565b60ff19831686528186019350613d8b565b613d6185613d00565b60005b83811015613d8357815481890152600182019150602081019050613d64565b838801955050505b50505092915050565b6000613d9f826130c2565b613da98185613cf5565b9350613db98185602086016130de565b80840191505092915050565b6000613dd18286613d15565b9150613ddd8285613d94565b9150613de98284613d15565b9150819050949350505050565b7f4f776e61626c653a206e6577206f776e657220697320746865207a65726f206160008201527f6464726573730000000000000000000000000000000000000000000000000000602082015250565b6000613e526026836130cd565b9150613e5d82613df6565b604082019050919050565b60006020820190508181036000830152613e8181613e45565b9050919050565b7f4f776e61626c653a2063616c6c6572206973206e6f7420746865206f776e6572600082015250565b6000613ebe6020836130cd565b9150613ec982613e88565b602082019050919050565b60006020820190508181036000830152613eed81613eb1565b9050919050565b6000613f008284613d94565b915081905092915050565b7f4e487b7100000000000000000000000000000000000000000000000000000000600052601260045260246000fd5b6000613f458261317d565b9150613f508361317d565b925082613f6057613f5f613f0b565b5b828204905092915050565b6000613f768261317d565b9150613f818361317d565b925082613f9157613f90613f0b565b5b828206905092915050565b60008160601b9050919050565b6000613fb482613f9c565b9050919050565b6000613fc682613fa9565b9050919050565b613fde613fd982613200565b613fbb565b82525050565b6000613ff08284613fcd565b60148201915081905092915050565b600081519050919050565b600082825260208201905092915050565b600061402682613fff565b614030818561400a565b93506140408185602086016130de565b61404981613111565b840191505092915050565b60006080820190506140696000830187613212565b6140766020830186613212565b614083604083018561339a565b8181036060830152614095818461401b565b905095945050505050565b6000815190506140af81613033565b92915050565b6000602082840312156140cb576140ca612ffd565b5b60006140d9848285016140a0565b9150509291505056fea264697066735822122043e732a8b7efeaa466f861f494e2c43b143cb7f2d333bd63f74513d2c574f53864736f6c6343000809003368747470733a2f2f6b6974737564656e2e696e667572612d697066732e696f2f697066732f516d543857775575417a70654c7169784a446676564878394b7278466f387762473831314a5a426a6b66723643672f",
  "linkReferences": {},
  "deployedLinkReferences": {}
}