{
  "_format": "hh-sol-artifact-1",
  "contractName": "KitsudenFoxfone",
  "sourceName": "contracts/KitsudenFoxfone.sol",
  "abi": [
    {
      "inputs": [
        {
          "internalType": "string",
          "name": "_baseHiddenUri",
          "type": "string"
        }
      ],
      "stateMutability": "nonpayable",
      "type": "constructor"
    },
    {
      "inputs": [],
      "name": "ApprovalCallerNotOwnerNorApproved",
      "type": "error"
    },
    {
      "inputs": [],
      "name": "ApprovalQueryForNonexistentToken",
      "type": "error"
    },
    {
      "inputs": [],
      "name": "BalanceQueryForZeroAddress",
      "type": "error"
    },
    {
      "inputs": [],
      "name": "ExceededLimit",
      "type": "error"
    },
    {
      "inputs": [],
      "name": "InvalidMerkle",
      "type": "error"
    },
    {
      "inputs": [],
      "name": "MintERC2309QuantityExceedsLimit",
      "type": "error"
    },
    {
      "inputs": [],
      "name": "MintToZeroAddress",
      "type": "error"
    },
    {
      "inputs": [],
      "name": "MintZeroQuantity",
      "type": "error"
    },
    {
      "inputs": [],
      "name": "NotEnoughTokensLeft",
      "type": "error"
    },
    {
      "inputs": [],
      "name": "OwnerQueryForNonexistentToken",
      "type": "error"
    },
    {
      "inputs": [],
      "name": "OwnershipNotInitializedForExtraData",
      "type": "error"
    },
    {
      "inputs": [],
      "name": "PublicSaleNotLive",
      "type": "error"
    },
    {
      "inputs": [],
      "name": "TransferCallerNotOwnerNorApproved",
      "type": "error"
    },
    {
      "inputs": [],
      "name": "TransferFromIncorrectOwner",
      "type": "error"
    },
    {
      "inputs": [],
      "name": "TransferToNonERC721ReceiverImplementer",
      "type": "error"
    },
    {
      "inputs": [],
      "name": "TransferToZeroAddress",
      "type": "error"
    },
    {
      "inputs": [],
      "name": "URIQueryForNonexistentToken",
      "type": "error"
    },
    {
      "inputs": [],
      "name": "WhitelistNotLive",
      "type": "error"
    },
    {
      "inputs": [],
      "name": "WrongEther",
      "type": "error"
    },
    {
      "anonymous": false,
      "inputs": [
        {
          "indexed": true,
          "internalType": "address",
          "name": "owner",
          "type": "address"
        },
        {
          "indexed": true,
          "internalType": "address",
          "name": "approved",
          "type": "address"
        },
        {
          "indexed": true,
          "internalType": "uint256",
          "name": "tokenId",
          "type": "uint256"
        }
      ],
      "name": "Approval",
      "type": "event"
    },
    {
      "anonymous": false,
      "inputs": [
        {
          "indexed": true,
          "internalType": "address",
          "name": "owner",
          "type": "address"
        },
        {
          "indexed": true,
          "internalType": "address",
          "name": "operator",
          "type": "address"
        },
        {
          "indexed": false,
          "internalType": "bool",
          "name": "approved",
          "type": "bool"
        }
      ],
      "name": "ApprovalForAll",
      "type": "event"
    },
    {
      "anonymous": false,
      "inputs": [
        {
          "indexed": true,
          "internalType": "uint256",
          "name": "fromTokenId",
          "type": "uint256"
        },
        {
          "indexed": false,
          "internalType": "uint256",
          "name": "toTokenId",
          "type": "uint256"
        },
        {
          "indexed": true,
          "internalType": "address",
          "name": "from",
          "type": "address"
        },
        {
          "indexed": true,
          "internalType": "address",
          "name": "to",
          "type": "address"
        }
      ],
      "name": "ConsecutiveTransfer",
      "type": "event"
    },
    {
      "anonymous": false,
      "inputs": [
        {
          "indexed": true,
          "internalType": "address",
          "name": "previousOwner",
          "type": "address"
        },
        {
          "indexed": true,
          "internalType": "address",
          "name": "newOwner",
          "type": "address"
        }
      ],
      "name": "OwnershipTransferred",
      "type": "event"
    },
    {
      "anonymous": false,
      "inputs": [
        {
          "indexed": true,
          "internalType": "address",
          "name": "from",
          "type": "address"
        },
        {
          "indexed": true,
          "internalType": "address",
          "name": "to",
          "type": "address"
        },
        {
          "indexed": true,
          "internalType": "uint256",
          "name": "tokenId",
          "type": "uint256"
        }
      ],
      "name": "Transfer",
      "type": "event"
    },
    {
      "inputs": [
        {
          "internalType": "address",
          "name": "to",
          "type": "address"
        },
        {
          "internalType": "uint256",
          "name": "tokenId",
          "type": "uint256"
        }
      ],
      "name": "approve",
      "outputs": [],
      "stateMutability": "payable",
      "type": "function"
    },
    {
      "inputs": [
        {
          "internalType": "address",
          "name": "owner",
          "type": "address"
        }
      ],
      "name": "balanceOf",
      "outputs": [
        {
          "internalType": "uint256",
          "name": "",
          "type": "uint256"
        }
      ],
      "stateMutability": "view",
      "type": "function"
    },
    {
      "inputs": [],
      "name": "baseExtension",
      "outputs": [
        {
          "internalType": "string",
          "name": "",
          "type": "string"
        }
      ],
      "stateMutability": "view",
      "type": "function"
    },
    {
      "inputs": [],
      "name": "baseHiddenUri",
      "outputs": [
        {
          "internalType": "string",
          "name": "",
          "type": "string"
        }
      ],
      "stateMutability": "view",
      "type": "function"
    },
    {
      "inputs": [],
      "name": "baseURI",
      "outputs": [
        {
          "internalType": "string",
          "name": "",
          "type": "string"
        }
      ],
      "stateMutability": "view",
      "type": "function"
    },
    {
      "inputs": [
        {
          "internalType": "uint256",
          "name": "tokenId",
          "type": "uint256"
        }
      ],
      "name": "getApproved",
      "outputs": [
        {
          "internalType": "address",
          "name": "",
          "type": "address"
        }
      ],
      "stateMutability": "view",
      "type": "function"
    },
    {
      "inputs": [
        {
          "internalType": "address",
          "name": "owner",
          "type": "address"
        },
        {
          "internalType": "address",
          "name": "operator",
          "type": "address"
        }
      ],
      "name": "isApprovedForAll",
      "outputs": [
        {
          "internalType": "bool",
          "name": "",
          "type": "bool"
        }
      ],
      "stateMutability": "view",
      "type": "function"
    },
    {
      "inputs": [],
      "name": "maxMints",
      "outputs": [
        {
          "internalType": "uint256",
          "name": "",
          "type": "uint256"
        }
      ],
      "stateMutability": "view",
      "type": "function"
    },
    {
      "inputs": [],
      "name": "maxSupply",
      "outputs": [
        {
          "internalType": "uint256",
          "name": "",
          "type": "uint256"
        }
      ],
      "stateMutability": "view",
      "type": "function"
    },
    {
      "inputs": [],
      "name": "merkleRoot",
      "outputs": [
        {
          "internalType": "bytes32",
          "name": "",
          "type": "bytes32"
        }
      ],
      "stateMutability": "view",
      "type": "function"
    },
    {
      "inputs": [
        {
          "internalType": "uint256",
          "name": "quantity",
          "type": "uint256"
        }
      ],
      "name": "mint",
      "outputs": [],
      "stateMutability": "payable",
      "type": "function"
    },
    {
      "inputs": [],
      "name": "mintRate",
      "outputs": [
        {
          "internalType": "uint256",
          "name": "",
          "type": "uint256"
        }
      ],
      "stateMutability": "view",
      "type": "function"
    },
    {
      "inputs": [],
      "name": "name",
      "outputs": [
        {
          "internalType": "string",
          "name": "",
          "type": "string"
        }
      ],
      "stateMutability": "view",
      "type": "function"
    },
    {
      "inputs": [],
      "name": "owner",
      "outputs": [
        {
          "internalType": "address",
          "name": "",
          "type": "address"
        }
      ],
      "stateMutability": "view",
      "type": "function"
    },
    {
      "inputs": [
        {
          "internalType": "uint256",
          "name": "tokenId",
          "type": "uint256"
        }
      ],
      "name": "ownerOf",
      "outputs": [
        {
          "internalType": "address",
          "name": "",
          "type": "address"
        }
      ],
      "stateMutability": "view",
      "type": "function"
    },
    {
      "inputs": [],
      "name": "publicSale",
      "outputs": [
        {
          "internalType": "bool",
          "name": "",
          "type": "bool"
        }
      ],
      "stateMutability": "view",
      "type": "function"
    },
    {
      "inputs": [],
      "name": "renounceOwnership",
      "outputs": [],
      "stateMutability": "nonpayable",
      "type": "function"
    },
    {
      "inputs": [
        {
          "internalType": "uint256",
          "name": "quantity",
          "type": "uint256"
        }
      ],
      "name": "reserveMint",
      "outputs": [],
      "stateMutability": "nonpayable",
      "type": "function"
    },
    {
      "inputs": [],
      "name": "revealed",
      "outputs": [
        {
          "internalType": "bool",
          "name": "",
          "type": "bool"
        }
      ],
      "stateMutability": "view",
      "type": "function"
    },
    {
      "inputs": [
        {
          "internalType": "address",
          "name": "from",
          "type": "address"
        },
        {
          "internalType": "address",
          "name": "to",
          "type": "address"
        },
        {
          "internalType": "uint256",
          "name": "tokenId",
          "type": "uint256"
        }
      ],
      "name": "safeTransferFrom",
      "outputs": [],
      "stateMutability": "payable",
      "type": "function"
    },
    {
      "inputs": [
        {
          "internalType": "address",
          "name": "from",
          "type": "address"
        },
        {
          "internalType": "address",
          "name": "to",
          "type": "address"
        },
        {
          "internalType": "uint256",
          "name": "tokenId",
          "type": "uint256"
        },
        {
          "internalType": "bytes",
          "name": "_data",
          "type": "bytes"
        }
      ],
      "name": "safeTransferFrom",
      "outputs": [],
      "stateMutability": "payable",
      "type": "function"
    },
    {
      "inputs": [
        {
          "internalType": "address",
          "name": "operator",
          "type": "address"
        },
        {
          "internalType": "bool",
          "name": "approved",
          "type": "bool"
        }
      ],
      "name": "setApprovalForAll",
      "outputs": [],
      "stateMutability": "nonpayable",
      "type": "function"
    },
    {
      "inputs": [
        {
          "internalType": "string",
          "name": "_newBaseURI",
          "type": "string"
        }
      ],
      "name": "setBaseURI",
      "outputs": [],
      "stateMutability": "nonpayable",
      "type": "function"
    },
    {
      "inputs": [
        {
          "internalType": "bytes32",
          "name": "_root",
          "type": "bytes32"
        }
      ],
      "name": "setMerkleRoot",
      "outputs": [],
      "stateMutability": "nonpayable",
      "type": "function"
    },
    {
      "inputs": [
        {
          "internalType": "string",
          "name": "str",
          "type": "string"
        },
        {
          "internalType": "uint256",
          "name": "startIndex",
          "type": "uint256"
        },
        {
          "internalType": "uint256",
          "name": "endIndex",
          "type": "uint256"
        }
      ],
      "name": "substring",
      "outputs": [
        {
          "internalType": "string",
          "name": "",
          "type": "string"
        }
      ],
      "stateMutability": "pure",
      "type": "function"
    },
    {
      "inputs": [
        {
          "internalType": "bytes4",
          "name": "interfaceId",
          "type": "bytes4"
        }
      ],
      "name": "supportsInterface",
      "outputs": [
        {
          "internalType": "bool",
          "name": "",
          "type": "bool"
        }
      ],
      "stateMutability": "view",
      "type": "function"
    },
    {
      "inputs": [],
      "name": "symbol",
      "outputs": [
        {
          "internalType": "string",
          "name": "",
          "type": "string"
        }
      ],
      "stateMutability": "view",
      "type": "function"
    },
    {
      "inputs": [],
      "name": "togglePublicSale",
      "outputs": [],
      "stateMutability": "nonpayable",
      "type": "function"
    },
    {
      "inputs": [],
      "name": "toggleWhitelistSale",
      "outputs": [],
      "stateMutability": "nonpayable",
      "type": "function"
    },
    {
      "inputs": [
        {
          "internalType": "uint256",
          "name": "tokenId",
          "type": "uint256"
        }
      ],
      "name": "tokenURI",
      "outputs": [
        {
          "internalType": "string",
          "name": "",
          "type": "string"
        }
      ],
      "stateMutability": "view",
      "type": "function"
    },
    {
      "inputs": [],
      "name": "totalSupply",
      "outputs": [
        {
          "internalType": "uint256",
          "name": "",
          "type": "uint256"
        }
      ],
      "stateMutability": "view",
      "type": "function"
    },
    {
      "inputs": [
        {
          "internalType": "address",
          "name": "from",
          "type": "address"
        },
        {
          "internalType": "address",
          "name": "to",
          "type": "address"
        },
        {
          "internalType": "uint256",
          "name": "tokenId",
          "type": "uint256"
        }
      ],
      "name": "transferFrom",
      "outputs": [],
      "stateMutability": "payable",
      "type": "function"
    },
    {
      "inputs": [
        {
          "internalType": "address",
          "name": "newOwner",
          "type": "address"
        }
      ],
      "name": "transferOwnership",
      "outputs": [],
      "stateMutability": "nonpayable",
      "type": "function"
    },
    {
      "inputs": [
        {
          "internalType": "address",
          "name": "",
          "type": "address"
        }
      ],
      "name": "usedAddresses",
      "outputs": [
        {
          "internalType": "uint256",
          "name": "",
          "type": "uint256"
        }
      ],
      "stateMutability": "view",
      "type": "function"
    },
    {
      "inputs": [],
      "name": "whiteListMaxMints",
      "outputs": [
        {
          "internalType": "uint256",
          "name": "",
          "type": "uint256"
        }
      ],
      "stateMutability": "view",
      "type": "function"
    },
    {
      "inputs": [
        {
          "internalType": "uint256",
          "name": "quantity",
          "type": "uint256"
        },
        {
          "internalType": "bytes32[]",
          "name": "proof",
          "type": "bytes32[]"
        }
      ],
      "name": "whiteListMint",
      "outputs": [],
      "stateMutability": "payable",
      "type": "function"
    },
    {
      "inputs": [
        {
          "internalType": "address",
          "name": "",
          "type": "address"
        }
      ],
      "name": "whiteListUsedAddresses",
      "outputs": [
        {
          "internalType": "uint256",
          "name": "",
          "type": "uint256"
        }
      ],
      "stateMutability": "view",
      "type": "function"
    },
    {
      "inputs": [],
      "name": "whitelistMintRate",
      "outputs": [
        {
          "internalType": "uint256",
          "name": "",
          "type": "uint256"
        }
      ],
      "stateMutability": "view",
      "type": "function"
    },
    {
      "inputs": [],
      "name": "whitelistSale",
      "outputs": [
        {
          "internalType": "bool",
          "name": "",
          "type": "bool"
        }
      ],
      "stateMutability": "view",
      "type": "function"
    },
    {
      "inputs": [],
      "name": "withdraw",
      "outputs": [],
      "stateMutability": "nonpayable",
      "type": "function"
    }
  ],
  "bytecode": "0x60806040526005600b556002600c55611a0a600d5566670758aa7c8000600e5566670758aa7c8000600f556040518060400160405280600581526020017f2e6a736f6e00000000000000000000000000000000000000000000000000000081525060109080519060200190620000779291906200031d565b5060405180602001604052806000815250601190805190602001906200009f9291906200031d565b506040518060200160405280600081525060129080519060200190620000c79291906200031d565b506000601360006101000a81548160ff0219169083151502179055506000601360016101000a81548160ff0219169083151502179055506000601360026101000a81548160ff0219169083151502179055503480156200012657600080fd5b50604051620042c9380380620042c983398181016040528101906200014c91906200056a565b6040518060400160405280600f81526020017f4b6974737564656e466f78466f6e6500000000000000000000000000000000008152506040518060400160405280600581526020017f4b534446460000000000000000000000000000000000000000000000000000008152508160029080519060200190620001d09291906200031d565b508060039080519060200190620001e99291906200031d565b50620001fa6200024a60201b60201c565b600081905550505060016008819055506200022a6200021e6200024f60201b60201c565b6200025760201b60201c565b8060129080519060200190620002429291906200031d565b505062000620565b600090565b600033905090565b6000600960009054906101000a900473ffffffffffffffffffffffffffffffffffffffff16905081600960006101000a81548173ffffffffffffffffffffffffffffffffffffffff021916908373ffffffffffffffffffffffffffffffffffffffff1602179055508173ffffffffffffffffffffffffffffffffffffffff168173ffffffffffffffffffffffffffffffffffffffff167f8be0079c531659141344cd1fd0a4f28419497f9722a3daafe3b4186f6b6457e060405160405180910390a35050565b8280546200032b90620005ea565b90600052602060002090601f0160209004810192826200034f57600085556200039b565b82601f106200036a57805160ff19168380011785556200039b565b828001600101855582156200039b579182015b828111156200039a5782518255916020019190600101906200037d565b5b509050620003aa9190620003ae565b5090565b5b80821115620003c9576000816000905550600101620003af565b5090565b6000604051905090565b600080fd5b600080fd5b600080fd5b600080fd5b6000601f19601f8301169050919050565b7f4e487b7100000000000000000000000000000000000000000000000000000000600052604160045260246000fd5b6200043682620003eb565b810181811067ffffffffffffffff82111715620004585762000457620003fc565b5b80604052505050565b60006200046d620003cd565b90506200047b82826200042b565b919050565b600067ffffffffffffffff8211156200049e576200049d620003fc565b5b620004a982620003eb565b9050602081019050919050565b60005b83811015620004d6578082015181840152602081019050620004b9565b83811115620004e6576000848401525b50505050565b600062000503620004fd8462000480565b62000461565b905082815260208101848484011115620005225762000521620003e6565b5b6200052f848285620004b6565b509392505050565b600082601f8301126200054f576200054e620003e1565b5b815162000561848260208601620004ec565b91505092915050565b600060208284031215620005835762000582620003d7565b5b600082015167ffffffffffffffff811115620005a457620005a3620003dc565b5b620005b28482850162000537565b91505092915050565b7f4e487b7100000000000000000000000000000000000000000000000000000000600052602260045260246000fd5b600060028204905060018216806200060357607f821691505b602082108114156200061a5762000619620005bb565b5b50919050565b613c9980620006306000396000f3fe60806040526004361061023b5760003560e01c80636c0360eb1161012e578063b6b6f0c3116100ab578063d5abeb011161006f578063d5abeb0114610813578063e222c7f91461083e578063e985e9c514610855578063ee5735a814610892578063f2fde38b146108bd5761023b565b8063b6b6f0c314610739578063b88d4fde14610764578063c668286214610780578063c87b56dd146107ab578063ca0dcf16146107e85761023b565b80638fe11a97116100f25780638fe11a971461066157806395d89b411461068c578063a0712d68146106b7578063a22cb465146106d3578063acdce273146106fc5761023b565b80636c0360eb1461058e57806370a08231146105b9578063715018a6146105f65780637cb647591461060d5780638da5cb5b146106365761023b565b80632e809ec1116101bc57806342842e0e1161018057806342842e0e146104ca57806351830227146104e657806355f804b31461051157806359eda1b51461053a5780636352211e146105515761023b565b80632e809ec1146104075780632eb4a7ab1461043257806331ffd6f11461045d57806333bc1c5c146104885780633ccfd60b146104b35761023b565b80631342ff4c116102035780631342ff4c1461031d57806313bfabc01461034657806318160ddd146103835780631dcd9b55146103ae57806323b872dd146103eb5761023b565b806301ffc9a71461024057806306fdde031461027d578063081812fc146102a8578063095ea7b3146102e55780631187687514610301575b600080fd5b34801561024c57600080fd5b5061026760048036038101906102629190612c4b565b6108e6565b6040516102749190612c93565b60405180910390f35b34801561028957600080fd5b50610292610978565b60405161029f9190612d47565b60405180910390f35b3480156102b457600080fd5b506102cf60048036038101906102ca9190612d9f565b610a0a565b6040516102dc9190612e0d565b60405180910390f35b6102ff60048036038101906102fa9190612e54565b610a89565b005b61031b60048036038101906103169190612ef9565b610bcd565b005b34801561032957600080fd5b50610344600480360381019061033f9190612d9f565b610e29565b005b34801561035257600080fd5b5061036d60048036038101906103689190612f59565b610e8c565b60405161037a9190612f95565b60405180910390f35b34801561038f57600080fd5b50610398610ea4565b6040516103a59190612f95565b60405180910390f35b3480156103ba57600080fd5b506103d560048036038101906103d091906130e0565b610ebb565b6040516103e29190612d47565b60405180910390f35b6104056004803603810190610400919061314f565b610fb7565b005b34801561041357600080fd5b5061041c6112dc565b6040516104299190612f95565b60405180910390f35b34801561043e57600080fd5b506104476112e2565b60405161045491906131bb565b60405180910390f35b34801561046957600080fd5b506104726112e8565b60405161047f9190612c93565b60405180910390f35b34801561049457600080fd5b5061049d6112fb565b6040516104aa9190612c93565b60405180910390f35b3480156104bf57600080fd5b506104c861130e565b005b6104e460048036038101906104df919061314f565b611366565b005b3480156104f257600080fd5b506104fb611386565b6040516105089190612c93565b60405180910390f35b34801561051d57600080fd5b50610538600480360381019061053391906131d6565b611399565b005b34801561054657600080fd5b5061054f611512565b005b34801561055d57600080fd5b5061057860048036038101906105739190612d9f565b611546565b6040516105859190612e0d565b60405180910390f35b34801561059a57600080fd5b506105a3611558565b6040516105b09190612d47565b60405180910390f35b3480156105c557600080fd5b506105e060048036038101906105db9190612f59565b6115e6565b6040516105ed9190612f95565b60405180910390f35b34801561060257600080fd5b5061060b61169f565b005b34801561061957600080fd5b50610634600480360381019061062f919061324b565b6116b3565b005b34801561064257600080fd5b5061064b6116c5565b6040516106589190612e0d565b60405180910390f35b34801561066d57600080fd5b506106766116ef565b6040516106839190612d47565b60405180910390f35b34801561069857600080fd5b506106a161177d565b6040516106ae9190612d47565b60405180910390f35b6106d160048036038101906106cc9190612d9f565b61180f565b005b3480156106df57600080fd5b506106fa60048036038101906106f591906132a4565b611a28565b005b34801561070857600080fd5b50610723600480360381019061071e9190612f59565b611b33565b6040516107309190612f95565b60405180910390f35b34801561074557600080fd5b5061074e611b4b565b60405161075b9190612f95565b60405180910390f35b61077e60048036038101906107799190613385565b611b51565b005b34801561078c57600080fd5b50610795611bc4565b6040516107a29190612d47565b60405180910390f35b3480156107b757600080fd5b506107d260048036038101906107cd9190612d9f565b611c52565b6040516107df9190612d47565b60405180910390f35b3480156107f457600080fd5b506107fd611d71565b60405161080a9190612f95565b60405180910390f35b34801561081f57600080fd5b50610828611d77565b6040516108359190612f95565b60405180910390f35b34801561084a57600080fd5b50610853611d7d565b005b34801561086157600080fd5b5061087c60048036038101906108779190613408565b611db1565b6040516108899190612c93565b60405180910390f35b34801561089e57600080fd5b506108a7611e45565b6040516108b49190612f95565b60405180910390f35b3480156108c957600080fd5b506108e460048036038101906108df9190612f59565b611e4b565b005b60006301ffc9a760e01b827bffffffffffffffffffffffffffffffffffffffffffffffffffffffff1916148061094157506380ac58cd60e01b827bffffffffffffffffffffffffffffffffffffffffffffffffffffffff1916145b806109715750635b5e139f60e01b827bffffffffffffffffffffffffffffffffffffffffffffffffffffffff1916145b9050919050565b60606002805461098790613477565b80601f01602080910402602001604051908101604052809291908181526020018280546109b390613477565b8015610a005780601f106109d557610100808354040283529160200191610a00565b820191906000526020600020905b8154815290600101906020018083116109e357829003601f168201915b5050505050905090565b6000610a1582611ecf565b610a4b576040517fcf4700e400000000000000000000000000000000000000000000000000000000815260040160405180910390fd5b6006600083815260200190815260200160002060000160009054906101000a900473ffffffffffffffffffffffffffffffffffffffff169050919050565b6000610a9482611546565b90508073ffffffffffffffffffffffffffffffffffffffff16610ab5611f2e565b73ffffffffffffffffffffffffffffffffffffffff1614610b1857610ae181610adc611f2e565b611db1565b610b17576040517fcfb3b94200000000000000000000000000000000000000000000000000000000815260040160405180910390fd5b5b826006600084815260200190815260200160002060000160006101000a81548173ffffffffffffffffffffffffffffffffffffffff021916908373ffffffffffffffffffffffffffffffffffffffff160217905550818373ffffffffffffffffffffffffffffffffffffffff168273ffffffffffffffffffffffffffffffffffffffff167f8c5be1e5ebec7d5bd14f71427d1e84f3dd0314c0f7b2291e5b200ac8c7c3b92560405160405180910390a4505050565b60026008541415610c13576040517f08c379a0000000000000000000000000000000000000000000000000000000008152600401610c0a906134f5565b60405180910390fd5b6002600881905550601360029054906101000a900460ff16610c61576040517f1e94bf2d00000000000000000000000000000000000000000000000000000000815260040160405180910390fd5b610c6c338383611f36565b610ca2576040517f3f1636e200000000000000000000000000000000000000000000000000000000815260040160405180910390fd5b600d5483610cae610ea4565b610cb89190613544565b1115610cf0576040517f76592c6f00000000000000000000000000000000000000000000000000000000815260040160405180910390fd5b3483600f54610cff919061359a565b14610d36576040517fb457f15800000000000000000000000000000000000000000000000000000000815260040160405180910390fd5b600c5483601460003373ffffffffffffffffffffffffffffffffffffffff1673ffffffffffffffffffffffffffffffffffffffff16815260200190815260200160002054610d849190613544565b1115610dbc576040517f38d8b70c00000000000000000000000000000000000000000000000000000000815260040160405180910390fd5b82601460003373ffffffffffffffffffffffffffffffffffffffff1673ffffffffffffffffffffffffffffffffffffffff1681526020019081526020016000206000828254610e0b9190613544565b92505081905550610e1c3384611f94565b6001600881905550505050565b610e31612151565b600d5481610e3d610ea4565b610e479190613544565b1115610e7f576040517f76592c6f00000000000000000000000000000000000000000000000000000000815260040160405180910390fd5b610e893382611f94565b50565b60146020528060005260406000206000915090505481565b6000610eae6121cf565b6001546000540303905090565b6060600084905060008484610ed091906135f4565b67ffffffffffffffff811115610ee957610ee8612fb5565b5b6040519080825280601f01601f191660200182016040528015610f1b5781602001600182028036833780820191505090505b50905060008590505b84811015610faa57828181518110610f3f57610f3e613628565b5b602001015160f81c60f81b828783610f5791906135f4565b81518110610f6857610f67613628565b5b60200101907effffffffffffffffffffffffffffffffffffffffffffffffffffffffffffff1916908160001a9053508080610fa290613657565b915050610f24565b5080925050509392505050565b6000610fc2826121d4565b90508373ffffffffffffffffffffffffffffffffffffffff168173ffffffffffffffffffffffffffffffffffffffff1614611029576040517fa114810000000000000000000000000000000000000000000000000000000000815260040160405180910390fd5b600080611035846122a2565b9150915061104b8187611046611f2e565b6122c9565b611097576110608661105b611f2e565b611db1565b611096576040517f59c896be00000000000000000000000000000000000000000000000000000000815260040160405180910390fd5b5b600073ffffffffffffffffffffffffffffffffffffffff168573ffffffffffffffffffffffffffffffffffffffff1614156110fe576040517fea553b3400000000000000000000000000000000000000000000000000000000815260040160405180910390fd5b61110b868686600161230d565b801561111657600082555b600560008773ffffffffffffffffffffffffffffffffffffffff1673ffffffffffffffffffffffffffffffffffffffff168152602001908152602001600020600081546001900391905081905550600560008673ffffffffffffffffffffffffffffffffffffffff1673ffffffffffffffffffffffffffffffffffffffff16815260200190815260200160002060008154600101919050819055506111e4856111c0888887612313565b7c02000000000000000000000000000000000000000000000000000000001761233b565b600460008681526020019081526020016000208190555060007c02000000000000000000000000000000000000000000000000000000008416141561126c57600060018501905060006004600083815260200190815260200160002054141561126a576000548114611269578360046000838152602001908152602001600020819055505b5b505b838573ffffffffffffffffffffffffffffffffffffffff168773ffffffffffffffffffffffffffffffffffffffff167fddf252ad1be2c89b69c2b068fc378daa952ba7f163c4a11628f55a4df523b3ef60405160405180910390a46112d48686866001612366565b505050505050565b600f5481565b600a5481565b601360029054906101000a900460ff1681565b601360019054906101000a900460ff1681565b611316612151565b61131e6116c5565b73ffffffffffffffffffffffffffffffffffffffff166108fc479081150290604051600060405180830381858888f19350505050158015611363573d6000803e3d6000fd5b50565b61138183838360405180602001604052806000815250611b51565b505050565b601360009054906101000a900460ff1681565b6113a1612151565b60018151116113e5576040517f08c379a00000000000000000000000000000000000000000000000000000000081526004016113dc906136ec565b60405180910390fd5b60006113f08261236c565b9050600061140b8360018461140591906135f4565b84610ebb565b905061144c816040518060400160405280600181526020017f2f00000000000000000000000000000000000000000000000000000000000000815250612521565b61148b576040517f08c379a00000000000000000000000000000000000000000000000000000000081526004016114829061377e565b60405180910390fd5b601360009054906101000a900460ff16156114db576040517f08c379a00000000000000000000000000000000000000000000000000000000081526004016114d2906137ea565b60405180910390fd5b6001601360006101000a81548160ff021916908315150217905550826011908051906020019061150c929190612b3c565b50505050565b61151a612151565b601360029054906101000a900460ff1615601360026101000a81548160ff021916908315150217905550565b6000611551826121d4565b9050919050565b6011805461156590613477565b80601f016020809104026020016040519081016040528092919081815260200182805461159190613477565b80156115de5780601f106115b3576101008083540402835291602001916115de565b820191906000526020600020905b8154815290600101906020018083116115c157829003601f168201915b505050505081565b60008073ffffffffffffffffffffffffffffffffffffffff168273ffffffffffffffffffffffffffffffffffffffff16141561164e576040517f8f4eb60400000000000000000000000000000000000000000000000000000000815260040160405180910390fd5b67ffffffffffffffff600560008473ffffffffffffffffffffffffffffffffffffffff1673ffffffffffffffffffffffffffffffffffffffff16815260200190815260200160002054169050919050565b6116a7612151565b6116b1600061257a565b565b6116bb612151565b80600a8190555050565b6000600960009054906101000a900473ffffffffffffffffffffffffffffffffffffffff16905090565b601280546116fc90613477565b80601f016020809104026020016040519081016040528092919081815260200182805461172890613477565b80156117755780601f1061174a57610100808354040283529160200191611775565b820191906000526020600020905b81548152906001019060200180831161175857829003601f168201915b505050505081565b60606003805461178c90613477565b80601f01602080910402602001604051908101604052809291908181526020018280546117b890613477565b80156118055780601f106117da57610100808354040283529160200191611805565b820191906000526020600020905b8154815290600101906020018083116117e857829003601f168201915b5050505050905090565b60026008541415611855576040517f08c379a000000000000000000000000000000000000000000000000000000000815260040161184c906134f5565b60405180910390fd5b6002600881905550601360019054906101000a900460ff166118a3576040517fa9f4f87100000000000000000000000000000000000000000000000000000000815260040160405180910390fd5b600d54816118af610ea4565b6118b99190613544565b11156118f1576040517f76592c6f00000000000000000000000000000000000000000000000000000000815260040160405180910390fd5b3481600e54611900919061359a565b14611937576040517fb457f15800000000000000000000000000000000000000000000000000000000815260040160405180910390fd5b600b54601560003373ffffffffffffffffffffffffffffffffffffffff1673ffffffffffffffffffffffffffffffffffffffff16815260200190815260200160002054826119859190613544565b11156119bd576040517f38d8b70c00000000000000000000000000000000000000000000000000000000815260040160405180910390fd5b80601560003373ffffffffffffffffffffffffffffffffffffffff1673ffffffffffffffffffffffffffffffffffffffff1681526020019081526020016000206000828254611a0c9190613544565b92505081905550611a1d3382611f94565b600160088190555050565b8060076000611a35611f2e565b73ffffffffffffffffffffffffffffffffffffffff1673ffffffffffffffffffffffffffffffffffffffff16815260200190815260200160002060008473ffffffffffffffffffffffffffffffffffffffff1673ffffffffffffffffffffffffffffffffffffffff16815260200190815260200160002060006101000a81548160ff0219169083151502179055508173ffffffffffffffffffffffffffffffffffffffff16611ae2611f2e565b73ffffffffffffffffffffffffffffffffffffffff167f17307eab39ab6107e8899845ad3d59bd9653f200f220920489ca2b5937696c3183604051611b279190612c93565b60405180910390a35050565b60156020528060005260406000206000915090505481565b600b5481565b611b5c848484610fb7565b60008373ffffffffffffffffffffffffffffffffffffffff163b14611bbe57611b8784848484612640565b611bbd576040517fd1a57ed600000000000000000000000000000000000000000000000000000000815260040160405180910390fd5b5b50505050565b60108054611bd190613477565b80601f0160208091040260200160405190810160405280929190818152602001828054611bfd90613477565b8015611c4a5780601f10611c1f57610100808354040283529160200191611c4a565b820191906000526020600020905b815481529060010190602001808311611c2d57829003601f168201915b505050505081565b6060611c5d82611ecf565b611c9c576040517f08c379a0000000000000000000000000000000000000000000000000000000008152600401611c9390613856565b60405180910390fd5b601360009054906101000a900460ff16611d10576000611cba6127a0565b90506000815111611cda5760405180602001604052806000815250611d08565b80611ce484612832565b6010604051602001611cf893929190613946565b6040516020818303038152906040525b915050611d6c565b6000611d1a612993565b90506000815111611d3a5760405180602001604052806000815250611d68565b80611d4484612832565b6010604051602001611d5893929190613946565b6040516020818303038152906040525b9150505b919050565b600e5481565b600d5481565b611d85612151565b601360019054906101000a900460ff1615601360016101000a81548160ff021916908315150217905550565b6000600760008473ffffffffffffffffffffffffffffffffffffffff1673ffffffffffffffffffffffffffffffffffffffff16815260200190815260200160002060008373ffffffffffffffffffffffffffffffffffffffff1673ffffffffffffffffffffffffffffffffffffffff16815260200190815260200160002060009054906101000a900460ff16905092915050565b600c5481565b611e53612151565b600073ffffffffffffffffffffffffffffffffffffffff168173ffffffffffffffffffffffffffffffffffffffff161415611ec3576040517f08c379a0000000000000000000000000000000000000000000000000000000008152600401611eba906139e9565b60405180910390fd5b611ecc8161257a565b50565b600081611eda6121cf565b11158015611ee9575060005482105b8015611f27575060007c0100000000000000000000000000000000000000000000000000000000600460008581526020019081526020016000205416145b9050919050565b600033905090565b6000611f8b611f4485612a25565b848480806020026020016040519081016040528093929190818152602001838360200280828437600081840152601f19601f82011690508083019250505050505050612a55565b90509392505050565b6000805490506000821415611fd5576040517fb562e8dd00000000000000000000000000000000000000000000000000000000815260040160405180910390fd5b611fe2600084838561230d565b600160406001901b178202600560008573ffffffffffffffffffffffffffffffffffffffff1673ffffffffffffffffffffffffffffffffffffffff168152602001908152602001600020600082825401925050819055506120598361204a6000866000612313565b61205385612a6c565b1761233b565b6004600083815260200190815260200160002081905550600080838301905073ffffffffffffffffffffffffffffffffffffffff85169150828260007fddf252ad1be2c89b69c2b068fc378daa952ba7f163c4a11628f55a4df523b3ef600080a4600183015b8181146120fa57808360007fddf252ad1be2c89b69c2b068fc378daa952ba7f163c4a11628f55a4df523b3ef600080a46001810190506120bf565b506000821415612136576040517f2e07630000000000000000000000000000000000000000000000000000000000815260040160405180910390fd5b80600081905550505061214c6000848385612366565b505050565b612159612a7c565b73ffffffffffffffffffffffffffffffffffffffff166121776116c5565b73ffffffffffffffffffffffffffffffffffffffff16146121cd576040517f08c379a00000000000000000000000000000000000000000000000000000000081526004016121c490613a55565b60405180910390fd5b565b600090565b600080829050806121e36121cf565b1161226b5760005481101561226a5760006004600083815260200190815260200160002054905060007c010000000000000000000000000000000000000000000000000000000082161415612268575b600081141561225e576004600083600190039350838152602001908152602001600020549050612233565b809250505061229d565b505b5b6040517fdf2d9b4200000000000000000000000000000000000000000000000000000000815260040160405180910390fd5b919050565b60008060006006600085815260200190815260200160002090508092508254915050915091565b600073ffffffffffffffffffffffffffffffffffffffff8316925073ffffffffffffffffffffffffffffffffffffffff821691508382148383141790509392505050565b50505050565b60008060e883901c905060e861232a868684612a84565b62ffffff16901b9150509392505050565b600073ffffffffffffffffffffffffffffffffffffffff83169250814260a01b178317905092915050565b50505050565b60008060008084519050600092505b8082101561251657600085838151811061239857612397613628565b5b602001015160f81c60f81b9050608060f81b817effffffffffffffffffffffffffffffffffffffffffffffffffffffffffffff191610156123e7576001836123e09190613544565b9250612502565b60e060f81b817effffffffffffffffffffffffffffffffffffffffffffffffffffffffffffff19161015612429576002836124229190613544565b9250612501565b60f060f81b817effffffffffffffffffffffffffffffffffffffffffffffffffffffffffffff1916101561246b576003836124649190613544565b9250612500565b60f8801b817effffffffffffffffffffffffffffffffffffffffffffffffffffffffffffff191610156124ac576004836124a59190613544565b92506124ff565b60fc60f81b817effffffffffffffffffffffffffffffffffffffffffffffffffffffffffffff191610156124ee576005836124e79190613544565b92506124fe565b6006836124fb9190613544565b92505b5b5b5b5b50828061250e90613657565b93505061237b565b829350505050919050565b6000816040516020016125349190613a75565b604051602081830303815290604052805190602001208360405160200161255b9190613a75565b6040516020818303038152906040528051906020012014905092915050565b6000600960009054906101000a900473ffffffffffffffffffffffffffffffffffffffff16905081600960006101000a81548173ffffffffffffffffffffffffffffffffffffffff021916908373ffffffffffffffffffffffffffffffffffffffff1602179055508173ffffffffffffffffffffffffffffffffffffffff168173ffffffffffffffffffffffffffffffffffffffff167f8be0079c531659141344cd1fd0a4f28419497f9722a3daafe3b4186f6b6457e060405160405180910390a35050565b60008373ffffffffffffffffffffffffffffffffffffffff1663150b7a02612666611f2e565b8786866040518563ffffffff1660e01b81526004016126889493929190613ae1565b602060405180830381600087803b1580156126a257600080fd5b505af19250505080156126d357506040513d601f19601f820116820180604052508101906126d09190613b42565b60015b61274d573d8060008114612703576040519150601f19603f3d011682016040523d82523d6000602084013e612708565b606091505b50600081511415612745576040517fd1a57ed600000000000000000000000000000000000000000000000000000000815260040160405180910390fd5b805181602001fd5b63150b7a0260e01b7bffffffffffffffffffffffffffffffffffffffffffffffffffffffff1916817bffffffffffffffffffffffffffffffffffffffffffffffffffffffff191614915050949350505050565b6060601280546127af90613477565b80601f01602080910402602001604051908101604052809291908181526020018280546127db90613477565b80156128285780601f106127fd57610100808354040283529160200191612828565b820191906000526020600020905b81548152906001019060200180831161280b57829003601f168201915b5050505050905090565b6060600082141561287a576040518060400160405280600181526020017f3000000000000000000000000000000000000000000000000000000000000000815250905061298e565b600082905060005b600082146128ac57808061289590613657565b915050600a826128a59190613b9e565b9150612882565b60008167ffffffffffffffff8111156128c8576128c7612fb5565b5b6040519080825280601f01601f1916602001820160405280156128fa5781602001600182028036833780820191505090505b5090505b600085146129875760018261291391906135f4565b9150600a856129229190613bcf565b603061292e9190613544565b60f81b81838151811061294457612943613628565b5b60200101907effffffffffffffffffffffffffffffffffffffffffffffffffffffffffffff1916908160001a905350600a856129809190613b9e565b94506128fe565b8093505050505b919050565b6060601180546129a290613477565b80601f01602080910402602001604051908101604052809291908181526020018280546129ce90613477565b8015612a1b5780601f106129f057610100808354040283529160200191612a1b565b820191906000526020600020905b8154815290600101906020018083116129fe57829003601f168201915b5050505050905090565b600081604051602001612a389190613c48565b604051602081830303815290604052805190602001209050919050565b6000612a6482600a5485612a8d565b905092915050565b60006001821460e11b9050919050565b600033905090565b60009392505050565b600082612a9a8584612aa4565b1490509392505050565b60008082905060005b8451811015612aef57612ada82868381518110612acd57612acc613628565b5b6020026020010151612afa565b91508080612ae790613657565b915050612aad565b508091505092915050565b6000818310612b1257612b0d8284612b25565b612b1d565b612b1c8383612b25565b5b905092915050565b600082600052816020526040600020905092915050565b828054612b4890613477565b90600052602060002090601f016020900481019282612b6a5760008555612bb1565b82601f10612b8357805160ff1916838001178555612bb1565b82800160010185558215612bb1579182015b82811115612bb0578251825591602001919060010190612b95565b5b509050612bbe9190612bc2565b5090565b5b80821115612bdb576000816000905550600101612bc3565b5090565b6000604051905090565b600080fd5b600080fd5b60007fffffffff0000000000000000000000000000000000000000000000000000000082169050919050565b612c2881612bf3565b8114612c3357600080fd5b50565b600081359050612c4581612c1f565b92915050565b600060208284031215612c6157612c60612be9565b5b6000612c6f84828501612c36565b91505092915050565b60008115159050919050565b612c8d81612c78565b82525050565b6000602082019050612ca86000830184612c84565b92915050565b600081519050919050565b600082825260208201905092915050565b60005b83811015612ce8578082015181840152602081019050612ccd565b83811115612cf7576000848401525b50505050565b6000601f19601f8301169050919050565b6000612d1982612cae565b612d238185612cb9565b9350612d33818560208601612cca565b612d3c81612cfd565b840191505092915050565b60006020820190508181036000830152612d618184612d0e565b905092915050565b6000819050919050565b612d7c81612d69565b8114612d8757600080fd5b50565b600081359050612d9981612d73565b92915050565b600060208284031215612db557612db4612be9565b5b6000612dc384828501612d8a565b91505092915050565b600073ffffffffffffffffffffffffffffffffffffffff82169050919050565b6000612df782612dcc565b9050919050565b612e0781612dec565b82525050565b6000602082019050612e226000830184612dfe565b92915050565b612e3181612dec565b8114612e3c57600080fd5b50565b600081359050612e4e81612e28565b92915050565b60008060408385031215612e6b57612e6a612be9565b5b6000612e7985828601612e3f565b9250506020612e8a85828601612d8a565b9150509250929050565b600080fd5b600080fd5b600080fd5b60008083601f840112612eb957612eb8612e94565b5b8235905067ffffffffffffffff811115612ed657612ed5612e99565b5b602083019150836020820283011115612ef257612ef1612e9e565b5b9250929050565b600080600060408486031215612f1257612f11612be9565b5b6000612f2086828701612d8a565b935050602084013567ffffffffffffffff811115612f4157612f40612bee565b5b612f4d86828701612ea3565b92509250509250925092565b600060208284031215612f6f57612f6e612be9565b5b6000612f7d84828501612e3f565b91505092915050565b612f8f81612d69565b82525050565b6000602082019050612faa6000830184612f86565b92915050565b600080fd5b7f4e487b7100000000000000000000000000000000000000000000000000000000600052604160045260246000fd5b612fed82612cfd565b810181811067ffffffffffffffff8211171561300c5761300b612fb5565b5b80604052505050565b600061301f612bdf565b905061302b8282612fe4565b919050565b600067ffffffffffffffff82111561304b5761304a612fb5565b5b61305482612cfd565b9050602081019050919050565b82818337600083830152505050565b600061308361307e84613030565b613015565b90508281526020810184848401111561309f5761309e612fb0565b5b6130aa848285613061565b509392505050565b600082601f8301126130c7576130c6612e94565b5b81356130d7848260208601613070565b91505092915050565b6000806000606084860312156130f9576130f8612be9565b5b600084013567ffffffffffffffff81111561311757613116612bee565b5b613123868287016130b2565b935050602061313486828701612d8a565b925050604061314586828701612d8a565b9150509250925092565b60008060006060848603121561316857613167612be9565b5b600061317686828701612e3f565b935050602061318786828701612e3f565b925050604061319886828701612d8a565b9150509250925092565b6000819050919050565b6131b5816131a2565b82525050565b60006020820190506131d060008301846131ac565b92915050565b6000602082840312156131ec576131eb612be9565b5b600082013567ffffffffffffffff81111561320a57613209612bee565b5b613216848285016130b2565b91505092915050565b613228816131a2565b811461323357600080fd5b50565b6000813590506132458161321f565b92915050565b60006020828403121561326157613260612be9565b5b600061326f84828501613236565b91505092915050565b61328181612c78565b811461328c57600080fd5b50565b60008135905061329e81613278565b92915050565b600080604083850312156132bb576132ba612be9565b5b60006132c985828601612e3f565b92505060206132da8582860161328f565b9150509250929050565b600067ffffffffffffffff8211156132ff576132fe612fb5565b5b61330882612cfd565b9050602081019050919050565b6000613328613323846132e4565b613015565b90508281526020810184848401111561334457613343612fb0565b5b61334f848285613061565b509392505050565b600082601f83011261336c5761336b612e94565b5b813561337c848260208601613315565b91505092915050565b6000806000806080858703121561339f5761339e612be9565b5b60006133ad87828801612e3f565b94505060206133be87828801612e3f565b93505060406133cf87828801612d8a565b925050606085013567ffffffffffffffff8111156133f0576133ef612bee565b5b6133fc87828801613357565b91505092959194509250565b6000806040838503121561341f5761341e612be9565b5b600061342d85828601612e3f565b925050602061343e85828601612e3f565b9150509250929050565b7f4e487b7100000000000000000000000000000000000000000000000000000000600052602260045260246000fd5b6000600282049050600182168061348f57607f821691505b602082108114156134a3576134a2613448565b5b50919050565b7f5265656e7472616e637947756172643a207265656e7472616e742063616c6c00600082015250565b60006134df601f83612cb9565b91506134ea826134a9565b602082019050919050565b6000602082019050818103600083015261350e816134d2565b9050919050565b7f4e487b7100000000000000000000000000000000000000000000000000000000600052601160045260246000fd5b600061354f82612d69565b915061355a83612d69565b9250827fffffffffffffffffffffffffffffffffffffffffffffffffffffffffffffffff0382111561358f5761358e613515565b5b828201905092915050565b60006135a582612d69565b91506135b083612d69565b9250817fffffffffffffffffffffffffffffffffffffffffffffffffffffffffffffffff04831182151516156135e9576135e8613515565b5b828202905092915050565b60006135ff82612d69565b915061360a83612d69565b92508282101561361d5761361c613515565b5b828203905092915050565b7f4e487b7100000000000000000000000000000000000000000000000000000000600052603260045260246000fd5b600061366282612d69565b91507fffffffffffffffffffffffffffffffffffffffffffffffffffffffffffffffff82141561369557613694613515565b5b600182019050919050565b7f5f6e6577426173655552492063616e6e6f7420626520656d7074792100000000600082015250565b60006136d6601c83612cb9565b91506136e1826136a0565b602082019050919050565b60006020820190508181036000830152613705816136c9565b9050919050565b7f5f6e6577426173655552492073686f756c64206861766520612073756666697860008201527f206f6620272f2700000000000000000000000000000000000000000000000000602082015250565b6000613768602783612cb9565b91506137738261370c565b604082019050919050565b600060208201905081810360008301526137978161375b565b9050919050565b7f596f752063616e206f6e6c79207365742062617365555249206f6e6365210000600082015250565b60006137d4601e83612cb9565b91506137df8261379e565b602082019050919050565b60006020820190508181036000830152613803816137c7565b9050919050565b7f746f6b656e20646f6573206e6f74206578697374210000000000000000000000600082015250565b6000613840601583612cb9565b915061384b8261380a565b602082019050919050565b6000602082019050818103600083015261386f81613833565b9050919050565b600081905092915050565b600061388c82612cae565b6138968185613876565b93506138a6818560208601612cca565b80840191505092915050565b60008190508160005260206000209050919050565b600081546138d481613477565b6138de8186613876565b945060018216600081146138f9576001811461390a5761393d565b60ff1983168652818601935061393d565b613913856138b2565b60005b8381101561393557815481890152600182019150602081019050613916565b838801955050505b50505092915050565b60006139528286613881565b915061395e8285613881565b915061396a82846138c7565b9150819050949350505050565b7f4f776e61626c653a206e6577206f776e657220697320746865207a65726f206160008201527f6464726573730000000000000000000000000000000000000000000000000000602082015250565b60006139d3602683612cb9565b91506139de82613977565b604082019050919050565b60006020820190508181036000830152613a02816139c6565b9050919050565b7f4f776e61626c653a2063616c6c6572206973206e6f7420746865206f776e6572600082015250565b6000613a3f602083612cb9565b9150613a4a82613a09565b602082019050919050565b60006020820190508181036000830152613a6e81613a32565b9050919050565b6000613a818284613881565b915081905092915050565b600081519050919050565b600082825260208201905092915050565b6000613ab382613a8c565b613abd8185613a97565b9350613acd818560208601612cca565b613ad681612cfd565b840191505092915050565b6000608082019050613af66000830187612dfe565b613b036020830186612dfe565b613b106040830185612f86565b8181036060830152613b228184613aa8565b905095945050505050565b600081519050613b3c81612c1f565b92915050565b600060208284031215613b5857613b57612be9565b5b6000613b6684828501613b2d565b91505092915050565b7f4e487b7100000000000000000000000000000000000000000000000000000000600052601260045260246000fd5b6000613ba982612d69565b9150613bb483612d69565b925082613bc457613bc3613b6f565b5b828204905092915050565b6000613bda82612d69565b9150613be583612d69565b925082613bf557613bf4613b6f565b5b828206905092915050565b60008160601b9050919050565b6000613c1882613c00565b9050919050565b6000613c2a82613c0d565b9050919050565b613c42613c3d82612dec565b613c1f565b82525050565b6000613c548284613c31565b6014820191508190509291505056fea264697066735822122002ce6e7a97827f7312836b543d813aa6d06a12fa28b244ed31348b0323c6ce1464736f6c63430008090033",
  "linkReferences": {},
  "deployedLinkReferences": {}
}