{"contracts/StringUtils.sol":{"StringUtils":{"abi":[{"inputs":[{"internalType":"string","name":"str","type":"string"},{"internalType":"uint256","name":"startIndex","type":"uint256"},{"internalType":"uint256","name":"endIndex","type":"uint256"}],"name":"substring","outputs":[{"internalType":"string","name":"","type":"string"}],"stateMutability":"pure","type":"function"}],"evm":{"bytecode":{"linkReferences":{},"object":"608060405234801561001057600080fd5b50610516806100206000396000f3fe608060405234801561001057600080fd5b506004361061002b5760003560e01c80631dcd9b5514610030575b600080fd5b61004a600480360381019061004591906102ec565b610060565b60405161005791906103e3565b60405180910390f35b60606000849050600084846100759190610434565b67ffffffffffffffff81111561008e5761008d61018b565b5b6040519080825280601f01601f1916602001820160405280156100c05781602001600182028036833780820191505090505b50905060008590505b8481101561014f578281815181106100e4576100e3610468565b5b602001015160f81c60f81b8287836100fc9190610434565b8151811061010d5761010c610468565b5b60200101907effffffffffffffffffffffffffffffffffffffffffffffffffffffffffffff1916908160001a905350808061014790610497565b9150506100c9565b5080925050509392505050565b6000604051905090565b600080fd5b600080fd5b600080fd5b600080fd5b6000601f19601f8301169050919050565b7f4e487b7100000000000000000000000000000000000000000000000000000000600052604160045260246000fd5b6101c38261017a565b810181811067ffffffffffffffff821117156101e2576101e161018b565b5b80604052505050565b60006101f561015c565b905061020182826101ba565b919050565b600067ffffffffffffffff8211156102215761022061018b565b5b61022a8261017a565b9050602081019050919050565b82818337600083830152505050565b600061025961025484610206565b6101eb565b90508281526020810184848401111561027557610274610175565b5b610280848285610237565b509392505050565b600082601f83011261029d5761029c610170565b5b81356102ad848260208601610246565b91505092915050565b6000819050919050565b6102c9816102b6565b81146102d457600080fd5b50565b6000813590506102e6816102c0565b92915050565b60008060006060848603121561030557610304610166565b5b600084013567ffffffffffffffff8111156103235761032261016b565b5b61032f86828701610288565b9350506020610340868287016102d7565b9250506040610351868287016102d7565b9150509250925092565b600081519050919050565b600082825260208201905092915050565b60005b8381101561039557808201518184015260208101905061037a565b838111156103a4576000848401525b50505050565b60006103b58261035b565b6103bf8185610366565b93506103cf818560208601610377565b6103d88161017a565b840191505092915050565b600060208201905081810360008301526103fd81846103aa565b905092915050565b7f4e487b7100000000000000000000000000000000000000000000000000000000600052601160045260246000fd5b600061043f826102b6565b915061044a836102b6565b92508282101561045d5761045c610405565b5b828203905092915050565b7f4e487b7100000000000000000000000000000000000000000000000000000000600052603260045260246000fd5b60006104a2826102b6565b91507fffffffffffffffffffffffffffffffffffffffffffffffffffffffffffffffff8214156104d5576104d4610405565b5b60018201905091905056fea2646970667358221220177ce6ef97a69e0f0face954961a7b7df110ce0da6efc2edf08584d01ea1334164736f6c63430008090033","opcodes":"PUSH1 0x80 PUSH1 0x40 MSTORE CALLVALUE DUP1 ISZERO PUSH2 0x10 JUMPI PUSH1 0x0 DUP1 REVERT JUMPDEST POP PUSH2 0x516 DUP1 PUSH2 0x20 PUSH1 0x0 CODECOPY PUSH1 0x0 RETURN INVALID PUSH1 0x80 PUSH1 0x40 MSTORE CALLVALUE DUP1 ISZERO PUSH2 0x10 JUMPI PUSH1 0x0 DUP1 REVERT JUMPDEST POP PUSH1 0x4 CALLDATASIZE LT PUSH2 0x2B JUMPI PUSH1 0x0 CALLDATALOAD PUSH1 0xE0 SHR DUP1 PUSH4 0x1DCD9B55 EQ PUSH2 0x30 JUMPI JUMPDEST PUSH1 0x0 DUP1 REVERT JUMPDEST PUSH2 0x4A PUSH1 0x4 DUP1 CALLDATASIZE SUB DUP2 ADD SWAP1 PUSH2 0x45 SWAP2 SWAP1 PUSH2 0x2EC JUMP JUMPDEST PUSH2 0x60 JUMP JUMPDEST PUSH1 0x40 MLOAD PUSH2 0x57 SWAP2 SWAP1 PUSH2 0x3E3 JUMP JUMPDEST PUSH1 0x40 MLOAD DUP1 SWAP2 SUB SWAP1 RETURN JUMPDEST PUSH1 0x60 PUSH1 0x0 DUP5 SWAP1 POP PUSH1 0x0 DUP5 DUP5 PUSH2 0x75 SWAP2 SWAP1 PUSH2 0x434 JUMP JUMPDEST PUSH8 0xFFFFFFFFFFFFFFFF DUP2 GT ISZERO PUSH2 0x8E JUMPI PUSH2 0x8D PUSH2 0x18B JUMP JUMPDEST JUMPDEST PUSH1 0x40 MLOAD SWAP1 DUP1 DUP3 MSTORE DUP1 PUSH1 0x1F ADD PUSH1 0x1F NOT AND PUSH1 0x20 ADD DUP3 ADD PUSH1 0x40 MSTORE DUP1 ISZERO PUSH2 0xC0 JUMPI DUP2 PUSH1 0x20 ADD PUSH1 0x1 DUP3 MUL DUP1 CALLDATASIZE DUP4 CALLDATACOPY DUP1 DUP3 ADD SWAP2 POP POP SWAP1 POP JUMPDEST POP SWAP1 POP PUSH1 0x0 DUP6 SWAP1 POP JUMPDEST DUP5 DUP2 LT ISZERO PUSH2 0x14F JUMPI DUP3 DUP2 DUP2 MLOAD DUP2 LT PUSH2 0xE4 JUMPI PUSH2 0xE3 PUSH2 0x468 JUMP JUMPDEST JUMPDEST PUSH1 0x20 ADD ADD MLOAD PUSH1 0xF8 SHR PUSH1 0xF8 SHL DUP3 DUP8 DUP4 PUSH2 0xFC SWAP2 SWAP1 PUSH2 0x434 JUMP JUMPDEST DUP2 MLOAD DUP2 LT PUSH2 0x10D JUMPI PUSH2 0x10C PUSH2 0x468 JUMP JUMPDEST JUMPDEST PUSH1 0x20 ADD ADD SWAP1 PUSH31 0xFFFFFFFFFFFFFFFFFFFFFFFFFFFFFFFFFFFFFFFFFFFFFFFFFFFFFFFFFFFFFF NOT AND SWAP1 DUP2 PUSH1 0x0 BYTE SWAP1 MSTORE8 POP DUP1 DUP1 PUSH2 0x147 SWAP1 PUSH2 0x497 JUMP JUMPDEST SWAP2 POP POP PUSH2 0xC9 JUMP JUMPDEST POP DUP1 SWAP3 POP POP POP SWAP4 SWAP3 POP POP POP JUMP JUMPDEST PUSH1 0x0 PUSH1 0x40 MLOAD SWAP1 POP SWAP1 JUMP JUMPDEST PUSH1 0x0 DUP1 REVERT JUMPDEST PUSH1 0x0 DUP1 REVERT JUMPDEST PUSH1 0x0 DUP1 REVERT JUMPDEST PUSH1 0x0 DUP1 REVERT JUMPDEST PUSH1 0x0 PUSH1 0x1F NOT PUSH1 0x1F DUP4 ADD AND SWAP1 POP SWAP2 SWAP1 POP JUMP JUMPDEST PUSH32 0x4E487B7100000000000000000000000000000000000000000000000000000000 PUSH1 0x0 MSTORE PUSH1 0x41 PUSH1 0x4 MSTORE PUSH1 0x24 PUSH1 0x0 REVERT JUMPDEST PUSH2 0x1C3 DUP3 PUSH2 0x17A JUMP JUMPDEST DUP2 ADD DUP2 DUP2 LT PUSH8 0xFFFFFFFFFFFFFFFF DUP3 GT OR ISZERO PUSH2 0x1E2 JUMPI PUSH2 0x1E1 PUSH2 0x18B JUMP JUMPDEST JUMPDEST DUP1 PUSH1 0x40 MSTORE POP POP POP JUMP JUMPDEST PUSH1 0x0 PUSH2 0x1F5 PUSH2 0x15C JUMP JUMPDEST SWAP1 POP PUSH2 0x201 DUP3 DUP3 PUSH2 0x1BA JUMP JUMPDEST SWAP2 SWAP1 POP JUMP JUMPDEST PUSH1 0x0 PUSH8 0xFFFFFFFFFFFFFFFF DUP3 GT ISZERO PUSH2 0x221 JUMPI PUSH2 0x220 PUSH2 0x18B JUMP JUMPDEST JUMPDEST PUSH2 0x22A DUP3 PUSH2 0x17A JUMP JUMPDEST SWAP1 POP PUSH1 0x20 DUP2 ADD SWAP1 POP SWAP2 SWAP1 POP JUMP JUMPDEST DUP3 DUP2 DUP4 CALLDATACOPY PUSH1 0x0 DUP4 DUP4 ADD MSTORE POP POP POP JUMP JUMPDEST PUSH1 0x0 PUSH2 0x259 PUSH2 0x254 DUP5 PUSH2 0x206 JUMP JUMPDEST PUSH2 0x1EB JUMP JUMPDEST SWAP1 POP DUP3 DUP2 MSTORE PUSH1 0x20 DUP2 ADD DUP5 DUP5 DUP5 ADD GT ISZERO PUSH2 0x275 JUMPI PUSH2 0x274 PUSH2 0x175 JUMP JUMPDEST JUMPDEST PUSH2 0x280 DUP5 DUP3 DUP6 PUSH2 0x237 JUMP JUMPDEST POP SWAP4 SWAP3 POP POP POP JUMP JUMPDEST PUSH1 0x0 DUP3 PUSH1 0x1F DUP4 ADD SLT PUSH2 0x29D JUMPI PUSH2 0x29C PUSH2 0x170 JUMP JUMPDEST JUMPDEST DUP2 CALLDATALOAD PUSH2 0x2AD DUP5 DUP3 PUSH1 0x20 DUP7 ADD PUSH2 0x246 JUMP JUMPDEST SWAP2 POP POP SWAP3 SWAP2 POP POP JUMP JUMPDEST PUSH1 0x0 DUP2 SWAP1 POP SWAP2 SWAP1 POP JUMP JUMPDEST PUSH2 0x2C9 DUP2 PUSH2 0x2B6 JUMP JUMPDEST DUP2 EQ PUSH2 0x2D4 JUMPI PUSH1 0x0 DUP1 REVERT JUMPDEST POP JUMP JUMPDEST PUSH1 0x0 DUP2 CALLDATALOAD SWAP1 POP PUSH2 0x2E6 DUP2 PUSH2 0x2C0 JUMP JUMPDEST SWAP3 SWAP2 POP POP JUMP JUMPDEST PUSH1 0x0 DUP1 PUSH1 0x0 PUSH1 0x60 DUP5 DUP7 SUB SLT ISZERO PUSH2 0x305 JUMPI PUSH2 0x304 PUSH2 0x166 JUMP JUMPDEST JUMPDEST PUSH1 0x0 DUP5 ADD CALLDATALOAD PUSH8 0xFFFFFFFFFFFFFFFF DUP2 GT ISZERO PUSH2 0x323 JUMPI PUSH2 0x322 PUSH2 0x16B JUMP JUMPDEST JUMPDEST PUSH2 0x32F DUP7 DUP3 DUP8 ADD PUSH2 0x288 JUMP JUMPDEST SWAP4 POP POP PUSH1 0x20 PUSH2 0x340 DUP7 DUP3 DUP8 ADD PUSH2 0x2D7 JUMP JUMPDEST SWAP3 POP POP PUSH1 0x40 PUSH2 0x351 DUP7 DUP3 DUP8 ADD PUSH2 0x2D7 JUMP JUMPDEST SWAP2 POP POP SWAP3 POP SWAP3 POP SWAP3 JUMP JUMPDEST PUSH1 0x0 DUP2 MLOAD SWAP1 POP SWAP2 SWAP1 POP JUMP JUMPDEST PUSH1 0x0 DUP3 DUP3 MSTORE PUSH1 0x20 DUP3 ADD SWAP1 POP SWAP3 SWAP2 POP POP JUMP JUMPDEST PUSH1 0x0 JUMPDEST DUP4 DUP2 LT ISZERO PUSH2 0x395 JUMPI DUP1 DUP3 ADD MLOAD DUP2 DUP5 ADD MSTORE PUSH1 0x20 DUP2 ADD SWAP1 POP PUSH2 0x37A JUMP JUMPDEST DUP4 DUP2 GT ISZERO PUSH2 0x3A4 JUMPI PUSH1 0x0 DUP5 DUP5 ADD MSTORE JUMPDEST POP POP POP POP JUMP JUMPDEST PUSH1 0x0 PUSH2 0x3B5 DUP3 PUSH2 0x35B JUMP JUMPDEST PUSH2 0x3BF DUP2 DUP6 PUSH2 0x366 JUMP JUMPDEST SWAP4 POP PUSH2 0x3CF DUP2 DUP6 PUSH1 0x20 DUP7 ADD PUSH2 0x377 JUMP JUMPDEST PUSH2 0x3D8 DUP2 PUSH2 0x17A JUMP JUMPDEST DUP5 ADD SWAP2 POP POP SWAP3 SWAP2 POP POP JUMP JUMPDEST PUSH1 0x0 PUSH1 0x20 DUP3 ADD SWAP1 POP DUP2 DUP2 SUB PUSH1 0x0 DUP4 ADD MSTORE PUSH2 0x3FD DUP2 DUP5 PUSH2 0x3AA JUMP JUMPDEST SWAP1 POP SWAP3 SWAP2 POP POP JUMP JUMPDEST PUSH32 0x4E487B7100000000000000000000000000000000000000000000000000000000 PUSH1 0x0 MSTORE PUSH1 0x11 PUSH1 0x4 MSTORE PUSH1 0x24 PUSH1 0x0 REVERT JUMPDEST PUSH1 0x0 PUSH2 0x43F DUP3 PUSH2 0x2B6 JUMP JUMPDEST SWAP2 POP PUSH2 0x44A DUP4 PUSH2 0x2B6 JUMP JUMPDEST SWAP3 POP DUP3 DUP3 LT ISZERO PUSH2 0x45D JUMPI PUSH2 0x45C PUSH2 0x405 JUMP JUMPDEST JUMPDEST DUP3 DUP3 SUB SWAP1 POP SWAP3 SWAP2 POP POP JUMP JUMPDEST PUSH32 0x4E487B7100000000000000000000000000000000000000000000000000000000 PUSH1 0x0 MSTORE PUSH1 0x32 PUSH1 0x4 MSTORE PUSH1 0x24 PUSH1 0x0 REVERT JUMPDEST PUSH1 0x0 PUSH2 0x4A2 DUP3 PUSH2 0x2B6 JUMP JUMPDEST SWAP2 POP PUSH32 0xFFFFFFFFFFFFFFFFFFFFFFFFFFFFFFFFFFFFFFFFFFFFFFFFFFFFFFFFFFFFFFFF DUP3 EQ ISZERO PUSH2 0x4D5 JUMPI PUSH2 0x4D4 PUSH2 0x405 JUMP JUMPDEST JUMPDEST PUSH1 0x1 DUP3 ADD SWAP1 POP SWAP2 SWAP1 POP JUMP INVALID LOG2 PUSH5 0x6970667358 0x22 SLT KECCAK256 OR PUSH29 0xE6EF97A69E0F0FACE954961A7B7DF110CE0DA6EFC2EDF08584D01EA133 COINBASE PUSH5 0x736F6C6343 STOP ADDMOD MULMOD STOP CALLER "},"methodIdentifiers":{"substring(string,uint256,uint256)":"1dcd9b55"}}}}}