{"contracts/KitsudenFoxfone.sol":{"KitsudenFoxfone":{"abi":[{"inputs":[],"stateMutability":"nonpayable","type":"constructor"},{"inputs":[],"name":"ApprovalCallerNotOwnerNorApproved","type":"error"},{"inputs":[],"name":"ApprovalQueryForNonexistentToken","type":"error"},{"inputs":[],"name":"BalanceQueryForZeroAddress","type":"error"},{"inputs":[],"name":"ExceededLimit","type":"error"},{"inputs":[],"name":"InvalidMerkle","type":"error"},{"inputs":[],"name":"MintERC2309QuantityExceedsLimit","type":"error"},{"inputs":[],"name":"MintToZeroAddress","type":"error"},{"inputs":[],"name":"MintZeroQuantity","type":"error"},{"inputs":[],"name":"NotEnoughTokensLeft","type":"error"},{"inputs":[{"internalType":"address","name":"operator","type":"address"}],"name":"OperatorNotAllowed","type":"error"},{"inputs":[],"name":"OwnerQueryForNonexistentToken","type":"error"},{"inputs":[],"name":"OwnershipNotInitializedForExtraData","type":"error"},{"inputs":[],"name":"PublicSaleNotLive","type":"error"},{"inputs":[],"name":"TransferCallerNotOwnerNorApproved","type":"error"},{"inputs":[],"name":"TransferFromIncorrectOwner","type":"error"},{"inputs":[],"name":"TransferToNonERC721ReceiverImplementer","type":"error"},{"inputs":[],"name":"TransferToZeroAddress","type":"error"},{"inputs":[],"name":"URIQueryForNonexistentToken","type":"error"},{"inputs":[],"name":"WhitelistNotLive","type":"error"},{"inputs":[],"name":"WrongEther","type":"error"},{"anonymous":false,"inputs":[{"indexed":true,"internalType":"address","name":"owner","type":"address"},{"indexed":true,"internalType":"address","name":"approved","type":"address"},{"indexed":true,"internalType":"uint256","name":"tokenId","type":"uint256"}],"name":"Approval","type":"event"},{"anonymous":false,"inputs":[{"indexed":true,"internalType":"address","name":"owner","type":"address"},{"indexed":true,"internalType":"address","name":"operator","type":"address"},{"indexed":false,"internalType":"bool","name":"approved","type":"bool"}],"name":"ApprovalForAll","type":"event"},{"anonymous":false,"inputs":[{"indexed":true,"internalType":"uint256","name":"fromTokenId","type":"uint256"},{"indexed":false,"internalType":"uint256","name":"toTokenId","type":"uint256"},{"indexed":true,"internalType":"address","name":"from","type":"address"},{"indexed":true,"internalType":"address","name":"to","type":"address"}],"name":"ConsecutiveTransfer","type":"event"},{"anonymous":false,"inputs":[{"indexed":true,"internalType":"address","name":"previousOwner","type":"address"},{"indexed":true,"internalType":"address","name":"newOwner","type":"address"}],"name":"OwnershipTransferred","type":"event"},{"anonymous":false,"inputs":[{"indexed":true,"internalType":"address","name":"from","type":"address"},{"indexed":true,"internalType":"address","name":"to","type":"address"},{"indexed":true,"internalType":"uint256","name":"tokenId","type":"uint256"}],"name":"Transfer","type":"event"},{"inputs":[{"internalType":"address","name":"to","type":"address"},{"internalType":"uint256","name":"tokenId","type":"uint256"}],"name":"approve","outputs":[],"stateMutability":"payable","type":"function"},{"inputs":[{"internalType":"address","name":"owner","type":"address"}],"name":"balanceOf","outputs":[{"internalType":"uint256","name":"","type":"uint256"}],"stateMutability":"view","type":"function"},{"inputs":[],"name":"baseExtension","outputs":[{"internalType":"string","name":"","type":"string"}],"stateMutability":"view","type":"function"},{"inputs":[],"name":"baseHiddenUri","outputs":[{"internalType":"string","name":"","type":"string"}],"stateMutability":"view","type":"function"},{"inputs":[],"name":"baseURI","outputs":[{"internalType":"string","name":"","type":"string"}],"stateMutability":"view","type":"function"},{"inputs":[{"internalType":"uint256","name":"tokenId","type":"uint256"}],"name":"getApproved","outputs":[{"internalType":"address","name":"","type":"address"}],"stateMutability":"view","type":"function"},{"inputs":[{"internalType":"address","name":"owner","type":"address"},{"internalType":"address","name":"operator","type":"address"}],"name":"isApprovedForAll","outputs":[{"internalType":"bool","name":"","type":"bool"}],"stateMutability":"view","type":"function"},{"inputs":[],"name":"maxMints","outputs":[{"internalType":"uint256","name":"","type":"uint256"}],"stateMutability":"view","type":"function"},{"inputs":[],"name":"maxSupply","outputs":[{"internalType":"uint256","name":"","type":"uint256"}],"stateMutability":"view","type":"function"},{"inputs":[],"name":"merkleRoot","outputs":[{"internalType":"bytes32","name":"","type":"bytes32"}],"stateMutability":"view","type":"function"},{"inputs":[{"internalType":"uint256","name":"quantity","type":"uint256"}],"name":"mint","outputs":[],"stateMutability":"payable","type":"function"},{"inputs":[],"name":"mintPhase","outputs":[{"internalType":"uint256","name":"","type":"uint256"}],"stateMutability":"view","type":"function"},{"inputs":[],"name":"mintRate","outputs":[{"internalType":"uint256","name":"","type":"uint256"}],"stateMutability":"view","type":"function"},{"inputs":[],"name":"name","outputs":[{"internalType":"string","name":"","type":"string"}],"stateMutability":"view","type":"function"},{"inputs":[],"name":"owner","outputs":[{"internalType":"address","name":"","type":"address"}],"stateMutability":"view","type":"function"},{"inputs":[{"internalType":"uint256","name":"tokenId","type":"uint256"}],"name":"ownerOf","outputs":[{"internalType":"address","name":"","type":"address"}],"stateMutability":"view","type":"function"},{"inputs":[],"name":"paused","outputs":[{"internalType":"bool","name":"","type":"bool"}],"stateMutability":"view","type":"function"},{"inputs":[],"name":"renounceOwnership","outputs":[],"stateMutability":"nonpayable","type":"function"},{"inputs":[{"internalType":"uint256","name":"quantity","type":"uint256"}],"name":"reserveMint","outputs":[],"stateMutability":"nonpayable","type":"function"},{"inputs":[],"name":"revealed","outputs":[{"internalType":"bool","name":"","type":"bool"}],"stateMutability":"view","type":"function"},{"inputs":[{"internalType":"address","name":"from","type":"address"},{"internalType":"address","name":"to","type":"address"},{"internalType":"uint256","name":"tokenId","type":"uint256"}],"name":"safeTransferFrom","outputs":[],"stateMutability":"payable","type":"function"},{"inputs":[{"internalType":"address","name":"from","type":"address"},{"internalType":"address","name":"to","type":"address"},{"internalType":"uint256","name":"tokenId","type":"uint256"},{"internalType":"bytes","name":"data","type":"bytes"}],"name":"safeTransferFrom","outputs":[],"stateMutability":"payable","type":"function"},{"inputs":[{"internalType":"address","name":"operator","type":"address"},{"internalType":"bool","name":"approved","type":"bool"}],"name":"setApprovalForAll","outputs":[],"stateMutability":"nonpayable","type":"function"},{"inputs":[{"internalType":"string","name":"_newBaseURI","type":"string"}],"name":"setBaseURI","outputs":[],"stateMutability":"nonpayable","type":"function"},{"inputs":[{"internalType":"bytes32","name":"_root","type":"bytes32"}],"name":"setMerkleRoot","outputs":[],"stateMutability":"nonpayable","type":"function"},{"inputs":[{"internalType":"uint256","name":"_phase","type":"uint256"}],"name":"setMintPhase","outputs":[],"stateMutability":"nonpayable","type":"function"},{"inputs":[],"name":"setTogglePaused","outputs":[],"stateMutability":"nonpayable","type":"function"},{"inputs":[{"internalType":"string","name":"str","type":"string"},{"internalType":"uint256","name":"startIndex","type":"uint256"},{"internalType":"uint256","name":"endIndex","type":"uint256"}],"name":"substring","outputs":[{"internalType":"string","name":"","type":"string"}],"stateMutability":"pure","type":"function"},{"inputs":[{"internalType":"bytes4","name":"interfaceId","type":"bytes4"}],"name":"supportsInterface","outputs":[{"internalType":"bool","name":"","type":"bool"}],"stateMutability":"view","type":"function"},{"inputs":[],"name":"symbol","outputs":[{"internalType":"string","name":"","type":"string"}],"stateMutability":"view","type":"function"},{"inputs":[{"internalType":"uint256","name":"_tokenId","type":"uint256"}],"name":"tokenURI","outputs":[{"internalType":"string","name":"","type":"string"}],"stateMutability":"view","type":"function"},{"inputs":[],"name":"totalSupply","outputs":[{"internalType":"uint256","name":"","type":"uint256"}],"stateMutability":"view","type":"function"},{"inputs":[{"internalType":"address","name":"from","type":"address"},{"internalType":"address","name":"to","type":"address"},{"internalType":"uint256","name":"tokenId","type":"uint256"}],"name":"transferFrom","outputs":[],"stateMutability":"payable","type":"function"},{"inputs":[{"internalType":"address","name":"newOwner","type":"address"}],"name":"transferOwnership","outputs":[],"stateMutability":"nonpayable","type":"function"},{"inputs":[{"internalType":"address","name":"","type":"address"}],"name":"usedAddresses","outputs":[{"internalType":"uint256","name":"","type":"uint256"}],"stateMutability":"view","type":"function"},{"inputs":[],"name":"whiteListMaxMints","outputs":[{"internalType":"uint256","name":"","type":"uint256"}],"stateMutability":"view","type":"function"},{"inputs":[{"internalType":"uint256","name":"quantity","type":"uint256"},{"internalType":"bytes32[]","name":"proof","type":"bytes32[]"}],"name":"whiteListMint","outputs":[],"stateMutability":"payable","type":"function"},{"inputs":[{"internalType":"address","name":"","type":"address"}],"name":"whiteListUsedAddresses","outputs":[{"internalType":"uint256","name":"","type":"uint256"}],"stateMutability":"view","type":"function"},{"inputs":[],"name":"withdraw","outputs":[],"stateMutability":"nonpayable","type":"function"}],"evm":{"bytecode":{"linkReferences":{},"object":"60806040526005600a556001600b55611a0a600c55666a94d74f430000600d556040518060400160405280600581526020017f2e6a736f6e000000000000000000000000000000000000000000000000000000815250600e90805190602001906200006c929190620004b4565b5060405180602001604052806000815250600f908051906020019062000094929190620004b4565b50604051806080016040528060548152602001620047806054913960109080519060200190620000c6929190620004b4565b506000601260006101000a81548160ff0219169083151502179055506000601260016101000a81548160ff0219169083151502179055503480156200010a57600080fd5b506000806040518060400160405280600f81526020017f4b6974737564656e466f78466f6e6500000000000000000000000000000000008152506040518060400160405280600581526020017f4b53444646000000000000000000000000000000000000000000000000000000815250816002908051906020019062000192929190620004b4565b508060039080519060200190620001ab929190620004b4565b50620001bc620003e160201b60201c565b6000819055505050620001e4620001d8620003e660201b60201c565b620003ee60201b60201c565b60006daaeb6d7670e522a718067333cd4e73ffffffffffffffffffffffffffffffffffffffff163b1115620003d95780156200029f576daaeb6d7670e522a718067333cd4e73ffffffffffffffffffffffffffffffffffffffff16637d3e3dbe30846040518363ffffffff1660e01b815260040162000265929190620005a9565b600060405180830381600087803b1580156200028057600080fd5b505af115801562000295573d6000803e3d6000fd5b50505050620003d8565b600073ffffffffffffffffffffffffffffffffffffffff168273ffffffffffffffffffffffffffffffffffffffff161462000359576daaeb6d7670e522a718067333cd4e73ffffffffffffffffffffffffffffffffffffffff1663a0af290330846040518363ffffffff1660e01b81526004016200031f929190620005a9565b600060405180830381600087803b1580156200033a57600080fd5b505af11580156200034f573d6000803e3d6000fd5b50505050620003d7565b6daaeb6d7670e522a718067333cd4e73ffffffffffffffffffffffffffffffffffffffff16634420e486306040518263ffffffff1660e01b8152600401620003a29190620005d6565b600060405180830381600087803b158015620003bd57600080fd5b505af1158015620003d2573d6000803e3d6000fd5b505050505b5b5b505062000658565b600090565b600033905090565b6000600860009054906101000a900473ffffffffffffffffffffffffffffffffffffffff16905081600860006101000a81548173ffffffffffffffffffffffffffffffffffffffff021916908373ffffffffffffffffffffffffffffffffffffffff1602179055508173ffffffffffffffffffffffffffffffffffffffff168173ffffffffffffffffffffffffffffffffffffffff167f8be0079c531659141344cd1fd0a4f28419497f9722a3daafe3b4186f6b6457e060405160405180910390a35050565b828054620004c29062000622565b90600052602060002090601f016020900481019282620004e6576000855562000532565b82601f106200050157805160ff191683800117855562000532565b8280016001018555821562000532579182015b828111156200053157825182559160200191906001019062000514565b5b50905062000541919062000545565b5090565b5b808211156200056057600081600090555060010162000546565b5090565b600073ffffffffffffffffffffffffffffffffffffffff82169050919050565b6000620005918262000564565b9050919050565b620005a38162000584565b82525050565b6000604082019050620005c0600083018562000598565b620005cf602083018462000598565b9392505050565b6000602082019050620005ed600083018462000598565b92915050565b7f4e487b7100000000000000000000000000000000000000000000000000000000600052602260045260246000fd5b600060028204905060018216806200063b57607f821691505b60208210811415620006525762000651620005f3565b5b50919050565b61411880620006686000396000f3fe6080604052600436106102305760003560e01c806370a082311161012e578063b6b6f0c3116100ab578063d5abeb011161006f578063d5abeb01146107ef578063e985e9c51461081a578063ee5735a814610857578063f14a058814610882578063f2fde38b1461089957610230565b8063b6b6f0c314610715578063b88d4fde14610740578063c66828621461075c578063c87b56dd14610787578063ca0dcf16146107c457610230565b8063943431bf116100f2578063943431bf1461063f57806395d89b4114610668578063a0712d6814610693578063a22cb465146106af578063acdce273146106d857610230565b806370a082311461056c578063715018a6146105a95780637cb64759146105c05780638da5cb5b146105e95780638fe11a971461061457610230565b80631dcd9b55116101bc5780635183022711610180578063518302271461048557806355f804b3146104b05780635c975abb146104d95780636352211e146105045780636c0360eb1461054157610230565b80631dcd9b55146103ce57806323b872dd1461040b5780632eb4a7ab146104275780633ccfd60b1461045257806342842e0e1461046957610230565b8063118768751161020357806311876875146102f65780631342ff4c1461031257806313bfabc01461033b57806317881cbf1461037857806318160ddd146103a357610230565b806301ffc9a71461023557806306fdde0314610272578063081812fc1461029d578063095ea7b3146102da575b600080fd5b34801561024157600080fd5b5061025c6004803603810190610257919061305f565b6108c2565b60405161026991906130a7565b60405180910390f35b34801561027e57600080fd5b50610287610954565b604051610294919061315b565b60405180910390f35b3480156102a957600080fd5b506102c460048036038101906102bf91906131b3565b6109e6565b6040516102d19190613221565b60405180910390f35b6102f460048036038101906102ef9190613268565b610a65565b005b610310600480360381019061030b919061330d565b610ba9565b005b34801561031e57600080fd5b50610339600480360381019061033491906131b3565b610df5565b005b34801561034757600080fd5b50610362600480360381019061035d919061336d565b610e58565b60405161036f91906133a9565b60405180910390f35b34801561038457600080fd5b5061038d610e70565b60405161039a91906133a9565b60405180910390f35b3480156103af57600080fd5b506103b8610e76565b6040516103c591906133a9565b60405180910390f35b3480156103da57600080fd5b506103f560048036038101906103f091906134f4565b610e8d565b604051610402919061315b565b60405180910390f35b61042560048036038101906104209190613563565b610f89565b005b34801561043357600080fd5b5061043c61118a565b60405161044991906135cf565b60405180910390f35b34801561045e57600080fd5b50610467611190565b005b610483600480360381019061047e9190613563565b6111e8565b005b34801561049157600080fd5b5061049a6113e9565b6040516104a791906130a7565b60405180910390f35b3480156104bc57600080fd5b506104d760048036038101906104d291906135ea565b6113fc565b005b3480156104e557600080fd5b506104ee611575565b6040516104fb91906130a7565b60405180910390f35b34801561051057600080fd5b5061052b600480360381019061052691906131b3565b611588565b6040516105389190613221565b60405180910390f35b34801561054d57600080fd5b5061055661159a565b604051610563919061315b565b60405180910390f35b34801561057857600080fd5b50610593600480360381019061058e919061336d565b611628565b6040516105a091906133a9565b60405180910390f35b3480156105b557600080fd5b506105be6116e1565b005b3480156105cc57600080fd5b506105e760048036038101906105e2919061365f565b6116f5565b005b3480156105f557600080fd5b506105fe611707565b60405161060b9190613221565b60405180910390f35b34801561062057600080fd5b50610629611731565b604051610636919061315b565b60405180910390f35b34801561064b57600080fd5b50610666600480360381019061066191906131b3565b6117bf565b005b34801561067457600080fd5b5061067d6117d1565b60405161068a919061315b565b60405180910390f35b6106ad60048036038101906106a891906131b3565b611863565b005b3480156106bb57600080fd5b506106d660048036038101906106d191906136b8565b611a6c565b005b3480156106e457600080fd5b506106ff60048036038101906106fa919061336d565b611b77565b60405161070c91906133a9565b60405180910390f35b34801561072157600080fd5b5061072a611b8f565b60405161073791906133a9565b60405180910390f35b61075a60048036038101906107559190613799565b611b95565b005b34801561076857600080fd5b50610771611d99565b60405161077e919061315b565b60405180910390f35b34801561079357600080fd5b506107ae60048036038101906107a991906131b3565b611e27565b6040516107bb919061315b565b60405180910390f35b3480156107d057600080fd5b506107d9611ef1565b6040516107e691906133a9565b60405180910390f35b3480156107fb57600080fd5b50610804611ef7565b60405161081191906133a9565b60405180910390f35b34801561082657600080fd5b50610841600480360381019061083c919061381c565b611efd565b60405161084e91906130a7565b60405180910390f35b34801561086357600080fd5b5061086c611f91565b60405161087991906133a9565b60405180910390f35b34801561088e57600080fd5b50610897611f97565b005b3480156108a557600080fd5b506108c060048036038101906108bb919061336d565b611fcb565b005b60006301ffc9a760e01b827bffffffffffffffffffffffffffffffffffffffffffffffffffffffff1916148061091d57506380ac58cd60e01b827bffffffffffffffffffffffffffffffffffffffffffffffffffffffff1916145b8061094d5750635b5e139f60e01b827bffffffffffffffffffffffffffffffffffffffffffffffffffffffff1916145b9050919050565b6060600280546109639061388b565b80601f016020809104026020016040519081016040528092919081815260200182805461098f9061388b565b80156109dc5780601f106109b1576101008083540402835291602001916109dc565b820191906000526020600020905b8154815290600101906020018083116109bf57829003601f168201915b5050505050905090565b60006109f18261204f565b610a27576040517fcf4700e400000000000000000000000000000000000000000000000000000000815260040160405180910390fd5b6006600083815260200190815260200160002060000160009054906101000a900473ffffffffffffffffffffffffffffffffffffffff169050919050565b6000610a7082611588565b90508073ffffffffffffffffffffffffffffffffffffffff16610a916120ae565b73ffffffffffffffffffffffffffffffffffffffff1614610af457610abd81610ab86120ae565b611efd565b610af3576040517fcfb3b94200000000000000000000000000000000000000000000000000000000815260040160405180910390fd5b5b826006600084815260200190815260200160002060000160006101000a81548173ffffffffffffffffffffffffffffffffffffffff021916908373ffffffffffffffffffffffffffffffffffffffff160217905550818373ffffffffffffffffffffffffffffffffffffffff168273ffffffffffffffffffffffffffffffffffffffff167f8c5be1e5ebec7d5bd14f71427d1e84f3dd0314c0f7b2291e5b200ac8c7c3b92560405160405180910390a4505050565b601260009054906101000a900460ff1615610bf9576040517f08c379a0000000000000000000000000000000000000000000000000000000008152600401610bf090613909565b60405180910390fd5b600160115414610c35576040517f1e94bf2d00000000000000000000000000000000000000000000000000000000815260040160405180910390fd5b610c403383836120b6565b610c76576040517f3f1636e200000000000000000000000000000000000000000000000000000000815260040160405180910390fd5b600c5483610c82610e76565b610c8c9190613958565b1115610cc4576040517f76592c6f00000000000000000000000000000000000000000000000000000000815260040160405180910390fd5b3483600d54610cd391906139ae565b14610d0a576040517fb457f15800000000000000000000000000000000000000000000000000000000815260040160405180910390fd5b600b5483601360003373ffffffffffffffffffffffffffffffffffffffff1673ffffffffffffffffffffffffffffffffffffffff16815260200190815260200160002054610d589190613958565b1115610d90576040517f38d8b70c00000000000000000000000000000000000000000000000000000000815260040160405180910390fd5b82601360003373ffffffffffffffffffffffffffffffffffffffff1673ffffffffffffffffffffffffffffffffffffffff1681526020019081526020016000206000828254610ddf9190613958565b92505081905550610df03384612114565b505050565b610dfd6122d1565b600c5481610e09610e76565b610e139190613958565b1115610e4b576040517f76592c6f00000000000000000000000000000000000000000000000000000000815260040160405180910390fd5b610e553382612114565b50565b60136020528060005260406000206000915090505481565b60115481565b6000610e8061234f565b6001546000540303905090565b6060600084905060008484610ea29190613a08565b67ffffffffffffffff811115610ebb57610eba6133c9565b5b6040519080825280601f01601f191660200182016040528015610eed5781602001600182028036833780820191505090505b50905060008590505b84811015610f7c57828181518110610f1157610f10613a3c565b5b602001015160f81c60f81b828783610f299190613a08565b81518110610f3a57610f39613a3c565b5b60200101907effffffffffffffffffffffffffffffffffffffffffffffffffffffffffffff1916908160001a9053508080610f7490613a6b565b915050610ef6565b5080925050509392505050565b8260006daaeb6d7670e522a718067333cd4e73ffffffffffffffffffffffffffffffffffffffff163b1115611178573373ffffffffffffffffffffffffffffffffffffffff168173ffffffffffffffffffffffffffffffffffffffff161415610ffc57610ff7848484612354565b611184565b6daaeb6d7670e522a718067333cd4e73ffffffffffffffffffffffffffffffffffffffff1663c617113430336040518363ffffffff1660e01b8152600401611045929190613ab4565b60206040518083038186803b15801561105d57600080fd5b505afa158015611071573d6000803e3d6000fd5b505050506040513d601f19601f820116820180604052508101906110959190613af2565b801561113657506daaeb6d7670e522a718067333cd4e73ffffffffffffffffffffffffffffffffffffffff1663c617113430836040518363ffffffff1660e01b81526004016110e5929190613ab4565b60206040518083038186803b1580156110fd57600080fd5b505afa158015611111573d6000803e3d6000fd5b505050506040513d601f19601f820116820180604052508101906111359190613af2565b5b61117757336040517fede71dcc00000000000000000000000000000000000000000000000000000000815260040161116e9190613221565b60405180910390fd5b5b611183848484612354565b5b50505050565b60095481565b6111986122d1565b6111a0611707565b73ffffffffffffffffffffffffffffffffffffffff166108fc479081150290604051600060405180830381858888f193505050501580156111e5573d6000803e3d6000fd5b50565b8260006daaeb6d7670e522a718067333cd4e73ffffffffffffffffffffffffffffffffffffffff163b11156113d7573373ffffffffffffffffffffffffffffffffffffffff168173ffffffffffffffffffffffffffffffffffffffff16141561125b57611256848484612679565b6113e3565b6daaeb6d7670e522a718067333cd4e73ffffffffffffffffffffffffffffffffffffffff1663c617113430336040518363ffffffff1660e01b81526004016112a4929190613ab4565b60206040518083038186803b1580156112bc57600080fd5b505afa1580156112d0573d6000803e3d6000fd5b505050506040513d601f19601f820116820180604052508101906112f49190613af2565b801561139557506daaeb6d7670e522a718067333cd4e73ffffffffffffffffffffffffffffffffffffffff1663c617113430836040518363ffffffff1660e01b8152600401611344929190613ab4565b60206040518083038186803b15801561135c57600080fd5b505afa158015611370573d6000803e3d6000fd5b505050506040513d601f19601f820116820180604052508101906113949190613af2565b5b6113d657336040517fede71dcc0000000000000000000000000000000000000000000000000000000081526004016113cd9190613221565b60405180910390fd5b5b6113e2848484612679565b5b50505050565b601260019054906101000a900460ff1681565b6114046122d1565b6001815111611448576040517f08c379a000000000000000000000000000000000000000000000000000000000815260040161143f90613b6b565b60405180910390fd5b600061145382612699565b9050600061146e836001846114689190613a08565b84610e8d565b90506114af816040518060400160405280600181526020017f2f0000000000000000000000000000000000000000000000000000000000000081525061284e565b6114ee576040517f08c379a00000000000000000000000000000000000000000000000000000000081526004016114e590613bfd565b60405180910390fd5b601260019054906101000a900460ff161561153e576040517f08c379a000000000000000000000000000000000000000000000000000000000815260040161153590613c69565b60405180910390fd5b6001601260016101000a81548160ff02191690831515021790555082600f908051906020019061156f929190612f50565b50505050565b601260009054906101000a900460ff1681565b6000611593826128a7565b9050919050565b600f80546115a79061388b565b80601f01602080910402602001604051908101604052809291908181526020018280546115d39061388b565b80156116205780601f106115f557610100808354040283529160200191611620565b820191906000526020600020905b81548152906001019060200180831161160357829003601f168201915b505050505081565b60008073ffffffffffffffffffffffffffffffffffffffff168273ffffffffffffffffffffffffffffffffffffffff161415611690576040517f8f4eb60400000000000000000000000000000000000000000000000000000000815260040160405180910390fd5b67ffffffffffffffff600560008473ffffffffffffffffffffffffffffffffffffffff1673ffffffffffffffffffffffffffffffffffffffff16815260200190815260200160002054169050919050565b6116e96122d1565b6116f36000612975565b565b6116fd6122d1565b8060098190555050565b6000600860009054906101000a900473ffffffffffffffffffffffffffffffffffffffff16905090565b6010805461173e9061388b565b80601f016020809104026020016040519081016040528092919081815260200182805461176a9061388b565b80156117b75780601f1061178c576101008083540402835291602001916117b7565b820191906000526020600020905b81548152906001019060200180831161179a57829003601f168201915b505050505081565b6117c76122d1565b8060118190555050565b6060600380546117e09061388b565b80601f016020809104026020016040519081016040528092919081815260200182805461180c9061388b565b80156118595780601f1061182e57610100808354040283529160200191611859565b820191906000526020600020905b81548152906001019060200180831161183c57829003601f168201915b5050505050905090565b601260009054906101000a900460ff16156118b3576040517f08c379a00000000000000000000000000000000000000000000000000000000081526004016118aa90613909565b60405180910390fd5b6002601154146118ef576040517fa9f4f87100000000000000000000000000000000000000000000000000000000815260040160405180910390fd5b600c54816118fb610e76565b6119059190613958565b111561193d576040517f76592c6f00000000000000000000000000000000000000000000000000000000815260040160405180910390fd5b3481600d5461194c91906139ae565b14611983576040517fb457f15800000000000000000000000000000000000000000000000000000000815260040160405180910390fd5b600a54601460003373ffffffffffffffffffffffffffffffffffffffff1673ffffffffffffffffffffffffffffffffffffffff16815260200190815260200160002054826119d19190613958565b1115611a09576040517f38d8b70c00000000000000000000000000000000000000000000000000000000815260040160405180910390fd5b80601460003373ffffffffffffffffffffffffffffffffffffffff1673ffffffffffffffffffffffffffffffffffffffff1681526020019081526020016000206000828254611a589190613958565b92505081905550611a693382612114565b50565b8060076000611a796120ae565b73ffffffffffffffffffffffffffffffffffffffff1673ffffffffffffffffffffffffffffffffffffffff16815260200190815260200160002060008473ffffffffffffffffffffffffffffffffffffffff1673ffffffffffffffffffffffffffffffffffffffff16815260200190815260200160002060006101000a81548160ff0219169083151502179055508173ffffffffffffffffffffffffffffffffffffffff16611b266120ae565b73ffffffffffffffffffffffffffffffffffffffff167f17307eab39ab6107e8899845ad3d59bd9653f200f220920489ca2b5937696c3183604051611b6b91906130a7565b60405180910390a35050565b60146020528060005260406000206000915090505481565b600a5481565b8360006daaeb6d7670e522a718067333cd4e73ffffffffffffffffffffffffffffffffffffffff163b1115611d85573373ffffffffffffffffffffffffffffffffffffffff168173ffffffffffffffffffffffffffffffffffffffff161415611c0957611c0485858585612a3b565b611d92565b6daaeb6d7670e522a718067333cd4e73ffffffffffffffffffffffffffffffffffffffff1663c617113430336040518363ffffffff1660e01b8152600401611c52929190613ab4565b60206040518083038186803b158015611c6a57600080fd5b505afa158015611c7e573d6000803e3d6000fd5b505050506040513d601f19601f82011682018060405250810190611ca29190613af2565b8015611d4357506daaeb6d7670e522a718067333cd4e73ffffffffffffffffffffffffffffffffffffffff1663c617113430836040518363ffffffff1660e01b8152600401611cf2929190613ab4565b60206040518083038186803b158015611d0a57600080fd5b505afa158015611d1e573d6000803e3d6000fd5b505050506040513d601f19601f82011682018060405250810190611d429190613af2565b5b611d8457336040517fede71dcc000000000000000000000000000000000000000000000000000000008152600401611d7b9190613221565b60405180910390fd5b5b611d9185858585612a3b565b5b5050505050565b600e8054611da69061388b565b80601f0160208091040260200160405190810160405280929190818152602001828054611dd29061388b565b8015611e1f5780601f10611df457610100808354040283529160200191611e1f565b820191906000526020600020905b815481529060010190602001808311611e0257829003601f168201915b505050505081565b6060611e328261204f565b611e71576040517f08c379a0000000000000000000000000000000000000000000000000000000008152600401611e6890613cd5565b60405180910390fd5b601260019054906101000a900460ff1615611ebb57600f611e9183612aae565b600e604051602001611ea593929190613dc5565b6040516020818303038152906040529050611eec565b6010611ec683612aae565b600e604051602001611eda93929190613dc5565b60405160208183030381529060405290505b919050565b600d5481565b600c5481565b6000600760008473ffffffffffffffffffffffffffffffffffffffff1673ffffffffffffffffffffffffffffffffffffffff16815260200190815260200160002060008373ffffffffffffffffffffffffffffffffffffffff1673ffffffffffffffffffffffffffffffffffffffff16815260200190815260200160002060009054906101000a900460ff16905092915050565b600b5481565b611f9f6122d1565b601260009054906101000a900460ff1615601260006101000a81548160ff021916908315150217905550565b611fd36122d1565b600073ffffffffffffffffffffffffffffffffffffffff168173ffffffffffffffffffffffffffffffffffffffff161415612043576040517f08c379a000000000000000000000000000000000000000000000000000000000815260040161203a90613e68565b60405180910390fd5b61204c81612975565b50565b60008161205a61234f565b11158015612069575060005482105b80156120a7575060007c0100000000000000000000000000000000000000000000000000000000600460008581526020019081526020016000205416145b9050919050565b600033905090565b600061210b6120c485612c0f565b848480806020026020016040519081016040528093929190818152602001838360200280828437600081840152601f19601f82011690508083019250505050505050612c3f565b90509392505050565b6000805490506000821415612155576040517fb562e8dd00000000000000000000000000000000000000000000000000000000815260040160405180910390fd5b6121626000848385612c56565b600160406001901b178202600560008573ffffffffffffffffffffffffffffffffffffffff1673ffffffffffffffffffffffffffffffffffffffff168152602001908152602001600020600082825401925050819055506121d9836121ca6000866000612c5c565b6121d385612c84565b17612c94565b6004600083815260200190815260200160002081905550600080838301905073ffffffffffffffffffffffffffffffffffffffff85169150828260007fddf252ad1be2c89b69c2b068fc378daa952ba7f163c4a11628f55a4df523b3ef600080a4600183015b81811461227a57808360007fddf252ad1be2c89b69c2b068fc378daa952ba7f163c4a11628f55a4df523b3ef600080a460018101905061223f565b5060008214156122b6576040517f2e07630000000000000000000000000000000000000000000000000000000000815260040160405180910390fd5b8060008190555050506122cc6000848385612cbf565b505050565b6122d9612cc5565b73ffffffffffffffffffffffffffffffffffffffff166122f7611707565b73ffffffffffffffffffffffffffffffffffffffff161461234d576040517f08c379a000000000000000000000000000000000000000000000000000000000815260040161234490613ed4565b60405180910390fd5b565b600090565b600061235f826128a7565b90508373ffffffffffffffffffffffffffffffffffffffff168173ffffffffffffffffffffffffffffffffffffffff16146123c6576040517fa114810000000000000000000000000000000000000000000000000000000000815260040160405180910390fd5b6000806123d284612ccd565b915091506123e881876123e36120ae565b612cf4565b612434576123fd866123f86120ae565b611efd565b612433576040517f59c896be00000000000000000000000000000000000000000000000000000000815260040160405180910390fd5b5b600073ffffffffffffffffffffffffffffffffffffffff168573ffffffffffffffffffffffffffffffffffffffff16141561249b576040517fea553b3400000000000000000000000000000000000000000000000000000000815260040160405180910390fd5b6124a88686866001612c56565b80156124b357600082555b600560008773ffffffffffffffffffffffffffffffffffffffff1673ffffffffffffffffffffffffffffffffffffffff168152602001908152602001600020600081546001900391905081905550600560008673ffffffffffffffffffffffffffffffffffffffff1673ffffffffffffffffffffffffffffffffffffffff16815260200190815260200160002060008154600101919050819055506125818561255d888887612c5c565b7c020000000000000000000000000000000000000000000000000000000017612c94565b600460008681526020019081526020016000208190555060007c020000000000000000000000000000000000000000000000000000000084161415612609576000600185019050600060046000838152602001908152602001600020541415612607576000548114612606578360046000838152602001908152602001600020819055505b5b505b838573ffffffffffffffffffffffffffffffffffffffff168773ffffffffffffffffffffffffffffffffffffffff167fddf252ad1be2c89b69c2b068fc378daa952ba7f163c4a11628f55a4df523b3ef60405160405180910390a46126718686866001612cbf565b505050505050565b61269483838360405180602001604052806000815250611b95565b505050565b60008060008084519050600092505b808210156128435760008583815181106126c5576126c4613a3c565b5b602001015160f81c60f81b9050608060f81b817effffffffffffffffffffffffffffffffffffffffffffffffffffffffffffff191610156127145760018361270d9190613958565b925061282f565b60e060f81b817effffffffffffffffffffffffffffffffffffffffffffffffffffffffffffff191610156127565760028361274f9190613958565b925061282e565b60f060f81b817effffffffffffffffffffffffffffffffffffffffffffffffffffffffffffff19161015612798576003836127919190613958565b925061282d565b60f8801b817effffffffffffffffffffffffffffffffffffffffffffffffffffffffffffff191610156127d9576004836127d29190613958565b925061282c565b60fc60f81b817effffffffffffffffffffffffffffffffffffffffffffffffffffffffffffff1916101561281b576005836128149190613958565b925061282b565b6006836128289190613958565b92505b5b5b5b5b50828061283b90613a6b565b9350506126a8565b829350505050919050565b6000816040516020016128619190613ef4565b60405160208183030381529060405280519060200120836040516020016128889190613ef4565b6040516020818303038152906040528051906020012014905092915050565b600080829050806128b661234f565b1161293e5760005481101561293d5760006004600083815260200190815260200160002054905060007c01000000000000000000000000000000000000000000000000000000008216141561293b575b6000811415612931576004600083600190039350838152602001908152602001600020549050612906565b8092505050612970565b505b5b6040517fdf2d9b4200000000000000000000000000000000000000000000000000000000815260040160405180910390fd5b919050565b6000600860009054906101000a900473ffffffffffffffffffffffffffffffffffffffff16905081600860006101000a81548173ffffffffffffffffffffffffffffffffffffffff021916908373ffffffffffffffffffffffffffffffffffffffff1602179055508173ffffffffffffffffffffffffffffffffffffffff168173ffffffffffffffffffffffffffffffffffffffff167f8be0079c531659141344cd1fd0a4f28419497f9722a3daafe3b4186f6b6457e060405160405180910390a35050565b612a46848484610f89565b60008373ffffffffffffffffffffffffffffffffffffffff163b14612aa857612a7184848484612d38565b612aa7576040517fd1a57ed600000000000000000000000000000000000000000000000000000000815260040160405180910390fd5b5b50505050565b60606000821415612af6576040518060400160405280600181526020017f30000000000000000000000000000000000000000000000000000000000000008152509050612c0a565b600082905060005b60008214612b28578080612b1190613a6b565b915050600a82612b219190613f3a565b9150612afe565b60008167ffffffffffffffff811115612b4457612b436133c9565b5b6040519080825280601f01601f191660200182016040528015612b765781602001600182028036833780820191505090505b5090505b60008514612c0357600182612b8f9190613a08565b9150600a85612b9e9190613f6b565b6030612baa9190613958565b60f81b818381518110612bc057612bbf613a3c565b5b60200101907effffffffffffffffffffffffffffffffffffffffffffffffffffffffffffff1916908160001a905350600a85612bfc9190613f3a565b9450612b7a565b8093505050505b919050565b600081604051602001612c229190613fe4565b604051602081830303815290604052805190602001209050919050565b6000612c4e8260095485612e98565b905092915050565b50505050565b60008060e883901c905060e8612c73868684612eaf565b62ffffff16901b9150509392505050565b60006001821460e11b9050919050565b600073ffffffffffffffffffffffffffffffffffffffff83169250814260a01b178317905092915050565b50505050565b600033905090565b60008060006006600085815260200190815260200160002090508092508254915050915091565b600073ffffffffffffffffffffffffffffffffffffffff8316925073ffffffffffffffffffffffffffffffffffffffff821691508382148383141790509392505050565b60008373ffffffffffffffffffffffffffffffffffffffff1663150b7a02612d5e6120ae565b8786866040518563ffffffff1660e01b8152600401612d809493929190614054565b602060405180830381600087803b158015612d9a57600080fd5b505af1925050508015612dcb57506040513d601f19601f82011682018060405250810190612dc891906140b5565b60015b612e45573d8060008114612dfb576040519150601f19603f3d011682016040523d82523d6000602084013e612e00565b606091505b50600081511415612e3d576040517fd1a57ed600000000000000000000000000000000000000000000000000000000815260040160405180910390fd5b805181602001fd5b63150b7a0260e01b7bffffffffffffffffffffffffffffffffffffffffffffffffffffffff1916817bffffffffffffffffffffffffffffffffffffffffffffffffffffffff191614915050949350505050565b600082612ea58584612eb8565b1490509392505050565b60009392505050565b60008082905060005b8451811015612f0357612eee82868381518110612ee157612ee0613a3c565b5b6020026020010151612f0e565b91508080612efb90613a6b565b915050612ec1565b508091505092915050565b6000818310612f2657612f218284612f39565b612f31565b612f308383612f39565b5b905092915050565b600082600052816020526040600020905092915050565b828054612f5c9061388b565b90600052602060002090601f016020900481019282612f7e5760008555612fc5565b82601f10612f9757805160ff1916838001178555612fc5565b82800160010185558215612fc5579182015b82811115612fc4578251825591602001919060010190612fa9565b5b509050612fd29190612fd6565b5090565b5b80821115612fef576000816000905550600101612fd7565b5090565b6000604051905090565b600080fd5b600080fd5b60007fffffffff0000000000000000000000000000000000000000000000000000000082169050919050565b61303c81613007565b811461304757600080fd5b50565b60008135905061305981613033565b92915050565b60006020828403121561307557613074612ffd565b5b60006130838482850161304a565b91505092915050565b60008115159050919050565b6130a18161308c565b82525050565b60006020820190506130bc6000830184613098565b92915050565b600081519050919050565b600082825260208201905092915050565b60005b838110156130fc5780820151818401526020810190506130e1565b8381111561310b576000848401525b50505050565b6000601f19601f8301169050919050565b600061312d826130c2565b61313781856130cd565b93506131478185602086016130de565b61315081613111565b840191505092915050565b600060208201905081810360008301526131758184613122565b905092915050565b6000819050919050565b6131908161317d565b811461319b57600080fd5b50565b6000813590506131ad81613187565b92915050565b6000602082840312156131c9576131c8612ffd565b5b60006131d78482850161319e565b91505092915050565b600073ffffffffffffffffffffffffffffffffffffffff82169050919050565b600061320b826131e0565b9050919050565b61321b81613200565b82525050565b60006020820190506132366000830184613212565b92915050565b61324581613200565b811461325057600080fd5b50565b6000813590506132628161323c565b92915050565b6000806040838503121561327f5761327e612ffd565b5b600061328d85828601613253565b925050602061329e8582860161319e565b9150509250929050565b600080fd5b600080fd5b600080fd5b60008083601f8401126132cd576132cc6132a8565b5b8235905067ffffffffffffffff8111156132ea576132e96132ad565b5b602083019150836020820283011115613306576133056132b2565b5b9250929050565b60008060006040848603121561332657613325612ffd565b5b60006133348682870161319e565b935050602084013567ffffffffffffffff81111561335557613354613002565b5b613361868287016132b7565b92509250509250925092565b60006020828403121561338357613382612ffd565b5b600061339184828501613253565b91505092915050565b6133a38161317d565b82525050565b60006020820190506133be600083018461339a565b92915050565b600080fd5b7f4e487b7100000000000000000000000000000000000000000000000000000000600052604160045260246000fd5b61340182613111565b810181811067ffffffffffffffff821117156134205761341f6133c9565b5b80604052505050565b6000613433612ff3565b905061343f82826133f8565b919050565b600067ffffffffffffffff82111561345f5761345e6133c9565b5b61346882613111565b9050602081019050919050565b82818337600083830152505050565b600061349761349284613444565b613429565b9050828152602081018484840111156134b3576134b26133c4565b5b6134be848285613475565b509392505050565b600082601f8301126134db576134da6132a8565b5b81356134eb848260208601613484565b91505092915050565b60008060006060848603121561350d5761350c612ffd565b5b600084013567ffffffffffffffff81111561352b5761352a613002565b5b613537868287016134c6565b93505060206135488682870161319e565b92505060406135598682870161319e565b9150509250925092565b60008060006060848603121561357c5761357b612ffd565b5b600061358a86828701613253565b935050602061359b86828701613253565b92505060406135ac8682870161319e565b9150509250925092565b6000819050919050565b6135c9816135b6565b82525050565b60006020820190506135e460008301846135c0565b92915050565b600060208284031215613600576135ff612ffd565b5b600082013567ffffffffffffffff81111561361e5761361d613002565b5b61362a848285016134c6565b91505092915050565b61363c816135b6565b811461364757600080fd5b50565b60008135905061365981613633565b92915050565b60006020828403121561367557613674612ffd565b5b60006136838482850161364a565b91505092915050565b6136958161308c565b81146136a057600080fd5b50565b6000813590506136b28161368c565b92915050565b600080604083850312156136cf576136ce612ffd565b5b60006136dd85828601613253565b92505060206136ee858286016136a3565b9150509250929050565b600067ffffffffffffffff821115613713576137126133c9565b5b61371c82613111565b9050602081019050919050565b600061373c613737846136f8565b613429565b905082815260208101848484011115613758576137576133c4565b5b613763848285613475565b509392505050565b600082601f8301126137805761377f6132a8565b5b8135613790848260208601613729565b91505092915050565b600080600080608085870312156137b3576137b2612ffd565b5b60006137c187828801613253565b94505060206137d287828801613253565b93505060406137e38782880161319e565b925050606085013567ffffffffffffffff81111561380457613803613002565b5b6138108782880161376b565b91505092959194509250565b6000806040838503121561383357613832612ffd565b5b600061384185828601613253565b925050602061385285828601613253565b9150509250929050565b7f4e487b7100000000000000000000000000000000000000000000000000000000600052602260045260246000fd5b600060028204905060018216806138a357607f821691505b602082108114156138b7576138b661385c565b5b50919050565b7f5061757365640000000000000000000000000000000000000000000000000000600082015250565b60006138f36006836130cd565b91506138fe826138bd565b602082019050919050565b60006020820190508181036000830152613922816138e6565b9050919050565b7f4e487b7100000000000000000000000000000000000000000000000000000000600052601160045260246000fd5b60006139638261317d565b915061396e8361317d565b9250827fffffffffffffffffffffffffffffffffffffffffffffffffffffffffffffffff038211156139a3576139a2613929565b5b828201905092915050565b60006139b98261317d565b91506139c48361317d565b9250817fffffffffffffffffffffffffffffffffffffffffffffffffffffffffffffffff04831182151516156139fd576139fc613929565b5b828202905092915050565b6000613a138261317d565b9150613a1e8361317d565b925082821015613a3157613a30613929565b5b828203905092915050565b7f4e487b7100000000000000000000000000000000000000000000000000000000600052603260045260246000fd5b6000613a768261317d565b91507fffffffffffffffffffffffffffffffffffffffffffffffffffffffffffffffff821415613aa957613aa8613929565b5b600182019050919050565b6000604082019050613ac96000830185613212565b613ad66020830184613212565b9392505050565b600081519050613aec8161368c565b92915050565b600060208284031215613b0857613b07612ffd565b5b6000613b1684828501613add565b91505092915050565b7f5f6e6577426173655552492063616e6e6f7420626520656d7074792100000000600082015250565b6000613b55601c836130cd565b9150613b6082613b1f565b602082019050919050565b60006020820190508181036000830152613b8481613b48565b9050919050565b7f5f6e6577426173655552492073686f756c64206861766520612073756666697860008201527f206f6620272f2700000000000000000000000000000000000000000000000000602082015250565b6000613be76027836130cd565b9150613bf282613b8b565b604082019050919050565b60006020820190508181036000830152613c1681613bda565b9050919050565b7f596f752063616e206f6e6c79207365742062617365555249206f6e6365210000600082015250565b6000613c53601e836130cd565b9150613c5e82613c1d565b602082019050919050565b60006020820190508181036000830152613c8281613c46565b9050919050565b7f746f6b656e20646f6573206e6f74206578697374210000000000000000000000600082015250565b6000613cbf6015836130cd565b9150613cca82613c89565b602082019050919050565b60006020820190508181036000830152613cee81613cb2565b9050919050565b600081905092915050565b60008190508160005260206000209050919050565b60008154613d228161388b565b613d2c8186613cf5565b94506001821660008114613d475760018114613d5857613d8b565b60ff19831686528186019350613d8b565b613d6185613d00565b60005b83811015613d8357815481890152600182019150602081019050613d64565b838801955050505b50505092915050565b6000613d9f826130c2565b613da98185613cf5565b9350613db98185602086016130de565b80840191505092915050565b6000613dd18286613d15565b9150613ddd8285613d94565b9150613de98284613d15565b9150819050949350505050565b7f4f776e61626c653a206e6577206f776e657220697320746865207a65726f206160008201527f6464726573730000000000000000000000000000000000000000000000000000602082015250565b6000613e526026836130cd565b9150613e5d82613df6565b604082019050919050565b60006020820190508181036000830152613e8181613e45565b9050919050565b7f4f776e61626c653a2063616c6c6572206973206e6f7420746865206f776e6572600082015250565b6000613ebe6020836130cd565b9150613ec982613e88565b602082019050919050565b60006020820190508181036000830152613eed81613eb1565b9050919050565b6000613f008284613d94565b915081905092915050565b7f4e487b7100000000000000000000000000000000000000000000000000000000600052601260045260246000fd5b6000613f458261317d565b9150613f508361317d565b925082613f6057613f5f613f0b565b5b828204905092915050565b6000613f768261317d565b9150613f818361317d565b925082613f9157613f90613f0b565b5b828206905092915050565b60008160601b9050919050565b6000613fb482613f9c565b9050919050565b6000613fc682613fa9565b9050919050565b613fde613fd982613200565b613fbb565b82525050565b6000613ff08284613fcd565b60148201915081905092915050565b600081519050919050565b600082825260208201905092915050565b600061402682613fff565b614030818561400a565b93506140408185602086016130de565b61404981613111565b840191505092915050565b60006080820190506140696000830187613212565b6140766020830186613212565b614083604083018561339a565b8181036060830152614095818461401b565b905095945050505050565b6000815190506140af81613033565b92915050565b6000602082840312156140cb576140ca612ffd565b5b60006140d9848285016140a0565b9150509291505056fea264697066735822122043e732a8b7efeaa466f861f494e2c43b143cb7f2d333bd63f74513d2c574f53864736f6c6343000809003368747470733a2f2f6b6974737564656e2e696e667572612d697066732e696f2f697066732f516d543857775575417a70654c7169784a446676564878394b7278466f387762473831314a5a426a6b66723643672f","opcodes":"PUSH1 0x80 PUSH1 0x40 MSTORE PUSH1 0x5 PUSH1 0xA SSTORE PUSH1 0x1 PUSH1 0xB SSTORE PUSH2 0x1A0A PUSH1 0xC SSTORE PUSH7 0x6A94D74F430000 PUSH1 0xD SSTORE PUSH1 0x40 MLOAD DUP1 PUSH1 0x40 ADD PUSH1 0x40 MSTORE DUP1 PUSH1 0x5 DUP2 MSTORE PUSH1 0x20 ADD PUSH32 0x2E6A736F6E000000000000000000000000000000000000000000000000000000 DUP2 MSTORE POP PUSH1 0xE SWAP1 DUP1 MLOAD SWAP1 PUSH1 0x20 ADD SWAP1 PUSH3 0x6C SWAP3 SWAP2 SWAP1 PUSH3 0x4B4 JUMP JUMPDEST POP PUSH1 0x40 MLOAD DUP1 PUSH1 0x20 ADD PUSH1 0x40 MSTORE DUP1 PUSH1 0x0 DUP2 MSTORE POP PUSH1 0xF SWAP1 DUP1 MLOAD SWAP1 PUSH1 0x20 ADD SWAP1 PUSH3 0x94 SWAP3 SWAP2 SWAP1 PUSH3 0x4B4 JUMP JUMPDEST POP PUSH1 0x40 MLOAD DUP1 PUSH1 0x80 ADD PUSH1 0x40 MSTORE DUP1 PUSH1 0x54 DUP2 MSTORE PUSH1 0x20 ADD PUSH3 0x4780 PUSH1 0x54 SWAP2 CODECOPY PUSH1 0x10 SWAP1 DUP1 MLOAD SWAP1 PUSH1 0x20 ADD SWAP1 PUSH3 0xC6 SWAP3 SWAP2 SWAP1 PUSH3 0x4B4 JUMP JUMPDEST POP PUSH1 0x0 PUSH1 0x12 PUSH1 0x0 PUSH2 0x100 EXP DUP2 SLOAD DUP2 PUSH1 0xFF MUL NOT AND SWAP1 DUP4 ISZERO ISZERO MUL OR SWAP1 SSTORE POP PUSH1 0x0 PUSH1 0x12 PUSH1 0x1 PUSH2 0x100 EXP DUP2 SLOAD DUP2 PUSH1 0xFF MUL NOT AND SWAP1 DUP4 ISZERO ISZERO MUL OR SWAP1 SSTORE POP CALLVALUE DUP1 ISZERO PUSH3 0x10A JUMPI PUSH1 0x0 DUP1 REVERT JUMPDEST POP PUSH1 0x0 DUP1 PUSH1 0x40 MLOAD DUP1 PUSH1 0x40 ADD PUSH1 0x40 MSTORE DUP1 PUSH1 0xF DUP2 MSTORE PUSH1 0x20 ADD PUSH32 0x4B6974737564656E466F78466F6E650000000000000000000000000000000000 DUP2 MSTORE POP PUSH1 0x40 MLOAD DUP1 PUSH1 0x40 ADD PUSH1 0x40 MSTORE DUP1 PUSH1 0x5 DUP2 MSTORE PUSH1 0x20 ADD PUSH32 0x4B53444646000000000000000000000000000000000000000000000000000000 DUP2 MSTORE POP DUP2 PUSH1 0x2 SWAP1 DUP1 MLOAD SWAP1 PUSH1 0x20 ADD SWAP1 PUSH3 0x192 SWAP3 SWAP2 SWAP1 PUSH3 0x4B4 JUMP JUMPDEST POP DUP1 PUSH1 0x3 SWAP1 DUP1 MLOAD SWAP1 PUSH1 0x20 ADD SWAP1 PUSH3 0x1AB SWAP3 SWAP2 SWAP1 PUSH3 0x4B4 JUMP JUMPDEST POP PUSH3 0x1BC PUSH3 0x3E1 PUSH1 0x20 SHL PUSH1 0x20 SHR JUMP JUMPDEST PUSH1 0x0 DUP2 SWAP1 SSTORE POP POP POP PUSH3 0x1E4 PUSH3 0x1D8 PUSH3 0x3E6 PUSH1 0x20 SHL PUSH1 0x20 SHR JUMP JUMPDEST PUSH3 0x3EE PUSH1 0x20 SHL PUSH1 0x20 SHR JUMP JUMPDEST PUSH1 0x0 PUSH14 0xAAEB6D7670E522A718067333CD4E PUSH20 0xFFFFFFFFFFFFFFFFFFFFFFFFFFFFFFFFFFFFFFFF AND EXTCODESIZE GT ISZERO PUSH3 0x3D9 JUMPI DUP1 ISZERO PUSH3 0x29F JUMPI PUSH14 0xAAEB6D7670E522A718067333CD4E PUSH20 0xFFFFFFFFFFFFFFFFFFFFFFFFFFFFFFFFFFFFFFFF AND PUSH4 0x7D3E3DBE ADDRESS DUP5 PUSH1 0x40 MLOAD DUP4 PUSH4 0xFFFFFFFF AND PUSH1 0xE0 SHL DUP2 MSTORE PUSH1 0x4 ADD PUSH3 0x265 SWAP3 SWAP2 SWAP1 PUSH3 0x5A9 JUMP JUMPDEST PUSH1 0x0 PUSH1 0x40 MLOAD DUP1 DUP4 SUB DUP2 PUSH1 0x0 DUP8 DUP1 EXTCODESIZE ISZERO DUP1 ISZERO PUSH3 0x280 JUMPI PUSH1 0x0 DUP1 REVERT JUMPDEST POP GAS CALL ISZERO DUP1 ISZERO PUSH3 0x295 JUMPI RETURNDATASIZE PUSH1 0x0 DUP1 RETURNDATACOPY RETURNDATASIZE PUSH1 0x0 REVERT JUMPDEST POP POP POP POP PUSH3 0x3D8 JUMP JUMPDEST PUSH1 0x0 PUSH20 0xFFFFFFFFFFFFFFFFFFFFFFFFFFFFFFFFFFFFFFFF AND DUP3 PUSH20 0xFFFFFFFFFFFFFFFFFFFFFFFFFFFFFFFFFFFFFFFF AND EQ PUSH3 0x359 JUMPI PUSH14 0xAAEB6D7670E522A718067333CD4E PUSH20 0xFFFFFFFFFFFFFFFFFFFFFFFFFFFFFFFFFFFFFFFF AND PUSH4 0xA0AF2903 ADDRESS DUP5 PUSH1 0x40 MLOAD DUP4 PUSH4 0xFFFFFFFF AND PUSH1 0xE0 SHL DUP2 MSTORE PUSH1 0x4 ADD PUSH3 0x31F SWAP3 SWAP2 SWAP1 PUSH3 0x5A9 JUMP JUMPDEST PUSH1 0x0 PUSH1 0x40 MLOAD DUP1 DUP4 SUB DUP2 PUSH1 0x0 DUP8 DUP1 EXTCODESIZE ISZERO DUP1 ISZERO PUSH3 0x33A JUMPI PUSH1 0x0 DUP1 REVERT JUMPDEST POP GAS CALL ISZERO DUP1 ISZERO PUSH3 0x34F JUMPI RETURNDATASIZE PUSH1 0x0 DUP1 RETURNDATACOPY RETURNDATASIZE PUSH1 0x0 REVERT JUMPDEST POP POP POP POP PUSH3 0x3D7 JUMP JUMPDEST PUSH14 0xAAEB6D7670E522A718067333CD4E PUSH20 0xFFFFFFFFFFFFFFFFFFFFFFFFFFFFFFFFFFFFFFFF AND PUSH4 0x4420E486 ADDRESS PUSH1 0x40 MLOAD DUP3 PUSH4 0xFFFFFFFF AND PUSH1 0xE0 SHL DUP2 MSTORE PUSH1 0x4 ADD PUSH3 0x3A2 SWAP2 SWAP1 PUSH3 0x5D6 JUMP JUMPDEST PUSH1 0x0 PUSH1 0x40 MLOAD DUP1 DUP4 SUB DUP2 PUSH1 0x0 DUP8 DUP1 EXTCODESIZE ISZERO DUP1 ISZERO PUSH3 0x3BD JUMPI PUSH1 0x0 DUP1 REVERT JUMPDEST POP GAS CALL ISZERO DUP1 ISZERO PUSH3 0x3D2 JUMPI RETURNDATASIZE PUSH1 0x0 DUP1 RETURNDATACOPY RETURNDATASIZE PUSH1 0x0 REVERT JUMPDEST POP POP POP POP JUMPDEST JUMPDEST JUMPDEST POP POP PUSH3 0x658 JUMP JUMPDEST PUSH1 0x0 SWAP1 JUMP JUMPDEST PUSH1 0x0 CALLER SWAP1 POP SWAP1 JUMP JUMPDEST PUSH1 0x0 PUSH1 0x8 PUSH1 0x0 SWAP1 SLOAD SWAP1 PUSH2 0x100 EXP SWAP1 DIV PUSH20 0xFFFFFFFFFFFFFFFFFFFFFFFFFFFFFFFFFFFFFFFF AND SWAP1 POP DUP2 PUSH1 0x8 PUSH1 0x0 PUSH2 0x100 EXP DUP2 SLOAD DUP2 PUSH20 0xFFFFFFFFFFFFFFFFFFFFFFFFFFFFFFFFFFFFFFFF MUL NOT AND SWAP1 DUP4 PUSH20 0xFFFFFFFFFFFFFFFFFFFFFFFFFFFFFFFFFFFFFFFF AND MUL OR SWAP1 SSTORE POP DUP2 PUSH20 0xFFFFFFFFFFFFFFFFFFFFFFFFFFFFFFFFFFFFFFFF AND DUP2 PUSH20 0xFFFFFFFFFFFFFFFFFFFFFFFFFFFFFFFFFFFFFFFF AND PUSH32 0x8BE0079C531659141344CD1FD0A4F28419497F9722A3DAAFE3B4186F6B6457E0 PUSH1 0x40 MLOAD PUSH1 0x40 MLOAD DUP1 SWAP2 SUB SWAP1 LOG3 POP POP JUMP JUMPDEST DUP3 DUP1 SLOAD PUSH3 0x4C2 SWAP1 PUSH3 0x622 JUMP JUMPDEST SWAP1 PUSH1 0x0 MSTORE PUSH1 0x20 PUSH1 0x0 KECCAK256 SWAP1 PUSH1 0x1F ADD PUSH1 0x20 SWAP1 DIV DUP2 ADD SWAP3 DUP3 PUSH3 0x4E6 JUMPI PUSH1 0x0 DUP6 SSTORE PUSH3 0x532 JUMP JUMPDEST DUP3 PUSH1 0x1F LT PUSH3 0x501 JUMPI DUP1 MLOAD PUSH1 0xFF NOT AND DUP4 DUP1 ADD OR DUP6 SSTORE PUSH3 0x532 JUMP JUMPDEST DUP3 DUP1 ADD PUSH1 0x1 ADD DUP6 SSTORE DUP3 ISZERO PUSH3 0x532 JUMPI SWAP2 DUP3 ADD JUMPDEST DUP3 DUP2 GT ISZERO PUSH3 0x531 JUMPI DUP3 MLOAD DUP3 SSTORE SWAP2 PUSH1 0x20 ADD SWAP2 SWAP1 PUSH1 0x1 ADD SWAP1 PUSH3 0x514 JUMP JUMPDEST JUMPDEST POP SWAP1 POP PUSH3 0x541 SWAP2 SWAP1 PUSH3 0x545 JUMP JUMPDEST POP SWAP1 JUMP JUMPDEST JUMPDEST DUP1 DUP3 GT ISZERO PUSH3 0x560 JUMPI PUSH1 0x0 DUP2 PUSH1 0x0 SWAP1 SSTORE POP PUSH1 0x1 ADD PUSH3 0x546 JUMP JUMPDEST POP SWAP1 JUMP JUMPDEST PUSH1 0x0 PUSH20 0xFFFFFFFFFFFFFFFFFFFFFFFFFFFFFFFFFFFFFFFF DUP3 AND SWAP1 POP SWAP2 SWAP1 POP JUMP JUMPDEST PUSH1 0x0 PUSH3 0x591 DUP3 PUSH3 0x564 JUMP JUMPDEST SWAP1 POP SWAP2 SWAP1 POP JUMP JUMPDEST PUSH3 0x5A3 DUP2 PUSH3 0x584 JUMP JUMPDEST DUP3 MSTORE POP POP JUMP JUMPDEST PUSH1 0x0 PUSH1 0x40 DUP3 ADD SWAP1 POP PUSH3 0x5C0 PUSH1 0x0 DUP4 ADD DUP6 PUSH3 0x598 JUMP JUMPDEST PUSH3 0x5CF PUSH1 0x20 DUP4 ADD DUP5 PUSH3 0x598 JUMP JUMPDEST SWAP4 SWAP3 POP POP POP JUMP JUMPDEST PUSH1 0x0 PUSH1 0x20 DUP3 ADD SWAP1 POP PUSH3 0x5ED PUSH1 0x0 DUP4 ADD DUP5 PUSH3 0x598 JUMP JUMPDEST SWAP3 SWAP2 POP POP JUMP JUMPDEST PUSH32 0x4E487B7100000000000000000000000000000000000000000000000000000000 PUSH1 0x0 MSTORE PUSH1 0x22 PUSH1 0x4 MSTORE PUSH1 0x24 PUSH1 0x0 REVERT JUMPDEST PUSH1 0x0 PUSH1 0x2 DUP3 DIV SWAP1 POP PUSH1 0x1 DUP3 AND DUP1 PUSH3 0x63B JUMPI PUSH1 0x7F DUP3 AND SWAP2 POP JUMPDEST PUSH1 0x20 DUP3 LT DUP2 EQ ISZERO PUSH3 0x652 JUMPI PUSH3 0x651 PUSH3 0x5F3 JUMP JUMPDEST JUMPDEST POP SWAP2 SWAP1 POP JUMP JUMPDEST PUSH2 0x4118 DUP1 PUSH3 0x668 PUSH1 0x0 CODECOPY PUSH1 0x0 RETURN INVALID PUSH1 0x80 PUSH1 0x40 MSTORE PUSH1 0x4 CALLDATASIZE LT PUSH2 0x230 JUMPI PUSH1 0x0 CALLDATALOAD PUSH1 0xE0 SHR DUP1 PUSH4 0x70A08231 GT PUSH2 0x12E JUMPI DUP1 PUSH4 0xB6B6F0C3 GT PUSH2 0xAB JUMPI DUP1 PUSH4 0xD5ABEB01 GT PUSH2 0x6F JUMPI DUP1 PUSH4 0xD5ABEB01 EQ PUSH2 0x7EF JUMPI DUP1 PUSH4 0xE985E9C5 EQ PUSH2 0x81A JUMPI DUP1 PUSH4 0xEE5735A8 EQ PUSH2 0x857 JUMPI DUP1 PUSH4 0xF14A0588 EQ PUSH2 0x882 JUMPI DUP1 PUSH4 0xF2FDE38B EQ PUSH2 0x899 JUMPI PUSH2 0x230 JUMP JUMPDEST DUP1 PUSH4 0xB6B6F0C3 EQ PUSH2 0x715 JUMPI DUP1 PUSH4 0xB88D4FDE EQ PUSH2 0x740 JUMPI DUP1 PUSH4 0xC6682862 EQ PUSH2 0x75C JUMPI DUP1 PUSH4 0xC87B56DD EQ PUSH2 0x787 JUMPI DUP1 PUSH4 0xCA0DCF16 EQ PUSH2 0x7C4 JUMPI PUSH2 0x230 JUMP JUMPDEST DUP1 PUSH4 0x943431BF GT PUSH2 0xF2 JUMPI DUP1 PUSH4 0x943431BF EQ PUSH2 0x63F JUMPI DUP1 PUSH4 0x95D89B41 EQ PUSH2 0x668 JUMPI DUP1 PUSH4 0xA0712D68 EQ PUSH2 0x693 JUMPI DUP1 PUSH4 0xA22CB465 EQ PUSH2 0x6AF JUMPI DUP1 PUSH4 0xACDCE273 EQ PUSH2 0x6D8 JUMPI PUSH2 0x230 JUMP JUMPDEST DUP1 PUSH4 0x70A08231 EQ PUSH2 0x56C JUMPI DUP1 PUSH4 0x715018A6 EQ PUSH2 0x5A9 JUMPI DUP1 PUSH4 0x7CB64759 EQ PUSH2 0x5C0 JUMPI DUP1 PUSH4 0x8DA5CB5B EQ PUSH2 0x5E9 JUMPI DUP1 PUSH4 0x8FE11A97 EQ PUSH2 0x614 JUMPI PUSH2 0x230 JUMP JUMPDEST DUP1 PUSH4 0x1DCD9B55 GT PUSH2 0x1BC JUMPI DUP1 PUSH4 0x51830227 GT PUSH2 0x180 JUMPI DUP1 PUSH4 0x51830227 EQ PUSH2 0x485 JUMPI DUP1 PUSH4 0x55F804B3 EQ PUSH2 0x4B0 JUMPI DUP1 PUSH4 0x5C975ABB EQ PUSH2 0x4D9 JUMPI DUP1 PUSH4 0x6352211E EQ PUSH2 0x504 JUMPI DUP1 PUSH4 0x6C0360EB EQ PUSH2 0x541 JUMPI PUSH2 0x230 JUMP JUMPDEST DUP1 PUSH4 0x1DCD9B55 EQ PUSH2 0x3CE JUMPI DUP1 PUSH4 0x23B872DD EQ PUSH2 0x40B JUMPI DUP1 PUSH4 0x2EB4A7AB EQ PUSH2 0x427 JUMPI DUP1 PUSH4 0x3CCFD60B EQ PUSH2 0x452 JUMPI DUP1 PUSH4 0x42842E0E EQ PUSH2 0x469 JUMPI PUSH2 0x230 JUMP JUMPDEST DUP1 PUSH4 0x11876875 GT PUSH2 0x203 JUMPI DUP1 PUSH4 0x11876875 EQ PUSH2 0x2F6 JUMPI DUP1 PUSH4 0x1342FF4C EQ PUSH2 0x312 JUMPI DUP1 PUSH4 0x13BFABC0 EQ PUSH2 0x33B JUMPI DUP1 PUSH4 0x17881CBF EQ PUSH2 0x378 JUMPI DUP1 PUSH4 0x18160DDD EQ PUSH2 0x3A3 JUMPI PUSH2 0x230 JUMP JUMPDEST DUP1 PUSH4 0x1FFC9A7 EQ PUSH2 0x235 JUMPI DUP1 PUSH4 0x6FDDE03 EQ PUSH2 0x272 JUMPI DUP1 PUSH4 0x81812FC EQ PUSH2 0x29D JUMPI DUP1 PUSH4 0x95EA7B3 EQ PUSH2 0x2DA JUMPI JUMPDEST PUSH1 0x0 DUP1 REVERT JUMPDEST CALLVALUE DUP1 ISZERO PUSH2 0x241 JUMPI PUSH1 0x0 DUP1 REVERT JUMPDEST POP PUSH2 0x25C PUSH1 0x4 DUP1 CALLDATASIZE SUB DUP2 ADD SWAP1 PUSH2 0x257 SWAP2 SWAP1 PUSH2 0x305F JUMP JUMPDEST PUSH2 0x8C2 JUMP JUMPDEST PUSH1 0x40 MLOAD PUSH2 0x269 SWAP2 SWAP1 PUSH2 0x30A7 JUMP JUMPDEST PUSH1 0x40 MLOAD DUP1 SWAP2 SUB SWAP1 RETURN JUMPDEST CALLVALUE DUP1 ISZERO PUSH2 0x27E JUMPI PUSH1 0x0 DUP1 REVERT JUMPDEST POP PUSH2 0x287 PUSH2 0x954 JUMP JUMPDEST PUSH1 0x40 MLOAD PUSH2 0x294 SWAP2 SWAP1 PUSH2 0x315B JUMP JUMPDEST PUSH1 0x40 MLOAD DUP1 SWAP2 SUB SWAP1 RETURN JUMPDEST CALLVALUE DUP1 ISZERO PUSH2 0x2A9 JUMPI PUSH1 0x0 DUP1 REVERT JUMPDEST POP PUSH2 0x2C4 PUSH1 0x4 DUP1 CALLDATASIZE SUB DUP2 ADD SWAP1 PUSH2 0x2BF SWAP2 SWAP1 PUSH2 0x31B3 JUMP JUMPDEST PUSH2 0x9E6 JUMP JUMPDEST PUSH1 0x40 MLOAD PUSH2 0x2D1 SWAP2 SWAP1 PUSH2 0x3221 JUMP JUMPDEST PUSH1 0x40 MLOAD DUP1 SWAP2 SUB SWAP1 RETURN JUMPDEST PUSH2 0x2F4 PUSH1 0x4 DUP1 CALLDATASIZE SUB DUP2 ADD SWAP1 PUSH2 0x2EF SWAP2 SWAP1 PUSH2 0x3268 JUMP JUMPDEST PUSH2 0xA65 JUMP JUMPDEST STOP JUMPDEST PUSH2 0x310 PUSH1 0x4 DUP1 CALLDATASIZE SUB DUP2 ADD SWAP1 PUSH2 0x30B SWAP2 SWAP1 PUSH2 0x330D JUMP JUMPDEST PUSH2 0xBA9 JUMP JUMPDEST STOP JUMPDEST CALLVALUE DUP1 ISZERO PUSH2 0x31E JUMPI PUSH1 0x0 DUP1 REVERT JUMPDEST POP PUSH2 0x339 PUSH1 0x4 DUP1 CALLDATASIZE SUB DUP2 ADD SWAP1 PUSH2 0x334 SWAP2 SWAP1 PUSH2 0x31B3 JUMP JUMPDEST PUSH2 0xDF5 JUMP JUMPDEST STOP JUMPDEST CALLVALUE DUP1 ISZERO PUSH2 0x347 JUMPI PUSH1 0x0 DUP1 REVERT JUMPDEST POP PUSH2 0x362 PUSH1 0x4 DUP1 CALLDATASIZE SUB DUP2 ADD SWAP1 PUSH2 0x35D SWAP2 SWAP1 PUSH2 0x336D JUMP JUMPDEST PUSH2 0xE58 JUMP JUMPDEST PUSH1 0x40 MLOAD PUSH2 0x36F SWAP2 SWAP1 PUSH2 0x33A9 JUMP JUMPDEST PUSH1 0x40 MLOAD DUP1 SWAP2 SUB SWAP1 RETURN JUMPDEST CALLVALUE DUP1 ISZERO PUSH2 0x384 JUMPI PUSH1 0x0 DUP1 REVERT JUMPDEST POP PUSH2 0x38D PUSH2 0xE70 JUMP JUMPDEST PUSH1 0x40 MLOAD PUSH2 0x39A SWAP2 SWAP1 PUSH2 0x33A9 JUMP JUMPDEST PUSH1 0x40 MLOAD DUP1 SWAP2 SUB SWAP1 RETURN JUMPDEST CALLVALUE DUP1 ISZERO PUSH2 0x3AF JUMPI PUSH1 0x0 DUP1 REVERT JUMPDEST POP PUSH2 0x3B8 PUSH2 0xE76 JUMP JUMPDEST PUSH1 0x40 MLOAD PUSH2 0x3C5 SWAP2 SWAP1 PUSH2 0x33A9 JUMP JUMPDEST PUSH1 0x40 MLOAD DUP1 SWAP2 SUB SWAP1 RETURN JUMPDEST CALLVALUE DUP1 ISZERO PUSH2 0x3DA JUMPI PUSH1 0x0 DUP1 REVERT JUMPDEST POP PUSH2 0x3F5 PUSH1 0x4 DUP1 CALLDATASIZE SUB DUP2 ADD SWAP1 PUSH2 0x3F0 SWAP2 SWAP1 PUSH2 0x34F4 JUMP JUMPDEST PUSH2 0xE8D JUMP JUMPDEST PUSH1 0x40 MLOAD PUSH2 0x402 SWAP2 SWAP1 PUSH2 0x315B JUMP JUMPDEST PUSH1 0x40 MLOAD DUP1 SWAP2 SUB SWAP1 RETURN JUMPDEST PUSH2 0x425 PUSH1 0x4 DUP1 CALLDATASIZE SUB DUP2 ADD SWAP1 PUSH2 0x420 SWAP2 SWAP1 PUSH2 0x3563 JUMP JUMPDEST PUSH2 0xF89 JUMP JUMPDEST STOP JUMPDEST CALLVALUE DUP1 ISZERO PUSH2 0x433 JUMPI PUSH1 0x0 DUP1 REVERT JUMPDEST POP PUSH2 0x43C PUSH2 0x118A JUMP JUMPDEST PUSH1 0x40 MLOAD PUSH2 0x449 SWAP2 SWAP1 PUSH2 0x35CF JUMP JUMPDEST PUSH1 0x40 MLOAD DUP1 SWAP2 SUB SWAP1 RETURN JUMPDEST CALLVALUE DUP1 ISZERO PUSH2 0x45E JUMPI PUSH1 0x0 DUP1 REVERT JUMPDEST POP PUSH2 0x467 PUSH2 0x1190 JUMP JUMPDEST STOP JUMPDEST PUSH2 0x483 PUSH1 0x4 DUP1 CALLDATASIZE SUB DUP2 ADD SWAP1 PUSH2 0x47E SWAP2 SWAP1 PUSH2 0x3563 JUMP JUMPDEST PUSH2 0x11E8 JUMP JUMPDEST STOP JUMPDEST CALLVALUE DUP1 ISZERO PUSH2 0x491 JUMPI PUSH1 0x0 DUP1 REVERT JUMPDEST POP PUSH2 0x49A PUSH2 0x13E9 JUMP JUMPDEST PUSH1 0x40 MLOAD PUSH2 0x4A7 SWAP2 SWAP1 PUSH2 0x30A7 JUMP JUMPDEST PUSH1 0x40 MLOAD DUP1 SWAP2 SUB SWAP1 RETURN JUMPDEST CALLVALUE DUP1 ISZERO PUSH2 0x4BC JUMPI PUSH1 0x0 DUP1 REVERT JUMPDEST POP PUSH2 0x4D7 PUSH1 0x4 DUP1 CALLDATASIZE SUB DUP2 ADD SWAP1 PUSH2 0x4D2 SWAP2 SWAP1 PUSH2 0x35EA JUMP JUMPDEST PUSH2 0x13FC JUMP JUMPDEST STOP JUMPDEST CALLVALUE DUP1 ISZERO PUSH2 0x4E5 JUMPI PUSH1 0x0 DUP1 REVERT JUMPDEST POP PUSH2 0x4EE PUSH2 0x1575 JUMP JUMPDEST PUSH1 0x40 MLOAD PUSH2 0x4FB SWAP2 SWAP1 PUSH2 0x30A7 JUMP JUMPDEST PUSH1 0x40 MLOAD DUP1 SWAP2 SUB SWAP1 RETURN JUMPDEST CALLVALUE DUP1 ISZERO PUSH2 0x510 JUMPI PUSH1 0x0 DUP1 REVERT JUMPDEST POP PUSH2 0x52B PUSH1 0x4 DUP1 CALLDATASIZE SUB DUP2 ADD SWAP1 PUSH2 0x526 SWAP2 SWAP1 PUSH2 0x31B3 JUMP JUMPDEST PUSH2 0x1588 JUMP JUMPDEST PUSH1 0x40 MLOAD PUSH2 0x538 SWAP2 SWAP1 PUSH2 0x3221 JUMP JUMPDEST PUSH1 0x40 MLOAD DUP1 SWAP2 SUB SWAP1 RETURN JUMPDEST CALLVALUE DUP1 ISZERO PUSH2 0x54D JUMPI PUSH1 0x0 DUP1 REVERT JUMPDEST POP PUSH2 0x556 PUSH2 0x159A JUMP JUMPDEST PUSH1 0x40 MLOAD PUSH2 0x563 SWAP2 SWAP1 PUSH2 0x315B JUMP JUMPDEST PUSH1 0x40 MLOAD DUP1 SWAP2 SUB SWAP1 RETURN JUMPDEST CALLVALUE DUP1 ISZERO PUSH2 0x578 JUMPI PUSH1 0x0 DUP1 REVERT JUMPDEST POP PUSH2 0x593 PUSH1 0x4 DUP1 CALLDATASIZE SUB DUP2 ADD SWAP1 PUSH2 0x58E SWAP2 SWAP1 PUSH2 0x336D JUMP JUMPDEST PUSH2 0x1628 JUMP JUMPDEST PUSH1 0x40 MLOAD PUSH2 0x5A0 SWAP2 SWAP1 PUSH2 0x33A9 JUMP JUMPDEST PUSH1 0x40 MLOAD DUP1 SWAP2 SUB SWAP1 RETURN JUMPDEST CALLVALUE DUP1 ISZERO PUSH2 0x5B5 JUMPI PUSH1 0x0 DUP1 REVERT JUMPDEST POP PUSH2 0x5BE PUSH2 0x16E1 JUMP JUMPDEST STOP JUMPDEST CALLVALUE DUP1 ISZERO PUSH2 0x5CC JUMPI PUSH1 0x0 DUP1 REVERT JUMPDEST POP PUSH2 0x5E7 PUSH1 0x4 DUP1 CALLDATASIZE SUB DUP2 ADD SWAP1 PUSH2 0x5E2 SWAP2 SWAP1 PUSH2 0x365F JUMP JUMPDEST PUSH2 0x16F5 JUMP JUMPDEST STOP JUMPDEST CALLVALUE DUP1 ISZERO PUSH2 0x5F5 JUMPI PUSH1 0x0 DUP1 REVERT JUMPDEST POP PUSH2 0x5FE PUSH2 0x1707 JUMP JUMPDEST PUSH1 0x40 MLOAD PUSH2 0x60B SWAP2 SWAP1 PUSH2 0x3221 JUMP JUMPDEST PUSH1 0x40 MLOAD DUP1 SWAP2 SUB SWAP1 RETURN JUMPDEST CALLVALUE DUP1 ISZERO PUSH2 0x620 JUMPI PUSH1 0x0 DUP1 REVERT JUMPDEST POP PUSH2 0x629 PUSH2 0x1731 JUMP JUMPDEST PUSH1 0x40 MLOAD PUSH2 0x636 SWAP2 SWAP1 PUSH2 0x315B JUMP JUMPDEST PUSH1 0x40 MLOAD DUP1 SWAP2 SUB SWAP1 RETURN JUMPDEST CALLVALUE DUP1 ISZERO PUSH2 0x64B JUMPI PUSH1 0x0 DUP1 REVERT JUMPDEST POP PUSH2 0x666 PUSH1 0x4 DUP1 CALLDATASIZE SUB DUP2 ADD SWAP1 PUSH2 0x661 SWAP2 SWAP1 PUSH2 0x31B3 JUMP JUMPDEST PUSH2 0x17BF JUMP JUMPDEST STOP JUMPDEST CALLVALUE DUP1 ISZERO PUSH2 0x674 JUMPI PUSH1 0x0 DUP1 REVERT JUMPDEST POP PUSH2 0x67D PUSH2 0x17D1 JUMP JUMPDEST PUSH1 0x40 MLOAD PUSH2 0x68A SWAP2 SWAP1 PUSH2 0x315B JUMP JUMPDEST PUSH1 0x40 MLOAD DUP1 SWAP2 SUB SWAP1 RETURN JUMPDEST PUSH2 0x6AD PUSH1 0x4 DUP1 CALLDATASIZE SUB DUP2 ADD SWAP1 PUSH2 0x6A8 SWAP2 SWAP1 PUSH2 0x31B3 JUMP JUMPDEST PUSH2 0x1863 JUMP JUMPDEST STOP JUMPDEST CALLVALUE DUP1 ISZERO PUSH2 0x6BB JUMPI PUSH1 0x0 DUP1 REVERT JUMPDEST POP PUSH2 0x6D6 PUSH1 0x4 DUP1 CALLDATASIZE SUB DUP2 ADD SWAP1 PUSH2 0x6D1 SWAP2 SWAP1 PUSH2 0x36B8 JUMP JUMPDEST PUSH2 0x1A6C JUMP JUMPDEST STOP JUMPDEST CALLVALUE DUP1 ISZERO PUSH2 0x6E4 JUMPI PUSH1 0x0 DUP1 REVERT JUMPDEST POP PUSH2 0x6FF PUSH1 0x4 DUP1 CALLDATASIZE SUB DUP2 ADD SWAP1 PUSH2 0x6FA SWAP2 SWAP1 PUSH2 0x336D JUMP JUMPDEST PUSH2 0x1B77 JUMP JUMPDEST PUSH1 0x40 MLOAD PUSH2 0x70C SWAP2 SWAP1 PUSH2 0x33A9 JUMP JUMPDEST PUSH1 0x40 MLOAD DUP1 SWAP2 SUB SWAP1 RETURN JUMPDEST CALLVALUE DUP1 ISZERO PUSH2 0x721 JUMPI PUSH1 0x0 DUP1 REVERT JUMPDEST POP PUSH2 0x72A PUSH2 0x1B8F JUMP JUMPDEST PUSH1 0x40 MLOAD PUSH2 0x737 SWAP2 SWAP1 PUSH2 0x33A9 JUMP JUMPDEST PUSH1 0x40 MLOAD DUP1 SWAP2 SUB SWAP1 RETURN JUMPDEST PUSH2 0x75A PUSH1 0x4 DUP1 CALLDATASIZE SUB DUP2 ADD SWAP1 PUSH2 0x755 SWAP2 SWAP1 PUSH2 0x3799 JUMP JUMPDEST PUSH2 0x1B95 JUMP JUMPDEST STOP JUMPDEST CALLVALUE DUP1 ISZERO PUSH2 0x768 JUMPI PUSH1 0x0 DUP1 REVERT JUMPDEST POP PUSH2 0x771 PUSH2 0x1D99 JUMP JUMPDEST PUSH1 0x40 MLOAD PUSH2 0x77E SWAP2 SWAP1 PUSH2 0x315B JUMP JUMPDEST PUSH1 0x40 MLOAD DUP1 SWAP2 SUB SWAP1 RETURN JUMPDEST CALLVALUE DUP1 ISZERO PUSH2 0x793 JUMPI PUSH1 0x0 DUP1 REVERT JUMPDEST POP PUSH2 0x7AE PUSH1 0x4 DUP1 CALLDATASIZE SUB DUP2 ADD SWAP1 PUSH2 0x7A9 SWAP2 SWAP1 PUSH2 0x31B3 JUMP JUMPDEST PUSH2 0x1E27 JUMP JUMPDEST PUSH1 0x40 MLOAD PUSH2 0x7BB SWAP2 SWAP1 PUSH2 0x315B JUMP JUMPDEST PUSH1 0x40 MLOAD DUP1 SWAP2 SUB SWAP1 RETURN JUMPDEST CALLVALUE DUP1 ISZERO PUSH2 0x7D0 JUMPI PUSH1 0x0 DUP1 REVERT JUMPDEST POP PUSH2 0x7D9 PUSH2 0x1EF1 JUMP JUMPDEST PUSH1 0x40 MLOAD PUSH2 0x7E6 SWAP2 SWAP1 PUSH2 0x33A9 JUMP JUMPDEST PUSH1 0x40 MLOAD DUP1 SWAP2 SUB SWAP1 RETURN JUMPDEST CALLVALUE DUP1 ISZERO PUSH2 0x7FB JUMPI PUSH1 0x0 DUP1 REVERT JUMPDEST POP PUSH2 0x804 PUSH2 0x1EF7 JUMP JUMPDEST PUSH1 0x40 MLOAD PUSH2 0x811 SWAP2 SWAP1 PUSH2 0x33A9 JUMP JUMPDEST PUSH1 0x40 MLOAD DUP1 SWAP2 SUB SWAP1 RETURN JUMPDEST CALLVALUE DUP1 ISZERO PUSH2 0x826 JUMPI PUSH1 0x0 DUP1 REVERT JUMPDEST POP PUSH2 0x841 PUSH1 0x4 DUP1 CALLDATASIZE SUB DUP2 ADD SWAP1 PUSH2 0x83C SWAP2 SWAP1 PUSH2 0x381C JUMP JUMPDEST PUSH2 0x1EFD JUMP JUMPDEST PUSH1 0x40 MLOAD PUSH2 0x84E SWAP2 SWAP1 PUSH2 0x30A7 JUMP JUMPDEST PUSH1 0x40 MLOAD DUP1 SWAP2 SUB SWAP1 RETURN JUMPDEST CALLVALUE DUP1 ISZERO PUSH2 0x863 JUMPI PUSH1 0x0 DUP1 REVERT JUMPDEST POP PUSH2 0x86C PUSH2 0x1F91 JUMP JUMPDEST PUSH1 0x40 MLOAD PUSH2 0x879 SWAP2 SWAP1 PUSH2 0x33A9 JUMP JUMPDEST PUSH1 0x40 MLOAD DUP1 SWAP2 SUB SWAP1 RETURN JUMPDEST CALLVALUE DUP1 ISZERO PUSH2 0x88E JUMPI PUSH1 0x0 DUP1 REVERT JUMPDEST POP PUSH2 0x897 PUSH2 0x1F97 JUMP JUMPDEST STOP JUMPDEST CALLVALUE DUP1 ISZERO PUSH2 0x8A5 JUMPI PUSH1 0x0 DUP1 REVERT JUMPDEST POP PUSH2 0x8C0 PUSH1 0x4 DUP1 CALLDATASIZE SUB DUP2 ADD SWAP1 PUSH2 0x8BB SWAP2 SWAP1 PUSH2 0x336D JUMP JUMPDEST PUSH2 0x1FCB JUMP JUMPDEST STOP JUMPDEST PUSH1 0x0 PUSH4 0x1FFC9A7 PUSH1 0xE0 SHL DUP3 PUSH28 0xFFFFFFFFFFFFFFFFFFFFFFFFFFFFFFFFFFFFFFFFFFFFFFFFFFFFFFFF NOT AND EQ DUP1 PUSH2 0x91D JUMPI POP PUSH4 0x80AC58CD PUSH1 0xE0 SHL DUP3 PUSH28 0xFFFFFFFFFFFFFFFFFFFFFFFFFFFFFFFFFFFFFFFFFFFFFFFFFFFFFFFF NOT AND EQ JUMPDEST DUP1 PUSH2 0x94D JUMPI POP PUSH4 0x5B5E139F PUSH1 0xE0 SHL DUP3 PUSH28 0xFFFFFFFFFFFFFFFFFFFFFFFFFFFFFFFFFFFFFFFFFFFFFFFFFFFFFFFF NOT AND EQ JUMPDEST SWAP1 POP SWAP2 SWAP1 POP JUMP JUMPDEST PUSH1 0x60 PUSH1 0x2 DUP1 SLOAD PUSH2 0x963 SWAP1 PUSH2 0x388B JUMP JUMPDEST DUP1 PUSH1 0x1F ADD PUSH1 0x20 DUP1 SWAP2 DIV MUL PUSH1 0x20 ADD PUSH1 0x40 MLOAD SWAP1 DUP2 ADD PUSH1 0x40 MSTORE DUP1 SWAP3 SWAP2 SWAP1 DUP2 DUP2 MSTORE PUSH1 0x20 ADD DUP3 DUP1 SLOAD PUSH2 0x98F SWAP1 PUSH2 0x388B JUMP JUMPDEST DUP1 ISZERO PUSH2 0x9DC JUMPI DUP1 PUSH1 0x1F LT PUSH2 0x9B1 JUMPI PUSH2 0x100 DUP1 DUP4 SLOAD DIV MUL DUP4 MSTORE SWAP2 PUSH1 0x20 ADD SWAP2 PUSH2 0x9DC JUMP JUMPDEST DUP3 ADD SWAP2 SWAP1 PUSH1 0x0 MSTORE PUSH1 0x20 PUSH1 0x0 KECCAK256 SWAP1 JUMPDEST DUP2 SLOAD DUP2 MSTORE SWAP1 PUSH1 0x1 ADD SWAP1 PUSH1 0x20 ADD DUP1 DUP4 GT PUSH2 0x9BF JUMPI DUP3 SWAP1 SUB PUSH1 0x1F AND DUP3 ADD SWAP2 JUMPDEST POP POP POP POP POP SWAP1 POP SWAP1 JUMP JUMPDEST PUSH1 0x0 PUSH2 0x9F1 DUP3 PUSH2 0x204F JUMP JUMPDEST PUSH2 0xA27 JUMPI PUSH1 0x40 MLOAD PUSH32 0xCF4700E400000000000000000000000000000000000000000000000000000000 DUP2 MSTORE PUSH1 0x4 ADD PUSH1 0x40 MLOAD DUP1 SWAP2 SUB SWAP1 REVERT JUMPDEST PUSH1 0x6 PUSH1 0x0 DUP4 DUP2 MSTORE PUSH1 0x20 ADD SWAP1 DUP2 MSTORE PUSH1 0x20 ADD PUSH1 0x0 KECCAK256 PUSH1 0x0 ADD PUSH1 0x0 SWAP1 SLOAD SWAP1 PUSH2 0x100 EXP SWAP1 DIV PUSH20 0xFFFFFFFFFFFFFFFFFFFFFFFFFFFFFFFFFFFFFFFF AND SWAP1 POP SWAP2 SWAP1 POP JUMP JUMPDEST PUSH1 0x0 PUSH2 0xA70 DUP3 PUSH2 0x1588 JUMP JUMPDEST SWAP1 POP DUP1 PUSH20 0xFFFFFFFFFFFFFFFFFFFFFFFFFFFFFFFFFFFFFFFF AND PUSH2 0xA91 PUSH2 0x20AE JUMP JUMPDEST PUSH20 0xFFFFFFFFFFFFFFFFFFFFFFFFFFFFFFFFFFFFFFFF AND EQ PUSH2 0xAF4 JUMPI PUSH2 0xABD DUP2 PUSH2 0xAB8 PUSH2 0x20AE JUMP JUMPDEST PUSH2 0x1EFD JUMP JUMPDEST PUSH2 0xAF3 JUMPI PUSH1 0x40 MLOAD PUSH32 0xCFB3B94200000000000000000000000000000000000000000000000000000000 DUP2 MSTORE PUSH1 0x4 ADD PUSH1 0x40 MLOAD DUP1 SWAP2 SUB SWAP1 REVERT JUMPDEST JUMPDEST DUP3 PUSH1 0x6 PUSH1 0x0 DUP5 DUP2 MSTORE PUSH1 0x20 ADD SWAP1 DUP2 MSTORE PUSH1 0x20 ADD PUSH1 0x0 KECCAK256 PUSH1 0x0 ADD PUSH1 0x0 PUSH2 0x100 EXP DUP2 SLOAD DUP2 PUSH20 0xFFFFFFFFFFFFFFFFFFFFFFFFFFFFFFFFFFFFFFFF MUL NOT AND SWAP1 DUP4 PUSH20 0xFFFFFFFFFFFFFFFFFFFFFFFFFFFFFFFFFFFFFFFF AND MUL OR SWAP1 SSTORE POP DUP2 DUP4 PUSH20 0xFFFFFFFFFFFFFFFFFFFFFFFFFFFFFFFFFFFFFFFF AND DUP3 PUSH20 0xFFFFFFFFFFFFFFFFFFFFFFFFFFFFFFFFFFFFFFFF AND PUSH32 0x8C5BE1E5EBEC7D5BD14F71427D1E84F3DD0314C0F7B2291E5B200AC8C7C3B925 PUSH1 0x40 MLOAD PUSH1 0x40 MLOAD DUP1 SWAP2 SUB SWAP1 LOG4 POP POP POP JUMP JUMPDEST PUSH1 0x12 PUSH1 0x0 SWAP1 SLOAD SWAP1 PUSH2 0x100 EXP SWAP1 DIV PUSH1 0xFF AND ISZERO PUSH2 0xBF9 JUMPI PUSH1 0x40 MLOAD PUSH32 0x8C379A000000000000000000000000000000000000000000000000000000000 DUP2 MSTORE PUSH1 0x4 ADD PUSH2 0xBF0 SWAP1 PUSH2 0x3909 JUMP JUMPDEST PUSH1 0x40 MLOAD DUP1 SWAP2 SUB SWAP1 REVERT JUMPDEST PUSH1 0x1 PUSH1 0x11 SLOAD EQ PUSH2 0xC35 JUMPI PUSH1 0x40 MLOAD PUSH32 0x1E94BF2D00000000000000000000000000000000000000000000000000000000 DUP2 MSTORE PUSH1 0x4 ADD PUSH1 0x40 MLOAD DUP1 SWAP2 SUB SWAP1 REVERT JUMPDEST PUSH2 0xC40 CALLER DUP4 DUP4 PUSH2 0x20B6 JUMP JUMPDEST PUSH2 0xC76 JUMPI PUSH1 0x40 MLOAD PUSH32 0x3F1636E200000000000000000000000000000000000000000000000000000000 DUP2 MSTORE PUSH1 0x4 ADD PUSH1 0x40 MLOAD DUP1 SWAP2 SUB SWAP1 REVERT JUMPDEST PUSH1 0xC SLOAD DUP4 PUSH2 0xC82 PUSH2 0xE76 JUMP JUMPDEST PUSH2 0xC8C SWAP2 SWAP1 PUSH2 0x3958 JUMP JUMPDEST GT ISZERO PUSH2 0xCC4 JUMPI PUSH1 0x40 MLOAD PUSH32 0x76592C6F00000000000000000000000000000000000000000000000000000000 DUP2 MSTORE PUSH1 0x4 ADD PUSH1 0x40 MLOAD DUP1 SWAP2 SUB SWAP1 REVERT JUMPDEST CALLVALUE DUP4 PUSH1 0xD SLOAD PUSH2 0xCD3 SWAP2 SWAP1 PUSH2 0x39AE JUMP JUMPDEST EQ PUSH2 0xD0A JUMPI PUSH1 0x40 MLOAD PUSH32 0xB457F15800000000000000000000000000000000000000000000000000000000 DUP2 MSTORE PUSH1 0x4 ADD PUSH1 0x40 MLOAD DUP1 SWAP2 SUB SWAP1 REVERT JUMPDEST PUSH1 0xB SLOAD DUP4 PUSH1 0x13 PUSH1 0x0 CALLER PUSH20 0xFFFFFFFFFFFFFFFFFFFFFFFFFFFFFFFFFFFFFFFF AND PUSH20 0xFFFFFFFFFFFFFFFFFFFFFFFFFFFFFFFFFFFFFFFF AND DUP2 MSTORE PUSH1 0x20 ADD SWAP1 DUP2 MSTORE PUSH1 0x20 ADD PUSH1 0x0 KECCAK256 SLOAD PUSH2 0xD58 SWAP2 SWAP1 PUSH2 0x3958 JUMP JUMPDEST GT ISZERO PUSH2 0xD90 JUMPI PUSH1 0x40 MLOAD PUSH32 0x38D8B70C00000000000000000000000000000000000000000000000000000000 DUP2 MSTORE PUSH1 0x4 ADD PUSH1 0x40 MLOAD DUP1 SWAP2 SUB SWAP1 REVERT JUMPDEST DUP3 PUSH1 0x13 PUSH1 0x0 CALLER PUSH20 0xFFFFFFFFFFFFFFFFFFFFFFFFFFFFFFFFFFFFFFFF AND PUSH20 0xFFFFFFFFFFFFFFFFFFFFFFFFFFFFFFFFFFFFFFFF AND DUP2 MSTORE PUSH1 0x20 ADD SWAP1 DUP2 MSTORE PUSH1 0x20 ADD PUSH1 0x0 KECCAK256 PUSH1 0x0 DUP3 DUP3 SLOAD PUSH2 0xDDF SWAP2 SWAP1 PUSH2 0x3958 JUMP JUMPDEST SWAP3 POP POP DUP2 SWAP1 SSTORE POP PUSH2 0xDF0 CALLER DUP5 PUSH2 0x2114 JUMP JUMPDEST POP POP POP JUMP JUMPDEST PUSH2 0xDFD PUSH2 0x22D1 JUMP JUMPDEST PUSH1 0xC SLOAD DUP2 PUSH2 0xE09 PUSH2 0xE76 JUMP JUMPDEST PUSH2 0xE13 SWAP2 SWAP1 PUSH2 0x3958 JUMP JUMPDEST GT ISZERO PUSH2 0xE4B JUMPI PUSH1 0x40 MLOAD PUSH32 0x76592C6F00000000000000000000000000000000000000000000000000000000 DUP2 MSTORE PUSH1 0x4 ADD PUSH1 0x40 MLOAD DUP1 SWAP2 SUB SWAP1 REVERT JUMPDEST PUSH2 0xE55 CALLER DUP3 PUSH2 0x2114 JUMP JUMPDEST POP JUMP JUMPDEST PUSH1 0x13 PUSH1 0x20 MSTORE DUP1 PUSH1 0x0 MSTORE PUSH1 0x40 PUSH1 0x0 KECCAK256 PUSH1 0x0 SWAP2 POP SWAP1 POP SLOAD DUP2 JUMP JUMPDEST PUSH1 0x11 SLOAD DUP2 JUMP JUMPDEST PUSH1 0x0 PUSH2 0xE80 PUSH2 0x234F JUMP JUMPDEST PUSH1 0x1 SLOAD PUSH1 0x0 SLOAD SUB SUB SWAP1 POP SWAP1 JUMP JUMPDEST PUSH1 0x60 PUSH1 0x0 DUP5 SWAP1 POP PUSH1 0x0 DUP5 DUP5 PUSH2 0xEA2 SWAP2 SWAP1 PUSH2 0x3A08 JUMP JUMPDEST PUSH8 0xFFFFFFFFFFFFFFFF DUP2 GT ISZERO PUSH2 0xEBB JUMPI PUSH2 0xEBA PUSH2 0x33C9 JUMP JUMPDEST JUMPDEST PUSH1 0x40 MLOAD SWAP1 DUP1 DUP3 MSTORE DUP1 PUSH1 0x1F ADD PUSH1 0x1F NOT AND PUSH1 0x20 ADD DUP3 ADD PUSH1 0x40 MSTORE DUP1 ISZERO PUSH2 0xEED JUMPI DUP2 PUSH1 0x20 ADD PUSH1 0x1 DUP3 MUL DUP1 CALLDATASIZE DUP4 CALLDATACOPY DUP1 DUP3 ADD SWAP2 POP POP SWAP1 POP JUMPDEST POP SWAP1 POP PUSH1 0x0 DUP6 SWAP1 POP JUMPDEST DUP5 DUP2 LT ISZERO PUSH2 0xF7C JUMPI DUP3 DUP2 DUP2 MLOAD DUP2 LT PUSH2 0xF11 JUMPI PUSH2 0xF10 PUSH2 0x3A3C JUMP JUMPDEST JUMPDEST PUSH1 0x20 ADD ADD MLOAD PUSH1 0xF8 SHR PUSH1 0xF8 SHL DUP3 DUP8 DUP4 PUSH2 0xF29 SWAP2 SWAP1 PUSH2 0x3A08 JUMP JUMPDEST DUP2 MLOAD DUP2 LT PUSH2 0xF3A JUMPI PUSH2 0xF39 PUSH2 0x3A3C JUMP JUMPDEST JUMPDEST PUSH1 0x20 ADD ADD SWAP1 PUSH31 0xFFFFFFFFFFFFFFFFFFFFFFFFFFFFFFFFFFFFFFFFFFFFFFFFFFFFFFFFFFFFFF NOT AND SWAP1 DUP2 PUSH1 0x0 BYTE SWAP1 MSTORE8 POP DUP1 DUP1 PUSH2 0xF74 SWAP1 PUSH2 0x3A6B JUMP JUMPDEST SWAP2 POP POP PUSH2 0xEF6 JUMP JUMPDEST POP DUP1 SWAP3 POP POP POP SWAP4 SWAP3 POP POP POP JUMP JUMPDEST DUP3 PUSH1 0x0 PUSH14 0xAAEB6D7670E522A718067333CD4E PUSH20 0xFFFFFFFFFFFFFFFFFFFFFFFFFFFFFFFFFFFFFFFF AND EXTCODESIZE GT ISZERO PUSH2 0x1178 JUMPI CALLER PUSH20 0xFFFFFFFFFFFFFFFFFFFFFFFFFFFFFFFFFFFFFFFF AND DUP2 PUSH20 0xFFFFFFFFFFFFFFFFFFFFFFFFFFFFFFFFFFFFFFFF AND EQ ISZERO PUSH2 0xFFC JUMPI PUSH2 0xFF7 DUP5 DUP5 DUP5 PUSH2 0x2354 JUMP JUMPDEST PUSH2 0x1184 JUMP JUMPDEST PUSH14 0xAAEB6D7670E522A718067333CD4E PUSH20 0xFFFFFFFFFFFFFFFFFFFFFFFFFFFFFFFFFFFFFFFF AND PUSH4 0xC6171134 ADDRESS CALLER PUSH1 0x40 MLOAD DUP4 PUSH4 0xFFFFFFFF AND PUSH1 0xE0 SHL DUP2 MSTORE PUSH1 0x4 ADD PUSH2 0x1045 SWAP3 SWAP2 SWAP1 PUSH2 0x3AB4 JUMP JUMPDEST PUSH1 0x20 PUSH1 0x40 MLOAD DUP1 DUP4 SUB DUP2 DUP7 DUP1 EXTCODESIZE ISZERO DUP1 ISZERO PUSH2 0x105D JUMPI PUSH1 0x0 DUP1 REVERT JUMPDEST POP GAS STATICCALL ISZERO DUP1 ISZERO PUSH2 0x1071 JUMPI RETURNDATASIZE PUSH1 0x0 DUP1 RETURNDATACOPY RETURNDATASIZE PUSH1 0x0 REVERT JUMPDEST POP POP POP POP PUSH1 0x40 MLOAD RETURNDATASIZE PUSH1 0x1F NOT PUSH1 0x1F DUP3 ADD AND DUP3 ADD DUP1 PUSH1 0x40 MSTORE POP DUP2 ADD SWAP1 PUSH2 0x1095 SWAP2 SWAP1 PUSH2 0x3AF2 JUMP JUMPDEST DUP1 ISZERO PUSH2 0x1136 JUMPI POP PUSH14 0xAAEB6D7670E522A718067333CD4E PUSH20 0xFFFFFFFFFFFFFFFFFFFFFFFFFFFFFFFFFFFFFFFF AND PUSH4 0xC6171134 ADDRESS DUP4 PUSH1 0x40 MLOAD DUP4 PUSH4 0xFFFFFFFF AND PUSH1 0xE0 SHL DUP2 MSTORE PUSH1 0x4 ADD PUSH2 0x10E5 SWAP3 SWAP2 SWAP1 PUSH2 0x3AB4 JUMP JUMPDEST PUSH1 0x20 PUSH1 0x40 MLOAD DUP1 DUP4 SUB DUP2 DUP7 DUP1 EXTCODESIZE ISZERO DUP1 ISZERO PUSH2 0x10FD JUMPI PUSH1 0x0 DUP1 REVERT JUMPDEST POP GAS STATICCALL ISZERO DUP1 ISZERO PUSH2 0x1111 JUMPI RETURNDATASIZE PUSH1 0x0 DUP1 RETURNDATACOPY RETURNDATASIZE PUSH1 0x0 REVERT JUMPDEST POP POP POP POP PUSH1 0x40 MLOAD RETURNDATASIZE PUSH1 0x1F NOT PUSH1 0x1F DUP3 ADD AND DUP3 ADD DUP1 PUSH1 0x40 MSTORE POP DUP2 ADD SWAP1 PUSH2 0x1135 SWAP2 SWAP1 PUSH2 0x3AF2 JUMP JUMPDEST JUMPDEST PUSH2 0x1177 JUMPI CALLER PUSH1 0x40 MLOAD PUSH32 0xEDE71DCC00000000000000000000000000000000000000000000000000000000 DUP2 MSTORE PUSH1 0x4 ADD PUSH2 0x116E SWAP2 SWAP1 PUSH2 0x3221 JUMP JUMPDEST PUSH1 0x40 MLOAD DUP1 SWAP2 SUB SWAP1 REVERT JUMPDEST JUMPDEST PUSH2 0x1183 DUP5 DUP5 DUP5 PUSH2 0x2354 JUMP JUMPDEST JUMPDEST POP POP POP POP JUMP JUMPDEST PUSH1 0x9 SLOAD DUP2 JUMP JUMPDEST PUSH2 0x1198 PUSH2 0x22D1 JUMP JUMPDEST PUSH2 0x11A0 PUSH2 0x1707 JUMP JUMPDEST PUSH20 0xFFFFFFFFFFFFFFFFFFFFFFFFFFFFFFFFFFFFFFFF AND PUSH2 0x8FC SELFBALANCE SWAP1 DUP2 ISZERO MUL SWAP1 PUSH1 0x40 MLOAD PUSH1 0x0 PUSH1 0x40 MLOAD DUP1 DUP4 SUB DUP2 DUP6 DUP9 DUP9 CALL SWAP4 POP POP POP POP ISZERO DUP1 ISZERO PUSH2 0x11E5 JUMPI RETURNDATASIZE PUSH1 0x0 DUP1 RETURNDATACOPY RETURNDATASIZE PUSH1 0x0 REVERT JUMPDEST POP JUMP JUMPDEST DUP3 PUSH1 0x0 PUSH14 0xAAEB6D7670E522A718067333CD4E PUSH20 0xFFFFFFFFFFFFFFFFFFFFFFFFFFFFFFFFFFFFFFFF AND EXTCODESIZE GT ISZERO PUSH2 0x13D7 JUMPI CALLER PUSH20 0xFFFFFFFFFFFFFFFFFFFFFFFFFFFFFFFFFFFFFFFF AND DUP2 PUSH20 0xFFFFFFFFFFFFFFFFFFFFFFFFFFFFFFFFFFFFFFFF AND EQ ISZERO PUSH2 0x125B JUMPI PUSH2 0x1256 DUP5 DUP5 DUP5 PUSH2 0x2679 JUMP JUMPDEST PUSH2 0x13E3 JUMP JUMPDEST PUSH14 0xAAEB6D7670E522A718067333CD4E PUSH20 0xFFFFFFFFFFFFFFFFFFFFFFFFFFFFFFFFFFFFFFFF AND PUSH4 0xC6171134 ADDRESS CALLER PUSH1 0x40 MLOAD DUP4 PUSH4 0xFFFFFFFF AND PUSH1 0xE0 SHL DUP2 MSTORE PUSH1 0x4 ADD PUSH2 0x12A4 SWAP3 SWAP2 SWAP1 PUSH2 0x3AB4 JUMP JUMPDEST PUSH1 0x20 PUSH1 0x40 MLOAD DUP1 DUP4 SUB DUP2 DUP7 DUP1 EXTCODESIZE ISZERO DUP1 ISZERO PUSH2 0x12BC JUMPI PUSH1 0x0 DUP1 REVERT JUMPDEST POP GAS STATICCALL ISZERO DUP1 ISZERO PUSH2 0x12D0 JUMPI RETURNDATASIZE PUSH1 0x0 DUP1 RETURNDATACOPY RETURNDATASIZE PUSH1 0x0 REVERT JUMPDEST POP POP POP POP PUSH1 0x40 MLOAD RETURNDATASIZE PUSH1 0x1F NOT PUSH1 0x1F DUP3 ADD AND DUP3 ADD DUP1 PUSH1 0x40 MSTORE POP DUP2 ADD SWAP1 PUSH2 0x12F4 SWAP2 SWAP1 PUSH2 0x3AF2 JUMP JUMPDEST DUP1 ISZERO PUSH2 0x1395 JUMPI POP PUSH14 0xAAEB6D7670E522A718067333CD4E PUSH20 0xFFFFFFFFFFFFFFFFFFFFFFFFFFFFFFFFFFFFFFFF AND PUSH4 0xC6171134 ADDRESS DUP4 PUSH1 0x40 MLOAD DUP4 PUSH4 0xFFFFFFFF AND PUSH1 0xE0 SHL DUP2 MSTORE PUSH1 0x4 ADD PUSH2 0x1344 SWAP3 SWAP2 SWAP1 PUSH2 0x3AB4 JUMP JUMPDEST PUSH1 0x20 PUSH1 0x40 MLOAD DUP1 DUP4 SUB DUP2 DUP7 DUP1 EXTCODESIZE ISZERO DUP1 ISZERO PUSH2 0x135C JUMPI PUSH1 0x0 DUP1 REVERT JUMPDEST POP GAS STATICCALL ISZERO DUP1 ISZERO PUSH2 0x1370 JUMPI RETURNDATASIZE PUSH1 0x0 DUP1 RETURNDATACOPY RETURNDATASIZE PUSH1 0x0 REVERT JUMPDEST POP POP POP POP PUSH1 0x40 MLOAD RETURNDATASIZE PUSH1 0x1F NOT PUSH1 0x1F DUP3 ADD AND DUP3 ADD DUP1 PUSH1 0x40 MSTORE POP DUP2 ADD SWAP1 PUSH2 0x1394 SWAP2 SWAP1 PUSH2 0x3AF2 JUMP JUMPDEST JUMPDEST PUSH2 0x13D6 JUMPI CALLER PUSH1 0x40 MLOAD PUSH32 0xEDE71DCC00000000000000000000000000000000000000000000000000000000 DUP2 MSTORE PUSH1 0x4 ADD PUSH2 0x13CD SWAP2 SWAP1 PUSH2 0x3221 JUMP JUMPDEST PUSH1 0x40 MLOAD DUP1 SWAP2 SUB SWAP1 REVERT JUMPDEST JUMPDEST PUSH2 0x13E2 DUP5 DUP5 DUP5 PUSH2 0x2679 JUMP JUMPDEST JUMPDEST POP POP POP POP JUMP JUMPDEST PUSH1 0x12 PUSH1 0x1 SWAP1 SLOAD SWAP1 PUSH2 0x100 EXP SWAP1 DIV PUSH1 0xFF AND DUP2 JUMP JUMPDEST PUSH2 0x1404 PUSH2 0x22D1 JUMP JUMPDEST PUSH1 0x1 DUP2 MLOAD GT PUSH2 0x1448 JUMPI PUSH1 0x40 MLOAD PUSH32 0x8C379A000000000000000000000000000000000000000000000000000000000 DUP2 MSTORE PUSH1 0x4 ADD PUSH2 0x143F SWAP1 PUSH2 0x3B6B JUMP JUMPDEST PUSH1 0x40 MLOAD DUP1 SWAP2 SUB SWAP1 REVERT JUMPDEST PUSH1 0x0 PUSH2 0x1453 DUP3 PUSH2 0x2699 JUMP JUMPDEST SWAP1 POP PUSH1 0x0 PUSH2 0x146E DUP4 PUSH1 0x1 DUP5 PUSH2 0x1468 SWAP2 SWAP1 PUSH2 0x3A08 JUMP JUMPDEST DUP5 PUSH2 0xE8D JUMP JUMPDEST SWAP1 POP PUSH2 0x14AF DUP2 PUSH1 0x40 MLOAD DUP1 PUSH1 0x40 ADD PUSH1 0x40 MSTORE DUP1 PUSH1 0x1 DUP2 MSTORE PUSH1 0x20 ADD PUSH32 0x2F00000000000000000000000000000000000000000000000000000000000000 DUP2 MSTORE POP PUSH2 0x284E JUMP JUMPDEST PUSH2 0x14EE JUMPI PUSH1 0x40 MLOAD PUSH32 0x8C379A000000000000000000000000000000000000000000000000000000000 DUP2 MSTORE PUSH1 0x4 ADD PUSH2 0x14E5 SWAP1 PUSH2 0x3BFD JUMP JUMPDEST PUSH1 0x40 MLOAD DUP1 SWAP2 SUB SWAP1 REVERT JUMPDEST PUSH1 0x12 PUSH1 0x1 SWAP1 SLOAD SWAP1 PUSH2 0x100 EXP SWAP1 DIV PUSH1 0xFF AND ISZERO PUSH2 0x153E JUMPI PUSH1 0x40 MLOAD PUSH32 0x8C379A000000000000000000000000000000000000000000000000000000000 DUP2 MSTORE PUSH1 0x4 ADD PUSH2 0x1535 SWAP1 PUSH2 0x3C69 JUMP JUMPDEST PUSH1 0x40 MLOAD DUP1 SWAP2 SUB SWAP1 REVERT JUMPDEST PUSH1 0x1 PUSH1 0x12 PUSH1 0x1 PUSH2 0x100 EXP DUP2 SLOAD DUP2 PUSH1 0xFF MUL NOT AND SWAP1 DUP4 ISZERO ISZERO MUL OR SWAP1 SSTORE POP DUP3 PUSH1 0xF SWAP1 DUP1 MLOAD SWAP1 PUSH1 0x20 ADD SWAP1 PUSH2 0x156F SWAP3 SWAP2 SWAP1 PUSH2 0x2F50 JUMP JUMPDEST POP POP POP POP JUMP JUMPDEST PUSH1 0x12 PUSH1 0x0 SWAP1 SLOAD SWAP1 PUSH2 0x100 EXP SWAP1 DIV PUSH1 0xFF AND DUP2 JUMP JUMPDEST PUSH1 0x0 PUSH2 0x1593 DUP3 PUSH2 0x28A7 JUMP JUMPDEST SWAP1 POP SWAP2 SWAP1 POP JUMP JUMPDEST PUSH1 0xF DUP1 SLOAD PUSH2 0x15A7 SWAP1 PUSH2 0x388B JUMP JUMPDEST DUP1 PUSH1 0x1F ADD PUSH1 0x20 DUP1 SWAP2 DIV MUL PUSH1 0x20 ADD PUSH1 0x40 MLOAD SWAP1 DUP2 ADD PUSH1 0x40 MSTORE DUP1 SWAP3 SWAP2 SWAP1 DUP2 DUP2 MSTORE PUSH1 0x20 ADD DUP3 DUP1 SLOAD PUSH2 0x15D3 SWAP1 PUSH2 0x388B JUMP JUMPDEST DUP1 ISZERO PUSH2 0x1620 JUMPI DUP1 PUSH1 0x1F LT PUSH2 0x15F5 JUMPI PUSH2 0x100 DUP1 DUP4 SLOAD DIV MUL DUP4 MSTORE SWAP2 PUSH1 0x20 ADD SWAP2 PUSH2 0x1620 JUMP JUMPDEST DUP3 ADD SWAP2 SWAP1 PUSH1 0x0 MSTORE PUSH1 0x20 PUSH1 0x0 KECCAK256 SWAP1 JUMPDEST DUP2 SLOAD DUP2 MSTORE SWAP1 PUSH1 0x1 ADD SWAP1 PUSH1 0x20 ADD DUP1 DUP4 GT PUSH2 0x1603 JUMPI DUP3 SWAP1 SUB PUSH1 0x1F AND DUP3 ADD SWAP2 JUMPDEST POP POP POP POP POP DUP2 JUMP JUMPDEST PUSH1 0x0 DUP1 PUSH20 0xFFFFFFFFFFFFFFFFFFFFFFFFFFFFFFFFFFFFFFFF AND DUP3 PUSH20 0xFFFFFFFFFFFFFFFFFFFFFFFFFFFFFFFFFFFFFFFF AND EQ ISZERO PUSH2 0x1690 JUMPI PUSH1 0x40 MLOAD PUSH32 0x8F4EB60400000000000000000000000000000000000000000000000000000000 DUP2 MSTORE PUSH1 0x4 ADD PUSH1 0x40 MLOAD DUP1 SWAP2 SUB SWAP1 REVERT JUMPDEST PUSH8 0xFFFFFFFFFFFFFFFF PUSH1 0x5 PUSH1 0x0 DUP5 PUSH20 0xFFFFFFFFFFFFFFFFFFFFFFFFFFFFFFFFFFFFFFFF AND PUSH20 0xFFFFFFFFFFFFFFFFFFFFFFFFFFFFFFFFFFFFFFFF AND DUP2 MSTORE PUSH1 0x20 ADD SWAP1 DUP2 MSTORE PUSH1 0x20 ADD PUSH1 0x0 KECCAK256 SLOAD AND SWAP1 POP SWAP2 SWAP1 POP JUMP JUMPDEST PUSH2 0x16E9 PUSH2 0x22D1 JUMP JUMPDEST PUSH2 0x16F3 PUSH1 0x0 PUSH2 0x2975 JUMP JUMPDEST JUMP JUMPDEST PUSH2 0x16FD PUSH2 0x22D1 JUMP JUMPDEST DUP1 PUSH1 0x9 DUP2 SWAP1 SSTORE POP POP JUMP JUMPDEST PUSH1 0x0 PUSH1 0x8 PUSH1 0x0 SWAP1 SLOAD SWAP1 PUSH2 0x100 EXP SWAP1 DIV PUSH20 0xFFFFFFFFFFFFFFFFFFFFFFFFFFFFFFFFFFFFFFFF AND SWAP1 POP SWAP1 JUMP JUMPDEST PUSH1 0x10 DUP1 SLOAD PUSH2 0x173E SWAP1 PUSH2 0x388B JUMP JUMPDEST DUP1 PUSH1 0x1F ADD PUSH1 0x20 DUP1 SWAP2 DIV MUL PUSH1 0x20 ADD PUSH1 0x40 MLOAD SWAP1 DUP2 ADD PUSH1 0x40 MSTORE DUP1 SWAP3 SWAP2 SWAP1 DUP2 DUP2 MSTORE PUSH1 0x20 ADD DUP3 DUP1 SLOAD PUSH2 0x176A SWAP1 PUSH2 0x388B JUMP JUMPDEST DUP1 ISZERO PUSH2 0x17B7 JUMPI DUP1 PUSH1 0x1F LT PUSH2 0x178C JUMPI PUSH2 0x100 DUP1 DUP4 SLOAD DIV MUL DUP4 MSTORE SWAP2 PUSH1 0x20 ADD SWAP2 PUSH2 0x17B7 JUMP JUMPDEST DUP3 ADD SWAP2 SWAP1 PUSH1 0x0 MSTORE PUSH1 0x20 PUSH1 0x0 KECCAK256 SWAP1 JUMPDEST DUP2 SLOAD DUP2 MSTORE SWAP1 PUSH1 0x1 ADD SWAP1 PUSH1 0x20 ADD DUP1 DUP4 GT PUSH2 0x179A JUMPI DUP3 SWAP1 SUB PUSH1 0x1F AND DUP3 ADD SWAP2 JUMPDEST POP POP POP POP POP DUP2 JUMP JUMPDEST PUSH2 0x17C7 PUSH2 0x22D1 JUMP JUMPDEST DUP1 PUSH1 0x11 DUP2 SWAP1 SSTORE POP POP JUMP JUMPDEST PUSH1 0x60 PUSH1 0x3 DUP1 SLOAD PUSH2 0x17E0 SWAP1 PUSH2 0x388B JUMP JUMPDEST DUP1 PUSH1 0x1F ADD PUSH1 0x20 DUP1 SWAP2 DIV MUL PUSH1 0x20 ADD PUSH1 0x40 MLOAD SWAP1 DUP2 ADD PUSH1 0x40 MSTORE DUP1 SWAP3 SWAP2 SWAP1 DUP2 DUP2 MSTORE PUSH1 0x20 ADD DUP3 DUP1 SLOAD PUSH2 0x180C SWAP1 PUSH2 0x388B JUMP JUMPDEST DUP1 ISZERO PUSH2 0x1859 JUMPI DUP1 PUSH1 0x1F LT PUSH2 0x182E JUMPI PUSH2 0x100 DUP1 DUP4 SLOAD DIV MUL DUP4 MSTORE SWAP2 PUSH1 0x20 ADD SWAP2 PUSH2 0x1859 JUMP JUMPDEST DUP3 ADD SWAP2 SWAP1 PUSH1 0x0 MSTORE PUSH1 0x20 PUSH1 0x0 KECCAK256 SWAP1 JUMPDEST DUP2 SLOAD DUP2 MSTORE SWAP1 PUSH1 0x1 ADD SWAP1 PUSH1 0x20 ADD DUP1 DUP4 GT PUSH2 0x183C JUMPI DUP3 SWAP1 SUB PUSH1 0x1F AND DUP3 ADD SWAP2 JUMPDEST POP POP POP POP POP SWAP1 POP SWAP1 JUMP JUMPDEST PUSH1 0x12 PUSH1 0x0 SWAP1 SLOAD SWAP1 PUSH2 0x100 EXP SWAP1 DIV PUSH1 0xFF AND ISZERO PUSH2 0x18B3 JUMPI PUSH1 0x40 MLOAD PUSH32 0x8C379A000000000000000000000000000000000000000000000000000000000 DUP2 MSTORE PUSH1 0x4 ADD PUSH2 0x18AA SWAP1 PUSH2 0x3909 JUMP JUMPDEST PUSH1 0x40 MLOAD DUP1 SWAP2 SUB SWAP1 REVERT JUMPDEST PUSH1 0x2 PUSH1 0x11 SLOAD EQ PUSH2 0x18EF JUMPI PUSH1 0x40 MLOAD PUSH32 0xA9F4F87100000000000000000000000000000000000000000000000000000000 DUP2 MSTORE PUSH1 0x4 ADD PUSH1 0x40 MLOAD DUP1 SWAP2 SUB SWAP1 REVERT JUMPDEST PUSH1 0xC SLOAD DUP2 PUSH2 0x18FB PUSH2 0xE76 JUMP JUMPDEST PUSH2 0x1905 SWAP2 SWAP1 PUSH2 0x3958 JUMP JUMPDEST GT ISZERO PUSH2 0x193D JUMPI PUSH1 0x40 MLOAD PUSH32 0x76592C6F00000000000000000000000000000000000000000000000000000000 DUP2 MSTORE PUSH1 0x4 ADD PUSH1 0x40 MLOAD DUP1 SWAP2 SUB SWAP1 REVERT JUMPDEST CALLVALUE DUP2 PUSH1 0xD SLOAD PUSH2 0x194C SWAP2 SWAP1 PUSH2 0x39AE JUMP JUMPDEST EQ PUSH2 0x1983 JUMPI PUSH1 0x40 MLOAD PUSH32 0xB457F15800000000000000000000000000000000000000000000000000000000 DUP2 MSTORE PUSH1 0x4 ADD PUSH1 0x40 MLOAD DUP1 SWAP2 SUB SWAP1 REVERT JUMPDEST PUSH1 0xA SLOAD PUSH1 0x14 PUSH1 0x0 CALLER PUSH20 0xFFFFFFFFFFFFFFFFFFFFFFFFFFFFFFFFFFFFFFFF AND PUSH20 0xFFFFFFFFFFFFFFFFFFFFFFFFFFFFFFFFFFFFFFFF AND DUP2 MSTORE PUSH1 0x20 ADD SWAP1 DUP2 MSTORE PUSH1 0x20 ADD PUSH1 0x0 KECCAK256 SLOAD DUP3 PUSH2 0x19D1 SWAP2 SWAP1 PUSH2 0x3958 JUMP JUMPDEST GT ISZERO PUSH2 0x1A09 JUMPI PUSH1 0x40 MLOAD PUSH32 0x38D8B70C00000000000000000000000000000000000000000000000000000000 DUP2 MSTORE PUSH1 0x4 ADD PUSH1 0x40 MLOAD DUP1 SWAP2 SUB SWAP1 REVERT JUMPDEST DUP1 PUSH1 0x14 PUSH1 0x0 CALLER PUSH20 0xFFFFFFFFFFFFFFFFFFFFFFFFFFFFFFFFFFFFFFFF AND PUSH20 0xFFFFFFFFFFFFFFFFFFFFFFFFFFFFFFFFFFFFFFFF AND DUP2 MSTORE PUSH1 0x20 ADD SWAP1 DUP2 MSTORE PUSH1 0x20 ADD PUSH1 0x0 KECCAK256 PUSH1 0x0 DUP3 DUP3 SLOAD PUSH2 0x1A58 SWAP2 SWAP1 PUSH2 0x3958 JUMP JUMPDEST SWAP3 POP POP DUP2 SWAP1 SSTORE POP PUSH2 0x1A69 CALLER DUP3 PUSH2 0x2114 JUMP JUMPDEST POP JUMP JUMPDEST DUP1 PUSH1 0x7 PUSH1 0x0 PUSH2 0x1A79 PUSH2 0x20AE JUMP JUMPDEST PUSH20 0xFFFFFFFFFFFFFFFFFFFFFFFFFFFFFFFFFFFFFFFF AND PUSH20 0xFFFFFFFFFFFFFFFFFFFFFFFFFFFFFFFFFFFFFFFF AND DUP2 MSTORE PUSH1 0x20 ADD SWAP1 DUP2 MSTORE PUSH1 0x20 ADD PUSH1 0x0 KECCAK256 PUSH1 0x0 DUP5 PUSH20 0xFFFFFFFFFFFFFFFFFFFFFFFFFFFFFFFFFFFFFFFF AND PUSH20 0xFFFFFFFFFFFFFFFFFFFFFFFFFFFFFFFFFFFFFFFF AND DUP2 MSTORE PUSH1 0x20 ADD SWAP1 DUP2 MSTORE PUSH1 0x20 ADD PUSH1 0x0 KECCAK256 PUSH1 0x0 PUSH2 0x100 EXP DUP2 SLOAD DUP2 PUSH1 0xFF MUL NOT AND SWAP1 DUP4 ISZERO ISZERO MUL OR SWAP1 SSTORE POP DUP2 PUSH20 0xFFFFFFFFFFFFFFFFFFFFFFFFFFFFFFFFFFFFFFFF AND PUSH2 0x1B26 PUSH2 0x20AE JUMP JUMPDEST PUSH20 0xFFFFFFFFFFFFFFFFFFFFFFFFFFFFFFFFFFFFFFFF AND PUSH32 0x17307EAB39AB6107E8899845AD3D59BD9653F200F220920489CA2B5937696C31 DUP4 PUSH1 0x40 MLOAD PUSH2 0x1B6B SWAP2 SWAP1 PUSH2 0x30A7 JUMP JUMPDEST PUSH1 0x40 MLOAD DUP1 SWAP2 SUB SWAP1 LOG3 POP POP JUMP JUMPDEST PUSH1 0x14 PUSH1 0x20 MSTORE DUP1 PUSH1 0x0 MSTORE PUSH1 0x40 PUSH1 0x0 KECCAK256 PUSH1 0x0 SWAP2 POP SWAP1 POP SLOAD DUP2 JUMP JUMPDEST PUSH1 0xA SLOAD DUP2 JUMP JUMPDEST DUP4 PUSH1 0x0 PUSH14 0xAAEB6D7670E522A718067333CD4E PUSH20 0xFFFFFFFFFFFFFFFFFFFFFFFFFFFFFFFFFFFFFFFF AND EXTCODESIZE GT ISZERO PUSH2 0x1D85 JUMPI CALLER PUSH20 0xFFFFFFFFFFFFFFFFFFFFFFFFFFFFFFFFFFFFFFFF AND DUP2 PUSH20 0xFFFFFFFFFFFFFFFFFFFFFFFFFFFFFFFFFFFFFFFF AND EQ ISZERO PUSH2 0x1C09 JUMPI PUSH2 0x1C04 DUP6 DUP6 DUP6 DUP6 PUSH2 0x2A3B JUMP JUMPDEST PUSH2 0x1D92 JUMP JUMPDEST PUSH14 0xAAEB6D7670E522A718067333CD4E PUSH20 0xFFFFFFFFFFFFFFFFFFFFFFFFFFFFFFFFFFFFFFFF AND PUSH4 0xC6171134 ADDRESS CALLER PUSH1 0x40 MLOAD DUP4 PUSH4 0xFFFFFFFF AND PUSH1 0xE0 SHL DUP2 MSTORE PUSH1 0x4 ADD PUSH2 0x1C52 SWAP3 SWAP2 SWAP1 PUSH2 0x3AB4 JUMP JUMPDEST PUSH1 0x20 PUSH1 0x40 MLOAD DUP1 DUP4 SUB DUP2 DUP7 DUP1 EXTCODESIZE ISZERO DUP1 ISZERO PUSH2 0x1C6A JUMPI PUSH1 0x0 DUP1 REVERT JUMPDEST POP GAS STATICCALL ISZERO DUP1 ISZERO PUSH2 0x1C7E JUMPI RETURNDATASIZE PUSH1 0x0 DUP1 RETURNDATACOPY RETURNDATASIZE PUSH1 0x0 REVERT JUMPDEST POP POP POP POP PUSH1 0x40 MLOAD RETURNDATASIZE PUSH1 0x1F NOT PUSH1 0x1F DUP3 ADD AND DUP3 ADD DUP1 PUSH1 0x40 MSTORE POP DUP2 ADD SWAP1 PUSH2 0x1CA2 SWAP2 SWAP1 PUSH2 0x3AF2 JUMP JUMPDEST DUP1 ISZERO PUSH2 0x1D43 JUMPI POP PUSH14 0xAAEB6D7670E522A718067333CD4E PUSH20 0xFFFFFFFFFFFFFFFFFFFFFFFFFFFFFFFFFFFFFFFF AND PUSH4 0xC6171134 ADDRESS DUP4 PUSH1 0x40 MLOAD DUP4 PUSH4 0xFFFFFFFF AND PUSH1 0xE0 SHL DUP2 MSTORE PUSH1 0x4 ADD PUSH2 0x1CF2 SWAP3 SWAP2 SWAP1 PUSH2 0x3AB4 JUMP JUMPDEST PUSH1 0x20 PUSH1 0x40 MLOAD DUP1 DUP4 SUB DUP2 DUP7 DUP1 EXTCODESIZE ISZERO DUP1 ISZERO PUSH2 0x1D0A JUMPI PUSH1 0x0 DUP1 REVERT JUMPDEST POP GAS STATICCALL ISZERO DUP1 ISZERO PUSH2 0x1D1E JUMPI RETURNDATASIZE PUSH1 0x0 DUP1 RETURNDATACOPY RETURNDATASIZE PUSH1 0x0 REVERT JUMPDEST POP POP POP POP PUSH1 0x40 MLOAD RETURNDATASIZE PUSH1 0x1F NOT PUSH1 0x1F DUP3 ADD AND DUP3 ADD DUP1 PUSH1 0x40 MSTORE POP DUP2 ADD SWAP1 PUSH2 0x1D42 SWAP2 SWAP1 PUSH2 0x3AF2 JUMP JUMPDEST JUMPDEST PUSH2 0x1D84 JUMPI CALLER PUSH1 0x40 MLOAD PUSH32 0xEDE71DCC00000000000000000000000000000000000000000000000000000000 DUP2 MSTORE PUSH1 0x4 ADD PUSH2 0x1D7B SWAP2 SWAP1 PUSH2 0x3221 JUMP JUMPDEST PUSH1 0x40 MLOAD DUP1 SWAP2 SUB SWAP1 REVERT JUMPDEST JUMPDEST PUSH2 0x1D91 DUP6 DUP6 DUP6 DUP6 PUSH2 0x2A3B JUMP JUMPDEST JUMPDEST POP POP POP POP POP JUMP JUMPDEST PUSH1 0xE DUP1 SLOAD PUSH2 0x1DA6 SWAP1 PUSH2 0x388B JUMP JUMPDEST DUP1 PUSH1 0x1F ADD PUSH1 0x20 DUP1 SWAP2 DIV MUL PUSH1 0x20 ADD PUSH1 0x40 MLOAD SWAP1 DUP2 ADD PUSH1 0x40 MSTORE DUP1 SWAP3 SWAP2 SWAP1 DUP2 DUP2 MSTORE PUSH1 0x20 ADD DUP3 DUP1 SLOAD PUSH2 0x1DD2 SWAP1 PUSH2 0x388B JUMP JUMPDEST DUP1 ISZERO PUSH2 0x1E1F JUMPI DUP1 PUSH1 0x1F LT PUSH2 0x1DF4 JUMPI PUSH2 0x100 DUP1 DUP4 SLOAD DIV MUL DUP4 MSTORE SWAP2 PUSH1 0x20 ADD SWAP2 PUSH2 0x1E1F JUMP JUMPDEST DUP3 ADD SWAP2 SWAP1 PUSH1 0x0 MSTORE PUSH1 0x20 PUSH1 0x0 KECCAK256 SWAP1 JUMPDEST DUP2 SLOAD DUP2 MSTORE SWAP1 PUSH1 0x1 ADD SWAP1 PUSH1 0x20 ADD DUP1 DUP4 GT PUSH2 0x1E02 JUMPI DUP3 SWAP1 SUB PUSH1 0x1F AND DUP3 ADD SWAP2 JUMPDEST POP POP POP POP POP DUP2 JUMP JUMPDEST PUSH1 0x60 PUSH2 0x1E32 DUP3 PUSH2 0x204F JUMP JUMPDEST PUSH2 0x1E71 JUMPI PUSH1 0x40 MLOAD PUSH32 0x8C379A000000000000000000000000000000000000000000000000000000000 DUP2 MSTORE PUSH1 0x4 ADD PUSH2 0x1E68 SWAP1 PUSH2 0x3CD5 JUMP JUMPDEST PUSH1 0x40 MLOAD DUP1 SWAP2 SUB SWAP1 REVERT JUMPDEST PUSH1 0x12 PUSH1 0x1 SWAP1 SLOAD SWAP1 PUSH2 0x100 EXP SWAP1 DIV PUSH1 0xFF AND ISZERO PUSH2 0x1EBB JUMPI PUSH1 0xF PUSH2 0x1E91 DUP4 PUSH2 0x2AAE JUMP JUMPDEST PUSH1 0xE PUSH1 0x40 MLOAD PUSH1 0x20 ADD PUSH2 0x1EA5 SWAP4 SWAP3 SWAP2 SWAP1 PUSH2 0x3DC5 JUMP JUMPDEST PUSH1 0x40 MLOAD PUSH1 0x20 DUP2 DUP4 SUB SUB DUP2 MSTORE SWAP1 PUSH1 0x40 MSTORE SWAP1 POP PUSH2 0x1EEC JUMP JUMPDEST PUSH1 0x10 PUSH2 0x1EC6 DUP4 PUSH2 0x2AAE JUMP JUMPDEST PUSH1 0xE PUSH1 0x40 MLOAD PUSH1 0x20 ADD PUSH2 0x1EDA SWAP4 SWAP3 SWAP2 SWAP1 PUSH2 0x3DC5 JUMP JUMPDEST PUSH1 0x40 MLOAD PUSH1 0x20 DUP2 DUP4 SUB SUB DUP2 MSTORE SWAP1 PUSH1 0x40 MSTORE SWAP1 POP JUMPDEST SWAP2 SWAP1 POP JUMP JUMPDEST PUSH1 0xD SLOAD DUP2 JUMP JUMPDEST PUSH1 0xC SLOAD DUP2 JUMP JUMPDEST PUSH1 0x0 PUSH1 0x7 PUSH1 0x0 DUP5 PUSH20 0xFFFFFFFFFFFFFFFFFFFFFFFFFFFFFFFFFFFFFFFF AND PUSH20 0xFFFFFFFFFFFFFFFFFFFFFFFFFFFFFFFFFFFFFFFF AND DUP2 MSTORE PUSH1 0x20 ADD SWAP1 DUP2 MSTORE PUSH1 0x20 ADD PUSH1 0x0 KECCAK256 PUSH1 0x0 DUP4 PUSH20 0xFFFFFFFFFFFFFFFFFFFFFFFFFFFFFFFFFFFFFFFF AND PUSH20 0xFFFFFFFFFFFFFFFFFFFFFFFFFFFFFFFFFFFFFFFF AND DUP2 MSTORE PUSH1 0x20 ADD SWAP1 DUP2 MSTORE PUSH1 0x20 ADD PUSH1 0x0 KECCAK256 PUSH1 0x0 SWAP1 SLOAD SWAP1 PUSH2 0x100 EXP SWAP1 DIV PUSH1 0xFF AND SWAP1 POP SWAP3 SWAP2 POP POP JUMP JUMPDEST PUSH1 0xB SLOAD DUP2 JUMP JUMPDEST PUSH2 0x1F9F PUSH2 0x22D1 JUMP JUMPDEST PUSH1 0x12 PUSH1 0x0 SWAP1 SLOAD SWAP1 PUSH2 0x100 EXP SWAP1 DIV PUSH1 0xFF AND ISZERO PUSH1 0x12 PUSH1 0x0 PUSH2 0x100 EXP DUP2 SLOAD DUP2 PUSH1 0xFF MUL NOT AND SWAP1 DUP4 ISZERO ISZERO MUL OR SWAP1 SSTORE POP JUMP JUMPDEST PUSH2 0x1FD3 PUSH2 0x22D1 JUMP JUMPDEST PUSH1 0x0 PUSH20 0xFFFFFFFFFFFFFFFFFFFFFFFFFFFFFFFFFFFFFFFF AND DUP2 PUSH20 0xFFFFFFFFFFFFFFFFFFFFFFFFFFFFFFFFFFFFFFFF AND EQ ISZERO PUSH2 0x2043 JUMPI PUSH1 0x40 MLOAD PUSH32 0x8C379A000000000000000000000000000000000000000000000000000000000 DUP2 MSTORE PUSH1 0x4 ADD PUSH2 0x203A SWAP1 PUSH2 0x3E68 JUMP JUMPDEST PUSH1 0x40 MLOAD DUP1 SWAP2 SUB SWAP1 REVERT JUMPDEST PUSH2 0x204C DUP2 PUSH2 0x2975 JUMP JUMPDEST POP JUMP JUMPDEST PUSH1 0x0 DUP2 PUSH2 0x205A PUSH2 0x234F JUMP JUMPDEST GT ISZERO DUP1 ISZERO PUSH2 0x2069 JUMPI POP PUSH1 0x0 SLOAD DUP3 LT JUMPDEST DUP1 ISZERO PUSH2 0x20A7 JUMPI POP PUSH1 0x0 PUSH29 0x100000000000000000000000000000000000000000000000000000000 PUSH1 0x4 PUSH1 0x0 DUP6 DUP2 MSTORE PUSH1 0x20 ADD SWAP1 DUP2 MSTORE PUSH1 0x20 ADD PUSH1 0x0 KECCAK256 SLOAD AND EQ JUMPDEST SWAP1 POP SWAP2 SWAP1 POP JUMP JUMPDEST PUSH1 0x0 CALLER SWAP1 POP SWAP1 JUMP JUMPDEST PUSH1 0x0 PUSH2 0x210B PUSH2 0x20C4 DUP6 PUSH2 0x2C0F JUMP JUMPDEST DUP5 DUP5 DUP1 DUP1 PUSH1 0x20 MUL PUSH1 0x20 ADD PUSH1 0x40 MLOAD SWAP1 DUP2 ADD PUSH1 0x40 MSTORE DUP1 SWAP4 SWAP3 SWAP2 SWAP1 DUP2 DUP2 MSTORE PUSH1 0x20 ADD DUP4 DUP4 PUSH1 0x20 MUL DUP1 DUP3 DUP5 CALLDATACOPY PUSH1 0x0 DUP2 DUP5 ADD MSTORE PUSH1 0x1F NOT PUSH1 0x1F DUP3 ADD AND SWAP1 POP DUP1 DUP4 ADD SWAP3 POP POP POP POP POP POP POP PUSH2 0x2C3F JUMP JUMPDEST SWAP1 POP SWAP4 SWAP3 POP POP POP JUMP JUMPDEST PUSH1 0x0 DUP1 SLOAD SWAP1 POP PUSH1 0x0 DUP3 EQ ISZERO PUSH2 0x2155 JUMPI PUSH1 0x40 MLOAD PUSH32 0xB562E8DD00000000000000000000000000000000000000000000000000000000 DUP2 MSTORE PUSH1 0x4 ADD PUSH1 0x40 MLOAD DUP1 SWAP2 SUB SWAP1 REVERT JUMPDEST PUSH2 0x2162 PUSH1 0x0 DUP5 DUP4 DUP6 PUSH2 0x2C56 JUMP JUMPDEST PUSH1 0x1 PUSH1 0x40 PUSH1 0x1 SWAP1 SHL OR DUP3 MUL PUSH1 0x5 PUSH1 0x0 DUP6 PUSH20 0xFFFFFFFFFFFFFFFFFFFFFFFFFFFFFFFFFFFFFFFF AND PUSH20 0xFFFFFFFFFFFFFFFFFFFFFFFFFFFFFFFFFFFFFFFF AND DUP2 MSTORE PUSH1 0x20 ADD SWAP1 DUP2 MSTORE PUSH1 0x20 ADD PUSH1 0x0 KECCAK256 PUSH1 0x0 DUP3 DUP3 SLOAD ADD SWAP3 POP POP DUP2 SWAP1 SSTORE POP PUSH2 0x21D9 DUP4 PUSH2 0x21CA PUSH1 0x0 DUP7 PUSH1 0x0 PUSH2 0x2C5C JUMP JUMPDEST PUSH2 0x21D3 DUP6 PUSH2 0x2C84 JUMP JUMPDEST OR PUSH2 0x2C94 JUMP JUMPDEST PUSH1 0x4 PUSH1 0x0 DUP4 DUP2 MSTORE PUSH1 0x20 ADD SWAP1 DUP2 MSTORE PUSH1 0x20 ADD PUSH1 0x0 KECCAK256 DUP2 SWAP1 SSTORE POP PUSH1 0x0 DUP1 DUP4 DUP4 ADD SWAP1 POP PUSH20 0xFFFFFFFFFFFFFFFFFFFFFFFFFFFFFFFFFFFFFFFF DUP6 AND SWAP2 POP DUP3 DUP3 PUSH1 0x0 PUSH32 0xDDF252AD1BE2C89B69C2B068FC378DAA952BA7F163C4A11628F55A4DF523B3EF PUSH1 0x0 DUP1 LOG4 PUSH1 0x1 DUP4 ADD JUMPDEST DUP2 DUP2 EQ PUSH2 0x227A JUMPI DUP1 DUP4 PUSH1 0x0 PUSH32 0xDDF252AD1BE2C89B69C2B068FC378DAA952BA7F163C4A11628F55A4DF523B3EF PUSH1 0x0 DUP1 LOG4 PUSH1 0x1 DUP2 ADD SWAP1 POP PUSH2 0x223F JUMP JUMPDEST POP PUSH1 0x0 DUP3 EQ ISZERO PUSH2 0x22B6 JUMPI PUSH1 0x40 MLOAD PUSH32 0x2E07630000000000000000000000000000000000000000000000000000000000 DUP2 MSTORE PUSH1 0x4 ADD PUSH1 0x40 MLOAD DUP1 SWAP2 SUB SWAP1 REVERT JUMPDEST DUP1 PUSH1 0x0 DUP2 SWAP1 SSTORE POP POP POP PUSH2 0x22CC PUSH1 0x0 DUP5 DUP4 DUP6 PUSH2 0x2CBF JUMP JUMPDEST POP POP POP JUMP JUMPDEST PUSH2 0x22D9 PUSH2 0x2CC5 JUMP JUMPDEST PUSH20 0xFFFFFFFFFFFFFFFFFFFFFFFFFFFFFFFFFFFFFFFF AND PUSH2 0x22F7 PUSH2 0x1707 JUMP JUMPDEST PUSH20 0xFFFFFFFFFFFFFFFFFFFFFFFFFFFFFFFFFFFFFFFF AND EQ PUSH2 0x234D JUMPI PUSH1 0x40 MLOAD PUSH32 0x8C379A000000000000000000000000000000000000000000000000000000000 DUP2 MSTORE PUSH1 0x4 ADD PUSH2 0x2344 SWAP1 PUSH2 0x3ED4 JUMP JUMPDEST PUSH1 0x40 MLOAD DUP1 SWAP2 SUB SWAP1 REVERT JUMPDEST JUMP JUMPDEST PUSH1 0x0 SWAP1 JUMP JUMPDEST PUSH1 0x0 PUSH2 0x235F DUP3 PUSH2 0x28A7 JUMP JUMPDEST SWAP1 POP DUP4 PUSH20 0xFFFFFFFFFFFFFFFFFFFFFFFFFFFFFFFFFFFFFFFF AND DUP2 PUSH20 0xFFFFFFFFFFFFFFFFFFFFFFFFFFFFFFFFFFFFFFFF AND EQ PUSH2 0x23C6 JUMPI PUSH1 0x40 MLOAD PUSH32 0xA114810000000000000000000000000000000000000000000000000000000000 DUP2 MSTORE PUSH1 0x4 ADD PUSH1 0x40 MLOAD DUP1 SWAP2 SUB SWAP1 REVERT JUMPDEST PUSH1 0x0 DUP1 PUSH2 0x23D2 DUP5 PUSH2 0x2CCD JUMP JUMPDEST SWAP2 POP SWAP2 POP PUSH2 0x23E8 DUP2 DUP8 PUSH2 0x23E3 PUSH2 0x20AE JUMP JUMPDEST PUSH2 0x2CF4 JUMP JUMPDEST PUSH2 0x2434 JUMPI PUSH2 0x23FD DUP7 PUSH2 0x23F8 PUSH2 0x20AE JUMP JUMPDEST PUSH2 0x1EFD JUMP JUMPDEST PUSH2 0x2433 JUMPI PUSH1 0x40 MLOAD PUSH32 0x59C896BE00000000000000000000000000000000000000000000000000000000 DUP2 MSTORE PUSH1 0x4 ADD PUSH1 0x40 MLOAD DUP1 SWAP2 SUB SWAP1 REVERT JUMPDEST JUMPDEST PUSH1 0x0 PUSH20 0xFFFFFFFFFFFFFFFFFFFFFFFFFFFFFFFFFFFFFFFF AND DUP6 PUSH20 0xFFFFFFFFFFFFFFFFFFFFFFFFFFFFFFFFFFFFFFFF AND EQ ISZERO PUSH2 0x249B JUMPI PUSH1 0x40 MLOAD PUSH32 0xEA553B3400000000000000000000000000000000000000000000000000000000 DUP2 MSTORE PUSH1 0x4 ADD PUSH1 0x40 MLOAD DUP1 SWAP2 SUB SWAP1 REVERT JUMPDEST PUSH2 0x24A8 DUP7 DUP7 DUP7 PUSH1 0x1 PUSH2 0x2C56 JUMP JUMPDEST DUP1 ISZERO PUSH2 0x24B3 JUMPI PUSH1 0x0 DUP3 SSTORE JUMPDEST PUSH1 0x5 PUSH1 0x0 DUP8 PUSH20 0xFFFFFFFFFFFFFFFFFFFFFFFFFFFFFFFFFFFFFFFF AND PUSH20 0xFFFFFFFFFFFFFFFFFFFFFFFFFFFFFFFFFFFFFFFF AND DUP2 MSTORE PUSH1 0x20 ADD SWAP1 DUP2 MSTORE PUSH1 0x20 ADD PUSH1 0x0 KECCAK256 PUSH1 0x0 DUP2 SLOAD PUSH1 0x1 SWAP1 SUB SWAP2 SWAP1 POP DUP2 SWAP1 SSTORE POP PUSH1 0x5 PUSH1 0x0 DUP7 PUSH20 0xFFFFFFFFFFFFFFFFFFFFFFFFFFFFFFFFFFFFFFFF AND PUSH20 0xFFFFFFFFFFFFFFFFFFFFFFFFFFFFFFFFFFFFFFFF AND DUP2 MSTORE PUSH1 0x20 ADD SWAP1 DUP2 MSTORE PUSH1 0x20 ADD PUSH1 0x0 KECCAK256 PUSH1 0x0 DUP2 SLOAD PUSH1 0x1 ADD SWAP2 SWAP1 POP DUP2 SWAP1 SSTORE POP PUSH2 0x2581 DUP6 PUSH2 0x255D DUP9 DUP9 DUP8 PUSH2 0x2C5C JUMP JUMPDEST PUSH29 0x200000000000000000000000000000000000000000000000000000000 OR PUSH2 0x2C94 JUMP JUMPDEST PUSH1 0x4 PUSH1 0x0 DUP7 DUP2 MSTORE PUSH1 0x20 ADD SWAP1 DUP2 MSTORE PUSH1 0x20 ADD PUSH1 0x0 KECCAK256 DUP2 SWAP1 SSTORE POP PUSH1 0x0 PUSH29 0x200000000000000000000000000000000000000000000000000000000 DUP5 AND EQ ISZERO PUSH2 0x2609 JUMPI PUSH1 0x0 PUSH1 0x1 DUP6 ADD SWAP1 POP PUSH1 0x0 PUSH1 0x4 PUSH1 0x0 DUP4 DUP2 MSTORE PUSH1 0x20 ADD SWAP1 DUP2 MSTORE PUSH1 0x20 ADD PUSH1 0x0 KECCAK256 SLOAD EQ ISZERO PUSH2 0x2607 JUMPI PUSH1 0x0 SLOAD DUP2 EQ PUSH2 0x2606 JUMPI DUP4 PUSH1 0x4 PUSH1 0x0 DUP4 DUP2 MSTORE PUSH1 0x20 ADD SWAP1 DUP2 MSTORE PUSH1 0x20 ADD PUSH1 0x0 KECCAK256 DUP2 SWAP1 SSTORE POP JUMPDEST JUMPDEST POP JUMPDEST DUP4 DUP6 PUSH20 0xFFFFFFFFFFFFFFFFFFFFFFFFFFFFFFFFFFFFFFFF AND DUP8 PUSH20 0xFFFFFFFFFFFFFFFFFFFFFFFFFFFFFFFFFFFFFFFF AND PUSH32 0xDDF252AD1BE2C89B69C2B068FC378DAA952BA7F163C4A11628F55A4DF523B3EF PUSH1 0x40 MLOAD PUSH1 0x40 MLOAD DUP1 SWAP2 SUB SWAP1 LOG4 PUSH2 0x2671 DUP7 DUP7 DUP7 PUSH1 0x1 PUSH2 0x2CBF JUMP JUMPDEST POP POP POP POP POP POP JUMP JUMPDEST PUSH2 0x2694 DUP4 DUP4 DUP4 PUSH1 0x40 MLOAD DUP1 PUSH1 0x20 ADD PUSH1 0x40 MSTORE DUP1 PUSH1 0x0 DUP2 MSTORE POP PUSH2 0x1B95 JUMP JUMPDEST POP POP POP JUMP JUMPDEST PUSH1 0x0 DUP1 PUSH1 0x0 DUP1 DUP5 MLOAD SWAP1 POP PUSH1 0x0 SWAP3 POP JUMPDEST DUP1 DUP3 LT ISZERO PUSH2 0x2843 JUMPI PUSH1 0x0 DUP6 DUP4 DUP2 MLOAD DUP2 LT PUSH2 0x26C5 JUMPI PUSH2 0x26C4 PUSH2 0x3A3C JUMP JUMPDEST JUMPDEST PUSH1 0x20 ADD ADD MLOAD PUSH1 0xF8 SHR PUSH1 0xF8 SHL SWAP1 POP PUSH1 0x80 PUSH1 0xF8 SHL DUP2 PUSH31 0xFFFFFFFFFFFFFFFFFFFFFFFFFFFFFFFFFFFFFFFFFFFFFFFFFFFFFFFFFFFFFF NOT AND LT ISZERO PUSH2 0x2714 JUMPI PUSH1 0x1 DUP4 PUSH2 0x270D SWAP2 SWAP1 PUSH2 0x3958 JUMP JUMPDEST SWAP3 POP PUSH2 0x282F JUMP JUMPDEST PUSH1 0xE0 PUSH1 0xF8 SHL DUP2 PUSH31 0xFFFFFFFFFFFFFFFFFFFFFFFFFFFFFFFFFFFFFFFFFFFFFFFFFFFFFFFFFFFFFF NOT AND LT ISZERO PUSH2 0x2756 JUMPI PUSH1 0x2 DUP4 PUSH2 0x274F SWAP2 SWAP1 PUSH2 0x3958 JUMP JUMPDEST SWAP3 POP PUSH2 0x282E JUMP JUMPDEST PUSH1 0xF0 PUSH1 0xF8 SHL DUP2 PUSH31 0xFFFFFFFFFFFFFFFFFFFFFFFFFFFFFFFFFFFFFFFFFFFFFFFFFFFFFFFFFFFFFF NOT AND LT ISZERO PUSH2 0x2798 JUMPI PUSH1 0x3 DUP4 PUSH2 0x2791 SWAP2 SWAP1 PUSH2 0x3958 JUMP JUMPDEST SWAP3 POP PUSH2 0x282D JUMP JUMPDEST PUSH1 0xF8 DUP1 SHL DUP2 PUSH31 0xFFFFFFFFFFFFFFFFFFFFFFFFFFFFFFFFFFFFFFFFFFFFFFFFFFFFFFFFFFFFFF NOT AND LT ISZERO PUSH2 0x27D9 JUMPI PUSH1 0x4 DUP4 PUSH2 0x27D2 SWAP2 SWAP1 PUSH2 0x3958 JUMP JUMPDEST SWAP3 POP PUSH2 0x282C JUMP JUMPDEST PUSH1 0xFC PUSH1 0xF8 SHL DUP2 PUSH31 0xFFFFFFFFFFFFFFFFFFFFFFFFFFFFFFFFFFFFFFFFFFFFFFFFFFFFFFFFFFFFFF NOT AND LT ISZERO PUSH2 0x281B JUMPI PUSH1 0x5 DUP4 PUSH2 0x2814 SWAP2 SWAP1 PUSH2 0x3958 JUMP JUMPDEST SWAP3 POP PUSH2 0x282B JUMP JUMPDEST PUSH1 0x6 DUP4 PUSH2 0x2828 SWAP2 SWAP1 PUSH2 0x3958 JUMP JUMPDEST SWAP3 POP JUMPDEST JUMPDEST JUMPDEST JUMPDEST JUMPDEST POP DUP3 DUP1 PUSH2 0x283B SWAP1 PUSH2 0x3A6B JUMP JUMPDEST SWAP4 POP POP PUSH2 0x26A8 JUMP JUMPDEST DUP3 SWAP4 POP POP POP POP SWAP2 SWAP1 POP JUMP JUMPDEST PUSH1 0x0 DUP2 PUSH1 0x40 MLOAD PUSH1 0x20 ADD PUSH2 0x2861 SWAP2 SWAP1 PUSH2 0x3EF4 JUMP JUMPDEST PUSH1 0x40 MLOAD PUSH1 0x20 DUP2 DUP4 SUB SUB DUP2 MSTORE SWAP1 PUSH1 0x40 MSTORE DUP1 MLOAD SWAP1 PUSH1 0x20 ADD KECCAK256 DUP4 PUSH1 0x40 MLOAD PUSH1 0x20 ADD PUSH2 0x2888 SWAP2 SWAP1 PUSH2 0x3EF4 JUMP JUMPDEST PUSH1 0x40 MLOAD PUSH1 0x20 DUP2 DUP4 SUB SUB DUP2 MSTORE SWAP1 PUSH1 0x40 MSTORE DUP1 MLOAD SWAP1 PUSH1 0x20 ADD KECCAK256 EQ SWAP1 POP SWAP3 SWAP2 POP POP JUMP JUMPDEST PUSH1 0x0 DUP1 DUP3 SWAP1 POP DUP1 PUSH2 0x28B6 PUSH2 0x234F JUMP JUMPDEST GT PUSH2 0x293E JUMPI PUSH1 0x0 SLOAD DUP2 LT ISZERO PUSH2 0x293D JUMPI PUSH1 0x0 PUSH1 0x4 PUSH1 0x0 DUP4 DUP2 MSTORE PUSH1 0x20 ADD SWAP1 DUP2 MSTORE PUSH1 0x20 ADD PUSH1 0x0 KECCAK256 SLOAD SWAP1 POP PUSH1 0x0 PUSH29 0x100000000000000000000000000000000000000000000000000000000 DUP3 AND EQ ISZERO PUSH2 0x293B JUMPI JUMPDEST PUSH1 0x0 DUP2 EQ ISZERO PUSH2 0x2931 JUMPI PUSH1 0x4 PUSH1 0x0 DUP4 PUSH1 0x1 SWAP1 SUB SWAP4 POP DUP4 DUP2 MSTORE PUSH1 0x20 ADD SWAP1 DUP2 MSTORE PUSH1 0x20 ADD PUSH1 0x0 KECCAK256 SLOAD SWAP1 POP PUSH2 0x2906 JUMP JUMPDEST DUP1 SWAP3 POP POP POP PUSH2 0x2970 JUMP JUMPDEST POP JUMPDEST JUMPDEST PUSH1 0x40 MLOAD PUSH32 0xDF2D9B4200000000000000000000000000000000000000000000000000000000 DUP2 MSTORE PUSH1 0x4 ADD PUSH1 0x40 MLOAD DUP1 SWAP2 SUB SWAP1 REVERT JUMPDEST SWAP2 SWAP1 POP JUMP JUMPDEST PUSH1 0x0 PUSH1 0x8 PUSH1 0x0 SWAP1 SLOAD SWAP1 PUSH2 0x100 EXP SWAP1 DIV PUSH20 0xFFFFFFFFFFFFFFFFFFFFFFFFFFFFFFFFFFFFFFFF AND SWAP1 POP DUP2 PUSH1 0x8 PUSH1 0x0 PUSH2 0x100 EXP DUP2 SLOAD DUP2 PUSH20 0xFFFFFFFFFFFFFFFFFFFFFFFFFFFFFFFFFFFFFFFF MUL NOT AND SWAP1 DUP4 PUSH20 0xFFFFFFFFFFFFFFFFFFFFFFFFFFFFFFFFFFFFFFFF AND MUL OR SWAP1 SSTORE POP DUP2 PUSH20 0xFFFFFFFFFFFFFFFFFFFFFFFFFFFFFFFFFFFFFFFF AND DUP2 PUSH20 0xFFFFFFFFFFFFFFFFFFFFFFFFFFFFFFFFFFFFFFFF AND PUSH32 0x8BE0079C531659141344CD1FD0A4F28419497F9722A3DAAFE3B4186F6B6457E0 PUSH1 0x40 MLOAD PUSH1 0x40 MLOAD DUP1 SWAP2 SUB SWAP1 LOG3 POP POP JUMP JUMPDEST PUSH2 0x2A46 DUP5 DUP5 DUP5 PUSH2 0xF89 JUMP JUMPDEST PUSH1 0x0 DUP4 PUSH20 0xFFFFFFFFFFFFFFFFFFFFFFFFFFFFFFFFFFFFFFFF AND EXTCODESIZE EQ PUSH2 0x2AA8 JUMPI PUSH2 0x2A71 DUP5 DUP5 DUP5 DUP5 PUSH2 0x2D38 JUMP JUMPDEST PUSH2 0x2AA7 JUMPI PUSH1 0x40 MLOAD PUSH32 0xD1A57ED600000000000000000000000000000000000000000000000000000000 DUP2 MSTORE PUSH1 0x4 ADD PUSH1 0x40 MLOAD DUP1 SWAP2 SUB SWAP1 REVERT JUMPDEST JUMPDEST POP POP POP POP JUMP JUMPDEST PUSH1 0x60 PUSH1 0x0 DUP3 EQ ISZERO PUSH2 0x2AF6 JUMPI PUSH1 0x40 MLOAD DUP1 PUSH1 0x40 ADD PUSH1 0x40 MSTORE DUP1 PUSH1 0x1 DUP2 MSTORE PUSH1 0x20 ADD PUSH32 0x3000000000000000000000000000000000000000000000000000000000000000 DUP2 MSTORE POP SWAP1 POP PUSH2 0x2C0A JUMP JUMPDEST PUSH1 0x0 DUP3 SWAP1 POP PUSH1 0x0 JUMPDEST PUSH1 0x0 DUP3 EQ PUSH2 0x2B28 JUMPI DUP1 DUP1 PUSH2 0x2B11 SWAP1 PUSH2 0x3A6B JUMP JUMPDEST SWAP2 POP POP PUSH1 0xA DUP3 PUSH2 0x2B21 SWAP2 SWAP1 PUSH2 0x3F3A JUMP JUMPDEST SWAP2 POP PUSH2 0x2AFE JUMP JUMPDEST PUSH1 0x0 DUP2 PUSH8 0xFFFFFFFFFFFFFFFF DUP2 GT ISZERO PUSH2 0x2B44 JUMPI PUSH2 0x2B43 PUSH2 0x33C9 JUMP JUMPDEST JUMPDEST PUSH1 0x40 MLOAD SWAP1 DUP1 DUP3 MSTORE DUP1 PUSH1 0x1F ADD PUSH1 0x1F NOT AND PUSH1 0x20 ADD DUP3 ADD PUSH1 0x40 MSTORE DUP1 ISZERO PUSH2 0x2B76 JUMPI DUP2 PUSH1 0x20 ADD PUSH1 0x1 DUP3 MUL DUP1 CALLDATASIZE DUP4 CALLDATACOPY DUP1 DUP3 ADD SWAP2 POP POP SWAP1 POP JUMPDEST POP SWAP1 POP JUMPDEST PUSH1 0x0 DUP6 EQ PUSH2 0x2C03 JUMPI PUSH1 0x1 DUP3 PUSH2 0x2B8F SWAP2 SWAP1 PUSH2 0x3A08 JUMP JUMPDEST SWAP2 POP PUSH1 0xA DUP6 PUSH2 0x2B9E SWAP2 SWAP1 PUSH2 0x3F6B JUMP JUMPDEST PUSH1 0x30 PUSH2 0x2BAA SWAP2 SWAP1 PUSH2 0x3958 JUMP JUMPDEST PUSH1 0xF8 SHL DUP2 DUP4 DUP2 MLOAD DUP2 LT PUSH2 0x2BC0 JUMPI PUSH2 0x2BBF PUSH2 0x3A3C JUMP JUMPDEST JUMPDEST PUSH1 0x20 ADD ADD SWAP1 PUSH31 0xFFFFFFFFFFFFFFFFFFFFFFFFFFFFFFFFFFFFFFFFFFFFFFFFFFFFFFFFFFFFFF NOT AND SWAP1 DUP2 PUSH1 0x0 BYTE SWAP1 MSTORE8 POP PUSH1 0xA DUP6 PUSH2 0x2BFC SWAP2 SWAP1 PUSH2 0x3F3A JUMP JUMPDEST SWAP5 POP PUSH2 0x2B7A JUMP JUMPDEST DUP1 SWAP4 POP POP POP POP JUMPDEST SWAP2 SWAP1 POP JUMP JUMPDEST PUSH1 0x0 DUP2 PUSH1 0x40 MLOAD PUSH1 0x20 ADD PUSH2 0x2C22 SWAP2 SWAP1 PUSH2 0x3FE4 JUMP JUMPDEST PUSH1 0x40 MLOAD PUSH1 0x20 DUP2 DUP4 SUB SUB DUP2 MSTORE SWAP1 PUSH1 0x40 MSTORE DUP1 MLOAD SWAP1 PUSH1 0x20 ADD KECCAK256 SWAP1 POP SWAP2 SWAP1 POP JUMP JUMPDEST PUSH1 0x0 PUSH2 0x2C4E DUP3 PUSH1 0x9 SLOAD DUP6 PUSH2 0x2E98 JUMP JUMPDEST SWAP1 POP SWAP3 SWAP2 POP POP JUMP JUMPDEST POP POP POP POP JUMP JUMPDEST PUSH1 0x0 DUP1 PUSH1 0xE8 DUP4 SWAP1 SHR SWAP1 POP PUSH1 0xE8 PUSH2 0x2C73 DUP7 DUP7 DUP5 PUSH2 0x2EAF JUMP JUMPDEST PUSH3 0xFFFFFF AND SWAP1 SHL SWAP2 POP POP SWAP4 SWAP3 POP POP POP JUMP JUMPDEST PUSH1 0x0 PUSH1 0x1 DUP3 EQ PUSH1 0xE1 SHL SWAP1 POP SWAP2 SWAP1 POP JUMP JUMPDEST PUSH1 0x0 PUSH20 0xFFFFFFFFFFFFFFFFFFFFFFFFFFFFFFFFFFFFFFFF DUP4 AND SWAP3 POP DUP2 TIMESTAMP PUSH1 0xA0 SHL OR DUP4 OR SWAP1 POP SWAP3 SWAP2 POP POP JUMP JUMPDEST POP POP POP POP JUMP JUMPDEST PUSH1 0x0 CALLER SWAP1 POP SWAP1 JUMP JUMPDEST PUSH1 0x0 DUP1 PUSH1 0x0 PUSH1 0x6 PUSH1 0x0 DUP6 DUP2 MSTORE PUSH1 0x20 ADD SWAP1 DUP2 MSTORE PUSH1 0x20 ADD PUSH1 0x0 KECCAK256 SWAP1 POP DUP1 SWAP3 POP DUP3 SLOAD SWAP2 POP POP SWAP2 POP SWAP2 JUMP JUMPDEST PUSH1 0x0 PUSH20 0xFFFFFFFFFFFFFFFFFFFFFFFFFFFFFFFFFFFFFFFF DUP4 AND SWAP3 POP PUSH20 0xFFFFFFFFFFFFFFFFFFFFFFFFFFFFFFFFFFFFFFFF DUP3 AND SWAP2 POP DUP4 DUP3 EQ DUP4 DUP4 EQ OR SWAP1 POP SWAP4 SWAP3 POP POP POP JUMP JUMPDEST PUSH1 0x0 DUP4 PUSH20 0xFFFFFFFFFFFFFFFFFFFFFFFFFFFFFFFFFFFFFFFF AND PUSH4 0x150B7A02 PUSH2 0x2D5E PUSH2 0x20AE JUMP JUMPDEST DUP8 DUP7 DUP7 PUSH1 0x40 MLOAD DUP6 PUSH4 0xFFFFFFFF AND PUSH1 0xE0 SHL DUP2 MSTORE PUSH1 0x4 ADD PUSH2 0x2D80 SWAP5 SWAP4 SWAP3 SWAP2 SWAP1 PUSH2 0x4054 JUMP JUMPDEST PUSH1 0x20 PUSH1 0x40 MLOAD DUP1 DUP4 SUB DUP2 PUSH1 0x0 DUP8 DUP1 EXTCODESIZE ISZERO DUP1 ISZERO PUSH2 0x2D9A JUMPI PUSH1 0x0 DUP1 REVERT JUMPDEST POP GAS CALL SWAP3 POP POP POP DUP1 ISZERO PUSH2 0x2DCB JUMPI POP PUSH1 0x40 MLOAD RETURNDATASIZE PUSH1 0x1F NOT PUSH1 0x1F DUP3 ADD AND DUP3 ADD DUP1 PUSH1 0x40 MSTORE POP DUP2 ADD SWAP1 PUSH2 0x2DC8 SWAP2 SWAP1 PUSH2 0x40B5 JUMP JUMPDEST PUSH1 0x1 JUMPDEST PUSH2 0x2E45 JUMPI RETURNDATASIZE DUP1 PUSH1 0x0 DUP2 EQ PUSH2 0x2DFB JUMPI PUSH1 0x40 MLOAD SWAP2 POP PUSH1 0x1F NOT PUSH1 0x3F RETURNDATASIZE ADD AND DUP3 ADD PUSH1 0x40 MSTORE RETURNDATASIZE DUP3 MSTORE RETURNDATASIZE PUSH1 0x0 PUSH1 0x20 DUP5 ADD RETURNDATACOPY PUSH2 0x2E00 JUMP JUMPDEST PUSH1 0x60 SWAP2 POP JUMPDEST POP PUSH1 0x0 DUP2 MLOAD EQ ISZERO PUSH2 0x2E3D JUMPI PUSH1 0x40 MLOAD PUSH32 0xD1A57ED600000000000000000000000000000000000000000000000000000000 DUP2 MSTORE PUSH1 0x4 ADD PUSH1 0x40 MLOAD DUP1 SWAP2 SUB SWAP1 REVERT JUMPDEST DUP1 MLOAD DUP2 PUSH1 0x20 ADD REVERT JUMPDEST PUSH4 0x150B7A02 PUSH1 0xE0 SHL PUSH28 0xFFFFFFFFFFFFFFFFFFFFFFFFFFFFFFFFFFFFFFFFFFFFFFFFFFFFFFFF NOT AND DUP2 PUSH28 0xFFFFFFFFFFFFFFFFFFFFFFFFFFFFFFFFFFFFFFFFFFFFFFFFFFFFFFFF NOT AND EQ SWAP2 POP POP SWAP5 SWAP4 POP POP POP POP JUMP JUMPDEST PUSH1 0x0 DUP3 PUSH2 0x2EA5 DUP6 DUP5 PUSH2 0x2EB8 JUMP JUMPDEST EQ SWAP1 POP SWAP4 SWAP3 POP POP POP JUMP JUMPDEST PUSH1 0x0 SWAP4 SWAP3 POP POP POP JUMP JUMPDEST PUSH1 0x0 DUP1 DUP3 SWAP1 POP PUSH1 0x0 JUMPDEST DUP5 MLOAD DUP2 LT ISZERO PUSH2 0x2F03 JUMPI PUSH2 0x2EEE DUP3 DUP7 DUP4 DUP2 MLOAD DUP2 LT PUSH2 0x2EE1 JUMPI PUSH2 0x2EE0 PUSH2 0x3A3C JUMP JUMPDEST JUMPDEST PUSH1 0x20 MUL PUSH1 0x20 ADD ADD MLOAD PUSH2 0x2F0E JUMP JUMPDEST SWAP2 POP DUP1 DUP1 PUSH2 0x2EFB SWAP1 PUSH2 0x3A6B JUMP JUMPDEST SWAP2 POP POP PUSH2 0x2EC1 JUMP JUMPDEST POP DUP1 SWAP2 POP POP SWAP3 SWAP2 POP POP JUMP JUMPDEST PUSH1 0x0 DUP2 DUP4 LT PUSH2 0x2F26 JUMPI PUSH2 0x2F21 DUP3 DUP5 PUSH2 0x2F39 JUMP JUMPDEST PUSH2 0x2F31 JUMP JUMPDEST PUSH2 0x2F30 DUP4 DUP4 PUSH2 0x2F39 JUMP JUMPDEST JUMPDEST SWAP1 POP SWAP3 SWAP2 POP POP JUMP JUMPDEST PUSH1 0x0 DUP3 PUSH1 0x0 MSTORE DUP2 PUSH1 0x20 MSTORE PUSH1 0x40 PUSH1 0x0 KECCAK256 SWAP1 POP SWAP3 SWAP2 POP POP JUMP JUMPDEST DUP3 DUP1 SLOAD PUSH2 0x2F5C SWAP1 PUSH2 0x388B JUMP JUMPDEST SWAP1 PUSH1 0x0 MSTORE PUSH1 0x20 PUSH1 0x0 KECCAK256 SWAP1 PUSH1 0x1F ADD PUSH1 0x20 SWAP1 DIV DUP2 ADD SWAP3 DUP3 PUSH2 0x2F7E JUMPI PUSH1 0x0 DUP6 SSTORE PUSH2 0x2FC5 JUMP JUMPDEST DUP3 PUSH1 0x1F LT PUSH2 0x2F97 JUMPI DUP1 MLOAD PUSH1 0xFF NOT AND DUP4 DUP1 ADD OR DUP6 SSTORE PUSH2 0x2FC5 JUMP JUMPDEST DUP3 DUP1 ADD PUSH1 0x1 ADD DUP6 SSTORE DUP3 ISZERO PUSH2 0x2FC5 JUMPI SWAP2 DUP3 ADD JUMPDEST DUP3 DUP2 GT ISZERO PUSH2 0x2FC4 JUMPI DUP3 MLOAD DUP3 SSTORE SWAP2 PUSH1 0x20 ADD SWAP2 SWAP1 PUSH1 0x1 ADD SWAP1 PUSH2 0x2FA9 JUMP JUMPDEST JUMPDEST POP SWAP1 POP PUSH2 0x2FD2 SWAP2 SWAP1 PUSH2 0x2FD6 JUMP JUMPDEST POP SWAP1 JUMP JUMPDEST JUMPDEST DUP1 DUP3 GT ISZERO PUSH2 0x2FEF JUMPI PUSH1 0x0 DUP2 PUSH1 0x0 SWAP1 SSTORE POP PUSH1 0x1 ADD PUSH2 0x2FD7 JUMP JUMPDEST POP SWAP1 JUMP JUMPDEST PUSH1 0x0 PUSH1 0x40 MLOAD SWAP1 POP SWAP1 JUMP JUMPDEST PUSH1 0x0 DUP1 REVERT JUMPDEST PUSH1 0x0 DUP1 REVERT JUMPDEST PUSH1 0x0 PUSH32 0xFFFFFFFF00000000000000000000000000000000000000000000000000000000 DUP3 AND SWAP1 POP SWAP2 SWAP1 POP JUMP JUMPDEST PUSH2 0x303C DUP2 PUSH2 0x3007 JUMP JUMPDEST DUP2 EQ PUSH2 0x3047 JUMPI PUSH1 0x0 DUP1 REVERT JUMPDEST POP JUMP JUMPDEST PUSH1 0x0 DUP2 CALLDATALOAD SWAP1 POP PUSH2 0x3059 DUP2 PUSH2 0x3033 JUMP JUMPDEST SWAP3 SWAP2 POP POP JUMP JUMPDEST PUSH1 0x0 PUSH1 0x20 DUP3 DUP5 SUB SLT ISZERO PUSH2 0x3075 JUMPI PUSH2 0x3074 PUSH2 0x2FFD JUMP JUMPDEST JUMPDEST PUSH1 0x0 PUSH2 0x3083 DUP5 DUP3 DUP6 ADD PUSH2 0x304A JUMP JUMPDEST SWAP2 POP POP SWAP3 SWAP2 POP POP JUMP JUMPDEST PUSH1 0x0 DUP2 ISZERO ISZERO SWAP1 POP SWAP2 SWAP1 POP JUMP JUMPDEST PUSH2 0x30A1 DUP2 PUSH2 0x308C JUMP JUMPDEST DUP3 MSTORE POP POP JUMP JUMPDEST PUSH1 0x0 PUSH1 0x20 DUP3 ADD SWAP1 POP PUSH2 0x30BC PUSH1 0x0 DUP4 ADD DUP5 PUSH2 0x3098 JUMP JUMPDEST SWAP3 SWAP2 POP POP JUMP JUMPDEST PUSH1 0x0 DUP2 MLOAD SWAP1 POP SWAP2 SWAP1 POP JUMP JUMPDEST PUSH1 0x0 DUP3 DUP3 MSTORE PUSH1 0x20 DUP3 ADD SWAP1 POP SWAP3 SWAP2 POP POP JUMP JUMPDEST PUSH1 0x0 JUMPDEST DUP4 DUP2 LT ISZERO PUSH2 0x30FC JUMPI DUP1 DUP3 ADD MLOAD DUP2 DUP5 ADD MSTORE PUSH1 0x20 DUP2 ADD SWAP1 POP PUSH2 0x30E1 JUMP JUMPDEST DUP4 DUP2 GT ISZERO PUSH2 0x310B JUMPI PUSH1 0x0 DUP5 DUP5 ADD MSTORE JUMPDEST POP POP POP POP JUMP JUMPDEST PUSH1 0x0 PUSH1 0x1F NOT PUSH1 0x1F DUP4 ADD AND SWAP1 POP SWAP2 SWAP1 POP JUMP JUMPDEST PUSH1 0x0 PUSH2 0x312D DUP3 PUSH2 0x30C2 JUMP JUMPDEST PUSH2 0x3137 DUP2 DUP6 PUSH2 0x30CD JUMP JUMPDEST SWAP4 POP PUSH2 0x3147 DUP2 DUP6 PUSH1 0x20 DUP7 ADD PUSH2 0x30DE JUMP JUMPDEST PUSH2 0x3150 DUP2 PUSH2 0x3111 JUMP JUMPDEST DUP5 ADD SWAP2 POP POP SWAP3 SWAP2 POP POP JUMP JUMPDEST PUSH1 0x0 PUSH1 0x20 DUP3 ADD SWAP1 POP DUP2 DUP2 SUB PUSH1 0x0 DUP4 ADD MSTORE PUSH2 0x3175 DUP2 DUP5 PUSH2 0x3122 JUMP JUMPDEST SWAP1 POP SWAP3 SWAP2 POP POP JUMP JUMPDEST PUSH1 0x0 DUP2 SWAP1 POP SWAP2 SWAP1 POP JUMP JUMPDEST PUSH2 0x3190 DUP2 PUSH2 0x317D JUMP JUMPDEST DUP2 EQ PUSH2 0x319B JUMPI PUSH1 0x0 DUP1 REVERT JUMPDEST POP JUMP JUMPDEST PUSH1 0x0 DUP2 CALLDATALOAD SWAP1 POP PUSH2 0x31AD DUP2 PUSH2 0x3187 JUMP JUMPDEST SWAP3 SWAP2 POP POP JUMP JUMPDEST PUSH1 0x0 PUSH1 0x20 DUP3 DUP5 SUB SLT ISZERO PUSH2 0x31C9 JUMPI PUSH2 0x31C8 PUSH2 0x2FFD JUMP JUMPDEST JUMPDEST PUSH1 0x0 PUSH2 0x31D7 DUP5 DUP3 DUP6 ADD PUSH2 0x319E JUMP JUMPDEST SWAP2 POP POP SWAP3 SWAP2 POP POP JUMP JUMPDEST PUSH1 0x0 PUSH20 0xFFFFFFFFFFFFFFFFFFFFFFFFFFFFFFFFFFFFFFFF DUP3 AND SWAP1 POP SWAP2 SWAP1 POP JUMP JUMPDEST PUSH1 0x0 PUSH2 0x320B DUP3 PUSH2 0x31E0 JUMP JUMPDEST SWAP1 POP SWAP2 SWAP1 POP JUMP JUMPDEST PUSH2 0x321B DUP2 PUSH2 0x3200 JUMP JUMPDEST DUP3 MSTORE POP POP JUMP JUMPDEST PUSH1 0x0 PUSH1 0x20 DUP3 ADD SWAP1 POP PUSH2 0x3236 PUSH1 0x0 DUP4 ADD DUP5 PUSH2 0x3212 JUMP JUMPDEST SWAP3 SWAP2 POP POP JUMP JUMPDEST PUSH2 0x3245 DUP2 PUSH2 0x3200 JUMP JUMPDEST DUP2 EQ PUSH2 0x3250 JUMPI PUSH1 0x0 DUP1 REVERT JUMPDEST POP JUMP JUMPDEST PUSH1 0x0 DUP2 CALLDATALOAD SWAP1 POP PUSH2 0x3262 DUP2 PUSH2 0x323C JUMP JUMPDEST SWAP3 SWAP2 POP POP JUMP JUMPDEST PUSH1 0x0 DUP1 PUSH1 0x40 DUP4 DUP6 SUB SLT ISZERO PUSH2 0x327F JUMPI PUSH2 0x327E PUSH2 0x2FFD JUMP JUMPDEST JUMPDEST PUSH1 0x0 PUSH2 0x328D DUP6 DUP3 DUP7 ADD PUSH2 0x3253 JUMP JUMPDEST SWAP3 POP POP PUSH1 0x20 PUSH2 0x329E DUP6 DUP3 DUP7 ADD PUSH2 0x319E JUMP JUMPDEST SWAP2 POP POP SWAP3 POP SWAP3 SWAP1 POP JUMP JUMPDEST PUSH1 0x0 DUP1 REVERT JUMPDEST PUSH1 0x0 DUP1 REVERT JUMPDEST PUSH1 0x0 DUP1 REVERT JUMPDEST PUSH1 0x0 DUP1 DUP4 PUSH1 0x1F DUP5 ADD SLT PUSH2 0x32CD JUMPI PUSH2 0x32CC PUSH2 0x32A8 JUMP JUMPDEST JUMPDEST DUP3 CALLDATALOAD SWAP1 POP PUSH8 0xFFFFFFFFFFFFFFFF DUP2 GT ISZERO PUSH2 0x32EA JUMPI PUSH2 0x32E9 PUSH2 0x32AD JUMP JUMPDEST JUMPDEST PUSH1 0x20 DUP4 ADD SWAP2 POP DUP4 PUSH1 0x20 DUP3 MUL DUP4 ADD GT ISZERO PUSH2 0x3306 JUMPI PUSH2 0x3305 PUSH2 0x32B2 JUMP JUMPDEST JUMPDEST SWAP3 POP SWAP3 SWAP1 POP JUMP JUMPDEST PUSH1 0x0 DUP1 PUSH1 0x0 PUSH1 0x40 DUP5 DUP7 SUB SLT ISZERO PUSH2 0x3326 JUMPI PUSH2 0x3325 PUSH2 0x2FFD JUMP JUMPDEST JUMPDEST PUSH1 0x0 PUSH2 0x3334 DUP7 DUP3 DUP8 ADD PUSH2 0x319E JUMP JUMPDEST SWAP4 POP POP PUSH1 0x20 DUP5 ADD CALLDATALOAD PUSH8 0xFFFFFFFFFFFFFFFF DUP2 GT ISZERO PUSH2 0x3355 JUMPI PUSH2 0x3354 PUSH2 0x3002 JUMP JUMPDEST JUMPDEST PUSH2 0x3361 DUP7 DUP3 DUP8 ADD PUSH2 0x32B7 JUMP JUMPDEST SWAP3 POP SWAP3 POP POP SWAP3 POP SWAP3 POP SWAP3 JUMP JUMPDEST PUSH1 0x0 PUSH1 0x20 DUP3 DUP5 SUB SLT ISZERO PUSH2 0x3383 JUMPI PUSH2 0x3382 PUSH2 0x2FFD JUMP JUMPDEST JUMPDEST PUSH1 0x0 PUSH2 0x3391 DUP5 DUP3 DUP6 ADD PUSH2 0x3253 JUMP JUMPDEST SWAP2 POP POP SWAP3 SWAP2 POP POP JUMP JUMPDEST PUSH2 0x33A3 DUP2 PUSH2 0x317D JUMP JUMPDEST DUP3 MSTORE POP POP JUMP JUMPDEST PUSH1 0x0 PUSH1 0x20 DUP3 ADD SWAP1 POP PUSH2 0x33BE PUSH1 0x0 DUP4 ADD DUP5 PUSH2 0x339A JUMP JUMPDEST SWAP3 SWAP2 POP POP JUMP JUMPDEST PUSH1 0x0 DUP1 REVERT JUMPDEST PUSH32 0x4E487B7100000000000000000000000000000000000000000000000000000000 PUSH1 0x0 MSTORE PUSH1 0x41 PUSH1 0x4 MSTORE PUSH1 0x24 PUSH1 0x0 REVERT JUMPDEST PUSH2 0x3401 DUP3 PUSH2 0x3111 JUMP JUMPDEST DUP2 ADD DUP2 DUP2 LT PUSH8 0xFFFFFFFFFFFFFFFF DUP3 GT OR ISZERO PUSH2 0x3420 JUMPI PUSH2 0x341F PUSH2 0x33C9 JUMP JUMPDEST JUMPDEST DUP1 PUSH1 0x40 MSTORE POP POP POP JUMP JUMPDEST PUSH1 0x0 PUSH2 0x3433 PUSH2 0x2FF3 JUMP JUMPDEST SWAP1 POP PUSH2 0x343F DUP3 DUP3 PUSH2 0x33F8 JUMP JUMPDEST SWAP2 SWAP1 POP JUMP JUMPDEST PUSH1 0x0 PUSH8 0xFFFFFFFFFFFFFFFF DUP3 GT ISZERO PUSH2 0x345F JUMPI PUSH2 0x345E PUSH2 0x33C9 JUMP JUMPDEST JUMPDEST PUSH2 0x3468 DUP3 PUSH2 0x3111 JUMP JUMPDEST SWAP1 POP PUSH1 0x20 DUP2 ADD SWAP1 POP SWAP2 SWAP1 POP JUMP JUMPDEST DUP3 DUP2 DUP4 CALLDATACOPY PUSH1 0x0 DUP4 DUP4 ADD MSTORE POP POP POP JUMP JUMPDEST PUSH1 0x0 PUSH2 0x3497 PUSH2 0x3492 DUP5 PUSH2 0x3444 JUMP JUMPDEST PUSH2 0x3429 JUMP JUMPDEST SWAP1 POP DUP3 DUP2 MSTORE PUSH1 0x20 DUP2 ADD DUP5 DUP5 DUP5 ADD GT ISZERO PUSH2 0x34B3 JUMPI PUSH2 0x34B2 PUSH2 0x33C4 JUMP JUMPDEST JUMPDEST PUSH2 0x34BE DUP5 DUP3 DUP6 PUSH2 0x3475 JUMP JUMPDEST POP SWAP4 SWAP3 POP POP POP JUMP JUMPDEST PUSH1 0x0 DUP3 PUSH1 0x1F DUP4 ADD SLT PUSH2 0x34DB JUMPI PUSH2 0x34DA PUSH2 0x32A8 JUMP JUMPDEST JUMPDEST DUP2 CALLDATALOAD PUSH2 0x34EB DUP5 DUP3 PUSH1 0x20 DUP7 ADD PUSH2 0x3484 JUMP JUMPDEST SWAP2 POP POP SWAP3 SWAP2 POP POP JUMP JUMPDEST PUSH1 0x0 DUP1 PUSH1 0x0 PUSH1 0x60 DUP5 DUP7 SUB SLT ISZERO PUSH2 0x350D JUMPI PUSH2 0x350C PUSH2 0x2FFD JUMP JUMPDEST JUMPDEST PUSH1 0x0 DUP5 ADD CALLDATALOAD PUSH8 0xFFFFFFFFFFFFFFFF DUP2 GT ISZERO PUSH2 0x352B JUMPI PUSH2 0x352A PUSH2 0x3002 JUMP JUMPDEST JUMPDEST PUSH2 0x3537 DUP7 DUP3 DUP8 ADD PUSH2 0x34C6 JUMP JUMPDEST SWAP4 POP POP PUSH1 0x20 PUSH2 0x3548 DUP7 DUP3 DUP8 ADD PUSH2 0x319E JUMP JUMPDEST SWAP3 POP POP PUSH1 0x40 PUSH2 0x3559 DUP7 DUP3 DUP8 ADD PUSH2 0x319E JUMP JUMPDEST SWAP2 POP POP SWAP3 POP SWAP3 POP SWAP3 JUMP JUMPDEST PUSH1 0x0 DUP1 PUSH1 0x0 PUSH1 0x60 DUP5 DUP7 SUB SLT ISZERO PUSH2 0x357C JUMPI PUSH2 0x357B PUSH2 0x2FFD JUMP JUMPDEST JUMPDEST PUSH1 0x0 PUSH2 0x358A DUP7 DUP3 DUP8 ADD PUSH2 0x3253 JUMP JUMPDEST SWAP4 POP POP PUSH1 0x20 PUSH2 0x359B DUP7 DUP3 DUP8 ADD PUSH2 0x3253 JUMP JUMPDEST SWAP3 POP POP PUSH1 0x40 PUSH2 0x35AC DUP7 DUP3 DUP8 ADD PUSH2 0x319E JUMP JUMPDEST SWAP2 POP POP SWAP3 POP SWAP3 POP SWAP3 JUMP JUMPDEST PUSH1 0x0 DUP2 SWAP1 POP SWAP2 SWAP1 POP JUMP JUMPDEST PUSH2 0x35C9 DUP2 PUSH2 0x35B6 JUMP JUMPDEST DUP3 MSTORE POP POP JUMP JUMPDEST PUSH1 0x0 PUSH1 0x20 DUP3 ADD SWAP1 POP PUSH2 0x35E4 PUSH1 0x0 DUP4 ADD DUP5 PUSH2 0x35C0 JUMP JUMPDEST SWAP3 SWAP2 POP POP JUMP JUMPDEST PUSH1 0x0 PUSH1 0x20 DUP3 DUP5 SUB SLT ISZERO PUSH2 0x3600 JUMPI PUSH2 0x35FF PUSH2 0x2FFD JUMP JUMPDEST JUMPDEST PUSH1 0x0 DUP3 ADD CALLDATALOAD PUSH8 0xFFFFFFFFFFFFFFFF DUP2 GT ISZERO PUSH2 0x361E JUMPI PUSH2 0x361D PUSH2 0x3002 JUMP JUMPDEST JUMPDEST PUSH2 0x362A DUP5 DUP3 DUP6 ADD PUSH2 0x34C6 JUMP JUMPDEST SWAP2 POP POP SWAP3 SWAP2 POP POP JUMP JUMPDEST PUSH2 0x363C DUP2 PUSH2 0x35B6 JUMP JUMPDEST DUP2 EQ PUSH2 0x3647 JUMPI PUSH1 0x0 DUP1 REVERT JUMPDEST POP JUMP JUMPDEST PUSH1 0x0 DUP2 CALLDATALOAD SWAP1 POP PUSH2 0x3659 DUP2 PUSH2 0x3633 JUMP JUMPDEST SWAP3 SWAP2 POP POP JUMP JUMPDEST PUSH1 0x0 PUSH1 0x20 DUP3 DUP5 SUB SLT ISZERO PUSH2 0x3675 JUMPI PUSH2 0x3674 PUSH2 0x2FFD JUMP JUMPDEST JUMPDEST PUSH1 0x0 PUSH2 0x3683 DUP5 DUP3 DUP6 ADD PUSH2 0x364A JUMP JUMPDEST SWAP2 POP POP SWAP3 SWAP2 POP POP JUMP JUMPDEST PUSH2 0x3695 DUP2 PUSH2 0x308C JUMP JUMPDEST DUP2 EQ PUSH2 0x36A0 JUMPI PUSH1 0x0 DUP1 REVERT JUMPDEST POP JUMP JUMPDEST PUSH1 0x0 DUP2 CALLDATALOAD SWAP1 POP PUSH2 0x36B2 DUP2 PUSH2 0x368C JUMP JUMPDEST SWAP3 SWAP2 POP POP JUMP JUMPDEST PUSH1 0x0 DUP1 PUSH1 0x40 DUP4 DUP6 SUB SLT ISZERO PUSH2 0x36CF JUMPI PUSH2 0x36CE PUSH2 0x2FFD JUMP JUMPDEST JUMPDEST PUSH1 0x0 PUSH2 0x36DD DUP6 DUP3 DUP7 ADD PUSH2 0x3253 JUMP JUMPDEST SWAP3 POP POP PUSH1 0x20 PUSH2 0x36EE DUP6 DUP3 DUP7 ADD PUSH2 0x36A3 JUMP JUMPDEST SWAP2 POP POP SWAP3 POP SWAP3 SWAP1 POP JUMP JUMPDEST PUSH1 0x0 PUSH8 0xFFFFFFFFFFFFFFFF DUP3 GT ISZERO PUSH2 0x3713 JUMPI PUSH2 0x3712 PUSH2 0x33C9 JUMP JUMPDEST JUMPDEST PUSH2 0x371C DUP3 PUSH2 0x3111 JUMP JUMPDEST SWAP1 POP PUSH1 0x20 DUP2 ADD SWAP1 POP SWAP2 SWAP1 POP JUMP JUMPDEST PUSH1 0x0 PUSH2 0x373C PUSH2 0x3737 DUP5 PUSH2 0x36F8 JUMP JUMPDEST PUSH2 0x3429 JUMP JUMPDEST SWAP1 POP DUP3 DUP2 MSTORE PUSH1 0x20 DUP2 ADD DUP5 DUP5 DUP5 ADD GT ISZERO PUSH2 0x3758 JUMPI PUSH2 0x3757 PUSH2 0x33C4 JUMP JUMPDEST JUMPDEST PUSH2 0x3763 DUP5 DUP3 DUP6 PUSH2 0x3475 JUMP JUMPDEST POP SWAP4 SWAP3 POP POP POP JUMP JUMPDEST PUSH1 0x0 DUP3 PUSH1 0x1F DUP4 ADD SLT PUSH2 0x3780 JUMPI PUSH2 0x377F PUSH2 0x32A8 JUMP JUMPDEST JUMPDEST DUP2 CALLDATALOAD PUSH2 0x3790 DUP5 DUP3 PUSH1 0x20 DUP7 ADD PUSH2 0x3729 JUMP JUMPDEST SWAP2 POP POP SWAP3 SWAP2 POP POP JUMP JUMPDEST PUSH1 0x0 DUP1 PUSH1 0x0 DUP1 PUSH1 0x80 DUP6 DUP8 SUB SLT ISZERO PUSH2 0x37B3 JUMPI PUSH2 0x37B2 PUSH2 0x2FFD JUMP JUMPDEST JUMPDEST PUSH1 0x0 PUSH2 0x37C1 DUP8 DUP3 DUP9 ADD PUSH2 0x3253 JUMP JUMPDEST SWAP5 POP POP PUSH1 0x20 PUSH2 0x37D2 DUP8 DUP3 DUP9 ADD PUSH2 0x3253 JUMP JUMPDEST SWAP4 POP POP PUSH1 0x40 PUSH2 0x37E3 DUP8 DUP3 DUP9 ADD PUSH2 0x319E JUMP JUMPDEST SWAP3 POP POP PUSH1 0x60 DUP6 ADD CALLDATALOAD PUSH8 0xFFFFFFFFFFFFFFFF DUP2 GT ISZERO PUSH2 0x3804 JUMPI PUSH2 0x3803 PUSH2 0x3002 JUMP JUMPDEST JUMPDEST PUSH2 0x3810 DUP8 DUP3 DUP9 ADD PUSH2 0x376B JUMP JUMPDEST SWAP2 POP POP SWAP3 SWAP6 SWAP2 SWAP5 POP SWAP3 POP JUMP JUMPDEST PUSH1 0x0 DUP1 PUSH1 0x40 DUP4 DUP6 SUB SLT ISZERO PUSH2 0x3833 JUMPI PUSH2 0x3832 PUSH2 0x2FFD JUMP JUMPDEST JUMPDEST PUSH1 0x0 PUSH2 0x3841 DUP6 DUP3 DUP7 ADD PUSH2 0x3253 JUMP JUMPDEST SWAP3 POP POP PUSH1 0x20 PUSH2 0x3852 DUP6 DUP3 DUP7 ADD PUSH2 0x3253 JUMP JUMPDEST SWAP2 POP POP SWAP3 POP SWAP3 SWAP1 POP JUMP JUMPDEST PUSH32 0x4E487B7100000000000000000000000000000000000000000000000000000000 PUSH1 0x0 MSTORE PUSH1 0x22 PUSH1 0x4 MSTORE PUSH1 0x24 PUSH1 0x0 REVERT JUMPDEST PUSH1 0x0 PUSH1 0x2 DUP3 DIV SWAP1 POP PUSH1 0x1 DUP3 AND DUP1 PUSH2 0x38A3 JUMPI PUSH1 0x7F DUP3 AND SWAP2 POP JUMPDEST PUSH1 0x20 DUP3 LT DUP2 EQ ISZERO PUSH2 0x38B7 JUMPI PUSH2 0x38B6 PUSH2 0x385C JUMP JUMPDEST JUMPDEST POP SWAP2 SWAP1 POP JUMP JUMPDEST PUSH32 0x5061757365640000000000000000000000000000000000000000000000000000 PUSH1 0x0 DUP3 ADD MSTORE POP JUMP JUMPDEST PUSH1 0x0 PUSH2 0x38F3 PUSH1 0x6 DUP4 PUSH2 0x30CD JUMP JUMPDEST SWAP2 POP PUSH2 0x38FE DUP3 PUSH2 0x38BD JUMP JUMPDEST PUSH1 0x20 DUP3 ADD SWAP1 POP SWAP2 SWAP1 POP JUMP JUMPDEST PUSH1 0x0 PUSH1 0x20 DUP3 ADD SWAP1 POP DUP2 DUP2 SUB PUSH1 0x0 DUP4 ADD MSTORE PUSH2 0x3922 DUP2 PUSH2 0x38E6 JUMP JUMPDEST SWAP1 POP SWAP2 SWAP1 POP JUMP JUMPDEST PUSH32 0x4E487B7100000000000000000000000000000000000000000000000000000000 PUSH1 0x0 MSTORE PUSH1 0x11 PUSH1 0x4 MSTORE PUSH1 0x24 PUSH1 0x0 REVERT JUMPDEST PUSH1 0x0 PUSH2 0x3963 DUP3 PUSH2 0x317D JUMP JUMPDEST SWAP2 POP PUSH2 0x396E DUP4 PUSH2 0x317D JUMP JUMPDEST SWAP3 POP DUP3 PUSH32 0xFFFFFFFFFFFFFFFFFFFFFFFFFFFFFFFFFFFFFFFFFFFFFFFFFFFFFFFFFFFFFFFF SUB DUP3 GT ISZERO PUSH2 0x39A3 JUMPI PUSH2 0x39A2 PUSH2 0x3929 JUMP JUMPDEST JUMPDEST DUP3 DUP3 ADD SWAP1 POP SWAP3 SWAP2 POP POP JUMP JUMPDEST PUSH1 0x0 PUSH2 0x39B9 DUP3 PUSH2 0x317D JUMP JUMPDEST SWAP2 POP PUSH2 0x39C4 DUP4 PUSH2 0x317D JUMP JUMPDEST SWAP3 POP DUP2 PUSH32 0xFFFFFFFFFFFFFFFFFFFFFFFFFFFFFFFFFFFFFFFFFFFFFFFFFFFFFFFFFFFFFFFF DIV DUP4 GT DUP3 ISZERO ISZERO AND ISZERO PUSH2 0x39FD JUMPI PUSH2 0x39FC PUSH2 0x3929 JUMP JUMPDEST JUMPDEST DUP3 DUP3 MUL SWAP1 POP SWAP3 SWAP2 POP POP JUMP JUMPDEST PUSH1 0x0 PUSH2 0x3A13 DUP3 PUSH2 0x317D JUMP JUMPDEST SWAP2 POP PUSH2 0x3A1E DUP4 PUSH2 0x317D JUMP JUMPDEST SWAP3 POP DUP3 DUP3 LT ISZERO PUSH2 0x3A31 JUMPI PUSH2 0x3A30 PUSH2 0x3929 JUMP JUMPDEST JUMPDEST DUP3 DUP3 SUB SWAP1 POP SWAP3 SWAP2 POP POP JUMP JUMPDEST PUSH32 0x4E487B7100000000000000000000000000000000000000000000000000000000 PUSH1 0x0 MSTORE PUSH1 0x32 PUSH1 0x4 MSTORE PUSH1 0x24 PUSH1 0x0 REVERT JUMPDEST PUSH1 0x0 PUSH2 0x3A76 DUP3 PUSH2 0x317D JUMP JUMPDEST SWAP2 POP PUSH32 0xFFFFFFFFFFFFFFFFFFFFFFFFFFFFFFFFFFFFFFFFFFFFFFFFFFFFFFFFFFFFFFFF DUP3 EQ ISZERO PUSH2 0x3AA9 JUMPI PUSH2 0x3AA8 PUSH2 0x3929 JUMP JUMPDEST JUMPDEST PUSH1 0x1 DUP3 ADD SWAP1 POP SWAP2 SWAP1 POP JUMP JUMPDEST PUSH1 0x0 PUSH1 0x40 DUP3 ADD SWAP1 POP PUSH2 0x3AC9 PUSH1 0x0 DUP4 ADD DUP6 PUSH2 0x3212 JUMP JUMPDEST PUSH2 0x3AD6 PUSH1 0x20 DUP4 ADD DUP5 PUSH2 0x3212 JUMP JUMPDEST SWAP4 SWAP3 POP POP POP JUMP JUMPDEST PUSH1 0x0 DUP2 MLOAD SWAP1 POP PUSH2 0x3AEC DUP2 PUSH2 0x368C JUMP JUMPDEST SWAP3 SWAP2 POP POP JUMP JUMPDEST PUSH1 0x0 PUSH1 0x20 DUP3 DUP5 SUB SLT ISZERO PUSH2 0x3B08 JUMPI PUSH2 0x3B07 PUSH2 0x2FFD JUMP JUMPDEST JUMPDEST PUSH1 0x0 PUSH2 0x3B16 DUP5 DUP3 DUP6 ADD PUSH2 0x3ADD JUMP JUMPDEST SWAP2 POP POP SWAP3 SWAP2 POP POP JUMP JUMPDEST PUSH32 0x5F6E6577426173655552492063616E6E6F7420626520656D7074792100000000 PUSH1 0x0 DUP3 ADD MSTORE POP JUMP JUMPDEST PUSH1 0x0 PUSH2 0x3B55 PUSH1 0x1C DUP4 PUSH2 0x30CD JUMP JUMPDEST SWAP2 POP PUSH2 0x3B60 DUP3 PUSH2 0x3B1F JUMP JUMPDEST PUSH1 0x20 DUP3 ADD SWAP1 POP SWAP2 SWAP1 POP JUMP JUMPDEST PUSH1 0x0 PUSH1 0x20 DUP3 ADD SWAP1 POP DUP2 DUP2 SUB PUSH1 0x0 DUP4 ADD MSTORE PUSH2 0x3B84 DUP2 PUSH2 0x3B48 JUMP JUMPDEST SWAP1 POP SWAP2 SWAP1 POP JUMP JUMPDEST PUSH32 0x5F6E6577426173655552492073686F756C642068617665206120737566666978 PUSH1 0x0 DUP3 ADD MSTORE PUSH32 0x206F6620272F2700000000000000000000000000000000000000000000000000 PUSH1 0x20 DUP3 ADD MSTORE POP JUMP JUMPDEST PUSH1 0x0 PUSH2 0x3BE7 PUSH1 0x27 DUP4 PUSH2 0x30CD JUMP JUMPDEST SWAP2 POP PUSH2 0x3BF2 DUP3 PUSH2 0x3B8B JUMP JUMPDEST PUSH1 0x40 DUP3 ADD SWAP1 POP SWAP2 SWAP1 POP JUMP JUMPDEST PUSH1 0x0 PUSH1 0x20 DUP3 ADD SWAP1 POP DUP2 DUP2 SUB PUSH1 0x0 DUP4 ADD MSTORE PUSH2 0x3C16 DUP2 PUSH2 0x3BDA JUMP JUMPDEST SWAP1 POP SWAP2 SWAP1 POP JUMP JUMPDEST PUSH32 0x596F752063616E206F6E6C79207365742062617365555249206F6E6365210000 PUSH1 0x0 DUP3 ADD MSTORE POP JUMP JUMPDEST PUSH1 0x0 PUSH2 0x3C53 PUSH1 0x1E DUP4 PUSH2 0x30CD JUMP JUMPDEST SWAP2 POP PUSH2 0x3C5E DUP3 PUSH2 0x3C1D JUMP JUMPDEST PUSH1 0x20 DUP3 ADD SWAP1 POP SWAP2 SWAP1 POP JUMP JUMPDEST PUSH1 0x0 PUSH1 0x20 DUP3 ADD SWAP1 POP DUP2 DUP2 SUB PUSH1 0x0 DUP4 ADD MSTORE PUSH2 0x3C82 DUP2 PUSH2 0x3C46 JUMP JUMPDEST SWAP1 POP SWAP2 SWAP1 POP JUMP JUMPDEST PUSH32 0x746F6B656E20646F6573206E6F74206578697374210000000000000000000000 PUSH1 0x0 DUP3 ADD MSTORE POP JUMP JUMPDEST PUSH1 0x0 PUSH2 0x3CBF PUSH1 0x15 DUP4 PUSH2 0x30CD JUMP JUMPDEST SWAP2 POP PUSH2 0x3CCA DUP3 PUSH2 0x3C89 JUMP JUMPDEST PUSH1 0x20 DUP3 ADD SWAP1 POP SWAP2 SWAP1 POP JUMP JUMPDEST PUSH1 0x0 PUSH1 0x20 DUP3 ADD SWAP1 POP DUP2 DUP2 SUB PUSH1 0x0 DUP4 ADD MSTORE PUSH2 0x3CEE DUP2 PUSH2 0x3CB2 JUMP JUMPDEST SWAP1 POP SWAP2 SWAP1 POP JUMP JUMPDEST PUSH1 0x0 DUP2 SWAP1 POP SWAP3 SWAP2 POP POP JUMP JUMPDEST PUSH1 0x0 DUP2 SWAP1 POP DUP2 PUSH1 0x0 MSTORE PUSH1 0x20 PUSH1 0x0 KECCAK256 SWAP1 POP SWAP2 SWAP1 POP JUMP JUMPDEST PUSH1 0x0 DUP2 SLOAD PUSH2 0x3D22 DUP2 PUSH2 0x388B JUMP JUMPDEST PUSH2 0x3D2C DUP2 DUP7 PUSH2 0x3CF5 JUMP JUMPDEST SWAP5 POP PUSH1 0x1 DUP3 AND PUSH1 0x0 DUP2 EQ PUSH2 0x3D47 JUMPI PUSH1 0x1 DUP2 EQ PUSH2 0x3D58 JUMPI PUSH2 0x3D8B JUMP JUMPDEST PUSH1 0xFF NOT DUP4 AND DUP7 MSTORE DUP2 DUP7 ADD SWAP4 POP PUSH2 0x3D8B JUMP JUMPDEST PUSH2 0x3D61 DUP6 PUSH2 0x3D00 JUMP JUMPDEST PUSH1 0x0 JUMPDEST DUP4 DUP2 LT ISZERO PUSH2 0x3D83 JUMPI DUP2 SLOAD DUP2 DUP10 ADD MSTORE PUSH1 0x1 DUP3 ADD SWAP2 POP PUSH1 0x20 DUP2 ADD SWAP1 POP PUSH2 0x3D64 JUMP JUMPDEST DUP4 DUP9 ADD SWAP6 POP POP POP JUMPDEST POP POP POP SWAP3 SWAP2 POP POP JUMP JUMPDEST PUSH1 0x0 PUSH2 0x3D9F DUP3 PUSH2 0x30C2 JUMP JUMPDEST PUSH2 0x3DA9 DUP2 DUP6 PUSH2 0x3CF5 JUMP JUMPDEST SWAP4 POP PUSH2 0x3DB9 DUP2 DUP6 PUSH1 0x20 DUP7 ADD PUSH2 0x30DE JUMP JUMPDEST DUP1 DUP5 ADD SWAP2 POP POP SWAP3 SWAP2 POP POP JUMP JUMPDEST PUSH1 0x0 PUSH2 0x3DD1 DUP3 DUP7 PUSH2 0x3D15 JUMP JUMPDEST SWAP2 POP PUSH2 0x3DDD DUP3 DUP6 PUSH2 0x3D94 JUMP JUMPDEST SWAP2 POP PUSH2 0x3DE9 DUP3 DUP5 PUSH2 0x3D15 JUMP JUMPDEST SWAP2 POP DUP2 SWAP1 POP SWAP5 SWAP4 POP POP POP POP JUMP JUMPDEST PUSH32 0x4F776E61626C653A206E6577206F776E657220697320746865207A65726F2061 PUSH1 0x0 DUP3 ADD MSTORE PUSH32 0x6464726573730000000000000000000000000000000000000000000000000000 PUSH1 0x20 DUP3 ADD MSTORE POP JUMP JUMPDEST PUSH1 0x0 PUSH2 0x3E52 PUSH1 0x26 DUP4 PUSH2 0x30CD JUMP JUMPDEST SWAP2 POP PUSH2 0x3E5D DUP3 PUSH2 0x3DF6 JUMP JUMPDEST PUSH1 0x40 DUP3 ADD SWAP1 POP SWAP2 SWAP1 POP JUMP JUMPDEST PUSH1 0x0 PUSH1 0x20 DUP3 ADD SWAP1 POP DUP2 DUP2 SUB PUSH1 0x0 DUP4 ADD MSTORE PUSH2 0x3E81 DUP2 PUSH2 0x3E45 JUMP JUMPDEST SWAP1 POP SWAP2 SWAP1 POP JUMP JUMPDEST PUSH32 0x4F776E61626C653A2063616C6C6572206973206E6F7420746865206F776E6572 PUSH1 0x0 DUP3 ADD MSTORE POP JUMP JUMPDEST PUSH1 0x0 PUSH2 0x3EBE PUSH1 0x20 DUP4 PUSH2 0x30CD JUMP JUMPDEST SWAP2 POP PUSH2 0x3EC9 DUP3 PUSH2 0x3E88 JUMP JUMPDEST PUSH1 0x20 DUP3 ADD SWAP1 POP SWAP2 SWAP1 POP JUMP JUMPDEST PUSH1 0x0 PUSH1 0x20 DUP3 ADD SWAP1 POP DUP2 DUP2 SUB PUSH1 0x0 DUP4 ADD MSTORE PUSH2 0x3EED DUP2 PUSH2 0x3EB1 JUMP JUMPDEST SWAP1 POP SWAP2 SWAP1 POP JUMP JUMPDEST PUSH1 0x0 PUSH2 0x3F00 DUP3 DUP5 PUSH2 0x3D94 JUMP JUMPDEST SWAP2 POP DUP2 SWAP1 POP SWAP3 SWAP2 POP POP JUMP JUMPDEST PUSH32 0x4E487B7100000000000000000000000000000000000000000000000000000000 PUSH1 0x0 MSTORE PUSH1 0x12 PUSH1 0x4 MSTORE PUSH1 0x24 PUSH1 0x0 REVERT JUMPDEST PUSH1 0x0 PUSH2 0x3F45 DUP3 PUSH2 0x317D JUMP JUMPDEST SWAP2 POP PUSH2 0x3F50 DUP4 PUSH2 0x317D JUMP JUMPDEST SWAP3 POP DUP3 PUSH2 0x3F60 JUMPI PUSH2 0x3F5F PUSH2 0x3F0B JUMP JUMPDEST JUMPDEST DUP3 DUP3 DIV SWAP1 POP SWAP3 SWAP2 POP POP JUMP JUMPDEST PUSH1 0x0 PUSH2 0x3F76 DUP3 PUSH2 0x317D JUMP JUMPDEST SWAP2 POP PUSH2 0x3F81 DUP4 PUSH2 0x317D JUMP JUMPDEST SWAP3 POP DUP3 PUSH2 0x3F91 JUMPI PUSH2 0x3F90 PUSH2 0x3F0B JUMP JUMPDEST JUMPDEST DUP3 DUP3 MOD SWAP1 POP SWAP3 SWAP2 POP POP JUMP JUMPDEST PUSH1 0x0 DUP2 PUSH1 0x60 SHL SWAP1 POP SWAP2 SWAP1 POP JUMP JUMPDEST PUSH1 0x0 PUSH2 0x3FB4 DUP3 PUSH2 0x3F9C JUMP JUMPDEST SWAP1 POP SWAP2 SWAP1 POP JUMP JUMPDEST PUSH1 0x0 PUSH2 0x3FC6 DUP3 PUSH2 0x3FA9 JUMP JUMPDEST SWAP1 POP SWAP2 SWAP1 POP JUMP JUMPDEST PUSH2 0x3FDE PUSH2 0x3FD9 DUP3 PUSH2 0x3200 JUMP JUMPDEST PUSH2 0x3FBB JUMP JUMPDEST DUP3 MSTORE POP POP JUMP JUMPDEST PUSH1 0x0 PUSH2 0x3FF0 DUP3 DUP5 PUSH2 0x3FCD JUMP JUMPDEST PUSH1 0x14 DUP3 ADD SWAP2 POP DUP2 SWAP1 POP SWAP3 SWAP2 POP POP JUMP JUMPDEST PUSH1 0x0 DUP2 MLOAD SWAP1 POP SWAP2 SWAP1 POP JUMP JUMPDEST PUSH1 0x0 DUP3 DUP3 MSTORE PUSH1 0x20 DUP3 ADD SWAP1 POP SWAP3 SWAP2 POP POP JUMP JUMPDEST PUSH1 0x0 PUSH2 0x4026 DUP3 PUSH2 0x3FFF JUMP JUMPDEST PUSH2 0x4030 DUP2 DUP6 PUSH2 0x400A JUMP JUMPDEST SWAP4 POP PUSH2 0x4040 DUP2 DUP6 PUSH1 0x20 DUP7 ADD PUSH2 0x30DE JUMP JUMPDEST PUSH2 0x4049 DUP2 PUSH2 0x3111 JUMP JUMPDEST DUP5 ADD SWAP2 POP POP SWAP3 SWAP2 POP POP JUMP JUMPDEST PUSH1 0x0 PUSH1 0x80 DUP3 ADD SWAP1 POP PUSH2 0x4069 PUSH1 0x0 DUP4 ADD DUP8 PUSH2 0x3212 JUMP JUMPDEST PUSH2 0x4076 PUSH1 0x20 DUP4 ADD DUP7 PUSH2 0x3212 JUMP JUMPDEST PUSH2 0x4083 PUSH1 0x40 DUP4 ADD DUP6 PUSH2 0x339A JUMP JUMPDEST DUP2 DUP2 SUB PUSH1 0x60 DUP4 ADD MSTORE PUSH2 0x4095 DUP2 DUP5 PUSH2 0x401B JUMP JUMPDEST SWAP1 POP SWAP6 SWAP5 POP POP POP POP POP JUMP JUMPDEST PUSH1 0x0 DUP2 MLOAD SWAP1 POP PUSH2 0x40AF DUP2 PUSH2 0x3033 JUMP JUMPDEST SWAP3 SWAP2 POP POP JUMP JUMPDEST PUSH1 0x0 PUSH1 0x20 DUP3 DUP5 SUB SLT ISZERO PUSH2 0x40CB JUMPI PUSH2 0x40CA PUSH2 0x2FFD JUMP JUMPDEST JUMPDEST PUSH1 0x0 PUSH2 0x40D9 DUP5 DUP3 DUP6 ADD PUSH2 0x40A0 JUMP JUMPDEST SWAP2 POP POP SWAP3 SWAP2 POP POP JUMP INVALID LOG2 PUSH5 0x6970667358 0x22 SLT KECCAK256 NUMBER 0xE7 ORIGIN 0xA8 0xB7 0xEF 0xEA LOG4 PUSH7 0xF861F494E2C43B EQ EXTCODECOPY 0xB7 CALLCODE 0xD3 CALLER 0xBD PUSH4 0xF74513D2 0xC5 PUSH21 0xF53864736F6C6343000809003368747470733A2F2F PUSH12 0x6974737564656E2E696E6675 PUSH19 0x612D697066732E696F2F697066732F516D5438 JUMPI PUSH24 0x5575417A70654C7169784A446676564878394B7278466F38 PUSH24 0x62473831314A5A426A6B66723643672F0000000000000000 "},"methodIdentifiers":{"approve(address,uint256)":"095ea7b3","balanceOf(address)":"70a08231","baseExtension()":"c6682862","baseHiddenUri()":"8fe11a97","baseURI()":"6c0360eb","getApproved(uint256)":"081812fc","isApprovedForAll(address,address)":"e985e9c5","maxMints()":"b6b6f0c3","maxSupply()":"d5abeb01","merkleRoot()":"2eb4a7ab","mint(uint256)":"a0712d68","mintPhase()":"17881cbf","mintRate()":"ca0dcf16","name()":"06fdde03","owner()":"8da5cb5b","ownerOf(uint256)":"6352211e","paused()":"5c975abb","renounceOwnership()":"715018a6","reserveMint(uint256)":"1342ff4c","revealed()":"51830227","safeTransferFrom(address,address,uint256)":"42842e0e","safeTransferFrom(address,address,uint256,bytes)":"b88d4fde","setApprovalForAll(address,bool)":"a22cb465","setBaseURI(string)":"55f804b3","setMerkleRoot(bytes32)":"7cb64759","setMintPhase(uint256)":"943431bf","setTogglePaused()":"f14a0588","substring(string,uint256,uint256)":"1dcd9b55","supportsInterface(bytes4)":"01ffc9a7","symbol()":"95d89b41","tokenURI(uint256)":"c87b56dd","totalSupply()":"18160ddd","transferFrom(address,address,uint256)":"23b872dd","transferOwnership(address)":"f2fde38b","usedAddresses(address)":"acdce273","whiteListMaxMints()":"ee5735a8","whiteListMint(uint256,bytes32[])":"11876875","whiteListUsedAddresses(address)":"13bfabc0","withdraw()":"3ccfd60b"}}}}}