{"contracts/KitsudenFoxfone.sol":{"KitsudenFoxfone":{"abi":[{"inputs":[],"stateMutability":"nonpayable","type":"constructor"},{"inputs":[],"name":"ApprovalCallerNotOwnerNorApproved","type":"error"},{"inputs":[],"name":"ApprovalQueryForNonexistentToken","type":"error"},{"inputs":[],"name":"BalanceQueryForZeroAddress","type":"error"},{"inputs":[],"name":"ExceededLimit","type":"error"},{"inputs":[],"name":"InvalidMerkle","type":"error"},{"inputs":[],"name":"MintERC2309QuantityExceedsLimit","type":"error"},{"inputs":[],"name":"MintToZeroAddress","type":"error"},{"inputs":[],"name":"MintZeroQuantity","type":"error"},{"inputs":[],"name":"NotEnoughTokensLeft","type":"error"},{"inputs":[{"internalType":"address","name":"operator","type":"address"}],"name":"OperatorNotAllowed","type":"error"},{"inputs":[],"name":"OwnerQueryForNonexistentToken","type":"error"},{"inputs":[],"name":"OwnershipNotInitializedForExtraData","type":"error"},{"inputs":[],"name":"PublicSaleNotLive","type":"error"},{"inputs":[],"name":"TransferCallerNotOwnerNorApproved","type":"error"},{"inputs":[],"name":"TransferFromIncorrectOwner","type":"error"},{"inputs":[],"name":"TransferToNonERC721ReceiverImplementer","type":"error"},{"inputs":[],"name":"TransferToZeroAddress","type":"error"},{"inputs":[],"name":"URIQueryForNonexistentToken","type":"error"},{"inputs":[],"name":"WhitelistNotLive","type":"error"},{"inputs":[],"name":"WrongEther","type":"error"},{"anonymous":false,"inputs":[{"indexed":true,"internalType":"address","name":"owner","type":"address"},{"indexed":true,"internalType":"address","name":"approved","type":"address"},{"indexed":true,"internalType":"uint256","name":"tokenId","type":"uint256"}],"name":"Approval","type":"event"},{"anonymous":false,"inputs":[{"indexed":true,"internalType":"address","name":"owner","type":"address"},{"indexed":true,"internalType":"address","name":"operator","type":"address"},{"indexed":false,"internalType":"bool","name":"approved","type":"bool"}],"name":"ApprovalForAll","type":"event"},{"anonymous":false,"inputs":[{"indexed":true,"internalType":"uint256","name":"fromTokenId","type":"uint256"},{"indexed":false,"internalType":"uint256","name":"toTokenId","type":"uint256"},{"indexed":true,"internalType":"address","name":"from","type":"address"},{"indexed":true,"internalType":"address","name":"to","type":"address"}],"name":"ConsecutiveTransfer","type":"event"},{"anonymous":false,"inputs":[{"indexed":true,"internalType":"address","name":"previousOwner","type":"address"},{"indexed":true,"internalType":"address","name":"newOwner","type":"address"}],"name":"OwnershipTransferred","type":"event"},{"anonymous":false,"inputs":[{"indexed":true,"internalType":"address","name":"from","type":"address"},{"indexed":true,"internalType":"address","name":"to","type":"address"},{"indexed":true,"internalType":"uint256","name":"tokenId","type":"uint256"}],"name":"Transfer","type":"event"},{"inputs":[{"internalType":"address","name":"to","type":"address"},{"internalType":"uint256","name":"tokenId","type":"uint256"}],"name":"approve","outputs":[],"stateMutability":"payable","type":"function"},{"inputs":[{"internalType":"address","name":"owner","type":"address"}],"name":"balanceOf","outputs":[{"internalType":"uint256","name":"","type":"uint256"}],"stateMutability":"view","type":"function"},{"inputs":[],"name":"baseExtension","outputs":[{"internalType":"string","name":"","type":"string"}],"stateMutability":"view","type":"function"},{"inputs":[],"name":"baseHiddenUri","outputs":[{"internalType":"string","name":"","type":"string"}],"stateMutability":"view","type":"function"},{"inputs":[],"name":"baseURI","outputs":[{"internalType":"string","name":"","type":"string"}],"stateMutability":"view","type":"function"},{"inputs":[{"internalType":"uint256","name":"tokenId","type":"uint256"}],"name":"getApproved","outputs":[{"internalType":"address","name":"","type":"address"}],"stateMutability":"view","type":"function"},{"inputs":[{"internalType":"address","name":"owner","type":"address"},{"internalType":"address","name":"operator","type":"address"}],"name":"isApprovedForAll","outputs":[{"internalType":"bool","name":"","type":"bool"}],"stateMutability":"view","type":"function"},{"inputs":[],"name":"maxMints","outputs":[{"internalType":"uint256","name":"","type":"uint256"}],"stateMutability":"view","type":"function"},{"inputs":[],"name":"maxSupply","outputs":[{"internalType":"uint256","name":"","type":"uint256"}],"stateMutability":"view","type":"function"},{"inputs":[],"name":"merkleRoot","outputs":[{"internalType":"bytes32","name":"","type":"bytes32"}],"stateMutability":"view","type":"function"},{"inputs":[{"internalType":"uint256","name":"quantity","type":"uint256"}],"name":"mint","outputs":[],"stateMutability":"payable","type":"function"},{"inputs":[],"name":"mintPhase","outputs":[{"internalType":"uint256","name":"","type":"uint256"}],"stateMutability":"view","type":"function"},{"inputs":[],"name":"mintRate","outputs":[{"internalType":"uint256","name":"","type":"uint256"}],"stateMutability":"view","type":"function"},{"inputs":[],"name":"name","outputs":[{"internalType":"string","name":"","type":"string"}],"stateMutability":"view","type":"function"},{"inputs":[],"name":"owner","outputs":[{"internalType":"address","name":"","type":"address"}],"stateMutability":"view","type":"function"},{"inputs":[{"internalType":"uint256","name":"tokenId","type":"uint256"}],"name":"ownerOf","outputs":[{"internalType":"address","name":"","type":"address"}],"stateMutability":"view","type":"function"},{"inputs":[],"name":"paused","outputs":[{"internalType":"bool","name":"","type":"bool"}],"stateMutability":"view","type":"function"},{"inputs":[],"name":"renounceOwnership","outputs":[],"stateMutability":"nonpayable","type":"function"},{"inputs":[{"internalType":"uint256","name":"quantity","type":"uint256"}],"name":"reserveMint","outputs":[],"stateMutability":"nonpayable","type":"function"},{"inputs":[],"name":"revealed","outputs":[{"internalType":"bool","name":"","type":"bool"}],"stateMutability":"view","type":"function"},{"inputs":[{"internalType":"uint256","name":"_tokenId","type":"uint256"},{"internalType":"uint256","name":"_salePrice","type":"uint256"}],"name":"royaltyInfo","outputs":[{"internalType":"address","name":"","type":"address"},{"internalType":"uint256","name":"","type":"uint256"}],"stateMutability":"view","type":"function"},{"inputs":[{"internalType":"address","name":"from","type":"address"},{"internalType":"address","name":"to","type":"address"},{"internalType":"uint256","name":"tokenId","type":"uint256"}],"name":"safeTransferFrom","outputs":[],"stateMutability":"payable","type":"function"},{"inputs":[{"internalType":"address","name":"from","type":"address"},{"internalType":"address","name":"to","type":"address"},{"internalType":"uint256","name":"tokenId","type":"uint256"},{"internalType":"bytes","name":"data","type":"bytes"}],"name":"safeTransferFrom","outputs":[],"stateMutability":"payable","type":"function"},{"inputs":[{"internalType":"address","name":"operator","type":"address"},{"internalType":"bool","name":"approved","type":"bool"}],"name":"setApprovalForAll","outputs":[],"stateMutability":"nonpayable","type":"function"},{"inputs":[{"internalType":"string","name":"_newBaseURI","type":"string"}],"name":"setBaseURI","outputs":[],"stateMutability":"nonpayable","type":"function"},{"inputs":[{"internalType":"bytes32","name":"_root","type":"bytes32"}],"name":"setMerkleRoot","outputs":[],"stateMutability":"nonpayable","type":"function"},{"inputs":[{"internalType":"uint256","name":"_phase","type":"uint256"}],"name":"setMintPhase","outputs":[],"stateMutability":"nonpayable","type":"function"},{"inputs":[],"name":"setTogglePaused","outputs":[],"stateMutability":"nonpayable","type":"function"},{"inputs":[{"internalType":"string","name":"str","type":"string"},{"internalType":"uint256","name":"startIndex","type":"uint256"},{"internalType":"uint256","name":"endIndex","type":"uint256"}],"name":"substring","outputs":[{"internalType":"string","name":"","type":"string"}],"stateMutability":"pure","type":"function"},{"inputs":[{"internalType":"bytes4","name":"_interfaceId","type":"bytes4"}],"name":"supportsInterface","outputs":[{"internalType":"bool","name":"","type":"bool"}],"stateMutability":"view","type":"function"},{"inputs":[],"name":"symbol","outputs":[{"internalType":"string","name":"","type":"string"}],"stateMutability":"view","type":"function"},{"inputs":[{"internalType":"uint256","name":"_tokenId","type":"uint256"}],"name":"tokenURI","outputs":[{"internalType":"string","name":"","type":"string"}],"stateMutability":"view","type":"function"},{"inputs":[],"name":"totalSupply","outputs":[{"internalType":"uint256","name":"","type":"uint256"}],"stateMutability":"view","type":"function"},{"inputs":[{"internalType":"address","name":"from","type":"address"},{"internalType":"address","name":"to","type":"address"},{"internalType":"uint256","name":"tokenId","type":"uint256"}],"name":"transferFrom","outputs":[],"stateMutability":"payable","type":"function"},{"inputs":[{"internalType":"address","name":"newOwner","type":"address"}],"name":"transferOwnership","outputs":[],"stateMutability":"nonpayable","type":"function"},{"inputs":[{"internalType":"address","name":"","type":"address"}],"name":"usedAddresses","outputs":[{"internalType":"uint256","name":"","type":"uint256"}],"stateMutability":"view","type":"function"},{"inputs":[],"name":"whiteListMaxMints","outputs":[{"internalType":"uint256","name":"","type":"uint256"}],"stateMutability":"view","type":"function"},{"inputs":[{"internalType":"uint256","name":"quantity","type":"uint256"},{"internalType":"bytes32[]","name":"proof","type":"bytes32[]"}],"name":"whiteListMint","outputs":[],"stateMutability":"payable","type":"function"},{"inputs":[{"internalType":"address","name":"","type":"address"}],"name":"whiteListUsedAddresses","outputs":[{"internalType":"uint256","name":"","type":"uint256"}],"stateMutability":"view","type":"function"},{"inputs":[],"name":"withdraw","outputs":[],"stateMutability":"nonpayable","type":"function"}],"evm":{"bytecode":{"linkReferences":{},"object":"60806040526005600c556001600d55611a0a600e55666a94d74f430000600f556040518060400160405280600581526020017f2e6a736f6e000000000000000000000000000000000000000000000000000000815250601090805190602001906200006c9291906200068a565b506040518060200160405280600081525060119080519060200190620000949291906200068a565b5060405180608001604052806054815260200162004e1e6054913960129080519060200190620000c69291906200068a565b506000601460006101000a81548160ff0219169083151502179055506000601460016101000a81548160ff0219169083151502179055503480156200010a57600080fd5b506000806040518060400160405280600f81526020017f4b6974737564656e466f78466f6e6500000000000000000000000000000000008152506040518060400160405280600581526020017f4b534446460000000000000000000000000000000000000000000000000000008152508160029080519060200190620001929291906200068a565b508060039080519060200190620001ab9291906200068a565b50620001bc6200040960201b60201c565b6000819055505050620001e4620001d86200040e60201b60201c565b6200041660201b60201c565b60006daaeb6d7670e522a718067333cd4e73ffffffffffffffffffffffffffffffffffffffff163b1115620003d95780156200029f576daaeb6d7670e522a718067333cd4e73ffffffffffffffffffffffffffffffffffffffff16637d3e3dbe30846040518363ffffffff1660e01b8152600401620002659291906200077f565b600060405180830381600087803b1580156200028057600080fd5b505af115801562000295573d6000803e3d6000fd5b50505050620003d8565b600073ffffffffffffffffffffffffffffffffffffffff168273ffffffffffffffffffffffffffffffffffffffff161462000359576daaeb6d7670e522a718067333cd4e73ffffffffffffffffffffffffffffffffffffffff1663a0af290330846040518363ffffffff1660e01b81526004016200031f9291906200077f565b600060405180830381600087803b1580156200033a57600080fd5b505af11580156200034f573d6000803e3d6000fd5b50505050620003d7565b6daaeb6d7670e522a718067333cd4e73ffffffffffffffffffffffffffffffffffffffff16634420e486306040518263ffffffff1660e01b8152600401620003a29190620007ac565b600060405180830381600087803b158015620003bd57600080fd5b505af1158015620003d2573d6000803e3d6000fd5b505050505b5b5b505062000403731c0c70453c5ed96c7c4ec2ea98c3a99fc1dd27ef6102bc620004dc60201b60201c565b62000949565b600090565b600033905090565b6000600860009054906101000a900473ffffffffffffffffffffffffffffffffffffffff16905081600860006101000a81548173ffffffffffffffffffffffffffffffffffffffff021916908373ffffffffffffffffffffffffffffffffffffffff1602179055508173ffffffffffffffffffffffffffffffffffffffff168173ffffffffffffffffffffffffffffffffffffffff167f8be0079c531659141344cd1fd0a4f28419497f9722a3daafe3b4186f6b6457e060405160405180910390a35050565b620004ec6200068060201b60201c565b6bffffffffffffffffffffffff16816bffffffffffffffffffffffff1611156200054d576040517f08c379a0000000000000000000000000000000000000000000000000000000008152600401620005449062000850565b60405180910390fd5b600073ffffffffffffffffffffffffffffffffffffffff168273ffffffffffffffffffffffffffffffffffffffff161415620005c0576040517f08c379a0000000000000000000000000000000000000000000000000000000008152600401620005b790620008c2565b60405180910390fd5b60405180604001604052808373ffffffffffffffffffffffffffffffffffffffff168152602001826bffffffffffffffffffffffff16815250600960008201518160000160006101000a81548173ffffffffffffffffffffffffffffffffffffffff021916908373ffffffffffffffffffffffffffffffffffffffff16021790555060208201518160000160146101000a8154816bffffffffffffffffffffffff02191690836bffffffffffffffffffffffff1602179055509050505050565b6000612710905090565b828054620006989062000913565b90600052602060002090601f016020900481019282620006bc576000855562000708565b82601f10620006d757805160ff191683800117855562000708565b8280016001018555821562000708579182015b8281111562000707578251825591602001919060010190620006ea565b5b5090506200071791906200071b565b5090565b5b80821115620007365760008160009055506001016200071c565b5090565b600073ffffffffffffffffffffffffffffffffffffffff82169050919050565b600062000767826200073a565b9050919050565b62000779816200075a565b82525050565b60006040820190506200079660008301856200076e565b620007a560208301846200076e565b9392505050565b6000602082019050620007c360008301846200076e565b92915050565b600082825260208201905092915050565b7f455243323938313a20726f79616c7479206665652077696c6c2065786365656460008201527f2073616c65507269636500000000000000000000000000000000000000000000602082015250565b600062000838602a83620007c9565b91506200084582620007da565b604082019050919050565b600060208201905081810360008301526200086b8162000829565b9050919050565b7f455243323938313a20696e76616c696420726563656976657200000000000000600082015250565b6000620008aa601983620007c9565b9150620008b78262000872565b602082019050919050565b60006020820190508181036000830152620008dd816200089b565b9050919050565b7f4e487b7100000000000000000000000000000000000000000000000000000000600052602260045260246000fd5b600060028204905060018216806200092c57607f821691505b60208210811415620009435762000942620008e4565b5b50919050565b6144c580620009596000396000f3fe60806040526004361061023b5760003560e01c806370a082311161012e578063b6b6f0c3116100ab578063d5abeb011161006f578063d5abeb0114610838578063e985e9c514610863578063ee5735a8146108a0578063f14a0588146108cb578063f2fde38b146108e25761023b565b8063b6b6f0c31461075e578063b88d4fde14610789578063c6682862146107a5578063c87b56dd146107d0578063ca0dcf161461080d5761023b565b8063943431bf116100f2578063943431bf1461068857806395d89b41146106b1578063a0712d68146106dc578063a22cb465146106f8578063acdce273146107215761023b565b806370a08231146105b5578063715018a6146105f25780637cb64759146106095780638da5cb5b146106325780638fe11a971461065d5761023b565b806323b872dd116101bc578063518302271161018057806351830227146104ce57806355f804b3146104f95780635c975abb146105225780636352211e1461054d5780636c0360eb1461058a5761023b565b806323b872dd146104165780632a55205a146104325780632eb4a7ab146104705780633ccfd60b1461049b57806342842e0e146104b25761023b565b80631342ff4c116102035780631342ff4c1461031d57806313bfabc01461034657806317881cbf1461038357806318160ddd146103ae5780631dcd9b55146103d95761023b565b806301ffc9a71461024057806306fdde031461027d578063081812fc146102a8578063095ea7b3146102e55780631187687514610301575b600080fd5b34801561024c57600080fd5b50610267600480360381019061026291906133a3565b61090b565b60405161027491906133eb565b60405180910390f35b34801561028957600080fd5b5061029261092d565b60405161029f919061349f565b60405180910390f35b3480156102b457600080fd5b506102cf60048036038101906102ca91906134f7565b6109bf565b6040516102dc9190613565565b60405180910390f35b6102ff60048036038101906102fa91906135ac565b610a3e565b005b61031b60048036038101906103169190613651565b610b82565b005b34801561032957600080fd5b50610344600480360381019061033f91906134f7565b610dce565b005b34801561035257600080fd5b5061036d600480360381019061036891906136b1565b610e31565b60405161037a91906136ed565b60405180910390f35b34801561038f57600080fd5b50610398610e49565b6040516103a591906136ed565b60405180910390f35b3480156103ba57600080fd5b506103c3610e4f565b6040516103d091906136ed565b60405180910390f35b3480156103e557600080fd5b5061040060048036038101906103fb9190613838565b610e66565b60405161040d919061349f565b60405180910390f35b610430600480360381019061042b91906138a7565b610f62565b005b34801561043e57600080fd5b50610459600480360381019061045491906138fa565b611163565b60405161046792919061393a565b60405180910390f35b34801561047c57600080fd5b5061048561134e565b604051610492919061397c565b60405180910390f35b3480156104a757600080fd5b506104b0611354565b005b6104cc60048036038101906104c791906138a7565b6113ac565b005b3480156104da57600080fd5b506104e36115ad565b6040516104f091906133eb565b60405180910390f35b34801561050557600080fd5b50610520600480360381019061051b9190613997565b6115c0565b005b34801561052e57600080fd5b50610537611739565b60405161054491906133eb565b60405180910390f35b34801561055957600080fd5b50610574600480360381019061056f91906134f7565b61174c565b6040516105819190613565565b60405180910390f35b34801561059657600080fd5b5061059f61175e565b6040516105ac919061349f565b60405180910390f35b3480156105c157600080fd5b506105dc60048036038101906105d791906136b1565b6117ec565b6040516105e991906136ed565b60405180910390f35b3480156105fe57600080fd5b506106076118a5565b005b34801561061557600080fd5b50610630600480360381019061062b9190613a0c565b6118b9565b005b34801561063e57600080fd5b506106476118cb565b6040516106549190613565565b60405180910390f35b34801561066957600080fd5b506106726118f5565b60405161067f919061349f565b60405180910390f35b34801561069457600080fd5b506106af60048036038101906106aa91906134f7565b611983565b005b3480156106bd57600080fd5b506106c6611995565b6040516106d3919061349f565b60405180910390f35b6106f660048036038101906106f191906134f7565b611a27565b005b34801561070457600080fd5b5061071f600480360381019061071a9190613a65565b611c30565b005b34801561072d57600080fd5b50610748600480360381019061074391906136b1565b611d3b565b60405161075591906136ed565b60405180910390f35b34801561076a57600080fd5b50610773611d53565b60405161078091906136ed565b60405180910390f35b6107a3600480360381019061079e9190613b46565b611d59565b005b3480156107b157600080fd5b506107ba611f5d565b6040516107c7919061349f565b60405180910390f35b3480156107dc57600080fd5b506107f760048036038101906107f291906134f7565b611feb565b604051610804919061349f565b60405180910390f35b34801561081957600080fd5b506108226120b5565b60405161082f91906136ed565b60405180910390f35b34801561084457600080fd5b5061084d6120bb565b60405161085a91906136ed565b60405180910390f35b34801561086f57600080fd5b5061088a60048036038101906108859190613bc9565b6120c1565b60405161089791906133eb565b60405180910390f35b3480156108ac57600080fd5b506108b5612155565b6040516108c291906136ed565b60405180910390f35b3480156108d757600080fd5b506108e061215b565b005b3480156108ee57600080fd5b50610909600480360381019061090491906136b1565b61218f565b005b600061091682612213565b806109265750610925826122a5565b5b9050919050565b60606002805461093c90613c38565b80601f016020809104026020016040519081016040528092919081815260200182805461096890613c38565b80156109b55780601f1061098a576101008083540402835291602001916109b5565b820191906000526020600020905b81548152906001019060200180831161099857829003601f168201915b5050505050905090565b60006109ca8261231f565b610a00576040517fcf4700e400000000000000000000000000000000000000000000000000000000815260040160405180910390fd5b6006600083815260200190815260200160002060000160009054906101000a900473ffffffffffffffffffffffffffffffffffffffff169050919050565b6000610a498261174c565b90508073ffffffffffffffffffffffffffffffffffffffff16610a6a61237e565b73ffffffffffffffffffffffffffffffffffffffff1614610acd57610a9681610a9161237e565b6120c1565b610acc576040517fcfb3b94200000000000000000000000000000000000000000000000000000000815260040160405180910390fd5b5b826006600084815260200190815260200160002060000160006101000a81548173ffffffffffffffffffffffffffffffffffffffff021916908373ffffffffffffffffffffffffffffffffffffffff160217905550818373ffffffffffffffffffffffffffffffffffffffff168273ffffffffffffffffffffffffffffffffffffffff167f8c5be1e5ebec7d5bd14f71427d1e84f3dd0314c0f7b2291e5b200ac8c7c3b92560405160405180910390a4505050565b601460009054906101000a900460ff1615610bd2576040517f08c379a0000000000000000000000000000000000000000000000000000000008152600401610bc990613cb6565b60405180910390fd5b600160135414610c0e576040517f1e94bf2d00000000000000000000000000000000000000000000000000000000815260040160405180910390fd5b610c19338383612386565b610c4f576040517f3f1636e200000000000000000000000000000000000000000000000000000000815260040160405180910390fd5b600e5483610c5b610e4f565b610c659190613d05565b1115610c9d576040517f76592c6f00000000000000000000000000000000000000000000000000000000815260040160405180910390fd5b3483600f54610cac9190613d5b565b14610ce3576040517fb457f15800000000000000000000000000000000000000000000000000000000815260040160405180910390fd5b600d5483601560003373ffffffffffffffffffffffffffffffffffffffff1673ffffffffffffffffffffffffffffffffffffffff16815260200190815260200160002054610d319190613d05565b1115610d69576040517f38d8b70c00000000000000000000000000000000000000000000000000000000815260040160405180910390fd5b82601560003373ffffffffffffffffffffffffffffffffffffffff1673ffffffffffffffffffffffffffffffffffffffff1681526020019081526020016000206000828254610db89190613d05565b92505081905550610dc933846123e4565b505050565b610dd66125a1565b600e5481610de2610e4f565b610dec9190613d05565b1115610e24576040517f76592c6f00000000000000000000000000000000000000000000000000000000815260040160405180910390fd5b610e2e33826123e4565b50565b60156020528060005260406000206000915090505481565b60135481565b6000610e5961261f565b6001546000540303905090565b6060600084905060008484610e7b9190613db5565b67ffffffffffffffff811115610e9457610e9361370d565b5b6040519080825280601f01601f191660200182016040528015610ec65781602001600182028036833780820191505090505b50905060008590505b84811015610f5557828181518110610eea57610ee9613de9565b5b602001015160f81c60f81b828783610f029190613db5565b81518110610f1357610f12613de9565b5b60200101907effffffffffffffffffffffffffffffffffffffffffffffffffffffffffffff1916908160001a9053508080610f4d90613e18565b915050610ecf565b5080925050509392505050565b8260006daaeb6d7670e522a718067333cd4e73ffffffffffffffffffffffffffffffffffffffff163b1115611151573373ffffffffffffffffffffffffffffffffffffffff168173ffffffffffffffffffffffffffffffffffffffff161415610fd557610fd0848484612624565b61115d565b6daaeb6d7670e522a718067333cd4e73ffffffffffffffffffffffffffffffffffffffff1663c617113430336040518363ffffffff1660e01b815260040161101e929190613e61565b60206040518083038186803b15801561103657600080fd5b505afa15801561104a573d6000803e3d6000fd5b505050506040513d601f19601f8201168201806040525081019061106e9190613e9f565b801561110f57506daaeb6d7670e522a718067333cd4e73ffffffffffffffffffffffffffffffffffffffff1663c617113430836040518363ffffffff1660e01b81526004016110be929190613e61565b60206040518083038186803b1580156110d657600080fd5b505afa1580156110ea573d6000803e3d6000fd5b505050506040513d601f19601f8201168201806040525081019061110e9190613e9f565b5b61115057336040517fede71dcc0000000000000000000000000000000000000000000000000000000081526004016111479190613565565b60405180910390fd5b5b61115c848484612624565b5b50505050565b6000806000600a60008681526020019081526020016000206040518060400160405290816000820160009054906101000a900473ffffffffffffffffffffffffffffffffffffffff1673ffffffffffffffffffffffffffffffffffffffff1673ffffffffffffffffffffffffffffffffffffffff1681526020016000820160149054906101000a90046bffffffffffffffffffffffff166bffffffffffffffffffffffff166bffffffffffffffffffffffff16815250509050600073ffffffffffffffffffffffffffffffffffffffff16816000015173ffffffffffffffffffffffffffffffffffffffff1614156112f95760096040518060400160405290816000820160009054906101000a900473ffffffffffffffffffffffffffffffffffffffff1673ffffffffffffffffffffffffffffffffffffffff1673ffffffffffffffffffffffffffffffffffffffff1681526020016000820160149054906101000a90046bffffffffffffffffffffffff166bffffffffffffffffffffffff166bffffffffffffffffffffffff168152505090505b6000611303612949565b6bffffffffffffffffffffffff1682602001516bffffffffffffffffffffffff168661132f9190613d5b565b6113399190613efb565b90508160000151819350935050509250929050565b600b5481565b61135c6125a1565b6113646118cb565b73ffffffffffffffffffffffffffffffffffffffff166108fc479081150290604051600060405180830381858888f193505050501580156113a9573d6000803e3d6000fd5b50565b8260006daaeb6d7670e522a718067333cd4e73ffffffffffffffffffffffffffffffffffffffff163b111561159b573373ffffffffffffffffffffffffffffffffffffffff168173ffffffffffffffffffffffffffffffffffffffff16141561141f5761141a848484612953565b6115a7565b6daaeb6d7670e522a718067333cd4e73ffffffffffffffffffffffffffffffffffffffff1663c617113430336040518363ffffffff1660e01b8152600401611468929190613e61565b60206040518083038186803b15801561148057600080fd5b505afa158015611494573d6000803e3d6000fd5b505050506040513d601f19601f820116820180604052508101906114b89190613e9f565b801561155957506daaeb6d7670e522a718067333cd4e73ffffffffffffffffffffffffffffffffffffffff1663c617113430836040518363ffffffff1660e01b8152600401611508929190613e61565b60206040518083038186803b15801561152057600080fd5b505afa158015611534573d6000803e3d6000fd5b505050506040513d601f19601f820116820180604052508101906115589190613e9f565b5b61159a57336040517fede71dcc0000000000000000000000000000000000000000000000000000000081526004016115919190613565565b60405180910390fd5b5b6115a6848484612953565b5b50505050565b601460019054906101000a900460ff1681565b6115c86125a1565b600181511161160c576040517f08c379a000000000000000000000000000000000000000000000000000000000815260040161160390613f78565b60405180910390fd5b600061161782612973565b905060006116328360018461162c9190613db5565b84610e66565b9050611673816040518060400160405280600181526020017f2f00000000000000000000000000000000000000000000000000000000000000815250612b28565b6116b2576040517f08c379a00000000000000000000000000000000000000000000000000000000081526004016116a99061400a565b60405180910390fd5b601460019054906101000a900460ff1615611702576040517f08c379a00000000000000000000000000000000000000000000000000000000081526004016116f990614076565b60405180910390fd5b6001601460016101000a81548160ff0219169083151502179055508260119080519060200190611733929190613294565b50505050565b601460009054906101000a900460ff1681565b600061175782612b81565b9050919050565b6011805461176b90613c38565b80601f016020809104026020016040519081016040528092919081815260200182805461179790613c38565b80156117e45780601f106117b9576101008083540402835291602001916117e4565b820191906000526020600020905b8154815290600101906020018083116117c757829003601f168201915b505050505081565b60008073ffffffffffffffffffffffffffffffffffffffff168273ffffffffffffffffffffffffffffffffffffffff161415611854576040517f8f4eb60400000000000000000000000000000000000000000000000000000000815260040160405180910390fd5b67ffffffffffffffff600560008473ffffffffffffffffffffffffffffffffffffffff1673ffffffffffffffffffffffffffffffffffffffff16815260200190815260200160002054169050919050565b6118ad6125a1565b6118b76000612c4f565b565b6118c16125a1565b80600b8190555050565b6000600860009054906101000a900473ffffffffffffffffffffffffffffffffffffffff16905090565b6012805461190290613c38565b80601f016020809104026020016040519081016040528092919081815260200182805461192e90613c38565b801561197b5780601f106119505761010080835404028352916020019161197b565b820191906000526020600020905b81548152906001019060200180831161195e57829003601f168201915b505050505081565b61198b6125a1565b8060138190555050565b6060600380546119a490613c38565b80601f01602080910402602001604051908101604052809291908181526020018280546119d090613c38565b8015611a1d5780601f106119f257610100808354040283529160200191611a1d565b820191906000526020600020905b815481529060010190602001808311611a0057829003601f168201915b5050505050905090565b601460009054906101000a900460ff1615611a77576040517f08c379a0000000000000000000000000000000000000000000000000000000008152600401611a6e90613cb6565b60405180910390fd5b600260135414611ab3576040517fa9f4f87100000000000000000000000000000000000000000000000000000000815260040160405180910390fd5b600e5481611abf610e4f565b611ac99190613d05565b1115611b01576040517f76592c6f00000000000000000000000000000000000000000000000000000000815260040160405180910390fd5b3481600f54611b109190613d5b565b14611b47576040517fb457f15800000000000000000000000000000000000000000000000000000000815260040160405180910390fd5b600c54601660003373ffffffffffffffffffffffffffffffffffffffff1673ffffffffffffffffffffffffffffffffffffffff1681526020019081526020016000205482611b959190613d05565b1115611bcd576040517f38d8b70c00000000000000000000000000000000000000000000000000000000815260040160405180910390fd5b80601660003373ffffffffffffffffffffffffffffffffffffffff1673ffffffffffffffffffffffffffffffffffffffff1681526020019081526020016000206000828254611c1c9190613d05565b92505081905550611c2d33826123e4565b50565b8060076000611c3d61237e565b73ffffffffffffffffffffffffffffffffffffffff1673ffffffffffffffffffffffffffffffffffffffff16815260200190815260200160002060008473ffffffffffffffffffffffffffffffffffffffff1673ffffffffffffffffffffffffffffffffffffffff16815260200190815260200160002060006101000a81548160ff0219169083151502179055508173ffffffffffffffffffffffffffffffffffffffff16611cea61237e565b73ffffffffffffffffffffffffffffffffffffffff167f17307eab39ab6107e8899845ad3d59bd9653f200f220920489ca2b5937696c3183604051611d2f91906133eb565b60405180910390a35050565b60166020528060005260406000206000915090505481565b600c5481565b8360006daaeb6d7670e522a718067333cd4e73ffffffffffffffffffffffffffffffffffffffff163b1115611f49573373ffffffffffffffffffffffffffffffffffffffff168173ffffffffffffffffffffffffffffffffffffffff161415611dcd57611dc885858585612d15565b611f56565b6daaeb6d7670e522a718067333cd4e73ffffffffffffffffffffffffffffffffffffffff1663c617113430336040518363ffffffff1660e01b8152600401611e16929190613e61565b60206040518083038186803b158015611e2e57600080fd5b505afa158015611e42573d6000803e3d6000fd5b505050506040513d601f19601f82011682018060405250810190611e669190613e9f565b8015611f0757506daaeb6d7670e522a718067333cd4e73ffffffffffffffffffffffffffffffffffffffff1663c617113430836040518363ffffffff1660e01b8152600401611eb6929190613e61565b60206040518083038186803b158015611ece57600080fd5b505afa158015611ee2573d6000803e3d6000fd5b505050506040513d601f19601f82011682018060405250810190611f069190613e9f565b5b611f4857336040517fede71dcc000000000000000000000000000000000000000000000000000000008152600401611f3f9190613565565b60405180910390fd5b5b611f5585858585612d15565b5b5050505050565b60108054611f6a90613c38565b80601f0160208091040260200160405190810160405280929190818152602001828054611f9690613c38565b8015611fe35780601f10611fb857610100808354040283529160200191611fe3565b820191906000526020600020905b815481529060010190602001808311611fc657829003601f168201915b505050505081565b6060611ff68261231f565b612035576040517f08c379a000000000000000000000000000000000000000000000000000000000815260040161202c906140e2565b60405180910390fd5b601460019054906101000a900460ff161561207f57601161205583612d88565b6010604051602001612069939291906141d2565b60405160208183030381529060405290506120b0565b601261208a83612d88565b601060405160200161209e939291906141d2565b60405160208183030381529060405290505b919050565b600f5481565b600e5481565b6000600760008473ffffffffffffffffffffffffffffffffffffffff1673ffffffffffffffffffffffffffffffffffffffff16815260200190815260200160002060008373ffffffffffffffffffffffffffffffffffffffff1673ffffffffffffffffffffffffffffffffffffffff16815260200190815260200160002060009054906101000a900460ff16905092915050565b600d5481565b6121636125a1565b601460009054906101000a900460ff1615601460006101000a81548160ff021916908315150217905550565b6121976125a1565b600073ffffffffffffffffffffffffffffffffffffffff168173ffffffffffffffffffffffffffffffffffffffff161415612207576040517f08c379a00000000000000000000000000000000000000000000000000000000081526004016121fe90614275565b60405180910390fd5b61221081612c4f565b50565b60006301ffc9a760e01b827bffffffffffffffffffffffffffffffffffffffffffffffffffffffff1916148061226e57506380ac58cd60e01b827bffffffffffffffffffffffffffffffffffffffffffffffffffffffff1916145b8061229e5750635b5e139f60e01b827bffffffffffffffffffffffffffffffffffffffffffffffffffffffff1916145b9050919050565b60007f2a55205a000000000000000000000000000000000000000000000000000000007bffffffffffffffffffffffffffffffffffffffffffffffffffffffff1916827bffffffffffffffffffffffffffffffffffffffffffffffffffffffff19161480612318575061231782612ee9565b5b9050919050565b60008161232a61261f565b11158015612339575060005482105b8015612377575060007c0100000000000000000000000000000000000000000000000000000000600460008581526020019081526020016000205416145b9050919050565b600033905090565b60006123db61239485612f53565b848480806020026020016040519081016040528093929190818152602001838360200280828437600081840152601f19601f82011690508083019250505050505050612f83565b90509392505050565b6000805490506000821415612425576040517fb562e8dd00000000000000000000000000000000000000000000000000000000815260040160405180910390fd5b6124326000848385612f9a565b600160406001901b178202600560008573ffffffffffffffffffffffffffffffffffffffff1673ffffffffffffffffffffffffffffffffffffffff168152602001908152602001600020600082825401925050819055506124a98361249a6000866000612fa0565b6124a385612fc8565b17612fd8565b6004600083815260200190815260200160002081905550600080838301905073ffffffffffffffffffffffffffffffffffffffff85169150828260007fddf252ad1be2c89b69c2b068fc378daa952ba7f163c4a11628f55a4df523b3ef600080a4600183015b81811461254a57808360007fddf252ad1be2c89b69c2b068fc378daa952ba7f163c4a11628f55a4df523b3ef600080a460018101905061250f565b506000821415612586576040517f2e07630000000000000000000000000000000000000000000000000000000000815260040160405180910390fd5b80600081905550505061259c6000848385613003565b505050565b6125a9613009565b73ffffffffffffffffffffffffffffffffffffffff166125c76118cb565b73ffffffffffffffffffffffffffffffffffffffff161461261d576040517f08c379a0000000000000000000000000000000000000000000000000000000008152600401612614906142e1565b60405180910390fd5b565b600090565b600061262f82612b81565b90508373ffffffffffffffffffffffffffffffffffffffff168173ffffffffffffffffffffffffffffffffffffffff1614612696576040517fa114810000000000000000000000000000000000000000000000000000000000815260040160405180910390fd5b6000806126a284613011565b915091506126b881876126b361237e565b613038565b612704576126cd866126c861237e565b6120c1565b612703576040517f59c896be00000000000000000000000000000000000000000000000000000000815260040160405180910390fd5b5b600073ffffffffffffffffffffffffffffffffffffffff168573ffffffffffffffffffffffffffffffffffffffff16141561276b576040517fea553b3400000000000000000000000000000000000000000000000000000000815260040160405180910390fd5b6127788686866001612f9a565b801561278357600082555b600560008773ffffffffffffffffffffffffffffffffffffffff1673ffffffffffffffffffffffffffffffffffffffff168152602001908152602001600020600081546001900391905081905550600560008673ffffffffffffffffffffffffffffffffffffffff1673ffffffffffffffffffffffffffffffffffffffff16815260200190815260200160002060008154600101919050819055506128518561282d888887612fa0565b7c020000000000000000000000000000000000000000000000000000000017612fd8565b600460008681526020019081526020016000208190555060007c0200000000000000000000000000000000000000000000000000000000841614156128d95760006001850190506000600460008381526020019081526020016000205414156128d75760005481146128d6578360046000838152602001908152602001600020819055505b5b505b838573ffffffffffffffffffffffffffffffffffffffff168773ffffffffffffffffffffffffffffffffffffffff167fddf252ad1be2c89b69c2b068fc378daa952ba7f163c4a11628f55a4df523b3ef60405160405180910390a46129418686866001613003565b505050505050565b6000612710905090565b61296e83838360405180602001604052806000815250611d59565b505050565b60008060008084519050600092505b80821015612b1d57600085838151811061299f5761299e613de9565b5b602001015160f81c60f81b9050608060f81b817effffffffffffffffffffffffffffffffffffffffffffffffffffffffffffff191610156129ee576001836129e79190613d05565b9250612b09565b60e060f81b817effffffffffffffffffffffffffffffffffffffffffffffffffffffffffffff19161015612a3057600283612a299190613d05565b9250612b08565b60f060f81b817effffffffffffffffffffffffffffffffffffffffffffffffffffffffffffff19161015612a7257600383612a6b9190613d05565b9250612b07565b60f8801b817effffffffffffffffffffffffffffffffffffffffffffffffffffffffffffff19161015612ab357600483612aac9190613d05565b9250612b06565b60fc60f81b817effffffffffffffffffffffffffffffffffffffffffffffffffffffffffffff19161015612af557600583612aee9190613d05565b9250612b05565b600683612b029190613d05565b92505b5b5b5b5b508280612b1590613e18565b935050612982565b829350505050919050565b600081604051602001612b3b9190614301565b6040516020818303038152906040528051906020012083604051602001612b629190614301565b6040516020818303038152906040528051906020012014905092915050565b60008082905080612b9061261f565b11612c1857600054811015612c175760006004600083815260200190815260200160002054905060007c010000000000000000000000000000000000000000000000000000000082161415612c15575b6000811415612c0b576004600083600190039350838152602001908152602001600020549050612be0565b8092505050612c4a565b505b5b6040517fdf2d9b4200000000000000000000000000000000000000000000000000000000815260040160405180910390fd5b919050565b6000600860009054906101000a900473ffffffffffffffffffffffffffffffffffffffff16905081600860006101000a81548173ffffffffffffffffffffffffffffffffffffffff021916908373ffffffffffffffffffffffffffffffffffffffff1602179055508173ffffffffffffffffffffffffffffffffffffffff168173ffffffffffffffffffffffffffffffffffffffff167f8be0079c531659141344cd1fd0a4f28419497f9722a3daafe3b4186f6b6457e060405160405180910390a35050565b612d20848484610f62565b60008373ffffffffffffffffffffffffffffffffffffffff163b14612d8257612d4b8484848461307c565b612d81576040517fd1a57ed600000000000000000000000000000000000000000000000000000000815260040160405180910390fd5b5b50505050565b60606000821415612dd0576040518060400160405280600181526020017f30000000000000000000000000000000000000000000000000000000000000008152509050612ee4565b600082905060005b60008214612e02578080612deb90613e18565b915050600a82612dfb9190613efb565b9150612dd8565b60008167ffffffffffffffff811115612e1e57612e1d61370d565b5b6040519080825280601f01601f191660200182016040528015612e505781602001600182028036833780820191505090505b5090505b60008514612edd57600182612e699190613db5565b9150600a85612e789190614318565b6030612e849190613d05565b60f81b818381518110612e9a57612e99613de9565b5b60200101907effffffffffffffffffffffffffffffffffffffffffffffffffffffffffffff1916908160001a905350600a85612ed69190613efb565b9450612e54565b8093505050505b919050565b60007f01ffc9a7000000000000000000000000000000000000000000000000000000007bffffffffffffffffffffffffffffffffffffffffffffffffffffffff1916827bffffffffffffffffffffffffffffffffffffffffffffffffffffffff1916149050919050565b600081604051602001612f669190614391565b604051602081830303815290604052805190602001209050919050565b6000612f9282600b54856131dc565b905092915050565b50505050565b60008060e883901c905060e8612fb78686846131f3565b62ffffff16901b9150509392505050565b60006001821460e11b9050919050565b600073ffffffffffffffffffffffffffffffffffffffff83169250814260a01b178317905092915050565b50505050565b600033905090565b60008060006006600085815260200190815260200160002090508092508254915050915091565b600073ffffffffffffffffffffffffffffffffffffffff8316925073ffffffffffffffffffffffffffffffffffffffff821691508382148383141790509392505050565b60008373ffffffffffffffffffffffffffffffffffffffff1663150b7a026130a261237e565b8786866040518563ffffffff1660e01b81526004016130c49493929190614401565b602060405180830381600087803b1580156130de57600080fd5b505af192505050801561310f57506040513d601f19601f8201168201806040525081019061310c9190614462565b60015b613189573d806000811461313f576040519150601f19603f3d011682016040523d82523d6000602084013e613144565b606091505b50600081511415613181576040517fd1a57ed600000000000000000000000000000000000000000000000000000000815260040160405180910390fd5b805181602001fd5b63150b7a0260e01b7bffffffffffffffffffffffffffffffffffffffffffffffffffffffff1916817bffffffffffffffffffffffffffffffffffffffffffffffffffffffff191614915050949350505050565b6000826131e985846131fc565b1490509392505050565b60009392505050565b60008082905060005b8451811015613247576132328286838151811061322557613224613de9565b5b6020026020010151613252565b9150808061323f90613e18565b915050613205565b508091505092915050565b600081831061326a57613265828461327d565b613275565b613274838361327d565b5b905092915050565b600082600052816020526040600020905092915050565b8280546132a090613c38565b90600052602060002090601f0160209004810192826132c25760008555613309565b82601f106132db57805160ff1916838001178555613309565b82800160010185558215613309579182015b828111156133085782518255916020019190600101906132ed565b5b509050613316919061331a565b5090565b5b8082111561333357600081600090555060010161331b565b5090565b6000604051905090565b600080fd5b600080fd5b60007fffffffff0000000000000000000000000000000000000000000000000000000082169050919050565b6133808161334b565b811461338b57600080fd5b50565b60008135905061339d81613377565b92915050565b6000602082840312156133b9576133b8613341565b5b60006133c78482850161338e565b91505092915050565b60008115159050919050565b6133e5816133d0565b82525050565b600060208201905061340060008301846133dc565b92915050565b600081519050919050565b600082825260208201905092915050565b60005b83811015613440578082015181840152602081019050613425565b8381111561344f576000848401525b50505050565b6000601f19601f8301169050919050565b600061347182613406565b61347b8185613411565b935061348b818560208601613422565b61349481613455565b840191505092915050565b600060208201905081810360008301526134b98184613466565b905092915050565b6000819050919050565b6134d4816134c1565b81146134df57600080fd5b50565b6000813590506134f1816134cb565b92915050565b60006020828403121561350d5761350c613341565b5b600061351b848285016134e2565b91505092915050565b600073ffffffffffffffffffffffffffffffffffffffff82169050919050565b600061354f82613524565b9050919050565b61355f81613544565b82525050565b600060208201905061357a6000830184613556565b92915050565b61358981613544565b811461359457600080fd5b50565b6000813590506135a681613580565b92915050565b600080604083850312156135c3576135c2613341565b5b60006135d185828601613597565b92505060206135e2858286016134e2565b9150509250929050565b600080fd5b600080fd5b600080fd5b60008083601f840112613611576136106135ec565b5b8235905067ffffffffffffffff81111561362e5761362d6135f1565b5b60208301915083602082028301111561364a576136496135f6565b5b9250929050565b60008060006040848603121561366a57613669613341565b5b6000613678868287016134e2565b935050602084013567ffffffffffffffff81111561369957613698613346565b5b6136a5868287016135fb565b92509250509250925092565b6000602082840312156136c7576136c6613341565b5b60006136d584828501613597565b91505092915050565b6136e7816134c1565b82525050565b600060208201905061370260008301846136de565b92915050565b600080fd5b7f4e487b7100000000000000000000000000000000000000000000000000000000600052604160045260246000fd5b61374582613455565b810181811067ffffffffffffffff821117156137645761376361370d565b5b80604052505050565b6000613777613337565b9050613783828261373c565b919050565b600067ffffffffffffffff8211156137a3576137a261370d565b5b6137ac82613455565b9050602081019050919050565b82818337600083830152505050565b60006137db6137d684613788565b61376d565b9050828152602081018484840111156137f7576137f6613708565b5b6138028482856137b9565b509392505050565b600082601f83011261381f5761381e6135ec565b5b813561382f8482602086016137c8565b91505092915050565b60008060006060848603121561385157613850613341565b5b600084013567ffffffffffffffff81111561386f5761386e613346565b5b61387b8682870161380a565b935050602061388c868287016134e2565b925050604061389d868287016134e2565b9150509250925092565b6000806000606084860312156138c0576138bf613341565b5b60006138ce86828701613597565b93505060206138df86828701613597565b92505060406138f0868287016134e2565b9150509250925092565b6000806040838503121561391157613910613341565b5b600061391f858286016134e2565b9250506020613930858286016134e2565b9150509250929050565b600060408201905061394f6000830185613556565b61395c60208301846136de565b9392505050565b6000819050919050565b61397681613963565b82525050565b6000602082019050613991600083018461396d565b92915050565b6000602082840312156139ad576139ac613341565b5b600082013567ffffffffffffffff8111156139cb576139ca613346565b5b6139d78482850161380a565b91505092915050565b6139e981613963565b81146139f457600080fd5b50565b600081359050613a06816139e0565b92915050565b600060208284031215613a2257613a21613341565b5b6000613a30848285016139f7565b91505092915050565b613a42816133d0565b8114613a4d57600080fd5b50565b600081359050613a5f81613a39565b92915050565b60008060408385031215613a7c57613a7b613341565b5b6000613a8a85828601613597565b9250506020613a9b85828601613a50565b9150509250929050565b600067ffffffffffffffff821115613ac057613abf61370d565b5b613ac982613455565b9050602081019050919050565b6000613ae9613ae484613aa5565b61376d565b905082815260208101848484011115613b0557613b04613708565b5b613b108482856137b9565b509392505050565b600082601f830112613b2d57613b2c6135ec565b5b8135613b3d848260208601613ad6565b91505092915050565b60008060008060808587031215613b6057613b5f613341565b5b6000613b6e87828801613597565b9450506020613b7f87828801613597565b9350506040613b90878288016134e2565b925050606085013567ffffffffffffffff811115613bb157613bb0613346565b5b613bbd87828801613b18565b91505092959194509250565b60008060408385031215613be057613bdf613341565b5b6000613bee85828601613597565b9250506020613bff85828601613597565b9150509250929050565b7f4e487b7100000000000000000000000000000000000000000000000000000000600052602260045260246000fd5b60006002820490506001821680613c5057607f821691505b60208210811415613c6457613c63613c09565b5b50919050565b7f5061757365640000000000000000000000000000000000000000000000000000600082015250565b6000613ca0600683613411565b9150613cab82613c6a565b602082019050919050565b60006020820190508181036000830152613ccf81613c93565b9050919050565b7f4e487b7100000000000000000000000000000000000000000000000000000000600052601160045260246000fd5b6000613d10826134c1565b9150613d1b836134c1565b9250827fffffffffffffffffffffffffffffffffffffffffffffffffffffffffffffffff03821115613d5057613d4f613cd6565b5b828201905092915050565b6000613d66826134c1565b9150613d71836134c1565b9250817fffffffffffffffffffffffffffffffffffffffffffffffffffffffffffffffff0483118215151615613daa57613da9613cd6565b5b828202905092915050565b6000613dc0826134c1565b9150613dcb836134c1565b925082821015613dde57613ddd613cd6565b5b828203905092915050565b7f4e487b7100000000000000000000000000000000000000000000000000000000600052603260045260246000fd5b6000613e23826134c1565b91507fffffffffffffffffffffffffffffffffffffffffffffffffffffffffffffffff821415613e5657613e55613cd6565b5b600182019050919050565b6000604082019050613e766000830185613556565b613e836020830184613556565b9392505050565b600081519050613e9981613a39565b92915050565b600060208284031215613eb557613eb4613341565b5b6000613ec384828501613e8a565b91505092915050565b7f4e487b7100000000000000000000000000000000000000000000000000000000600052601260045260246000fd5b6000613f06826134c1565b9150613f11836134c1565b925082613f2157613f20613ecc565b5b828204905092915050565b7f5f6e6577426173655552492063616e6e6f7420626520656d7074792100000000600082015250565b6000613f62601c83613411565b9150613f6d82613f2c565b602082019050919050565b60006020820190508181036000830152613f9181613f55565b9050919050565b7f5f6e6577426173655552492073686f756c64206861766520612073756666697860008201527f206f6620272f2700000000000000000000000000000000000000000000000000602082015250565b6000613ff4602783613411565b9150613fff82613f98565b604082019050919050565b6000602082019050818103600083015261402381613fe7565b9050919050565b7f596f752063616e206f6e6c79207365742062617365555249206f6e6365210000600082015250565b6000614060601e83613411565b915061406b8261402a565b602082019050919050565b6000602082019050818103600083015261408f81614053565b9050919050565b7f746f6b656e20646f6573206e6f74206578697374210000000000000000000000600082015250565b60006140cc601583613411565b91506140d782614096565b602082019050919050565b600060208201905081810360008301526140fb816140bf565b9050919050565b600081905092915050565b60008190508160005260206000209050919050565b6000815461412f81613c38565b6141398186614102565b94506001821660008114614154576001811461416557614198565b60ff19831686528186019350614198565b61416e8561410d565b60005b8381101561419057815481890152600182019150602081019050614171565b838801955050505b50505092915050565b60006141ac82613406565b6141b68185614102565b93506141c6818560208601613422565b80840191505092915050565b60006141de8286614122565b91506141ea82856141a1565b91506141f68284614122565b9150819050949350505050565b7f4f776e61626c653a206e6577206f776e657220697320746865207a65726f206160008201527f6464726573730000000000000000000000000000000000000000000000000000602082015250565b600061425f602683613411565b915061426a82614203565b604082019050919050565b6000602082019050818103600083015261428e81614252565b9050919050565b7f4f776e61626c653a2063616c6c6572206973206e6f7420746865206f776e6572600082015250565b60006142cb602083613411565b91506142d682614295565b602082019050919050565b600060208201905081810360008301526142fa816142be565b9050919050565b600061430d82846141a1565b915081905092915050565b6000614323826134c1565b915061432e836134c1565b92508261433e5761433d613ecc565b5b828206905092915050565b60008160601b9050919050565b600061436182614349565b9050919050565b600061437382614356565b9050919050565b61438b61438682613544565b614368565b82525050565b600061439d828461437a565b60148201915081905092915050565b600081519050919050565b600082825260208201905092915050565b60006143d3826143ac565b6143dd81856143b7565b93506143ed818560208601613422565b6143f681613455565b840191505092915050565b60006080820190506144166000830187613556565b6144236020830186613556565b61443060408301856136de565b818103606083015261444281846143c8565b905095945050505050565b60008151905061445c81613377565b92915050565b60006020828403121561447857614477613341565b5b60006144868482850161444d565b9150509291505056fea264697066735822122056089ae283e861a13af011ead9700d51bbcc814c11c5ff5ab6c8a056438b524a64736f6c6343000809003368747470733a2f2f6b6974737564656e2e696e667572612d697066732e696f2f697066732f516d543857775575417a70654c7169784a446676564878394b7278466f387762473831314a5a426a6b66723643672f","opcodes":"PUSH1 0x80 PUSH1 0x40 MSTORE PUSH1 0x5 PUSH1 0xC SSTORE PUSH1 0x1 PUSH1 0xD SSTORE PUSH2 0x1A0A PUSH1 0xE SSTORE PUSH7 0x6A94D74F430000 PUSH1 0xF SSTORE PUSH1 0x40 MLOAD DUP1 PUSH1 0x40 ADD PUSH1 0x40 MSTORE DUP1 PUSH1 0x5 DUP2 MSTORE PUSH1 0x20 ADD PUSH32 0x2E6A736F6E000000000000000000000000000000000000000000000000000000 DUP2 MSTORE POP PUSH1 0x10 SWAP1 DUP1 MLOAD SWAP1 PUSH1 0x20 ADD SWAP1 PUSH3 0x6C SWAP3 SWAP2 SWAP1 PUSH3 0x68A JUMP JUMPDEST POP PUSH1 0x40 MLOAD DUP1 PUSH1 0x20 ADD PUSH1 0x40 MSTORE DUP1 PUSH1 0x0 DUP2 MSTORE POP PUSH1 0x11 SWAP1 DUP1 MLOAD SWAP1 PUSH1 0x20 ADD SWAP1 PUSH3 0x94 SWAP3 SWAP2 SWAP1 PUSH3 0x68A JUMP JUMPDEST POP PUSH1 0x40 MLOAD DUP1 PUSH1 0x80 ADD PUSH1 0x40 MSTORE DUP1 PUSH1 0x54 DUP2 MSTORE PUSH1 0x20 ADD PUSH3 0x4E1E PUSH1 0x54 SWAP2 CODECOPY PUSH1 0x12 SWAP1 DUP1 MLOAD SWAP1 PUSH1 0x20 ADD SWAP1 PUSH3 0xC6 SWAP3 SWAP2 SWAP1 PUSH3 0x68A JUMP JUMPDEST POP PUSH1 0x0 PUSH1 0x14 PUSH1 0x0 PUSH2 0x100 EXP DUP2 SLOAD DUP2 PUSH1 0xFF MUL NOT AND SWAP1 DUP4 ISZERO ISZERO MUL OR SWAP1 SSTORE POP PUSH1 0x0 PUSH1 0x14 PUSH1 0x1 PUSH2 0x100 EXP DUP2 SLOAD DUP2 PUSH1 0xFF MUL NOT AND SWAP1 DUP4 ISZERO ISZERO MUL OR SWAP1 SSTORE POP CALLVALUE DUP1 ISZERO PUSH3 0x10A JUMPI PUSH1 0x0 DUP1 REVERT JUMPDEST POP PUSH1 0x0 DUP1 PUSH1 0x40 MLOAD DUP1 PUSH1 0x40 ADD PUSH1 0x40 MSTORE DUP1 PUSH1 0xF DUP2 MSTORE PUSH1 0x20 ADD PUSH32 0x4B6974737564656E466F78466F6E650000000000000000000000000000000000 DUP2 MSTORE POP PUSH1 0x40 MLOAD DUP1 PUSH1 0x40 ADD PUSH1 0x40 MSTORE DUP1 PUSH1 0x5 DUP2 MSTORE PUSH1 0x20 ADD PUSH32 0x4B53444646000000000000000000000000000000000000000000000000000000 DUP2 MSTORE POP DUP2 PUSH1 0x2 SWAP1 DUP1 MLOAD SWAP1 PUSH1 0x20 ADD SWAP1 PUSH3 0x192 SWAP3 SWAP2 SWAP1 PUSH3 0x68A JUMP JUMPDEST POP DUP1 PUSH1 0x3 SWAP1 DUP1 MLOAD SWAP1 PUSH1 0x20 ADD SWAP1 PUSH3 0x1AB SWAP3 SWAP2 SWAP1 PUSH3 0x68A JUMP JUMPDEST POP PUSH3 0x1BC PUSH3 0x409 PUSH1 0x20 SHL PUSH1 0x20 SHR JUMP JUMPDEST PUSH1 0x0 DUP2 SWAP1 SSTORE POP POP POP PUSH3 0x1E4 PUSH3 0x1D8 PUSH3 0x40E PUSH1 0x20 SHL PUSH1 0x20 SHR JUMP JUMPDEST PUSH3 0x416 PUSH1 0x20 SHL PUSH1 0x20 SHR JUMP JUMPDEST PUSH1 0x0 PUSH14 0xAAEB6D7670E522A718067333CD4E PUSH20 0xFFFFFFFFFFFFFFFFFFFFFFFFFFFFFFFFFFFFFFFF AND EXTCODESIZE GT ISZERO PUSH3 0x3D9 JUMPI DUP1 ISZERO PUSH3 0x29F JUMPI PUSH14 0xAAEB6D7670E522A718067333CD4E PUSH20 0xFFFFFFFFFFFFFFFFFFFFFFFFFFFFFFFFFFFFFFFF AND PUSH4 0x7D3E3DBE ADDRESS DUP5 PUSH1 0x40 MLOAD DUP4 PUSH4 0xFFFFFFFF AND PUSH1 0xE0 SHL DUP2 MSTORE PUSH1 0x4 ADD PUSH3 0x265 SWAP3 SWAP2 SWAP1 PUSH3 0x77F JUMP JUMPDEST PUSH1 0x0 PUSH1 0x40 MLOAD DUP1 DUP4 SUB DUP2 PUSH1 0x0 DUP8 DUP1 EXTCODESIZE ISZERO DUP1 ISZERO PUSH3 0x280 JUMPI PUSH1 0x0 DUP1 REVERT JUMPDEST POP GAS CALL ISZERO DUP1 ISZERO PUSH3 0x295 JUMPI RETURNDATASIZE PUSH1 0x0 DUP1 RETURNDATACOPY RETURNDATASIZE PUSH1 0x0 REVERT JUMPDEST POP POP POP POP PUSH3 0x3D8 JUMP JUMPDEST PUSH1 0x0 PUSH20 0xFFFFFFFFFFFFFFFFFFFFFFFFFFFFFFFFFFFFFFFF AND DUP3 PUSH20 0xFFFFFFFFFFFFFFFFFFFFFFFFFFFFFFFFFFFFFFFF AND EQ PUSH3 0x359 JUMPI PUSH14 0xAAEB6D7670E522A718067333CD4E PUSH20 0xFFFFFFFFFFFFFFFFFFFFFFFFFFFFFFFFFFFFFFFF AND PUSH4 0xA0AF2903 ADDRESS DUP5 PUSH1 0x40 MLOAD DUP4 PUSH4 0xFFFFFFFF AND PUSH1 0xE0 SHL DUP2 MSTORE PUSH1 0x4 ADD PUSH3 0x31F SWAP3 SWAP2 SWAP1 PUSH3 0x77F JUMP JUMPDEST PUSH1 0x0 PUSH1 0x40 MLOAD DUP1 DUP4 SUB DUP2 PUSH1 0x0 DUP8 DUP1 EXTCODESIZE ISZERO DUP1 ISZERO PUSH3 0x33A JUMPI PUSH1 0x0 DUP1 REVERT JUMPDEST POP GAS CALL ISZERO DUP1 ISZERO PUSH3 0x34F JUMPI RETURNDATASIZE PUSH1 0x0 DUP1 RETURNDATACOPY RETURNDATASIZE PUSH1 0x0 REVERT JUMPDEST POP POP POP POP PUSH3 0x3D7 JUMP JUMPDEST PUSH14 0xAAEB6D7670E522A718067333CD4E PUSH20 0xFFFFFFFFFFFFFFFFFFFFFFFFFFFFFFFFFFFFFFFF AND PUSH4 0x4420E486 ADDRESS PUSH1 0x40 MLOAD DUP3 PUSH4 0xFFFFFFFF AND PUSH1 0xE0 SHL DUP2 MSTORE PUSH1 0x4 ADD PUSH3 0x3A2 SWAP2 SWAP1 PUSH3 0x7AC JUMP JUMPDEST PUSH1 0x0 PUSH1 0x40 MLOAD DUP1 DUP4 SUB DUP2 PUSH1 0x0 DUP8 DUP1 EXTCODESIZE ISZERO DUP1 ISZERO PUSH3 0x3BD JUMPI PUSH1 0x0 DUP1 REVERT JUMPDEST POP GAS CALL ISZERO DUP1 ISZERO PUSH3 0x3D2 JUMPI RETURNDATASIZE PUSH1 0x0 DUP1 RETURNDATACOPY RETURNDATASIZE PUSH1 0x0 REVERT JUMPDEST POP POP POP POP JUMPDEST JUMPDEST JUMPDEST POP POP PUSH3 0x403 PUSH20 0x1C0C70453C5ED96C7C4EC2EA98C3A99FC1DD27EF PUSH2 0x2BC PUSH3 0x4DC PUSH1 0x20 SHL PUSH1 0x20 SHR JUMP JUMPDEST PUSH3 0x949 JUMP JUMPDEST PUSH1 0x0 SWAP1 JUMP JUMPDEST PUSH1 0x0 CALLER SWAP1 POP SWAP1 JUMP JUMPDEST PUSH1 0x0 PUSH1 0x8 PUSH1 0x0 SWAP1 SLOAD SWAP1 PUSH2 0x100 EXP SWAP1 DIV PUSH20 0xFFFFFFFFFFFFFFFFFFFFFFFFFFFFFFFFFFFFFFFF AND SWAP1 POP DUP2 PUSH1 0x8 PUSH1 0x0 PUSH2 0x100 EXP DUP2 SLOAD DUP2 PUSH20 0xFFFFFFFFFFFFFFFFFFFFFFFFFFFFFFFFFFFFFFFF MUL NOT AND SWAP1 DUP4 PUSH20 0xFFFFFFFFFFFFFFFFFFFFFFFFFFFFFFFFFFFFFFFF AND MUL OR SWAP1 SSTORE POP DUP2 PUSH20 0xFFFFFFFFFFFFFFFFFFFFFFFFFFFFFFFFFFFFFFFF AND DUP2 PUSH20 0xFFFFFFFFFFFFFFFFFFFFFFFFFFFFFFFFFFFFFFFF AND PUSH32 0x8BE0079C531659141344CD1FD0A4F28419497F9722A3DAAFE3B4186F6B6457E0 PUSH1 0x40 MLOAD PUSH1 0x40 MLOAD DUP1 SWAP2 SUB SWAP1 LOG3 POP POP JUMP JUMPDEST PUSH3 0x4EC PUSH3 0x680 PUSH1 0x20 SHL PUSH1 0x20 SHR JUMP JUMPDEST PUSH12 0xFFFFFFFFFFFFFFFFFFFFFFFF AND DUP2 PUSH12 0xFFFFFFFFFFFFFFFFFFFFFFFF AND GT ISZERO PUSH3 0x54D JUMPI PUSH1 0x40 MLOAD PUSH32 0x8C379A000000000000000000000000000000000000000000000000000000000 DUP2 MSTORE PUSH1 0x4 ADD PUSH3 0x544 SWAP1 PUSH3 0x850 JUMP JUMPDEST PUSH1 0x40 MLOAD DUP1 SWAP2 SUB SWAP1 REVERT JUMPDEST PUSH1 0x0 PUSH20 0xFFFFFFFFFFFFFFFFFFFFFFFFFFFFFFFFFFFFFFFF AND DUP3 PUSH20 0xFFFFFFFFFFFFFFFFFFFFFFFFFFFFFFFFFFFFFFFF AND EQ ISZERO PUSH3 0x5C0 JUMPI PUSH1 0x40 MLOAD PUSH32 0x8C379A000000000000000000000000000000000000000000000000000000000 DUP2 MSTORE PUSH1 0x4 ADD PUSH3 0x5B7 SWAP1 PUSH3 0x8C2 JUMP JUMPDEST PUSH1 0x40 MLOAD DUP1 SWAP2 SUB SWAP1 REVERT JUMPDEST PUSH1 0x40 MLOAD DUP1 PUSH1 0x40 ADD PUSH1 0x40 MSTORE DUP1 DUP4 PUSH20 0xFFFFFFFFFFFFFFFFFFFFFFFFFFFFFFFFFFFFFFFF AND DUP2 MSTORE PUSH1 0x20 ADD DUP3 PUSH12 0xFFFFFFFFFFFFFFFFFFFFFFFF AND DUP2 MSTORE POP PUSH1 0x9 PUSH1 0x0 DUP3 ADD MLOAD DUP2 PUSH1 0x0 ADD PUSH1 0x0 PUSH2 0x100 EXP DUP2 SLOAD DUP2 PUSH20 0xFFFFFFFFFFFFFFFFFFFFFFFFFFFFFFFFFFFFFFFF MUL NOT AND SWAP1 DUP4 PUSH20 0xFFFFFFFFFFFFFFFFFFFFFFFFFFFFFFFFFFFFFFFF AND MUL OR SWAP1 SSTORE POP PUSH1 0x20 DUP3 ADD MLOAD DUP2 PUSH1 0x0 ADD PUSH1 0x14 PUSH2 0x100 EXP DUP2 SLOAD DUP2 PUSH12 0xFFFFFFFFFFFFFFFFFFFFFFFF MUL NOT AND SWAP1 DUP4 PUSH12 0xFFFFFFFFFFFFFFFFFFFFFFFF AND MUL OR SWAP1 SSTORE POP SWAP1 POP POP POP POP JUMP JUMPDEST PUSH1 0x0 PUSH2 0x2710 SWAP1 POP SWAP1 JUMP JUMPDEST DUP3 DUP1 SLOAD PUSH3 0x698 SWAP1 PUSH3 0x913 JUMP JUMPDEST SWAP1 PUSH1 0x0 MSTORE PUSH1 0x20 PUSH1 0x0 KECCAK256 SWAP1 PUSH1 0x1F ADD PUSH1 0x20 SWAP1 DIV DUP2 ADD SWAP3 DUP3 PUSH3 0x6BC JUMPI PUSH1 0x0 DUP6 SSTORE PUSH3 0x708 JUMP JUMPDEST DUP3 PUSH1 0x1F LT PUSH3 0x6D7 JUMPI DUP1 MLOAD PUSH1 0xFF NOT AND DUP4 DUP1 ADD OR DUP6 SSTORE PUSH3 0x708 JUMP JUMPDEST DUP3 DUP1 ADD PUSH1 0x1 ADD DUP6 SSTORE DUP3 ISZERO PUSH3 0x708 JUMPI SWAP2 DUP3 ADD JUMPDEST DUP3 DUP2 GT ISZERO PUSH3 0x707 JUMPI DUP3 MLOAD DUP3 SSTORE SWAP2 PUSH1 0x20 ADD SWAP2 SWAP1 PUSH1 0x1 ADD SWAP1 PUSH3 0x6EA JUMP JUMPDEST JUMPDEST POP SWAP1 POP PUSH3 0x717 SWAP2 SWAP1 PUSH3 0x71B JUMP JUMPDEST POP SWAP1 JUMP JUMPDEST JUMPDEST DUP1 DUP3 GT ISZERO PUSH3 0x736 JUMPI PUSH1 0x0 DUP2 PUSH1 0x0 SWAP1 SSTORE POP PUSH1 0x1 ADD PUSH3 0x71C JUMP JUMPDEST POP SWAP1 JUMP JUMPDEST PUSH1 0x0 PUSH20 0xFFFFFFFFFFFFFFFFFFFFFFFFFFFFFFFFFFFFFFFF DUP3 AND SWAP1 POP SWAP2 SWAP1 POP JUMP JUMPDEST PUSH1 0x0 PUSH3 0x767 DUP3 PUSH3 0x73A JUMP JUMPDEST SWAP1 POP SWAP2 SWAP1 POP JUMP JUMPDEST PUSH3 0x779 DUP2 PUSH3 0x75A JUMP JUMPDEST DUP3 MSTORE POP POP JUMP JUMPDEST PUSH1 0x0 PUSH1 0x40 DUP3 ADD SWAP1 POP PUSH3 0x796 PUSH1 0x0 DUP4 ADD DUP6 PUSH3 0x76E JUMP JUMPDEST PUSH3 0x7A5 PUSH1 0x20 DUP4 ADD DUP5 PUSH3 0x76E JUMP JUMPDEST SWAP4 SWAP3 POP POP POP JUMP JUMPDEST PUSH1 0x0 PUSH1 0x20 DUP3 ADD SWAP1 POP PUSH3 0x7C3 PUSH1 0x0 DUP4 ADD DUP5 PUSH3 0x76E JUMP JUMPDEST SWAP3 SWAP2 POP POP JUMP JUMPDEST PUSH1 0x0 DUP3 DUP3 MSTORE PUSH1 0x20 DUP3 ADD SWAP1 POP SWAP3 SWAP2 POP POP JUMP JUMPDEST PUSH32 0x455243323938313A20726F79616C7479206665652077696C6C20657863656564 PUSH1 0x0 DUP3 ADD MSTORE PUSH32 0x2073616C65507269636500000000000000000000000000000000000000000000 PUSH1 0x20 DUP3 ADD MSTORE POP JUMP JUMPDEST PUSH1 0x0 PUSH3 0x838 PUSH1 0x2A DUP4 PUSH3 0x7C9 JUMP JUMPDEST SWAP2 POP PUSH3 0x845 DUP3 PUSH3 0x7DA JUMP JUMPDEST PUSH1 0x40 DUP3 ADD SWAP1 POP SWAP2 SWAP1 POP JUMP JUMPDEST PUSH1 0x0 PUSH1 0x20 DUP3 ADD SWAP1 POP DUP2 DUP2 SUB PUSH1 0x0 DUP4 ADD MSTORE PUSH3 0x86B DUP2 PUSH3 0x829 JUMP JUMPDEST SWAP1 POP SWAP2 SWAP1 POP JUMP JUMPDEST PUSH32 0x455243323938313A20696E76616C696420726563656976657200000000000000 PUSH1 0x0 DUP3 ADD MSTORE POP JUMP JUMPDEST PUSH1 0x0 PUSH3 0x8AA PUSH1 0x19 DUP4 PUSH3 0x7C9 JUMP JUMPDEST SWAP2 POP PUSH3 0x8B7 DUP3 PUSH3 0x872 JUMP JUMPDEST PUSH1 0x20 DUP3 ADD SWAP1 POP SWAP2 SWAP1 POP JUMP JUMPDEST PUSH1 0x0 PUSH1 0x20 DUP3 ADD SWAP1 POP DUP2 DUP2 SUB PUSH1 0x0 DUP4 ADD MSTORE PUSH3 0x8DD DUP2 PUSH3 0x89B JUMP JUMPDEST SWAP1 POP SWAP2 SWAP1 POP JUMP JUMPDEST PUSH32 0x4E487B7100000000000000000000000000000000000000000000000000000000 PUSH1 0x0 MSTORE PUSH1 0x22 PUSH1 0x4 MSTORE PUSH1 0x24 PUSH1 0x0 REVERT JUMPDEST PUSH1 0x0 PUSH1 0x2 DUP3 DIV SWAP1 POP PUSH1 0x1 DUP3 AND DUP1 PUSH3 0x92C JUMPI PUSH1 0x7F DUP3 AND SWAP2 POP JUMPDEST PUSH1 0x20 DUP3 LT DUP2 EQ ISZERO PUSH3 0x943 JUMPI PUSH3 0x942 PUSH3 0x8E4 JUMP JUMPDEST JUMPDEST POP SWAP2 SWAP1 POP JUMP JUMPDEST PUSH2 0x44C5 DUP1 PUSH3 0x959 PUSH1 0x0 CODECOPY PUSH1 0x0 RETURN INVALID PUSH1 0x80 PUSH1 0x40 MSTORE PUSH1 0x4 CALLDATASIZE LT PUSH2 0x23B JUMPI PUSH1 0x0 CALLDATALOAD PUSH1 0xE0 SHR DUP1 PUSH4 0x70A08231 GT PUSH2 0x12E JUMPI DUP1 PUSH4 0xB6B6F0C3 GT PUSH2 0xAB JUMPI DUP1 PUSH4 0xD5ABEB01 GT PUSH2 0x6F JUMPI DUP1 PUSH4 0xD5ABEB01 EQ PUSH2 0x838 JUMPI DUP1 PUSH4 0xE985E9C5 EQ PUSH2 0x863 JUMPI DUP1 PUSH4 0xEE5735A8 EQ PUSH2 0x8A0 JUMPI DUP1 PUSH4 0xF14A0588 EQ PUSH2 0x8CB JUMPI DUP1 PUSH4 0xF2FDE38B EQ PUSH2 0x8E2 JUMPI PUSH2 0x23B JUMP JUMPDEST DUP1 PUSH4 0xB6B6F0C3 EQ PUSH2 0x75E JUMPI DUP1 PUSH4 0xB88D4FDE EQ PUSH2 0x789 JUMPI DUP1 PUSH4 0xC6682862 EQ PUSH2 0x7A5 JUMPI DUP1 PUSH4 0xC87B56DD EQ PUSH2 0x7D0 JUMPI DUP1 PUSH4 0xCA0DCF16 EQ PUSH2 0x80D JUMPI PUSH2 0x23B JUMP JUMPDEST DUP1 PUSH4 0x943431BF GT PUSH2 0xF2 JUMPI DUP1 PUSH4 0x943431BF EQ PUSH2 0x688 JUMPI DUP1 PUSH4 0x95D89B41 EQ PUSH2 0x6B1 JUMPI DUP1 PUSH4 0xA0712D68 EQ PUSH2 0x6DC JUMPI DUP1 PUSH4 0xA22CB465 EQ PUSH2 0x6F8 JUMPI DUP1 PUSH4 0xACDCE273 EQ PUSH2 0x721 JUMPI PUSH2 0x23B JUMP JUMPDEST DUP1 PUSH4 0x70A08231 EQ PUSH2 0x5B5 JUMPI DUP1 PUSH4 0x715018A6 EQ PUSH2 0x5F2 JUMPI DUP1 PUSH4 0x7CB64759 EQ PUSH2 0x609 JUMPI DUP1 PUSH4 0x8DA5CB5B EQ PUSH2 0x632 JUMPI DUP1 PUSH4 0x8FE11A97 EQ PUSH2 0x65D JUMPI PUSH2 0x23B JUMP JUMPDEST DUP1 PUSH4 0x23B872DD GT PUSH2 0x1BC JUMPI DUP1 PUSH4 0x51830227 GT PUSH2 0x180 JUMPI DUP1 PUSH4 0x51830227 EQ PUSH2 0x4CE JUMPI DUP1 PUSH4 0x55F804B3 EQ PUSH2 0x4F9 JUMPI DUP1 PUSH4 0x5C975ABB EQ PUSH2 0x522 JUMPI DUP1 PUSH4 0x6352211E EQ PUSH2 0x54D JUMPI DUP1 PUSH4 0x6C0360EB EQ PUSH2 0x58A JUMPI PUSH2 0x23B JUMP JUMPDEST DUP1 PUSH4 0x23B872DD EQ PUSH2 0x416 JUMPI DUP1 PUSH4 0x2A55205A EQ PUSH2 0x432 JUMPI DUP1 PUSH4 0x2EB4A7AB EQ PUSH2 0x470 JUMPI DUP1 PUSH4 0x3CCFD60B EQ PUSH2 0x49B JUMPI DUP1 PUSH4 0x42842E0E EQ PUSH2 0x4B2 JUMPI PUSH2 0x23B JUMP JUMPDEST DUP1 PUSH4 0x1342FF4C GT PUSH2 0x203 JUMPI DUP1 PUSH4 0x1342FF4C EQ PUSH2 0x31D JUMPI DUP1 PUSH4 0x13BFABC0 EQ PUSH2 0x346 JUMPI DUP1 PUSH4 0x17881CBF EQ PUSH2 0x383 JUMPI DUP1 PUSH4 0x18160DDD EQ PUSH2 0x3AE JUMPI DUP1 PUSH4 0x1DCD9B55 EQ PUSH2 0x3D9 JUMPI PUSH2 0x23B JUMP JUMPDEST DUP1 PUSH4 0x1FFC9A7 EQ PUSH2 0x240 JUMPI DUP1 PUSH4 0x6FDDE03 EQ PUSH2 0x27D JUMPI DUP1 PUSH4 0x81812FC EQ PUSH2 0x2A8 JUMPI DUP1 PUSH4 0x95EA7B3 EQ PUSH2 0x2E5 JUMPI DUP1 PUSH4 0x11876875 EQ PUSH2 0x301 JUMPI JUMPDEST PUSH1 0x0 DUP1 REVERT JUMPDEST CALLVALUE DUP1 ISZERO PUSH2 0x24C JUMPI PUSH1 0x0 DUP1 REVERT JUMPDEST POP PUSH2 0x267 PUSH1 0x4 DUP1 CALLDATASIZE SUB DUP2 ADD SWAP1 PUSH2 0x262 SWAP2 SWAP1 PUSH2 0x33A3 JUMP JUMPDEST PUSH2 0x90B JUMP JUMPDEST PUSH1 0x40 MLOAD PUSH2 0x274 SWAP2 SWAP1 PUSH2 0x33EB JUMP JUMPDEST PUSH1 0x40 MLOAD DUP1 SWAP2 SUB SWAP1 RETURN JUMPDEST CALLVALUE DUP1 ISZERO PUSH2 0x289 JUMPI PUSH1 0x0 DUP1 REVERT JUMPDEST POP PUSH2 0x292 PUSH2 0x92D JUMP JUMPDEST PUSH1 0x40 MLOAD PUSH2 0x29F SWAP2 SWAP1 PUSH2 0x349F JUMP JUMPDEST PUSH1 0x40 MLOAD DUP1 SWAP2 SUB SWAP1 RETURN JUMPDEST CALLVALUE DUP1 ISZERO PUSH2 0x2B4 JUMPI PUSH1 0x0 DUP1 REVERT JUMPDEST POP PUSH2 0x2CF PUSH1 0x4 DUP1 CALLDATASIZE SUB DUP2 ADD SWAP1 PUSH2 0x2CA SWAP2 SWAP1 PUSH2 0x34F7 JUMP JUMPDEST PUSH2 0x9BF JUMP JUMPDEST PUSH1 0x40 MLOAD PUSH2 0x2DC SWAP2 SWAP1 PUSH2 0x3565 JUMP JUMPDEST PUSH1 0x40 MLOAD DUP1 SWAP2 SUB SWAP1 RETURN JUMPDEST PUSH2 0x2FF PUSH1 0x4 DUP1 CALLDATASIZE SUB DUP2 ADD SWAP1 PUSH2 0x2FA SWAP2 SWAP1 PUSH2 0x35AC JUMP JUMPDEST PUSH2 0xA3E JUMP JUMPDEST STOP JUMPDEST PUSH2 0x31B PUSH1 0x4 DUP1 CALLDATASIZE SUB DUP2 ADD SWAP1 PUSH2 0x316 SWAP2 SWAP1 PUSH2 0x3651 JUMP JUMPDEST PUSH2 0xB82 JUMP JUMPDEST STOP JUMPDEST CALLVALUE DUP1 ISZERO PUSH2 0x329 JUMPI PUSH1 0x0 DUP1 REVERT JUMPDEST POP PUSH2 0x344 PUSH1 0x4 DUP1 CALLDATASIZE SUB DUP2 ADD SWAP1 PUSH2 0x33F SWAP2 SWAP1 PUSH2 0x34F7 JUMP JUMPDEST PUSH2 0xDCE JUMP JUMPDEST STOP JUMPDEST CALLVALUE DUP1 ISZERO PUSH2 0x352 JUMPI PUSH1 0x0 DUP1 REVERT JUMPDEST POP PUSH2 0x36D PUSH1 0x4 DUP1 CALLDATASIZE SUB DUP2 ADD SWAP1 PUSH2 0x368 SWAP2 SWAP1 PUSH2 0x36B1 JUMP JUMPDEST PUSH2 0xE31 JUMP JUMPDEST PUSH1 0x40 MLOAD PUSH2 0x37A SWAP2 SWAP1 PUSH2 0x36ED JUMP JUMPDEST PUSH1 0x40 MLOAD DUP1 SWAP2 SUB SWAP1 RETURN JUMPDEST CALLVALUE DUP1 ISZERO PUSH2 0x38F JUMPI PUSH1 0x0 DUP1 REVERT JUMPDEST POP PUSH2 0x398 PUSH2 0xE49 JUMP JUMPDEST PUSH1 0x40 MLOAD PUSH2 0x3A5 SWAP2 SWAP1 PUSH2 0x36ED JUMP JUMPDEST PUSH1 0x40 MLOAD DUP1 SWAP2 SUB SWAP1 RETURN JUMPDEST CALLVALUE DUP1 ISZERO PUSH2 0x3BA JUMPI PUSH1 0x0 DUP1 REVERT JUMPDEST POP PUSH2 0x3C3 PUSH2 0xE4F JUMP JUMPDEST PUSH1 0x40 MLOAD PUSH2 0x3D0 SWAP2 SWAP1 PUSH2 0x36ED JUMP JUMPDEST PUSH1 0x40 MLOAD DUP1 SWAP2 SUB SWAP1 RETURN JUMPDEST CALLVALUE DUP1 ISZERO PUSH2 0x3E5 JUMPI PUSH1 0x0 DUP1 REVERT JUMPDEST POP PUSH2 0x400 PUSH1 0x4 DUP1 CALLDATASIZE SUB DUP2 ADD SWAP1 PUSH2 0x3FB SWAP2 SWAP1 PUSH2 0x3838 JUMP JUMPDEST PUSH2 0xE66 JUMP JUMPDEST PUSH1 0x40 MLOAD PUSH2 0x40D SWAP2 SWAP1 PUSH2 0x349F JUMP JUMPDEST PUSH1 0x40 MLOAD DUP1 SWAP2 SUB SWAP1 RETURN JUMPDEST PUSH2 0x430 PUSH1 0x4 DUP1 CALLDATASIZE SUB DUP2 ADD SWAP1 PUSH2 0x42B SWAP2 SWAP1 PUSH2 0x38A7 JUMP JUMPDEST PUSH2 0xF62 JUMP JUMPDEST STOP JUMPDEST CALLVALUE DUP1 ISZERO PUSH2 0x43E JUMPI PUSH1 0x0 DUP1 REVERT JUMPDEST POP PUSH2 0x459 PUSH1 0x4 DUP1 CALLDATASIZE SUB DUP2 ADD SWAP1 PUSH2 0x454 SWAP2 SWAP1 PUSH2 0x38FA JUMP JUMPDEST PUSH2 0x1163 JUMP JUMPDEST PUSH1 0x40 MLOAD PUSH2 0x467 SWAP3 SWAP2 SWAP1 PUSH2 0x393A JUMP JUMPDEST PUSH1 0x40 MLOAD DUP1 SWAP2 SUB SWAP1 RETURN JUMPDEST CALLVALUE DUP1 ISZERO PUSH2 0x47C JUMPI PUSH1 0x0 DUP1 REVERT JUMPDEST POP PUSH2 0x485 PUSH2 0x134E JUMP JUMPDEST PUSH1 0x40 MLOAD PUSH2 0x492 SWAP2 SWAP1 PUSH2 0x397C JUMP JUMPDEST PUSH1 0x40 MLOAD DUP1 SWAP2 SUB SWAP1 RETURN JUMPDEST CALLVALUE DUP1 ISZERO PUSH2 0x4A7 JUMPI PUSH1 0x0 DUP1 REVERT JUMPDEST POP PUSH2 0x4B0 PUSH2 0x1354 JUMP JUMPDEST STOP JUMPDEST PUSH2 0x4CC PUSH1 0x4 DUP1 CALLDATASIZE SUB DUP2 ADD SWAP1 PUSH2 0x4C7 SWAP2 SWAP1 PUSH2 0x38A7 JUMP JUMPDEST PUSH2 0x13AC JUMP JUMPDEST STOP JUMPDEST CALLVALUE DUP1 ISZERO PUSH2 0x4DA JUMPI PUSH1 0x0 DUP1 REVERT JUMPDEST POP PUSH2 0x4E3 PUSH2 0x15AD JUMP JUMPDEST PUSH1 0x40 MLOAD PUSH2 0x4F0 SWAP2 SWAP1 PUSH2 0x33EB JUMP JUMPDEST PUSH1 0x40 MLOAD DUP1 SWAP2 SUB SWAP1 RETURN JUMPDEST CALLVALUE DUP1 ISZERO PUSH2 0x505 JUMPI PUSH1 0x0 DUP1 REVERT JUMPDEST POP PUSH2 0x520 PUSH1 0x4 DUP1 CALLDATASIZE SUB DUP2 ADD SWAP1 PUSH2 0x51B SWAP2 SWAP1 PUSH2 0x3997 JUMP JUMPDEST PUSH2 0x15C0 JUMP JUMPDEST STOP JUMPDEST CALLVALUE DUP1 ISZERO PUSH2 0x52E JUMPI PUSH1 0x0 DUP1 REVERT JUMPDEST POP PUSH2 0x537 PUSH2 0x1739 JUMP JUMPDEST PUSH1 0x40 MLOAD PUSH2 0x544 SWAP2 SWAP1 PUSH2 0x33EB JUMP JUMPDEST PUSH1 0x40 MLOAD DUP1 SWAP2 SUB SWAP1 RETURN JUMPDEST CALLVALUE DUP1 ISZERO PUSH2 0x559 JUMPI PUSH1 0x0 DUP1 REVERT JUMPDEST POP PUSH2 0x574 PUSH1 0x4 DUP1 CALLDATASIZE SUB DUP2 ADD SWAP1 PUSH2 0x56F SWAP2 SWAP1 PUSH2 0x34F7 JUMP JUMPDEST PUSH2 0x174C JUMP JUMPDEST PUSH1 0x40 MLOAD PUSH2 0x581 SWAP2 SWAP1 PUSH2 0x3565 JUMP JUMPDEST PUSH1 0x40 MLOAD DUP1 SWAP2 SUB SWAP1 RETURN JUMPDEST CALLVALUE DUP1 ISZERO PUSH2 0x596 JUMPI PUSH1 0x0 DUP1 REVERT JUMPDEST POP PUSH2 0x59F PUSH2 0x175E JUMP JUMPDEST PUSH1 0x40 MLOAD PUSH2 0x5AC SWAP2 SWAP1 PUSH2 0x349F JUMP JUMPDEST PUSH1 0x40 MLOAD DUP1 SWAP2 SUB SWAP1 RETURN JUMPDEST CALLVALUE DUP1 ISZERO PUSH2 0x5C1 JUMPI PUSH1 0x0 DUP1 REVERT JUMPDEST POP PUSH2 0x5DC PUSH1 0x4 DUP1 CALLDATASIZE SUB DUP2 ADD SWAP1 PUSH2 0x5D7 SWAP2 SWAP1 PUSH2 0x36B1 JUMP JUMPDEST PUSH2 0x17EC JUMP JUMPDEST PUSH1 0x40 MLOAD PUSH2 0x5E9 SWAP2 SWAP1 PUSH2 0x36ED JUMP JUMPDEST PUSH1 0x40 MLOAD DUP1 SWAP2 SUB SWAP1 RETURN JUMPDEST CALLVALUE DUP1 ISZERO PUSH2 0x5FE JUMPI PUSH1 0x0 DUP1 REVERT JUMPDEST POP PUSH2 0x607 PUSH2 0x18A5 JUMP JUMPDEST STOP JUMPDEST CALLVALUE DUP1 ISZERO PUSH2 0x615 JUMPI PUSH1 0x0 DUP1 REVERT JUMPDEST POP PUSH2 0x630 PUSH1 0x4 DUP1 CALLDATASIZE SUB DUP2 ADD SWAP1 PUSH2 0x62B SWAP2 SWAP1 PUSH2 0x3A0C JUMP JUMPDEST PUSH2 0x18B9 JUMP JUMPDEST STOP JUMPDEST CALLVALUE DUP1 ISZERO PUSH2 0x63E JUMPI PUSH1 0x0 DUP1 REVERT JUMPDEST POP PUSH2 0x647 PUSH2 0x18CB JUMP JUMPDEST PUSH1 0x40 MLOAD PUSH2 0x654 SWAP2 SWAP1 PUSH2 0x3565 JUMP JUMPDEST PUSH1 0x40 MLOAD DUP1 SWAP2 SUB SWAP1 RETURN JUMPDEST CALLVALUE DUP1 ISZERO PUSH2 0x669 JUMPI PUSH1 0x0 DUP1 REVERT JUMPDEST POP PUSH2 0x672 PUSH2 0x18F5 JUMP JUMPDEST PUSH1 0x40 MLOAD PUSH2 0x67F SWAP2 SWAP1 PUSH2 0x349F JUMP JUMPDEST PUSH1 0x40 MLOAD DUP1 SWAP2 SUB SWAP1 RETURN JUMPDEST CALLVALUE DUP1 ISZERO PUSH2 0x694 JUMPI PUSH1 0x0 DUP1 REVERT JUMPDEST POP PUSH2 0x6AF PUSH1 0x4 DUP1 CALLDATASIZE SUB DUP2 ADD SWAP1 PUSH2 0x6AA SWAP2 SWAP1 PUSH2 0x34F7 JUMP JUMPDEST PUSH2 0x1983 JUMP JUMPDEST STOP JUMPDEST CALLVALUE DUP1 ISZERO PUSH2 0x6BD JUMPI PUSH1 0x0 DUP1 REVERT JUMPDEST POP PUSH2 0x6C6 PUSH2 0x1995 JUMP JUMPDEST PUSH1 0x40 MLOAD PUSH2 0x6D3 SWAP2 SWAP1 PUSH2 0x349F JUMP JUMPDEST PUSH1 0x40 MLOAD DUP1 SWAP2 SUB SWAP1 RETURN JUMPDEST PUSH2 0x6F6 PUSH1 0x4 DUP1 CALLDATASIZE SUB DUP2 ADD SWAP1 PUSH2 0x6F1 SWAP2 SWAP1 PUSH2 0x34F7 JUMP JUMPDEST PUSH2 0x1A27 JUMP JUMPDEST STOP JUMPDEST CALLVALUE DUP1 ISZERO PUSH2 0x704 JUMPI PUSH1 0x0 DUP1 REVERT JUMPDEST POP PUSH2 0x71F PUSH1 0x4 DUP1 CALLDATASIZE SUB DUP2 ADD SWAP1 PUSH2 0x71A SWAP2 SWAP1 PUSH2 0x3A65 JUMP JUMPDEST PUSH2 0x1C30 JUMP JUMPDEST STOP JUMPDEST CALLVALUE DUP1 ISZERO PUSH2 0x72D JUMPI PUSH1 0x0 DUP1 REVERT JUMPDEST POP PUSH2 0x748 PUSH1 0x4 DUP1 CALLDATASIZE SUB DUP2 ADD SWAP1 PUSH2 0x743 SWAP2 SWAP1 PUSH2 0x36B1 JUMP JUMPDEST PUSH2 0x1D3B JUMP JUMPDEST PUSH1 0x40 MLOAD PUSH2 0x755 SWAP2 SWAP1 PUSH2 0x36ED JUMP JUMPDEST PUSH1 0x40 MLOAD DUP1 SWAP2 SUB SWAP1 RETURN JUMPDEST CALLVALUE DUP1 ISZERO PUSH2 0x76A JUMPI PUSH1 0x0 DUP1 REVERT JUMPDEST POP PUSH2 0x773 PUSH2 0x1D53 JUMP JUMPDEST PUSH1 0x40 MLOAD PUSH2 0x780 SWAP2 SWAP1 PUSH2 0x36ED JUMP JUMPDEST PUSH1 0x40 MLOAD DUP1 SWAP2 SUB SWAP1 RETURN JUMPDEST PUSH2 0x7A3 PUSH1 0x4 DUP1 CALLDATASIZE SUB DUP2 ADD SWAP1 PUSH2 0x79E SWAP2 SWAP1 PUSH2 0x3B46 JUMP JUMPDEST PUSH2 0x1D59 JUMP JUMPDEST STOP JUMPDEST CALLVALUE DUP1 ISZERO PUSH2 0x7B1 JUMPI PUSH1 0x0 DUP1 REVERT JUMPDEST POP PUSH2 0x7BA PUSH2 0x1F5D JUMP JUMPDEST PUSH1 0x40 MLOAD PUSH2 0x7C7 SWAP2 SWAP1 PUSH2 0x349F JUMP JUMPDEST PUSH1 0x40 MLOAD DUP1 SWAP2 SUB SWAP1 RETURN JUMPDEST CALLVALUE DUP1 ISZERO PUSH2 0x7DC JUMPI PUSH1 0x0 DUP1 REVERT JUMPDEST POP PUSH2 0x7F7 PUSH1 0x4 DUP1 CALLDATASIZE SUB DUP2 ADD SWAP1 PUSH2 0x7F2 SWAP2 SWAP1 PUSH2 0x34F7 JUMP JUMPDEST PUSH2 0x1FEB JUMP JUMPDEST PUSH1 0x40 MLOAD PUSH2 0x804 SWAP2 SWAP1 PUSH2 0x349F JUMP JUMPDEST PUSH1 0x40 MLOAD DUP1 SWAP2 SUB SWAP1 RETURN JUMPDEST CALLVALUE DUP1 ISZERO PUSH2 0x819 JUMPI PUSH1 0x0 DUP1 REVERT JUMPDEST POP PUSH2 0x822 PUSH2 0x20B5 JUMP JUMPDEST PUSH1 0x40 MLOAD PUSH2 0x82F SWAP2 SWAP1 PUSH2 0x36ED JUMP JUMPDEST PUSH1 0x40 MLOAD DUP1 SWAP2 SUB SWAP1 RETURN JUMPDEST CALLVALUE DUP1 ISZERO PUSH2 0x844 JUMPI PUSH1 0x0 DUP1 REVERT JUMPDEST POP PUSH2 0x84D PUSH2 0x20BB JUMP JUMPDEST PUSH1 0x40 MLOAD PUSH2 0x85A SWAP2 SWAP1 PUSH2 0x36ED JUMP JUMPDEST PUSH1 0x40 MLOAD DUP1 SWAP2 SUB SWAP1 RETURN JUMPDEST CALLVALUE DUP1 ISZERO PUSH2 0x86F JUMPI PUSH1 0x0 DUP1 REVERT JUMPDEST POP PUSH2 0x88A PUSH1 0x4 DUP1 CALLDATASIZE SUB DUP2 ADD SWAP1 PUSH2 0x885 SWAP2 SWAP1 PUSH2 0x3BC9 JUMP JUMPDEST PUSH2 0x20C1 JUMP JUMPDEST PUSH1 0x40 MLOAD PUSH2 0x897 SWAP2 SWAP1 PUSH2 0x33EB JUMP JUMPDEST PUSH1 0x40 MLOAD DUP1 SWAP2 SUB SWAP1 RETURN JUMPDEST CALLVALUE DUP1 ISZERO PUSH2 0x8AC JUMPI PUSH1 0x0 DUP1 REVERT JUMPDEST POP PUSH2 0x8B5 PUSH2 0x2155 JUMP JUMPDEST PUSH1 0x40 MLOAD PUSH2 0x8C2 SWAP2 SWAP1 PUSH2 0x36ED JUMP JUMPDEST PUSH1 0x40 MLOAD DUP1 SWAP2 SUB SWAP1 RETURN JUMPDEST CALLVALUE DUP1 ISZERO PUSH2 0x8D7 JUMPI PUSH1 0x0 DUP1 REVERT JUMPDEST POP PUSH2 0x8E0 PUSH2 0x215B JUMP JUMPDEST STOP JUMPDEST CALLVALUE DUP1 ISZERO PUSH2 0x8EE JUMPI PUSH1 0x0 DUP1 REVERT JUMPDEST POP PUSH2 0x909 PUSH1 0x4 DUP1 CALLDATASIZE SUB DUP2 ADD SWAP1 PUSH2 0x904 SWAP2 SWAP1 PUSH2 0x36B1 JUMP JUMPDEST PUSH2 0x218F JUMP JUMPDEST STOP JUMPDEST PUSH1 0x0 PUSH2 0x916 DUP3 PUSH2 0x2213 JUMP JUMPDEST DUP1 PUSH2 0x926 JUMPI POP PUSH2 0x925 DUP3 PUSH2 0x22A5 JUMP JUMPDEST JUMPDEST SWAP1 POP SWAP2 SWAP1 POP JUMP JUMPDEST PUSH1 0x60 PUSH1 0x2 DUP1 SLOAD PUSH2 0x93C SWAP1 PUSH2 0x3C38 JUMP JUMPDEST DUP1 PUSH1 0x1F ADD PUSH1 0x20 DUP1 SWAP2 DIV MUL PUSH1 0x20 ADD PUSH1 0x40 MLOAD SWAP1 DUP2 ADD PUSH1 0x40 MSTORE DUP1 SWAP3 SWAP2 SWAP1 DUP2 DUP2 MSTORE PUSH1 0x20 ADD DUP3 DUP1 SLOAD PUSH2 0x968 SWAP1 PUSH2 0x3C38 JUMP JUMPDEST DUP1 ISZERO PUSH2 0x9B5 JUMPI DUP1 PUSH1 0x1F LT PUSH2 0x98A JUMPI PUSH2 0x100 DUP1 DUP4 SLOAD DIV MUL DUP4 MSTORE SWAP2 PUSH1 0x20 ADD SWAP2 PUSH2 0x9B5 JUMP JUMPDEST DUP3 ADD SWAP2 SWAP1 PUSH1 0x0 MSTORE PUSH1 0x20 PUSH1 0x0 KECCAK256 SWAP1 JUMPDEST DUP2 SLOAD DUP2 MSTORE SWAP1 PUSH1 0x1 ADD SWAP1 PUSH1 0x20 ADD DUP1 DUP4 GT PUSH2 0x998 JUMPI DUP3 SWAP1 SUB PUSH1 0x1F AND DUP3 ADD SWAP2 JUMPDEST POP POP POP POP POP SWAP1 POP SWAP1 JUMP JUMPDEST PUSH1 0x0 PUSH2 0x9CA DUP3 PUSH2 0x231F JUMP JUMPDEST PUSH2 0xA00 JUMPI PUSH1 0x40 MLOAD PUSH32 0xCF4700E400000000000000000000000000000000000000000000000000000000 DUP2 MSTORE PUSH1 0x4 ADD PUSH1 0x40 MLOAD DUP1 SWAP2 SUB SWAP1 REVERT JUMPDEST PUSH1 0x6 PUSH1 0x0 DUP4 DUP2 MSTORE PUSH1 0x20 ADD SWAP1 DUP2 MSTORE PUSH1 0x20 ADD PUSH1 0x0 KECCAK256 PUSH1 0x0 ADD PUSH1 0x0 SWAP1 SLOAD SWAP1 PUSH2 0x100 EXP SWAP1 DIV PUSH20 0xFFFFFFFFFFFFFFFFFFFFFFFFFFFFFFFFFFFFFFFF AND SWAP1 POP SWAP2 SWAP1 POP JUMP JUMPDEST PUSH1 0x0 PUSH2 0xA49 DUP3 PUSH2 0x174C JUMP JUMPDEST SWAP1 POP DUP1 PUSH20 0xFFFFFFFFFFFFFFFFFFFFFFFFFFFFFFFFFFFFFFFF AND PUSH2 0xA6A PUSH2 0x237E JUMP JUMPDEST PUSH20 0xFFFFFFFFFFFFFFFFFFFFFFFFFFFFFFFFFFFFFFFF AND EQ PUSH2 0xACD JUMPI PUSH2 0xA96 DUP2 PUSH2 0xA91 PUSH2 0x237E JUMP JUMPDEST PUSH2 0x20C1 JUMP JUMPDEST PUSH2 0xACC JUMPI PUSH1 0x40 MLOAD PUSH32 0xCFB3B94200000000000000000000000000000000000000000000000000000000 DUP2 MSTORE PUSH1 0x4 ADD PUSH1 0x40 MLOAD DUP1 SWAP2 SUB SWAP1 REVERT JUMPDEST JUMPDEST DUP3 PUSH1 0x6 PUSH1 0x0 DUP5 DUP2 MSTORE PUSH1 0x20 ADD SWAP1 DUP2 MSTORE PUSH1 0x20 ADD PUSH1 0x0 KECCAK256 PUSH1 0x0 ADD PUSH1 0x0 PUSH2 0x100 EXP DUP2 SLOAD DUP2 PUSH20 0xFFFFFFFFFFFFFFFFFFFFFFFFFFFFFFFFFFFFFFFF MUL NOT AND SWAP1 DUP4 PUSH20 0xFFFFFFFFFFFFFFFFFFFFFFFFFFFFFFFFFFFFFFFF AND MUL OR SWAP1 SSTORE POP DUP2 DUP4 PUSH20 0xFFFFFFFFFFFFFFFFFFFFFFFFFFFFFFFFFFFFFFFF AND DUP3 PUSH20 0xFFFFFFFFFFFFFFFFFFFFFFFFFFFFFFFFFFFFFFFF AND PUSH32 0x8C5BE1E5EBEC7D5BD14F71427D1E84F3DD0314C0F7B2291E5B200AC8C7C3B925 PUSH1 0x40 MLOAD PUSH1 0x40 MLOAD DUP1 SWAP2 SUB SWAP1 LOG4 POP POP POP JUMP JUMPDEST PUSH1 0x14 PUSH1 0x0 SWAP1 SLOAD SWAP1 PUSH2 0x100 EXP SWAP1 DIV PUSH1 0xFF AND ISZERO PUSH2 0xBD2 JUMPI PUSH1 0x40 MLOAD PUSH32 0x8C379A000000000000000000000000000000000000000000000000000000000 DUP2 MSTORE PUSH1 0x4 ADD PUSH2 0xBC9 SWAP1 PUSH2 0x3CB6 JUMP JUMPDEST PUSH1 0x40 MLOAD DUP1 SWAP2 SUB SWAP1 REVERT JUMPDEST PUSH1 0x1 PUSH1 0x13 SLOAD EQ PUSH2 0xC0E JUMPI PUSH1 0x40 MLOAD PUSH32 0x1E94BF2D00000000000000000000000000000000000000000000000000000000 DUP2 MSTORE PUSH1 0x4 ADD PUSH1 0x40 MLOAD DUP1 SWAP2 SUB SWAP1 REVERT JUMPDEST PUSH2 0xC19 CALLER DUP4 DUP4 PUSH2 0x2386 JUMP JUMPDEST PUSH2 0xC4F JUMPI PUSH1 0x40 MLOAD PUSH32 0x3F1636E200000000000000000000000000000000000000000000000000000000 DUP2 MSTORE PUSH1 0x4 ADD PUSH1 0x40 MLOAD DUP1 SWAP2 SUB SWAP1 REVERT JUMPDEST PUSH1 0xE SLOAD DUP4 PUSH2 0xC5B PUSH2 0xE4F JUMP JUMPDEST PUSH2 0xC65 SWAP2 SWAP1 PUSH2 0x3D05 JUMP JUMPDEST GT ISZERO PUSH2 0xC9D JUMPI PUSH1 0x40 MLOAD PUSH32 0x76592C6F00000000000000000000000000000000000000000000000000000000 DUP2 MSTORE PUSH1 0x4 ADD PUSH1 0x40 MLOAD DUP1 SWAP2 SUB SWAP1 REVERT JUMPDEST CALLVALUE DUP4 PUSH1 0xF SLOAD PUSH2 0xCAC SWAP2 SWAP1 PUSH2 0x3D5B JUMP JUMPDEST EQ PUSH2 0xCE3 JUMPI PUSH1 0x40 MLOAD PUSH32 0xB457F15800000000000000000000000000000000000000000000000000000000 DUP2 MSTORE PUSH1 0x4 ADD PUSH1 0x40 MLOAD DUP1 SWAP2 SUB SWAP1 REVERT JUMPDEST PUSH1 0xD SLOAD DUP4 PUSH1 0x15 PUSH1 0x0 CALLER PUSH20 0xFFFFFFFFFFFFFFFFFFFFFFFFFFFFFFFFFFFFFFFF AND PUSH20 0xFFFFFFFFFFFFFFFFFFFFFFFFFFFFFFFFFFFFFFFF AND DUP2 MSTORE PUSH1 0x20 ADD SWAP1 DUP2 MSTORE PUSH1 0x20 ADD PUSH1 0x0 KECCAK256 SLOAD PUSH2 0xD31 SWAP2 SWAP1 PUSH2 0x3D05 JUMP JUMPDEST GT ISZERO PUSH2 0xD69 JUMPI PUSH1 0x40 MLOAD PUSH32 0x38D8B70C00000000000000000000000000000000000000000000000000000000 DUP2 MSTORE PUSH1 0x4 ADD PUSH1 0x40 MLOAD DUP1 SWAP2 SUB SWAP1 REVERT JUMPDEST DUP3 PUSH1 0x15 PUSH1 0x0 CALLER PUSH20 0xFFFFFFFFFFFFFFFFFFFFFFFFFFFFFFFFFFFFFFFF AND PUSH20 0xFFFFFFFFFFFFFFFFFFFFFFFFFFFFFFFFFFFFFFFF AND DUP2 MSTORE PUSH1 0x20 ADD SWAP1 DUP2 MSTORE PUSH1 0x20 ADD PUSH1 0x0 KECCAK256 PUSH1 0x0 DUP3 DUP3 SLOAD PUSH2 0xDB8 SWAP2 SWAP1 PUSH2 0x3D05 JUMP JUMPDEST SWAP3 POP POP DUP2 SWAP1 SSTORE POP PUSH2 0xDC9 CALLER DUP5 PUSH2 0x23E4 JUMP JUMPDEST POP POP POP JUMP JUMPDEST PUSH2 0xDD6 PUSH2 0x25A1 JUMP JUMPDEST PUSH1 0xE SLOAD DUP2 PUSH2 0xDE2 PUSH2 0xE4F JUMP JUMPDEST PUSH2 0xDEC SWAP2 SWAP1 PUSH2 0x3D05 JUMP JUMPDEST GT ISZERO PUSH2 0xE24 JUMPI PUSH1 0x40 MLOAD PUSH32 0x76592C6F00000000000000000000000000000000000000000000000000000000 DUP2 MSTORE PUSH1 0x4 ADD PUSH1 0x40 MLOAD DUP1 SWAP2 SUB SWAP1 REVERT JUMPDEST PUSH2 0xE2E CALLER DUP3 PUSH2 0x23E4 JUMP JUMPDEST POP JUMP JUMPDEST PUSH1 0x15 PUSH1 0x20 MSTORE DUP1 PUSH1 0x0 MSTORE PUSH1 0x40 PUSH1 0x0 KECCAK256 PUSH1 0x0 SWAP2 POP SWAP1 POP SLOAD DUP2 JUMP JUMPDEST PUSH1 0x13 SLOAD DUP2 JUMP JUMPDEST PUSH1 0x0 PUSH2 0xE59 PUSH2 0x261F JUMP JUMPDEST PUSH1 0x1 SLOAD PUSH1 0x0 SLOAD SUB SUB SWAP1 POP SWAP1 JUMP JUMPDEST PUSH1 0x60 PUSH1 0x0 DUP5 SWAP1 POP PUSH1 0x0 DUP5 DUP5 PUSH2 0xE7B SWAP2 SWAP1 PUSH2 0x3DB5 JUMP JUMPDEST PUSH8 0xFFFFFFFFFFFFFFFF DUP2 GT ISZERO PUSH2 0xE94 JUMPI PUSH2 0xE93 PUSH2 0x370D JUMP JUMPDEST JUMPDEST PUSH1 0x40 MLOAD SWAP1 DUP1 DUP3 MSTORE DUP1 PUSH1 0x1F ADD PUSH1 0x1F NOT AND PUSH1 0x20 ADD DUP3 ADD PUSH1 0x40 MSTORE DUP1 ISZERO PUSH2 0xEC6 JUMPI DUP2 PUSH1 0x20 ADD PUSH1 0x1 DUP3 MUL DUP1 CALLDATASIZE DUP4 CALLDATACOPY DUP1 DUP3 ADD SWAP2 POP POP SWAP1 POP JUMPDEST POP SWAP1 POP PUSH1 0x0 DUP6 SWAP1 POP JUMPDEST DUP5 DUP2 LT ISZERO PUSH2 0xF55 JUMPI DUP3 DUP2 DUP2 MLOAD DUP2 LT PUSH2 0xEEA JUMPI PUSH2 0xEE9 PUSH2 0x3DE9 JUMP JUMPDEST JUMPDEST PUSH1 0x20 ADD ADD MLOAD PUSH1 0xF8 SHR PUSH1 0xF8 SHL DUP3 DUP8 DUP4 PUSH2 0xF02 SWAP2 SWAP1 PUSH2 0x3DB5 JUMP JUMPDEST DUP2 MLOAD DUP2 LT PUSH2 0xF13 JUMPI PUSH2 0xF12 PUSH2 0x3DE9 JUMP JUMPDEST JUMPDEST PUSH1 0x20 ADD ADD SWAP1 PUSH31 0xFFFFFFFFFFFFFFFFFFFFFFFFFFFFFFFFFFFFFFFFFFFFFFFFFFFFFFFFFFFFFF NOT AND SWAP1 DUP2 PUSH1 0x0 BYTE SWAP1 MSTORE8 POP DUP1 DUP1 PUSH2 0xF4D SWAP1 PUSH2 0x3E18 JUMP JUMPDEST SWAP2 POP POP PUSH2 0xECF JUMP JUMPDEST POP DUP1 SWAP3 POP POP POP SWAP4 SWAP3 POP POP POP JUMP JUMPDEST DUP3 PUSH1 0x0 PUSH14 0xAAEB6D7670E522A718067333CD4E PUSH20 0xFFFFFFFFFFFFFFFFFFFFFFFFFFFFFFFFFFFFFFFF AND EXTCODESIZE GT ISZERO PUSH2 0x1151 JUMPI CALLER PUSH20 0xFFFFFFFFFFFFFFFFFFFFFFFFFFFFFFFFFFFFFFFF AND DUP2 PUSH20 0xFFFFFFFFFFFFFFFFFFFFFFFFFFFFFFFFFFFFFFFF AND EQ ISZERO PUSH2 0xFD5 JUMPI PUSH2 0xFD0 DUP5 DUP5 DUP5 PUSH2 0x2624 JUMP JUMPDEST PUSH2 0x115D JUMP JUMPDEST PUSH14 0xAAEB6D7670E522A718067333CD4E PUSH20 0xFFFFFFFFFFFFFFFFFFFFFFFFFFFFFFFFFFFFFFFF AND PUSH4 0xC6171134 ADDRESS CALLER PUSH1 0x40 MLOAD DUP4 PUSH4 0xFFFFFFFF AND PUSH1 0xE0 SHL DUP2 MSTORE PUSH1 0x4 ADD PUSH2 0x101E SWAP3 SWAP2 SWAP1 PUSH2 0x3E61 JUMP JUMPDEST PUSH1 0x20 PUSH1 0x40 MLOAD DUP1 DUP4 SUB DUP2 DUP7 DUP1 EXTCODESIZE ISZERO DUP1 ISZERO PUSH2 0x1036 JUMPI PUSH1 0x0 DUP1 REVERT JUMPDEST POP GAS STATICCALL ISZERO DUP1 ISZERO PUSH2 0x104A JUMPI RETURNDATASIZE PUSH1 0x0 DUP1 RETURNDATACOPY RETURNDATASIZE PUSH1 0x0 REVERT JUMPDEST POP POP POP POP PUSH1 0x40 MLOAD RETURNDATASIZE PUSH1 0x1F NOT PUSH1 0x1F DUP3 ADD AND DUP3 ADD DUP1 PUSH1 0x40 MSTORE POP DUP2 ADD SWAP1 PUSH2 0x106E SWAP2 SWAP1 PUSH2 0x3E9F JUMP JUMPDEST DUP1 ISZERO PUSH2 0x110F JUMPI POP PUSH14 0xAAEB6D7670E522A718067333CD4E PUSH20 0xFFFFFFFFFFFFFFFFFFFFFFFFFFFFFFFFFFFFFFFF AND PUSH4 0xC6171134 ADDRESS DUP4 PUSH1 0x40 MLOAD DUP4 PUSH4 0xFFFFFFFF AND PUSH1 0xE0 SHL DUP2 MSTORE PUSH1 0x4 ADD PUSH2 0x10BE SWAP3 SWAP2 SWAP1 PUSH2 0x3E61 JUMP JUMPDEST PUSH1 0x20 PUSH1 0x40 MLOAD DUP1 DUP4 SUB DUP2 DUP7 DUP1 EXTCODESIZE ISZERO DUP1 ISZERO PUSH2 0x10D6 JUMPI PUSH1 0x0 DUP1 REVERT JUMPDEST POP GAS STATICCALL ISZERO DUP1 ISZERO PUSH2 0x10EA JUMPI RETURNDATASIZE PUSH1 0x0 DUP1 RETURNDATACOPY RETURNDATASIZE PUSH1 0x0 REVERT JUMPDEST POP POP POP POP PUSH1 0x40 MLOAD RETURNDATASIZE PUSH1 0x1F NOT PUSH1 0x1F DUP3 ADD AND DUP3 ADD DUP1 PUSH1 0x40 MSTORE POP DUP2 ADD SWAP1 PUSH2 0x110E SWAP2 SWAP1 PUSH2 0x3E9F JUMP JUMPDEST JUMPDEST PUSH2 0x1150 JUMPI CALLER PUSH1 0x40 MLOAD PUSH32 0xEDE71DCC00000000000000000000000000000000000000000000000000000000 DUP2 MSTORE PUSH1 0x4 ADD PUSH2 0x1147 SWAP2 SWAP1 PUSH2 0x3565 JUMP JUMPDEST PUSH1 0x40 MLOAD DUP1 SWAP2 SUB SWAP1 REVERT JUMPDEST JUMPDEST PUSH2 0x115C DUP5 DUP5 DUP5 PUSH2 0x2624 JUMP JUMPDEST JUMPDEST POP POP POP POP JUMP JUMPDEST PUSH1 0x0 DUP1 PUSH1 0x0 PUSH1 0xA PUSH1 0x0 DUP7 DUP2 MSTORE PUSH1 0x20 ADD SWAP1 DUP2 MSTORE PUSH1 0x20 ADD PUSH1 0x0 KECCAK256 PUSH1 0x40 MLOAD DUP1 PUSH1 0x40 ADD PUSH1 0x40 MSTORE SWAP1 DUP2 PUSH1 0x0 DUP3 ADD PUSH1 0x0 SWAP1 SLOAD SWAP1 PUSH2 0x100 EXP SWAP1 DIV PUSH20 0xFFFFFFFFFFFFFFFFFFFFFFFFFFFFFFFFFFFFFFFF AND PUSH20 0xFFFFFFFFFFFFFFFFFFFFFFFFFFFFFFFFFFFFFFFF AND PUSH20 0xFFFFFFFFFFFFFFFFFFFFFFFFFFFFFFFFFFFFFFFF AND DUP2 MSTORE PUSH1 0x20 ADD PUSH1 0x0 DUP3 ADD PUSH1 0x14 SWAP1 SLOAD SWAP1 PUSH2 0x100 EXP SWAP1 DIV PUSH12 0xFFFFFFFFFFFFFFFFFFFFFFFF AND PUSH12 0xFFFFFFFFFFFFFFFFFFFFFFFF AND PUSH12 0xFFFFFFFFFFFFFFFFFFFFFFFF AND DUP2 MSTORE POP POP SWAP1 POP PUSH1 0x0 PUSH20 0xFFFFFFFFFFFFFFFFFFFFFFFFFFFFFFFFFFFFFFFF AND DUP2 PUSH1 0x0 ADD MLOAD PUSH20 0xFFFFFFFFFFFFFFFFFFFFFFFFFFFFFFFFFFFFFFFF AND EQ ISZERO PUSH2 0x12F9 JUMPI PUSH1 0x9 PUSH1 0x40 MLOAD DUP1 PUSH1 0x40 ADD PUSH1 0x40 MSTORE SWAP1 DUP2 PUSH1 0x0 DUP3 ADD PUSH1 0x0 SWAP1 SLOAD SWAP1 PUSH2 0x100 EXP SWAP1 DIV PUSH20 0xFFFFFFFFFFFFFFFFFFFFFFFFFFFFFFFFFFFFFFFF AND PUSH20 0xFFFFFFFFFFFFFFFFFFFFFFFFFFFFFFFFFFFFFFFF AND PUSH20 0xFFFFFFFFFFFFFFFFFFFFFFFFFFFFFFFFFFFFFFFF AND DUP2 MSTORE PUSH1 0x20 ADD PUSH1 0x0 DUP3 ADD PUSH1 0x14 SWAP1 SLOAD SWAP1 PUSH2 0x100 EXP SWAP1 DIV PUSH12 0xFFFFFFFFFFFFFFFFFFFFFFFF AND PUSH12 0xFFFFFFFFFFFFFFFFFFFFFFFF AND PUSH12 0xFFFFFFFFFFFFFFFFFFFFFFFF AND DUP2 MSTORE POP POP SWAP1 POP JUMPDEST PUSH1 0x0 PUSH2 0x1303 PUSH2 0x2949 JUMP JUMPDEST PUSH12 0xFFFFFFFFFFFFFFFFFFFFFFFF AND DUP3 PUSH1 0x20 ADD MLOAD PUSH12 0xFFFFFFFFFFFFFFFFFFFFFFFF AND DUP7 PUSH2 0x132F SWAP2 SWAP1 PUSH2 0x3D5B JUMP JUMPDEST PUSH2 0x1339 SWAP2 SWAP1 PUSH2 0x3EFB JUMP JUMPDEST SWAP1 POP DUP2 PUSH1 0x0 ADD MLOAD DUP2 SWAP4 POP SWAP4 POP POP POP SWAP3 POP SWAP3 SWAP1 POP JUMP JUMPDEST PUSH1 0xB SLOAD DUP2 JUMP JUMPDEST PUSH2 0x135C PUSH2 0x25A1 JUMP JUMPDEST PUSH2 0x1364 PUSH2 0x18CB JUMP JUMPDEST PUSH20 0xFFFFFFFFFFFFFFFFFFFFFFFFFFFFFFFFFFFFFFFF AND PUSH2 0x8FC SELFBALANCE SWAP1 DUP2 ISZERO MUL SWAP1 PUSH1 0x40 MLOAD PUSH1 0x0 PUSH1 0x40 MLOAD DUP1 DUP4 SUB DUP2 DUP6 DUP9 DUP9 CALL SWAP4 POP POP POP POP ISZERO DUP1 ISZERO PUSH2 0x13A9 JUMPI RETURNDATASIZE PUSH1 0x0 DUP1 RETURNDATACOPY RETURNDATASIZE PUSH1 0x0 REVERT JUMPDEST POP JUMP JUMPDEST DUP3 PUSH1 0x0 PUSH14 0xAAEB6D7670E522A718067333CD4E PUSH20 0xFFFFFFFFFFFFFFFFFFFFFFFFFFFFFFFFFFFFFFFF AND EXTCODESIZE GT ISZERO PUSH2 0x159B JUMPI CALLER PUSH20 0xFFFFFFFFFFFFFFFFFFFFFFFFFFFFFFFFFFFFFFFF AND DUP2 PUSH20 0xFFFFFFFFFFFFFFFFFFFFFFFFFFFFFFFFFFFFFFFF AND EQ ISZERO PUSH2 0x141F JUMPI PUSH2 0x141A DUP5 DUP5 DUP5 PUSH2 0x2953 JUMP JUMPDEST PUSH2 0x15A7 JUMP JUMPDEST PUSH14 0xAAEB6D7670E522A718067333CD4E PUSH20 0xFFFFFFFFFFFFFFFFFFFFFFFFFFFFFFFFFFFFFFFF AND PUSH4 0xC6171134 ADDRESS CALLER PUSH1 0x40 MLOAD DUP4 PUSH4 0xFFFFFFFF AND PUSH1 0xE0 SHL DUP2 MSTORE PUSH1 0x4 ADD PUSH2 0x1468 SWAP3 SWAP2 SWAP1 PUSH2 0x3E61 JUMP JUMPDEST PUSH1 0x20 PUSH1 0x40 MLOAD DUP1 DUP4 SUB DUP2 DUP7 DUP1 EXTCODESIZE ISZERO DUP1 ISZERO PUSH2 0x1480 JUMPI PUSH1 0x0 DUP1 REVERT JUMPDEST POP GAS STATICCALL ISZERO DUP1 ISZERO PUSH2 0x1494 JUMPI RETURNDATASIZE PUSH1 0x0 DUP1 RETURNDATACOPY RETURNDATASIZE PUSH1 0x0 REVERT JUMPDEST POP POP POP POP PUSH1 0x40 MLOAD RETURNDATASIZE PUSH1 0x1F NOT PUSH1 0x1F DUP3 ADD AND DUP3 ADD DUP1 PUSH1 0x40 MSTORE POP DUP2 ADD SWAP1 PUSH2 0x14B8 SWAP2 SWAP1 PUSH2 0x3E9F JUMP JUMPDEST DUP1 ISZERO PUSH2 0x1559 JUMPI POP PUSH14 0xAAEB6D7670E522A718067333CD4E PUSH20 0xFFFFFFFFFFFFFFFFFFFFFFFFFFFFFFFFFFFFFFFF AND PUSH4 0xC6171134 ADDRESS DUP4 PUSH1 0x40 MLOAD DUP4 PUSH4 0xFFFFFFFF AND PUSH1 0xE0 SHL DUP2 MSTORE PUSH1 0x4 ADD PUSH2 0x1508 SWAP3 SWAP2 SWAP1 PUSH2 0x3E61 JUMP JUMPDEST PUSH1 0x20 PUSH1 0x40 MLOAD DUP1 DUP4 SUB DUP2 DUP7 DUP1 EXTCODESIZE ISZERO DUP1 ISZERO PUSH2 0x1520 JUMPI PUSH1 0x0 DUP1 REVERT JUMPDEST POP GAS STATICCALL ISZERO DUP1 ISZERO PUSH2 0x1534 JUMPI RETURNDATASIZE PUSH1 0x0 DUP1 RETURNDATACOPY RETURNDATASIZE PUSH1 0x0 REVERT JUMPDEST POP POP POP POP PUSH1 0x40 MLOAD RETURNDATASIZE PUSH1 0x1F NOT PUSH1 0x1F DUP3 ADD AND DUP3 ADD DUP1 PUSH1 0x40 MSTORE POP DUP2 ADD SWAP1 PUSH2 0x1558 SWAP2 SWAP1 PUSH2 0x3E9F JUMP JUMPDEST JUMPDEST PUSH2 0x159A JUMPI CALLER PUSH1 0x40 MLOAD PUSH32 0xEDE71DCC00000000000000000000000000000000000000000000000000000000 DUP2 MSTORE PUSH1 0x4 ADD PUSH2 0x1591 SWAP2 SWAP1 PUSH2 0x3565 JUMP JUMPDEST PUSH1 0x40 MLOAD DUP1 SWAP2 SUB SWAP1 REVERT JUMPDEST JUMPDEST PUSH2 0x15A6 DUP5 DUP5 DUP5 PUSH2 0x2953 JUMP JUMPDEST JUMPDEST POP POP POP POP JUMP JUMPDEST PUSH1 0x14 PUSH1 0x1 SWAP1 SLOAD SWAP1 PUSH2 0x100 EXP SWAP1 DIV PUSH1 0xFF AND DUP2 JUMP JUMPDEST PUSH2 0x15C8 PUSH2 0x25A1 JUMP JUMPDEST PUSH1 0x1 DUP2 MLOAD GT PUSH2 0x160C JUMPI PUSH1 0x40 MLOAD PUSH32 0x8C379A000000000000000000000000000000000000000000000000000000000 DUP2 MSTORE PUSH1 0x4 ADD PUSH2 0x1603 SWAP1 PUSH2 0x3F78 JUMP JUMPDEST PUSH1 0x40 MLOAD DUP1 SWAP2 SUB SWAP1 REVERT JUMPDEST PUSH1 0x0 PUSH2 0x1617 DUP3 PUSH2 0x2973 JUMP JUMPDEST SWAP1 POP PUSH1 0x0 PUSH2 0x1632 DUP4 PUSH1 0x1 DUP5 PUSH2 0x162C SWAP2 SWAP1 PUSH2 0x3DB5 JUMP JUMPDEST DUP5 PUSH2 0xE66 JUMP JUMPDEST SWAP1 POP PUSH2 0x1673 DUP2 PUSH1 0x40 MLOAD DUP1 PUSH1 0x40 ADD PUSH1 0x40 MSTORE DUP1 PUSH1 0x1 DUP2 MSTORE PUSH1 0x20 ADD PUSH32 0x2F00000000000000000000000000000000000000000000000000000000000000 DUP2 MSTORE POP PUSH2 0x2B28 JUMP JUMPDEST PUSH2 0x16B2 JUMPI PUSH1 0x40 MLOAD PUSH32 0x8C379A000000000000000000000000000000000000000000000000000000000 DUP2 MSTORE PUSH1 0x4 ADD PUSH2 0x16A9 SWAP1 PUSH2 0x400A JUMP JUMPDEST PUSH1 0x40 MLOAD DUP1 SWAP2 SUB SWAP1 REVERT JUMPDEST PUSH1 0x14 PUSH1 0x1 SWAP1 SLOAD SWAP1 PUSH2 0x100 EXP SWAP1 DIV PUSH1 0xFF AND ISZERO PUSH2 0x1702 JUMPI PUSH1 0x40 MLOAD PUSH32 0x8C379A000000000000000000000000000000000000000000000000000000000 DUP2 MSTORE PUSH1 0x4 ADD PUSH2 0x16F9 SWAP1 PUSH2 0x4076 JUMP JUMPDEST PUSH1 0x40 MLOAD DUP1 SWAP2 SUB SWAP1 REVERT JUMPDEST PUSH1 0x1 PUSH1 0x14 PUSH1 0x1 PUSH2 0x100 EXP DUP2 SLOAD DUP2 PUSH1 0xFF MUL NOT AND SWAP1 DUP4 ISZERO ISZERO MUL OR SWAP1 SSTORE POP DUP3 PUSH1 0x11 SWAP1 DUP1 MLOAD SWAP1 PUSH1 0x20 ADD SWAP1 PUSH2 0x1733 SWAP3 SWAP2 SWAP1 PUSH2 0x3294 JUMP JUMPDEST POP POP POP POP JUMP JUMPDEST PUSH1 0x14 PUSH1 0x0 SWAP1 SLOAD SWAP1 PUSH2 0x100 EXP SWAP1 DIV PUSH1 0xFF AND DUP2 JUMP JUMPDEST PUSH1 0x0 PUSH2 0x1757 DUP3 PUSH2 0x2B81 JUMP JUMPDEST SWAP1 POP SWAP2 SWAP1 POP JUMP JUMPDEST PUSH1 0x11 DUP1 SLOAD PUSH2 0x176B SWAP1 PUSH2 0x3C38 JUMP JUMPDEST DUP1 PUSH1 0x1F ADD PUSH1 0x20 DUP1 SWAP2 DIV MUL PUSH1 0x20 ADD PUSH1 0x40 MLOAD SWAP1 DUP2 ADD PUSH1 0x40 MSTORE DUP1 SWAP3 SWAP2 SWAP1 DUP2 DUP2 MSTORE PUSH1 0x20 ADD DUP3 DUP1 SLOAD PUSH2 0x1797 SWAP1 PUSH2 0x3C38 JUMP JUMPDEST DUP1 ISZERO PUSH2 0x17E4 JUMPI DUP1 PUSH1 0x1F LT PUSH2 0x17B9 JUMPI PUSH2 0x100 DUP1 DUP4 SLOAD DIV MUL DUP4 MSTORE SWAP2 PUSH1 0x20 ADD SWAP2 PUSH2 0x17E4 JUMP JUMPDEST DUP3 ADD SWAP2 SWAP1 PUSH1 0x0 MSTORE PUSH1 0x20 PUSH1 0x0 KECCAK256 SWAP1 JUMPDEST DUP2 SLOAD DUP2 MSTORE SWAP1 PUSH1 0x1 ADD SWAP1 PUSH1 0x20 ADD DUP1 DUP4 GT PUSH2 0x17C7 JUMPI DUP3 SWAP1 SUB PUSH1 0x1F AND DUP3 ADD SWAP2 JUMPDEST POP POP POP POP POP DUP2 JUMP JUMPDEST PUSH1 0x0 DUP1 PUSH20 0xFFFFFFFFFFFFFFFFFFFFFFFFFFFFFFFFFFFFFFFF AND DUP3 PUSH20 0xFFFFFFFFFFFFFFFFFFFFFFFFFFFFFFFFFFFFFFFF AND EQ ISZERO PUSH2 0x1854 JUMPI PUSH1 0x40 MLOAD PUSH32 0x8F4EB60400000000000000000000000000000000000000000000000000000000 DUP2 MSTORE PUSH1 0x4 ADD PUSH1 0x40 MLOAD DUP1 SWAP2 SUB SWAP1 REVERT JUMPDEST PUSH8 0xFFFFFFFFFFFFFFFF PUSH1 0x5 PUSH1 0x0 DUP5 PUSH20 0xFFFFFFFFFFFFFFFFFFFFFFFFFFFFFFFFFFFFFFFF AND PUSH20 0xFFFFFFFFFFFFFFFFFFFFFFFFFFFFFFFFFFFFFFFF AND DUP2 MSTORE PUSH1 0x20 ADD SWAP1 DUP2 MSTORE PUSH1 0x20 ADD PUSH1 0x0 KECCAK256 SLOAD AND SWAP1 POP SWAP2 SWAP1 POP JUMP JUMPDEST PUSH2 0x18AD PUSH2 0x25A1 JUMP JUMPDEST PUSH2 0x18B7 PUSH1 0x0 PUSH2 0x2C4F JUMP JUMPDEST JUMP JUMPDEST PUSH2 0x18C1 PUSH2 0x25A1 JUMP JUMPDEST DUP1 PUSH1 0xB DUP2 SWAP1 SSTORE POP POP JUMP JUMPDEST PUSH1 0x0 PUSH1 0x8 PUSH1 0x0 SWAP1 SLOAD SWAP1 PUSH2 0x100 EXP SWAP1 DIV PUSH20 0xFFFFFFFFFFFFFFFFFFFFFFFFFFFFFFFFFFFFFFFF AND SWAP1 POP SWAP1 JUMP JUMPDEST PUSH1 0x12 DUP1 SLOAD PUSH2 0x1902 SWAP1 PUSH2 0x3C38 JUMP JUMPDEST DUP1 PUSH1 0x1F ADD PUSH1 0x20 DUP1 SWAP2 DIV MUL PUSH1 0x20 ADD PUSH1 0x40 MLOAD SWAP1 DUP2 ADD PUSH1 0x40 MSTORE DUP1 SWAP3 SWAP2 SWAP1 DUP2 DUP2 MSTORE PUSH1 0x20 ADD DUP3 DUP1 SLOAD PUSH2 0x192E SWAP1 PUSH2 0x3C38 JUMP JUMPDEST DUP1 ISZERO PUSH2 0x197B JUMPI DUP1 PUSH1 0x1F LT PUSH2 0x1950 JUMPI PUSH2 0x100 DUP1 DUP4 SLOAD DIV MUL DUP4 MSTORE SWAP2 PUSH1 0x20 ADD SWAP2 PUSH2 0x197B JUMP JUMPDEST DUP3 ADD SWAP2 SWAP1 PUSH1 0x0 MSTORE PUSH1 0x20 PUSH1 0x0 KECCAK256 SWAP1 JUMPDEST DUP2 SLOAD DUP2 MSTORE SWAP1 PUSH1 0x1 ADD SWAP1 PUSH1 0x20 ADD DUP1 DUP4 GT PUSH2 0x195E JUMPI DUP3 SWAP1 SUB PUSH1 0x1F AND DUP3 ADD SWAP2 JUMPDEST POP POP POP POP POP DUP2 JUMP JUMPDEST PUSH2 0x198B PUSH2 0x25A1 JUMP JUMPDEST DUP1 PUSH1 0x13 DUP2 SWAP1 SSTORE POP POP JUMP JUMPDEST PUSH1 0x60 PUSH1 0x3 DUP1 SLOAD PUSH2 0x19A4 SWAP1 PUSH2 0x3C38 JUMP JUMPDEST DUP1 PUSH1 0x1F ADD PUSH1 0x20 DUP1 SWAP2 DIV MUL PUSH1 0x20 ADD PUSH1 0x40 MLOAD SWAP1 DUP2 ADD PUSH1 0x40 MSTORE DUP1 SWAP3 SWAP2 SWAP1 DUP2 DUP2 MSTORE PUSH1 0x20 ADD DUP3 DUP1 SLOAD PUSH2 0x19D0 SWAP1 PUSH2 0x3C38 JUMP JUMPDEST DUP1 ISZERO PUSH2 0x1A1D JUMPI DUP1 PUSH1 0x1F LT PUSH2 0x19F2 JUMPI PUSH2 0x100 DUP1 DUP4 SLOAD DIV MUL DUP4 MSTORE SWAP2 PUSH1 0x20 ADD SWAP2 PUSH2 0x1A1D JUMP JUMPDEST DUP3 ADD SWAP2 SWAP1 PUSH1 0x0 MSTORE PUSH1 0x20 PUSH1 0x0 KECCAK256 SWAP1 JUMPDEST DUP2 SLOAD DUP2 MSTORE SWAP1 PUSH1 0x1 ADD SWAP1 PUSH1 0x20 ADD DUP1 DUP4 GT PUSH2 0x1A00 JUMPI DUP3 SWAP1 SUB PUSH1 0x1F AND DUP3 ADD SWAP2 JUMPDEST POP POP POP POP POP SWAP1 POP SWAP1 JUMP JUMPDEST PUSH1 0x14 PUSH1 0x0 SWAP1 SLOAD SWAP1 PUSH2 0x100 EXP SWAP1 DIV PUSH1 0xFF AND ISZERO PUSH2 0x1A77 JUMPI PUSH1 0x40 MLOAD PUSH32 0x8C379A000000000000000000000000000000000000000000000000000000000 DUP2 MSTORE PUSH1 0x4 ADD PUSH2 0x1A6E SWAP1 PUSH2 0x3CB6 JUMP JUMPDEST PUSH1 0x40 MLOAD DUP1 SWAP2 SUB SWAP1 REVERT JUMPDEST PUSH1 0x2 PUSH1 0x13 SLOAD EQ PUSH2 0x1AB3 JUMPI PUSH1 0x40 MLOAD PUSH32 0xA9F4F87100000000000000000000000000000000000000000000000000000000 DUP2 MSTORE PUSH1 0x4 ADD PUSH1 0x40 MLOAD DUP1 SWAP2 SUB SWAP1 REVERT JUMPDEST PUSH1 0xE SLOAD DUP2 PUSH2 0x1ABF PUSH2 0xE4F JUMP JUMPDEST PUSH2 0x1AC9 SWAP2 SWAP1 PUSH2 0x3D05 JUMP JUMPDEST GT ISZERO PUSH2 0x1B01 JUMPI PUSH1 0x40 MLOAD PUSH32 0x76592C6F00000000000000000000000000000000000000000000000000000000 DUP2 MSTORE PUSH1 0x4 ADD PUSH1 0x40 MLOAD DUP1 SWAP2 SUB SWAP1 REVERT JUMPDEST CALLVALUE DUP2 PUSH1 0xF SLOAD PUSH2 0x1B10 SWAP2 SWAP1 PUSH2 0x3D5B JUMP JUMPDEST EQ PUSH2 0x1B47 JUMPI PUSH1 0x40 MLOAD PUSH32 0xB457F15800000000000000000000000000000000000000000000000000000000 DUP2 MSTORE PUSH1 0x4 ADD PUSH1 0x40 MLOAD DUP1 SWAP2 SUB SWAP1 REVERT JUMPDEST PUSH1 0xC SLOAD PUSH1 0x16 PUSH1 0x0 CALLER PUSH20 0xFFFFFFFFFFFFFFFFFFFFFFFFFFFFFFFFFFFFFFFF AND PUSH20 0xFFFFFFFFFFFFFFFFFFFFFFFFFFFFFFFFFFFFFFFF AND DUP2 MSTORE PUSH1 0x20 ADD SWAP1 DUP2 MSTORE PUSH1 0x20 ADD PUSH1 0x0 KECCAK256 SLOAD DUP3 PUSH2 0x1B95 SWAP2 SWAP1 PUSH2 0x3D05 JUMP JUMPDEST GT ISZERO PUSH2 0x1BCD JUMPI PUSH1 0x40 MLOAD PUSH32 0x38D8B70C00000000000000000000000000000000000000000000000000000000 DUP2 MSTORE PUSH1 0x4 ADD PUSH1 0x40 MLOAD DUP1 SWAP2 SUB SWAP1 REVERT JUMPDEST DUP1 PUSH1 0x16 PUSH1 0x0 CALLER PUSH20 0xFFFFFFFFFFFFFFFFFFFFFFFFFFFFFFFFFFFFFFFF AND PUSH20 0xFFFFFFFFFFFFFFFFFFFFFFFFFFFFFFFFFFFFFFFF AND DUP2 MSTORE PUSH1 0x20 ADD SWAP1 DUP2 MSTORE PUSH1 0x20 ADD PUSH1 0x0 KECCAK256 PUSH1 0x0 DUP3 DUP3 SLOAD PUSH2 0x1C1C SWAP2 SWAP1 PUSH2 0x3D05 JUMP JUMPDEST SWAP3 POP POP DUP2 SWAP1 SSTORE POP PUSH2 0x1C2D CALLER DUP3 PUSH2 0x23E4 JUMP JUMPDEST POP JUMP JUMPDEST DUP1 PUSH1 0x7 PUSH1 0x0 PUSH2 0x1C3D PUSH2 0x237E JUMP JUMPDEST PUSH20 0xFFFFFFFFFFFFFFFFFFFFFFFFFFFFFFFFFFFFFFFF AND PUSH20 0xFFFFFFFFFFFFFFFFFFFFFFFFFFFFFFFFFFFFFFFF AND DUP2 MSTORE PUSH1 0x20 ADD SWAP1 DUP2 MSTORE PUSH1 0x20 ADD PUSH1 0x0 KECCAK256 PUSH1 0x0 DUP5 PUSH20 0xFFFFFFFFFFFFFFFFFFFFFFFFFFFFFFFFFFFFFFFF AND PUSH20 0xFFFFFFFFFFFFFFFFFFFFFFFFFFFFFFFFFFFFFFFF AND DUP2 MSTORE PUSH1 0x20 ADD SWAP1 DUP2 MSTORE PUSH1 0x20 ADD PUSH1 0x0 KECCAK256 PUSH1 0x0 PUSH2 0x100 EXP DUP2 SLOAD DUP2 PUSH1 0xFF MUL NOT AND SWAP1 DUP4 ISZERO ISZERO MUL OR SWAP1 SSTORE POP DUP2 PUSH20 0xFFFFFFFFFFFFFFFFFFFFFFFFFFFFFFFFFFFFFFFF AND PUSH2 0x1CEA PUSH2 0x237E JUMP JUMPDEST PUSH20 0xFFFFFFFFFFFFFFFFFFFFFFFFFFFFFFFFFFFFFFFF AND PUSH32 0x17307EAB39AB6107E8899845AD3D59BD9653F200F220920489CA2B5937696C31 DUP4 PUSH1 0x40 MLOAD PUSH2 0x1D2F SWAP2 SWAP1 PUSH2 0x33EB JUMP JUMPDEST PUSH1 0x40 MLOAD DUP1 SWAP2 SUB SWAP1 LOG3 POP POP JUMP JUMPDEST PUSH1 0x16 PUSH1 0x20 MSTORE DUP1 PUSH1 0x0 MSTORE PUSH1 0x40 PUSH1 0x0 KECCAK256 PUSH1 0x0 SWAP2 POP SWAP1 POP SLOAD DUP2 JUMP JUMPDEST PUSH1 0xC SLOAD DUP2 JUMP JUMPDEST DUP4 PUSH1 0x0 PUSH14 0xAAEB6D7670E522A718067333CD4E PUSH20 0xFFFFFFFFFFFFFFFFFFFFFFFFFFFFFFFFFFFFFFFF AND EXTCODESIZE GT ISZERO PUSH2 0x1F49 JUMPI CALLER PUSH20 0xFFFFFFFFFFFFFFFFFFFFFFFFFFFFFFFFFFFFFFFF AND DUP2 PUSH20 0xFFFFFFFFFFFFFFFFFFFFFFFFFFFFFFFFFFFFFFFF AND EQ ISZERO PUSH2 0x1DCD JUMPI PUSH2 0x1DC8 DUP6 DUP6 DUP6 DUP6 PUSH2 0x2D15 JUMP JUMPDEST PUSH2 0x1F56 JUMP JUMPDEST PUSH14 0xAAEB6D7670E522A718067333CD4E PUSH20 0xFFFFFFFFFFFFFFFFFFFFFFFFFFFFFFFFFFFFFFFF AND PUSH4 0xC6171134 ADDRESS CALLER PUSH1 0x40 MLOAD DUP4 PUSH4 0xFFFFFFFF AND PUSH1 0xE0 SHL DUP2 MSTORE PUSH1 0x4 ADD PUSH2 0x1E16 SWAP3 SWAP2 SWAP1 PUSH2 0x3E61 JUMP JUMPDEST PUSH1 0x20 PUSH1 0x40 MLOAD DUP1 DUP4 SUB DUP2 DUP7 DUP1 EXTCODESIZE ISZERO DUP1 ISZERO PUSH2 0x1E2E JUMPI PUSH1 0x0 DUP1 REVERT JUMPDEST POP GAS STATICCALL ISZERO DUP1 ISZERO PUSH2 0x1E42 JUMPI RETURNDATASIZE PUSH1 0x0 DUP1 RETURNDATACOPY RETURNDATASIZE PUSH1 0x0 REVERT JUMPDEST POP POP POP POP PUSH1 0x40 MLOAD RETURNDATASIZE PUSH1 0x1F NOT PUSH1 0x1F DUP3 ADD AND DUP3 ADD DUP1 PUSH1 0x40 MSTORE POP DUP2 ADD SWAP1 PUSH2 0x1E66 SWAP2 SWAP1 PUSH2 0x3E9F JUMP JUMPDEST DUP1 ISZERO PUSH2 0x1F07 JUMPI POP PUSH14 0xAAEB6D7670E522A718067333CD4E PUSH20 0xFFFFFFFFFFFFFFFFFFFFFFFFFFFFFFFFFFFFFFFF AND PUSH4 0xC6171134 ADDRESS DUP4 PUSH1 0x40 MLOAD DUP4 PUSH4 0xFFFFFFFF AND PUSH1 0xE0 SHL DUP2 MSTORE PUSH1 0x4 ADD PUSH2 0x1EB6 SWAP3 SWAP2 SWAP1 PUSH2 0x3E61 JUMP JUMPDEST PUSH1 0x20 PUSH1 0x40 MLOAD DUP1 DUP4 SUB DUP2 DUP7 DUP1 EXTCODESIZE ISZERO DUP1 ISZERO PUSH2 0x1ECE JUMPI PUSH1 0x0 DUP1 REVERT JUMPDEST POP GAS STATICCALL ISZERO DUP1 ISZERO PUSH2 0x1EE2 JUMPI RETURNDATASIZE PUSH1 0x0 DUP1 RETURNDATACOPY RETURNDATASIZE PUSH1 0x0 REVERT JUMPDEST POP POP POP POP PUSH1 0x40 MLOAD RETURNDATASIZE PUSH1 0x1F NOT PUSH1 0x1F DUP3 ADD AND DUP3 ADD DUP1 PUSH1 0x40 MSTORE POP DUP2 ADD SWAP1 PUSH2 0x1F06 SWAP2 SWAP1 PUSH2 0x3E9F JUMP JUMPDEST JUMPDEST PUSH2 0x1F48 JUMPI CALLER PUSH1 0x40 MLOAD PUSH32 0xEDE71DCC00000000000000000000000000000000000000000000000000000000 DUP2 MSTORE PUSH1 0x4 ADD PUSH2 0x1F3F SWAP2 SWAP1 PUSH2 0x3565 JUMP JUMPDEST PUSH1 0x40 MLOAD DUP1 SWAP2 SUB SWAP1 REVERT JUMPDEST JUMPDEST PUSH2 0x1F55 DUP6 DUP6 DUP6 DUP6 PUSH2 0x2D15 JUMP JUMPDEST JUMPDEST POP POP POP POP POP JUMP JUMPDEST PUSH1 0x10 DUP1 SLOAD PUSH2 0x1F6A SWAP1 PUSH2 0x3C38 JUMP JUMPDEST DUP1 PUSH1 0x1F ADD PUSH1 0x20 DUP1 SWAP2 DIV MUL PUSH1 0x20 ADD PUSH1 0x40 MLOAD SWAP1 DUP2 ADD PUSH1 0x40 MSTORE DUP1 SWAP3 SWAP2 SWAP1 DUP2 DUP2 MSTORE PUSH1 0x20 ADD DUP3 DUP1 SLOAD PUSH2 0x1F96 SWAP1 PUSH2 0x3C38 JUMP JUMPDEST DUP1 ISZERO PUSH2 0x1FE3 JUMPI DUP1 PUSH1 0x1F LT PUSH2 0x1FB8 JUMPI PUSH2 0x100 DUP1 DUP4 SLOAD DIV MUL DUP4 MSTORE SWAP2 PUSH1 0x20 ADD SWAP2 PUSH2 0x1FE3 JUMP JUMPDEST DUP3 ADD SWAP2 SWAP1 PUSH1 0x0 MSTORE PUSH1 0x20 PUSH1 0x0 KECCAK256 SWAP1 JUMPDEST DUP2 SLOAD DUP2 MSTORE SWAP1 PUSH1 0x1 ADD SWAP1 PUSH1 0x20 ADD DUP1 DUP4 GT PUSH2 0x1FC6 JUMPI DUP3 SWAP1 SUB PUSH1 0x1F AND DUP3 ADD SWAP2 JUMPDEST POP POP POP POP POP DUP2 JUMP JUMPDEST PUSH1 0x60 PUSH2 0x1FF6 DUP3 PUSH2 0x231F JUMP JUMPDEST PUSH2 0x2035 JUMPI PUSH1 0x40 MLOAD PUSH32 0x8C379A000000000000000000000000000000000000000000000000000000000 DUP2 MSTORE PUSH1 0x4 ADD PUSH2 0x202C SWAP1 PUSH2 0x40E2 JUMP JUMPDEST PUSH1 0x40 MLOAD DUP1 SWAP2 SUB SWAP1 REVERT JUMPDEST PUSH1 0x14 PUSH1 0x1 SWAP1 SLOAD SWAP1 PUSH2 0x100 EXP SWAP1 DIV PUSH1 0xFF AND ISZERO PUSH2 0x207F JUMPI PUSH1 0x11 PUSH2 0x2055 DUP4 PUSH2 0x2D88 JUMP JUMPDEST PUSH1 0x10 PUSH1 0x40 MLOAD PUSH1 0x20 ADD PUSH2 0x2069 SWAP4 SWAP3 SWAP2 SWAP1 PUSH2 0x41D2 JUMP JUMPDEST PUSH1 0x40 MLOAD PUSH1 0x20 DUP2 DUP4 SUB SUB DUP2 MSTORE SWAP1 PUSH1 0x40 MSTORE SWAP1 POP PUSH2 0x20B0 JUMP JUMPDEST PUSH1 0x12 PUSH2 0x208A DUP4 PUSH2 0x2D88 JUMP JUMPDEST PUSH1 0x10 PUSH1 0x40 MLOAD PUSH1 0x20 ADD PUSH2 0x209E SWAP4 SWAP3 SWAP2 SWAP1 PUSH2 0x41D2 JUMP JUMPDEST PUSH1 0x40 MLOAD PUSH1 0x20 DUP2 DUP4 SUB SUB DUP2 MSTORE SWAP1 PUSH1 0x40 MSTORE SWAP1 POP JUMPDEST SWAP2 SWAP1 POP JUMP JUMPDEST PUSH1 0xF SLOAD DUP2 JUMP JUMPDEST PUSH1 0xE SLOAD DUP2 JUMP JUMPDEST PUSH1 0x0 PUSH1 0x7 PUSH1 0x0 DUP5 PUSH20 0xFFFFFFFFFFFFFFFFFFFFFFFFFFFFFFFFFFFFFFFF AND PUSH20 0xFFFFFFFFFFFFFFFFFFFFFFFFFFFFFFFFFFFFFFFF AND DUP2 MSTORE PUSH1 0x20 ADD SWAP1 DUP2 MSTORE PUSH1 0x20 ADD PUSH1 0x0 KECCAK256 PUSH1 0x0 DUP4 PUSH20 0xFFFFFFFFFFFFFFFFFFFFFFFFFFFFFFFFFFFFFFFF AND PUSH20 0xFFFFFFFFFFFFFFFFFFFFFFFFFFFFFFFFFFFFFFFF AND DUP2 MSTORE PUSH1 0x20 ADD SWAP1 DUP2 MSTORE PUSH1 0x20 ADD PUSH1 0x0 KECCAK256 PUSH1 0x0 SWAP1 SLOAD SWAP1 PUSH2 0x100 EXP SWAP1 DIV PUSH1 0xFF AND SWAP1 POP SWAP3 SWAP2 POP POP JUMP JUMPDEST PUSH1 0xD SLOAD DUP2 JUMP JUMPDEST PUSH2 0x2163 PUSH2 0x25A1 JUMP JUMPDEST PUSH1 0x14 PUSH1 0x0 SWAP1 SLOAD SWAP1 PUSH2 0x100 EXP SWAP1 DIV PUSH1 0xFF AND ISZERO PUSH1 0x14 PUSH1 0x0 PUSH2 0x100 EXP DUP2 SLOAD DUP2 PUSH1 0xFF MUL NOT AND SWAP1 DUP4 ISZERO ISZERO MUL OR SWAP1 SSTORE POP JUMP JUMPDEST PUSH2 0x2197 PUSH2 0x25A1 JUMP JUMPDEST PUSH1 0x0 PUSH20 0xFFFFFFFFFFFFFFFFFFFFFFFFFFFFFFFFFFFFFFFF AND DUP2 PUSH20 0xFFFFFFFFFFFFFFFFFFFFFFFFFFFFFFFFFFFFFFFF AND EQ ISZERO PUSH2 0x2207 JUMPI PUSH1 0x40 MLOAD PUSH32 0x8C379A000000000000000000000000000000000000000000000000000000000 DUP2 MSTORE PUSH1 0x4 ADD PUSH2 0x21FE SWAP1 PUSH2 0x4275 JUMP JUMPDEST PUSH1 0x40 MLOAD DUP1 SWAP2 SUB SWAP1 REVERT JUMPDEST PUSH2 0x2210 DUP2 PUSH2 0x2C4F JUMP JUMPDEST POP JUMP JUMPDEST PUSH1 0x0 PUSH4 0x1FFC9A7 PUSH1 0xE0 SHL DUP3 PUSH28 0xFFFFFFFFFFFFFFFFFFFFFFFFFFFFFFFFFFFFFFFFFFFFFFFFFFFFFFFF NOT AND EQ DUP1 PUSH2 0x226E JUMPI POP PUSH4 0x80AC58CD PUSH1 0xE0 SHL DUP3 PUSH28 0xFFFFFFFFFFFFFFFFFFFFFFFFFFFFFFFFFFFFFFFFFFFFFFFFFFFFFFFF NOT AND EQ JUMPDEST DUP1 PUSH2 0x229E JUMPI POP PUSH4 0x5B5E139F PUSH1 0xE0 SHL DUP3 PUSH28 0xFFFFFFFFFFFFFFFFFFFFFFFFFFFFFFFFFFFFFFFFFFFFFFFFFFFFFFFF NOT AND EQ JUMPDEST SWAP1 POP SWAP2 SWAP1 POP JUMP JUMPDEST PUSH1 0x0 PUSH32 0x2A55205A00000000000000000000000000000000000000000000000000000000 PUSH28 0xFFFFFFFFFFFFFFFFFFFFFFFFFFFFFFFFFFFFFFFFFFFFFFFFFFFFFFFF NOT AND DUP3 PUSH28 0xFFFFFFFFFFFFFFFFFFFFFFFFFFFFFFFFFFFFFFFFFFFFFFFFFFFFFFFF NOT AND EQ DUP1 PUSH2 0x2318 JUMPI POP PUSH2 0x2317 DUP3 PUSH2 0x2EE9 JUMP JUMPDEST JUMPDEST SWAP1 POP SWAP2 SWAP1 POP JUMP JUMPDEST PUSH1 0x0 DUP2 PUSH2 0x232A PUSH2 0x261F JUMP JUMPDEST GT ISZERO DUP1 ISZERO PUSH2 0x2339 JUMPI POP PUSH1 0x0 SLOAD DUP3 LT JUMPDEST DUP1 ISZERO PUSH2 0x2377 JUMPI POP PUSH1 0x0 PUSH29 0x100000000000000000000000000000000000000000000000000000000 PUSH1 0x4 PUSH1 0x0 DUP6 DUP2 MSTORE PUSH1 0x20 ADD SWAP1 DUP2 MSTORE PUSH1 0x20 ADD PUSH1 0x0 KECCAK256 SLOAD AND EQ JUMPDEST SWAP1 POP SWAP2 SWAP1 POP JUMP JUMPDEST PUSH1 0x0 CALLER SWAP1 POP SWAP1 JUMP JUMPDEST PUSH1 0x0 PUSH2 0x23DB PUSH2 0x2394 DUP6 PUSH2 0x2F53 JUMP JUMPDEST DUP5 DUP5 DUP1 DUP1 PUSH1 0x20 MUL PUSH1 0x20 ADD PUSH1 0x40 MLOAD SWAP1 DUP2 ADD PUSH1 0x40 MSTORE DUP1 SWAP4 SWAP3 SWAP2 SWAP1 DUP2 DUP2 MSTORE PUSH1 0x20 ADD DUP4 DUP4 PUSH1 0x20 MUL DUP1 DUP3 DUP5 CALLDATACOPY PUSH1 0x0 DUP2 DUP5 ADD MSTORE PUSH1 0x1F NOT PUSH1 0x1F DUP3 ADD AND SWAP1 POP DUP1 DUP4 ADD SWAP3 POP POP POP POP POP POP POP PUSH2 0x2F83 JUMP JUMPDEST SWAP1 POP SWAP4 SWAP3 POP POP POP JUMP JUMPDEST PUSH1 0x0 DUP1 SLOAD SWAP1 POP PUSH1 0x0 DUP3 EQ ISZERO PUSH2 0x2425 JUMPI PUSH1 0x40 MLOAD PUSH32 0xB562E8DD00000000000000000000000000000000000000000000000000000000 DUP2 MSTORE PUSH1 0x4 ADD PUSH1 0x40 MLOAD DUP1 SWAP2 SUB SWAP1 REVERT JUMPDEST PUSH2 0x2432 PUSH1 0x0 DUP5 DUP4 DUP6 PUSH2 0x2F9A JUMP JUMPDEST PUSH1 0x1 PUSH1 0x40 PUSH1 0x1 SWAP1 SHL OR DUP3 MUL PUSH1 0x5 PUSH1 0x0 DUP6 PUSH20 0xFFFFFFFFFFFFFFFFFFFFFFFFFFFFFFFFFFFFFFFF AND PUSH20 0xFFFFFFFFFFFFFFFFFFFFFFFFFFFFFFFFFFFFFFFF AND DUP2 MSTORE PUSH1 0x20 ADD SWAP1 DUP2 MSTORE PUSH1 0x20 ADD PUSH1 0x0 KECCAK256 PUSH1 0x0 DUP3 DUP3 SLOAD ADD SWAP3 POP POP DUP2 SWAP1 SSTORE POP PUSH2 0x24A9 DUP4 PUSH2 0x249A PUSH1 0x0 DUP7 PUSH1 0x0 PUSH2 0x2FA0 JUMP JUMPDEST PUSH2 0x24A3 DUP6 PUSH2 0x2FC8 JUMP JUMPDEST OR PUSH2 0x2FD8 JUMP JUMPDEST PUSH1 0x4 PUSH1 0x0 DUP4 DUP2 MSTORE PUSH1 0x20 ADD SWAP1 DUP2 MSTORE PUSH1 0x20 ADD PUSH1 0x0 KECCAK256 DUP2 SWAP1 SSTORE POP PUSH1 0x0 DUP1 DUP4 DUP4 ADD SWAP1 POP PUSH20 0xFFFFFFFFFFFFFFFFFFFFFFFFFFFFFFFFFFFFFFFF DUP6 AND SWAP2 POP DUP3 DUP3 PUSH1 0x0 PUSH32 0xDDF252AD1BE2C89B69C2B068FC378DAA952BA7F163C4A11628F55A4DF523B3EF PUSH1 0x0 DUP1 LOG4 PUSH1 0x1 DUP4 ADD JUMPDEST DUP2 DUP2 EQ PUSH2 0x254A JUMPI DUP1 DUP4 PUSH1 0x0 PUSH32 0xDDF252AD1BE2C89B69C2B068FC378DAA952BA7F163C4A11628F55A4DF523B3EF PUSH1 0x0 DUP1 LOG4 PUSH1 0x1 DUP2 ADD SWAP1 POP PUSH2 0x250F JUMP JUMPDEST POP PUSH1 0x0 DUP3 EQ ISZERO PUSH2 0x2586 JUMPI PUSH1 0x40 MLOAD PUSH32 0x2E07630000000000000000000000000000000000000000000000000000000000 DUP2 MSTORE PUSH1 0x4 ADD PUSH1 0x40 MLOAD DUP1 SWAP2 SUB SWAP1 REVERT JUMPDEST DUP1 PUSH1 0x0 DUP2 SWAP1 SSTORE POP POP POP PUSH2 0x259C PUSH1 0x0 DUP5 DUP4 DUP6 PUSH2 0x3003 JUMP JUMPDEST POP POP POP JUMP JUMPDEST PUSH2 0x25A9 PUSH2 0x3009 JUMP JUMPDEST PUSH20 0xFFFFFFFFFFFFFFFFFFFFFFFFFFFFFFFFFFFFFFFF AND PUSH2 0x25C7 PUSH2 0x18CB JUMP JUMPDEST PUSH20 0xFFFFFFFFFFFFFFFFFFFFFFFFFFFFFFFFFFFFFFFF AND EQ PUSH2 0x261D JUMPI PUSH1 0x40 MLOAD PUSH32 0x8C379A000000000000000000000000000000000000000000000000000000000 DUP2 MSTORE PUSH1 0x4 ADD PUSH2 0x2614 SWAP1 PUSH2 0x42E1 JUMP JUMPDEST PUSH1 0x40 MLOAD DUP1 SWAP2 SUB SWAP1 REVERT JUMPDEST JUMP JUMPDEST PUSH1 0x0 SWAP1 JUMP JUMPDEST PUSH1 0x0 PUSH2 0x262F DUP3 PUSH2 0x2B81 JUMP JUMPDEST SWAP1 POP DUP4 PUSH20 0xFFFFFFFFFFFFFFFFFFFFFFFFFFFFFFFFFFFFFFFF AND DUP2 PUSH20 0xFFFFFFFFFFFFFFFFFFFFFFFFFFFFFFFFFFFFFFFF AND EQ PUSH2 0x2696 JUMPI PUSH1 0x40 MLOAD PUSH32 0xA114810000000000000000000000000000000000000000000000000000000000 DUP2 MSTORE PUSH1 0x4 ADD PUSH1 0x40 MLOAD DUP1 SWAP2 SUB SWAP1 REVERT JUMPDEST PUSH1 0x0 DUP1 PUSH2 0x26A2 DUP5 PUSH2 0x3011 JUMP JUMPDEST SWAP2 POP SWAP2 POP PUSH2 0x26B8 DUP2 DUP8 PUSH2 0x26B3 PUSH2 0x237E JUMP JUMPDEST PUSH2 0x3038 JUMP JUMPDEST PUSH2 0x2704 JUMPI PUSH2 0x26CD DUP7 PUSH2 0x26C8 PUSH2 0x237E JUMP JUMPDEST PUSH2 0x20C1 JUMP JUMPDEST PUSH2 0x2703 JUMPI PUSH1 0x40 MLOAD PUSH32 0x59C896BE00000000000000000000000000000000000000000000000000000000 DUP2 MSTORE PUSH1 0x4 ADD PUSH1 0x40 MLOAD DUP1 SWAP2 SUB SWAP1 REVERT JUMPDEST JUMPDEST PUSH1 0x0 PUSH20 0xFFFFFFFFFFFFFFFFFFFFFFFFFFFFFFFFFFFFFFFF AND DUP6 PUSH20 0xFFFFFFFFFFFFFFFFFFFFFFFFFFFFFFFFFFFFFFFF AND EQ ISZERO PUSH2 0x276B JUMPI PUSH1 0x40 MLOAD PUSH32 0xEA553B3400000000000000000000000000000000000000000000000000000000 DUP2 MSTORE PUSH1 0x4 ADD PUSH1 0x40 MLOAD DUP1 SWAP2 SUB SWAP1 REVERT JUMPDEST PUSH2 0x2778 DUP7 DUP7 DUP7 PUSH1 0x1 PUSH2 0x2F9A JUMP JUMPDEST DUP1 ISZERO PUSH2 0x2783 JUMPI PUSH1 0x0 DUP3 SSTORE JUMPDEST PUSH1 0x5 PUSH1 0x0 DUP8 PUSH20 0xFFFFFFFFFFFFFFFFFFFFFFFFFFFFFFFFFFFFFFFF AND PUSH20 0xFFFFFFFFFFFFFFFFFFFFFFFFFFFFFFFFFFFFFFFF AND DUP2 MSTORE PUSH1 0x20 ADD SWAP1 DUP2 MSTORE PUSH1 0x20 ADD PUSH1 0x0 KECCAK256 PUSH1 0x0 DUP2 SLOAD PUSH1 0x1 SWAP1 SUB SWAP2 SWAP1 POP DUP2 SWAP1 SSTORE POP PUSH1 0x5 PUSH1 0x0 DUP7 PUSH20 0xFFFFFFFFFFFFFFFFFFFFFFFFFFFFFFFFFFFFFFFF AND PUSH20 0xFFFFFFFFFFFFFFFFFFFFFFFFFFFFFFFFFFFFFFFF AND DUP2 MSTORE PUSH1 0x20 ADD SWAP1 DUP2 MSTORE PUSH1 0x20 ADD PUSH1 0x0 KECCAK256 PUSH1 0x0 DUP2 SLOAD PUSH1 0x1 ADD SWAP2 SWAP1 POP DUP2 SWAP1 SSTORE POP PUSH2 0x2851 DUP6 PUSH2 0x282D DUP9 DUP9 DUP8 PUSH2 0x2FA0 JUMP JUMPDEST PUSH29 0x200000000000000000000000000000000000000000000000000000000 OR PUSH2 0x2FD8 JUMP JUMPDEST PUSH1 0x4 PUSH1 0x0 DUP7 DUP2 MSTORE PUSH1 0x20 ADD SWAP1 DUP2 MSTORE PUSH1 0x20 ADD PUSH1 0x0 KECCAK256 DUP2 SWAP1 SSTORE POP PUSH1 0x0 PUSH29 0x200000000000000000000000000000000000000000000000000000000 DUP5 AND EQ ISZERO PUSH2 0x28D9 JUMPI PUSH1 0x0 PUSH1 0x1 DUP6 ADD SWAP1 POP PUSH1 0x0 PUSH1 0x4 PUSH1 0x0 DUP4 DUP2 MSTORE PUSH1 0x20 ADD SWAP1 DUP2 MSTORE PUSH1 0x20 ADD PUSH1 0x0 KECCAK256 SLOAD EQ ISZERO PUSH2 0x28D7 JUMPI PUSH1 0x0 SLOAD DUP2 EQ PUSH2 0x28D6 JUMPI DUP4 PUSH1 0x4 PUSH1 0x0 DUP4 DUP2 MSTORE PUSH1 0x20 ADD SWAP1 DUP2 MSTORE PUSH1 0x20 ADD PUSH1 0x0 KECCAK256 DUP2 SWAP1 SSTORE POP JUMPDEST JUMPDEST POP JUMPDEST DUP4 DUP6 PUSH20 0xFFFFFFFFFFFFFFFFFFFFFFFFFFFFFFFFFFFFFFFF AND DUP8 PUSH20 0xFFFFFFFFFFFFFFFFFFFFFFFFFFFFFFFFFFFFFFFF AND PUSH32 0xDDF252AD1BE2C89B69C2B068FC378DAA952BA7F163C4A11628F55A4DF523B3EF PUSH1 0x40 MLOAD PUSH1 0x40 MLOAD DUP1 SWAP2 SUB SWAP1 LOG4 PUSH2 0x2941 DUP7 DUP7 DUP7 PUSH1 0x1 PUSH2 0x3003 JUMP JUMPDEST POP POP POP POP POP POP JUMP JUMPDEST PUSH1 0x0 PUSH2 0x2710 SWAP1 POP SWAP1 JUMP JUMPDEST PUSH2 0x296E DUP4 DUP4 DUP4 PUSH1 0x40 MLOAD DUP1 PUSH1 0x20 ADD PUSH1 0x40 MSTORE DUP1 PUSH1 0x0 DUP2 MSTORE POP PUSH2 0x1D59 JUMP JUMPDEST POP POP POP JUMP JUMPDEST PUSH1 0x0 DUP1 PUSH1 0x0 DUP1 DUP5 MLOAD SWAP1 POP PUSH1 0x0 SWAP3 POP JUMPDEST DUP1 DUP3 LT ISZERO PUSH2 0x2B1D JUMPI PUSH1 0x0 DUP6 DUP4 DUP2 MLOAD DUP2 LT PUSH2 0x299F JUMPI PUSH2 0x299E PUSH2 0x3DE9 JUMP JUMPDEST JUMPDEST PUSH1 0x20 ADD ADD MLOAD PUSH1 0xF8 SHR PUSH1 0xF8 SHL SWAP1 POP PUSH1 0x80 PUSH1 0xF8 SHL DUP2 PUSH31 0xFFFFFFFFFFFFFFFFFFFFFFFFFFFFFFFFFFFFFFFFFFFFFFFFFFFFFFFFFFFFFF NOT AND LT ISZERO PUSH2 0x29EE JUMPI PUSH1 0x1 DUP4 PUSH2 0x29E7 SWAP2 SWAP1 PUSH2 0x3D05 JUMP JUMPDEST SWAP3 POP PUSH2 0x2B09 JUMP JUMPDEST PUSH1 0xE0 PUSH1 0xF8 SHL DUP2 PUSH31 0xFFFFFFFFFFFFFFFFFFFFFFFFFFFFFFFFFFFFFFFFFFFFFFFFFFFFFFFFFFFFFF NOT AND LT ISZERO PUSH2 0x2A30 JUMPI PUSH1 0x2 DUP4 PUSH2 0x2A29 SWAP2 SWAP1 PUSH2 0x3D05 JUMP JUMPDEST SWAP3 POP PUSH2 0x2B08 JUMP JUMPDEST PUSH1 0xF0 PUSH1 0xF8 SHL DUP2 PUSH31 0xFFFFFFFFFFFFFFFFFFFFFFFFFFFFFFFFFFFFFFFFFFFFFFFFFFFFFFFFFFFFFF NOT AND LT ISZERO PUSH2 0x2A72 JUMPI PUSH1 0x3 DUP4 PUSH2 0x2A6B SWAP2 SWAP1 PUSH2 0x3D05 JUMP JUMPDEST SWAP3 POP PUSH2 0x2B07 JUMP JUMPDEST PUSH1 0xF8 DUP1 SHL DUP2 PUSH31 0xFFFFFFFFFFFFFFFFFFFFFFFFFFFFFFFFFFFFFFFFFFFFFFFFFFFFFFFFFFFFFF NOT AND LT ISZERO PUSH2 0x2AB3 JUMPI PUSH1 0x4 DUP4 PUSH2 0x2AAC SWAP2 SWAP1 PUSH2 0x3D05 JUMP JUMPDEST SWAP3 POP PUSH2 0x2B06 JUMP JUMPDEST PUSH1 0xFC PUSH1 0xF8 SHL DUP2 PUSH31 0xFFFFFFFFFFFFFFFFFFFFFFFFFFFFFFFFFFFFFFFFFFFFFFFFFFFFFFFFFFFFFF NOT AND LT ISZERO PUSH2 0x2AF5 JUMPI PUSH1 0x5 DUP4 PUSH2 0x2AEE SWAP2 SWAP1 PUSH2 0x3D05 JUMP JUMPDEST SWAP3 POP PUSH2 0x2B05 JUMP JUMPDEST PUSH1 0x6 DUP4 PUSH2 0x2B02 SWAP2 SWAP1 PUSH2 0x3D05 JUMP JUMPDEST SWAP3 POP JUMPDEST JUMPDEST JUMPDEST JUMPDEST JUMPDEST POP DUP3 DUP1 PUSH2 0x2B15 SWAP1 PUSH2 0x3E18 JUMP JUMPDEST SWAP4 POP POP PUSH2 0x2982 JUMP JUMPDEST DUP3 SWAP4 POP POP POP POP SWAP2 SWAP1 POP JUMP JUMPDEST PUSH1 0x0 DUP2 PUSH1 0x40 MLOAD PUSH1 0x20 ADD PUSH2 0x2B3B SWAP2 SWAP1 PUSH2 0x4301 JUMP JUMPDEST PUSH1 0x40 MLOAD PUSH1 0x20 DUP2 DUP4 SUB SUB DUP2 MSTORE SWAP1 PUSH1 0x40 MSTORE DUP1 MLOAD SWAP1 PUSH1 0x20 ADD KECCAK256 DUP4 PUSH1 0x40 MLOAD PUSH1 0x20 ADD PUSH2 0x2B62 SWAP2 SWAP1 PUSH2 0x4301 JUMP JUMPDEST PUSH1 0x40 MLOAD PUSH1 0x20 DUP2 DUP4 SUB SUB DUP2 MSTORE SWAP1 PUSH1 0x40 MSTORE DUP1 MLOAD SWAP1 PUSH1 0x20 ADD KECCAK256 EQ SWAP1 POP SWAP3 SWAP2 POP POP JUMP JUMPDEST PUSH1 0x0 DUP1 DUP3 SWAP1 POP DUP1 PUSH2 0x2B90 PUSH2 0x261F JUMP JUMPDEST GT PUSH2 0x2C18 JUMPI PUSH1 0x0 SLOAD DUP2 LT ISZERO PUSH2 0x2C17 JUMPI PUSH1 0x0 PUSH1 0x4 PUSH1 0x0 DUP4 DUP2 MSTORE PUSH1 0x20 ADD SWAP1 DUP2 MSTORE PUSH1 0x20 ADD PUSH1 0x0 KECCAK256 SLOAD SWAP1 POP PUSH1 0x0 PUSH29 0x100000000000000000000000000000000000000000000000000000000 DUP3 AND EQ ISZERO PUSH2 0x2C15 JUMPI JUMPDEST PUSH1 0x0 DUP2 EQ ISZERO PUSH2 0x2C0B JUMPI PUSH1 0x4 PUSH1 0x0 DUP4 PUSH1 0x1 SWAP1 SUB SWAP4 POP DUP4 DUP2 MSTORE PUSH1 0x20 ADD SWAP1 DUP2 MSTORE PUSH1 0x20 ADD PUSH1 0x0 KECCAK256 SLOAD SWAP1 POP PUSH2 0x2BE0 JUMP JUMPDEST DUP1 SWAP3 POP POP POP PUSH2 0x2C4A JUMP JUMPDEST POP JUMPDEST JUMPDEST PUSH1 0x40 MLOAD PUSH32 0xDF2D9B4200000000000000000000000000000000000000000000000000000000 DUP2 MSTORE PUSH1 0x4 ADD PUSH1 0x40 MLOAD DUP1 SWAP2 SUB SWAP1 REVERT JUMPDEST SWAP2 SWAP1 POP JUMP JUMPDEST PUSH1 0x0 PUSH1 0x8 PUSH1 0x0 SWAP1 SLOAD SWAP1 PUSH2 0x100 EXP SWAP1 DIV PUSH20 0xFFFFFFFFFFFFFFFFFFFFFFFFFFFFFFFFFFFFFFFF AND SWAP1 POP DUP2 PUSH1 0x8 PUSH1 0x0 PUSH2 0x100 EXP DUP2 SLOAD DUP2 PUSH20 0xFFFFFFFFFFFFFFFFFFFFFFFFFFFFFFFFFFFFFFFF MUL NOT AND SWAP1 DUP4 PUSH20 0xFFFFFFFFFFFFFFFFFFFFFFFFFFFFFFFFFFFFFFFF AND MUL OR SWAP1 SSTORE POP DUP2 PUSH20 0xFFFFFFFFFFFFFFFFFFFFFFFFFFFFFFFFFFFFFFFF AND DUP2 PUSH20 0xFFFFFFFFFFFFFFFFFFFFFFFFFFFFFFFFFFFFFFFF AND PUSH32 0x8BE0079C531659141344CD1FD0A4F28419497F9722A3DAAFE3B4186F6B6457E0 PUSH1 0x40 MLOAD PUSH1 0x40 MLOAD DUP1 SWAP2 SUB SWAP1 LOG3 POP POP JUMP JUMPDEST PUSH2 0x2D20 DUP5 DUP5 DUP5 PUSH2 0xF62 JUMP JUMPDEST PUSH1 0x0 DUP4 PUSH20 0xFFFFFFFFFFFFFFFFFFFFFFFFFFFFFFFFFFFFFFFF AND EXTCODESIZE EQ PUSH2 0x2D82 JUMPI PUSH2 0x2D4B DUP5 DUP5 DUP5 DUP5 PUSH2 0x307C JUMP JUMPDEST PUSH2 0x2D81 JUMPI PUSH1 0x40 MLOAD PUSH32 0xD1A57ED600000000000000000000000000000000000000000000000000000000 DUP2 MSTORE PUSH1 0x4 ADD PUSH1 0x40 MLOAD DUP1 SWAP2 SUB SWAP1 REVERT JUMPDEST JUMPDEST POP POP POP POP JUMP JUMPDEST PUSH1 0x60 PUSH1 0x0 DUP3 EQ ISZERO PUSH2 0x2DD0 JUMPI PUSH1 0x40 MLOAD DUP1 PUSH1 0x40 ADD PUSH1 0x40 MSTORE DUP1 PUSH1 0x1 DUP2 MSTORE PUSH1 0x20 ADD PUSH32 0x3000000000000000000000000000000000000000000000000000000000000000 DUP2 MSTORE POP SWAP1 POP PUSH2 0x2EE4 JUMP JUMPDEST PUSH1 0x0 DUP3 SWAP1 POP PUSH1 0x0 JUMPDEST PUSH1 0x0 DUP3 EQ PUSH2 0x2E02 JUMPI DUP1 DUP1 PUSH2 0x2DEB SWAP1 PUSH2 0x3E18 JUMP JUMPDEST SWAP2 POP POP PUSH1 0xA DUP3 PUSH2 0x2DFB SWAP2 SWAP1 PUSH2 0x3EFB JUMP JUMPDEST SWAP2 POP PUSH2 0x2DD8 JUMP JUMPDEST PUSH1 0x0 DUP2 PUSH8 0xFFFFFFFFFFFFFFFF DUP2 GT ISZERO PUSH2 0x2E1E JUMPI PUSH2 0x2E1D PUSH2 0x370D JUMP JUMPDEST JUMPDEST PUSH1 0x40 MLOAD SWAP1 DUP1 DUP3 MSTORE DUP1 PUSH1 0x1F ADD PUSH1 0x1F NOT AND PUSH1 0x20 ADD DUP3 ADD PUSH1 0x40 MSTORE DUP1 ISZERO PUSH2 0x2E50 JUMPI DUP2 PUSH1 0x20 ADD PUSH1 0x1 DUP3 MUL DUP1 CALLDATASIZE DUP4 CALLDATACOPY DUP1 DUP3 ADD SWAP2 POP POP SWAP1 POP JUMPDEST POP SWAP1 POP JUMPDEST PUSH1 0x0 DUP6 EQ PUSH2 0x2EDD JUMPI PUSH1 0x1 DUP3 PUSH2 0x2E69 SWAP2 SWAP1 PUSH2 0x3DB5 JUMP JUMPDEST SWAP2 POP PUSH1 0xA DUP6 PUSH2 0x2E78 SWAP2 SWAP1 PUSH2 0x4318 JUMP JUMPDEST PUSH1 0x30 PUSH2 0x2E84 SWAP2 SWAP1 PUSH2 0x3D05 JUMP JUMPDEST PUSH1 0xF8 SHL DUP2 DUP4 DUP2 MLOAD DUP2 LT PUSH2 0x2E9A JUMPI PUSH2 0x2E99 PUSH2 0x3DE9 JUMP JUMPDEST JUMPDEST PUSH1 0x20 ADD ADD SWAP1 PUSH31 0xFFFFFFFFFFFFFFFFFFFFFFFFFFFFFFFFFFFFFFFFFFFFFFFFFFFFFFFFFFFFFF NOT AND SWAP1 DUP2 PUSH1 0x0 BYTE SWAP1 MSTORE8 POP PUSH1 0xA DUP6 PUSH2 0x2ED6 SWAP2 SWAP1 PUSH2 0x3EFB JUMP JUMPDEST SWAP5 POP PUSH2 0x2E54 JUMP JUMPDEST DUP1 SWAP4 POP POP POP POP JUMPDEST SWAP2 SWAP1 POP JUMP JUMPDEST PUSH1 0x0 PUSH32 0x1FFC9A700000000000000000000000000000000000000000000000000000000 PUSH28 0xFFFFFFFFFFFFFFFFFFFFFFFFFFFFFFFFFFFFFFFFFFFFFFFFFFFFFFFF NOT AND DUP3 PUSH28 0xFFFFFFFFFFFFFFFFFFFFFFFFFFFFFFFFFFFFFFFFFFFFFFFFFFFFFFFF NOT AND EQ SWAP1 POP SWAP2 SWAP1 POP JUMP JUMPDEST PUSH1 0x0 DUP2 PUSH1 0x40 MLOAD PUSH1 0x20 ADD PUSH2 0x2F66 SWAP2 SWAP1 PUSH2 0x4391 JUMP JUMPDEST PUSH1 0x40 MLOAD PUSH1 0x20 DUP2 DUP4 SUB SUB DUP2 MSTORE SWAP1 PUSH1 0x40 MSTORE DUP1 MLOAD SWAP1 PUSH1 0x20 ADD KECCAK256 SWAP1 POP SWAP2 SWAP1 POP JUMP JUMPDEST PUSH1 0x0 PUSH2 0x2F92 DUP3 PUSH1 0xB SLOAD DUP6 PUSH2 0x31DC JUMP JUMPDEST SWAP1 POP SWAP3 SWAP2 POP POP JUMP JUMPDEST POP POP POP POP JUMP JUMPDEST PUSH1 0x0 DUP1 PUSH1 0xE8 DUP4 SWAP1 SHR SWAP1 POP PUSH1 0xE8 PUSH2 0x2FB7 DUP7 DUP7 DUP5 PUSH2 0x31F3 JUMP JUMPDEST PUSH3 0xFFFFFF AND SWAP1 SHL SWAP2 POP POP SWAP4 SWAP3 POP POP POP JUMP JUMPDEST PUSH1 0x0 PUSH1 0x1 DUP3 EQ PUSH1 0xE1 SHL SWAP1 POP SWAP2 SWAP1 POP JUMP JUMPDEST PUSH1 0x0 PUSH20 0xFFFFFFFFFFFFFFFFFFFFFFFFFFFFFFFFFFFFFFFF DUP4 AND SWAP3 POP DUP2 TIMESTAMP PUSH1 0xA0 SHL OR DUP4 OR SWAP1 POP SWAP3 SWAP2 POP POP JUMP JUMPDEST POP POP POP POP JUMP JUMPDEST PUSH1 0x0 CALLER SWAP1 POP SWAP1 JUMP JUMPDEST PUSH1 0x0 DUP1 PUSH1 0x0 PUSH1 0x6 PUSH1 0x0 DUP6 DUP2 MSTORE PUSH1 0x20 ADD SWAP1 DUP2 MSTORE PUSH1 0x20 ADD PUSH1 0x0 KECCAK256 SWAP1 POP DUP1 SWAP3 POP DUP3 SLOAD SWAP2 POP POP SWAP2 POP SWAP2 JUMP JUMPDEST PUSH1 0x0 PUSH20 0xFFFFFFFFFFFFFFFFFFFFFFFFFFFFFFFFFFFFFFFF DUP4 AND SWAP3 POP PUSH20 0xFFFFFFFFFFFFFFFFFFFFFFFFFFFFFFFFFFFFFFFF DUP3 AND SWAP2 POP DUP4 DUP3 EQ DUP4 DUP4 EQ OR SWAP1 POP SWAP4 SWAP3 POP POP POP JUMP JUMPDEST PUSH1 0x0 DUP4 PUSH20 0xFFFFFFFFFFFFFFFFFFFFFFFFFFFFFFFFFFFFFFFF AND PUSH4 0x150B7A02 PUSH2 0x30A2 PUSH2 0x237E JUMP JUMPDEST DUP8 DUP7 DUP7 PUSH1 0x40 MLOAD DUP6 PUSH4 0xFFFFFFFF AND PUSH1 0xE0 SHL DUP2 MSTORE PUSH1 0x4 ADD PUSH2 0x30C4 SWAP5 SWAP4 SWAP3 SWAP2 SWAP1 PUSH2 0x4401 JUMP JUMPDEST PUSH1 0x20 PUSH1 0x40 MLOAD DUP1 DUP4 SUB DUP2 PUSH1 0x0 DUP8 DUP1 EXTCODESIZE ISZERO DUP1 ISZERO PUSH2 0x30DE JUMPI PUSH1 0x0 DUP1 REVERT JUMPDEST POP GAS CALL SWAP3 POP POP POP DUP1 ISZERO PUSH2 0x310F JUMPI POP PUSH1 0x40 MLOAD RETURNDATASIZE PUSH1 0x1F NOT PUSH1 0x1F DUP3 ADD AND DUP3 ADD DUP1 PUSH1 0x40 MSTORE POP DUP2 ADD SWAP1 PUSH2 0x310C SWAP2 SWAP1 PUSH2 0x4462 JUMP JUMPDEST PUSH1 0x1 JUMPDEST PUSH2 0x3189 JUMPI RETURNDATASIZE DUP1 PUSH1 0x0 DUP2 EQ PUSH2 0x313F JUMPI PUSH1 0x40 MLOAD SWAP2 POP PUSH1 0x1F NOT PUSH1 0x3F RETURNDATASIZE ADD AND DUP3 ADD PUSH1 0x40 MSTORE RETURNDATASIZE DUP3 MSTORE RETURNDATASIZE PUSH1 0x0 PUSH1 0x20 DUP5 ADD RETURNDATACOPY PUSH2 0x3144 JUMP JUMPDEST PUSH1 0x60 SWAP2 POP JUMPDEST POP PUSH1 0x0 DUP2 MLOAD EQ ISZERO PUSH2 0x3181 JUMPI PUSH1 0x40 MLOAD PUSH32 0xD1A57ED600000000000000000000000000000000000000000000000000000000 DUP2 MSTORE PUSH1 0x4 ADD PUSH1 0x40 MLOAD DUP1 SWAP2 SUB SWAP1 REVERT JUMPDEST DUP1 MLOAD DUP2 PUSH1 0x20 ADD REVERT JUMPDEST PUSH4 0x150B7A02 PUSH1 0xE0 SHL PUSH28 0xFFFFFFFFFFFFFFFFFFFFFFFFFFFFFFFFFFFFFFFFFFFFFFFFFFFFFFFF NOT AND DUP2 PUSH28 0xFFFFFFFFFFFFFFFFFFFFFFFFFFFFFFFFFFFFFFFFFFFFFFFFFFFFFFFF NOT AND EQ SWAP2 POP POP SWAP5 SWAP4 POP POP POP POP JUMP JUMPDEST PUSH1 0x0 DUP3 PUSH2 0x31E9 DUP6 DUP5 PUSH2 0x31FC JUMP JUMPDEST EQ SWAP1 POP SWAP4 SWAP3 POP POP POP JUMP JUMPDEST PUSH1 0x0 SWAP4 SWAP3 POP POP POP JUMP JUMPDEST PUSH1 0x0 DUP1 DUP3 SWAP1 POP PUSH1 0x0 JUMPDEST DUP5 MLOAD DUP2 LT ISZERO PUSH2 0x3247 JUMPI PUSH2 0x3232 DUP3 DUP7 DUP4 DUP2 MLOAD DUP2 LT PUSH2 0x3225 JUMPI PUSH2 0x3224 PUSH2 0x3DE9 JUMP JUMPDEST JUMPDEST PUSH1 0x20 MUL PUSH1 0x20 ADD ADD MLOAD PUSH2 0x3252 JUMP JUMPDEST SWAP2 POP DUP1 DUP1 PUSH2 0x323F SWAP1 PUSH2 0x3E18 JUMP JUMPDEST SWAP2 POP POP PUSH2 0x3205 JUMP JUMPDEST POP DUP1 SWAP2 POP POP SWAP3 SWAP2 POP POP JUMP JUMPDEST PUSH1 0x0 DUP2 DUP4 LT PUSH2 0x326A JUMPI PUSH2 0x3265 DUP3 DUP5 PUSH2 0x327D JUMP JUMPDEST PUSH2 0x3275 JUMP JUMPDEST PUSH2 0x3274 DUP4 DUP4 PUSH2 0x327D JUMP JUMPDEST JUMPDEST SWAP1 POP SWAP3 SWAP2 POP POP JUMP JUMPDEST PUSH1 0x0 DUP3 PUSH1 0x0 MSTORE DUP2 PUSH1 0x20 MSTORE PUSH1 0x40 PUSH1 0x0 KECCAK256 SWAP1 POP SWAP3 SWAP2 POP POP JUMP JUMPDEST DUP3 DUP1 SLOAD PUSH2 0x32A0 SWAP1 PUSH2 0x3C38 JUMP JUMPDEST SWAP1 PUSH1 0x0 MSTORE PUSH1 0x20 PUSH1 0x0 KECCAK256 SWAP1 PUSH1 0x1F ADD PUSH1 0x20 SWAP1 DIV DUP2 ADD SWAP3 DUP3 PUSH2 0x32C2 JUMPI PUSH1 0x0 DUP6 SSTORE PUSH2 0x3309 JUMP JUMPDEST DUP3 PUSH1 0x1F LT PUSH2 0x32DB JUMPI DUP1 MLOAD PUSH1 0xFF NOT AND DUP4 DUP1 ADD OR DUP6 SSTORE PUSH2 0x3309 JUMP JUMPDEST DUP3 DUP1 ADD PUSH1 0x1 ADD DUP6 SSTORE DUP3 ISZERO PUSH2 0x3309 JUMPI SWAP2 DUP3 ADD JUMPDEST DUP3 DUP2 GT ISZERO PUSH2 0x3308 JUMPI DUP3 MLOAD DUP3 SSTORE SWAP2 PUSH1 0x20 ADD SWAP2 SWAP1 PUSH1 0x1 ADD SWAP1 PUSH2 0x32ED JUMP JUMPDEST JUMPDEST POP SWAP1 POP PUSH2 0x3316 SWAP2 SWAP1 PUSH2 0x331A JUMP JUMPDEST POP SWAP1 JUMP JUMPDEST JUMPDEST DUP1 DUP3 GT ISZERO PUSH2 0x3333 JUMPI PUSH1 0x0 DUP2 PUSH1 0x0 SWAP1 SSTORE POP PUSH1 0x1 ADD PUSH2 0x331B JUMP JUMPDEST POP SWAP1 JUMP JUMPDEST PUSH1 0x0 PUSH1 0x40 MLOAD SWAP1 POP SWAP1 JUMP JUMPDEST PUSH1 0x0 DUP1 REVERT JUMPDEST PUSH1 0x0 DUP1 REVERT JUMPDEST PUSH1 0x0 PUSH32 0xFFFFFFFF00000000000000000000000000000000000000000000000000000000 DUP3 AND SWAP1 POP SWAP2 SWAP1 POP JUMP JUMPDEST PUSH2 0x3380 DUP2 PUSH2 0x334B JUMP JUMPDEST DUP2 EQ PUSH2 0x338B JUMPI PUSH1 0x0 DUP1 REVERT JUMPDEST POP JUMP JUMPDEST PUSH1 0x0 DUP2 CALLDATALOAD SWAP1 POP PUSH2 0x339D DUP2 PUSH2 0x3377 JUMP JUMPDEST SWAP3 SWAP2 POP POP JUMP JUMPDEST PUSH1 0x0 PUSH1 0x20 DUP3 DUP5 SUB SLT ISZERO PUSH2 0x33B9 JUMPI PUSH2 0x33B8 PUSH2 0x3341 JUMP JUMPDEST JUMPDEST PUSH1 0x0 PUSH2 0x33C7 DUP5 DUP3 DUP6 ADD PUSH2 0x338E JUMP JUMPDEST SWAP2 POP POP SWAP3 SWAP2 POP POP JUMP JUMPDEST PUSH1 0x0 DUP2 ISZERO ISZERO SWAP1 POP SWAP2 SWAP1 POP JUMP JUMPDEST PUSH2 0x33E5 DUP2 PUSH2 0x33D0 JUMP JUMPDEST DUP3 MSTORE POP POP JUMP JUMPDEST PUSH1 0x0 PUSH1 0x20 DUP3 ADD SWAP1 POP PUSH2 0x3400 PUSH1 0x0 DUP4 ADD DUP5 PUSH2 0x33DC JUMP JUMPDEST SWAP3 SWAP2 POP POP JUMP JUMPDEST PUSH1 0x0 DUP2 MLOAD SWAP1 POP SWAP2 SWAP1 POP JUMP JUMPDEST PUSH1 0x0 DUP3 DUP3 MSTORE PUSH1 0x20 DUP3 ADD SWAP1 POP SWAP3 SWAP2 POP POP JUMP JUMPDEST PUSH1 0x0 JUMPDEST DUP4 DUP2 LT ISZERO PUSH2 0x3440 JUMPI DUP1 DUP3 ADD MLOAD DUP2 DUP5 ADD MSTORE PUSH1 0x20 DUP2 ADD SWAP1 POP PUSH2 0x3425 JUMP JUMPDEST DUP4 DUP2 GT ISZERO PUSH2 0x344F JUMPI PUSH1 0x0 DUP5 DUP5 ADD MSTORE JUMPDEST POP POP POP POP JUMP JUMPDEST PUSH1 0x0 PUSH1 0x1F NOT PUSH1 0x1F DUP4 ADD AND SWAP1 POP SWAP2 SWAP1 POP JUMP JUMPDEST PUSH1 0x0 PUSH2 0x3471 DUP3 PUSH2 0x3406 JUMP JUMPDEST PUSH2 0x347B DUP2 DUP6 PUSH2 0x3411 JUMP JUMPDEST SWAP4 POP PUSH2 0x348B DUP2 DUP6 PUSH1 0x20 DUP7 ADD PUSH2 0x3422 JUMP JUMPDEST PUSH2 0x3494 DUP2 PUSH2 0x3455 JUMP JUMPDEST DUP5 ADD SWAP2 POP POP SWAP3 SWAP2 POP POP JUMP JUMPDEST PUSH1 0x0 PUSH1 0x20 DUP3 ADD SWAP1 POP DUP2 DUP2 SUB PUSH1 0x0 DUP4 ADD MSTORE PUSH2 0x34B9 DUP2 DUP5 PUSH2 0x3466 JUMP JUMPDEST SWAP1 POP SWAP3 SWAP2 POP POP JUMP JUMPDEST PUSH1 0x0 DUP2 SWAP1 POP SWAP2 SWAP1 POP JUMP JUMPDEST PUSH2 0x34D4 DUP2 PUSH2 0x34C1 JUMP JUMPDEST DUP2 EQ PUSH2 0x34DF JUMPI PUSH1 0x0 DUP1 REVERT JUMPDEST POP JUMP JUMPDEST PUSH1 0x0 DUP2 CALLDATALOAD SWAP1 POP PUSH2 0x34F1 DUP2 PUSH2 0x34CB JUMP JUMPDEST SWAP3 SWAP2 POP POP JUMP JUMPDEST PUSH1 0x0 PUSH1 0x20 DUP3 DUP5 SUB SLT ISZERO PUSH2 0x350D JUMPI PUSH2 0x350C PUSH2 0x3341 JUMP JUMPDEST JUMPDEST PUSH1 0x0 PUSH2 0x351B DUP5 DUP3 DUP6 ADD PUSH2 0x34E2 JUMP JUMPDEST SWAP2 POP POP SWAP3 SWAP2 POP POP JUMP JUMPDEST PUSH1 0x0 PUSH20 0xFFFFFFFFFFFFFFFFFFFFFFFFFFFFFFFFFFFFFFFF DUP3 AND SWAP1 POP SWAP2 SWAP1 POP JUMP JUMPDEST PUSH1 0x0 PUSH2 0x354F DUP3 PUSH2 0x3524 JUMP JUMPDEST SWAP1 POP SWAP2 SWAP1 POP JUMP JUMPDEST PUSH2 0x355F DUP2 PUSH2 0x3544 JUMP JUMPDEST DUP3 MSTORE POP POP JUMP JUMPDEST PUSH1 0x0 PUSH1 0x20 DUP3 ADD SWAP1 POP PUSH2 0x357A PUSH1 0x0 DUP4 ADD DUP5 PUSH2 0x3556 JUMP JUMPDEST SWAP3 SWAP2 POP POP JUMP JUMPDEST PUSH2 0x3589 DUP2 PUSH2 0x3544 JUMP JUMPDEST DUP2 EQ PUSH2 0x3594 JUMPI PUSH1 0x0 DUP1 REVERT JUMPDEST POP JUMP JUMPDEST PUSH1 0x0 DUP2 CALLDATALOAD SWAP1 POP PUSH2 0x35A6 DUP2 PUSH2 0x3580 JUMP JUMPDEST SWAP3 SWAP2 POP POP JUMP JUMPDEST PUSH1 0x0 DUP1 PUSH1 0x40 DUP4 DUP6 SUB SLT ISZERO PUSH2 0x35C3 JUMPI PUSH2 0x35C2 PUSH2 0x3341 JUMP JUMPDEST JUMPDEST PUSH1 0x0 PUSH2 0x35D1 DUP6 DUP3 DUP7 ADD PUSH2 0x3597 JUMP JUMPDEST SWAP3 POP POP PUSH1 0x20 PUSH2 0x35E2 DUP6 DUP3 DUP7 ADD PUSH2 0x34E2 JUMP JUMPDEST SWAP2 POP POP SWAP3 POP SWAP3 SWAP1 POP JUMP JUMPDEST PUSH1 0x0 DUP1 REVERT JUMPDEST PUSH1 0x0 DUP1 REVERT JUMPDEST PUSH1 0x0 DUP1 REVERT JUMPDEST PUSH1 0x0 DUP1 DUP4 PUSH1 0x1F DUP5 ADD SLT PUSH2 0x3611 JUMPI PUSH2 0x3610 PUSH2 0x35EC JUMP JUMPDEST JUMPDEST DUP3 CALLDATALOAD SWAP1 POP PUSH8 0xFFFFFFFFFFFFFFFF DUP2 GT ISZERO PUSH2 0x362E JUMPI PUSH2 0x362D PUSH2 0x35F1 JUMP JUMPDEST JUMPDEST PUSH1 0x20 DUP4 ADD SWAP2 POP DUP4 PUSH1 0x20 DUP3 MUL DUP4 ADD GT ISZERO PUSH2 0x364A JUMPI PUSH2 0x3649 PUSH2 0x35F6 JUMP JUMPDEST JUMPDEST SWAP3 POP SWAP3 SWAP1 POP JUMP JUMPDEST PUSH1 0x0 DUP1 PUSH1 0x0 PUSH1 0x40 DUP5 DUP7 SUB SLT ISZERO PUSH2 0x366A JUMPI PUSH2 0x3669 PUSH2 0x3341 JUMP JUMPDEST JUMPDEST PUSH1 0x0 PUSH2 0x3678 DUP7 DUP3 DUP8 ADD PUSH2 0x34E2 JUMP JUMPDEST SWAP4 POP POP PUSH1 0x20 DUP5 ADD CALLDATALOAD PUSH8 0xFFFFFFFFFFFFFFFF DUP2 GT ISZERO PUSH2 0x3699 JUMPI PUSH2 0x3698 PUSH2 0x3346 JUMP JUMPDEST JUMPDEST PUSH2 0x36A5 DUP7 DUP3 DUP8 ADD PUSH2 0x35FB JUMP JUMPDEST SWAP3 POP SWAP3 POP POP SWAP3 POP SWAP3 POP SWAP3 JUMP JUMPDEST PUSH1 0x0 PUSH1 0x20 DUP3 DUP5 SUB SLT ISZERO PUSH2 0x36C7 JUMPI PUSH2 0x36C6 PUSH2 0x3341 JUMP JUMPDEST JUMPDEST PUSH1 0x0 PUSH2 0x36D5 DUP5 DUP3 DUP6 ADD PUSH2 0x3597 JUMP JUMPDEST SWAP2 POP POP SWAP3 SWAP2 POP POP JUMP JUMPDEST PUSH2 0x36E7 DUP2 PUSH2 0x34C1 JUMP JUMPDEST DUP3 MSTORE POP POP JUMP JUMPDEST PUSH1 0x0 PUSH1 0x20 DUP3 ADD SWAP1 POP PUSH2 0x3702 PUSH1 0x0 DUP4 ADD DUP5 PUSH2 0x36DE JUMP JUMPDEST SWAP3 SWAP2 POP POP JUMP JUMPDEST PUSH1 0x0 DUP1 REVERT JUMPDEST PUSH32 0x4E487B7100000000000000000000000000000000000000000000000000000000 PUSH1 0x0 MSTORE PUSH1 0x41 PUSH1 0x4 MSTORE PUSH1 0x24 PUSH1 0x0 REVERT JUMPDEST PUSH2 0x3745 DUP3 PUSH2 0x3455 JUMP JUMPDEST DUP2 ADD DUP2 DUP2 LT PUSH8 0xFFFFFFFFFFFFFFFF DUP3 GT OR ISZERO PUSH2 0x3764 JUMPI PUSH2 0x3763 PUSH2 0x370D JUMP JUMPDEST JUMPDEST DUP1 PUSH1 0x40 MSTORE POP POP POP JUMP JUMPDEST PUSH1 0x0 PUSH2 0x3777 PUSH2 0x3337 JUMP JUMPDEST SWAP1 POP PUSH2 0x3783 DUP3 DUP3 PUSH2 0x373C JUMP JUMPDEST SWAP2 SWAP1 POP JUMP JUMPDEST PUSH1 0x0 PUSH8 0xFFFFFFFFFFFFFFFF DUP3 GT ISZERO PUSH2 0x37A3 JUMPI PUSH2 0x37A2 PUSH2 0x370D JUMP JUMPDEST JUMPDEST PUSH2 0x37AC DUP3 PUSH2 0x3455 JUMP JUMPDEST SWAP1 POP PUSH1 0x20 DUP2 ADD SWAP1 POP SWAP2 SWAP1 POP JUMP JUMPDEST DUP3 DUP2 DUP4 CALLDATACOPY PUSH1 0x0 DUP4 DUP4 ADD MSTORE POP POP POP JUMP JUMPDEST PUSH1 0x0 PUSH2 0x37DB PUSH2 0x37D6 DUP5 PUSH2 0x3788 JUMP JUMPDEST PUSH2 0x376D JUMP JUMPDEST SWAP1 POP DUP3 DUP2 MSTORE PUSH1 0x20 DUP2 ADD DUP5 DUP5 DUP5 ADD GT ISZERO PUSH2 0x37F7 JUMPI PUSH2 0x37F6 PUSH2 0x3708 JUMP JUMPDEST JUMPDEST PUSH2 0x3802 DUP5 DUP3 DUP6 PUSH2 0x37B9 JUMP JUMPDEST POP SWAP4 SWAP3 POP POP POP JUMP JUMPDEST PUSH1 0x0 DUP3 PUSH1 0x1F DUP4 ADD SLT PUSH2 0x381F JUMPI PUSH2 0x381E PUSH2 0x35EC JUMP JUMPDEST JUMPDEST DUP2 CALLDATALOAD PUSH2 0x382F DUP5 DUP3 PUSH1 0x20 DUP7 ADD PUSH2 0x37C8 JUMP JUMPDEST SWAP2 POP POP SWAP3 SWAP2 POP POP JUMP JUMPDEST PUSH1 0x0 DUP1 PUSH1 0x0 PUSH1 0x60 DUP5 DUP7 SUB SLT ISZERO PUSH2 0x3851 JUMPI PUSH2 0x3850 PUSH2 0x3341 JUMP JUMPDEST JUMPDEST PUSH1 0x0 DUP5 ADD CALLDATALOAD PUSH8 0xFFFFFFFFFFFFFFFF DUP2 GT ISZERO PUSH2 0x386F JUMPI PUSH2 0x386E PUSH2 0x3346 JUMP JUMPDEST JUMPDEST PUSH2 0x387B DUP7 DUP3 DUP8 ADD PUSH2 0x380A JUMP JUMPDEST SWAP4 POP POP PUSH1 0x20 PUSH2 0x388C DUP7 DUP3 DUP8 ADD PUSH2 0x34E2 JUMP JUMPDEST SWAP3 POP POP PUSH1 0x40 PUSH2 0x389D DUP7 DUP3 DUP8 ADD PUSH2 0x34E2 JUMP JUMPDEST SWAP2 POP POP SWAP3 POP SWAP3 POP SWAP3 JUMP JUMPDEST PUSH1 0x0 DUP1 PUSH1 0x0 PUSH1 0x60 DUP5 DUP7 SUB SLT ISZERO PUSH2 0x38C0 JUMPI PUSH2 0x38BF PUSH2 0x3341 JUMP JUMPDEST JUMPDEST PUSH1 0x0 PUSH2 0x38CE DUP7 DUP3 DUP8 ADD PUSH2 0x3597 JUMP JUMPDEST SWAP4 POP POP PUSH1 0x20 PUSH2 0x38DF DUP7 DUP3 DUP8 ADD PUSH2 0x3597 JUMP JUMPDEST SWAP3 POP POP PUSH1 0x40 PUSH2 0x38F0 DUP7 DUP3 DUP8 ADD PUSH2 0x34E2 JUMP JUMPDEST SWAP2 POP POP SWAP3 POP SWAP3 POP SWAP3 JUMP JUMPDEST PUSH1 0x0 DUP1 PUSH1 0x40 DUP4 DUP6 SUB SLT ISZERO PUSH2 0x3911 JUMPI PUSH2 0x3910 PUSH2 0x3341 JUMP JUMPDEST JUMPDEST PUSH1 0x0 PUSH2 0x391F DUP6 DUP3 DUP7 ADD PUSH2 0x34E2 JUMP JUMPDEST SWAP3 POP POP PUSH1 0x20 PUSH2 0x3930 DUP6 DUP3 DUP7 ADD PUSH2 0x34E2 JUMP JUMPDEST SWAP2 POP POP SWAP3 POP SWAP3 SWAP1 POP JUMP JUMPDEST PUSH1 0x0 PUSH1 0x40 DUP3 ADD SWAP1 POP PUSH2 0x394F PUSH1 0x0 DUP4 ADD DUP6 PUSH2 0x3556 JUMP JUMPDEST PUSH2 0x395C PUSH1 0x20 DUP4 ADD DUP5 PUSH2 0x36DE JUMP JUMPDEST SWAP4 SWAP3 POP POP POP JUMP JUMPDEST PUSH1 0x0 DUP2 SWAP1 POP SWAP2 SWAP1 POP JUMP JUMPDEST PUSH2 0x3976 DUP2 PUSH2 0x3963 JUMP JUMPDEST DUP3 MSTORE POP POP JUMP JUMPDEST PUSH1 0x0 PUSH1 0x20 DUP3 ADD SWAP1 POP PUSH2 0x3991 PUSH1 0x0 DUP4 ADD DUP5 PUSH2 0x396D JUMP JUMPDEST SWAP3 SWAP2 POP POP JUMP JUMPDEST PUSH1 0x0 PUSH1 0x20 DUP3 DUP5 SUB SLT ISZERO PUSH2 0x39AD JUMPI PUSH2 0x39AC PUSH2 0x3341 JUMP JUMPDEST JUMPDEST PUSH1 0x0 DUP3 ADD CALLDATALOAD PUSH8 0xFFFFFFFFFFFFFFFF DUP2 GT ISZERO PUSH2 0x39CB JUMPI PUSH2 0x39CA PUSH2 0x3346 JUMP JUMPDEST JUMPDEST PUSH2 0x39D7 DUP5 DUP3 DUP6 ADD PUSH2 0x380A JUMP JUMPDEST SWAP2 POP POP SWAP3 SWAP2 POP POP JUMP JUMPDEST PUSH2 0x39E9 DUP2 PUSH2 0x3963 JUMP JUMPDEST DUP2 EQ PUSH2 0x39F4 JUMPI PUSH1 0x0 DUP1 REVERT JUMPDEST POP JUMP JUMPDEST PUSH1 0x0 DUP2 CALLDATALOAD SWAP1 POP PUSH2 0x3A06 DUP2 PUSH2 0x39E0 JUMP JUMPDEST SWAP3 SWAP2 POP POP JUMP JUMPDEST PUSH1 0x0 PUSH1 0x20 DUP3 DUP5 SUB SLT ISZERO PUSH2 0x3A22 JUMPI PUSH2 0x3A21 PUSH2 0x3341 JUMP JUMPDEST JUMPDEST PUSH1 0x0 PUSH2 0x3A30 DUP5 DUP3 DUP6 ADD PUSH2 0x39F7 JUMP JUMPDEST SWAP2 POP POP SWAP3 SWAP2 POP POP JUMP JUMPDEST PUSH2 0x3A42 DUP2 PUSH2 0x33D0 JUMP JUMPDEST DUP2 EQ PUSH2 0x3A4D JUMPI PUSH1 0x0 DUP1 REVERT JUMPDEST POP JUMP JUMPDEST PUSH1 0x0 DUP2 CALLDATALOAD SWAP1 POP PUSH2 0x3A5F DUP2 PUSH2 0x3A39 JUMP JUMPDEST SWAP3 SWAP2 POP POP JUMP JUMPDEST PUSH1 0x0 DUP1 PUSH1 0x40 DUP4 DUP6 SUB SLT ISZERO PUSH2 0x3A7C JUMPI PUSH2 0x3A7B PUSH2 0x3341 JUMP JUMPDEST JUMPDEST PUSH1 0x0 PUSH2 0x3A8A DUP6 DUP3 DUP7 ADD PUSH2 0x3597 JUMP JUMPDEST SWAP3 POP POP PUSH1 0x20 PUSH2 0x3A9B DUP6 DUP3 DUP7 ADD PUSH2 0x3A50 JUMP JUMPDEST SWAP2 POP POP SWAP3 POP SWAP3 SWAP1 POP JUMP JUMPDEST PUSH1 0x0 PUSH8 0xFFFFFFFFFFFFFFFF DUP3 GT ISZERO PUSH2 0x3AC0 JUMPI PUSH2 0x3ABF PUSH2 0x370D JUMP JUMPDEST JUMPDEST PUSH2 0x3AC9 DUP3 PUSH2 0x3455 JUMP JUMPDEST SWAP1 POP PUSH1 0x20 DUP2 ADD SWAP1 POP SWAP2 SWAP1 POP JUMP JUMPDEST PUSH1 0x0 PUSH2 0x3AE9 PUSH2 0x3AE4 DUP5 PUSH2 0x3AA5 JUMP JUMPDEST PUSH2 0x376D JUMP JUMPDEST SWAP1 POP DUP3 DUP2 MSTORE PUSH1 0x20 DUP2 ADD DUP5 DUP5 DUP5 ADD GT ISZERO PUSH2 0x3B05 JUMPI PUSH2 0x3B04 PUSH2 0x3708 JUMP JUMPDEST JUMPDEST PUSH2 0x3B10 DUP5 DUP3 DUP6 PUSH2 0x37B9 JUMP JUMPDEST POP SWAP4 SWAP3 POP POP POP JUMP JUMPDEST PUSH1 0x0 DUP3 PUSH1 0x1F DUP4 ADD SLT PUSH2 0x3B2D JUMPI PUSH2 0x3B2C PUSH2 0x35EC JUMP JUMPDEST JUMPDEST DUP2 CALLDATALOAD PUSH2 0x3B3D DUP5 DUP3 PUSH1 0x20 DUP7 ADD PUSH2 0x3AD6 JUMP JUMPDEST SWAP2 POP POP SWAP3 SWAP2 POP POP JUMP JUMPDEST PUSH1 0x0 DUP1 PUSH1 0x0 DUP1 PUSH1 0x80 DUP6 DUP8 SUB SLT ISZERO PUSH2 0x3B60 JUMPI PUSH2 0x3B5F PUSH2 0x3341 JUMP JUMPDEST JUMPDEST PUSH1 0x0 PUSH2 0x3B6E DUP8 DUP3 DUP9 ADD PUSH2 0x3597 JUMP JUMPDEST SWAP5 POP POP PUSH1 0x20 PUSH2 0x3B7F DUP8 DUP3 DUP9 ADD PUSH2 0x3597 JUMP JUMPDEST SWAP4 POP POP PUSH1 0x40 PUSH2 0x3B90 DUP8 DUP3 DUP9 ADD PUSH2 0x34E2 JUMP JUMPDEST SWAP3 POP POP PUSH1 0x60 DUP6 ADD CALLDATALOAD PUSH8 0xFFFFFFFFFFFFFFFF DUP2 GT ISZERO PUSH2 0x3BB1 JUMPI PUSH2 0x3BB0 PUSH2 0x3346 JUMP JUMPDEST JUMPDEST PUSH2 0x3BBD DUP8 DUP3 DUP9 ADD PUSH2 0x3B18 JUMP JUMPDEST SWAP2 POP POP SWAP3 SWAP6 SWAP2 SWAP5 POP SWAP3 POP JUMP JUMPDEST PUSH1 0x0 DUP1 PUSH1 0x40 DUP4 DUP6 SUB SLT ISZERO PUSH2 0x3BE0 JUMPI PUSH2 0x3BDF PUSH2 0x3341 JUMP JUMPDEST JUMPDEST PUSH1 0x0 PUSH2 0x3BEE DUP6 DUP3 DUP7 ADD PUSH2 0x3597 JUMP JUMPDEST SWAP3 POP POP PUSH1 0x20 PUSH2 0x3BFF DUP6 DUP3 DUP7 ADD PUSH2 0x3597 JUMP JUMPDEST SWAP2 POP POP SWAP3 POP SWAP3 SWAP1 POP JUMP JUMPDEST PUSH32 0x4E487B7100000000000000000000000000000000000000000000000000000000 PUSH1 0x0 MSTORE PUSH1 0x22 PUSH1 0x4 MSTORE PUSH1 0x24 PUSH1 0x0 REVERT JUMPDEST PUSH1 0x0 PUSH1 0x2 DUP3 DIV SWAP1 POP PUSH1 0x1 DUP3 AND DUP1 PUSH2 0x3C50 JUMPI PUSH1 0x7F DUP3 AND SWAP2 POP JUMPDEST PUSH1 0x20 DUP3 LT DUP2 EQ ISZERO PUSH2 0x3C64 JUMPI PUSH2 0x3C63 PUSH2 0x3C09 JUMP JUMPDEST JUMPDEST POP SWAP2 SWAP1 POP JUMP JUMPDEST PUSH32 0x5061757365640000000000000000000000000000000000000000000000000000 PUSH1 0x0 DUP3 ADD MSTORE POP JUMP JUMPDEST PUSH1 0x0 PUSH2 0x3CA0 PUSH1 0x6 DUP4 PUSH2 0x3411 JUMP JUMPDEST SWAP2 POP PUSH2 0x3CAB DUP3 PUSH2 0x3C6A JUMP JUMPDEST PUSH1 0x20 DUP3 ADD SWAP1 POP SWAP2 SWAP1 POP JUMP JUMPDEST PUSH1 0x0 PUSH1 0x20 DUP3 ADD SWAP1 POP DUP2 DUP2 SUB PUSH1 0x0 DUP4 ADD MSTORE PUSH2 0x3CCF DUP2 PUSH2 0x3C93 JUMP JUMPDEST SWAP1 POP SWAP2 SWAP1 POP JUMP JUMPDEST PUSH32 0x4E487B7100000000000000000000000000000000000000000000000000000000 PUSH1 0x0 MSTORE PUSH1 0x11 PUSH1 0x4 MSTORE PUSH1 0x24 PUSH1 0x0 REVERT JUMPDEST PUSH1 0x0 PUSH2 0x3D10 DUP3 PUSH2 0x34C1 JUMP JUMPDEST SWAP2 POP PUSH2 0x3D1B DUP4 PUSH2 0x34C1 JUMP JUMPDEST SWAP3 POP DUP3 PUSH32 0xFFFFFFFFFFFFFFFFFFFFFFFFFFFFFFFFFFFFFFFFFFFFFFFFFFFFFFFFFFFFFFFF SUB DUP3 GT ISZERO PUSH2 0x3D50 JUMPI PUSH2 0x3D4F PUSH2 0x3CD6 JUMP JUMPDEST JUMPDEST DUP3 DUP3 ADD SWAP1 POP SWAP3 SWAP2 POP POP JUMP JUMPDEST PUSH1 0x0 PUSH2 0x3D66 DUP3 PUSH2 0x34C1 JUMP JUMPDEST SWAP2 POP PUSH2 0x3D71 DUP4 PUSH2 0x34C1 JUMP JUMPDEST SWAP3 POP DUP2 PUSH32 0xFFFFFFFFFFFFFFFFFFFFFFFFFFFFFFFFFFFFFFFFFFFFFFFFFFFFFFFFFFFFFFFF DIV DUP4 GT DUP3 ISZERO ISZERO AND ISZERO PUSH2 0x3DAA JUMPI PUSH2 0x3DA9 PUSH2 0x3CD6 JUMP JUMPDEST JUMPDEST DUP3 DUP3 MUL SWAP1 POP SWAP3 SWAP2 POP POP JUMP JUMPDEST PUSH1 0x0 PUSH2 0x3DC0 DUP3 PUSH2 0x34C1 JUMP JUMPDEST SWAP2 POP PUSH2 0x3DCB DUP4 PUSH2 0x34C1 JUMP JUMPDEST SWAP3 POP DUP3 DUP3 LT ISZERO PUSH2 0x3DDE JUMPI PUSH2 0x3DDD PUSH2 0x3CD6 JUMP JUMPDEST JUMPDEST DUP3 DUP3 SUB SWAP1 POP SWAP3 SWAP2 POP POP JUMP JUMPDEST PUSH32 0x4E487B7100000000000000000000000000000000000000000000000000000000 PUSH1 0x0 MSTORE PUSH1 0x32 PUSH1 0x4 MSTORE PUSH1 0x24 PUSH1 0x0 REVERT JUMPDEST PUSH1 0x0 PUSH2 0x3E23 DUP3 PUSH2 0x34C1 JUMP JUMPDEST SWAP2 POP PUSH32 0xFFFFFFFFFFFFFFFFFFFFFFFFFFFFFFFFFFFFFFFFFFFFFFFFFFFFFFFFFFFFFFFF DUP3 EQ ISZERO PUSH2 0x3E56 JUMPI PUSH2 0x3E55 PUSH2 0x3CD6 JUMP JUMPDEST JUMPDEST PUSH1 0x1 DUP3 ADD SWAP1 POP SWAP2 SWAP1 POP JUMP JUMPDEST PUSH1 0x0 PUSH1 0x40 DUP3 ADD SWAP1 POP PUSH2 0x3E76 PUSH1 0x0 DUP4 ADD DUP6 PUSH2 0x3556 JUMP JUMPDEST PUSH2 0x3E83 PUSH1 0x20 DUP4 ADD DUP5 PUSH2 0x3556 JUMP JUMPDEST SWAP4 SWAP3 POP POP POP JUMP JUMPDEST PUSH1 0x0 DUP2 MLOAD SWAP1 POP PUSH2 0x3E99 DUP2 PUSH2 0x3A39 JUMP JUMPDEST SWAP3 SWAP2 POP POP JUMP JUMPDEST PUSH1 0x0 PUSH1 0x20 DUP3 DUP5 SUB SLT ISZERO PUSH2 0x3EB5 JUMPI PUSH2 0x3EB4 PUSH2 0x3341 JUMP JUMPDEST JUMPDEST PUSH1 0x0 PUSH2 0x3EC3 DUP5 DUP3 DUP6 ADD PUSH2 0x3E8A JUMP JUMPDEST SWAP2 POP POP SWAP3 SWAP2 POP POP JUMP JUMPDEST PUSH32 0x4E487B7100000000000000000000000000000000000000000000000000000000 PUSH1 0x0 MSTORE PUSH1 0x12 PUSH1 0x4 MSTORE PUSH1 0x24 PUSH1 0x0 REVERT JUMPDEST PUSH1 0x0 PUSH2 0x3F06 DUP3 PUSH2 0x34C1 JUMP JUMPDEST SWAP2 POP PUSH2 0x3F11 DUP4 PUSH2 0x34C1 JUMP JUMPDEST SWAP3 POP DUP3 PUSH2 0x3F21 JUMPI PUSH2 0x3F20 PUSH2 0x3ECC JUMP JUMPDEST JUMPDEST DUP3 DUP3 DIV SWAP1 POP SWAP3 SWAP2 POP POP JUMP JUMPDEST PUSH32 0x5F6E6577426173655552492063616E6E6F7420626520656D7074792100000000 PUSH1 0x0 DUP3 ADD MSTORE POP JUMP JUMPDEST PUSH1 0x0 PUSH2 0x3F62 PUSH1 0x1C DUP4 PUSH2 0x3411 JUMP JUMPDEST SWAP2 POP PUSH2 0x3F6D DUP3 PUSH2 0x3F2C JUMP JUMPDEST PUSH1 0x20 DUP3 ADD SWAP1 POP SWAP2 SWAP1 POP JUMP JUMPDEST PUSH1 0x0 PUSH1 0x20 DUP3 ADD SWAP1 POP DUP2 DUP2 SUB PUSH1 0x0 DUP4 ADD MSTORE PUSH2 0x3F91 DUP2 PUSH2 0x3F55 JUMP JUMPDEST SWAP1 POP SWAP2 SWAP1 POP JUMP JUMPDEST PUSH32 0x5F6E6577426173655552492073686F756C642068617665206120737566666978 PUSH1 0x0 DUP3 ADD MSTORE PUSH32 0x206F6620272F2700000000000000000000000000000000000000000000000000 PUSH1 0x20 DUP3 ADD MSTORE POP JUMP JUMPDEST PUSH1 0x0 PUSH2 0x3FF4 PUSH1 0x27 DUP4 PUSH2 0x3411 JUMP JUMPDEST SWAP2 POP PUSH2 0x3FFF DUP3 PUSH2 0x3F98 JUMP JUMPDEST PUSH1 0x40 DUP3 ADD SWAP1 POP SWAP2 SWAP1 POP JUMP JUMPDEST PUSH1 0x0 PUSH1 0x20 DUP3 ADD SWAP1 POP DUP2 DUP2 SUB PUSH1 0x0 DUP4 ADD MSTORE PUSH2 0x4023 DUP2 PUSH2 0x3FE7 JUMP JUMPDEST SWAP1 POP SWAP2 SWAP1 POP JUMP JUMPDEST PUSH32 0x596F752063616E206F6E6C79207365742062617365555249206F6E6365210000 PUSH1 0x0 DUP3 ADD MSTORE POP JUMP JUMPDEST PUSH1 0x0 PUSH2 0x4060 PUSH1 0x1E DUP4 PUSH2 0x3411 JUMP JUMPDEST SWAP2 POP PUSH2 0x406B DUP3 PUSH2 0x402A JUMP JUMPDEST PUSH1 0x20 DUP3 ADD SWAP1 POP SWAP2 SWAP1 POP JUMP JUMPDEST PUSH1 0x0 PUSH1 0x20 DUP3 ADD SWAP1 POP DUP2 DUP2 SUB PUSH1 0x0 DUP4 ADD MSTORE PUSH2 0x408F DUP2 PUSH2 0x4053 JUMP JUMPDEST SWAP1 POP SWAP2 SWAP1 POP JUMP JUMPDEST PUSH32 0x746F6B656E20646F6573206E6F74206578697374210000000000000000000000 PUSH1 0x0 DUP3 ADD MSTORE POP JUMP JUMPDEST PUSH1 0x0 PUSH2 0x40CC PUSH1 0x15 DUP4 PUSH2 0x3411 JUMP JUMPDEST SWAP2 POP PUSH2 0x40D7 DUP3 PUSH2 0x4096 JUMP JUMPDEST PUSH1 0x20 DUP3 ADD SWAP1 POP SWAP2 SWAP1 POP JUMP JUMPDEST PUSH1 0x0 PUSH1 0x20 DUP3 ADD SWAP1 POP DUP2 DUP2 SUB PUSH1 0x0 DUP4 ADD MSTORE PUSH2 0x40FB DUP2 PUSH2 0x40BF JUMP JUMPDEST SWAP1 POP SWAP2 SWAP1 POP JUMP JUMPDEST PUSH1 0x0 DUP2 SWAP1 POP SWAP3 SWAP2 POP POP JUMP JUMPDEST PUSH1 0x0 DUP2 SWAP1 POP DUP2 PUSH1 0x0 MSTORE PUSH1 0x20 PUSH1 0x0 KECCAK256 SWAP1 POP SWAP2 SWAP1 POP JUMP JUMPDEST PUSH1 0x0 DUP2 SLOAD PUSH2 0x412F DUP2 PUSH2 0x3C38 JUMP JUMPDEST PUSH2 0x4139 DUP2 DUP7 PUSH2 0x4102 JUMP JUMPDEST SWAP5 POP PUSH1 0x1 DUP3 AND PUSH1 0x0 DUP2 EQ PUSH2 0x4154 JUMPI PUSH1 0x1 DUP2 EQ PUSH2 0x4165 JUMPI PUSH2 0x4198 JUMP JUMPDEST PUSH1 0xFF NOT DUP4 AND DUP7 MSTORE DUP2 DUP7 ADD SWAP4 POP PUSH2 0x4198 JUMP JUMPDEST PUSH2 0x416E DUP6 PUSH2 0x410D JUMP JUMPDEST PUSH1 0x0 JUMPDEST DUP4 DUP2 LT ISZERO PUSH2 0x4190 JUMPI DUP2 SLOAD DUP2 DUP10 ADD MSTORE PUSH1 0x1 DUP3 ADD SWAP2 POP PUSH1 0x20 DUP2 ADD SWAP1 POP PUSH2 0x4171 JUMP JUMPDEST DUP4 DUP9 ADD SWAP6 POP POP POP JUMPDEST POP POP POP SWAP3 SWAP2 POP POP JUMP JUMPDEST PUSH1 0x0 PUSH2 0x41AC DUP3 PUSH2 0x3406 JUMP JUMPDEST PUSH2 0x41B6 DUP2 DUP6 PUSH2 0x4102 JUMP JUMPDEST SWAP4 POP PUSH2 0x41C6 DUP2 DUP6 PUSH1 0x20 DUP7 ADD PUSH2 0x3422 JUMP JUMPDEST DUP1 DUP5 ADD SWAP2 POP POP SWAP3 SWAP2 POP POP JUMP JUMPDEST PUSH1 0x0 PUSH2 0x41DE DUP3 DUP7 PUSH2 0x4122 JUMP JUMPDEST SWAP2 POP PUSH2 0x41EA DUP3 DUP6 PUSH2 0x41A1 JUMP JUMPDEST SWAP2 POP PUSH2 0x41F6 DUP3 DUP5 PUSH2 0x4122 JUMP JUMPDEST SWAP2 POP DUP2 SWAP1 POP SWAP5 SWAP4 POP POP POP POP JUMP JUMPDEST PUSH32 0x4F776E61626C653A206E6577206F776E657220697320746865207A65726F2061 PUSH1 0x0 DUP3 ADD MSTORE PUSH32 0x6464726573730000000000000000000000000000000000000000000000000000 PUSH1 0x20 DUP3 ADD MSTORE POP JUMP JUMPDEST PUSH1 0x0 PUSH2 0x425F PUSH1 0x26 DUP4 PUSH2 0x3411 JUMP JUMPDEST SWAP2 POP PUSH2 0x426A DUP3 PUSH2 0x4203 JUMP JUMPDEST PUSH1 0x40 DUP3 ADD SWAP1 POP SWAP2 SWAP1 POP JUMP JUMPDEST PUSH1 0x0 PUSH1 0x20 DUP3 ADD SWAP1 POP DUP2 DUP2 SUB PUSH1 0x0 DUP4 ADD MSTORE PUSH2 0x428E DUP2 PUSH2 0x4252 JUMP JUMPDEST SWAP1 POP SWAP2 SWAP1 POP JUMP JUMPDEST PUSH32 0x4F776E61626C653A2063616C6C6572206973206E6F7420746865206F776E6572 PUSH1 0x0 DUP3 ADD MSTORE POP JUMP JUMPDEST PUSH1 0x0 PUSH2 0x42CB PUSH1 0x20 DUP4 PUSH2 0x3411 JUMP JUMPDEST SWAP2 POP PUSH2 0x42D6 DUP3 PUSH2 0x4295 JUMP JUMPDEST PUSH1 0x20 DUP3 ADD SWAP1 POP SWAP2 SWAP1 POP JUMP JUMPDEST PUSH1 0x0 PUSH1 0x20 DUP3 ADD SWAP1 POP DUP2 DUP2 SUB PUSH1 0x0 DUP4 ADD MSTORE PUSH2 0x42FA DUP2 PUSH2 0x42BE JUMP JUMPDEST SWAP1 POP SWAP2 SWAP1 POP JUMP JUMPDEST PUSH1 0x0 PUSH2 0x430D DUP3 DUP5 PUSH2 0x41A1 JUMP JUMPDEST SWAP2 POP DUP2 SWAP1 POP SWAP3 SWAP2 POP POP JUMP JUMPDEST PUSH1 0x0 PUSH2 0x4323 DUP3 PUSH2 0x34C1 JUMP JUMPDEST SWAP2 POP PUSH2 0x432E DUP4 PUSH2 0x34C1 JUMP JUMPDEST SWAP3 POP DUP3 PUSH2 0x433E JUMPI PUSH2 0x433D PUSH2 0x3ECC JUMP JUMPDEST JUMPDEST DUP3 DUP3 MOD SWAP1 POP SWAP3 SWAP2 POP POP JUMP JUMPDEST PUSH1 0x0 DUP2 PUSH1 0x60 SHL SWAP1 POP SWAP2 SWAP1 POP JUMP JUMPDEST PUSH1 0x0 PUSH2 0x4361 DUP3 PUSH2 0x4349 JUMP JUMPDEST SWAP1 POP SWAP2 SWAP1 POP JUMP JUMPDEST PUSH1 0x0 PUSH2 0x4373 DUP3 PUSH2 0x4356 JUMP JUMPDEST SWAP1 POP SWAP2 SWAP1 POP JUMP JUMPDEST PUSH2 0x438B PUSH2 0x4386 DUP3 PUSH2 0x3544 JUMP JUMPDEST PUSH2 0x4368 JUMP JUMPDEST DUP3 MSTORE POP POP JUMP JUMPDEST PUSH1 0x0 PUSH2 0x439D DUP3 DUP5 PUSH2 0x437A JUMP JUMPDEST PUSH1 0x14 DUP3 ADD SWAP2 POP DUP2 SWAP1 POP SWAP3 SWAP2 POP POP JUMP JUMPDEST PUSH1 0x0 DUP2 MLOAD SWAP1 POP SWAP2 SWAP1 POP JUMP JUMPDEST PUSH1 0x0 DUP3 DUP3 MSTORE PUSH1 0x20 DUP3 ADD SWAP1 POP SWAP3 SWAP2 POP POP JUMP JUMPDEST PUSH1 0x0 PUSH2 0x43D3 DUP3 PUSH2 0x43AC JUMP JUMPDEST PUSH2 0x43DD DUP2 DUP6 PUSH2 0x43B7 JUMP JUMPDEST SWAP4 POP PUSH2 0x43ED DUP2 DUP6 PUSH1 0x20 DUP7 ADD PUSH2 0x3422 JUMP JUMPDEST PUSH2 0x43F6 DUP2 PUSH2 0x3455 JUMP JUMPDEST DUP5 ADD SWAP2 POP POP SWAP3 SWAP2 POP POP JUMP JUMPDEST PUSH1 0x0 PUSH1 0x80 DUP3 ADD SWAP1 POP PUSH2 0x4416 PUSH1 0x0 DUP4 ADD DUP8 PUSH2 0x3556 JUMP JUMPDEST PUSH2 0x4423 PUSH1 0x20 DUP4 ADD DUP7 PUSH2 0x3556 JUMP JUMPDEST PUSH2 0x4430 PUSH1 0x40 DUP4 ADD DUP6 PUSH2 0x36DE JUMP JUMPDEST DUP2 DUP2 SUB PUSH1 0x60 DUP4 ADD MSTORE PUSH2 0x4442 DUP2 DUP5 PUSH2 0x43C8 JUMP JUMPDEST SWAP1 POP SWAP6 SWAP5 POP POP POP POP POP JUMP JUMPDEST PUSH1 0x0 DUP2 MLOAD SWAP1 POP PUSH2 0x445C DUP2 PUSH2 0x3377 JUMP JUMPDEST SWAP3 SWAP2 POP POP JUMP JUMPDEST PUSH1 0x0 PUSH1 0x20 DUP3 DUP5 SUB SLT ISZERO PUSH2 0x4478 JUMPI PUSH2 0x4477 PUSH2 0x3341 JUMP JUMPDEST JUMPDEST PUSH1 0x0 PUSH2 0x4486 DUP5 DUP3 DUP6 ADD PUSH2 0x444D JUMP JUMPDEST SWAP2 POP POP SWAP3 SWAP2 POP POP JUMP INVALID LOG2 PUSH5 0x6970667358 0x22 SLT KECCAK256 JUMP ADDMOD SWAP11 0xE2 DUP4 0xE8 PUSH2 0xA13A CREATE GT 0xEA 0xD9 PUSH17 0xD51BBCC814C11C5FF5AB6C8A056438B52 0x4A PUSH5 0x736F6C6343 STOP ADDMOD MULMOD STOP CALLER PUSH9 0x747470733A2F2F6B69 PUSH21 0x737564656E2E696E667572612D697066732E696F2F PUSH10 0x7066732F516D54385777 SSTORE PUSH22 0x417A70654C7169784A446676564878394B7278466F38 PUSH24 0x62473831314A5A426A6B66723643672F0000000000000000 "},"methodIdentifiers":{"approve(address,uint256)":"095ea7b3","balanceOf(address)":"70a08231","baseExtension()":"c6682862","baseHiddenUri()":"8fe11a97","baseURI()":"6c0360eb","getApproved(uint256)":"081812fc","isApprovedForAll(address,address)":"e985e9c5","maxMints()":"b6b6f0c3","maxSupply()":"d5abeb01","merkleRoot()":"2eb4a7ab","mint(uint256)":"a0712d68","mintPhase()":"17881cbf","mintRate()":"ca0dcf16","name()":"06fdde03","owner()":"8da5cb5b","ownerOf(uint256)":"6352211e","paused()":"5c975abb","renounceOwnership()":"715018a6","reserveMint(uint256)":"1342ff4c","revealed()":"51830227","royaltyInfo(uint256,uint256)":"2a55205a","safeTransferFrom(address,address,uint256)":"42842e0e","safeTransferFrom(address,address,uint256,bytes)":"b88d4fde","setApprovalForAll(address,bool)":"a22cb465","setBaseURI(string)":"55f804b3","setMerkleRoot(bytes32)":"7cb64759","setMintPhase(uint256)":"943431bf","setTogglePaused()":"f14a0588","substring(string,uint256,uint256)":"1dcd9b55","supportsInterface(bytes4)":"01ffc9a7","symbol()":"95d89b41","tokenURI(uint256)":"c87b56dd","totalSupply()":"18160ddd","transferFrom(address,address,uint256)":"23b872dd","transferOwnership(address)":"f2fde38b","usedAddresses(address)":"acdce273","whiteListMaxMints()":"ee5735a8","whiteListMint(uint256,bytes32[])":"11876875","whiteListUsedAddresses(address)":"13bfabc0","withdraw()":"3ccfd60b"}}}}}