{"contracts/KitsudenFoxfone.sol":{"KitsudenFoxfone":{"abi":[{"inputs":[{"internalType":"string","name":"_baseHiddenUri","type":"string"}],"stateMutability":"nonpayable","type":"constructor"},{"inputs":[],"name":"ApprovalCallerNotOwnerNorApproved","type":"error"},{"inputs":[],"name":"ApprovalQueryForNonexistentToken","type":"error"},{"inputs":[],"name":"BalanceQueryForZeroAddress","type":"error"},{"inputs":[],"name":"ExceededLimit","type":"error"},{"inputs":[],"name":"InvalidMerkle","type":"error"},{"inputs":[],"name":"MintERC2309QuantityExceedsLimit","type":"error"},{"inputs":[],"name":"MintToZeroAddress","type":"error"},{"inputs":[],"name":"MintZeroQuantity","type":"error"},{"inputs":[],"name":"NotEnoughTokensLeft","type":"error"},{"inputs":[],"name":"OwnerQueryForNonexistentToken","type":"error"},{"inputs":[],"name":"OwnershipNotInitializedForExtraData","type":"error"},{"inputs":[],"name":"PublicSaleNotLive","type":"error"},{"inputs":[],"name":"TransferCallerNotOwnerNorApproved","type":"error"},{"inputs":[],"name":"TransferFromIncorrectOwner","type":"error"},{"inputs":[],"name":"TransferToNonERC721ReceiverImplementer","type":"error"},{"inputs":[],"name":"TransferToZeroAddress","type":"error"},{"inputs":[],"name":"URIQueryForNonexistentToken","type":"error"},{"inputs":[],"name":"WhitelistNotLive","type":"error"},{"inputs":[],"name":"WrongEther","type":"error"},{"anonymous":false,"inputs":[{"indexed":true,"internalType":"address","name":"owner","type":"address"},{"indexed":true,"internalType":"address","name":"approved","type":"address"},{"indexed":true,"internalType":"uint256","name":"tokenId","type":"uint256"}],"name":"Approval","type":"event"},{"anonymous":false,"inputs":[{"indexed":true,"internalType":"address","name":"owner","type":"address"},{"indexed":true,"internalType":"address","name":"operator","type":"address"},{"indexed":false,"internalType":"bool","name":"approved","type":"bool"}],"name":"ApprovalForAll","type":"event"},{"anonymous":false,"inputs":[{"indexed":true,"internalType":"uint256","name":"fromTokenId","type":"uint256"},{"indexed":false,"internalType":"uint256","name":"toTokenId","type":"uint256"},{"indexed":true,"internalType":"address","name":"from","type":"address"},{"indexed":true,"internalType":"address","name":"to","type":"address"}],"name":"ConsecutiveTransfer","type":"event"},{"anonymous":false,"inputs":[{"indexed":true,"internalType":"address","name":"previousOwner","type":"address"},{"indexed":true,"internalType":"address","name":"newOwner","type":"address"}],"name":"OwnershipTransferred","type":"event"},{"anonymous":false,"inputs":[{"indexed":true,"internalType":"address","name":"from","type":"address"},{"indexed":true,"internalType":"address","name":"to","type":"address"},{"indexed":true,"internalType":"uint256","name":"tokenId","type":"uint256"}],"name":"Transfer","type":"event"},{"inputs":[{"internalType":"address","name":"to","type":"address"},{"internalType":"uint256","name":"tokenId","type":"uint256"}],"name":"approve","outputs":[],"stateMutability":"payable","type":"function"},{"inputs":[{"internalType":"address","name":"owner","type":"address"}],"name":"balanceOf","outputs":[{"internalType":"uint256","name":"","type":"uint256"}],"stateMutability":"view","type":"function"},{"inputs":[],"name":"baseExtension","outputs":[{"internalType":"string","name":"","type":"string"}],"stateMutability":"view","type":"function"},{"inputs":[],"name":"baseHiddenUri","outputs":[{"internalType":"string","name":"","type":"string"}],"stateMutability":"view","type":"function"},{"inputs":[],"name":"baseURI","outputs":[{"internalType":"string","name":"","type":"string"}],"stateMutability":"view","type":"function"},{"inputs":[{"internalType":"uint256","name":"tokenId","type":"uint256"}],"name":"getApproved","outputs":[{"internalType":"address","name":"","type":"address"}],"stateMutability":"view","type":"function"},{"inputs":[{"internalType":"address","name":"owner","type":"address"},{"internalType":"address","name":"operator","type":"address"}],"name":"isApprovedForAll","outputs":[{"internalType":"bool","name":"","type":"bool"}],"stateMutability":"view","type":"function"},{"inputs":[],"name":"maxMints","outputs":[{"internalType":"uint256","name":"","type":"uint256"}],"stateMutability":"view","type":"function"},{"inputs":[],"name":"maxSupply","outputs":[{"internalType":"uint256","name":"","type":"uint256"}],"stateMutability":"view","type":"function"},{"inputs":[],"name":"merkleRoot","outputs":[{"internalType":"bytes32","name":"","type":"bytes32"}],"stateMutability":"view","type":"function"},{"inputs":[{"internalType":"uint256","name":"quantity","type":"uint256"}],"name":"mint","outputs":[],"stateMutability":"payable","type":"function"},{"inputs":[],"name":"mintRate","outputs":[{"internalType":"uint256","name":"","type":"uint256"}],"stateMutability":"view","type":"function"},{"inputs":[],"name":"name","outputs":[{"internalType":"string","name":"","type":"string"}],"stateMutability":"view","type":"function"},{"inputs":[],"name":"owner","outputs":[{"internalType":"address","name":"","type":"address"}],"stateMutability":"view","type":"function"},{"inputs":[{"internalType":"uint256","name":"tokenId","type":"uint256"}],"name":"ownerOf","outputs":[{"internalType":"address","name":"","type":"address"}],"stateMutability":"view","type":"function"},{"inputs":[],"name":"publicSale","outputs":[{"internalType":"bool","name":"","type":"bool"}],"stateMutability":"view","type":"function"},{"inputs":[],"name":"renounceOwnership","outputs":[],"stateMutability":"nonpayable","type":"function"},{"inputs":[{"internalType":"uint256","name":"quantity","type":"uint256"}],"name":"reserveMint","outputs":[],"stateMutability":"nonpayable","type":"function"},{"inputs":[],"name":"revealed","outputs":[{"internalType":"bool","name":"","type":"bool"}],"stateMutability":"view","type":"function"},{"inputs":[{"internalType":"address","name":"from","type":"address"},{"internalType":"address","name":"to","type":"address"},{"internalType":"uint256","name":"tokenId","type":"uint256"}],"name":"safeTransferFrom","outputs":[],"stateMutability":"payable","type":"function"},{"inputs":[{"internalType":"address","name":"from","type":"address"},{"internalType":"address","name":"to","type":"address"},{"internalType":"uint256","name":"tokenId","type":"uint256"},{"internalType":"bytes","name":"_data","type":"bytes"}],"name":"safeTransferFrom","outputs":[],"stateMutability":"payable","type":"function"},{"inputs":[{"internalType":"address","name":"operator","type":"address"},{"internalType":"bool","name":"approved","type":"bool"}],"name":"setApprovalForAll","outputs":[],"stateMutability":"nonpayable","type":"function"},{"inputs":[{"internalType":"string","name":"_newBaseURI","type":"string"}],"name":"setBaseURI","outputs":[],"stateMutability":"nonpayable","type":"function"},{"inputs":[{"internalType":"bytes32","name":"_root","type":"bytes32"}],"name":"setMerkleRoot","outputs":[],"stateMutability":"nonpayable","type":"function"},{"inputs":[{"internalType":"string","name":"str","type":"string"},{"internalType":"uint256","name":"startIndex","type":"uint256"},{"internalType":"uint256","name":"endIndex","type":"uint256"}],"name":"substring","outputs":[{"internalType":"string","name":"","type":"string"}],"stateMutability":"pure","type":"function"},{"inputs":[{"internalType":"bytes4","name":"interfaceId","type":"bytes4"}],"name":"supportsInterface","outputs":[{"internalType":"bool","name":"","type":"bool"}],"stateMutability":"view","type":"function"},{"inputs":[],"name":"symbol","outputs":[{"internalType":"string","name":"","type":"string"}],"stateMutability":"view","type":"function"},{"inputs":[],"name":"togglePublicSale","outputs":[],"stateMutability":"nonpayable","type":"function"},{"inputs":[],"name":"toggleWhitelistSale","outputs":[],"stateMutability":"nonpayable","type":"function"},{"inputs":[{"internalType":"uint256","name":"tokenId","type":"uint256"}],"name":"tokenURI","outputs":[{"internalType":"string","name":"","type":"string"}],"stateMutability":"view","type":"function"},{"inputs":[],"name":"totalSupply","outputs":[{"internalType":"uint256","name":"","type":"uint256"}],"stateMutability":"view","type":"function"},{"inputs":[{"internalType":"address","name":"from","type":"address"},{"internalType":"address","name":"to","type":"address"},{"internalType":"uint256","name":"tokenId","type":"uint256"}],"name":"transferFrom","outputs":[],"stateMutability":"payable","type":"function"},{"inputs":[{"internalType":"address","name":"newOwner","type":"address"}],"name":"transferOwnership","outputs":[],"stateMutability":"nonpayable","type":"function"},{"inputs":[{"internalType":"address","name":"","type":"address"}],"name":"usedAddresses","outputs":[{"internalType":"uint256","name":"","type":"uint256"}],"stateMutability":"view","type":"function"},{"inputs":[],"name":"whiteListMaxMints","outputs":[{"internalType":"uint256","name":"","type":"uint256"}],"stateMutability":"view","type":"function"},{"inputs":[{"internalType":"uint256","name":"quantity","type":"uint256"},{"internalType":"bytes32[]","name":"proof","type":"bytes32[]"}],"name":"whiteListMint","outputs":[],"stateMutability":"payable","type":"function"},{"inputs":[{"internalType":"address","name":"","type":"address"}],"name":"whiteListUsedAddresses","outputs":[{"internalType":"uint256","name":"","type":"uint256"}],"stateMutability":"view","type":"function"},{"inputs":[],"name":"whitelistMintRate","outputs":[{"internalType":"uint256","name":"","type":"uint256"}],"stateMutability":"view","type":"function"},{"inputs":[],"name":"whitelistSale","outputs":[{"internalType":"bool","name":"","type":"bool"}],"stateMutability":"view","type":"function"},{"inputs":[],"name":"withdraw","outputs":[],"stateMutability":"nonpayable","type":"function"}],"evm":{"bytecode":{"linkReferences":{},"object":"60806040526005600b556002600c55611a0a600d5566670758aa7c8000600e5566670758aa7c8000600f556040518060400160405280600581526020017f2e6a736f6e00000000000000000000000000000000000000000000000000000081525060109080519060200190620000779291906200031d565b5060405180602001604052806000815250601190805190602001906200009f9291906200031d565b506040518060200160405280600081525060129080519060200190620000c79291906200031d565b506000601360006101000a81548160ff0219169083151502179055506000601360016101000a81548160ff0219169083151502179055506000601360026101000a81548160ff0219169083151502179055503480156200012657600080fd5b50604051620042c9380380620042c983398181016040528101906200014c91906200056a565b6040518060400160405280600f81526020017f4b6974737564656e466f78466f6e6500000000000000000000000000000000008152506040518060400160405280600581526020017f4b534446460000000000000000000000000000000000000000000000000000008152508160029080519060200190620001d09291906200031d565b508060039080519060200190620001e99291906200031d565b50620001fa6200024a60201b60201c565b600081905550505060016008819055506200022a6200021e6200024f60201b60201c565b6200025760201b60201c565b8060129080519060200190620002429291906200031d565b505062000620565b600090565b600033905090565b6000600960009054906101000a900473ffffffffffffffffffffffffffffffffffffffff16905081600960006101000a81548173ffffffffffffffffffffffffffffffffffffffff021916908373ffffffffffffffffffffffffffffffffffffffff1602179055508173ffffffffffffffffffffffffffffffffffffffff168173ffffffffffffffffffffffffffffffffffffffff167f8be0079c531659141344cd1fd0a4f28419497f9722a3daafe3b4186f6b6457e060405160405180910390a35050565b8280546200032b90620005ea565b90600052602060002090601f0160209004810192826200034f57600085556200039b565b82601f106200036a57805160ff19168380011785556200039b565b828001600101855582156200039b579182015b828111156200039a5782518255916020019190600101906200037d565b5b509050620003aa9190620003ae565b5090565b5b80821115620003c9576000816000905550600101620003af565b5090565b6000604051905090565b600080fd5b600080fd5b600080fd5b600080fd5b6000601f19601f8301169050919050565b7f4e487b7100000000000000000000000000000000000000000000000000000000600052604160045260246000fd5b6200043682620003eb565b810181811067ffffffffffffffff82111715620004585762000457620003fc565b5b80604052505050565b60006200046d620003cd565b90506200047b82826200042b565b919050565b600067ffffffffffffffff8211156200049e576200049d620003fc565b5b620004a982620003eb565b9050602081019050919050565b60005b83811015620004d6578082015181840152602081019050620004b9565b83811115620004e6576000848401525b50505050565b600062000503620004fd8462000480565b62000461565b905082815260208101848484011115620005225762000521620003e6565b5b6200052f848285620004b6565b509392505050565b600082601f8301126200054f576200054e620003e1565b5b815162000561848260208601620004ec565b91505092915050565b600060208284031215620005835762000582620003d7565b5b600082015167ffffffffffffffff811115620005a457620005a3620003dc565b5b620005b28482850162000537565b91505092915050565b7f4e487b7100000000000000000000000000000000000000000000000000000000600052602260045260246000fd5b600060028204905060018216806200060357607f821691505b602082108114156200061a5762000619620005bb565b5b50919050565b613c9980620006306000396000f3fe60806040526004361061023b5760003560e01c80636c0360eb1161012e578063b6b6f0c3116100ab578063d5abeb011161006f578063d5abeb0114610813578063e222c7f91461083e578063e985e9c514610855578063ee5735a814610892578063f2fde38b146108bd5761023b565b8063b6b6f0c314610739578063b88d4fde14610764578063c668286214610780578063c87b56dd146107ab578063ca0dcf16146107e85761023b565b80638fe11a97116100f25780638fe11a971461066157806395d89b411461068c578063a0712d68146106b7578063a22cb465146106d3578063acdce273146106fc5761023b565b80636c0360eb1461058e57806370a08231146105b9578063715018a6146105f65780637cb647591461060d5780638da5cb5b146106365761023b565b80632e809ec1116101bc57806342842e0e1161018057806342842e0e146104ca57806351830227146104e657806355f804b31461051157806359eda1b51461053a5780636352211e146105515761023b565b80632e809ec1146104075780632eb4a7ab1461043257806331ffd6f11461045d57806333bc1c5c146104885780633ccfd60b146104b35761023b565b80631342ff4c116102035780631342ff4c1461031d57806313bfabc01461034657806318160ddd146103835780631dcd9b55146103ae57806323b872dd146103eb5761023b565b806301ffc9a71461024057806306fdde031461027d578063081812fc146102a8578063095ea7b3146102e55780631187687514610301575b600080fd5b34801561024c57600080fd5b5061026760048036038101906102629190612c4b565b6108e6565b6040516102749190612c93565b60405180910390f35b34801561028957600080fd5b50610292610978565b60405161029f9190612d47565b60405180910390f35b3480156102b457600080fd5b506102cf60048036038101906102ca9190612d9f565b610a0a565b6040516102dc9190612e0d565b60405180910390f35b6102ff60048036038101906102fa9190612e54565b610a89565b005b61031b60048036038101906103169190612ef9565b610bcd565b005b34801561032957600080fd5b50610344600480360381019061033f9190612d9f565b610e29565b005b34801561035257600080fd5b5061036d60048036038101906103689190612f59565b610e8c565b60405161037a9190612f95565b60405180910390f35b34801561038f57600080fd5b50610398610ea4565b6040516103a59190612f95565b60405180910390f35b3480156103ba57600080fd5b506103d560048036038101906103d091906130e0565b610ebb565b6040516103e29190612d47565b60405180910390f35b6104056004803603810190610400919061314f565b610fb7565b005b34801561041357600080fd5b5061041c6112dc565b6040516104299190612f95565b60405180910390f35b34801561043e57600080fd5b506104476112e2565b60405161045491906131bb565b60405180910390f35b34801561046957600080fd5b506104726112e8565b60405161047f9190612c93565b60405180910390f35b34801561049457600080fd5b5061049d6112fb565b6040516104aa9190612c93565b60405180910390f35b3480156104bf57600080fd5b506104c861130e565b005b6104e460048036038101906104df919061314f565b611366565b005b3480156104f257600080fd5b506104fb611386565b6040516105089190612c93565b60405180910390f35b34801561051d57600080fd5b50610538600480360381019061053391906131d6565b611399565b005b34801561054657600080fd5b5061054f611512565b005b34801561055d57600080fd5b5061057860048036038101906105739190612d9f565b611546565b6040516105859190612e0d565b60405180910390f35b34801561059a57600080fd5b506105a3611558565b6040516105b09190612d47565b60405180910390f35b3480156105c557600080fd5b506105e060048036038101906105db9190612f59565b6115e6565b6040516105ed9190612f95565b60405180910390f35b34801561060257600080fd5b5061060b61169f565b005b34801561061957600080fd5b50610634600480360381019061062f919061324b565b6116b3565b005b34801561064257600080fd5b5061064b6116c5565b6040516106589190612e0d565b60405180910390f35b34801561066d57600080fd5b506106766116ef565b6040516106839190612d47565b60405180910390f35b34801561069857600080fd5b506106a161177d565b6040516106ae9190612d47565b60405180910390f35b6106d160048036038101906106cc9190612d9f565b61180f565b005b3480156106df57600080fd5b506106fa60048036038101906106f591906132a4565b611a28565b005b34801561070857600080fd5b50610723600480360381019061071e9190612f59565b611b33565b6040516107309190612f95565b60405180910390f35b34801561074557600080fd5b5061074e611b4b565b60405161075b9190612f95565b60405180910390f35b61077e60048036038101906107799190613385565b611b51565b005b34801561078c57600080fd5b50610795611bc4565b6040516107a29190612d47565b60405180910390f35b3480156107b757600080fd5b506107d260048036038101906107cd9190612d9f565b611c52565b6040516107df9190612d47565b60405180910390f35b3480156107f457600080fd5b506107fd611d71565b60405161080a9190612f95565b60405180910390f35b34801561081f57600080fd5b50610828611d77565b6040516108359190612f95565b60405180910390f35b34801561084a57600080fd5b50610853611d7d565b005b34801561086157600080fd5b5061087c60048036038101906108779190613408565b611db1565b6040516108899190612c93565b60405180910390f35b34801561089e57600080fd5b506108a7611e45565b6040516108b49190612f95565b60405180910390f35b3480156108c957600080fd5b506108e460048036038101906108df9190612f59565b611e4b565b005b60006301ffc9a760e01b827bffffffffffffffffffffffffffffffffffffffffffffffffffffffff1916148061094157506380ac58cd60e01b827bffffffffffffffffffffffffffffffffffffffffffffffffffffffff1916145b806109715750635b5e139f60e01b827bffffffffffffffffffffffffffffffffffffffffffffffffffffffff1916145b9050919050565b60606002805461098790613477565b80601f01602080910402602001604051908101604052809291908181526020018280546109b390613477565b8015610a005780601f106109d557610100808354040283529160200191610a00565b820191906000526020600020905b8154815290600101906020018083116109e357829003601f168201915b5050505050905090565b6000610a1582611ecf565b610a4b576040517fcf4700e400000000000000000000000000000000000000000000000000000000815260040160405180910390fd5b6006600083815260200190815260200160002060000160009054906101000a900473ffffffffffffffffffffffffffffffffffffffff169050919050565b6000610a9482611546565b90508073ffffffffffffffffffffffffffffffffffffffff16610ab5611f2e565b73ffffffffffffffffffffffffffffffffffffffff1614610b1857610ae181610adc611f2e565b611db1565b610b17576040517fcfb3b94200000000000000000000000000000000000000000000000000000000815260040160405180910390fd5b5b826006600084815260200190815260200160002060000160006101000a81548173ffffffffffffffffffffffffffffffffffffffff021916908373ffffffffffffffffffffffffffffffffffffffff160217905550818373ffffffffffffffffffffffffffffffffffffffff168273ffffffffffffffffffffffffffffffffffffffff167f8c5be1e5ebec7d5bd14f71427d1e84f3dd0314c0f7b2291e5b200ac8c7c3b92560405160405180910390a4505050565b60026008541415610c13576040517f08c379a0000000000000000000000000000000000000000000000000000000008152600401610c0a906134f5565b60405180910390fd5b6002600881905550601360029054906101000a900460ff16610c61576040517f1e94bf2d00000000000000000000000000000000000000000000000000000000815260040160405180910390fd5b610c6c338383611f36565b610ca2576040517f3f1636e200000000000000000000000000000000000000000000000000000000815260040160405180910390fd5b600d5483610cae610ea4565b610cb89190613544565b1115610cf0576040517f76592c6f00000000000000000000000000000000000000000000000000000000815260040160405180910390fd5b3483600f54610cff919061359a565b14610d36576040517fb457f15800000000000000000000000000000000000000000000000000000000815260040160405180910390fd5b600c5483601460003373ffffffffffffffffffffffffffffffffffffffff1673ffffffffffffffffffffffffffffffffffffffff16815260200190815260200160002054610d849190613544565b1115610dbc576040517f38d8b70c00000000000000000000000000000000000000000000000000000000815260040160405180910390fd5b82601460003373ffffffffffffffffffffffffffffffffffffffff1673ffffffffffffffffffffffffffffffffffffffff1681526020019081526020016000206000828254610e0b9190613544565b92505081905550610e1c3384611f94565b6001600881905550505050565b610e31612151565b600d5481610e3d610ea4565b610e479190613544565b1115610e7f576040517f76592c6f00000000000000000000000000000000000000000000000000000000815260040160405180910390fd5b610e893382611f94565b50565b60146020528060005260406000206000915090505481565b6000610eae6121cf565b6001546000540303905090565b6060600084905060008484610ed091906135f4565b67ffffffffffffffff811115610ee957610ee8612fb5565b5b6040519080825280601f01601f191660200182016040528015610f1b5781602001600182028036833780820191505090505b50905060008590505b84811015610faa57828181518110610f3f57610f3e613628565b5b602001015160f81c60f81b828783610f5791906135f4565b81518110610f6857610f67613628565b5b60200101907effffffffffffffffffffffffffffffffffffffffffffffffffffffffffffff1916908160001a9053508080610fa290613657565b915050610f24565b5080925050509392505050565b6000610fc2826121d4565b90508373ffffffffffffffffffffffffffffffffffffffff168173ffffffffffffffffffffffffffffffffffffffff1614611029576040517fa114810000000000000000000000000000000000000000000000000000000000815260040160405180910390fd5b600080611035846122a2565b9150915061104b8187611046611f2e565b6122c9565b611097576110608661105b611f2e565b611db1565b611096576040517f59c896be00000000000000000000000000000000000000000000000000000000815260040160405180910390fd5b5b600073ffffffffffffffffffffffffffffffffffffffff168573ffffffffffffffffffffffffffffffffffffffff1614156110fe576040517fea553b3400000000000000000000000000000000000000000000000000000000815260040160405180910390fd5b61110b868686600161230d565b801561111657600082555b600560008773ffffffffffffffffffffffffffffffffffffffff1673ffffffffffffffffffffffffffffffffffffffff168152602001908152602001600020600081546001900391905081905550600560008673ffffffffffffffffffffffffffffffffffffffff1673ffffffffffffffffffffffffffffffffffffffff16815260200190815260200160002060008154600101919050819055506111e4856111c0888887612313565b7c02000000000000000000000000000000000000000000000000000000001761233b565b600460008681526020019081526020016000208190555060007c02000000000000000000000000000000000000000000000000000000008416141561126c57600060018501905060006004600083815260200190815260200160002054141561126a576000548114611269578360046000838152602001908152602001600020819055505b5b505b838573ffffffffffffffffffffffffffffffffffffffff168773ffffffffffffffffffffffffffffffffffffffff167fddf252ad1be2c89b69c2b068fc378daa952ba7f163c4a11628f55a4df523b3ef60405160405180910390a46112d48686866001612366565b505050505050565b600f5481565b600a5481565b601360029054906101000a900460ff1681565b601360019054906101000a900460ff1681565b611316612151565b61131e6116c5565b73ffffffffffffffffffffffffffffffffffffffff166108fc479081150290604051600060405180830381858888f19350505050158015611363573d6000803e3d6000fd5b50565b61138183838360405180602001604052806000815250611b51565b505050565b601360009054906101000a900460ff1681565b6113a1612151565b60018151116113e5576040517f08c379a00000000000000000000000000000000000000000000000000000000081526004016113dc906136ec565b60405180910390fd5b60006113f08261236c565b9050600061140b8360018461140591906135f4565b84610ebb565b905061144c816040518060400160405280600181526020017f2f00000000000000000000000000000000000000000000000000000000000000815250612521565b61148b576040517f08c379a00000000000000000000000000000000000000000000000000000000081526004016114829061377e565b60405180910390fd5b601360009054906101000a900460ff16156114db576040517f08c379a00000000000000000000000000000000000000000000000000000000081526004016114d2906137ea565b60405180910390fd5b6001601360006101000a81548160ff021916908315150217905550826011908051906020019061150c929190612b3c565b50505050565b61151a612151565b601360029054906101000a900460ff1615601360026101000a81548160ff021916908315150217905550565b6000611551826121d4565b9050919050565b6011805461156590613477565b80601f016020809104026020016040519081016040528092919081815260200182805461159190613477565b80156115de5780601f106115b3576101008083540402835291602001916115de565b820191906000526020600020905b8154815290600101906020018083116115c157829003601f168201915b505050505081565b60008073ffffffffffffffffffffffffffffffffffffffff168273ffffffffffffffffffffffffffffffffffffffff16141561164e576040517f8f4eb60400000000000000000000000000000000000000000000000000000000815260040160405180910390fd5b67ffffffffffffffff600560008473ffffffffffffffffffffffffffffffffffffffff1673ffffffffffffffffffffffffffffffffffffffff16815260200190815260200160002054169050919050565b6116a7612151565b6116b1600061257a565b565b6116bb612151565b80600a8190555050565b6000600960009054906101000a900473ffffffffffffffffffffffffffffffffffffffff16905090565b601280546116fc90613477565b80601f016020809104026020016040519081016040528092919081815260200182805461172890613477565b80156117755780601f1061174a57610100808354040283529160200191611775565b820191906000526020600020905b81548152906001019060200180831161175857829003601f168201915b505050505081565b60606003805461178c90613477565b80601f01602080910402602001604051908101604052809291908181526020018280546117b890613477565b80156118055780601f106117da57610100808354040283529160200191611805565b820191906000526020600020905b8154815290600101906020018083116117e857829003601f168201915b5050505050905090565b60026008541415611855576040517f08c379a000000000000000000000000000000000000000000000000000000000815260040161184c906134f5565b60405180910390fd5b6002600881905550601360019054906101000a900460ff166118a3576040517fa9f4f87100000000000000000000000000000000000000000000000000000000815260040160405180910390fd5b600d54816118af610ea4565b6118b99190613544565b11156118f1576040517f76592c6f00000000000000000000000000000000000000000000000000000000815260040160405180910390fd5b3481600e54611900919061359a565b14611937576040517fb457f15800000000000000000000000000000000000000000000000000000000815260040160405180910390fd5b600b54601560003373ffffffffffffffffffffffffffffffffffffffff1673ffffffffffffffffffffffffffffffffffffffff16815260200190815260200160002054826119859190613544565b11156119bd576040517f38d8b70c00000000000000000000000000000000000000000000000000000000815260040160405180910390fd5b80601560003373ffffffffffffffffffffffffffffffffffffffff1673ffffffffffffffffffffffffffffffffffffffff1681526020019081526020016000206000828254611a0c9190613544565b92505081905550611a1d3382611f94565b600160088190555050565b8060076000611a35611f2e565b73ffffffffffffffffffffffffffffffffffffffff1673ffffffffffffffffffffffffffffffffffffffff16815260200190815260200160002060008473ffffffffffffffffffffffffffffffffffffffff1673ffffffffffffffffffffffffffffffffffffffff16815260200190815260200160002060006101000a81548160ff0219169083151502179055508173ffffffffffffffffffffffffffffffffffffffff16611ae2611f2e565b73ffffffffffffffffffffffffffffffffffffffff167f17307eab39ab6107e8899845ad3d59bd9653f200f220920489ca2b5937696c3183604051611b279190612c93565b60405180910390a35050565b60156020528060005260406000206000915090505481565b600b5481565b611b5c848484610fb7565b60008373ffffffffffffffffffffffffffffffffffffffff163b14611bbe57611b8784848484612640565b611bbd576040517fd1a57ed600000000000000000000000000000000000000000000000000000000815260040160405180910390fd5b5b50505050565b60108054611bd190613477565b80601f0160208091040260200160405190810160405280929190818152602001828054611bfd90613477565b8015611c4a5780601f10611c1f57610100808354040283529160200191611c4a565b820191906000526020600020905b815481529060010190602001808311611c2d57829003601f168201915b505050505081565b6060611c5d82611ecf565b611c9c576040517f08c379a0000000000000000000000000000000000000000000000000000000008152600401611c9390613856565b60405180910390fd5b601360009054906101000a900460ff16611d10576000611cba6127a0565b90506000815111611cda5760405180602001604052806000815250611d08565b80611ce484612832565b6010604051602001611cf893929190613946565b6040516020818303038152906040525b915050611d6c565b6000611d1a612993565b90506000815111611d3a5760405180602001604052806000815250611d68565b80611d4484612832565b6010604051602001611d5893929190613946565b6040516020818303038152906040525b9150505b919050565b600e5481565b600d5481565b611d85612151565b601360019054906101000a900460ff1615601360016101000a81548160ff021916908315150217905550565b6000600760008473ffffffffffffffffffffffffffffffffffffffff1673ffffffffffffffffffffffffffffffffffffffff16815260200190815260200160002060008373ffffffffffffffffffffffffffffffffffffffff1673ffffffffffffffffffffffffffffffffffffffff16815260200190815260200160002060009054906101000a900460ff16905092915050565b600c5481565b611e53612151565b600073ffffffffffffffffffffffffffffffffffffffff168173ffffffffffffffffffffffffffffffffffffffff161415611ec3576040517f08c379a0000000000000000000000000000000000000000000000000000000008152600401611eba906139e9565b60405180910390fd5b611ecc8161257a565b50565b600081611eda6121cf565b11158015611ee9575060005482105b8015611f27575060007c0100000000000000000000000000000000000000000000000000000000600460008581526020019081526020016000205416145b9050919050565b600033905090565b6000611f8b611f4485612a25565b848480806020026020016040519081016040528093929190818152602001838360200280828437600081840152601f19601f82011690508083019250505050505050612a55565b90509392505050565b6000805490506000821415611fd5576040517fb562e8dd00000000000000000000000000000000000000000000000000000000815260040160405180910390fd5b611fe2600084838561230d565b600160406001901b178202600560008573ffffffffffffffffffffffffffffffffffffffff1673ffffffffffffffffffffffffffffffffffffffff168152602001908152602001600020600082825401925050819055506120598361204a6000866000612313565b61205385612a6c565b1761233b565b6004600083815260200190815260200160002081905550600080838301905073ffffffffffffffffffffffffffffffffffffffff85169150828260007fddf252ad1be2c89b69c2b068fc378daa952ba7f163c4a11628f55a4df523b3ef600080a4600183015b8181146120fa57808360007fddf252ad1be2c89b69c2b068fc378daa952ba7f163c4a11628f55a4df523b3ef600080a46001810190506120bf565b506000821415612136576040517f2e07630000000000000000000000000000000000000000000000000000000000815260040160405180910390fd5b80600081905550505061214c6000848385612366565b505050565b612159612a7c565b73ffffffffffffffffffffffffffffffffffffffff166121776116c5565b73ffffffffffffffffffffffffffffffffffffffff16146121cd576040517f08c379a00000000000000000000000000000000000000000000000000000000081526004016121c490613a55565b60405180910390fd5b565b600090565b600080829050806121e36121cf565b1161226b5760005481101561226a5760006004600083815260200190815260200160002054905060007c010000000000000000000000000000000000000000000000000000000082161415612268575b600081141561225e576004600083600190039350838152602001908152602001600020549050612233565b809250505061229d565b505b5b6040517fdf2d9b4200000000000000000000000000000000000000000000000000000000815260040160405180910390fd5b919050565b60008060006006600085815260200190815260200160002090508092508254915050915091565b600073ffffffffffffffffffffffffffffffffffffffff8316925073ffffffffffffffffffffffffffffffffffffffff821691508382148383141790509392505050565b50505050565b60008060e883901c905060e861232a868684612a84565b62ffffff16901b9150509392505050565b600073ffffffffffffffffffffffffffffffffffffffff83169250814260a01b178317905092915050565b50505050565b60008060008084519050600092505b8082101561251657600085838151811061239857612397613628565b5b602001015160f81c60f81b9050608060f81b817effffffffffffffffffffffffffffffffffffffffffffffffffffffffffffff191610156123e7576001836123e09190613544565b9250612502565b60e060f81b817effffffffffffffffffffffffffffffffffffffffffffffffffffffffffffff19161015612429576002836124229190613544565b9250612501565b60f060f81b817effffffffffffffffffffffffffffffffffffffffffffffffffffffffffffff1916101561246b576003836124649190613544565b9250612500565b60f8801b817effffffffffffffffffffffffffffffffffffffffffffffffffffffffffffff191610156124ac576004836124a59190613544565b92506124ff565b60fc60f81b817effffffffffffffffffffffffffffffffffffffffffffffffffffffffffffff191610156124ee576005836124e79190613544565b92506124fe565b6006836124fb9190613544565b92505b5b5b5b5b50828061250e90613657565b93505061237b565b829350505050919050565b6000816040516020016125349190613a75565b604051602081830303815290604052805190602001208360405160200161255b9190613a75565b6040516020818303038152906040528051906020012014905092915050565b6000600960009054906101000a900473ffffffffffffffffffffffffffffffffffffffff16905081600960006101000a81548173ffffffffffffffffffffffffffffffffffffffff021916908373ffffffffffffffffffffffffffffffffffffffff1602179055508173ffffffffffffffffffffffffffffffffffffffff168173ffffffffffffffffffffffffffffffffffffffff167f8be0079c531659141344cd1fd0a4f28419497f9722a3daafe3b4186f6b6457e060405160405180910390a35050565b60008373ffffffffffffffffffffffffffffffffffffffff1663150b7a02612666611f2e565b8786866040518563ffffffff1660e01b81526004016126889493929190613ae1565b602060405180830381600087803b1580156126a257600080fd5b505af19250505080156126d357506040513d601f19601f820116820180604052508101906126d09190613b42565b60015b61274d573d8060008114612703576040519150601f19603f3d011682016040523d82523d6000602084013e612708565b606091505b50600081511415612745576040517fd1a57ed600000000000000000000000000000000000000000000000000000000815260040160405180910390fd5b805181602001fd5b63150b7a0260e01b7bffffffffffffffffffffffffffffffffffffffffffffffffffffffff1916817bffffffffffffffffffffffffffffffffffffffffffffffffffffffff191614915050949350505050565b6060601280546127af90613477565b80601f01602080910402602001604051908101604052809291908181526020018280546127db90613477565b80156128285780601f106127fd57610100808354040283529160200191612828565b820191906000526020600020905b81548152906001019060200180831161280b57829003601f168201915b5050505050905090565b6060600082141561287a576040518060400160405280600181526020017f3000000000000000000000000000000000000000000000000000000000000000815250905061298e565b600082905060005b600082146128ac57808061289590613657565b915050600a826128a59190613b9e565b9150612882565b60008167ffffffffffffffff8111156128c8576128c7612fb5565b5b6040519080825280601f01601f1916602001820160405280156128fa5781602001600182028036833780820191505090505b5090505b600085146129875760018261291391906135f4565b9150600a856129229190613bcf565b603061292e9190613544565b60f81b81838151811061294457612943613628565b5b60200101907effffffffffffffffffffffffffffffffffffffffffffffffffffffffffffff1916908160001a905350600a856129809190613b9e565b94506128fe565b8093505050505b919050565b6060601180546129a290613477565b80601f01602080910402602001604051908101604052809291908181526020018280546129ce90613477565b8015612a1b5780601f106129f057610100808354040283529160200191612a1b565b820191906000526020600020905b8154815290600101906020018083116129fe57829003601f168201915b5050505050905090565b600081604051602001612a389190613c48565b604051602081830303815290604052805190602001209050919050565b6000612a6482600a5485612a8d565b905092915050565b60006001821460e11b9050919050565b600033905090565b60009392505050565b600082612a9a8584612aa4565b1490509392505050565b60008082905060005b8451811015612aef57612ada82868381518110612acd57612acc613628565b5b6020026020010151612afa565b91508080612ae790613657565b915050612aad565b508091505092915050565b6000818310612b1257612b0d8284612b25565b612b1d565b612b1c8383612b25565b5b905092915050565b600082600052816020526040600020905092915050565b828054612b4890613477565b90600052602060002090601f016020900481019282612b6a5760008555612bb1565b82601f10612b8357805160ff1916838001178555612bb1565b82800160010185558215612bb1579182015b82811115612bb0578251825591602001919060010190612b95565b5b509050612bbe9190612bc2565b5090565b5b80821115612bdb576000816000905550600101612bc3565b5090565b6000604051905090565b600080fd5b600080fd5b60007fffffffff0000000000000000000000000000000000000000000000000000000082169050919050565b612c2881612bf3565b8114612c3357600080fd5b50565b600081359050612c4581612c1f565b92915050565b600060208284031215612c6157612c60612be9565b5b6000612c6f84828501612c36565b91505092915050565b60008115159050919050565b612c8d81612c78565b82525050565b6000602082019050612ca86000830184612c84565b92915050565b600081519050919050565b600082825260208201905092915050565b60005b83811015612ce8578082015181840152602081019050612ccd565b83811115612cf7576000848401525b50505050565b6000601f19601f8301169050919050565b6000612d1982612cae565b612d238185612cb9565b9350612d33818560208601612cca565b612d3c81612cfd565b840191505092915050565b60006020820190508181036000830152612d618184612d0e565b905092915050565b6000819050919050565b612d7c81612d69565b8114612d8757600080fd5b50565b600081359050612d9981612d73565b92915050565b600060208284031215612db557612db4612be9565b5b6000612dc384828501612d8a565b91505092915050565b600073ffffffffffffffffffffffffffffffffffffffff82169050919050565b6000612df782612dcc565b9050919050565b612e0781612dec565b82525050565b6000602082019050612e226000830184612dfe565b92915050565b612e3181612dec565b8114612e3c57600080fd5b50565b600081359050612e4e81612e28565b92915050565b60008060408385031215612e6b57612e6a612be9565b5b6000612e7985828601612e3f565b9250506020612e8a85828601612d8a565b9150509250929050565b600080fd5b600080fd5b600080fd5b60008083601f840112612eb957612eb8612e94565b5b8235905067ffffffffffffffff811115612ed657612ed5612e99565b5b602083019150836020820283011115612ef257612ef1612e9e565b5b9250929050565b600080600060408486031215612f1257612f11612be9565b5b6000612f2086828701612d8a565b935050602084013567ffffffffffffffff811115612f4157612f40612bee565b5b612f4d86828701612ea3565b92509250509250925092565b600060208284031215612f6f57612f6e612be9565b5b6000612f7d84828501612e3f565b91505092915050565b612f8f81612d69565b82525050565b6000602082019050612faa6000830184612f86565b92915050565b600080fd5b7f4e487b7100000000000000000000000000000000000000000000000000000000600052604160045260246000fd5b612fed82612cfd565b810181811067ffffffffffffffff8211171561300c5761300b612fb5565b5b80604052505050565b600061301f612bdf565b905061302b8282612fe4565b919050565b600067ffffffffffffffff82111561304b5761304a612fb5565b5b61305482612cfd565b9050602081019050919050565b82818337600083830152505050565b600061308361307e84613030565b613015565b90508281526020810184848401111561309f5761309e612fb0565b5b6130aa848285613061565b509392505050565b600082601f8301126130c7576130c6612e94565b5b81356130d7848260208601613070565b91505092915050565b6000806000606084860312156130f9576130f8612be9565b5b600084013567ffffffffffffffff81111561311757613116612bee565b5b613123868287016130b2565b935050602061313486828701612d8a565b925050604061314586828701612d8a565b9150509250925092565b60008060006060848603121561316857613167612be9565b5b600061317686828701612e3f565b935050602061318786828701612e3f565b925050604061319886828701612d8a565b9150509250925092565b6000819050919050565b6131b5816131a2565b82525050565b60006020820190506131d060008301846131ac565b92915050565b6000602082840312156131ec576131eb612be9565b5b600082013567ffffffffffffffff81111561320a57613209612bee565b5b613216848285016130b2565b91505092915050565b613228816131a2565b811461323357600080fd5b50565b6000813590506132458161321f565b92915050565b60006020828403121561326157613260612be9565b5b600061326f84828501613236565b91505092915050565b61328181612c78565b811461328c57600080fd5b50565b60008135905061329e81613278565b92915050565b600080604083850312156132bb576132ba612be9565b5b60006132c985828601612e3f565b92505060206132da8582860161328f565b9150509250929050565b600067ffffffffffffffff8211156132ff576132fe612fb5565b5b61330882612cfd565b9050602081019050919050565b6000613328613323846132e4565b613015565b90508281526020810184848401111561334457613343612fb0565b5b61334f848285613061565b509392505050565b600082601f83011261336c5761336b612e94565b5b813561337c848260208601613315565b91505092915050565b6000806000806080858703121561339f5761339e612be9565b5b60006133ad87828801612e3f565b94505060206133be87828801612e3f565b93505060406133cf87828801612d8a565b925050606085013567ffffffffffffffff8111156133f0576133ef612bee565b5b6133fc87828801613357565b91505092959194509250565b6000806040838503121561341f5761341e612be9565b5b600061342d85828601612e3f565b925050602061343e85828601612e3f565b9150509250929050565b7f4e487b7100000000000000000000000000000000000000000000000000000000600052602260045260246000fd5b6000600282049050600182168061348f57607f821691505b602082108114156134a3576134a2613448565b5b50919050565b7f5265656e7472616e637947756172643a207265656e7472616e742063616c6c00600082015250565b60006134df601f83612cb9565b91506134ea826134a9565b602082019050919050565b6000602082019050818103600083015261350e816134d2565b9050919050565b7f4e487b7100000000000000000000000000000000000000000000000000000000600052601160045260246000fd5b600061354f82612d69565b915061355a83612d69565b9250827fffffffffffffffffffffffffffffffffffffffffffffffffffffffffffffffff0382111561358f5761358e613515565b5b828201905092915050565b60006135a582612d69565b91506135b083612d69565b9250817fffffffffffffffffffffffffffffffffffffffffffffffffffffffffffffffff04831182151516156135e9576135e8613515565b5b828202905092915050565b60006135ff82612d69565b915061360a83612d69565b92508282101561361d5761361c613515565b5b828203905092915050565b7f4e487b7100000000000000000000000000000000000000000000000000000000600052603260045260246000fd5b600061366282612d69565b91507fffffffffffffffffffffffffffffffffffffffffffffffffffffffffffffffff82141561369557613694613515565b5b600182019050919050565b7f5f6e6577426173655552492063616e6e6f7420626520656d7074792100000000600082015250565b60006136d6601c83612cb9565b91506136e1826136a0565b602082019050919050565b60006020820190508181036000830152613705816136c9565b9050919050565b7f5f6e6577426173655552492073686f756c64206861766520612073756666697860008201527f206f6620272f2700000000000000000000000000000000000000000000000000602082015250565b6000613768602783612cb9565b91506137738261370c565b604082019050919050565b600060208201905081810360008301526137978161375b565b9050919050565b7f596f752063616e206f6e6c79207365742062617365555249206f6e6365210000600082015250565b60006137d4601e83612cb9565b91506137df8261379e565b602082019050919050565b60006020820190508181036000830152613803816137c7565b9050919050565b7f746f6b656e20646f6573206e6f74206578697374210000000000000000000000600082015250565b6000613840601583612cb9565b915061384b8261380a565b602082019050919050565b6000602082019050818103600083015261386f81613833565b9050919050565b600081905092915050565b600061388c82612cae565b6138968185613876565b93506138a6818560208601612cca565b80840191505092915050565b60008190508160005260206000209050919050565b600081546138d481613477565b6138de8186613876565b945060018216600081146138f9576001811461390a5761393d565b60ff1983168652818601935061393d565b613913856138b2565b60005b8381101561393557815481890152600182019150602081019050613916565b838801955050505b50505092915050565b60006139528286613881565b915061395e8285613881565b915061396a82846138c7565b9150819050949350505050565b7f4f776e61626c653a206e6577206f776e657220697320746865207a65726f206160008201527f6464726573730000000000000000000000000000000000000000000000000000602082015250565b60006139d3602683612cb9565b91506139de82613977565b604082019050919050565b60006020820190508181036000830152613a02816139c6565b9050919050565b7f4f776e61626c653a2063616c6c6572206973206e6f7420746865206f776e6572600082015250565b6000613a3f602083612cb9565b9150613a4a82613a09565b602082019050919050565b60006020820190508181036000830152613a6e81613a32565b9050919050565b6000613a818284613881565b915081905092915050565b600081519050919050565b600082825260208201905092915050565b6000613ab382613a8c565b613abd8185613a97565b9350613acd818560208601612cca565b613ad681612cfd565b840191505092915050565b6000608082019050613af66000830187612dfe565b613b036020830186612dfe565b613b106040830185612f86565b8181036060830152613b228184613aa8565b905095945050505050565b600081519050613b3c81612c1f565b92915050565b600060208284031215613b5857613b57612be9565b5b6000613b6684828501613b2d565b91505092915050565b7f4e487b7100000000000000000000000000000000000000000000000000000000600052601260045260246000fd5b6000613ba982612d69565b9150613bb483612d69565b925082613bc457613bc3613b6f565b5b828204905092915050565b6000613bda82612d69565b9150613be583612d69565b925082613bf557613bf4613b6f565b5b828206905092915050565b60008160601b9050919050565b6000613c1882613c00565b9050919050565b6000613c2a82613c0d565b9050919050565b613c42613c3d82612dec565b613c1f565b82525050565b6000613c548284613c31565b6014820191508190509291505056fea264697066735822122002ce6e7a97827f7312836b543d813aa6d06a12fa28b244ed31348b0323c6ce1464736f6c63430008090033","opcodes":"PUSH1 0x80 PUSH1 0x40 MSTORE PUSH1 0x5 PUSH1 0xB SSTORE PUSH1 0x2 PUSH1 0xC SSTORE PUSH2 0x1A0A PUSH1 0xD SSTORE PUSH7 0x670758AA7C8000 PUSH1 0xE SSTORE PUSH7 0x670758AA7C8000 PUSH1 0xF SSTORE PUSH1 0x40 MLOAD DUP1 PUSH1 0x40 ADD PUSH1 0x40 MSTORE DUP1 PUSH1 0x5 DUP2 MSTORE PUSH1 0x20 ADD PUSH32 0x2E6A736F6E000000000000000000000000000000000000000000000000000000 DUP2 MSTORE POP PUSH1 0x10 SWAP1 DUP1 MLOAD SWAP1 PUSH1 0x20 ADD SWAP1 PUSH3 0x77 SWAP3 SWAP2 SWAP1 PUSH3 0x31D JUMP JUMPDEST POP PUSH1 0x40 MLOAD DUP1 PUSH1 0x20 ADD PUSH1 0x40 MSTORE DUP1 PUSH1 0x0 DUP2 MSTORE POP PUSH1 0x11 SWAP1 DUP1 MLOAD SWAP1 PUSH1 0x20 ADD SWAP1 PUSH3 0x9F SWAP3 SWAP2 SWAP1 PUSH3 0x31D JUMP JUMPDEST POP PUSH1 0x40 MLOAD DUP1 PUSH1 0x20 ADD PUSH1 0x40 MSTORE DUP1 PUSH1 0x0 DUP2 MSTORE POP PUSH1 0x12 SWAP1 DUP1 MLOAD SWAP1 PUSH1 0x20 ADD SWAP1 PUSH3 0xC7 SWAP3 SWAP2 SWAP1 PUSH3 0x31D JUMP JUMPDEST POP PUSH1 0x0 PUSH1 0x13 PUSH1 0x0 PUSH2 0x100 EXP DUP2 SLOAD DUP2 PUSH1 0xFF MUL NOT AND SWAP1 DUP4 ISZERO ISZERO MUL OR SWAP1 SSTORE POP PUSH1 0x0 PUSH1 0x13 PUSH1 0x1 PUSH2 0x100 EXP DUP2 SLOAD DUP2 PUSH1 0xFF MUL NOT AND SWAP1 DUP4 ISZERO ISZERO MUL OR SWAP1 SSTORE POP PUSH1 0x0 PUSH1 0x13 PUSH1 0x2 PUSH2 0x100 EXP DUP2 SLOAD DUP2 PUSH1 0xFF MUL NOT AND SWAP1 DUP4 ISZERO ISZERO MUL OR SWAP1 SSTORE POP CALLVALUE DUP1 ISZERO PUSH3 0x126 JUMPI PUSH1 0x0 DUP1 REVERT JUMPDEST POP PUSH1 0x40 MLOAD PUSH3 0x42C9 CODESIZE SUB DUP1 PUSH3 0x42C9 DUP4 CODECOPY DUP2 DUP2 ADD PUSH1 0x40 MSTORE DUP2 ADD SWAP1 PUSH3 0x14C SWAP2 SWAP1 PUSH3 0x56A JUMP JUMPDEST PUSH1 0x40 MLOAD DUP1 PUSH1 0x40 ADD PUSH1 0x40 MSTORE DUP1 PUSH1 0xF DUP2 MSTORE PUSH1 0x20 ADD PUSH32 0x4B6974737564656E466F78466F6E650000000000000000000000000000000000 DUP2 MSTORE POP PUSH1 0x40 MLOAD DUP1 PUSH1 0x40 ADD PUSH1 0x40 MSTORE DUP1 PUSH1 0x5 DUP2 MSTORE PUSH1 0x20 ADD PUSH32 0x4B53444646000000000000000000000000000000000000000000000000000000 DUP2 MSTORE POP DUP2 PUSH1 0x2 SWAP1 DUP1 MLOAD SWAP1 PUSH1 0x20 ADD SWAP1 PUSH3 0x1D0 SWAP3 SWAP2 SWAP1 PUSH3 0x31D JUMP JUMPDEST POP DUP1 PUSH1 0x3 SWAP1 DUP1 MLOAD SWAP1 PUSH1 0x20 ADD SWAP1 PUSH3 0x1E9 SWAP3 SWAP2 SWAP1 PUSH3 0x31D JUMP JUMPDEST POP PUSH3 0x1FA PUSH3 0x24A PUSH1 0x20 SHL PUSH1 0x20 SHR JUMP JUMPDEST PUSH1 0x0 DUP2 SWAP1 SSTORE POP POP POP PUSH1 0x1 PUSH1 0x8 DUP2 SWAP1 SSTORE POP PUSH3 0x22A PUSH3 0x21E PUSH3 0x24F PUSH1 0x20 SHL PUSH1 0x20 SHR JUMP JUMPDEST PUSH3 0x257 PUSH1 0x20 SHL PUSH1 0x20 SHR JUMP JUMPDEST DUP1 PUSH1 0x12 SWAP1 DUP1 MLOAD SWAP1 PUSH1 0x20 ADD SWAP1 PUSH3 0x242 SWAP3 SWAP2 SWAP1 PUSH3 0x31D JUMP JUMPDEST POP POP PUSH3 0x620 JUMP JUMPDEST PUSH1 0x0 SWAP1 JUMP JUMPDEST PUSH1 0x0 CALLER SWAP1 POP SWAP1 JUMP JUMPDEST PUSH1 0x0 PUSH1 0x9 PUSH1 0x0 SWAP1 SLOAD SWAP1 PUSH2 0x100 EXP SWAP1 DIV PUSH20 0xFFFFFFFFFFFFFFFFFFFFFFFFFFFFFFFFFFFFFFFF AND SWAP1 POP DUP2 PUSH1 0x9 PUSH1 0x0 PUSH2 0x100 EXP DUP2 SLOAD DUP2 PUSH20 0xFFFFFFFFFFFFFFFFFFFFFFFFFFFFFFFFFFFFFFFF MUL NOT AND SWAP1 DUP4 PUSH20 0xFFFFFFFFFFFFFFFFFFFFFFFFFFFFFFFFFFFFFFFF AND MUL OR SWAP1 SSTORE POP DUP2 PUSH20 0xFFFFFFFFFFFFFFFFFFFFFFFFFFFFFFFFFFFFFFFF AND DUP2 PUSH20 0xFFFFFFFFFFFFFFFFFFFFFFFFFFFFFFFFFFFFFFFF AND PUSH32 0x8BE0079C531659141344CD1FD0A4F28419497F9722A3DAAFE3B4186F6B6457E0 PUSH1 0x40 MLOAD PUSH1 0x40 MLOAD DUP1 SWAP2 SUB SWAP1 LOG3 POP POP JUMP JUMPDEST DUP3 DUP1 SLOAD PUSH3 0x32B SWAP1 PUSH3 0x5EA JUMP JUMPDEST SWAP1 PUSH1 0x0 MSTORE PUSH1 0x20 PUSH1 0x0 KECCAK256 SWAP1 PUSH1 0x1F ADD PUSH1 0x20 SWAP1 DIV DUP2 ADD SWAP3 DUP3 PUSH3 0x34F JUMPI PUSH1 0x0 DUP6 SSTORE PUSH3 0x39B JUMP JUMPDEST DUP3 PUSH1 0x1F LT PUSH3 0x36A JUMPI DUP1 MLOAD PUSH1 0xFF NOT AND DUP4 DUP1 ADD OR DUP6 SSTORE PUSH3 0x39B JUMP JUMPDEST DUP3 DUP1 ADD PUSH1 0x1 ADD DUP6 SSTORE DUP3 ISZERO PUSH3 0x39B JUMPI SWAP2 DUP3 ADD JUMPDEST DUP3 DUP2 GT ISZERO PUSH3 0x39A JUMPI DUP3 MLOAD DUP3 SSTORE SWAP2 PUSH1 0x20 ADD SWAP2 SWAP1 PUSH1 0x1 ADD SWAP1 PUSH3 0x37D JUMP JUMPDEST JUMPDEST POP SWAP1 POP PUSH3 0x3AA SWAP2 SWAP1 PUSH3 0x3AE JUMP JUMPDEST POP SWAP1 JUMP JUMPDEST JUMPDEST DUP1 DUP3 GT ISZERO PUSH3 0x3C9 JUMPI PUSH1 0x0 DUP2 PUSH1 0x0 SWAP1 SSTORE POP PUSH1 0x1 ADD PUSH3 0x3AF JUMP JUMPDEST POP SWAP1 JUMP JUMPDEST PUSH1 0x0 PUSH1 0x40 MLOAD SWAP1 POP SWAP1 JUMP JUMPDEST PUSH1 0x0 DUP1 REVERT JUMPDEST PUSH1 0x0 DUP1 REVERT JUMPDEST PUSH1 0x0 DUP1 REVERT JUMPDEST PUSH1 0x0 DUP1 REVERT JUMPDEST PUSH1 0x0 PUSH1 0x1F NOT PUSH1 0x1F DUP4 ADD AND SWAP1 POP SWAP2 SWAP1 POP JUMP JUMPDEST PUSH32 0x4E487B7100000000000000000000000000000000000000000000000000000000 PUSH1 0x0 MSTORE PUSH1 0x41 PUSH1 0x4 MSTORE PUSH1 0x24 PUSH1 0x0 REVERT JUMPDEST PUSH3 0x436 DUP3 PUSH3 0x3EB JUMP JUMPDEST DUP2 ADD DUP2 DUP2 LT PUSH8 0xFFFFFFFFFFFFFFFF DUP3 GT OR ISZERO PUSH3 0x458 JUMPI PUSH3 0x457 PUSH3 0x3FC JUMP JUMPDEST JUMPDEST DUP1 PUSH1 0x40 MSTORE POP POP POP JUMP JUMPDEST PUSH1 0x0 PUSH3 0x46D PUSH3 0x3CD JUMP JUMPDEST SWAP1 POP PUSH3 0x47B DUP3 DUP3 PUSH3 0x42B JUMP JUMPDEST SWAP2 SWAP1 POP JUMP JUMPDEST PUSH1 0x0 PUSH8 0xFFFFFFFFFFFFFFFF DUP3 GT ISZERO PUSH3 0x49E JUMPI PUSH3 0x49D PUSH3 0x3FC JUMP JUMPDEST JUMPDEST PUSH3 0x4A9 DUP3 PUSH3 0x3EB JUMP JUMPDEST SWAP1 POP PUSH1 0x20 DUP2 ADD SWAP1 POP SWAP2 SWAP1 POP JUMP JUMPDEST PUSH1 0x0 JUMPDEST DUP4 DUP2 LT ISZERO PUSH3 0x4D6 JUMPI DUP1 DUP3 ADD MLOAD DUP2 DUP5 ADD MSTORE PUSH1 0x20 DUP2 ADD SWAP1 POP PUSH3 0x4B9 JUMP JUMPDEST DUP4 DUP2 GT ISZERO PUSH3 0x4E6 JUMPI PUSH1 0x0 DUP5 DUP5 ADD MSTORE JUMPDEST POP POP POP POP JUMP JUMPDEST PUSH1 0x0 PUSH3 0x503 PUSH3 0x4FD DUP5 PUSH3 0x480 JUMP JUMPDEST PUSH3 0x461 JUMP JUMPDEST SWAP1 POP DUP3 DUP2 MSTORE PUSH1 0x20 DUP2 ADD DUP5 DUP5 DUP5 ADD GT ISZERO PUSH3 0x522 JUMPI PUSH3 0x521 PUSH3 0x3E6 JUMP JUMPDEST JUMPDEST PUSH3 0x52F DUP5 DUP3 DUP6 PUSH3 0x4B6 JUMP JUMPDEST POP SWAP4 SWAP3 POP POP POP JUMP JUMPDEST PUSH1 0x0 DUP3 PUSH1 0x1F DUP4 ADD SLT PUSH3 0x54F JUMPI PUSH3 0x54E PUSH3 0x3E1 JUMP JUMPDEST JUMPDEST DUP2 MLOAD PUSH3 0x561 DUP5 DUP3 PUSH1 0x20 DUP7 ADD PUSH3 0x4EC JUMP JUMPDEST SWAP2 POP POP SWAP3 SWAP2 POP POP JUMP JUMPDEST PUSH1 0x0 PUSH1 0x20 DUP3 DUP5 SUB SLT ISZERO PUSH3 0x583 JUMPI PUSH3 0x582 PUSH3 0x3D7 JUMP JUMPDEST JUMPDEST PUSH1 0x0 DUP3 ADD MLOAD PUSH8 0xFFFFFFFFFFFFFFFF DUP2 GT ISZERO PUSH3 0x5A4 JUMPI PUSH3 0x5A3 PUSH3 0x3DC JUMP JUMPDEST JUMPDEST PUSH3 0x5B2 DUP5 DUP3 DUP6 ADD PUSH3 0x537 JUMP JUMPDEST SWAP2 POP POP SWAP3 SWAP2 POP POP JUMP JUMPDEST PUSH32 0x4E487B7100000000000000000000000000000000000000000000000000000000 PUSH1 0x0 MSTORE PUSH1 0x22 PUSH1 0x4 MSTORE PUSH1 0x24 PUSH1 0x0 REVERT JUMPDEST PUSH1 0x0 PUSH1 0x2 DUP3 DIV SWAP1 POP PUSH1 0x1 DUP3 AND DUP1 PUSH3 0x603 JUMPI PUSH1 0x7F DUP3 AND SWAP2 POP JUMPDEST PUSH1 0x20 DUP3 LT DUP2 EQ ISZERO PUSH3 0x61A JUMPI PUSH3 0x619 PUSH3 0x5BB JUMP JUMPDEST JUMPDEST POP SWAP2 SWAP1 POP JUMP JUMPDEST PUSH2 0x3C99 DUP1 PUSH3 0x630 PUSH1 0x0 CODECOPY PUSH1 0x0 RETURN INVALID PUSH1 0x80 PUSH1 0x40 MSTORE PUSH1 0x4 CALLDATASIZE LT PUSH2 0x23B JUMPI PUSH1 0x0 CALLDATALOAD PUSH1 0xE0 SHR DUP1 PUSH4 0x6C0360EB GT PUSH2 0x12E JUMPI DUP1 PUSH4 0xB6B6F0C3 GT PUSH2 0xAB JUMPI DUP1 PUSH4 0xD5ABEB01 GT PUSH2 0x6F JUMPI DUP1 PUSH4 0xD5ABEB01 EQ PUSH2 0x813 JUMPI DUP1 PUSH4 0xE222C7F9 EQ PUSH2 0x83E JUMPI DUP1 PUSH4 0xE985E9C5 EQ PUSH2 0x855 JUMPI DUP1 PUSH4 0xEE5735A8 EQ PUSH2 0x892 JUMPI DUP1 PUSH4 0xF2FDE38B EQ PUSH2 0x8BD JUMPI PUSH2 0x23B JUMP JUMPDEST DUP1 PUSH4 0xB6B6F0C3 EQ PUSH2 0x739 JUMPI DUP1 PUSH4 0xB88D4FDE EQ PUSH2 0x764 JUMPI DUP1 PUSH4 0xC6682862 EQ PUSH2 0x780 JUMPI DUP1 PUSH4 0xC87B56DD EQ PUSH2 0x7AB JUMPI DUP1 PUSH4 0xCA0DCF16 EQ PUSH2 0x7E8 JUMPI PUSH2 0x23B JUMP JUMPDEST DUP1 PUSH4 0x8FE11A97 GT PUSH2 0xF2 JUMPI DUP1 PUSH4 0x8FE11A97 EQ PUSH2 0x661 JUMPI DUP1 PUSH4 0x95D89B41 EQ PUSH2 0x68C JUMPI DUP1 PUSH4 0xA0712D68 EQ PUSH2 0x6B7 JUMPI DUP1 PUSH4 0xA22CB465 EQ PUSH2 0x6D3 JUMPI DUP1 PUSH4 0xACDCE273 EQ PUSH2 0x6FC JUMPI PUSH2 0x23B JUMP JUMPDEST DUP1 PUSH4 0x6C0360EB EQ PUSH2 0x58E JUMPI DUP1 PUSH4 0x70A08231 EQ PUSH2 0x5B9 JUMPI DUP1 PUSH4 0x715018A6 EQ PUSH2 0x5F6 JUMPI DUP1 PUSH4 0x7CB64759 EQ PUSH2 0x60D JUMPI DUP1 PUSH4 0x8DA5CB5B EQ PUSH2 0x636 JUMPI PUSH2 0x23B JUMP JUMPDEST DUP1 PUSH4 0x2E809EC1 GT PUSH2 0x1BC JUMPI DUP1 PUSH4 0x42842E0E GT PUSH2 0x180 JUMPI DUP1 PUSH4 0x42842E0E EQ PUSH2 0x4CA JUMPI DUP1 PUSH4 0x51830227 EQ PUSH2 0x4E6 JUMPI DUP1 PUSH4 0x55F804B3 EQ PUSH2 0x511 JUMPI DUP1 PUSH4 0x59EDA1B5 EQ PUSH2 0x53A JUMPI DUP1 PUSH4 0x6352211E EQ PUSH2 0x551 JUMPI PUSH2 0x23B JUMP JUMPDEST DUP1 PUSH4 0x2E809EC1 EQ PUSH2 0x407 JUMPI DUP1 PUSH4 0x2EB4A7AB EQ PUSH2 0x432 JUMPI DUP1 PUSH4 0x31FFD6F1 EQ PUSH2 0x45D JUMPI DUP1 PUSH4 0x33BC1C5C EQ PUSH2 0x488 JUMPI DUP1 PUSH4 0x3CCFD60B EQ PUSH2 0x4B3 JUMPI PUSH2 0x23B JUMP JUMPDEST DUP1 PUSH4 0x1342FF4C GT PUSH2 0x203 JUMPI DUP1 PUSH4 0x1342FF4C EQ PUSH2 0x31D JUMPI DUP1 PUSH4 0x13BFABC0 EQ PUSH2 0x346 JUMPI DUP1 PUSH4 0x18160DDD EQ PUSH2 0x383 JUMPI DUP1 PUSH4 0x1DCD9B55 EQ PUSH2 0x3AE JUMPI DUP1 PUSH4 0x23B872DD EQ PUSH2 0x3EB JUMPI PUSH2 0x23B JUMP JUMPDEST DUP1 PUSH4 0x1FFC9A7 EQ PUSH2 0x240 JUMPI DUP1 PUSH4 0x6FDDE03 EQ PUSH2 0x27D JUMPI DUP1 PUSH4 0x81812FC EQ PUSH2 0x2A8 JUMPI DUP1 PUSH4 0x95EA7B3 EQ PUSH2 0x2E5 JUMPI DUP1 PUSH4 0x11876875 EQ PUSH2 0x301 JUMPI JUMPDEST PUSH1 0x0 DUP1 REVERT JUMPDEST CALLVALUE DUP1 ISZERO PUSH2 0x24C JUMPI PUSH1 0x0 DUP1 REVERT JUMPDEST POP PUSH2 0x267 PUSH1 0x4 DUP1 CALLDATASIZE SUB DUP2 ADD SWAP1 PUSH2 0x262 SWAP2 SWAP1 PUSH2 0x2C4B JUMP JUMPDEST PUSH2 0x8E6 JUMP JUMPDEST PUSH1 0x40 MLOAD PUSH2 0x274 SWAP2 SWAP1 PUSH2 0x2C93 JUMP JUMPDEST PUSH1 0x40 MLOAD DUP1 SWAP2 SUB SWAP1 RETURN JUMPDEST CALLVALUE DUP1 ISZERO PUSH2 0x289 JUMPI PUSH1 0x0 DUP1 REVERT JUMPDEST POP PUSH2 0x292 PUSH2 0x978 JUMP JUMPDEST PUSH1 0x40 MLOAD PUSH2 0x29F SWAP2 SWAP1 PUSH2 0x2D47 JUMP JUMPDEST PUSH1 0x40 MLOAD DUP1 SWAP2 SUB SWAP1 RETURN JUMPDEST CALLVALUE DUP1 ISZERO PUSH2 0x2B4 JUMPI PUSH1 0x0 DUP1 REVERT JUMPDEST POP PUSH2 0x2CF PUSH1 0x4 DUP1 CALLDATASIZE SUB DUP2 ADD SWAP1 PUSH2 0x2CA SWAP2 SWAP1 PUSH2 0x2D9F JUMP JUMPDEST PUSH2 0xA0A JUMP JUMPDEST PUSH1 0x40 MLOAD PUSH2 0x2DC SWAP2 SWAP1 PUSH2 0x2E0D JUMP JUMPDEST PUSH1 0x40 MLOAD DUP1 SWAP2 SUB SWAP1 RETURN JUMPDEST PUSH2 0x2FF PUSH1 0x4 DUP1 CALLDATASIZE SUB DUP2 ADD SWAP1 PUSH2 0x2FA SWAP2 SWAP1 PUSH2 0x2E54 JUMP JUMPDEST PUSH2 0xA89 JUMP JUMPDEST STOP JUMPDEST PUSH2 0x31B PUSH1 0x4 DUP1 CALLDATASIZE SUB DUP2 ADD SWAP1 PUSH2 0x316 SWAP2 SWAP1 PUSH2 0x2EF9 JUMP JUMPDEST PUSH2 0xBCD JUMP JUMPDEST STOP JUMPDEST CALLVALUE DUP1 ISZERO PUSH2 0x329 JUMPI PUSH1 0x0 DUP1 REVERT JUMPDEST POP PUSH2 0x344 PUSH1 0x4 DUP1 CALLDATASIZE SUB DUP2 ADD SWAP1 PUSH2 0x33F SWAP2 SWAP1 PUSH2 0x2D9F JUMP JUMPDEST PUSH2 0xE29 JUMP JUMPDEST STOP JUMPDEST CALLVALUE DUP1 ISZERO PUSH2 0x352 JUMPI PUSH1 0x0 DUP1 REVERT JUMPDEST POP PUSH2 0x36D PUSH1 0x4 DUP1 CALLDATASIZE SUB DUP2 ADD SWAP1 PUSH2 0x368 SWAP2 SWAP1 PUSH2 0x2F59 JUMP JUMPDEST PUSH2 0xE8C JUMP JUMPDEST PUSH1 0x40 MLOAD PUSH2 0x37A SWAP2 SWAP1 PUSH2 0x2F95 JUMP JUMPDEST PUSH1 0x40 MLOAD DUP1 SWAP2 SUB SWAP1 RETURN JUMPDEST CALLVALUE DUP1 ISZERO PUSH2 0x38F JUMPI PUSH1 0x0 DUP1 REVERT JUMPDEST POP PUSH2 0x398 PUSH2 0xEA4 JUMP JUMPDEST PUSH1 0x40 MLOAD PUSH2 0x3A5 SWAP2 SWAP1 PUSH2 0x2F95 JUMP JUMPDEST PUSH1 0x40 MLOAD DUP1 SWAP2 SUB SWAP1 RETURN JUMPDEST CALLVALUE DUP1 ISZERO PUSH2 0x3BA JUMPI PUSH1 0x0 DUP1 REVERT JUMPDEST POP PUSH2 0x3D5 PUSH1 0x4 DUP1 CALLDATASIZE SUB DUP2 ADD SWAP1 PUSH2 0x3D0 SWAP2 SWAP1 PUSH2 0x30E0 JUMP JUMPDEST PUSH2 0xEBB JUMP JUMPDEST PUSH1 0x40 MLOAD PUSH2 0x3E2 SWAP2 SWAP1 PUSH2 0x2D47 JUMP JUMPDEST PUSH1 0x40 MLOAD DUP1 SWAP2 SUB SWAP1 RETURN JUMPDEST PUSH2 0x405 PUSH1 0x4 DUP1 CALLDATASIZE SUB DUP2 ADD SWAP1 PUSH2 0x400 SWAP2 SWAP1 PUSH2 0x314F JUMP JUMPDEST PUSH2 0xFB7 JUMP JUMPDEST STOP JUMPDEST CALLVALUE DUP1 ISZERO PUSH2 0x413 JUMPI PUSH1 0x0 DUP1 REVERT JUMPDEST POP PUSH2 0x41C PUSH2 0x12DC JUMP JUMPDEST PUSH1 0x40 MLOAD PUSH2 0x429 SWAP2 SWAP1 PUSH2 0x2F95 JUMP JUMPDEST PUSH1 0x40 MLOAD DUP1 SWAP2 SUB SWAP1 RETURN JUMPDEST CALLVALUE DUP1 ISZERO PUSH2 0x43E JUMPI PUSH1 0x0 DUP1 REVERT JUMPDEST POP PUSH2 0x447 PUSH2 0x12E2 JUMP JUMPDEST PUSH1 0x40 MLOAD PUSH2 0x454 SWAP2 SWAP1 PUSH2 0x31BB JUMP JUMPDEST PUSH1 0x40 MLOAD DUP1 SWAP2 SUB SWAP1 RETURN JUMPDEST CALLVALUE DUP1 ISZERO PUSH2 0x469 JUMPI PUSH1 0x0 DUP1 REVERT JUMPDEST POP PUSH2 0x472 PUSH2 0x12E8 JUMP JUMPDEST PUSH1 0x40 MLOAD PUSH2 0x47F SWAP2 SWAP1 PUSH2 0x2C93 JUMP JUMPDEST PUSH1 0x40 MLOAD DUP1 SWAP2 SUB SWAP1 RETURN JUMPDEST CALLVALUE DUP1 ISZERO PUSH2 0x494 JUMPI PUSH1 0x0 DUP1 REVERT JUMPDEST POP PUSH2 0x49D PUSH2 0x12FB JUMP JUMPDEST PUSH1 0x40 MLOAD PUSH2 0x4AA SWAP2 SWAP1 PUSH2 0x2C93 JUMP JUMPDEST PUSH1 0x40 MLOAD DUP1 SWAP2 SUB SWAP1 RETURN JUMPDEST CALLVALUE DUP1 ISZERO PUSH2 0x4BF JUMPI PUSH1 0x0 DUP1 REVERT JUMPDEST POP PUSH2 0x4C8 PUSH2 0x130E JUMP JUMPDEST STOP JUMPDEST PUSH2 0x4E4 PUSH1 0x4 DUP1 CALLDATASIZE SUB DUP2 ADD SWAP1 PUSH2 0x4DF SWAP2 SWAP1 PUSH2 0x314F JUMP JUMPDEST PUSH2 0x1366 JUMP JUMPDEST STOP JUMPDEST CALLVALUE DUP1 ISZERO PUSH2 0x4F2 JUMPI PUSH1 0x0 DUP1 REVERT JUMPDEST POP PUSH2 0x4FB PUSH2 0x1386 JUMP JUMPDEST PUSH1 0x40 MLOAD PUSH2 0x508 SWAP2 SWAP1 PUSH2 0x2C93 JUMP JUMPDEST PUSH1 0x40 MLOAD DUP1 SWAP2 SUB SWAP1 RETURN JUMPDEST CALLVALUE DUP1 ISZERO PUSH2 0x51D JUMPI PUSH1 0x0 DUP1 REVERT JUMPDEST POP PUSH2 0x538 PUSH1 0x4 DUP1 CALLDATASIZE SUB DUP2 ADD SWAP1 PUSH2 0x533 SWAP2 SWAP1 PUSH2 0x31D6 JUMP JUMPDEST PUSH2 0x1399 JUMP JUMPDEST STOP JUMPDEST CALLVALUE DUP1 ISZERO PUSH2 0x546 JUMPI PUSH1 0x0 DUP1 REVERT JUMPDEST POP PUSH2 0x54F PUSH2 0x1512 JUMP JUMPDEST STOP JUMPDEST CALLVALUE DUP1 ISZERO PUSH2 0x55D JUMPI PUSH1 0x0 DUP1 REVERT JUMPDEST POP PUSH2 0x578 PUSH1 0x4 DUP1 CALLDATASIZE SUB DUP2 ADD SWAP1 PUSH2 0x573 SWAP2 SWAP1 PUSH2 0x2D9F JUMP JUMPDEST PUSH2 0x1546 JUMP JUMPDEST PUSH1 0x40 MLOAD PUSH2 0x585 SWAP2 SWAP1 PUSH2 0x2E0D JUMP JUMPDEST PUSH1 0x40 MLOAD DUP1 SWAP2 SUB SWAP1 RETURN JUMPDEST CALLVALUE DUP1 ISZERO PUSH2 0x59A JUMPI PUSH1 0x0 DUP1 REVERT JUMPDEST POP PUSH2 0x5A3 PUSH2 0x1558 JUMP JUMPDEST PUSH1 0x40 MLOAD PUSH2 0x5B0 SWAP2 SWAP1 PUSH2 0x2D47 JUMP JUMPDEST PUSH1 0x40 MLOAD DUP1 SWAP2 SUB SWAP1 RETURN JUMPDEST CALLVALUE DUP1 ISZERO PUSH2 0x5C5 JUMPI PUSH1 0x0 DUP1 REVERT JUMPDEST POP PUSH2 0x5E0 PUSH1 0x4 DUP1 CALLDATASIZE SUB DUP2 ADD SWAP1 PUSH2 0x5DB SWAP2 SWAP1 PUSH2 0x2F59 JUMP JUMPDEST PUSH2 0x15E6 JUMP JUMPDEST PUSH1 0x40 MLOAD PUSH2 0x5ED SWAP2 SWAP1 PUSH2 0x2F95 JUMP JUMPDEST PUSH1 0x40 MLOAD DUP1 SWAP2 SUB SWAP1 RETURN JUMPDEST CALLVALUE DUP1 ISZERO PUSH2 0x602 JUMPI PUSH1 0x0 DUP1 REVERT JUMPDEST POP PUSH2 0x60B PUSH2 0x169F JUMP JUMPDEST STOP JUMPDEST CALLVALUE DUP1 ISZERO PUSH2 0x619 JUMPI PUSH1 0x0 DUP1 REVERT JUMPDEST POP PUSH2 0x634 PUSH1 0x4 DUP1 CALLDATASIZE SUB DUP2 ADD SWAP1 PUSH2 0x62F SWAP2 SWAP1 PUSH2 0x324B JUMP JUMPDEST PUSH2 0x16B3 JUMP JUMPDEST STOP JUMPDEST CALLVALUE DUP1 ISZERO PUSH2 0x642 JUMPI PUSH1 0x0 DUP1 REVERT JUMPDEST POP PUSH2 0x64B PUSH2 0x16C5 JUMP JUMPDEST PUSH1 0x40 MLOAD PUSH2 0x658 SWAP2 SWAP1 PUSH2 0x2E0D JUMP JUMPDEST PUSH1 0x40 MLOAD DUP1 SWAP2 SUB SWAP1 RETURN JUMPDEST CALLVALUE DUP1 ISZERO PUSH2 0x66D JUMPI PUSH1 0x0 DUP1 REVERT JUMPDEST POP PUSH2 0x676 PUSH2 0x16EF JUMP JUMPDEST PUSH1 0x40 MLOAD PUSH2 0x683 SWAP2 SWAP1 PUSH2 0x2D47 JUMP JUMPDEST PUSH1 0x40 MLOAD DUP1 SWAP2 SUB SWAP1 RETURN JUMPDEST CALLVALUE DUP1 ISZERO PUSH2 0x698 JUMPI PUSH1 0x0 DUP1 REVERT JUMPDEST POP PUSH2 0x6A1 PUSH2 0x177D JUMP JUMPDEST PUSH1 0x40 MLOAD PUSH2 0x6AE SWAP2 SWAP1 PUSH2 0x2D47 JUMP JUMPDEST PUSH1 0x40 MLOAD DUP1 SWAP2 SUB SWAP1 RETURN JUMPDEST PUSH2 0x6D1 PUSH1 0x4 DUP1 CALLDATASIZE SUB DUP2 ADD SWAP1 PUSH2 0x6CC SWAP2 SWAP1 PUSH2 0x2D9F JUMP JUMPDEST PUSH2 0x180F JUMP JUMPDEST STOP JUMPDEST CALLVALUE DUP1 ISZERO PUSH2 0x6DF JUMPI PUSH1 0x0 DUP1 REVERT JUMPDEST POP PUSH2 0x6FA PUSH1 0x4 DUP1 CALLDATASIZE SUB DUP2 ADD SWAP1 PUSH2 0x6F5 SWAP2 SWAP1 PUSH2 0x32A4 JUMP JUMPDEST PUSH2 0x1A28 JUMP JUMPDEST STOP JUMPDEST CALLVALUE DUP1 ISZERO PUSH2 0x708 JUMPI PUSH1 0x0 DUP1 REVERT JUMPDEST POP PUSH2 0x723 PUSH1 0x4 DUP1 CALLDATASIZE SUB DUP2 ADD SWAP1 PUSH2 0x71E SWAP2 SWAP1 PUSH2 0x2F59 JUMP JUMPDEST PUSH2 0x1B33 JUMP JUMPDEST PUSH1 0x40 MLOAD PUSH2 0x730 SWAP2 SWAP1 PUSH2 0x2F95 JUMP JUMPDEST PUSH1 0x40 MLOAD DUP1 SWAP2 SUB SWAP1 RETURN JUMPDEST CALLVALUE DUP1 ISZERO PUSH2 0x745 JUMPI PUSH1 0x0 DUP1 REVERT JUMPDEST POP PUSH2 0x74E PUSH2 0x1B4B JUMP JUMPDEST PUSH1 0x40 MLOAD PUSH2 0x75B SWAP2 SWAP1 PUSH2 0x2F95 JUMP JUMPDEST PUSH1 0x40 MLOAD DUP1 SWAP2 SUB SWAP1 RETURN JUMPDEST PUSH2 0x77E PUSH1 0x4 DUP1 CALLDATASIZE SUB DUP2 ADD SWAP1 PUSH2 0x779 SWAP2 SWAP1 PUSH2 0x3385 JUMP JUMPDEST PUSH2 0x1B51 JUMP JUMPDEST STOP JUMPDEST CALLVALUE DUP1 ISZERO PUSH2 0x78C JUMPI PUSH1 0x0 DUP1 REVERT JUMPDEST POP PUSH2 0x795 PUSH2 0x1BC4 JUMP JUMPDEST PUSH1 0x40 MLOAD PUSH2 0x7A2 SWAP2 SWAP1 PUSH2 0x2D47 JUMP JUMPDEST PUSH1 0x40 MLOAD DUP1 SWAP2 SUB SWAP1 RETURN JUMPDEST CALLVALUE DUP1 ISZERO PUSH2 0x7B7 JUMPI PUSH1 0x0 DUP1 REVERT JUMPDEST POP PUSH2 0x7D2 PUSH1 0x4 DUP1 CALLDATASIZE SUB DUP2 ADD SWAP1 PUSH2 0x7CD SWAP2 SWAP1 PUSH2 0x2D9F JUMP JUMPDEST PUSH2 0x1C52 JUMP JUMPDEST PUSH1 0x40 MLOAD PUSH2 0x7DF SWAP2 SWAP1 PUSH2 0x2D47 JUMP JUMPDEST PUSH1 0x40 MLOAD DUP1 SWAP2 SUB SWAP1 RETURN JUMPDEST CALLVALUE DUP1 ISZERO PUSH2 0x7F4 JUMPI PUSH1 0x0 DUP1 REVERT JUMPDEST POP PUSH2 0x7FD PUSH2 0x1D71 JUMP JUMPDEST PUSH1 0x40 MLOAD PUSH2 0x80A SWAP2 SWAP1 PUSH2 0x2F95 JUMP JUMPDEST PUSH1 0x40 MLOAD DUP1 SWAP2 SUB SWAP1 RETURN JUMPDEST CALLVALUE DUP1 ISZERO PUSH2 0x81F JUMPI PUSH1 0x0 DUP1 REVERT JUMPDEST POP PUSH2 0x828 PUSH2 0x1D77 JUMP JUMPDEST PUSH1 0x40 MLOAD PUSH2 0x835 SWAP2 SWAP1 PUSH2 0x2F95 JUMP JUMPDEST PUSH1 0x40 MLOAD DUP1 SWAP2 SUB SWAP1 RETURN JUMPDEST CALLVALUE DUP1 ISZERO PUSH2 0x84A JUMPI PUSH1 0x0 DUP1 REVERT JUMPDEST POP PUSH2 0x853 PUSH2 0x1D7D JUMP JUMPDEST STOP JUMPDEST CALLVALUE DUP1 ISZERO PUSH2 0x861 JUMPI PUSH1 0x0 DUP1 REVERT JUMPDEST POP PUSH2 0x87C PUSH1 0x4 DUP1 CALLDATASIZE SUB DUP2 ADD SWAP1 PUSH2 0x877 SWAP2 SWAP1 PUSH2 0x3408 JUMP JUMPDEST PUSH2 0x1DB1 JUMP JUMPDEST PUSH1 0x40 MLOAD PUSH2 0x889 SWAP2 SWAP1 PUSH2 0x2C93 JUMP JUMPDEST PUSH1 0x40 MLOAD DUP1 SWAP2 SUB SWAP1 RETURN JUMPDEST CALLVALUE DUP1 ISZERO PUSH2 0x89E JUMPI PUSH1 0x0 DUP1 REVERT JUMPDEST POP PUSH2 0x8A7 PUSH2 0x1E45 JUMP JUMPDEST PUSH1 0x40 MLOAD PUSH2 0x8B4 SWAP2 SWAP1 PUSH2 0x2F95 JUMP JUMPDEST PUSH1 0x40 MLOAD DUP1 SWAP2 SUB SWAP1 RETURN JUMPDEST CALLVALUE DUP1 ISZERO PUSH2 0x8C9 JUMPI PUSH1 0x0 DUP1 REVERT JUMPDEST POP PUSH2 0x8E4 PUSH1 0x4 DUP1 CALLDATASIZE SUB DUP2 ADD SWAP1 PUSH2 0x8DF SWAP2 SWAP1 PUSH2 0x2F59 JUMP JUMPDEST PUSH2 0x1E4B JUMP JUMPDEST STOP JUMPDEST PUSH1 0x0 PUSH4 0x1FFC9A7 PUSH1 0xE0 SHL DUP3 PUSH28 0xFFFFFFFFFFFFFFFFFFFFFFFFFFFFFFFFFFFFFFFFFFFFFFFFFFFFFFFF NOT AND EQ DUP1 PUSH2 0x941 JUMPI POP PUSH4 0x80AC58CD PUSH1 0xE0 SHL DUP3 PUSH28 0xFFFFFFFFFFFFFFFFFFFFFFFFFFFFFFFFFFFFFFFFFFFFFFFFFFFFFFFF NOT AND EQ JUMPDEST DUP1 PUSH2 0x971 JUMPI POP PUSH4 0x5B5E139F PUSH1 0xE0 SHL DUP3 PUSH28 0xFFFFFFFFFFFFFFFFFFFFFFFFFFFFFFFFFFFFFFFFFFFFFFFFFFFFFFFF NOT AND EQ JUMPDEST SWAP1 POP SWAP2 SWAP1 POP JUMP JUMPDEST PUSH1 0x60 PUSH1 0x2 DUP1 SLOAD PUSH2 0x987 SWAP1 PUSH2 0x3477 JUMP JUMPDEST DUP1 PUSH1 0x1F ADD PUSH1 0x20 DUP1 SWAP2 DIV MUL PUSH1 0x20 ADD PUSH1 0x40 MLOAD SWAP1 DUP2 ADD PUSH1 0x40 MSTORE DUP1 SWAP3 SWAP2 SWAP1 DUP2 DUP2 MSTORE PUSH1 0x20 ADD DUP3 DUP1 SLOAD PUSH2 0x9B3 SWAP1 PUSH2 0x3477 JUMP JUMPDEST DUP1 ISZERO PUSH2 0xA00 JUMPI DUP1 PUSH1 0x1F LT PUSH2 0x9D5 JUMPI PUSH2 0x100 DUP1 DUP4 SLOAD DIV MUL DUP4 MSTORE SWAP2 PUSH1 0x20 ADD SWAP2 PUSH2 0xA00 JUMP JUMPDEST DUP3 ADD SWAP2 SWAP1 PUSH1 0x0 MSTORE PUSH1 0x20 PUSH1 0x0 KECCAK256 SWAP1 JUMPDEST DUP2 SLOAD DUP2 MSTORE SWAP1 PUSH1 0x1 ADD SWAP1 PUSH1 0x20 ADD DUP1 DUP4 GT PUSH2 0x9E3 JUMPI DUP3 SWAP1 SUB PUSH1 0x1F AND DUP3 ADD SWAP2 JUMPDEST POP POP POP POP POP SWAP1 POP SWAP1 JUMP JUMPDEST PUSH1 0x0 PUSH2 0xA15 DUP3 PUSH2 0x1ECF JUMP JUMPDEST PUSH2 0xA4B JUMPI PUSH1 0x40 MLOAD PUSH32 0xCF4700E400000000000000000000000000000000000000000000000000000000 DUP2 MSTORE PUSH1 0x4 ADD PUSH1 0x40 MLOAD DUP1 SWAP2 SUB SWAP1 REVERT JUMPDEST PUSH1 0x6 PUSH1 0x0 DUP4 DUP2 MSTORE PUSH1 0x20 ADD SWAP1 DUP2 MSTORE PUSH1 0x20 ADD PUSH1 0x0 KECCAK256 PUSH1 0x0 ADD PUSH1 0x0 SWAP1 SLOAD SWAP1 PUSH2 0x100 EXP SWAP1 DIV PUSH20 0xFFFFFFFFFFFFFFFFFFFFFFFFFFFFFFFFFFFFFFFF AND SWAP1 POP SWAP2 SWAP1 POP JUMP JUMPDEST PUSH1 0x0 PUSH2 0xA94 DUP3 PUSH2 0x1546 JUMP JUMPDEST SWAP1 POP DUP1 PUSH20 0xFFFFFFFFFFFFFFFFFFFFFFFFFFFFFFFFFFFFFFFF AND PUSH2 0xAB5 PUSH2 0x1F2E JUMP JUMPDEST PUSH20 0xFFFFFFFFFFFFFFFFFFFFFFFFFFFFFFFFFFFFFFFF AND EQ PUSH2 0xB18 JUMPI PUSH2 0xAE1 DUP2 PUSH2 0xADC PUSH2 0x1F2E JUMP JUMPDEST PUSH2 0x1DB1 JUMP JUMPDEST PUSH2 0xB17 JUMPI PUSH1 0x40 MLOAD PUSH32 0xCFB3B94200000000000000000000000000000000000000000000000000000000 DUP2 MSTORE PUSH1 0x4 ADD PUSH1 0x40 MLOAD DUP1 SWAP2 SUB SWAP1 REVERT JUMPDEST JUMPDEST DUP3 PUSH1 0x6 PUSH1 0x0 DUP5 DUP2 MSTORE PUSH1 0x20 ADD SWAP1 DUP2 MSTORE PUSH1 0x20 ADD PUSH1 0x0 KECCAK256 PUSH1 0x0 ADD PUSH1 0x0 PUSH2 0x100 EXP DUP2 SLOAD DUP2 PUSH20 0xFFFFFFFFFFFFFFFFFFFFFFFFFFFFFFFFFFFFFFFF MUL NOT AND SWAP1 DUP4 PUSH20 0xFFFFFFFFFFFFFFFFFFFFFFFFFFFFFFFFFFFFFFFF AND MUL OR SWAP1 SSTORE POP DUP2 DUP4 PUSH20 0xFFFFFFFFFFFFFFFFFFFFFFFFFFFFFFFFFFFFFFFF AND DUP3 PUSH20 0xFFFFFFFFFFFFFFFFFFFFFFFFFFFFFFFFFFFFFFFF AND PUSH32 0x8C5BE1E5EBEC7D5BD14F71427D1E84F3DD0314C0F7B2291E5B200AC8C7C3B925 PUSH1 0x40 MLOAD PUSH1 0x40 MLOAD DUP1 SWAP2 SUB SWAP1 LOG4 POP POP POP JUMP JUMPDEST PUSH1 0x2 PUSH1 0x8 SLOAD EQ ISZERO PUSH2 0xC13 JUMPI PUSH1 0x40 MLOAD PUSH32 0x8C379A000000000000000000000000000000000000000000000000000000000 DUP2 MSTORE PUSH1 0x4 ADD PUSH2 0xC0A SWAP1 PUSH2 0x34F5 JUMP JUMPDEST PUSH1 0x40 MLOAD DUP1 SWAP2 SUB SWAP1 REVERT JUMPDEST PUSH1 0x2 PUSH1 0x8 DUP2 SWAP1 SSTORE POP PUSH1 0x13 PUSH1 0x2 SWAP1 SLOAD SWAP1 PUSH2 0x100 EXP SWAP1 DIV PUSH1 0xFF AND PUSH2 0xC61 JUMPI PUSH1 0x40 MLOAD PUSH32 0x1E94BF2D00000000000000000000000000000000000000000000000000000000 DUP2 MSTORE PUSH1 0x4 ADD PUSH1 0x40 MLOAD DUP1 SWAP2 SUB SWAP1 REVERT JUMPDEST PUSH2 0xC6C CALLER DUP4 DUP4 PUSH2 0x1F36 JUMP JUMPDEST PUSH2 0xCA2 JUMPI PUSH1 0x40 MLOAD PUSH32 0x3F1636E200000000000000000000000000000000000000000000000000000000 DUP2 MSTORE PUSH1 0x4 ADD PUSH1 0x40 MLOAD DUP1 SWAP2 SUB SWAP1 REVERT JUMPDEST PUSH1 0xD SLOAD DUP4 PUSH2 0xCAE PUSH2 0xEA4 JUMP JUMPDEST PUSH2 0xCB8 SWAP2 SWAP1 PUSH2 0x3544 JUMP JUMPDEST GT ISZERO PUSH2 0xCF0 JUMPI PUSH1 0x40 MLOAD PUSH32 0x76592C6F00000000000000000000000000000000000000000000000000000000 DUP2 MSTORE PUSH1 0x4 ADD PUSH1 0x40 MLOAD DUP1 SWAP2 SUB SWAP1 REVERT JUMPDEST CALLVALUE DUP4 PUSH1 0xF SLOAD PUSH2 0xCFF SWAP2 SWAP1 PUSH2 0x359A JUMP JUMPDEST EQ PUSH2 0xD36 JUMPI PUSH1 0x40 MLOAD PUSH32 0xB457F15800000000000000000000000000000000000000000000000000000000 DUP2 MSTORE PUSH1 0x4 ADD PUSH1 0x40 MLOAD DUP1 SWAP2 SUB SWAP1 REVERT JUMPDEST PUSH1 0xC SLOAD DUP4 PUSH1 0x14 PUSH1 0x0 CALLER PUSH20 0xFFFFFFFFFFFFFFFFFFFFFFFFFFFFFFFFFFFFFFFF AND PUSH20 0xFFFFFFFFFFFFFFFFFFFFFFFFFFFFFFFFFFFFFFFF AND DUP2 MSTORE PUSH1 0x20 ADD SWAP1 DUP2 MSTORE PUSH1 0x20 ADD PUSH1 0x0 KECCAK256 SLOAD PUSH2 0xD84 SWAP2 SWAP1 PUSH2 0x3544 JUMP JUMPDEST GT ISZERO PUSH2 0xDBC JUMPI PUSH1 0x40 MLOAD PUSH32 0x38D8B70C00000000000000000000000000000000000000000000000000000000 DUP2 MSTORE PUSH1 0x4 ADD PUSH1 0x40 MLOAD DUP1 SWAP2 SUB SWAP1 REVERT JUMPDEST DUP3 PUSH1 0x14 PUSH1 0x0 CALLER PUSH20 0xFFFFFFFFFFFFFFFFFFFFFFFFFFFFFFFFFFFFFFFF AND PUSH20 0xFFFFFFFFFFFFFFFFFFFFFFFFFFFFFFFFFFFFFFFF AND DUP2 MSTORE PUSH1 0x20 ADD SWAP1 DUP2 MSTORE PUSH1 0x20 ADD PUSH1 0x0 KECCAK256 PUSH1 0x0 DUP3 DUP3 SLOAD PUSH2 0xE0B SWAP2 SWAP1 PUSH2 0x3544 JUMP JUMPDEST SWAP3 POP POP DUP2 SWAP1 SSTORE POP PUSH2 0xE1C CALLER DUP5 PUSH2 0x1F94 JUMP JUMPDEST PUSH1 0x1 PUSH1 0x8 DUP2 SWAP1 SSTORE POP POP POP POP JUMP JUMPDEST PUSH2 0xE31 PUSH2 0x2151 JUMP JUMPDEST PUSH1 0xD SLOAD DUP2 PUSH2 0xE3D PUSH2 0xEA4 JUMP JUMPDEST PUSH2 0xE47 SWAP2 SWAP1 PUSH2 0x3544 JUMP JUMPDEST GT ISZERO PUSH2 0xE7F JUMPI PUSH1 0x40 MLOAD PUSH32 0x76592C6F00000000000000000000000000000000000000000000000000000000 DUP2 MSTORE PUSH1 0x4 ADD PUSH1 0x40 MLOAD DUP1 SWAP2 SUB SWAP1 REVERT JUMPDEST PUSH2 0xE89 CALLER DUP3 PUSH2 0x1F94 JUMP JUMPDEST POP JUMP JUMPDEST PUSH1 0x14 PUSH1 0x20 MSTORE DUP1 PUSH1 0x0 MSTORE PUSH1 0x40 PUSH1 0x0 KECCAK256 PUSH1 0x0 SWAP2 POP SWAP1 POP SLOAD DUP2 JUMP JUMPDEST PUSH1 0x0 PUSH2 0xEAE PUSH2 0x21CF JUMP JUMPDEST PUSH1 0x1 SLOAD PUSH1 0x0 SLOAD SUB SUB SWAP1 POP SWAP1 JUMP JUMPDEST PUSH1 0x60 PUSH1 0x0 DUP5 SWAP1 POP PUSH1 0x0 DUP5 DUP5 PUSH2 0xED0 SWAP2 SWAP1 PUSH2 0x35F4 JUMP JUMPDEST PUSH8 0xFFFFFFFFFFFFFFFF DUP2 GT ISZERO PUSH2 0xEE9 JUMPI PUSH2 0xEE8 PUSH2 0x2FB5 JUMP JUMPDEST JUMPDEST PUSH1 0x40 MLOAD SWAP1 DUP1 DUP3 MSTORE DUP1 PUSH1 0x1F ADD PUSH1 0x1F NOT AND PUSH1 0x20 ADD DUP3 ADD PUSH1 0x40 MSTORE DUP1 ISZERO PUSH2 0xF1B JUMPI DUP2 PUSH1 0x20 ADD PUSH1 0x1 DUP3 MUL DUP1 CALLDATASIZE DUP4 CALLDATACOPY DUP1 DUP3 ADD SWAP2 POP POP SWAP1 POP JUMPDEST POP SWAP1 POP PUSH1 0x0 DUP6 SWAP1 POP JUMPDEST DUP5 DUP2 LT ISZERO PUSH2 0xFAA JUMPI DUP3 DUP2 DUP2 MLOAD DUP2 LT PUSH2 0xF3F JUMPI PUSH2 0xF3E PUSH2 0x3628 JUMP JUMPDEST JUMPDEST PUSH1 0x20 ADD ADD MLOAD PUSH1 0xF8 SHR PUSH1 0xF8 SHL DUP3 DUP8 DUP4 PUSH2 0xF57 SWAP2 SWAP1 PUSH2 0x35F4 JUMP JUMPDEST DUP2 MLOAD DUP2 LT PUSH2 0xF68 JUMPI PUSH2 0xF67 PUSH2 0x3628 JUMP JUMPDEST JUMPDEST PUSH1 0x20 ADD ADD SWAP1 PUSH31 0xFFFFFFFFFFFFFFFFFFFFFFFFFFFFFFFFFFFFFFFFFFFFFFFFFFFFFFFFFFFFFF NOT AND SWAP1 DUP2 PUSH1 0x0 BYTE SWAP1 MSTORE8 POP DUP1 DUP1 PUSH2 0xFA2 SWAP1 PUSH2 0x3657 JUMP JUMPDEST SWAP2 POP POP PUSH2 0xF24 JUMP JUMPDEST POP DUP1 SWAP3 POP POP POP SWAP4 SWAP3 POP POP POP JUMP JUMPDEST PUSH1 0x0 PUSH2 0xFC2 DUP3 PUSH2 0x21D4 JUMP JUMPDEST SWAP1 POP DUP4 PUSH20 0xFFFFFFFFFFFFFFFFFFFFFFFFFFFFFFFFFFFFFFFF AND DUP2 PUSH20 0xFFFFFFFFFFFFFFFFFFFFFFFFFFFFFFFFFFFFFFFF AND EQ PUSH2 0x1029 JUMPI PUSH1 0x40 MLOAD PUSH32 0xA114810000000000000000000000000000000000000000000000000000000000 DUP2 MSTORE PUSH1 0x4 ADD PUSH1 0x40 MLOAD DUP1 SWAP2 SUB SWAP1 REVERT JUMPDEST PUSH1 0x0 DUP1 PUSH2 0x1035 DUP5 PUSH2 0x22A2 JUMP JUMPDEST SWAP2 POP SWAP2 POP PUSH2 0x104B DUP2 DUP8 PUSH2 0x1046 PUSH2 0x1F2E JUMP JUMPDEST PUSH2 0x22C9 JUMP JUMPDEST PUSH2 0x1097 JUMPI PUSH2 0x1060 DUP7 PUSH2 0x105B PUSH2 0x1F2E JUMP JUMPDEST PUSH2 0x1DB1 JUMP JUMPDEST PUSH2 0x1096 JUMPI PUSH1 0x40 MLOAD PUSH32 0x59C896BE00000000000000000000000000000000000000000000000000000000 DUP2 MSTORE PUSH1 0x4 ADD PUSH1 0x40 MLOAD DUP1 SWAP2 SUB SWAP1 REVERT JUMPDEST JUMPDEST PUSH1 0x0 PUSH20 0xFFFFFFFFFFFFFFFFFFFFFFFFFFFFFFFFFFFFFFFF AND DUP6 PUSH20 0xFFFFFFFFFFFFFFFFFFFFFFFFFFFFFFFFFFFFFFFF AND EQ ISZERO PUSH2 0x10FE JUMPI PUSH1 0x40 MLOAD PUSH32 0xEA553B3400000000000000000000000000000000000000000000000000000000 DUP2 MSTORE PUSH1 0x4 ADD PUSH1 0x40 MLOAD DUP1 SWAP2 SUB SWAP1 REVERT JUMPDEST PUSH2 0x110B DUP7 DUP7 DUP7 PUSH1 0x1 PUSH2 0x230D JUMP JUMPDEST DUP1 ISZERO PUSH2 0x1116 JUMPI PUSH1 0x0 DUP3 SSTORE JUMPDEST PUSH1 0x5 PUSH1 0x0 DUP8 PUSH20 0xFFFFFFFFFFFFFFFFFFFFFFFFFFFFFFFFFFFFFFFF AND PUSH20 0xFFFFFFFFFFFFFFFFFFFFFFFFFFFFFFFFFFFFFFFF AND DUP2 MSTORE PUSH1 0x20 ADD SWAP1 DUP2 MSTORE PUSH1 0x20 ADD PUSH1 0x0 KECCAK256 PUSH1 0x0 DUP2 SLOAD PUSH1 0x1 SWAP1 SUB SWAP2 SWAP1 POP DUP2 SWAP1 SSTORE POP PUSH1 0x5 PUSH1 0x0 DUP7 PUSH20 0xFFFFFFFFFFFFFFFFFFFFFFFFFFFFFFFFFFFFFFFF AND PUSH20 0xFFFFFFFFFFFFFFFFFFFFFFFFFFFFFFFFFFFFFFFF AND DUP2 MSTORE PUSH1 0x20 ADD SWAP1 DUP2 MSTORE PUSH1 0x20 ADD PUSH1 0x0 KECCAK256 PUSH1 0x0 DUP2 SLOAD PUSH1 0x1 ADD SWAP2 SWAP1 POP DUP2 SWAP1 SSTORE POP PUSH2 0x11E4 DUP6 PUSH2 0x11C0 DUP9 DUP9 DUP8 PUSH2 0x2313 JUMP JUMPDEST PUSH29 0x200000000000000000000000000000000000000000000000000000000 OR PUSH2 0x233B JUMP JUMPDEST PUSH1 0x4 PUSH1 0x0 DUP7 DUP2 MSTORE PUSH1 0x20 ADD SWAP1 DUP2 MSTORE PUSH1 0x20 ADD PUSH1 0x0 KECCAK256 DUP2 SWAP1 SSTORE POP PUSH1 0x0 PUSH29 0x200000000000000000000000000000000000000000000000000000000 DUP5 AND EQ ISZERO PUSH2 0x126C JUMPI PUSH1 0x0 PUSH1 0x1 DUP6 ADD SWAP1 POP PUSH1 0x0 PUSH1 0x4 PUSH1 0x0 DUP4 DUP2 MSTORE PUSH1 0x20 ADD SWAP1 DUP2 MSTORE PUSH1 0x20 ADD PUSH1 0x0 KECCAK256 SLOAD EQ ISZERO PUSH2 0x126A JUMPI PUSH1 0x0 SLOAD DUP2 EQ PUSH2 0x1269 JUMPI DUP4 PUSH1 0x4 PUSH1 0x0 DUP4 DUP2 MSTORE PUSH1 0x20 ADD SWAP1 DUP2 MSTORE PUSH1 0x20 ADD PUSH1 0x0 KECCAK256 DUP2 SWAP1 SSTORE POP JUMPDEST JUMPDEST POP JUMPDEST DUP4 DUP6 PUSH20 0xFFFFFFFFFFFFFFFFFFFFFFFFFFFFFFFFFFFFFFFF AND DUP8 PUSH20 0xFFFFFFFFFFFFFFFFFFFFFFFFFFFFFFFFFFFFFFFF AND PUSH32 0xDDF252AD1BE2C89B69C2B068FC378DAA952BA7F163C4A11628F55A4DF523B3EF PUSH1 0x40 MLOAD PUSH1 0x40 MLOAD DUP1 SWAP2 SUB SWAP1 LOG4 PUSH2 0x12D4 DUP7 DUP7 DUP7 PUSH1 0x1 PUSH2 0x2366 JUMP JUMPDEST POP POP POP POP POP POP JUMP JUMPDEST PUSH1 0xF SLOAD DUP2 JUMP JUMPDEST PUSH1 0xA SLOAD DUP2 JUMP JUMPDEST PUSH1 0x13 PUSH1 0x2 SWAP1 SLOAD SWAP1 PUSH2 0x100 EXP SWAP1 DIV PUSH1 0xFF AND DUP2 JUMP JUMPDEST PUSH1 0x13 PUSH1 0x1 SWAP1 SLOAD SWAP1 PUSH2 0x100 EXP SWAP1 DIV PUSH1 0xFF AND DUP2 JUMP JUMPDEST PUSH2 0x1316 PUSH2 0x2151 JUMP JUMPDEST PUSH2 0x131E PUSH2 0x16C5 JUMP JUMPDEST PUSH20 0xFFFFFFFFFFFFFFFFFFFFFFFFFFFFFFFFFFFFFFFF AND PUSH2 0x8FC SELFBALANCE SWAP1 DUP2 ISZERO MUL SWAP1 PUSH1 0x40 MLOAD PUSH1 0x0 PUSH1 0x40 MLOAD DUP1 DUP4 SUB DUP2 DUP6 DUP9 DUP9 CALL SWAP4 POP POP POP POP ISZERO DUP1 ISZERO PUSH2 0x1363 JUMPI RETURNDATASIZE PUSH1 0x0 DUP1 RETURNDATACOPY RETURNDATASIZE PUSH1 0x0 REVERT JUMPDEST POP JUMP JUMPDEST PUSH2 0x1381 DUP4 DUP4 DUP4 PUSH1 0x40 MLOAD DUP1 PUSH1 0x20 ADD PUSH1 0x40 MSTORE DUP1 PUSH1 0x0 DUP2 MSTORE POP PUSH2 0x1B51 JUMP JUMPDEST POP POP POP JUMP JUMPDEST PUSH1 0x13 PUSH1 0x0 SWAP1 SLOAD SWAP1 PUSH2 0x100 EXP SWAP1 DIV PUSH1 0xFF AND DUP2 JUMP JUMPDEST PUSH2 0x13A1 PUSH2 0x2151 JUMP JUMPDEST PUSH1 0x1 DUP2 MLOAD GT PUSH2 0x13E5 JUMPI PUSH1 0x40 MLOAD PUSH32 0x8C379A000000000000000000000000000000000000000000000000000000000 DUP2 MSTORE PUSH1 0x4 ADD PUSH2 0x13DC SWAP1 PUSH2 0x36EC JUMP JUMPDEST PUSH1 0x40 MLOAD DUP1 SWAP2 SUB SWAP1 REVERT JUMPDEST PUSH1 0x0 PUSH2 0x13F0 DUP3 PUSH2 0x236C JUMP JUMPDEST SWAP1 POP PUSH1 0x0 PUSH2 0x140B DUP4 PUSH1 0x1 DUP5 PUSH2 0x1405 SWAP2 SWAP1 PUSH2 0x35F4 JUMP JUMPDEST DUP5 PUSH2 0xEBB JUMP JUMPDEST SWAP1 POP PUSH2 0x144C DUP2 PUSH1 0x40 MLOAD DUP1 PUSH1 0x40 ADD PUSH1 0x40 MSTORE DUP1 PUSH1 0x1 DUP2 MSTORE PUSH1 0x20 ADD PUSH32 0x2F00000000000000000000000000000000000000000000000000000000000000 DUP2 MSTORE POP PUSH2 0x2521 JUMP JUMPDEST PUSH2 0x148B JUMPI PUSH1 0x40 MLOAD PUSH32 0x8C379A000000000000000000000000000000000000000000000000000000000 DUP2 MSTORE PUSH1 0x4 ADD PUSH2 0x1482 SWAP1 PUSH2 0x377E JUMP JUMPDEST PUSH1 0x40 MLOAD DUP1 SWAP2 SUB SWAP1 REVERT JUMPDEST PUSH1 0x13 PUSH1 0x0 SWAP1 SLOAD SWAP1 PUSH2 0x100 EXP SWAP1 DIV PUSH1 0xFF AND ISZERO PUSH2 0x14DB JUMPI PUSH1 0x40 MLOAD PUSH32 0x8C379A000000000000000000000000000000000000000000000000000000000 DUP2 MSTORE PUSH1 0x4 ADD PUSH2 0x14D2 SWAP1 PUSH2 0x37EA JUMP JUMPDEST PUSH1 0x40 MLOAD DUP1 SWAP2 SUB SWAP1 REVERT JUMPDEST PUSH1 0x1 PUSH1 0x13 PUSH1 0x0 PUSH2 0x100 EXP DUP2 SLOAD DUP2 PUSH1 0xFF MUL NOT AND SWAP1 DUP4 ISZERO ISZERO MUL OR SWAP1 SSTORE POP DUP3 PUSH1 0x11 SWAP1 DUP1 MLOAD SWAP1 PUSH1 0x20 ADD SWAP1 PUSH2 0x150C SWAP3 SWAP2 SWAP1 PUSH2 0x2B3C JUMP JUMPDEST POP POP POP POP JUMP JUMPDEST PUSH2 0x151A PUSH2 0x2151 JUMP JUMPDEST PUSH1 0x13 PUSH1 0x2 SWAP1 SLOAD SWAP1 PUSH2 0x100 EXP SWAP1 DIV PUSH1 0xFF AND ISZERO PUSH1 0x13 PUSH1 0x2 PUSH2 0x100 EXP DUP2 SLOAD DUP2 PUSH1 0xFF MUL NOT AND SWAP1 DUP4 ISZERO ISZERO MUL OR SWAP1 SSTORE POP JUMP JUMPDEST PUSH1 0x0 PUSH2 0x1551 DUP3 PUSH2 0x21D4 JUMP JUMPDEST SWAP1 POP SWAP2 SWAP1 POP JUMP JUMPDEST PUSH1 0x11 DUP1 SLOAD PUSH2 0x1565 SWAP1 PUSH2 0x3477 JUMP JUMPDEST DUP1 PUSH1 0x1F ADD PUSH1 0x20 DUP1 SWAP2 DIV MUL PUSH1 0x20 ADD PUSH1 0x40 MLOAD SWAP1 DUP2 ADD PUSH1 0x40 MSTORE DUP1 SWAP3 SWAP2 SWAP1 DUP2 DUP2 MSTORE PUSH1 0x20 ADD DUP3 DUP1 SLOAD PUSH2 0x1591 SWAP1 PUSH2 0x3477 JUMP JUMPDEST DUP1 ISZERO PUSH2 0x15DE JUMPI DUP1 PUSH1 0x1F LT PUSH2 0x15B3 JUMPI PUSH2 0x100 DUP1 DUP4 SLOAD DIV MUL DUP4 MSTORE SWAP2 PUSH1 0x20 ADD SWAP2 PUSH2 0x15DE JUMP JUMPDEST DUP3 ADD SWAP2 SWAP1 PUSH1 0x0 MSTORE PUSH1 0x20 PUSH1 0x0 KECCAK256 SWAP1 JUMPDEST DUP2 SLOAD DUP2 MSTORE SWAP1 PUSH1 0x1 ADD SWAP1 PUSH1 0x20 ADD DUP1 DUP4 GT PUSH2 0x15C1 JUMPI DUP3 SWAP1 SUB PUSH1 0x1F AND DUP3 ADD SWAP2 JUMPDEST POP POP POP POP POP DUP2 JUMP JUMPDEST PUSH1 0x0 DUP1 PUSH20 0xFFFFFFFFFFFFFFFFFFFFFFFFFFFFFFFFFFFFFFFF AND DUP3 PUSH20 0xFFFFFFFFFFFFFFFFFFFFFFFFFFFFFFFFFFFFFFFF AND EQ ISZERO PUSH2 0x164E JUMPI PUSH1 0x40 MLOAD PUSH32 0x8F4EB60400000000000000000000000000000000000000000000000000000000 DUP2 MSTORE PUSH1 0x4 ADD PUSH1 0x40 MLOAD DUP1 SWAP2 SUB SWAP1 REVERT JUMPDEST PUSH8 0xFFFFFFFFFFFFFFFF PUSH1 0x5 PUSH1 0x0 DUP5 PUSH20 0xFFFFFFFFFFFFFFFFFFFFFFFFFFFFFFFFFFFFFFFF AND PUSH20 0xFFFFFFFFFFFFFFFFFFFFFFFFFFFFFFFFFFFFFFFF AND DUP2 MSTORE PUSH1 0x20 ADD SWAP1 DUP2 MSTORE PUSH1 0x20 ADD PUSH1 0x0 KECCAK256 SLOAD AND SWAP1 POP SWAP2 SWAP1 POP JUMP JUMPDEST PUSH2 0x16A7 PUSH2 0x2151 JUMP JUMPDEST PUSH2 0x16B1 PUSH1 0x0 PUSH2 0x257A JUMP JUMPDEST JUMP JUMPDEST PUSH2 0x16BB PUSH2 0x2151 JUMP JUMPDEST DUP1 PUSH1 0xA DUP2 SWAP1 SSTORE POP POP JUMP JUMPDEST PUSH1 0x0 PUSH1 0x9 PUSH1 0x0 SWAP1 SLOAD SWAP1 PUSH2 0x100 EXP SWAP1 DIV PUSH20 0xFFFFFFFFFFFFFFFFFFFFFFFFFFFFFFFFFFFFFFFF AND SWAP1 POP SWAP1 JUMP JUMPDEST PUSH1 0x12 DUP1 SLOAD PUSH2 0x16FC SWAP1 PUSH2 0x3477 JUMP JUMPDEST DUP1 PUSH1 0x1F ADD PUSH1 0x20 DUP1 SWAP2 DIV MUL PUSH1 0x20 ADD PUSH1 0x40 MLOAD SWAP1 DUP2 ADD PUSH1 0x40 MSTORE DUP1 SWAP3 SWAP2 SWAP1 DUP2 DUP2 MSTORE PUSH1 0x20 ADD DUP3 DUP1 SLOAD PUSH2 0x1728 SWAP1 PUSH2 0x3477 JUMP JUMPDEST DUP1 ISZERO PUSH2 0x1775 JUMPI DUP1 PUSH1 0x1F LT PUSH2 0x174A JUMPI PUSH2 0x100 DUP1 DUP4 SLOAD DIV MUL DUP4 MSTORE SWAP2 PUSH1 0x20 ADD SWAP2 PUSH2 0x1775 JUMP JUMPDEST DUP3 ADD SWAP2 SWAP1 PUSH1 0x0 MSTORE PUSH1 0x20 PUSH1 0x0 KECCAK256 SWAP1 JUMPDEST DUP2 SLOAD DUP2 MSTORE SWAP1 PUSH1 0x1 ADD SWAP1 PUSH1 0x20 ADD DUP1 DUP4 GT PUSH2 0x1758 JUMPI DUP3 SWAP1 SUB PUSH1 0x1F AND DUP3 ADD SWAP2 JUMPDEST POP POP POP POP POP DUP2 JUMP JUMPDEST PUSH1 0x60 PUSH1 0x3 DUP1 SLOAD PUSH2 0x178C SWAP1 PUSH2 0x3477 JUMP JUMPDEST DUP1 PUSH1 0x1F ADD PUSH1 0x20 DUP1 SWAP2 DIV MUL PUSH1 0x20 ADD PUSH1 0x40 MLOAD SWAP1 DUP2 ADD PUSH1 0x40 MSTORE DUP1 SWAP3 SWAP2 SWAP1 DUP2 DUP2 MSTORE PUSH1 0x20 ADD DUP3 DUP1 SLOAD PUSH2 0x17B8 SWAP1 PUSH2 0x3477 JUMP JUMPDEST DUP1 ISZERO PUSH2 0x1805 JUMPI DUP1 PUSH1 0x1F LT PUSH2 0x17DA JUMPI PUSH2 0x100 DUP1 DUP4 SLOAD DIV MUL DUP4 MSTORE SWAP2 PUSH1 0x20 ADD SWAP2 PUSH2 0x1805 JUMP JUMPDEST DUP3 ADD SWAP2 SWAP1 PUSH1 0x0 MSTORE PUSH1 0x20 PUSH1 0x0 KECCAK256 SWAP1 JUMPDEST DUP2 SLOAD DUP2 MSTORE SWAP1 PUSH1 0x1 ADD SWAP1 PUSH1 0x20 ADD DUP1 DUP4 GT PUSH2 0x17E8 JUMPI DUP3 SWAP1 SUB PUSH1 0x1F AND DUP3 ADD SWAP2 JUMPDEST POP POP POP POP POP SWAP1 POP SWAP1 JUMP JUMPDEST PUSH1 0x2 PUSH1 0x8 SLOAD EQ ISZERO PUSH2 0x1855 JUMPI PUSH1 0x40 MLOAD PUSH32 0x8C379A000000000000000000000000000000000000000000000000000000000 DUP2 MSTORE PUSH1 0x4 ADD PUSH2 0x184C SWAP1 PUSH2 0x34F5 JUMP JUMPDEST PUSH1 0x40 MLOAD DUP1 SWAP2 SUB SWAP1 REVERT JUMPDEST PUSH1 0x2 PUSH1 0x8 DUP2 SWAP1 SSTORE POP PUSH1 0x13 PUSH1 0x1 SWAP1 SLOAD SWAP1 PUSH2 0x100 EXP SWAP1 DIV PUSH1 0xFF AND PUSH2 0x18A3 JUMPI PUSH1 0x40 MLOAD PUSH32 0xA9F4F87100000000000000000000000000000000000000000000000000000000 DUP2 MSTORE PUSH1 0x4 ADD PUSH1 0x40 MLOAD DUP1 SWAP2 SUB SWAP1 REVERT JUMPDEST PUSH1 0xD SLOAD DUP2 PUSH2 0x18AF PUSH2 0xEA4 JUMP JUMPDEST PUSH2 0x18B9 SWAP2 SWAP1 PUSH2 0x3544 JUMP JUMPDEST GT ISZERO PUSH2 0x18F1 JUMPI PUSH1 0x40 MLOAD PUSH32 0x76592C6F00000000000000000000000000000000000000000000000000000000 DUP2 MSTORE PUSH1 0x4 ADD PUSH1 0x40 MLOAD DUP1 SWAP2 SUB SWAP1 REVERT JUMPDEST CALLVALUE DUP2 PUSH1 0xE SLOAD PUSH2 0x1900 SWAP2 SWAP1 PUSH2 0x359A JUMP JUMPDEST EQ PUSH2 0x1937 JUMPI PUSH1 0x40 MLOAD PUSH32 0xB457F15800000000000000000000000000000000000000000000000000000000 DUP2 MSTORE PUSH1 0x4 ADD PUSH1 0x40 MLOAD DUP1 SWAP2 SUB SWAP1 REVERT JUMPDEST PUSH1 0xB SLOAD PUSH1 0x15 PUSH1 0x0 CALLER PUSH20 0xFFFFFFFFFFFFFFFFFFFFFFFFFFFFFFFFFFFFFFFF AND PUSH20 0xFFFFFFFFFFFFFFFFFFFFFFFFFFFFFFFFFFFFFFFF AND DUP2 MSTORE PUSH1 0x20 ADD SWAP1 DUP2 MSTORE PUSH1 0x20 ADD PUSH1 0x0 KECCAK256 SLOAD DUP3 PUSH2 0x1985 SWAP2 SWAP1 PUSH2 0x3544 JUMP JUMPDEST GT ISZERO PUSH2 0x19BD JUMPI PUSH1 0x40 MLOAD PUSH32 0x38D8B70C00000000000000000000000000000000000000000000000000000000 DUP2 MSTORE PUSH1 0x4 ADD PUSH1 0x40 MLOAD DUP1 SWAP2 SUB SWAP1 REVERT JUMPDEST DUP1 PUSH1 0x15 PUSH1 0x0 CALLER PUSH20 0xFFFFFFFFFFFFFFFFFFFFFFFFFFFFFFFFFFFFFFFF AND PUSH20 0xFFFFFFFFFFFFFFFFFFFFFFFFFFFFFFFFFFFFFFFF AND DUP2 MSTORE PUSH1 0x20 ADD SWAP1 DUP2 MSTORE PUSH1 0x20 ADD PUSH1 0x0 KECCAK256 PUSH1 0x0 DUP3 DUP3 SLOAD PUSH2 0x1A0C SWAP2 SWAP1 PUSH2 0x3544 JUMP JUMPDEST SWAP3 POP POP DUP2 SWAP1 SSTORE POP PUSH2 0x1A1D CALLER DUP3 PUSH2 0x1F94 JUMP JUMPDEST PUSH1 0x1 PUSH1 0x8 DUP2 SWAP1 SSTORE POP POP JUMP JUMPDEST DUP1 PUSH1 0x7 PUSH1 0x0 PUSH2 0x1A35 PUSH2 0x1F2E JUMP JUMPDEST PUSH20 0xFFFFFFFFFFFFFFFFFFFFFFFFFFFFFFFFFFFFFFFF AND PUSH20 0xFFFFFFFFFFFFFFFFFFFFFFFFFFFFFFFFFFFFFFFF AND DUP2 MSTORE PUSH1 0x20 ADD SWAP1 DUP2 MSTORE PUSH1 0x20 ADD PUSH1 0x0 KECCAK256 PUSH1 0x0 DUP5 PUSH20 0xFFFFFFFFFFFFFFFFFFFFFFFFFFFFFFFFFFFFFFFF AND PUSH20 0xFFFFFFFFFFFFFFFFFFFFFFFFFFFFFFFFFFFFFFFF AND DUP2 MSTORE PUSH1 0x20 ADD SWAP1 DUP2 MSTORE PUSH1 0x20 ADD PUSH1 0x0 KECCAK256 PUSH1 0x0 PUSH2 0x100 EXP DUP2 SLOAD DUP2 PUSH1 0xFF MUL NOT AND SWAP1 DUP4 ISZERO ISZERO MUL OR SWAP1 SSTORE POP DUP2 PUSH20 0xFFFFFFFFFFFFFFFFFFFFFFFFFFFFFFFFFFFFFFFF AND PUSH2 0x1AE2 PUSH2 0x1F2E JUMP JUMPDEST PUSH20 0xFFFFFFFFFFFFFFFFFFFFFFFFFFFFFFFFFFFFFFFF AND PUSH32 0x17307EAB39AB6107E8899845AD3D59BD9653F200F220920489CA2B5937696C31 DUP4 PUSH1 0x40 MLOAD PUSH2 0x1B27 SWAP2 SWAP1 PUSH2 0x2C93 JUMP JUMPDEST PUSH1 0x40 MLOAD DUP1 SWAP2 SUB SWAP1 LOG3 POP POP JUMP JUMPDEST PUSH1 0x15 PUSH1 0x20 MSTORE DUP1 PUSH1 0x0 MSTORE PUSH1 0x40 PUSH1 0x0 KECCAK256 PUSH1 0x0 SWAP2 POP SWAP1 POP SLOAD DUP2 JUMP JUMPDEST PUSH1 0xB SLOAD DUP2 JUMP JUMPDEST PUSH2 0x1B5C DUP5 DUP5 DUP5 PUSH2 0xFB7 JUMP JUMPDEST PUSH1 0x0 DUP4 PUSH20 0xFFFFFFFFFFFFFFFFFFFFFFFFFFFFFFFFFFFFFFFF AND EXTCODESIZE EQ PUSH2 0x1BBE JUMPI PUSH2 0x1B87 DUP5 DUP5 DUP5 DUP5 PUSH2 0x2640 JUMP JUMPDEST PUSH2 0x1BBD JUMPI PUSH1 0x40 MLOAD PUSH32 0xD1A57ED600000000000000000000000000000000000000000000000000000000 DUP2 MSTORE PUSH1 0x4 ADD PUSH1 0x40 MLOAD DUP1 SWAP2 SUB SWAP1 REVERT JUMPDEST JUMPDEST POP POP POP POP JUMP JUMPDEST PUSH1 0x10 DUP1 SLOAD PUSH2 0x1BD1 SWAP1 PUSH2 0x3477 JUMP JUMPDEST DUP1 PUSH1 0x1F ADD PUSH1 0x20 DUP1 SWAP2 DIV MUL PUSH1 0x20 ADD PUSH1 0x40 MLOAD SWAP1 DUP2 ADD PUSH1 0x40 MSTORE DUP1 SWAP3 SWAP2 SWAP1 DUP2 DUP2 MSTORE PUSH1 0x20 ADD DUP3 DUP1 SLOAD PUSH2 0x1BFD SWAP1 PUSH2 0x3477 JUMP JUMPDEST DUP1 ISZERO PUSH2 0x1C4A JUMPI DUP1 PUSH1 0x1F LT PUSH2 0x1C1F JUMPI PUSH2 0x100 DUP1 DUP4 SLOAD DIV MUL DUP4 MSTORE SWAP2 PUSH1 0x20 ADD SWAP2 PUSH2 0x1C4A JUMP JUMPDEST DUP3 ADD SWAP2 SWAP1 PUSH1 0x0 MSTORE PUSH1 0x20 PUSH1 0x0 KECCAK256 SWAP1 JUMPDEST DUP2 SLOAD DUP2 MSTORE SWAP1 PUSH1 0x1 ADD SWAP1 PUSH1 0x20 ADD DUP1 DUP4 GT PUSH2 0x1C2D JUMPI DUP3 SWAP1 SUB PUSH1 0x1F AND DUP3 ADD SWAP2 JUMPDEST POP POP POP POP POP DUP2 JUMP JUMPDEST PUSH1 0x60 PUSH2 0x1C5D DUP3 PUSH2 0x1ECF JUMP JUMPDEST PUSH2 0x1C9C JUMPI PUSH1 0x40 MLOAD PUSH32 0x8C379A000000000000000000000000000000000000000000000000000000000 DUP2 MSTORE PUSH1 0x4 ADD PUSH2 0x1C93 SWAP1 PUSH2 0x3856 JUMP JUMPDEST PUSH1 0x40 MLOAD DUP1 SWAP2 SUB SWAP1 REVERT JUMPDEST PUSH1 0x13 PUSH1 0x0 SWAP1 SLOAD SWAP1 PUSH2 0x100 EXP SWAP1 DIV PUSH1 0xFF AND PUSH2 0x1D10 JUMPI PUSH1 0x0 PUSH2 0x1CBA PUSH2 0x27A0 JUMP JUMPDEST SWAP1 POP PUSH1 0x0 DUP2 MLOAD GT PUSH2 0x1CDA JUMPI PUSH1 0x40 MLOAD DUP1 PUSH1 0x20 ADD PUSH1 0x40 MSTORE DUP1 PUSH1 0x0 DUP2 MSTORE POP PUSH2 0x1D08 JUMP JUMPDEST DUP1 PUSH2 0x1CE4 DUP5 PUSH2 0x2832 JUMP JUMPDEST PUSH1 0x10 PUSH1 0x40 MLOAD PUSH1 0x20 ADD PUSH2 0x1CF8 SWAP4 SWAP3 SWAP2 SWAP1 PUSH2 0x3946 JUMP JUMPDEST PUSH1 0x40 MLOAD PUSH1 0x20 DUP2 DUP4 SUB SUB DUP2 MSTORE SWAP1 PUSH1 0x40 MSTORE JUMPDEST SWAP2 POP POP PUSH2 0x1D6C JUMP JUMPDEST PUSH1 0x0 PUSH2 0x1D1A PUSH2 0x2993 JUMP JUMPDEST SWAP1 POP PUSH1 0x0 DUP2 MLOAD GT PUSH2 0x1D3A JUMPI PUSH1 0x40 MLOAD DUP1 PUSH1 0x20 ADD PUSH1 0x40 MSTORE DUP1 PUSH1 0x0 DUP2 MSTORE POP PUSH2 0x1D68 JUMP JUMPDEST DUP1 PUSH2 0x1D44 DUP5 PUSH2 0x2832 JUMP JUMPDEST PUSH1 0x10 PUSH1 0x40 MLOAD PUSH1 0x20 ADD PUSH2 0x1D58 SWAP4 SWAP3 SWAP2 SWAP1 PUSH2 0x3946 JUMP JUMPDEST PUSH1 0x40 MLOAD PUSH1 0x20 DUP2 DUP4 SUB SUB DUP2 MSTORE SWAP1 PUSH1 0x40 MSTORE JUMPDEST SWAP2 POP POP JUMPDEST SWAP2 SWAP1 POP JUMP JUMPDEST PUSH1 0xE SLOAD DUP2 JUMP JUMPDEST PUSH1 0xD SLOAD DUP2 JUMP JUMPDEST PUSH2 0x1D85 PUSH2 0x2151 JUMP JUMPDEST PUSH1 0x13 PUSH1 0x1 SWAP1 SLOAD SWAP1 PUSH2 0x100 EXP SWAP1 DIV PUSH1 0xFF AND ISZERO PUSH1 0x13 PUSH1 0x1 PUSH2 0x100 EXP DUP2 SLOAD DUP2 PUSH1 0xFF MUL NOT AND SWAP1 DUP4 ISZERO ISZERO MUL OR SWAP1 SSTORE POP JUMP JUMPDEST PUSH1 0x0 PUSH1 0x7 PUSH1 0x0 DUP5 PUSH20 0xFFFFFFFFFFFFFFFFFFFFFFFFFFFFFFFFFFFFFFFF AND PUSH20 0xFFFFFFFFFFFFFFFFFFFFFFFFFFFFFFFFFFFFFFFF AND DUP2 MSTORE PUSH1 0x20 ADD SWAP1 DUP2 MSTORE PUSH1 0x20 ADD PUSH1 0x0 KECCAK256 PUSH1 0x0 DUP4 PUSH20 0xFFFFFFFFFFFFFFFFFFFFFFFFFFFFFFFFFFFFFFFF AND PUSH20 0xFFFFFFFFFFFFFFFFFFFFFFFFFFFFFFFFFFFFFFFF AND DUP2 MSTORE PUSH1 0x20 ADD SWAP1 DUP2 MSTORE PUSH1 0x20 ADD PUSH1 0x0 KECCAK256 PUSH1 0x0 SWAP1 SLOAD SWAP1 PUSH2 0x100 EXP SWAP1 DIV PUSH1 0xFF AND SWAP1 POP SWAP3 SWAP2 POP POP JUMP JUMPDEST PUSH1 0xC SLOAD DUP2 JUMP JUMPDEST PUSH2 0x1E53 PUSH2 0x2151 JUMP JUMPDEST PUSH1 0x0 PUSH20 0xFFFFFFFFFFFFFFFFFFFFFFFFFFFFFFFFFFFFFFFF AND DUP2 PUSH20 0xFFFFFFFFFFFFFFFFFFFFFFFFFFFFFFFFFFFFFFFF AND EQ ISZERO PUSH2 0x1EC3 JUMPI PUSH1 0x40 MLOAD PUSH32 0x8C379A000000000000000000000000000000000000000000000000000000000 DUP2 MSTORE PUSH1 0x4 ADD PUSH2 0x1EBA SWAP1 PUSH2 0x39E9 JUMP JUMPDEST PUSH1 0x40 MLOAD DUP1 SWAP2 SUB SWAP1 REVERT JUMPDEST PUSH2 0x1ECC DUP2 PUSH2 0x257A JUMP JUMPDEST POP JUMP JUMPDEST PUSH1 0x0 DUP2 PUSH2 0x1EDA PUSH2 0x21CF JUMP JUMPDEST GT ISZERO DUP1 ISZERO PUSH2 0x1EE9 JUMPI POP PUSH1 0x0 SLOAD DUP3 LT JUMPDEST DUP1 ISZERO PUSH2 0x1F27 JUMPI POP PUSH1 0x0 PUSH29 0x100000000000000000000000000000000000000000000000000000000 PUSH1 0x4 PUSH1 0x0 DUP6 DUP2 MSTORE PUSH1 0x20 ADD SWAP1 DUP2 MSTORE PUSH1 0x20 ADD PUSH1 0x0 KECCAK256 SLOAD AND EQ JUMPDEST SWAP1 POP SWAP2 SWAP1 POP JUMP JUMPDEST PUSH1 0x0 CALLER SWAP1 POP SWAP1 JUMP JUMPDEST PUSH1 0x0 PUSH2 0x1F8B PUSH2 0x1F44 DUP6 PUSH2 0x2A25 JUMP JUMPDEST DUP5 DUP5 DUP1 DUP1 PUSH1 0x20 MUL PUSH1 0x20 ADD PUSH1 0x40 MLOAD SWAP1 DUP2 ADD PUSH1 0x40 MSTORE DUP1 SWAP4 SWAP3 SWAP2 SWAP1 DUP2 DUP2 MSTORE PUSH1 0x20 ADD DUP4 DUP4 PUSH1 0x20 MUL DUP1 DUP3 DUP5 CALLDATACOPY PUSH1 0x0 DUP2 DUP5 ADD MSTORE PUSH1 0x1F NOT PUSH1 0x1F DUP3 ADD AND SWAP1 POP DUP1 DUP4 ADD SWAP3 POP POP POP POP POP POP POP PUSH2 0x2A55 JUMP JUMPDEST SWAP1 POP SWAP4 SWAP3 POP POP POP JUMP JUMPDEST PUSH1 0x0 DUP1 SLOAD SWAP1 POP PUSH1 0x0 DUP3 EQ ISZERO PUSH2 0x1FD5 JUMPI PUSH1 0x40 MLOAD PUSH32 0xB562E8DD00000000000000000000000000000000000000000000000000000000 DUP2 MSTORE PUSH1 0x4 ADD PUSH1 0x40 MLOAD DUP1 SWAP2 SUB SWAP1 REVERT JUMPDEST PUSH2 0x1FE2 PUSH1 0x0 DUP5 DUP4 DUP6 PUSH2 0x230D JUMP JUMPDEST PUSH1 0x1 PUSH1 0x40 PUSH1 0x1 SWAP1 SHL OR DUP3 MUL PUSH1 0x5 PUSH1 0x0 DUP6 PUSH20 0xFFFFFFFFFFFFFFFFFFFFFFFFFFFFFFFFFFFFFFFF AND PUSH20 0xFFFFFFFFFFFFFFFFFFFFFFFFFFFFFFFFFFFFFFFF AND DUP2 MSTORE PUSH1 0x20 ADD SWAP1 DUP2 MSTORE PUSH1 0x20 ADD PUSH1 0x0 KECCAK256 PUSH1 0x0 DUP3 DUP3 SLOAD ADD SWAP3 POP POP DUP2 SWAP1 SSTORE POP PUSH2 0x2059 DUP4 PUSH2 0x204A PUSH1 0x0 DUP7 PUSH1 0x0 PUSH2 0x2313 JUMP JUMPDEST PUSH2 0x2053 DUP6 PUSH2 0x2A6C JUMP JUMPDEST OR PUSH2 0x233B JUMP JUMPDEST PUSH1 0x4 PUSH1 0x0 DUP4 DUP2 MSTORE PUSH1 0x20 ADD SWAP1 DUP2 MSTORE PUSH1 0x20 ADD PUSH1 0x0 KECCAK256 DUP2 SWAP1 SSTORE POP PUSH1 0x0 DUP1 DUP4 DUP4 ADD SWAP1 POP PUSH20 0xFFFFFFFFFFFFFFFFFFFFFFFFFFFFFFFFFFFFFFFF DUP6 AND SWAP2 POP DUP3 DUP3 PUSH1 0x0 PUSH32 0xDDF252AD1BE2C89B69C2B068FC378DAA952BA7F163C4A11628F55A4DF523B3EF PUSH1 0x0 DUP1 LOG4 PUSH1 0x1 DUP4 ADD JUMPDEST DUP2 DUP2 EQ PUSH2 0x20FA JUMPI DUP1 DUP4 PUSH1 0x0 PUSH32 0xDDF252AD1BE2C89B69C2B068FC378DAA952BA7F163C4A11628F55A4DF523B3EF PUSH1 0x0 DUP1 LOG4 PUSH1 0x1 DUP2 ADD SWAP1 POP PUSH2 0x20BF JUMP JUMPDEST POP PUSH1 0x0 DUP3 EQ ISZERO PUSH2 0x2136 JUMPI PUSH1 0x40 MLOAD PUSH32 0x2E07630000000000000000000000000000000000000000000000000000000000 DUP2 MSTORE PUSH1 0x4 ADD PUSH1 0x40 MLOAD DUP1 SWAP2 SUB SWAP1 REVERT JUMPDEST DUP1 PUSH1 0x0 DUP2 SWAP1 SSTORE POP POP POP PUSH2 0x214C PUSH1 0x0 DUP5 DUP4 DUP6 PUSH2 0x2366 JUMP JUMPDEST POP POP POP JUMP JUMPDEST PUSH2 0x2159 PUSH2 0x2A7C JUMP JUMPDEST PUSH20 0xFFFFFFFFFFFFFFFFFFFFFFFFFFFFFFFFFFFFFFFF AND PUSH2 0x2177 PUSH2 0x16C5 JUMP JUMPDEST PUSH20 0xFFFFFFFFFFFFFFFFFFFFFFFFFFFFFFFFFFFFFFFF AND EQ PUSH2 0x21CD JUMPI PUSH1 0x40 MLOAD PUSH32 0x8C379A000000000000000000000000000000000000000000000000000000000 DUP2 MSTORE PUSH1 0x4 ADD PUSH2 0x21C4 SWAP1 PUSH2 0x3A55 JUMP JUMPDEST PUSH1 0x40 MLOAD DUP1 SWAP2 SUB SWAP1 REVERT JUMPDEST JUMP JUMPDEST PUSH1 0x0 SWAP1 JUMP JUMPDEST PUSH1 0x0 DUP1 DUP3 SWAP1 POP DUP1 PUSH2 0x21E3 PUSH2 0x21CF JUMP JUMPDEST GT PUSH2 0x226B JUMPI PUSH1 0x0 SLOAD DUP2 LT ISZERO PUSH2 0x226A JUMPI PUSH1 0x0 PUSH1 0x4 PUSH1 0x0 DUP4 DUP2 MSTORE PUSH1 0x20 ADD SWAP1 DUP2 MSTORE PUSH1 0x20 ADD PUSH1 0x0 KECCAK256 SLOAD SWAP1 POP PUSH1 0x0 PUSH29 0x100000000000000000000000000000000000000000000000000000000 DUP3 AND EQ ISZERO PUSH2 0x2268 JUMPI JUMPDEST PUSH1 0x0 DUP2 EQ ISZERO PUSH2 0x225E JUMPI PUSH1 0x4 PUSH1 0x0 DUP4 PUSH1 0x1 SWAP1 SUB SWAP4 POP DUP4 DUP2 MSTORE PUSH1 0x20 ADD SWAP1 DUP2 MSTORE PUSH1 0x20 ADD PUSH1 0x0 KECCAK256 SLOAD SWAP1 POP PUSH2 0x2233 JUMP JUMPDEST DUP1 SWAP3 POP POP POP PUSH2 0x229D JUMP JUMPDEST POP JUMPDEST JUMPDEST PUSH1 0x40 MLOAD PUSH32 0xDF2D9B4200000000000000000000000000000000000000000000000000000000 DUP2 MSTORE PUSH1 0x4 ADD PUSH1 0x40 MLOAD DUP1 SWAP2 SUB SWAP1 REVERT JUMPDEST SWAP2 SWAP1 POP JUMP JUMPDEST PUSH1 0x0 DUP1 PUSH1 0x0 PUSH1 0x6 PUSH1 0x0 DUP6 DUP2 MSTORE PUSH1 0x20 ADD SWAP1 DUP2 MSTORE PUSH1 0x20 ADD PUSH1 0x0 KECCAK256 SWAP1 POP DUP1 SWAP3 POP DUP3 SLOAD SWAP2 POP POP SWAP2 POP SWAP2 JUMP JUMPDEST PUSH1 0x0 PUSH20 0xFFFFFFFFFFFFFFFFFFFFFFFFFFFFFFFFFFFFFFFF DUP4 AND SWAP3 POP PUSH20 0xFFFFFFFFFFFFFFFFFFFFFFFFFFFFFFFFFFFFFFFF DUP3 AND SWAP2 POP DUP4 DUP3 EQ DUP4 DUP4 EQ OR SWAP1 POP SWAP4 SWAP3 POP POP POP JUMP JUMPDEST POP POP POP POP JUMP JUMPDEST PUSH1 0x0 DUP1 PUSH1 0xE8 DUP4 SWAP1 SHR SWAP1 POP PUSH1 0xE8 PUSH2 0x232A DUP7 DUP7 DUP5 PUSH2 0x2A84 JUMP JUMPDEST PUSH3 0xFFFFFF AND SWAP1 SHL SWAP2 POP POP SWAP4 SWAP3 POP POP POP JUMP JUMPDEST PUSH1 0x0 PUSH20 0xFFFFFFFFFFFFFFFFFFFFFFFFFFFFFFFFFFFFFFFF DUP4 AND SWAP3 POP DUP2 TIMESTAMP PUSH1 0xA0 SHL OR DUP4 OR SWAP1 POP SWAP3 SWAP2 POP POP JUMP JUMPDEST POP POP POP POP JUMP JUMPDEST PUSH1 0x0 DUP1 PUSH1 0x0 DUP1 DUP5 MLOAD SWAP1 POP PUSH1 0x0 SWAP3 POP JUMPDEST DUP1 DUP3 LT ISZERO PUSH2 0x2516 JUMPI PUSH1 0x0 DUP6 DUP4 DUP2 MLOAD DUP2 LT PUSH2 0x2398 JUMPI PUSH2 0x2397 PUSH2 0x3628 JUMP JUMPDEST JUMPDEST PUSH1 0x20 ADD ADD MLOAD PUSH1 0xF8 SHR PUSH1 0xF8 SHL SWAP1 POP PUSH1 0x80 PUSH1 0xF8 SHL DUP2 PUSH31 0xFFFFFFFFFFFFFFFFFFFFFFFFFFFFFFFFFFFFFFFFFFFFFFFFFFFFFFFFFFFFFF NOT AND LT ISZERO PUSH2 0x23E7 JUMPI PUSH1 0x1 DUP4 PUSH2 0x23E0 SWAP2 SWAP1 PUSH2 0x3544 JUMP JUMPDEST SWAP3 POP PUSH2 0x2502 JUMP JUMPDEST PUSH1 0xE0 PUSH1 0xF8 SHL DUP2 PUSH31 0xFFFFFFFFFFFFFFFFFFFFFFFFFFFFFFFFFFFFFFFFFFFFFFFFFFFFFFFFFFFFFF NOT AND LT ISZERO PUSH2 0x2429 JUMPI PUSH1 0x2 DUP4 PUSH2 0x2422 SWAP2 SWAP1 PUSH2 0x3544 JUMP JUMPDEST SWAP3 POP PUSH2 0x2501 JUMP JUMPDEST PUSH1 0xF0 PUSH1 0xF8 SHL DUP2 PUSH31 0xFFFFFFFFFFFFFFFFFFFFFFFFFFFFFFFFFFFFFFFFFFFFFFFFFFFFFFFFFFFFFF NOT AND LT ISZERO PUSH2 0x246B JUMPI PUSH1 0x3 DUP4 PUSH2 0x2464 SWAP2 SWAP1 PUSH2 0x3544 JUMP JUMPDEST SWAP3 POP PUSH2 0x2500 JUMP JUMPDEST PUSH1 0xF8 DUP1 SHL DUP2 PUSH31 0xFFFFFFFFFFFFFFFFFFFFFFFFFFFFFFFFFFFFFFFFFFFFFFFFFFFFFFFFFFFFFF NOT AND LT ISZERO PUSH2 0x24AC JUMPI PUSH1 0x4 DUP4 PUSH2 0x24A5 SWAP2 SWAP1 PUSH2 0x3544 JUMP JUMPDEST SWAP3 POP PUSH2 0x24FF JUMP JUMPDEST PUSH1 0xFC PUSH1 0xF8 SHL DUP2 PUSH31 0xFFFFFFFFFFFFFFFFFFFFFFFFFFFFFFFFFFFFFFFFFFFFFFFFFFFFFFFFFFFFFF NOT AND LT ISZERO PUSH2 0x24EE JUMPI PUSH1 0x5 DUP4 PUSH2 0x24E7 SWAP2 SWAP1 PUSH2 0x3544 JUMP JUMPDEST SWAP3 POP PUSH2 0x24FE JUMP JUMPDEST PUSH1 0x6 DUP4 PUSH2 0x24FB SWAP2 SWAP1 PUSH2 0x3544 JUMP JUMPDEST SWAP3 POP JUMPDEST JUMPDEST JUMPDEST JUMPDEST JUMPDEST POP DUP3 DUP1 PUSH2 0x250E SWAP1 PUSH2 0x3657 JUMP JUMPDEST SWAP4 POP POP PUSH2 0x237B JUMP JUMPDEST DUP3 SWAP4 POP POP POP POP SWAP2 SWAP1 POP JUMP JUMPDEST PUSH1 0x0 DUP2 PUSH1 0x40 MLOAD PUSH1 0x20 ADD PUSH2 0x2534 SWAP2 SWAP1 PUSH2 0x3A75 JUMP JUMPDEST PUSH1 0x40 MLOAD PUSH1 0x20 DUP2 DUP4 SUB SUB DUP2 MSTORE SWAP1 PUSH1 0x40 MSTORE DUP1 MLOAD SWAP1 PUSH1 0x20 ADD KECCAK256 DUP4 PUSH1 0x40 MLOAD PUSH1 0x20 ADD PUSH2 0x255B SWAP2 SWAP1 PUSH2 0x3A75 JUMP JUMPDEST PUSH1 0x40 MLOAD PUSH1 0x20 DUP2 DUP4 SUB SUB DUP2 MSTORE SWAP1 PUSH1 0x40 MSTORE DUP1 MLOAD SWAP1 PUSH1 0x20 ADD KECCAK256 EQ SWAP1 POP SWAP3 SWAP2 POP POP JUMP JUMPDEST PUSH1 0x0 PUSH1 0x9 PUSH1 0x0 SWAP1 SLOAD SWAP1 PUSH2 0x100 EXP SWAP1 DIV PUSH20 0xFFFFFFFFFFFFFFFFFFFFFFFFFFFFFFFFFFFFFFFF AND SWAP1 POP DUP2 PUSH1 0x9 PUSH1 0x0 PUSH2 0x100 EXP DUP2 SLOAD DUP2 PUSH20 0xFFFFFFFFFFFFFFFFFFFFFFFFFFFFFFFFFFFFFFFF MUL NOT AND SWAP1 DUP4 PUSH20 0xFFFFFFFFFFFFFFFFFFFFFFFFFFFFFFFFFFFFFFFF AND MUL OR SWAP1 SSTORE POP DUP2 PUSH20 0xFFFFFFFFFFFFFFFFFFFFFFFFFFFFFFFFFFFFFFFF AND DUP2 PUSH20 0xFFFFFFFFFFFFFFFFFFFFFFFFFFFFFFFFFFFFFFFF AND PUSH32 0x8BE0079C531659141344CD1FD0A4F28419497F9722A3DAAFE3B4186F6B6457E0 PUSH1 0x40 MLOAD PUSH1 0x40 MLOAD DUP1 SWAP2 SUB SWAP1 LOG3 POP POP JUMP JUMPDEST PUSH1 0x0 DUP4 PUSH20 0xFFFFFFFFFFFFFFFFFFFFFFFFFFFFFFFFFFFFFFFF AND PUSH4 0x150B7A02 PUSH2 0x2666 PUSH2 0x1F2E JUMP JUMPDEST DUP8 DUP7 DUP7 PUSH1 0x40 MLOAD DUP6 PUSH4 0xFFFFFFFF AND PUSH1 0xE0 SHL DUP2 MSTORE PUSH1 0x4 ADD PUSH2 0x2688 SWAP5 SWAP4 SWAP3 SWAP2 SWAP1 PUSH2 0x3AE1 JUMP JUMPDEST PUSH1 0x20 PUSH1 0x40 MLOAD DUP1 DUP4 SUB DUP2 PUSH1 0x0 DUP8 DUP1 EXTCODESIZE ISZERO DUP1 ISZERO PUSH2 0x26A2 JUMPI PUSH1 0x0 DUP1 REVERT JUMPDEST POP GAS CALL SWAP3 POP POP POP DUP1 ISZERO PUSH2 0x26D3 JUMPI POP PUSH1 0x40 MLOAD RETURNDATASIZE PUSH1 0x1F NOT PUSH1 0x1F DUP3 ADD AND DUP3 ADD DUP1 PUSH1 0x40 MSTORE POP DUP2 ADD SWAP1 PUSH2 0x26D0 SWAP2 SWAP1 PUSH2 0x3B42 JUMP JUMPDEST PUSH1 0x1 JUMPDEST PUSH2 0x274D JUMPI RETURNDATASIZE DUP1 PUSH1 0x0 DUP2 EQ PUSH2 0x2703 JUMPI PUSH1 0x40 MLOAD SWAP2 POP PUSH1 0x1F NOT PUSH1 0x3F RETURNDATASIZE ADD AND DUP3 ADD PUSH1 0x40 MSTORE RETURNDATASIZE DUP3 MSTORE RETURNDATASIZE PUSH1 0x0 PUSH1 0x20 DUP5 ADD RETURNDATACOPY PUSH2 0x2708 JUMP JUMPDEST PUSH1 0x60 SWAP2 POP JUMPDEST POP PUSH1 0x0 DUP2 MLOAD EQ ISZERO PUSH2 0x2745 JUMPI PUSH1 0x40 MLOAD PUSH32 0xD1A57ED600000000000000000000000000000000000000000000000000000000 DUP2 MSTORE PUSH1 0x4 ADD PUSH1 0x40 MLOAD DUP1 SWAP2 SUB SWAP1 REVERT JUMPDEST DUP1 MLOAD DUP2 PUSH1 0x20 ADD REVERT JUMPDEST PUSH4 0x150B7A02 PUSH1 0xE0 SHL PUSH28 0xFFFFFFFFFFFFFFFFFFFFFFFFFFFFFFFFFFFFFFFFFFFFFFFFFFFFFFFF NOT AND DUP2 PUSH28 0xFFFFFFFFFFFFFFFFFFFFFFFFFFFFFFFFFFFFFFFFFFFFFFFFFFFFFFFF NOT AND EQ SWAP2 POP POP SWAP5 SWAP4 POP POP POP POP JUMP JUMPDEST PUSH1 0x60 PUSH1 0x12 DUP1 SLOAD PUSH2 0x27AF SWAP1 PUSH2 0x3477 JUMP JUMPDEST DUP1 PUSH1 0x1F ADD PUSH1 0x20 DUP1 SWAP2 DIV MUL PUSH1 0x20 ADD PUSH1 0x40 MLOAD SWAP1 DUP2 ADD PUSH1 0x40 MSTORE DUP1 SWAP3 SWAP2 SWAP1 DUP2 DUP2 MSTORE PUSH1 0x20 ADD DUP3 DUP1 SLOAD PUSH2 0x27DB SWAP1 PUSH2 0x3477 JUMP JUMPDEST DUP1 ISZERO PUSH2 0x2828 JUMPI DUP1 PUSH1 0x1F LT PUSH2 0x27FD JUMPI PUSH2 0x100 DUP1 DUP4 SLOAD DIV MUL DUP4 MSTORE SWAP2 PUSH1 0x20 ADD SWAP2 PUSH2 0x2828 JUMP JUMPDEST DUP3 ADD SWAP2 SWAP1 PUSH1 0x0 MSTORE PUSH1 0x20 PUSH1 0x0 KECCAK256 SWAP1 JUMPDEST DUP2 SLOAD DUP2 MSTORE SWAP1 PUSH1 0x1 ADD SWAP1 PUSH1 0x20 ADD DUP1 DUP4 GT PUSH2 0x280B JUMPI DUP3 SWAP1 SUB PUSH1 0x1F AND DUP3 ADD SWAP2 JUMPDEST POP POP POP POP POP SWAP1 POP SWAP1 JUMP JUMPDEST PUSH1 0x60 PUSH1 0x0 DUP3 EQ ISZERO PUSH2 0x287A JUMPI PUSH1 0x40 MLOAD DUP1 PUSH1 0x40 ADD PUSH1 0x40 MSTORE DUP1 PUSH1 0x1 DUP2 MSTORE PUSH1 0x20 ADD PUSH32 0x3000000000000000000000000000000000000000000000000000000000000000 DUP2 MSTORE POP SWAP1 POP PUSH2 0x298E JUMP JUMPDEST PUSH1 0x0 DUP3 SWAP1 POP PUSH1 0x0 JUMPDEST PUSH1 0x0 DUP3 EQ PUSH2 0x28AC JUMPI DUP1 DUP1 PUSH2 0x2895 SWAP1 PUSH2 0x3657 JUMP JUMPDEST SWAP2 POP POP PUSH1 0xA DUP3 PUSH2 0x28A5 SWAP2 SWAP1 PUSH2 0x3B9E JUMP JUMPDEST SWAP2 POP PUSH2 0x2882 JUMP JUMPDEST PUSH1 0x0 DUP2 PUSH8 0xFFFFFFFFFFFFFFFF DUP2 GT ISZERO PUSH2 0x28C8 JUMPI PUSH2 0x28C7 PUSH2 0x2FB5 JUMP JUMPDEST JUMPDEST PUSH1 0x40 MLOAD SWAP1 DUP1 DUP3 MSTORE DUP1 PUSH1 0x1F ADD PUSH1 0x1F NOT AND PUSH1 0x20 ADD DUP3 ADD PUSH1 0x40 MSTORE DUP1 ISZERO PUSH2 0x28FA JUMPI DUP2 PUSH1 0x20 ADD PUSH1 0x1 DUP3 MUL DUP1 CALLDATASIZE DUP4 CALLDATACOPY DUP1 DUP3 ADD SWAP2 POP POP SWAP1 POP JUMPDEST POP SWAP1 POP JUMPDEST PUSH1 0x0 DUP6 EQ PUSH2 0x2987 JUMPI PUSH1 0x1 DUP3 PUSH2 0x2913 SWAP2 SWAP1 PUSH2 0x35F4 JUMP JUMPDEST SWAP2 POP PUSH1 0xA DUP6 PUSH2 0x2922 SWAP2 SWAP1 PUSH2 0x3BCF JUMP JUMPDEST PUSH1 0x30 PUSH2 0x292E SWAP2 SWAP1 PUSH2 0x3544 JUMP JUMPDEST PUSH1 0xF8 SHL DUP2 DUP4 DUP2 MLOAD DUP2 LT PUSH2 0x2944 JUMPI PUSH2 0x2943 PUSH2 0x3628 JUMP JUMPDEST JUMPDEST PUSH1 0x20 ADD ADD SWAP1 PUSH31 0xFFFFFFFFFFFFFFFFFFFFFFFFFFFFFFFFFFFFFFFFFFFFFFFFFFFFFFFFFFFFFF NOT AND SWAP1 DUP2 PUSH1 0x0 BYTE SWAP1 MSTORE8 POP PUSH1 0xA DUP6 PUSH2 0x2980 SWAP2 SWAP1 PUSH2 0x3B9E JUMP JUMPDEST SWAP5 POP PUSH2 0x28FE JUMP JUMPDEST DUP1 SWAP4 POP POP POP POP JUMPDEST SWAP2 SWAP1 POP JUMP JUMPDEST PUSH1 0x60 PUSH1 0x11 DUP1 SLOAD PUSH2 0x29A2 SWAP1 PUSH2 0x3477 JUMP JUMPDEST DUP1 PUSH1 0x1F ADD PUSH1 0x20 DUP1 SWAP2 DIV MUL PUSH1 0x20 ADD PUSH1 0x40 MLOAD SWAP1 DUP2 ADD PUSH1 0x40 MSTORE DUP1 SWAP3 SWAP2 SWAP1 DUP2 DUP2 MSTORE PUSH1 0x20 ADD DUP3 DUP1 SLOAD PUSH2 0x29CE SWAP1 PUSH2 0x3477 JUMP JUMPDEST DUP1 ISZERO PUSH2 0x2A1B JUMPI DUP1 PUSH1 0x1F LT PUSH2 0x29F0 JUMPI PUSH2 0x100 DUP1 DUP4 SLOAD DIV MUL DUP4 MSTORE SWAP2 PUSH1 0x20 ADD SWAP2 PUSH2 0x2A1B JUMP JUMPDEST DUP3 ADD SWAP2 SWAP1 PUSH1 0x0 MSTORE PUSH1 0x20 PUSH1 0x0 KECCAK256 SWAP1 JUMPDEST DUP2 SLOAD DUP2 MSTORE SWAP1 PUSH1 0x1 ADD SWAP1 PUSH1 0x20 ADD DUP1 DUP4 GT PUSH2 0x29FE JUMPI DUP3 SWAP1 SUB PUSH1 0x1F AND DUP3 ADD SWAP2 JUMPDEST POP POP POP POP POP SWAP1 POP SWAP1 JUMP JUMPDEST PUSH1 0x0 DUP2 PUSH1 0x40 MLOAD PUSH1 0x20 ADD PUSH2 0x2A38 SWAP2 SWAP1 PUSH2 0x3C48 JUMP JUMPDEST PUSH1 0x40 MLOAD PUSH1 0x20 DUP2 DUP4 SUB SUB DUP2 MSTORE SWAP1 PUSH1 0x40 MSTORE DUP1 MLOAD SWAP1 PUSH1 0x20 ADD KECCAK256 SWAP1 POP SWAP2 SWAP1 POP JUMP JUMPDEST PUSH1 0x0 PUSH2 0x2A64 DUP3 PUSH1 0xA SLOAD DUP6 PUSH2 0x2A8D JUMP JUMPDEST SWAP1 POP SWAP3 SWAP2 POP POP JUMP JUMPDEST PUSH1 0x0 PUSH1 0x1 DUP3 EQ PUSH1 0xE1 SHL SWAP1 POP SWAP2 SWAP1 POP JUMP JUMPDEST PUSH1 0x0 CALLER SWAP1 POP SWAP1 JUMP JUMPDEST PUSH1 0x0 SWAP4 SWAP3 POP POP POP JUMP JUMPDEST PUSH1 0x0 DUP3 PUSH2 0x2A9A DUP6 DUP5 PUSH2 0x2AA4 JUMP JUMPDEST EQ SWAP1 POP SWAP4 SWAP3 POP POP POP JUMP JUMPDEST PUSH1 0x0 DUP1 DUP3 SWAP1 POP PUSH1 0x0 JUMPDEST DUP5 MLOAD DUP2 LT ISZERO PUSH2 0x2AEF JUMPI PUSH2 0x2ADA DUP3 DUP7 DUP4 DUP2 MLOAD DUP2 LT PUSH2 0x2ACD JUMPI PUSH2 0x2ACC PUSH2 0x3628 JUMP JUMPDEST JUMPDEST PUSH1 0x20 MUL PUSH1 0x20 ADD ADD MLOAD PUSH2 0x2AFA JUMP JUMPDEST SWAP2 POP DUP1 DUP1 PUSH2 0x2AE7 SWAP1 PUSH2 0x3657 JUMP JUMPDEST SWAP2 POP POP PUSH2 0x2AAD JUMP JUMPDEST POP DUP1 SWAP2 POP POP SWAP3 SWAP2 POP POP JUMP JUMPDEST PUSH1 0x0 DUP2 DUP4 LT PUSH2 0x2B12 JUMPI PUSH2 0x2B0D DUP3 DUP5 PUSH2 0x2B25 JUMP JUMPDEST PUSH2 0x2B1D JUMP JUMPDEST PUSH2 0x2B1C DUP4 DUP4 PUSH2 0x2B25 JUMP JUMPDEST JUMPDEST SWAP1 POP SWAP3 SWAP2 POP POP JUMP JUMPDEST PUSH1 0x0 DUP3 PUSH1 0x0 MSTORE DUP2 PUSH1 0x20 MSTORE PUSH1 0x40 PUSH1 0x0 KECCAK256 SWAP1 POP SWAP3 SWAP2 POP POP JUMP JUMPDEST DUP3 DUP1 SLOAD PUSH2 0x2B48 SWAP1 PUSH2 0x3477 JUMP JUMPDEST SWAP1 PUSH1 0x0 MSTORE PUSH1 0x20 PUSH1 0x0 KECCAK256 SWAP1 PUSH1 0x1F ADD PUSH1 0x20 SWAP1 DIV DUP2 ADD SWAP3 DUP3 PUSH2 0x2B6A JUMPI PUSH1 0x0 DUP6 SSTORE PUSH2 0x2BB1 JUMP JUMPDEST DUP3 PUSH1 0x1F LT PUSH2 0x2B83 JUMPI DUP1 MLOAD PUSH1 0xFF NOT AND DUP4 DUP1 ADD OR DUP6 SSTORE PUSH2 0x2BB1 JUMP JUMPDEST DUP3 DUP1 ADD PUSH1 0x1 ADD DUP6 SSTORE DUP3 ISZERO PUSH2 0x2BB1 JUMPI SWAP2 DUP3 ADD JUMPDEST DUP3 DUP2 GT ISZERO PUSH2 0x2BB0 JUMPI DUP3 MLOAD DUP3 SSTORE SWAP2 PUSH1 0x20 ADD SWAP2 SWAP1 PUSH1 0x1 ADD SWAP1 PUSH2 0x2B95 JUMP JUMPDEST JUMPDEST POP SWAP1 POP PUSH2 0x2BBE SWAP2 SWAP1 PUSH2 0x2BC2 JUMP JUMPDEST POP SWAP1 JUMP JUMPDEST JUMPDEST DUP1 DUP3 GT ISZERO PUSH2 0x2BDB JUMPI PUSH1 0x0 DUP2 PUSH1 0x0 SWAP1 SSTORE POP PUSH1 0x1 ADD PUSH2 0x2BC3 JUMP JUMPDEST POP SWAP1 JUMP JUMPDEST PUSH1 0x0 PUSH1 0x40 MLOAD SWAP1 POP SWAP1 JUMP JUMPDEST PUSH1 0x0 DUP1 REVERT JUMPDEST PUSH1 0x0 DUP1 REVERT JUMPDEST PUSH1 0x0 PUSH32 0xFFFFFFFF00000000000000000000000000000000000000000000000000000000 DUP3 AND SWAP1 POP SWAP2 SWAP1 POP JUMP JUMPDEST PUSH2 0x2C28 DUP2 PUSH2 0x2BF3 JUMP JUMPDEST DUP2 EQ PUSH2 0x2C33 JUMPI PUSH1 0x0 DUP1 REVERT JUMPDEST POP JUMP JUMPDEST PUSH1 0x0 DUP2 CALLDATALOAD SWAP1 POP PUSH2 0x2C45 DUP2 PUSH2 0x2C1F JUMP JUMPDEST SWAP3 SWAP2 POP POP JUMP JUMPDEST PUSH1 0x0 PUSH1 0x20 DUP3 DUP5 SUB SLT ISZERO PUSH2 0x2C61 JUMPI PUSH2 0x2C60 PUSH2 0x2BE9 JUMP JUMPDEST JUMPDEST PUSH1 0x0 PUSH2 0x2C6F DUP5 DUP3 DUP6 ADD PUSH2 0x2C36 JUMP JUMPDEST SWAP2 POP POP SWAP3 SWAP2 POP POP JUMP JUMPDEST PUSH1 0x0 DUP2 ISZERO ISZERO SWAP1 POP SWAP2 SWAP1 POP JUMP JUMPDEST PUSH2 0x2C8D DUP2 PUSH2 0x2C78 JUMP JUMPDEST DUP3 MSTORE POP POP JUMP JUMPDEST PUSH1 0x0 PUSH1 0x20 DUP3 ADD SWAP1 POP PUSH2 0x2CA8 PUSH1 0x0 DUP4 ADD DUP5 PUSH2 0x2C84 JUMP JUMPDEST SWAP3 SWAP2 POP POP JUMP JUMPDEST PUSH1 0x0 DUP2 MLOAD SWAP1 POP SWAP2 SWAP1 POP JUMP JUMPDEST PUSH1 0x0 DUP3 DUP3 MSTORE PUSH1 0x20 DUP3 ADD SWAP1 POP SWAP3 SWAP2 POP POP JUMP JUMPDEST PUSH1 0x0 JUMPDEST DUP4 DUP2 LT ISZERO PUSH2 0x2CE8 JUMPI DUP1 DUP3 ADD MLOAD DUP2 DUP5 ADD MSTORE PUSH1 0x20 DUP2 ADD SWAP1 POP PUSH2 0x2CCD JUMP JUMPDEST DUP4 DUP2 GT ISZERO PUSH2 0x2CF7 JUMPI PUSH1 0x0 DUP5 DUP5 ADD MSTORE JUMPDEST POP POP POP POP JUMP JUMPDEST PUSH1 0x0 PUSH1 0x1F NOT PUSH1 0x1F DUP4 ADD AND SWAP1 POP SWAP2 SWAP1 POP JUMP JUMPDEST PUSH1 0x0 PUSH2 0x2D19 DUP3 PUSH2 0x2CAE JUMP JUMPDEST PUSH2 0x2D23 DUP2 DUP6 PUSH2 0x2CB9 JUMP JUMPDEST SWAP4 POP PUSH2 0x2D33 DUP2 DUP6 PUSH1 0x20 DUP7 ADD PUSH2 0x2CCA JUMP JUMPDEST PUSH2 0x2D3C DUP2 PUSH2 0x2CFD JUMP JUMPDEST DUP5 ADD SWAP2 POP POP SWAP3 SWAP2 POP POP JUMP JUMPDEST PUSH1 0x0 PUSH1 0x20 DUP3 ADD SWAP1 POP DUP2 DUP2 SUB PUSH1 0x0 DUP4 ADD MSTORE PUSH2 0x2D61 DUP2 DUP5 PUSH2 0x2D0E JUMP JUMPDEST SWAP1 POP SWAP3 SWAP2 POP POP JUMP JUMPDEST PUSH1 0x0 DUP2 SWAP1 POP SWAP2 SWAP1 POP JUMP JUMPDEST PUSH2 0x2D7C DUP2 PUSH2 0x2D69 JUMP JUMPDEST DUP2 EQ PUSH2 0x2D87 JUMPI PUSH1 0x0 DUP1 REVERT JUMPDEST POP JUMP JUMPDEST PUSH1 0x0 DUP2 CALLDATALOAD SWAP1 POP PUSH2 0x2D99 DUP2 PUSH2 0x2D73 JUMP JUMPDEST SWAP3 SWAP2 POP POP JUMP JUMPDEST PUSH1 0x0 PUSH1 0x20 DUP3 DUP5 SUB SLT ISZERO PUSH2 0x2DB5 JUMPI PUSH2 0x2DB4 PUSH2 0x2BE9 JUMP JUMPDEST JUMPDEST PUSH1 0x0 PUSH2 0x2DC3 DUP5 DUP3 DUP6 ADD PUSH2 0x2D8A JUMP JUMPDEST SWAP2 POP POP SWAP3 SWAP2 POP POP JUMP JUMPDEST PUSH1 0x0 PUSH20 0xFFFFFFFFFFFFFFFFFFFFFFFFFFFFFFFFFFFFFFFF DUP3 AND SWAP1 POP SWAP2 SWAP1 POP JUMP JUMPDEST PUSH1 0x0 PUSH2 0x2DF7 DUP3 PUSH2 0x2DCC JUMP JUMPDEST SWAP1 POP SWAP2 SWAP1 POP JUMP JUMPDEST PUSH2 0x2E07 DUP2 PUSH2 0x2DEC JUMP JUMPDEST DUP3 MSTORE POP POP JUMP JUMPDEST PUSH1 0x0 PUSH1 0x20 DUP3 ADD SWAP1 POP PUSH2 0x2E22 PUSH1 0x0 DUP4 ADD DUP5 PUSH2 0x2DFE JUMP JUMPDEST SWAP3 SWAP2 POP POP JUMP JUMPDEST PUSH2 0x2E31 DUP2 PUSH2 0x2DEC JUMP JUMPDEST DUP2 EQ PUSH2 0x2E3C JUMPI PUSH1 0x0 DUP1 REVERT JUMPDEST POP JUMP JUMPDEST PUSH1 0x0 DUP2 CALLDATALOAD SWAP1 POP PUSH2 0x2E4E DUP2 PUSH2 0x2E28 JUMP JUMPDEST SWAP3 SWAP2 POP POP JUMP JUMPDEST PUSH1 0x0 DUP1 PUSH1 0x40 DUP4 DUP6 SUB SLT ISZERO PUSH2 0x2E6B JUMPI PUSH2 0x2E6A PUSH2 0x2BE9 JUMP JUMPDEST JUMPDEST PUSH1 0x0 PUSH2 0x2E79 DUP6 DUP3 DUP7 ADD PUSH2 0x2E3F JUMP JUMPDEST SWAP3 POP POP PUSH1 0x20 PUSH2 0x2E8A DUP6 DUP3 DUP7 ADD PUSH2 0x2D8A JUMP JUMPDEST SWAP2 POP POP SWAP3 POP SWAP3 SWAP1 POP JUMP JUMPDEST PUSH1 0x0 DUP1 REVERT JUMPDEST PUSH1 0x0 DUP1 REVERT JUMPDEST PUSH1 0x0 DUP1 REVERT JUMPDEST PUSH1 0x0 DUP1 DUP4 PUSH1 0x1F DUP5 ADD SLT PUSH2 0x2EB9 JUMPI PUSH2 0x2EB8 PUSH2 0x2E94 JUMP JUMPDEST JUMPDEST DUP3 CALLDATALOAD SWAP1 POP PUSH8 0xFFFFFFFFFFFFFFFF DUP2 GT ISZERO PUSH2 0x2ED6 JUMPI PUSH2 0x2ED5 PUSH2 0x2E99 JUMP JUMPDEST JUMPDEST PUSH1 0x20 DUP4 ADD SWAP2 POP DUP4 PUSH1 0x20 DUP3 MUL DUP4 ADD GT ISZERO PUSH2 0x2EF2 JUMPI PUSH2 0x2EF1 PUSH2 0x2E9E JUMP JUMPDEST JUMPDEST SWAP3 POP SWAP3 SWAP1 POP JUMP JUMPDEST PUSH1 0x0 DUP1 PUSH1 0x0 PUSH1 0x40 DUP5 DUP7 SUB SLT ISZERO PUSH2 0x2F12 JUMPI PUSH2 0x2F11 PUSH2 0x2BE9 JUMP JUMPDEST JUMPDEST PUSH1 0x0 PUSH2 0x2F20 DUP7 DUP3 DUP8 ADD PUSH2 0x2D8A JUMP JUMPDEST SWAP4 POP POP PUSH1 0x20 DUP5 ADD CALLDATALOAD PUSH8 0xFFFFFFFFFFFFFFFF DUP2 GT ISZERO PUSH2 0x2F41 JUMPI PUSH2 0x2F40 PUSH2 0x2BEE JUMP JUMPDEST JUMPDEST PUSH2 0x2F4D DUP7 DUP3 DUP8 ADD PUSH2 0x2EA3 JUMP JUMPDEST SWAP3 POP SWAP3 POP POP SWAP3 POP SWAP3 POP SWAP3 JUMP JUMPDEST PUSH1 0x0 PUSH1 0x20 DUP3 DUP5 SUB SLT ISZERO PUSH2 0x2F6F JUMPI PUSH2 0x2F6E PUSH2 0x2BE9 JUMP JUMPDEST JUMPDEST PUSH1 0x0 PUSH2 0x2F7D DUP5 DUP3 DUP6 ADD PUSH2 0x2E3F JUMP JUMPDEST SWAP2 POP POP SWAP3 SWAP2 POP POP JUMP JUMPDEST PUSH2 0x2F8F DUP2 PUSH2 0x2D69 JUMP JUMPDEST DUP3 MSTORE POP POP JUMP JUMPDEST PUSH1 0x0 PUSH1 0x20 DUP3 ADD SWAP1 POP PUSH2 0x2FAA PUSH1 0x0 DUP4 ADD DUP5 PUSH2 0x2F86 JUMP JUMPDEST SWAP3 SWAP2 POP POP JUMP JUMPDEST PUSH1 0x0 DUP1 REVERT JUMPDEST PUSH32 0x4E487B7100000000000000000000000000000000000000000000000000000000 PUSH1 0x0 MSTORE PUSH1 0x41 PUSH1 0x4 MSTORE PUSH1 0x24 PUSH1 0x0 REVERT JUMPDEST PUSH2 0x2FED DUP3 PUSH2 0x2CFD JUMP JUMPDEST DUP2 ADD DUP2 DUP2 LT PUSH8 0xFFFFFFFFFFFFFFFF DUP3 GT OR ISZERO PUSH2 0x300C JUMPI PUSH2 0x300B PUSH2 0x2FB5 JUMP JUMPDEST JUMPDEST DUP1 PUSH1 0x40 MSTORE POP POP POP JUMP JUMPDEST PUSH1 0x0 PUSH2 0x301F PUSH2 0x2BDF JUMP JUMPDEST SWAP1 POP PUSH2 0x302B DUP3 DUP3 PUSH2 0x2FE4 JUMP JUMPDEST SWAP2 SWAP1 POP JUMP JUMPDEST PUSH1 0x0 PUSH8 0xFFFFFFFFFFFFFFFF DUP3 GT ISZERO PUSH2 0x304B JUMPI PUSH2 0x304A PUSH2 0x2FB5 JUMP JUMPDEST JUMPDEST PUSH2 0x3054 DUP3 PUSH2 0x2CFD JUMP JUMPDEST SWAP1 POP PUSH1 0x20 DUP2 ADD SWAP1 POP SWAP2 SWAP1 POP JUMP JUMPDEST DUP3 DUP2 DUP4 CALLDATACOPY PUSH1 0x0 DUP4 DUP4 ADD MSTORE POP POP POP JUMP JUMPDEST PUSH1 0x0 PUSH2 0x3083 PUSH2 0x307E DUP5 PUSH2 0x3030 JUMP JUMPDEST PUSH2 0x3015 JUMP JUMPDEST SWAP1 POP DUP3 DUP2 MSTORE PUSH1 0x20 DUP2 ADD DUP5 DUP5 DUP5 ADD GT ISZERO PUSH2 0x309F JUMPI PUSH2 0x309E PUSH2 0x2FB0 JUMP JUMPDEST JUMPDEST PUSH2 0x30AA DUP5 DUP3 DUP6 PUSH2 0x3061 JUMP JUMPDEST POP SWAP4 SWAP3 POP POP POP JUMP JUMPDEST PUSH1 0x0 DUP3 PUSH1 0x1F DUP4 ADD SLT PUSH2 0x30C7 JUMPI PUSH2 0x30C6 PUSH2 0x2E94 JUMP JUMPDEST JUMPDEST DUP2 CALLDATALOAD PUSH2 0x30D7 DUP5 DUP3 PUSH1 0x20 DUP7 ADD PUSH2 0x3070 JUMP JUMPDEST SWAP2 POP POP SWAP3 SWAP2 POP POP JUMP JUMPDEST PUSH1 0x0 DUP1 PUSH1 0x0 PUSH1 0x60 DUP5 DUP7 SUB SLT ISZERO PUSH2 0x30F9 JUMPI PUSH2 0x30F8 PUSH2 0x2BE9 JUMP JUMPDEST JUMPDEST PUSH1 0x0 DUP5 ADD CALLDATALOAD PUSH8 0xFFFFFFFFFFFFFFFF DUP2 GT ISZERO PUSH2 0x3117 JUMPI PUSH2 0x3116 PUSH2 0x2BEE JUMP JUMPDEST JUMPDEST PUSH2 0x3123 DUP7 DUP3 DUP8 ADD PUSH2 0x30B2 JUMP JUMPDEST SWAP4 POP POP PUSH1 0x20 PUSH2 0x3134 DUP7 DUP3 DUP8 ADD PUSH2 0x2D8A JUMP JUMPDEST SWAP3 POP POP PUSH1 0x40 PUSH2 0x3145 DUP7 DUP3 DUP8 ADD PUSH2 0x2D8A JUMP JUMPDEST SWAP2 POP POP SWAP3 POP SWAP3 POP SWAP3 JUMP JUMPDEST PUSH1 0x0 DUP1 PUSH1 0x0 PUSH1 0x60 DUP5 DUP7 SUB SLT ISZERO PUSH2 0x3168 JUMPI PUSH2 0x3167 PUSH2 0x2BE9 JUMP JUMPDEST JUMPDEST PUSH1 0x0 PUSH2 0x3176 DUP7 DUP3 DUP8 ADD PUSH2 0x2E3F JUMP JUMPDEST SWAP4 POP POP PUSH1 0x20 PUSH2 0x3187 DUP7 DUP3 DUP8 ADD PUSH2 0x2E3F JUMP JUMPDEST SWAP3 POP POP PUSH1 0x40 PUSH2 0x3198 DUP7 DUP3 DUP8 ADD PUSH2 0x2D8A JUMP JUMPDEST SWAP2 POP POP SWAP3 POP SWAP3 POP SWAP3 JUMP JUMPDEST PUSH1 0x0 DUP2 SWAP1 POP SWAP2 SWAP1 POP JUMP JUMPDEST PUSH2 0x31B5 DUP2 PUSH2 0x31A2 JUMP JUMPDEST DUP3 MSTORE POP POP JUMP JUMPDEST PUSH1 0x0 PUSH1 0x20 DUP3 ADD SWAP1 POP PUSH2 0x31D0 PUSH1 0x0 DUP4 ADD DUP5 PUSH2 0x31AC JUMP JUMPDEST SWAP3 SWAP2 POP POP JUMP JUMPDEST PUSH1 0x0 PUSH1 0x20 DUP3 DUP5 SUB SLT ISZERO PUSH2 0x31EC JUMPI PUSH2 0x31EB PUSH2 0x2BE9 JUMP JUMPDEST JUMPDEST PUSH1 0x0 DUP3 ADD CALLDATALOAD PUSH8 0xFFFFFFFFFFFFFFFF DUP2 GT ISZERO PUSH2 0x320A JUMPI PUSH2 0x3209 PUSH2 0x2BEE JUMP JUMPDEST JUMPDEST PUSH2 0x3216 DUP5 DUP3 DUP6 ADD PUSH2 0x30B2 JUMP JUMPDEST SWAP2 POP POP SWAP3 SWAP2 POP POP JUMP JUMPDEST PUSH2 0x3228 DUP2 PUSH2 0x31A2 JUMP JUMPDEST DUP2 EQ PUSH2 0x3233 JUMPI PUSH1 0x0 DUP1 REVERT JUMPDEST POP JUMP JUMPDEST PUSH1 0x0 DUP2 CALLDATALOAD SWAP1 POP PUSH2 0x3245 DUP2 PUSH2 0x321F JUMP JUMPDEST SWAP3 SWAP2 POP POP JUMP JUMPDEST PUSH1 0x0 PUSH1 0x20 DUP3 DUP5 SUB SLT ISZERO PUSH2 0x3261 JUMPI PUSH2 0x3260 PUSH2 0x2BE9 JUMP JUMPDEST JUMPDEST PUSH1 0x0 PUSH2 0x326F DUP5 DUP3 DUP6 ADD PUSH2 0x3236 JUMP JUMPDEST SWAP2 POP POP SWAP3 SWAP2 POP POP JUMP JUMPDEST PUSH2 0x3281 DUP2 PUSH2 0x2C78 JUMP JUMPDEST DUP2 EQ PUSH2 0x328C JUMPI PUSH1 0x0 DUP1 REVERT JUMPDEST POP JUMP JUMPDEST PUSH1 0x0 DUP2 CALLDATALOAD SWAP1 POP PUSH2 0x329E DUP2 PUSH2 0x3278 JUMP JUMPDEST SWAP3 SWAP2 POP POP JUMP JUMPDEST PUSH1 0x0 DUP1 PUSH1 0x40 DUP4 DUP6 SUB SLT ISZERO PUSH2 0x32BB JUMPI PUSH2 0x32BA PUSH2 0x2BE9 JUMP JUMPDEST JUMPDEST PUSH1 0x0 PUSH2 0x32C9 DUP6 DUP3 DUP7 ADD PUSH2 0x2E3F JUMP JUMPDEST SWAP3 POP POP PUSH1 0x20 PUSH2 0x32DA DUP6 DUP3 DUP7 ADD PUSH2 0x328F JUMP JUMPDEST SWAP2 POP POP SWAP3 POP SWAP3 SWAP1 POP JUMP JUMPDEST PUSH1 0x0 PUSH8 0xFFFFFFFFFFFFFFFF DUP3 GT ISZERO PUSH2 0x32FF JUMPI PUSH2 0x32FE PUSH2 0x2FB5 JUMP JUMPDEST JUMPDEST PUSH2 0x3308 DUP3 PUSH2 0x2CFD JUMP JUMPDEST SWAP1 POP PUSH1 0x20 DUP2 ADD SWAP1 POP SWAP2 SWAP1 POP JUMP JUMPDEST PUSH1 0x0 PUSH2 0x3328 PUSH2 0x3323 DUP5 PUSH2 0x32E4 JUMP JUMPDEST PUSH2 0x3015 JUMP JUMPDEST SWAP1 POP DUP3 DUP2 MSTORE PUSH1 0x20 DUP2 ADD DUP5 DUP5 DUP5 ADD GT ISZERO PUSH2 0x3344 JUMPI PUSH2 0x3343 PUSH2 0x2FB0 JUMP JUMPDEST JUMPDEST PUSH2 0x334F DUP5 DUP3 DUP6 PUSH2 0x3061 JUMP JUMPDEST POP SWAP4 SWAP3 POP POP POP JUMP JUMPDEST PUSH1 0x0 DUP3 PUSH1 0x1F DUP4 ADD SLT PUSH2 0x336C JUMPI PUSH2 0x336B PUSH2 0x2E94 JUMP JUMPDEST JUMPDEST DUP2 CALLDATALOAD PUSH2 0x337C DUP5 DUP3 PUSH1 0x20 DUP7 ADD PUSH2 0x3315 JUMP JUMPDEST SWAP2 POP POP SWAP3 SWAP2 POP POP JUMP JUMPDEST PUSH1 0x0 DUP1 PUSH1 0x0 DUP1 PUSH1 0x80 DUP6 DUP8 SUB SLT ISZERO PUSH2 0x339F JUMPI PUSH2 0x339E PUSH2 0x2BE9 JUMP JUMPDEST JUMPDEST PUSH1 0x0 PUSH2 0x33AD DUP8 DUP3 DUP9 ADD PUSH2 0x2E3F JUMP JUMPDEST SWAP5 POP POP PUSH1 0x20 PUSH2 0x33BE DUP8 DUP3 DUP9 ADD PUSH2 0x2E3F JUMP JUMPDEST SWAP4 POP POP PUSH1 0x40 PUSH2 0x33CF DUP8 DUP3 DUP9 ADD PUSH2 0x2D8A JUMP JUMPDEST SWAP3 POP POP PUSH1 0x60 DUP6 ADD CALLDATALOAD PUSH8 0xFFFFFFFFFFFFFFFF DUP2 GT ISZERO PUSH2 0x33F0 JUMPI PUSH2 0x33EF PUSH2 0x2BEE JUMP JUMPDEST JUMPDEST PUSH2 0x33FC DUP8 DUP3 DUP9 ADD PUSH2 0x3357 JUMP JUMPDEST SWAP2 POP POP SWAP3 SWAP6 SWAP2 SWAP5 POP SWAP3 POP JUMP JUMPDEST PUSH1 0x0 DUP1 PUSH1 0x40 DUP4 DUP6 SUB SLT ISZERO PUSH2 0x341F JUMPI PUSH2 0x341E PUSH2 0x2BE9 JUMP JUMPDEST JUMPDEST PUSH1 0x0 PUSH2 0x342D DUP6 DUP3 DUP7 ADD PUSH2 0x2E3F JUMP JUMPDEST SWAP3 POP POP PUSH1 0x20 PUSH2 0x343E DUP6 DUP3 DUP7 ADD PUSH2 0x2E3F JUMP JUMPDEST SWAP2 POP POP SWAP3 POP SWAP3 SWAP1 POP JUMP JUMPDEST PUSH32 0x4E487B7100000000000000000000000000000000000000000000000000000000 PUSH1 0x0 MSTORE PUSH1 0x22 PUSH1 0x4 MSTORE PUSH1 0x24 PUSH1 0x0 REVERT JUMPDEST PUSH1 0x0 PUSH1 0x2 DUP3 DIV SWAP1 POP PUSH1 0x1 DUP3 AND DUP1 PUSH2 0x348F JUMPI PUSH1 0x7F DUP3 AND SWAP2 POP JUMPDEST PUSH1 0x20 DUP3 LT DUP2 EQ ISZERO PUSH2 0x34A3 JUMPI PUSH2 0x34A2 PUSH2 0x3448 JUMP JUMPDEST JUMPDEST POP SWAP2 SWAP1 POP JUMP JUMPDEST PUSH32 0x5265656E7472616E637947756172643A207265656E7472616E742063616C6C00 PUSH1 0x0 DUP3 ADD MSTORE POP JUMP JUMPDEST PUSH1 0x0 PUSH2 0x34DF PUSH1 0x1F DUP4 PUSH2 0x2CB9 JUMP JUMPDEST SWAP2 POP PUSH2 0x34EA DUP3 PUSH2 0x34A9 JUMP JUMPDEST PUSH1 0x20 DUP3 ADD SWAP1 POP SWAP2 SWAP1 POP JUMP JUMPDEST PUSH1 0x0 PUSH1 0x20 DUP3 ADD SWAP1 POP DUP2 DUP2 SUB PUSH1 0x0 DUP4 ADD MSTORE PUSH2 0x350E DUP2 PUSH2 0x34D2 JUMP JUMPDEST SWAP1 POP SWAP2 SWAP1 POP JUMP JUMPDEST PUSH32 0x4E487B7100000000000000000000000000000000000000000000000000000000 PUSH1 0x0 MSTORE PUSH1 0x11 PUSH1 0x4 MSTORE PUSH1 0x24 PUSH1 0x0 REVERT JUMPDEST PUSH1 0x0 PUSH2 0x354F DUP3 PUSH2 0x2D69 JUMP JUMPDEST SWAP2 POP PUSH2 0x355A DUP4 PUSH2 0x2D69 JUMP JUMPDEST SWAP3 POP DUP3 PUSH32 0xFFFFFFFFFFFFFFFFFFFFFFFFFFFFFFFFFFFFFFFFFFFFFFFFFFFFFFFFFFFFFFFF SUB DUP3 GT ISZERO PUSH2 0x358F JUMPI PUSH2 0x358E PUSH2 0x3515 JUMP JUMPDEST JUMPDEST DUP3 DUP3 ADD SWAP1 POP SWAP3 SWAP2 POP POP JUMP JUMPDEST PUSH1 0x0 PUSH2 0x35A5 DUP3 PUSH2 0x2D69 JUMP JUMPDEST SWAP2 POP PUSH2 0x35B0 DUP4 PUSH2 0x2D69 JUMP JUMPDEST SWAP3 POP DUP2 PUSH32 0xFFFFFFFFFFFFFFFFFFFFFFFFFFFFFFFFFFFFFFFFFFFFFFFFFFFFFFFFFFFFFFFF DIV DUP4 GT DUP3 ISZERO ISZERO AND ISZERO PUSH2 0x35E9 JUMPI PUSH2 0x35E8 PUSH2 0x3515 JUMP JUMPDEST JUMPDEST DUP3 DUP3 MUL SWAP1 POP SWAP3 SWAP2 POP POP JUMP JUMPDEST PUSH1 0x0 PUSH2 0x35FF DUP3 PUSH2 0x2D69 JUMP JUMPDEST SWAP2 POP PUSH2 0x360A DUP4 PUSH2 0x2D69 JUMP JUMPDEST SWAP3 POP DUP3 DUP3 LT ISZERO PUSH2 0x361D JUMPI PUSH2 0x361C PUSH2 0x3515 JUMP JUMPDEST JUMPDEST DUP3 DUP3 SUB SWAP1 POP SWAP3 SWAP2 POP POP JUMP JUMPDEST PUSH32 0x4E487B7100000000000000000000000000000000000000000000000000000000 PUSH1 0x0 MSTORE PUSH1 0x32 PUSH1 0x4 MSTORE PUSH1 0x24 PUSH1 0x0 REVERT JUMPDEST PUSH1 0x0 PUSH2 0x3662 DUP3 PUSH2 0x2D69 JUMP JUMPDEST SWAP2 POP PUSH32 0xFFFFFFFFFFFFFFFFFFFFFFFFFFFFFFFFFFFFFFFFFFFFFFFFFFFFFFFFFFFFFFFF DUP3 EQ ISZERO PUSH2 0x3695 JUMPI PUSH2 0x3694 PUSH2 0x3515 JUMP JUMPDEST JUMPDEST PUSH1 0x1 DUP3 ADD SWAP1 POP SWAP2 SWAP1 POP JUMP JUMPDEST PUSH32 0x5F6E6577426173655552492063616E6E6F7420626520656D7074792100000000 PUSH1 0x0 DUP3 ADD MSTORE POP JUMP JUMPDEST PUSH1 0x0 PUSH2 0x36D6 PUSH1 0x1C DUP4 PUSH2 0x2CB9 JUMP JUMPDEST SWAP2 POP PUSH2 0x36E1 DUP3 PUSH2 0x36A0 JUMP JUMPDEST PUSH1 0x20 DUP3 ADD SWAP1 POP SWAP2 SWAP1 POP JUMP JUMPDEST PUSH1 0x0 PUSH1 0x20 DUP3 ADD SWAP1 POP DUP2 DUP2 SUB PUSH1 0x0 DUP4 ADD MSTORE PUSH2 0x3705 DUP2 PUSH2 0x36C9 JUMP JUMPDEST SWAP1 POP SWAP2 SWAP1 POP JUMP JUMPDEST PUSH32 0x5F6E6577426173655552492073686F756C642068617665206120737566666978 PUSH1 0x0 DUP3 ADD MSTORE PUSH32 0x206F6620272F2700000000000000000000000000000000000000000000000000 PUSH1 0x20 DUP3 ADD MSTORE POP JUMP JUMPDEST PUSH1 0x0 PUSH2 0x3768 PUSH1 0x27 DUP4 PUSH2 0x2CB9 JUMP JUMPDEST SWAP2 POP PUSH2 0x3773 DUP3 PUSH2 0x370C JUMP JUMPDEST PUSH1 0x40 DUP3 ADD SWAP1 POP SWAP2 SWAP1 POP JUMP JUMPDEST PUSH1 0x0 PUSH1 0x20 DUP3 ADD SWAP1 POP DUP2 DUP2 SUB PUSH1 0x0 DUP4 ADD MSTORE PUSH2 0x3797 DUP2 PUSH2 0x375B JUMP JUMPDEST SWAP1 POP SWAP2 SWAP1 POP JUMP JUMPDEST PUSH32 0x596F752063616E206F6E6C79207365742062617365555249206F6E6365210000 PUSH1 0x0 DUP3 ADD MSTORE POP JUMP JUMPDEST PUSH1 0x0 PUSH2 0x37D4 PUSH1 0x1E DUP4 PUSH2 0x2CB9 JUMP JUMPDEST SWAP2 POP PUSH2 0x37DF DUP3 PUSH2 0x379E JUMP JUMPDEST PUSH1 0x20 DUP3 ADD SWAP1 POP SWAP2 SWAP1 POP JUMP JUMPDEST PUSH1 0x0 PUSH1 0x20 DUP3 ADD SWAP1 POP DUP2 DUP2 SUB PUSH1 0x0 DUP4 ADD MSTORE PUSH2 0x3803 DUP2 PUSH2 0x37C7 JUMP JUMPDEST SWAP1 POP SWAP2 SWAP1 POP JUMP JUMPDEST PUSH32 0x746F6B656E20646F6573206E6F74206578697374210000000000000000000000 PUSH1 0x0 DUP3 ADD MSTORE POP JUMP JUMPDEST PUSH1 0x0 PUSH2 0x3840 PUSH1 0x15 DUP4 PUSH2 0x2CB9 JUMP JUMPDEST SWAP2 POP PUSH2 0x384B DUP3 PUSH2 0x380A JUMP JUMPDEST PUSH1 0x20 DUP3 ADD SWAP1 POP SWAP2 SWAP1 POP JUMP JUMPDEST PUSH1 0x0 PUSH1 0x20 DUP3 ADD SWAP1 POP DUP2 DUP2 SUB PUSH1 0x0 DUP4 ADD MSTORE PUSH2 0x386F DUP2 PUSH2 0x3833 JUMP JUMPDEST SWAP1 POP SWAP2 SWAP1 POP JUMP JUMPDEST PUSH1 0x0 DUP2 SWAP1 POP SWAP3 SWAP2 POP POP JUMP JUMPDEST PUSH1 0x0 PUSH2 0x388C DUP3 PUSH2 0x2CAE JUMP JUMPDEST PUSH2 0x3896 DUP2 DUP6 PUSH2 0x3876 JUMP JUMPDEST SWAP4 POP PUSH2 0x38A6 DUP2 DUP6 PUSH1 0x20 DUP7 ADD PUSH2 0x2CCA JUMP JUMPDEST DUP1 DUP5 ADD SWAP2 POP POP SWAP3 SWAP2 POP POP JUMP JUMPDEST PUSH1 0x0 DUP2 SWAP1 POP DUP2 PUSH1 0x0 MSTORE PUSH1 0x20 PUSH1 0x0 KECCAK256 SWAP1 POP SWAP2 SWAP1 POP JUMP JUMPDEST PUSH1 0x0 DUP2 SLOAD PUSH2 0x38D4 DUP2 PUSH2 0x3477 JUMP JUMPDEST PUSH2 0x38DE DUP2 DUP7 PUSH2 0x3876 JUMP JUMPDEST SWAP5 POP PUSH1 0x1 DUP3 AND PUSH1 0x0 DUP2 EQ PUSH2 0x38F9 JUMPI PUSH1 0x1 DUP2 EQ PUSH2 0x390A JUMPI PUSH2 0x393D JUMP JUMPDEST PUSH1 0xFF NOT DUP4 AND DUP7 MSTORE DUP2 DUP7 ADD SWAP4 POP PUSH2 0x393D JUMP JUMPDEST PUSH2 0x3913 DUP6 PUSH2 0x38B2 JUMP JUMPDEST PUSH1 0x0 JUMPDEST DUP4 DUP2 LT ISZERO PUSH2 0x3935 JUMPI DUP2 SLOAD DUP2 DUP10 ADD MSTORE PUSH1 0x1 DUP3 ADD SWAP2 POP PUSH1 0x20 DUP2 ADD SWAP1 POP PUSH2 0x3916 JUMP JUMPDEST DUP4 DUP9 ADD SWAP6 POP POP POP JUMPDEST POP POP POP SWAP3 SWAP2 POP POP JUMP JUMPDEST PUSH1 0x0 PUSH2 0x3952 DUP3 DUP7 PUSH2 0x3881 JUMP JUMPDEST SWAP2 POP PUSH2 0x395E DUP3 DUP6 PUSH2 0x3881 JUMP JUMPDEST SWAP2 POP PUSH2 0x396A DUP3 DUP5 PUSH2 0x38C7 JUMP JUMPDEST SWAP2 POP DUP2 SWAP1 POP SWAP5 SWAP4 POP POP POP POP JUMP JUMPDEST PUSH32 0x4F776E61626C653A206E6577206F776E657220697320746865207A65726F2061 PUSH1 0x0 DUP3 ADD MSTORE PUSH32 0x6464726573730000000000000000000000000000000000000000000000000000 PUSH1 0x20 DUP3 ADD MSTORE POP JUMP JUMPDEST PUSH1 0x0 PUSH2 0x39D3 PUSH1 0x26 DUP4 PUSH2 0x2CB9 JUMP JUMPDEST SWAP2 POP PUSH2 0x39DE DUP3 PUSH2 0x3977 JUMP JUMPDEST PUSH1 0x40 DUP3 ADD SWAP1 POP SWAP2 SWAP1 POP JUMP JUMPDEST PUSH1 0x0 PUSH1 0x20 DUP3 ADD SWAP1 POP DUP2 DUP2 SUB PUSH1 0x0 DUP4 ADD MSTORE PUSH2 0x3A02 DUP2 PUSH2 0x39C6 JUMP JUMPDEST SWAP1 POP SWAP2 SWAP1 POP JUMP JUMPDEST PUSH32 0x4F776E61626C653A2063616C6C6572206973206E6F7420746865206F776E6572 PUSH1 0x0 DUP3 ADD MSTORE POP JUMP JUMPDEST PUSH1 0x0 PUSH2 0x3A3F PUSH1 0x20 DUP4 PUSH2 0x2CB9 JUMP JUMPDEST SWAP2 POP PUSH2 0x3A4A DUP3 PUSH2 0x3A09 JUMP JUMPDEST PUSH1 0x20 DUP3 ADD SWAP1 POP SWAP2 SWAP1 POP JUMP JUMPDEST PUSH1 0x0 PUSH1 0x20 DUP3 ADD SWAP1 POP DUP2 DUP2 SUB PUSH1 0x0 DUP4 ADD MSTORE PUSH2 0x3A6E DUP2 PUSH2 0x3A32 JUMP JUMPDEST SWAP1 POP SWAP2 SWAP1 POP JUMP JUMPDEST PUSH1 0x0 PUSH2 0x3A81 DUP3 DUP5 PUSH2 0x3881 JUMP JUMPDEST SWAP2 POP DUP2 SWAP1 POP SWAP3 SWAP2 POP POP JUMP JUMPDEST PUSH1 0x0 DUP2 MLOAD SWAP1 POP SWAP2 SWAP1 POP JUMP JUMPDEST PUSH1 0x0 DUP3 DUP3 MSTORE PUSH1 0x20 DUP3 ADD SWAP1 POP SWAP3 SWAP2 POP POP JUMP JUMPDEST PUSH1 0x0 PUSH2 0x3AB3 DUP3 PUSH2 0x3A8C JUMP JUMPDEST PUSH2 0x3ABD DUP2 DUP6 PUSH2 0x3A97 JUMP JUMPDEST SWAP4 POP PUSH2 0x3ACD DUP2 DUP6 PUSH1 0x20 DUP7 ADD PUSH2 0x2CCA JUMP JUMPDEST PUSH2 0x3AD6 DUP2 PUSH2 0x2CFD JUMP JUMPDEST DUP5 ADD SWAP2 POP POP SWAP3 SWAP2 POP POP JUMP JUMPDEST PUSH1 0x0 PUSH1 0x80 DUP3 ADD SWAP1 POP PUSH2 0x3AF6 PUSH1 0x0 DUP4 ADD DUP8 PUSH2 0x2DFE JUMP JUMPDEST PUSH2 0x3B03 PUSH1 0x20 DUP4 ADD DUP7 PUSH2 0x2DFE JUMP JUMPDEST PUSH2 0x3B10 PUSH1 0x40 DUP4 ADD DUP6 PUSH2 0x2F86 JUMP JUMPDEST DUP2 DUP2 SUB PUSH1 0x60 DUP4 ADD MSTORE PUSH2 0x3B22 DUP2 DUP5 PUSH2 0x3AA8 JUMP JUMPDEST SWAP1 POP SWAP6 SWAP5 POP POP POP POP POP JUMP JUMPDEST PUSH1 0x0 DUP2 MLOAD SWAP1 POP PUSH2 0x3B3C DUP2 PUSH2 0x2C1F JUMP JUMPDEST SWAP3 SWAP2 POP POP JUMP JUMPDEST PUSH1 0x0 PUSH1 0x20 DUP3 DUP5 SUB SLT ISZERO PUSH2 0x3B58 JUMPI PUSH2 0x3B57 PUSH2 0x2BE9 JUMP JUMPDEST JUMPDEST PUSH1 0x0 PUSH2 0x3B66 DUP5 DUP3 DUP6 ADD PUSH2 0x3B2D JUMP JUMPDEST SWAP2 POP POP SWAP3 SWAP2 POP POP JUMP JUMPDEST PUSH32 0x4E487B7100000000000000000000000000000000000000000000000000000000 PUSH1 0x0 MSTORE PUSH1 0x12 PUSH1 0x4 MSTORE PUSH1 0x24 PUSH1 0x0 REVERT JUMPDEST PUSH1 0x0 PUSH2 0x3BA9 DUP3 PUSH2 0x2D69 JUMP JUMPDEST SWAP2 POP PUSH2 0x3BB4 DUP4 PUSH2 0x2D69 JUMP JUMPDEST SWAP3 POP DUP3 PUSH2 0x3BC4 JUMPI PUSH2 0x3BC3 PUSH2 0x3B6F JUMP JUMPDEST JUMPDEST DUP3 DUP3 DIV SWAP1 POP SWAP3 SWAP2 POP POP JUMP JUMPDEST PUSH1 0x0 PUSH2 0x3BDA DUP3 PUSH2 0x2D69 JUMP JUMPDEST SWAP2 POP PUSH2 0x3BE5 DUP4 PUSH2 0x2D69 JUMP JUMPDEST SWAP3 POP DUP3 PUSH2 0x3BF5 JUMPI PUSH2 0x3BF4 PUSH2 0x3B6F JUMP JUMPDEST JUMPDEST DUP3 DUP3 MOD SWAP1 POP SWAP3 SWAP2 POP POP JUMP JUMPDEST PUSH1 0x0 DUP2 PUSH1 0x60 SHL SWAP1 POP SWAP2 SWAP1 POP JUMP JUMPDEST PUSH1 0x0 PUSH2 0x3C18 DUP3 PUSH2 0x3C00 JUMP JUMPDEST SWAP1 POP SWAP2 SWAP1 POP JUMP JUMPDEST PUSH1 0x0 PUSH2 0x3C2A DUP3 PUSH2 0x3C0D JUMP JUMPDEST SWAP1 POP SWAP2 SWAP1 POP JUMP JUMPDEST PUSH2 0x3C42 PUSH2 0x3C3D DUP3 PUSH2 0x2DEC JUMP JUMPDEST PUSH2 0x3C1F JUMP JUMPDEST DUP3 MSTORE POP POP JUMP JUMPDEST PUSH1 0x0 PUSH2 0x3C54 DUP3 DUP5 PUSH2 0x3C31 JUMP JUMPDEST PUSH1 0x14 DUP3 ADD SWAP2 POP DUP2 SWAP1 POP SWAP3 SWAP2 POP POP JUMP INVALID LOG2 PUSH5 0x6970667358 0x22 SLT KECCAK256 MUL 0xCE PUSH15 0x7A97827F7312836B543D813AA6D06A SLT STATICCALL 0x28 0xB2 DIFFICULTY 0xED BALANCE CALLVALUE DUP12 SUB 0x23 0xC6 0xCE EQ PUSH5 0x736F6C6343 STOP ADDMOD MULMOD STOP CALLER "},"methodIdentifiers":{"approve(address,uint256)":"095ea7b3","balanceOf(address)":"70a08231","baseExtension()":"c6682862","baseHiddenUri()":"8fe11a97","baseURI()":"6c0360eb","getApproved(uint256)":"081812fc","isApprovedForAll(address,address)":"e985e9c5","maxMints()":"b6b6f0c3","maxSupply()":"d5abeb01","merkleRoot()":"2eb4a7ab","mint(uint256)":"a0712d68","mintRate()":"ca0dcf16","name()":"06fdde03","owner()":"8da5cb5b","ownerOf(uint256)":"6352211e","publicSale()":"33bc1c5c","renounceOwnership()":"715018a6","reserveMint(uint256)":"1342ff4c","revealed()":"51830227","safeTransferFrom(address,address,uint256)":"42842e0e","safeTransferFrom(address,address,uint256,bytes)":"b88d4fde","setApprovalForAll(address,bool)":"a22cb465","setBaseURI(string)":"55f804b3","setMerkleRoot(bytes32)":"7cb64759","substring(string,uint256,uint256)":"1dcd9b55","supportsInterface(bytes4)":"01ffc9a7","symbol()":"95d89b41","togglePublicSale()":"e222c7f9","toggleWhitelistSale()":"59eda1b5","tokenURI(uint256)":"c87b56dd","totalSupply()":"18160ddd","transferFrom(address,address,uint256)":"23b872dd","transferOwnership(address)":"f2fde38b","usedAddresses(address)":"acdce273","whiteListMaxMints()":"ee5735a8","whiteListMint(uint256,bytes32[])":"11876875","whiteListUsedAddresses(address)":"13bfabc0","whitelistMintRate()":"2e809ec1","whitelistSale()":"31ffd6f1","withdraw()":"3ccfd60b"}}}}}