{
  "_format": "hh-sol-artifact-1",
  "contractName": "StringUtils",
  "sourceName": "contracts/StringUtils.sol",
  "abi": [
    {
      "inputs": [
        {
          "internalType": "string",
          "name": "str",
          "type": "string"
        },
        {
          "internalType": "uint256",
          "name": "startIndex",
          "type": "uint256"
        },
        {
          "internalType": "uint256",
          "name": "endIndex",
          "type": "uint256"
        }
      ],
      "name": "substring",
      "outputs": [
        {
          "internalType": "string",
          "name": "",
          "type": "string"
        }
      ],
      "stateMutability": "pure",
      "type": "function"
    }
  ],
  "bytecode": "0x608060405234801561001057600080fd5b50610516806100206000396000f3fe608060405234801561001057600080fd5b506004361061002b5760003560e01c80631dcd9b5514610030575b600080fd5b61004a600480360381019061004591906102ec565b610060565b60405161005791906103e3565b60405180910390f35b60606000849050600084846100759190610434565b67ffffffffffffffff81111561008e5761008d61018b565b5b6040519080825280601f01601f1916602001820160405280156100c05781602001600182028036833780820191505090505b50905060008590505b8481101561014f578281815181106100e4576100e3610468565b5b602001015160f81c60f81b8287836100fc9190610434565b8151811061010d5761010c610468565b5b60200101907effffffffffffffffffffffffffffffffffffffffffffffffffffffffffffff1916908160001a905350808061014790610497565b9150506100c9565b5080925050509392505050565b6000604051905090565b600080fd5b600080fd5b600080fd5b600080fd5b6000601f19601f8301169050919050565b7f4e487b7100000000000000000000000000000000000000000000000000000000600052604160045260246000fd5b6101c38261017a565b810181811067ffffffffffffffff821117156101e2576101e161018b565b5b80604052505050565b60006101f561015c565b905061020182826101ba565b919050565b600067ffffffffffffffff8211156102215761022061018b565b5b61022a8261017a565b9050602081019050919050565b82818337600083830152505050565b600061025961025484610206565b6101eb565b90508281526020810184848401111561027557610274610175565b5b610280848285610237565b509392505050565b600082601f83011261029d5761029c610170565b5b81356102ad848260208601610246565b91505092915050565b6000819050919050565b6102c9816102b6565b81146102d457600080fd5b50565b6000813590506102e6816102c0565b92915050565b60008060006060848603121561030557610304610166565b5b600084013567ffffffffffffffff8111156103235761032261016b565b5b61032f86828701610288565b9350506020610340868287016102d7565b9250506040610351868287016102d7565b9150509250925092565b600081519050919050565b600082825260208201905092915050565b60005b8381101561039557808201518184015260208101905061037a565b838111156103a4576000848401525b50505050565b60006103b58261035b565b6103bf8185610366565b93506103cf818560208601610377565b6103d88161017a565b840191505092915050565b600060208201905081810360008301526103fd81846103aa565b905092915050565b7f4e487b7100000000000000000000000000000000000000000000000000000000600052601160045260246000fd5b600061043f826102b6565b915061044a836102b6565b92508282101561045d5761045c610405565b5b828203905092915050565b7f4e487b7100000000000000000000000000000000000000000000000000000000600052603260045260246000fd5b60006104a2826102b6565b91507fffffffffffffffffffffffffffffffffffffffffffffffffffffffffffffffff8214156104d5576104d4610405565b5b60018201905091905056fea2646970667358221220177ce6ef97a69e0f0face954961a7b7df110ce0da6efc2edf08584d01ea1334164736f6c63430008090033",
  "linkReferences": {},
  "deployedLinkReferences": {}
}