{
  "contractName": "KitsudenFoxfone",
  "abi": [
    {
      "inputs": [],
      "stateMutability": "nonpayable",
      "type": "constructor"
    },
    {
      "inputs": [],
      "name": "ApprovalCallerNotOwnerNorApproved",
      "type": "error"
    },
    {
      "inputs": [],
      "name": "ApprovalQueryForNonexistentToken",
      "type": "error"
    },
    {
      "inputs": [],
      "name": "ApprovalToCurrentOwner",
      "type": "error"
    },
    {
      "inputs": [],
      "name": "ApproveToCaller",
      "type": "error"
    },
    {
      "inputs": [],
      "name": "BalanceQueryForZeroAddress",
      "type": "error"
    },
    {
      "inputs": [],
      "name": "ExceededLimit",
      "type": "error"
    },
    {
      "inputs": [],
      "name": "InvalidMerkle",
      "type": "error"
    },
    {
      "inputs": [],
      "name": "MintToZeroAddress",
      "type": "error"
    },
    {
      "inputs": [],
      "name": "MintZeroQuantity",
      "type": "error"
    },
    {
      "inputs": [],
      "name": "NotEnoughTokensLeft",
      "type": "error"
    },
    {
      "inputs": [],
      "name": "OwnerQueryForNonexistentToken",
      "type": "error"
    },
    {
      "inputs": [],
      "name": "PublicSaleNotLive",
      "type": "error"
    },
    {
      "inputs": [],
      "name": "TransferCallerNotOwnerNorApproved",
      "type": "error"
    },
    {
      "inputs": [],
      "name": "TransferFromIncorrectOwner",
      "type": "error"
    },
    {
      "inputs": [],
      "name": "TransferToNonERC721ReceiverImplementer",
      "type": "error"
    },
    {
      "inputs": [],
      "name": "TransferToZeroAddress",
      "type": "error"
    },
    {
      "inputs": [],
      "name": "URIQueryForNonexistentToken",
      "type": "error"
    },
    {
      "inputs": [],
      "name": "WhitelistNotActive",
      "type": "error"
    },
    {
      "inputs": [],
      "name": "WhitelistUsed",
      "type": "error"
    },
    {
      "inputs": [],
      "name": "WrongEther",
      "type": "error"
    },
    {
      "anonymous": false,
      "inputs": [
        {
          "indexed": true,
          "internalType": "address",
          "name": "owner",
          "type": "address"
        },
        {
          "indexed": true,
          "internalType": "address",
          "name": "approved",
          "type": "address"
        },
        {
          "indexed": true,
          "internalType": "uint256",
          "name": "tokenId",
          "type": "uint256"
        }
      ],
      "name": "Approval",
      "type": "event"
    },
    {
      "anonymous": false,
      "inputs": [
        {
          "indexed": true,
          "internalType": "address",
          "name": "owner",
          "type": "address"
        },
        {
          "indexed": true,
          "internalType": "address",
          "name": "operator",
          "type": "address"
        },
        {
          "indexed": false,
          "internalType": "bool",
          "name": "approved",
          "type": "bool"
        }
      ],
      "name": "ApprovalForAll",
      "type": "event"
    },
    {
      "anonymous": false,
      "inputs": [
        {
          "indexed": true,
          "internalType": "address",
          "name": "previousOwner",
          "type": "address"
        },
        {
          "indexed": true,
          "internalType": "address",
          "name": "newOwner",
          "type": "address"
        }
      ],
      "name": "OwnershipTransferred",
      "type": "event"
    },
    {
      "anonymous": false,
      "inputs": [
        {
          "indexed": true,
          "internalType": "address",
          "name": "from",
          "type": "address"
        },
        {
          "indexed": true,
          "internalType": "address",
          "name": "to",
          "type": "address"
        },
        {
          "indexed": true,
          "internalType": "uint256",
          "name": "tokenId",
          "type": "uint256"
        }
      ],
      "name": "Transfer",
      "type": "event"
    },
    {
      "inputs": [
        {
          "internalType": "address",
          "name": "to",
          "type": "address"
        },
        {
          "internalType": "uint256",
          "name": "tokenId",
          "type": "uint256"
        }
      ],
      "name": "approve",
      "outputs": [],
      "stateMutability": "nonpayable",
      "type": "function"
    },
    {
      "inputs": [
        {
          "internalType": "address",
          "name": "owner",
          "type": "address"
        }
      ],
      "name": "balanceOf",
      "outputs": [
        {
          "internalType": "uint256",
          "name": "",
          "type": "uint256"
        }
      ],
      "stateMutability": "view",
      "type": "function",
      "constant": true
    },
    {
      "inputs": [],
      "name": "baseExtension",
      "outputs": [
        {
          "internalType": "string",
          "name": "",
          "type": "string"
        }
      ],
      "stateMutability": "view",
      "type": "function",
      "constant": true
    },
    {
      "inputs": [],
      "name": "baseURI",
      "outputs": [
        {
          "internalType": "string",
          "name": "",
          "type": "string"
        }
      ],
      "stateMutability": "view",
      "type": "function",
      "constant": true
    },
    {
      "inputs": [
        {
          "internalType": "uint256",
          "name": "tokenId",
          "type": "uint256"
        }
      ],
      "name": "getApproved",
      "outputs": [
        {
          "internalType": "address",
          "name": "",
          "type": "address"
        }
      ],
      "stateMutability": "view",
      "type": "function",
      "constant": true
    },
    {
      "inputs": [],
      "name": "hiddenUri",
      "outputs": [
        {
          "internalType": "string",
          "name": "",
          "type": "string"
        }
      ],
      "stateMutability": "view",
      "type": "function",
      "constant": true
    },
    {
      "inputs": [
        {
          "internalType": "address",
          "name": "owner",
          "type": "address"
        },
        {
          "internalType": "address",
          "name": "operator",
          "type": "address"
        }
      ],
      "name": "isApprovedForAll",
      "outputs": [
        {
          "internalType": "bool",
          "name": "",
          "type": "bool"
        }
      ],
      "stateMutability": "view",
      "type": "function",
      "constant": true
    },
    {
      "inputs": [],
      "name": "maxMints",
      "outputs": [
        {
          "internalType": "uint256",
          "name": "",
          "type": "uint256"
        }
      ],
      "stateMutability": "view",
      "type": "function",
      "constant": true
    },
    {
      "inputs": [],
      "name": "maxSupply",
      "outputs": [
        {
          "internalType": "uint256",
          "name": "",
          "type": "uint256"
        }
      ],
      "stateMutability": "view",
      "type": "function",
      "constant": true
    },
    {
      "inputs": [],
      "name": "merkleRoot",
      "outputs": [
        {
          "internalType": "bytes32",
          "name": "",
          "type": "bytes32"
        }
      ],
      "stateMutability": "view",
      "type": "function",
      "constant": true
    },
    {
      "inputs": [],
      "name": "mintRate",
      "outputs": [
        {
          "internalType": "uint256",
          "name": "",
          "type": "uint256"
        }
      ],
      "stateMutability": "view",
      "type": "function",
      "constant": true
    },
    {
      "inputs": [],
      "name": "name",
      "outputs": [
        {
          "internalType": "string",
          "name": "",
          "type": "string"
        }
      ],
      "stateMutability": "view",
      "type": "function",
      "constant": true
    },
    {
      "inputs": [],
      "name": "owner",
      "outputs": [
        {
          "internalType": "address",
          "name": "",
          "type": "address"
        }
      ],
      "stateMutability": "view",
      "type": "function",
      "constant": true
    },
    {
      "inputs": [
        {
          "internalType": "uint256",
          "name": "tokenId",
          "type": "uint256"
        }
      ],
      "name": "ownerOf",
      "outputs": [
        {
          "internalType": "address",
          "name": "",
          "type": "address"
        }
      ],
      "stateMutability": "view",
      "type": "function",
      "constant": true
    },
    {
      "inputs": [],
      "name": "publicSale",
      "outputs": [
        {
          "internalType": "bool",
          "name": "",
          "type": "bool"
        }
      ],
      "stateMutability": "view",
      "type": "function",
      "constant": true
    },
    {
      "inputs": [],
      "name": "renounceOwnership",
      "outputs": [],
      "stateMutability": "nonpayable",
      "type": "function"
    },
    {
      "inputs": [],
      "name": "revealed",
      "outputs": [
        {
          "internalType": "bool",
          "name": "",
          "type": "bool"
        }
      ],
      "stateMutability": "view",
      "type": "function",
      "constant": true
    },
    {
      "inputs": [
        {
          "internalType": "address",
          "name": "from",
          "type": "address"
        },
        {
          "internalType": "address",
          "name": "to",
          "type": "address"
        },
        {
          "internalType": "uint256",
          "name": "tokenId",
          "type": "uint256"
        }
      ],
      "name": "safeTransferFrom",
      "outputs": [],
      "stateMutability": "nonpayable",
      "type": "function"
    },
    {
      "inputs": [
        {
          "internalType": "address",
          "name": "from",
          "type": "address"
        },
        {
          "internalType": "address",
          "name": "to",
          "type": "address"
        },
        {
          "internalType": "uint256",
          "name": "tokenId",
          "type": "uint256"
        },
        {
          "internalType": "bytes",
          "name": "_data",
          "type": "bytes"
        }
      ],
      "name": "safeTransferFrom",
      "outputs": [],
      "stateMutability": "nonpayable",
      "type": "function"
    },
    {
      "inputs": [
        {
          "internalType": "address",
          "name": "operator",
          "type": "address"
        },
        {
          "internalType": "bool",
          "name": "approved",
          "type": "bool"
        }
      ],
      "name": "setApprovalForAll",
      "outputs": [],
      "stateMutability": "nonpayable",
      "type": "function"
    },
    {
      "inputs": [
        {
          "internalType": "bytes4",
          "name": "interfaceId",
          "type": "bytes4"
        }
      ],
      "name": "supportsInterface",
      "outputs": [
        {
          "internalType": "bool",
          "name": "",
          "type": "bool"
        }
      ],
      "stateMutability": "view",
      "type": "function",
      "constant": true
    },
    {
      "inputs": [],
      "name": "symbol",
      "outputs": [
        {
          "internalType": "string",
          "name": "",
          "type": "string"
        }
      ],
      "stateMutability": "view",
      "type": "function",
      "constant": true
    },
    {
      "inputs": [],
      "name": "totalSupply",
      "outputs": [
        {
          "internalType": "uint256",
          "name": "",
          "type": "uint256"
        }
      ],
      "stateMutability": "view",
      "type": "function",
      "constant": true
    },
    {
      "inputs": [
        {
          "internalType": "address",
          "name": "from",
          "type": "address"
        },
        {
          "internalType": "address",
          "name": "to",
          "type": "address"
        },
        {
          "internalType": "uint256",
          "name": "tokenId",
          "type": "uint256"
        }
      ],
      "name": "transferFrom",
      "outputs": [],
      "stateMutability": "nonpayable",
      "type": "function"
    },
    {
      "inputs": [
        {
          "internalType": "address",
          "name": "newOwner",
          "type": "address"
        }
      ],
      "name": "transferOwnership",
      "outputs": [],
      "stateMutability": "nonpayable",
      "type": "function"
    },
    {
      "inputs": [
        {
          "internalType": "address",
          "name": "",
          "type": "address"
        }
      ],
      "name": "usedAddresses",
      "outputs": [
        {
          "internalType": "uint256",
          "name": "",
          "type": "uint256"
        }
      ],
      "stateMutability": "view",
      "type": "function",
      "constant": true
    },
    {
      "inputs": [],
      "name": "whiteListMaxMints",
      "outputs": [
        {
          "internalType": "uint256",
          "name": "",
          "type": "uint256"
        }
      ],
      "stateMutability": "view",
      "type": "function",
      "constant": true
    },
    {
      "inputs": [
        {
          "internalType": "address",
          "name": "",
          "type": "address"
        }
      ],
      "name": "whiteListUsedAddresses",
      "outputs": [
        {
          "internalType": "uint256",
          "name": "",
          "type": "uint256"
        }
      ],
      "stateMutability": "view",
      "type": "function",
      "constant": true
    },
    {
      "inputs": [],
      "name": "whitelistMintRate",
      "outputs": [
        {
          "internalType": "uint256",
          "name": "",
          "type": "uint256"
        }
      ],
      "stateMutability": "view",
      "type": "function",
      "constant": true
    },
    {
      "inputs": [],
      "name": "whitelistSale",
      "outputs": [
        {
          "internalType": "bool",
          "name": "",
          "type": "bool"
        }
      ],
      "stateMutability": "view",
      "type": "function",
      "constant": true
    },
    {
      "inputs": [
        {
          "internalType": "uint256",
          "name": "quantity",
          "type": "uint256"
        }
      ],
      "name": "mint",
      "outputs": [],
      "stateMutability": "payable",
      "type": "function",
      "payable": true
    },
    {
      "inputs": [
        {
          "internalType": "uint256",
          "name": "quantity",
          "type": "uint256"
        },
        {
          "internalType": "bytes32[]",
          "name": "proof",
          "type": "bytes32[]"
        }
      ],
      "name": "whiteListMint",
      "outputs": [],
      "stateMutability": "payable",
      "type": "function",
      "payable": true
    },
    {
      "inputs": [
        {
          "internalType": "uint256",
          "name": "tokenId",
          "type": "uint256"
        }
      ],
      "name": "tokenURI",
      "outputs": [
        {
          "internalType": "string",
          "name": "",
          "type": "string"
        }
      ],
      "stateMutability": "view",
      "type": "function",
      "constant": true
    },
    {
      "inputs": [],
      "name": "baseTokenURI",
      "outputs": [
        {
          "internalType": "string",
          "name": "",
          "type": "string"
        }
      ],
      "stateMutability": "view",
      "type": "function",
      "constant": true
    },
    {
      "inputs": [],
      "name": "mintAvailable",
      "outputs": [
        {
          "internalType": "uint256",
          "name": "",
          "type": "uint256"
        }
      ],
      "stateMutability": "view",
      "type": "function",
      "constant": true
    },
    {
      "inputs": [
        {
          "internalType": "string",
          "name": "_newBaseURI",
          "type": "string"
        }
      ],
      "name": "setBaseURI",
      "outputs": [],
      "stateMutability": "nonpayable",
      "type": "function"
    },
    {
      "inputs": [
        {
          "internalType": "bytes32",
          "name": "_root",
          "type": "bytes32"
        }
      ],
      "name": "setMerkleRoot",
      "outputs": [],
      "stateMutability": "nonpayable",
      "type": "function"
    },
    {
      "inputs": [],
      "name": "toggleReveal",
      "outputs": [],
      "stateMutability": "nonpayable",
      "type": "function"
    },
    {
      "inputs": [],
      "name": "togglePublicSale",
      "outputs": [],
      "stateMutability": "nonpayable",
      "type": "function"
    },
    {
      "inputs": [],
      "name": "toggleWhitelistSale",
      "outputs": [],
      "stateMutability": "nonpayable",
      "type": "function"
    },
    {
      "inputs": [
        {
          "internalType": "string",
          "name": "_hiddenUri",
          "type": "string"
        }
      ],
      "name": "setHiddenUri",
      "outputs": [],
      "stateMutability": "nonpayable",
      "type": "function"
    },
    {
      "inputs": [
        {
          "internalType": "uint256",
          "name": "_mintRate",
          "type": "uint256"
        }
      ],
      "name": "setMintRate",
      "outputs": [],
      "stateMutability": "nonpayable",
      "type": "function"
    },
    {
      "inputs": [
        {
          "internalType": "uint256",
          "name": "_mintRate",
          "type": "uint256"
        }
      ],
      "name": "setWhitelistMintRate",
      "outputs": [],
      "stateMutability": "nonpayable",
      "type": "function"
    },
    {
      "inputs": [
        {
          "internalType": "uint256",
          "name": "_newSupply",
          "type": "uint256"
        }
      ],
      "name": "setMaxSupply",
      "outputs": [],
      "stateMutability": "nonpayable",
      "type": "function"
    },
    {
      "inputs": [
        {
          "internalType": "uint256",
          "name": "_newMaxMints",
          "type": "uint256"
        }
      ],
      "name": "setMaxMints",
      "outputs": [],
      "stateMutability": "nonpayable",
      "type": "function"
    },
    {
      "inputs": [],
      "name": "withdraw",
      "outputs": [],
      "stateMutability": "payable",
      "type": "function",
      "payable": true
    }
  ],
  "bytecode": "0x6005600c556002600d556115b3600e556701144b67282ea000600f5566c55a6e4145e00060105560c0604052601760808190527f697066733a2f2f3c49443e2f68696464656e2e6a736f6e00000000000000000060a0908152620000679160119190620001ae565b5060408051808201909152600580825264173539b7b760d91b60209092019182526200009691601291620001ae565b50604080516020810191829052600090819052620000b791601391620001ae565b506014805462ffffff19169055348015620000d157600080fd5b50604080518082018252601081526f4b6974737564656e20466f78666f6e6560801b60208083019182528351808501909452600784526625aa29a227232360c91b9084015281519192916200012991600291620001ae565b5080516200013f906003906020840190620001ae565b50600080555050600160085562000156336200015c565b62000291565b600980546001600160a01b038381166001600160a01b0319831681179093556040519116919082907f8be0079c531659141344cd1fd0a4f28419497f9722a3daafe3b4186f6b6457e090600090a35050565b828054620001bc9062000254565b90600052602060002090601f016020900481019282620001e057600085556200022b565b82601f10620001fb57805160ff19168380011785556200022b565b828001600101855582156200022b579182015b828111156200022b5782518255916020019190600101906200020e565b50620002399291506200023d565b5090565b5b808211156200023957600081556001016200023e565b600181811c908216806200026957607f821691505b602082108114156200028b57634e487b7160e01b600052602260045260246000fd5b50919050565b61238480620002a16000396000f3fe60806040526004361061027d5760003560e01c806370a082311161014f578063b88d4fde116100c1578063d5abeb011161007a578063d5abeb011461070e578063dbe2193f14610724578063e222c7f914610744578063e985e9c514610759578063ee5735a8146107a2578063f2fde38b146107b857600080fd5b8063b88d4fde14610679578063c5be875014610699578063c6682862146106ae578063c87b56dd146106c3578063ca0dcf16146106e3578063d547cfb7146106f957600080fd5b806395d89b411161011357806395d89b41146105d957806399f19cea146105ee578063a0712d6814610603578063a22cb46514610616578063acdce27314610636578063b6b6f0c31461066357600080fd5b806370a0823114610546578063715018a61461056657806379c9cb7b1461057b5780637cb647591461059b5780638da5cb5b146105bb57600080fd5b80632eb4a7ab116101f357806355f804b3116101ac57806355f804b3146104a757806359eda1b5146104c75780635b8ad429146104dc5780636352211e146104f15780636c0360eb146105115780636f8b44b01461052657600080fd5b80632eb4a7ab1461041057806331ffd6f11461042657806333bc1c5c146104465780633ccfd60b1461046557806342842e0e1461046d578063518302271461048d57600080fd5b80631187687511610245578063118768751461035357806313bfabc0146103665780631432d72d146103a157806318160ddd146103c157806323b872dd146103da5780632e809ec1146103fa57600080fd5b806301ffc9a71461028257806306fdde03146102b7578063081812fc146102d9578063095ea7b3146103115780631067fcc714610333575b600080fd5b34801561028e57600080fd5b506102a261029d366004611f95565b6107d8565b60405190151581526020015b60405180910390f35b3480156102c357600080fd5b506102cc61082a565b6040516102ae91906121b6565b3480156102e557600080fd5b506102f96102f4366004611f7d565b6108bc565b6040516001600160a01b0390911681526020016102ae565b34801561031d57600080fd5b5061033161032c366004611f54565b610900565b005b34801561033f57600080fd5b5061033161034e366004611fcd565b610987565b610331610361366004612012565b6109d1565b34801561037257600080fd5b50610393610381366004611e1b565b60156020526000908152604090205481565b6040519081526020016102ae565b3480156103ad57600080fd5b506103316103bc366004611f7d565b610b7a565b3480156103cd57600080fd5b5060015460005403610393565b3480156103e657600080fd5b506103316103f5366004611e67565b610ba9565b34801561040657600080fd5b5061039360105481565b34801561041c57600080fd5b50610393600b5481565b34801561043257600080fd5b506014546102a29062010000900460ff1681565b34801561045257600080fd5b506014546102a290610100900460ff1681565b610331610bb4565b34801561047957600080fd5b50610331610488366004611e67565b610c1a565b34801561049957600080fd5b506014546102a29060ff1681565b3480156104b357600080fd5b506103316104c2366004611fcd565b610c35565b3480156104d357600080fd5b50610331610c72565b3480156104e857600080fd5b50610331610cbb565b3480156104fd57600080fd5b506102f961050c366004611f7d565b610cf9565b34801561051d57600080fd5b506102cc610d0b565b34801561053257600080fd5b50610331610541366004611f7d565b610d99565b34801561055257600080fd5b50610393610561366004611e1b565b610dc8565b34801561057257600080fd5b50610331610e16565b34801561058757600080fd5b50610331610596366004611f7d565b610e4c565b3480156105a757600080fd5b506103316105b6366004611f7d565b610e7b565b3480156105c757600080fd5b506009546001600160a01b03166102f9565b3480156105e557600080fd5b506102cc610eaa565b3480156105fa57600080fd5b50610393610eb9565b610331610611366004611f7d565b610f32565b34801561062257600080fd5b50610331610631366004611f1a565b611077565b34801561064257600080fd5b50610393610651366004611e1b565b60166020526000908152604090205481565b34801561066f57600080fd5b50610393600c5481565b34801561068557600080fd5b50610331610694366004611ea2565b61110d565b3480156106a557600080fd5b506102cc611157565b3480156106ba57600080fd5b506102cc611164565b3480156106cf57600080fd5b506102cc6106de366004611f7d565b611171565b3480156106ef57600080fd5b50610393600f5481565b34801561070557600080fd5b506102cc6112db565b34801561071a57600080fd5b50610393600e5481565b34801561073057600080fd5b5061033161073f366004611f7d565b6112ea565b34801561075057600080fd5b50610331611319565b34801561076557600080fd5b506102a2610774366004611e35565b6001600160a01b03918216600090815260076020908152604080832093909416825291909152205460ff1690565b3480156107ae57600080fd5b50610393600d5481565b3480156107c457600080fd5b506103316107d3366004611e1b565b611360565b60006001600160e01b031982166380ac58cd60e01b148061080957506001600160e01b03198216635b5e139f60e01b145b8061082457506301ffc9a760e01b6001600160e01b03198316145b92915050565b6060600280546108399061228c565b80601f01602080910402602001604051908101604052809291908181526020018280546108659061228c565b80156108b25780601f10610887576101008083540402835291602001916108b2565b820191906000526020600020905b81548152906001019060200180831161089557829003601f168201915b5050505050905090565b60006108c7826113f8565b6108e4576040516333d1c03960e21b815260040160405180910390fd5b506000908152600660205260409020546001600160a01b031690565b600061090b82610cf9565b9050806001600160a01b0316836001600160a01b031614156109405760405163250fdee360e21b815260040160405180910390fd5b336001600160a01b038216146109775761095a8133610774565b610977576040516367d9dca160e11b815260040160405180910390fd5b610982838383611423565b505050565b6009546001600160a01b031633146109ba5760405162461bcd60e51b81526004016109b1906121c9565b60405180910390fd5b80516109cd906011906020840190611cf1565b5050565b60026008541415610a245760405162461bcd60e51b815260206004820152601f60248201527f5265656e7472616e637947756172643a207265656e7472616e742063616c6c0060448201526064016109b1565b6002600855600d54831115610a4c57604051630e362dc360e21b815260040160405180910390fd5b3483601054610a5b919061222a565b14610a795760405163168afe2b60e31b815260040160405180910390fd5b600d5433600090815260166020526040902054610a979085906121fe565b1115610ab6576040516390b8614160e01b815260040160405180910390fd5b60145462010000900460ff16610adf576040516302664e7160e11b815260040160405180910390fd5b600e5483610af06001546000540390565b610afa91906121fe565b1115610b19576040516376592c6f60e01b815260040160405180910390fd5b610b2433838361147f565b610b4157604051631f8b1b7160e11b815260040160405180910390fd5b3360009081526016602052604081208054859290610b609084906121fe565b90915550610b7090503384611508565b5050600160085550565b6009546001600160a01b03163314610ba45760405162461bcd60e51b81526004016109b1906121c9565b601055565b610982838383611522565b6009546001600160a01b03163314610bde5760405162461bcd60e51b81526004016109b1906121c9565b6009546040516001600160a01b03909116904780156108fc02916000818181858888f19350505050158015610c17573d6000803e3d6000fd5b50565b6109828383836040518060200160405280600081525061110d565b6009546001600160a01b03163314610c5f5760405162461bcd60e51b81526004016109b1906121c9565b80516109cd906013906020840190611cf1565b6009546001600160a01b03163314610c9c5760405162461bcd60e51b81526004016109b1906121c9565b6014805462ff0000198116620100009182900460ff1615909102179055565b6009546001600160a01b03163314610ce55760405162461bcd60e51b81526004016109b1906121c9565b6014805460ff19811660ff90911615179055565b6000610d048261170f565b5192915050565b60138054610d189061228c565b80601f0160208091040260200160405190810160405280929190818152602001828054610d449061228c565b8015610d915780601f10610d6657610100808354040283529160200191610d91565b820191906000526020600020905b815481529060010190602001808311610d7457829003601f168201915b505050505081565b6009546001600160a01b03163314610dc35760405162461bcd60e51b81526004016109b1906121c9565b600e55565b60006001600160a01b038216610df1576040516323d3ad8160e21b815260040160405180910390fd5b506001600160a01b03166000908152600560205260409020546001600160401b031690565b6009546001600160a01b03163314610e405760405162461bcd60e51b81526004016109b1906121c9565b610e4a6000611829565b565b6009546001600160a01b03163314610e765760405162461bcd60e51b81526004016109b1906121c9565b600c55565b6009546001600160a01b03163314610ea55760405162461bcd60e51b81526004016109b1906121c9565b600b55565b6060600380546108399061228c565b60145460009062010000900460ff1615610eef5733600090815260166020526040902054600d54610eea9190612249565b905090565b601454610100900460ff1615610f2c5733600090815260056020526040902054600160401b90046001600160401b0316600c54610eea9190612249565b50600090565b60026008541415610f855760405162461bcd60e51b815260206004820152601f60248201527f5265656e7472616e637947756172643a207265656e7472616e742063616c6c0060448201526064016109b1565b6002600855601454610100900460ff16610fb25760405163a9f4f87160e01b815260040160405180910390fd5b600c5433600090815260056020526040902054600160401b90046001600160401b0316610fdf90836121fe565b1115610ffe57604051630e362dc360e21b815260040160405180910390fd5b600e548161100f6001546000540390565b61101991906121fe565b1115611038576040516376592c6f60e01b815260040160405180910390fd5b3481600f54611047919061222a565b146110655760405163168afe2b60e31b815260040160405180910390fd5b61106f3382611508565b506001600855565b6001600160a01b0382163314156110a15760405163b06307db60e01b815260040160405180910390fd5b3360008181526007602090815260408083206001600160a01b03871680855290835292819020805460ff191686151590811790915590519081529192917f17307eab39ab6107e8899845ad3d59bd9653f200f220920489ca2b5937696c31910160405180910390a35050565b611118848484611522565b6001600160a01b0383163b15611151576111348484848461187b565b611151576040516368d2bf6b60e11b815260040160405180910390fd5b50505050565b60118054610d189061228c565b60128054610d189061228c565b606061117c826113f8565b6111e05760405162461bcd60e51b815260206004820152602f60248201527f4552433732314d657461646174613a2055524920717565727920666f72206e6f60448201526e3732bc34b9ba32b73a103a37b5b2b760891b60648201526084016109b1565b60145460ff1661127c57601180546111f79061228c565b80601f01602080910402602001604051908101604052809291908181526020018280546112239061228c565b80156112705780601f1061124557610100808354040283529160200191611270565b820191906000526020600020905b81548152906001019060200180831161125357829003601f168201915b50505050509050919050565b60006112866112db565b905060008151116112a657604051806020016040528060008152506112d4565b806112b084611972565b60126040516020016112c4939291906120b7565b6040516020818303038152906040525b9392505050565b6060601380546108399061228c565b6009546001600160a01b031633146113145760405162461bcd60e51b81526004016109b1906121c9565b600f55565b6009546001600160a01b031633146113435760405162461bcd60e51b81526004016109b1906121c9565b6014805461ff001981166101009182900460ff1615909102179055565b6009546001600160a01b0316331461138a5760405162461bcd60e51b81526004016109b1906121c9565b6001600160a01b0381166113ef5760405162461bcd60e51b815260206004820152602660248201527f4f776e61626c653a206e6577206f776e657220697320746865207a65726f206160448201526564647265737360d01b60648201526084016109b1565b610c1781611829565b6000805482108015610824575050600090815260046020526040902054600160e01b900460ff161590565b60008281526006602052604080822080546001600160a01b0319166001600160a01b0387811691821790925591518593918516917f8c5be1e5ebec7d5bd14f71427d1e84f3dd0314c0f7b2291e5b200ac8c7c3b92591a4505050565b60006115006114c7856040516bffffffffffffffffffffffff19606083901b166020820152600090603401604051602081830303815290604052805190602001209050919050565b848480806020026020016040519081016040528093929190818152602001838360200280828437600092019190915250611a8b92505050565b949350505050565b6109cd828260405180602001604052806000815250611a9a565b600061152d8261170f565b9050836001600160a01b031681600001516001600160a01b0316146115645760405162a1148160e81b815260040160405180910390fd5b6000336001600160a01b038616148061158257506115828533610774565b8061159d575033611592846108bc565b6001600160a01b0316145b9050806115bd57604051632ce44b5f60e11b815260040160405180910390fd5b6001600160a01b0384166115e457604051633a954ecd60e21b815260040160405180910390fd5b6115f060008487611423565b6001600160a01b038581166000908152600560209081526040808320805467ffffffffffffffff198082166001600160401b0392831660001901831617909255898616808652838620805493841693831660019081018416949094179055898652600490945282852080546001600160e01b031916909417600160a01b429092169190910217835587018084529220805491939091166116c45760005482146116c457805460208601516001600160401b0316600160a01b026001600160e01b03199091166001600160a01b038a16171781555b50505082846001600160a01b0316866001600160a01b03167fddf252ad1be2c89b69c2b068fc378daa952ba7f163c4a11628f55a4df523b3ef60405160405180910390a45050505050565b60408051606081018252600080825260208201819052918101919091528160005481101561181057600081815260046020908152604091829020825160608101845290546001600160a01b0381168252600160a01b81046001600160401b031692820192909252600160e01b90910460ff1615159181018290529061180e5780516001600160a01b0316156117a5579392505050565b5060001901600081815260046020908152604091829020825160608101845290546001600160a01b038116808352600160a01b82046001600160401b031693830193909352600160e01b900460ff1615159281019290925215611809579392505050565b6117a5565b505b604051636f96cda160e11b815260040160405180910390fd5b600980546001600160a01b038381166001600160a01b0319831681179093556040519116919082907f8be0079c531659141344cd1fd0a4f28419497f9722a3daafe3b4186f6b6457e090600090a35050565b604051630a85bd0160e11b81526000906001600160a01b0385169063150b7a02906118b0903390899088908890600401612179565b602060405180830381600087803b1580156118ca57600080fd5b505af19250505080156118fa575060408051601f3d908101601f191682019092526118f791810190611fb1565b60015b611955573d808015611928576040519150601f19603f3d011682016040523d82523d6000602084013e61192d565b606091505b50805161194d576040516368d2bf6b60e11b815260040160405180910390fd5b805181602001fd5b6001600160e01b031916630a85bd0160e11b149050949350505050565b6060816119965750506040805180820190915260018152600360fc1b602082015290565b8160005b81156119c057806119aa816122c7565b91506119b99050600a83612216565b915061199a565b6000816001600160401b038111156119e857634e487b7160e01b600052604160045260246000fd5b6040519080825280601f01601f191660200182016040528015611a12576020820181803683370190505b5090505b841561150057611a27600183612249565b9150611a34600a866122e2565b611a3f9060306121fe565b60f81b818381518110611a6257634e487b7160e01b600052603260045260246000fd5b60200101906001600160f81b031916908160001a905350611a84600a86612216565b9450611a16565b60006112d482600b5485611c59565b6000546001600160a01b038416611ac357604051622e076360e81b815260040160405180910390fd5b82611ae15760405163b562e8dd60e01b815260040160405180910390fd5b6001600160a01b038416600081815260056020908152604080832080546fffffffffffffffffffffffffffffffff1981166001600160401b038083168b018116918217600160401b67ffffffffffffffff1990941690921783900481168b01811690920217909155858452600490925290912080546001600160e01b0319168317600160a01b42909316929092029190911790558190818501903b15611c04575b60405182906001600160a01b038816906000907fddf252ad1be2c89b69c2b068fc378daa952ba7f163c4a11628f55a4df523b3ef908290a4611bcd600087848060010195508761187b565b611bea576040516368d2bf6b60e11b815260040160405180910390fd5b808210611b82578260005414611bff57600080fd5b611c49565b5b6040516001830192906001600160a01b038816906000907fddf252ad1be2c89b69c2b068fc378daa952ba7f163c4a11628f55a4df523b3ef908290a4808210611c05575b5060009081556111519085838684565b600082611c668584611c6f565b14949350505050565b600081815b8451811015611ce9576000858281518110611c9f57634e487b7160e01b600052603260045260246000fd5b60200260200101519050808311611cc55760008381526020829052604090209250611cd6565b600081815260208490526040902092505b5080611ce1816122c7565b915050611c74565b509392505050565b828054611cfd9061228c565b90600052602060002090601f016020900481019282611d1f5760008555611d65565b82601f10611d3857805160ff1916838001178555611d65565b82800160010185558215611d65579182015b82811115611d65578251825591602001919060010190611d4a565b50611d71929150611d75565b5090565b5b80821115611d715760008155600101611d76565b60006001600160401b0380841115611da457611da4612322565b604051601f8501601f19908116603f01168101908282118183101715611dcc57611dcc612322565b81604052809350858152868686011115611de557600080fd5b858560208301376000602087830101525050509392505050565b80356001600160a01b0381168114611e1657600080fd5b919050565b600060208284031215611e2c578081fd5b6112d482611dff565b60008060408385031215611e47578081fd5b611e5083611dff565b9150611e5e60208401611dff565b90509250929050565b600080600060608486031215611e7b578081fd5b611e8484611dff565b9250611e9260208501611dff565b9150604084013590509250925092565b60008060008060808587031215611eb7578081fd5b611ec085611dff565b9350611ece60208601611dff565b92506040850135915060608501356001600160401b03811115611eef578182fd5b8501601f81018713611eff578182fd5b611f0e87823560208401611d8a565b91505092959194509250565b60008060408385031215611f2c578182fd5b611f3583611dff565b915060208301358015158114611f49578182fd5b809150509250929050565b60008060408385031215611f66578182fd5b611f6f83611dff565b946020939093013593505050565b600060208284031215611f8e578081fd5b5035919050565b600060208284031215611fa6578081fd5b81356112d481612338565b600060208284031215611fc2578081fd5b81516112d481612338565b600060208284031215611fde578081fd5b81356001600160401b03811115611ff3578182fd5b8201601f81018413612003578182fd5b61150084823560208401611d8a565b600080600060408486031215612026578283fd5b8335925060208401356001600160401b0380821115612043578384fd5b818601915086601f830112612056578384fd5b813581811115612064578485fd5b8760208260051b8501011115612078578485fd5b6020830194508093505050509250925092565b600081518084526120a3816020860160208601612260565b601f01601f19169290920160200192915050565b6000845160206120ca8285838a01612260565b8551918401916120dd8184848a01612260565b85549201918390600181811c90808316806120f957607f831692505b85831081141561211757634e487b7160e01b88526022600452602488fd5b80801561212b576001811461213c57612168565b60ff19851688528388019550612168565b60008b815260209020895b858110156121605781548a820152908401908801612147565b505083880195505b50939b9a5050505050505050505050565b6001600160a01b03858116825284166020820152604081018390526080606082018190526000906121ac9083018461208b565b9695505050505050565b6020815260006112d4602083018461208b565b6020808252818101527f4f776e61626c653a2063616c6c6572206973206e6f7420746865206f776e6572604082015260600190565b60008219821115612211576122116122f6565b500190565b6000826122255761222561230c565b500490565b6000816000190483118215151615612244576122446122f6565b500290565b60008282101561225b5761225b6122f6565b500390565b60005b8381101561227b578181015183820152602001612263565b838111156111515750506000910152565b600181811c908216806122a057607f821691505b602082108114156122c157634e487b7160e01b600052602260045260246000fd5b50919050565b60006000198214156122db576122db6122f6565b5060010190565b6000826122f1576122f161230c565b500690565b634e487b7160e01b600052601160045260246000fd5b634e487b7160e01b600052601260045260246000fd5b634e487b7160e01b600052604160045260246000fd5b6001600160e01b031981168114610c1757600080fdfea26469706673582212202a81e1cd0c0a5fa808e3d60d846aff0ef9a82612da96d643700fd89915dcfbfd64736f6c63430008040033",
  "immutableReferences": {},
  "source": "// SPDX-License-Identifier: MIT\npragma solidity ^0.8.4;\n\nimport \"erc721a/contracts/ERC721A.sol\";\nimport \"@openzeppelin/contracts/security/ReentrancyGuard.sol\";\nimport \"@openzeppelin/contracts/access/Ownable.sol\";\nimport \"@openzeppelin/contracts/utils/cryptography/MerkleProof.sol\";\n\nerror PublicSaleNotLive();\nerror WhitelistNotActive();\nerror ExceededLimit();\nerror NotEnoughTokensLeft();\nerror WrongEther();\nerror InvalidMerkle();\nerror WhitelistUsed();\n\ncontract KitsudenFoxfone is ERC721A, ReentrancyGuard, Ownable {\n    using Address for address;\n    using Strings for uint256;\n    using MerkleProof for bytes32[];\n\n    address proxyRegistryAddress;\n\n    bytes32 public merkleRoot;\n    uint256 public maxMints = 5;\n    uint256 public whiteListMaxMints = 2;\n    uint256 public maxSupply = 5555;\n    uint256 public mintRate = 0.07777 ether;\n    uint256 public whitelistMintRate = 0.05555 ether;\n    string public hiddenUri = \"ipfs://<ID>/hidden.json\";\n    string public baseExtension = \".json\";\n    string public baseURI = \"\"; // ipfs://<ID>/\n    bool public revealed = false;\n    bool public publicSale = false;\n    bool public whitelistSale = false;\n\n    mapping(address => uint256) public whiteListUsedAddresses;\n    mapping(address => uint256) public usedAddresses;\n\n    constructor() ERC721A(\"Kitsuden Foxfone\", \"KTSDNFF\") {}\n\n    function mint(uint256 quantity) external payable nonReentrant {\n        if (!publicSale) revert PublicSaleNotLive();\n\n        // check for user mint limit\n        if (quantity + _numberMinted(msg.sender) > maxMints) {\n            revert ExceededLimit();\n        }\n\n        if (totalSupply() + quantity > maxSupply) {\n            revert NotEnoughTokensLeft();\n        }\n\n        // check for the value user pass is equal to the quantity and the mintRate\n        if (mintRate * quantity != msg.value) {\n            revert WrongEther();\n        }\n\n        _safeMint(msg.sender, quantity);\n    }\n\n    function whiteListMint(uint256 quantity, bytes32[] calldata proof)\n        external\n        payable\n        nonReentrant\n    {\n        if (quantity > whiteListMaxMints) revert ExceededLimit();\n        if (whitelistMintRate * quantity != msg.value) {\n            revert WrongEther();\n        }\n\n        if (usedAddresses[msg.sender] + quantity > whiteListMaxMints) {\n            revert WhitelistUsed();\n        }\n        if (!whitelistSale) revert WhitelistNotActive();\n\n        if (totalSupply() + quantity > maxSupply) {\n            revert NotEnoughTokensLeft();\n        }\n        if (!isWhiteListed(msg.sender, proof)) revert InvalidMerkle();\n        usedAddresses[msg.sender] += quantity;\n        _safeMint(msg.sender, quantity);\n    }\n\n    function isWhiteListed(address _account, bytes32[] calldata _proof)\n        internal\n        view\n        returns (bool)\n    {\n        return _verify(leaf(_account), _proof);\n    }\n\n    function tokenURI(uint256 tokenId)\n        public\n        view\n        override\n        returns (string memory)\n    {\n        require(\n            _exists(tokenId),\n            \"ERC721Metadata: URI query for nonexistent token\"\n        );\n\n        if (!revealed) {\n            return hiddenUri;\n        }\n\n        string memory currentBaseURI = _baseURI();\n        return\n            bytes(currentBaseURI).length > 0\n                ? string(\n                    abi.encodePacked(\n                        currentBaseURI,\n                        tokenId.toString(),\n                        baseExtension\n                    )\n                )\n                : \"\";\n    }\n\n    function _baseURI() internal view override returns (string memory) {\n        return baseURI;\n    }\n\n    function baseTokenURI() public view returns (string memory) {\n        return baseURI;\n    }\n\n    // Check the number of mint available\n    function mintAvailable() public view returns (uint256) {\n        if (whitelistSale) {\n            return whiteListMaxMints - usedAddresses[msg.sender];\n        }\n\n        if (publicSale) {\n            return maxMints - _numberMinted(msg.sender);\n        }\n\n        return 0;\n    }\n\n    function setBaseURI(string memory _newBaseURI) public onlyOwner {\n        baseURI = _newBaseURI;\n    }\n\n    function leaf(address _account) internal pure returns (bytes32) {\n        return keccak256(abi.encodePacked(_account));\n    }\n\n    function _verify(bytes32 _leaf, bytes32[] memory _proof)\n        internal\n        view\n        returns (bool)\n    {\n        return MerkleProof.verify(_proof, merkleRoot, _leaf);\n    }\n\n    function setMerkleRoot(bytes32 _root) external onlyOwner {\n        merkleRoot = _root;\n    }\n\n    function toggleReveal() public onlyOwner {\n        revealed = !revealed;\n    }\n\n    function togglePublicSale() public onlyOwner {\n        publicSale = !publicSale;\n    }\n\n    function toggleWhitelistSale() public onlyOwner {\n        whitelistSale = !whitelistSale;\n    }\n\n    function setHiddenUri(string memory _hiddenUri) public onlyOwner {\n        hiddenUri = _hiddenUri;\n    }\n\n    function setMintRate(uint256 _mintRate) public onlyOwner {\n        mintRate = _mintRate;\n    }\n\n    function setWhitelistMintRate(uint256 _mintRate) public onlyOwner {\n        whitelistMintRate = _mintRate;\n    }\n\n    function setMaxSupply(uint256 _newSupply) public onlyOwner {\n        maxSupply = _newSupply;\n    }\n\n    function setMaxMints(uint256 _newMaxMints) public onlyOwner {\n        maxMints = _newMaxMints;\n    }\n\n    function withdraw() external payable onlyOwner {\n        payable(owner()).transfer(address(this).balance);\n    }\n}\n",
  "sourcePath": "/Users/arifrahman/Code/personal/kitsuden-dapp/contracts/KitsudenFoxfone.sol",
  "compiler": {
    "name": "solc",
    "version": "0.8.4+commit.c7e474f2.Emscripten.clang"
  },
  "schemaVersion": "3.4.7",
  "updatedAt": "2022-05-15T14:42:36.907Z",
  "networkType": "ethereum",
  "devdoc": {
    "kind": "dev",
    "methods": {
      "approve(address,uint256)": {
        "details": "See {IERC721-approve}."
      },
      "balanceOf(address)": {
        "details": "See {IERC721-balanceOf}."
      },
      "getApproved(uint256)": {
        "details": "See {IERC721-getApproved}."
      },
      "isApprovedForAll(address,address)": {
        "details": "See {IERC721-isApprovedForAll}."
      },
      "name()": {
        "details": "See {IERC721Metadata-name}."
      },
      "owner()": {
        "details": "Returns the address of the current owner."
      },
      "ownerOf(uint256)": {
        "details": "See {IERC721-ownerOf}."
      },
      "renounceOwnership()": {
        "details": "Leaves the contract without owner. It will not be possible to call `onlyOwner` functions anymore. Can only be called by the current owner. NOTE: Renouncing ownership will leave the contract without an owner, thereby removing any functionality that is only available to the owner."
      },
      "safeTransferFrom(address,address,uint256)": {
        "details": "See {IERC721-safeTransferFrom}."
      },
      "safeTransferFrom(address,address,uint256,bytes)": {
        "details": "See {IERC721-safeTransferFrom}."
      },
      "setApprovalForAll(address,bool)": {
        "details": "See {IERC721-setApprovalForAll}."
      },
      "supportsInterface(bytes4)": {
        "details": "See {IERC165-supportsInterface}."
      },
      "symbol()": {
        "details": "See {IERC721Metadata-symbol}."
      },
      "tokenURI(uint256)": {
        "details": "See {IERC721Metadata-tokenURI}."
      },
      "totalSupply()": {
        "details": "Burned tokens are calculated here, use _totalMinted() if you want to count just minted tokens."
      },
      "transferFrom(address,address,uint256)": {
        "details": "See {IERC721-transferFrom}."
      },
      "transferOwnership(address)": {
        "details": "Transfers ownership of the contract to a new account (`newOwner`). Can only be called by the current owner."
      }
    },
    "version": 1
  },
  "userdoc": {
    "errors": {
      "ApprovalCallerNotOwnerNorApproved()": [
        {
          "notice": "The caller must own the token or be an approved operator."
        }
      ],
      "ApprovalQueryForNonexistentToken()": [
        {
          "notice": "The token does not exist."
        }
      ],
      "ApprovalToCurrentOwner()": [
        {
          "notice": "The caller cannot approve to the current owner."
        }
      ],
      "ApproveToCaller()": [
        {
          "notice": "The caller cannot approve to their own address."
        }
      ],
      "BalanceQueryForZeroAddress()": [
        {
          "notice": "Cannot query the balance for the zero address."
        }
      ],
      "MintToZeroAddress()": [
        {
          "notice": "Cannot mint to the zero address."
        }
      ],
      "MintZeroQuantity()": [
        {
          "notice": "The quantity of tokens minted must be more than zero."
        }
      ],
      "OwnerQueryForNonexistentToken()": [
        {
          "notice": "The token does not exist."
        }
      ],
      "TransferCallerNotOwnerNorApproved()": [
        {
          "notice": "The caller must own the token or be an approved operator."
        }
      ],
      "TransferFromIncorrectOwner()": [
        {
          "notice": "The token must be owned by `from`."
        }
      ],
      "TransferToNonERC721ReceiverImplementer()": [
        {
          "notice": "Cannot safely transfer to a contract that does not implement the ERC721Receiver interface."
        }
      ],
      "TransferToZeroAddress()": [
        {
          "notice": "Cannot transfer to the zero address."
        }
      ],
      "URIQueryForNonexistentToken()": [
        {
          "notice": "The token does not exist."
        }
      ]
    },
    "kind": "user",
    "methods": {},
    "version": 1
  }
}