{
  "contractName": "OnlyAyep",
  "abi": [
    {
      "inputs": [],
      "stateMutability": "nonpayable",
      "type": "constructor"
    },
    {
      "inputs": [],
      "name": "ApprovalCallerNotOwnerNorApproved",
      "type": "error"
    },
    {
      "inputs": [],
      "name": "ApprovalQueryForNonexistentToken",
      "type": "error"
    },
    {
      "inputs": [],
      "name": "ApprovalToCurrentOwner",
      "type": "error"
    },
    {
      "inputs": [],
      "name": "ApproveToCaller",
      "type": "error"
    },
    {
      "inputs": [],
      "name": "BalanceQueryForZeroAddress",
      "type": "error"
    },
    {
      "inputs": [],
      "name": "ExceededLimit",
      "type": "error"
    },
    {
      "inputs": [],
      "name": "InvalidMerkle",
      "type": "error"
    },
    {
      "inputs": [],
      "name": "MintToZeroAddress",
      "type": "error"
    },
    {
      "inputs": [],
      "name": "MintZeroQuantity",
      "type": "error"
    },
    {
      "inputs": [],
      "name": "NotEnoughTokensLeft",
      "type": "error"
    },
    {
      "inputs": [],
      "name": "OwnerQueryForNonexistentToken",
      "type": "error"
    },
    {
      "inputs": [],
      "name": "PublicSaleNotLive",
      "type": "error"
    },
    {
      "inputs": [],
      "name": "TransferCallerNotOwnerNorApproved",
      "type": "error"
    },
    {
      "inputs": [],
      "name": "TransferFromIncorrectOwner",
      "type": "error"
    },
    {
      "inputs": [],
      "name": "TransferToNonERC721ReceiverImplementer",
      "type": "error"
    },
    {
      "inputs": [],
      "name": "TransferToZeroAddress",
      "type": "error"
    },
    {
      "inputs": [],
      "name": "WhitelistNotActive",
      "type": "error"
    },
    {
      "inputs": [],
      "name": "WhitelistUsed",
      "type": "error"
    },
    {
      "inputs": [],
      "name": "WrongEther",
      "type": "error"
    },
    {
      "anonymous": false,
      "inputs": [
        {
          "indexed": true,
          "internalType": "address",
          "name": "owner",
          "type": "address"
        },
        {
          "indexed": true,
          "internalType": "address",
          "name": "approved",
          "type": "address"
        },
        {
          "indexed": true,
          "internalType": "uint256",
          "name": "tokenId",
          "type": "uint256"
        }
      ],
      "name": "Approval",
      "type": "event"
    },
    {
      "anonymous": false,
      "inputs": [
        {
          "indexed": true,
          "internalType": "address",
          "name": "owner",
          "type": "address"
        },
        {
          "indexed": true,
          "internalType": "address",
          "name": "operator",
          "type": "address"
        },
        {
          "indexed": false,
          "internalType": "bool",
          "name": "approved",
          "type": "bool"
        }
      ],
      "name": "ApprovalForAll",
      "type": "event"
    },
    {
      "anonymous": false,
      "inputs": [
        {
          "indexed": true,
          "internalType": "address",
          "name": "previousOwner",
          "type": "address"
        },
        {
          "indexed": true,
          "internalType": "address",
          "name": "newOwner",
          "type": "address"
        }
      ],
      "name": "OwnershipTransferred",
      "type": "event"
    },
    {
      "anonymous": false,
      "inputs": [
        {
          "indexed": true,
          "internalType": "address",
          "name": "from",
          "type": "address"
        },
        {
          "indexed": true,
          "internalType": "address",
          "name": "to",
          "type": "address"
        },
        {
          "indexed": true,
          "internalType": "uint256",
          "name": "tokenId",
          "type": "uint256"
        }
      ],
      "name": "Transfer",
      "type": "event"
    },
    {
      "inputs": [
        {
          "internalType": "address",
          "name": "to",
          "type": "address"
        },
        {
          "internalType": "uint256",
          "name": "tokenId",
          "type": "uint256"
        }
      ],
      "name": "approve",
      "outputs": [],
      "stateMutability": "nonpayable",
      "type": "function"
    },
    {
      "inputs": [
        {
          "internalType": "address",
          "name": "owner",
          "type": "address"
        }
      ],
      "name": "balanceOf",
      "outputs": [
        {
          "internalType": "uint256",
          "name": "",
          "type": "uint256"
        }
      ],
      "stateMutability": "view",
      "type": "function",
      "constant": true
    },
    {
      "inputs": [],
      "name": "baseExtension",
      "outputs": [
        {
          "internalType": "string",
          "name": "",
          "type": "string"
        }
      ],
      "stateMutability": "view",
      "type": "function",
      "constant": true
    },
    {
      "inputs": [],
      "name": "baseURI",
      "outputs": [
        {
          "internalType": "string",
          "name": "",
          "type": "string"
        }
      ],
      "stateMutability": "view",
      "type": "function",
      "constant": true
    },
    {
      "inputs": [
        {
          "internalType": "uint256",
          "name": "tokenId",
          "type": "uint256"
        }
      ],
      "name": "getApproved",
      "outputs": [
        {
          "internalType": "address",
          "name": "",
          "type": "address"
        }
      ],
      "stateMutability": "view",
      "type": "function",
      "constant": true
    },
    {
      "inputs": [],
      "name": "hiddenUri",
      "outputs": [
        {
          "internalType": "string",
          "name": "",
          "type": "string"
        }
      ],
      "stateMutability": "view",
      "type": "function",
      "constant": true
    },
    {
      "inputs": [
        {
          "internalType": "address",
          "name": "owner",
          "type": "address"
        },
        {
          "internalType": "address",
          "name": "operator",
          "type": "address"
        }
      ],
      "name": "isApprovedForAll",
      "outputs": [
        {
          "internalType": "bool",
          "name": "",
          "type": "bool"
        }
      ],
      "stateMutability": "view",
      "type": "function",
      "constant": true
    },
    {
      "inputs": [],
      "name": "maxMints",
      "outputs": [
        {
          "internalType": "uint256",
          "name": "",
          "type": "uint256"
        }
      ],
      "stateMutability": "view",
      "type": "function",
      "constant": true
    },
    {
      "inputs": [],
      "name": "maxSupply",
      "outputs": [
        {
          "internalType": "uint256",
          "name": "",
          "type": "uint256"
        }
      ],
      "stateMutability": "view",
      "type": "function",
      "constant": true
    },
    {
      "inputs": [],
      "name": "merkleRoot",
      "outputs": [
        {
          "internalType": "bytes32",
          "name": "",
          "type": "bytes32"
        }
      ],
      "stateMutability": "view",
      "type": "function",
      "constant": true
    },
    {
      "inputs": [],
      "name": "mintRate",
      "outputs": [
        {
          "internalType": "uint256",
          "name": "",
          "type": "uint256"
        }
      ],
      "stateMutability": "view",
      "type": "function",
      "constant": true
    },
    {
      "inputs": [],
      "name": "name",
      "outputs": [
        {
          "internalType": "string",
          "name": "",
          "type": "string"
        }
      ],
      "stateMutability": "view",
      "type": "function",
      "constant": true
    },
    {
      "inputs": [],
      "name": "owner",
      "outputs": [
        {
          "internalType": "address",
          "name": "",
          "type": "address"
        }
      ],
      "stateMutability": "view",
      "type": "function",
      "constant": true
    },
    {
      "inputs": [
        {
          "internalType": "uint256",
          "name": "tokenId",
          "type": "uint256"
        }
      ],
      "name": "ownerOf",
      "outputs": [
        {
          "internalType": "address",
          "name": "",
          "type": "address"
        }
      ],
      "stateMutability": "view",
      "type": "function",
      "constant": true
    },
    {
      "inputs": [],
      "name": "publicSale",
      "outputs": [
        {
          "internalType": "bool",
          "name": "",
          "type": "bool"
        }
      ],
      "stateMutability": "view",
      "type": "function",
      "constant": true
    },
    {
      "inputs": [],
      "name": "renounceOwnership",
      "outputs": [],
      "stateMutability": "nonpayable",
      "type": "function"
    },
    {
      "inputs": [],
      "name": "revealed",
      "outputs": [
        {
          "internalType": "bool",
          "name": "",
          "type": "bool"
        }
      ],
      "stateMutability": "view",
      "type": "function",
      "constant": true
    },
    {
      "inputs": [
        {
          "internalType": "address",
          "name": "from",
          "type": "address"
        },
        {
          "internalType": "address",
          "name": "to",
          "type": "address"
        },
        {
          "internalType": "uint256",
          "name": "tokenId",
          "type": "uint256"
        }
      ],
      "name": "safeTransferFrom",
      "outputs": [],
      "stateMutability": "nonpayable",
      "type": "function"
    },
    {
      "inputs": [
        {
          "internalType": "address",
          "name": "from",
          "type": "address"
        },
        {
          "internalType": "address",
          "name": "to",
          "type": "address"
        },
        {
          "internalType": "uint256",
          "name": "tokenId",
          "type": "uint256"
        },
        {
          "internalType": "bytes",
          "name": "_data",
          "type": "bytes"
        }
      ],
      "name": "safeTransferFrom",
      "outputs": [],
      "stateMutability": "nonpayable",
      "type": "function"
    },
    {
      "inputs": [
        {
          "internalType": "address",
          "name": "operator",
          "type": "address"
        },
        {
          "internalType": "bool",
          "name": "approved",
          "type": "bool"
        }
      ],
      "name": "setApprovalForAll",
      "outputs": [],
      "stateMutability": "nonpayable",
      "type": "function"
    },
    {
      "inputs": [
        {
          "internalType": "bytes4",
          "name": "interfaceId",
          "type": "bytes4"
        }
      ],
      "name": "supportsInterface",
      "outputs": [
        {
          "internalType": "bool",
          "name": "",
          "type": "bool"
        }
      ],
      "stateMutability": "view",
      "type": "function",
      "constant": true
    },
    {
      "inputs": [],
      "name": "symbol",
      "outputs": [
        {
          "internalType": "string",
          "name": "",
          "type": "string"
        }
      ],
      "stateMutability": "view",
      "type": "function",
      "constant": true
    },
    {
      "inputs": [],
      "name": "totalSupply",
      "outputs": [
        {
          "internalType": "uint256",
          "name": "",
          "type": "uint256"
        }
      ],
      "stateMutability": "view",
      "type": "function",
      "constant": true
    },
    {
      "inputs": [
        {
          "internalType": "address",
          "name": "from",
          "type": "address"
        },
        {
          "internalType": "address",
          "name": "to",
          "type": "address"
        },
        {
          "internalType": "uint256",
          "name": "tokenId",
          "type": "uint256"
        }
      ],
      "name": "transferFrom",
      "outputs": [],
      "stateMutability": "nonpayable",
      "type": "function"
    },
    {
      "inputs": [
        {
          "internalType": "address",
          "name": "newOwner",
          "type": "address"
        }
      ],
      "name": "transferOwnership",
      "outputs": [],
      "stateMutability": "nonpayable",
      "type": "function"
    },
    {
      "inputs": [
        {
          "internalType": "address",
          "name": "",
          "type": "address"
        }
      ],
      "name": "usedAddresses",
      "outputs": [
        {
          "internalType": "uint256",
          "name": "",
          "type": "uint256"
        }
      ],
      "stateMutability": "view",
      "type": "function",
      "constant": true
    },
    {
      "inputs": [],
      "name": "whitelistMintRate",
      "outputs": [
        {
          "internalType": "uint256",
          "name": "",
          "type": "uint256"
        }
      ],
      "stateMutability": "view",
      "type": "function",
      "constant": true
    },
    {
      "inputs": [],
      "name": "whitelistSale",
      "outputs": [
        {
          "internalType": "bool",
          "name": "",
          "type": "bool"
        }
      ],
      "stateMutability": "view",
      "type": "function",
      "constant": true
    },
    {
      "inputs": [
        {
          "internalType": "uint256",
          "name": "quantity",
          "type": "uint256"
        }
      ],
      "name": "mint",
      "outputs": [],
      "stateMutability": "payable",
      "type": "function",
      "payable": true
    },
    {
      "inputs": [
        {
          "internalType": "uint256",
          "name": "quantity",
          "type": "uint256"
        },
        {
          "internalType": "bytes32[]",
          "name": "proof",
          "type": "bytes32[]"
        }
      ],
      "name": "whiteListMint",
      "outputs": [],
      "stateMutability": "payable",
      "type": "function",
      "payable": true
    },
    {
      "inputs": [
        {
          "internalType": "uint256",
          "name": "tokenId",
          "type": "uint256"
        }
      ],
      "name": "tokenURI",
      "outputs": [
        {
          "internalType": "string",
          "name": "",
          "type": "string"
        }
      ],
      "stateMutability": "view",
      "type": "function",
      "constant": true
    },
    {
      "inputs": [
        {
          "internalType": "string",
          "name": "_newBaseURI",
          "type": "string"
        }
      ],
      "name": "setBaseUri",
      "outputs": [],
      "stateMutability": "nonpayable",
      "type": "function"
    },
    {
      "inputs": [
        {
          "internalType": "bytes32",
          "name": "_root",
          "type": "bytes32"
        }
      ],
      "name": "setMerkleRoot",
      "outputs": [],
      "stateMutability": "nonpayable",
      "type": "function"
    },
    {
      "inputs": [],
      "name": "toggleReveal",
      "outputs": [],
      "stateMutability": "nonpayable",
      "type": "function"
    },
    {
      "inputs": [],
      "name": "togglePublicSale",
      "outputs": [],
      "stateMutability": "nonpayable",
      "type": "function"
    },
    {
      "inputs": [],
      "name": "toggleWhitelistSale",
      "outputs": [],
      "stateMutability": "nonpayable",
      "type": "function"
    },
    {
      "inputs": [
        {
          "internalType": "string",
          "name": "_hiddenUri",
          "type": "string"
        }
      ],
      "name": "setHiddenUri",
      "outputs": [],
      "stateMutability": "nonpayable",
      "type": "function"
    },
    {
      "inputs": [
        {
          "internalType": "uint256",
          "name": "_mintRate",
          "type": "uint256"
        }
      ],
      "name": "setMintRate",
      "outputs": [],
      "stateMutability": "nonpayable",
      "type": "function"
    },
    {
      "inputs": [
        {
          "internalType": "uint256",
          "name": "_mintRate",
          "type": "uint256"
        }
      ],
      "name": "setWhitelistMintRate",
      "outputs": [],
      "stateMutability": "nonpayable",
      "type": "function"
    },
    {
      "inputs": [
        {
          "internalType": "uint256",
          "name": "_newSupply",
          "type": "uint256"
        }
      ],
      "name": "setMaxSupply",
      "outputs": [],
      "stateMutability": "nonpayable",
      "type": "function"
    },
    {
      "inputs": [
        {
          "internalType": "uint256",
          "name": "_newMaxMints",
          "type": "uint256"
        }
      ],
      "name": "setMaxMints",
      "outputs": [],
      "stateMutability": "nonpayable",
      "type": "function"
    },
    {
      "inputs": [],
      "name": "withdraw",
      "outputs": [],
      "stateMutability": "payable",
      "type": "function",
      "payable": true
    }
  ],
  "bytecode": "0x6002600c556101f4600d5566f8b0a10e470000600e5566b1a2bc2ec50000600f5560c0604052601760808190527f697066733a2f2f3c49443e2f68696464656e2e6a736f6e00000000000000000060a0908152620000619160109190620001ab565b5060408051808201909152600580825264173539b7b760d91b60209092019182526200009091601191620001ab565b50604080516020810191829052600090819052620000b191601291620001ab565b506013805462ffffff19169055348015620000cb57600080fd5b506040518060400160405280600881526020016704f6e6c79417965760c41b8152506040518060400160405280600881526020016704f4e4c59415945560c41b815250816002908051906020019062000126929190620001ab565b5080516200013c906003906020840190620001ab565b506000805550506001600855620001533362000159565b6200028e565b600980546001600160a01b038381166001600160a01b0319831681179093556040519116919082907f8be0079c531659141344cd1fd0a4f28419497f9722a3daafe3b4186f6b6457e090600090a35050565b828054620001b99062000251565b90600052602060002090601f016020900481019282620001dd576000855562000228565b82601f10620001f857805160ff191683800117855562000228565b8280016001018555821562000228579182015b82811115620002285782518255916020019190600101906200020b565b50620002369291506200023a565b5090565b5b808211156200023657600081556001016200023b565b600181811c908216806200026657607f821691505b602082108114156200028857634e487b7160e01b600052602260045260246000fd5b50919050565b6122a1806200029e6000396000f3fe6080604052600436106102515760003560e01c806370a0823111610139578063b6b6f0c3116100b6578063ca0dcf161161007a578063ca0dcf1614610671578063d5abeb0114610687578063dbe2193f1461069d578063e222c7f9146106bd578063e985e9c5146106d2578063f2fde38b1461071b57600080fd5b8063b6b6f0c3146105f1578063b88d4fde14610607578063c5be875014610627578063c66828621461063c578063c87b56dd1461065157600080fd5b806395d89b41116100fd57806395d89b411461055c578063a0712d6814610571578063a0bcfc7f14610584578063a22cb465146105a4578063acdce273146105c457600080fd5b806370a08231146104c9578063715018a6146104e957806379c9cb7b146104fe5780637cb647591461051e5780638da5cb5b1461053e57600080fd5b80632eb4a7ab116101d25780635183022711610196578063518302271461043057806359eda1b51461044a5780635b8ad4291461045f5780636352211e146104745780636c0360eb146104945780636f8b44b0146104a957600080fd5b80632eb4a7ab146103b357806331ffd6f1146103c957806333bc1c5c146103e95780633ccfd60b1461040857806342842e0e1461041057600080fd5b8063118768751161021957806311876875146103275780631432d72d1461033a57806318160ddd1461035a57806323b872dd1461037d5780632e809ec11461039d57600080fd5b806301ffc9a71461025657806306fdde031461028b578063081812fc146102ad578063095ea7b3146102e55780631067fcc714610307575b600080fd5b34801561026257600080fd5b50610276610271366004611eb0565b61073b565b60405190151581526020015b60405180910390f35b34801561029757600080fd5b506102a061078d565b60405161028291906120d3565b3480156102b957600080fd5b506102cd6102c8366004611e98565b61081f565b6040516001600160a01b039091168152602001610282565b3480156102f157600080fd5b50610305610300366004611e6f565b610863565b005b34801561031357600080fd5b50610305610322366004611ee8565b6108f1565b610305610335366004611f2e565b61093b565b34801561034657600080fd5b50610305610355366004611e98565b610ae3565b34801561036657600080fd5b50600154600054035b604051908152602001610282565b34801561038957600080fd5b50610305610398366004611d81565b610b12565b3480156103a957600080fd5b5061036f600f5481565b3480156103bf57600080fd5b5061036f600b5481565b3480156103d557600080fd5b506013546102769062010000900460ff1681565b3480156103f557600080fd5b5060135461027690610100900460ff1681565b610305610b1d565b34801561041c57600080fd5b5061030561042b366004611d81565b610b83565b34801561043c57600080fd5b506013546102769060ff1681565b34801561045657600080fd5b50610305610b9e565b34801561046b57600080fd5b50610305610be7565b34801561048057600080fd5b506102cd61048f366004611e98565b610c25565b3480156104a057600080fd5b506102a0610c37565b3480156104b557600080fd5b506103056104c4366004611e98565b610cc5565b3480156104d557600080fd5b5061036f6104e4366004611d35565b610cf4565b3480156104f557600080fd5b50610305610d43565b34801561050a57600080fd5b50610305610519366004611e98565b610d79565b34801561052a57600080fd5b50610305610539366004611e98565b610da8565b34801561054a57600080fd5b506009546001600160a01b03166102cd565b34801561056857600080fd5b506102a0610dd7565b61030561057f366004611e98565b610de6565b34801561059057600080fd5b5061030561059f366004611ee8565b610f2c565b3480156105b057600080fd5b506103056105bf366004611e35565b610f69565b3480156105d057600080fd5b5061036f6105df366004611d35565b60146020526000908152604090205481565b3480156105fd57600080fd5b5061036f600c5481565b34801561061357600080fd5b50610305610622366004611dbc565b610fff565b34801561063357600080fd5b506102a0611050565b34801561064857600080fd5b506102a061105d565b34801561065d57600080fd5b506102a061066c366004611e98565b61106a565b34801561067d57600080fd5b5061036f600e5481565b34801561069357600080fd5b5061036f600d5481565b3480156106a957600080fd5b506103056106b8366004611e98565b6111d4565b3480156106c957600080fd5b50610305611203565b3480156106de57600080fd5b506102766106ed366004611d4f565b6001600160a01b03918216600090815260076020908152604080832093909416825291909152205460ff1690565b34801561072757600080fd5b50610305610736366004611d35565b61124a565b60006001600160e01b031982166380ac58cd60e01b148061076c57506001600160e01b03198216635b5e139f60e01b145b8061078757506301ffc9a760e01b6001600160e01b03198316145b92915050565b60606002805461079c906121a9565b80601f01602080910402602001604051908101604052809291908181526020018280546107c8906121a9565b80156108155780601f106107ea57610100808354040283529160200191610815565b820191906000526020600020905b8154815290600101906020018083116107f857829003601f168201915b5050505050905090565b600061082a826112e2565b610847576040516333d1c03960e21b815260040160405180910390fd5b506000908152600660205260409020546001600160a01b031690565b600061086e82610c25565b9050806001600160a01b0316836001600160a01b031614156108a35760405163250fdee360e21b815260040160405180910390fd5b336001600160a01b038216148015906108c357506108c181336106ed565b155b156108e1576040516367d9dca160e11b815260040160405180910390fd5b6108ec83838361130d565b505050565b6009546001600160a01b031633146109245760405162461bcd60e51b815260040161091b906120e6565b60405180910390fd5b8051610937906010906020840190611c0a565b5050565b6002600854141561098e5760405162461bcd60e51b815260206004820152601f60248201527f5265656e7472616e637947756172643a207265656e7472616e742063616c6c00604482015260640161091b565b600260088190558311156109b557604051630e362dc360e21b815260040160405180910390fd5b3483600f546109c49190612147565b146109e25760405163168afe2b60e31b815260040160405180910390fd5b33600090815260146020526040902054600290610a0090859061211b565b1115610a1f576040516390b8614160e01b815260040160405180910390fd5b60135462010000900460ff16610a48576040516302664e7160e11b815260040160405180910390fd5b600d5483610a596001546000540390565b610a63919061211b565b1115610a82576040516376592c6f60e01b815260040160405180910390fd5b610a8d338383611369565b610aaa57604051631f8b1b7160e11b815260040160405180910390fd5b3360009081526014602052604081208054859290610ac990849061211b565b90915550610ad9905033846113f2565b5050600160085550565b6009546001600160a01b03163314610b0d5760405162461bcd60e51b815260040161091b906120e6565b600f55565b6108ec83838361140c565b6009546001600160a01b03163314610b475760405162461bcd60e51b815260040161091b906120e6565b6009546040516001600160a01b03909116904780156108fc02916000818181858888f19350505050158015610b80573d6000803e3d6000fd5b50565b6108ec83838360405180602001604052806000815250610fff565b6009546001600160a01b03163314610bc85760405162461bcd60e51b815260040161091b906120e6565b6013805462ff0000198116620100009182900460ff1615909102179055565b6009546001600160a01b03163314610c115760405162461bcd60e51b815260040161091b906120e6565b6013805460ff19811660ff90911615179055565b6000610c30826115fc565b5192915050565b60128054610c44906121a9565b80601f0160208091040260200160405190810160405280929190818152602001828054610c70906121a9565b8015610cbd5780601f10610c9257610100808354040283529160200191610cbd565b820191906000526020600020905b815481529060010190602001808311610ca057829003601f168201915b505050505081565b6009546001600160a01b03163314610cef5760405162461bcd60e51b815260040161091b906120e6565b600d55565b60006001600160a01b038216610d1d576040516323d3ad8160e21b815260040160405180910390fd5b506001600160a01b031660009081526005602052604090205467ffffffffffffffff1690565b6009546001600160a01b03163314610d6d5760405162461bcd60e51b815260040161091b906120e6565b610d776000611718565b565b6009546001600160a01b03163314610da35760405162461bcd60e51b815260040161091b906120e6565b600c55565b6009546001600160a01b03163314610dd25760405162461bcd60e51b815260040161091b906120e6565b600b55565b60606003805461079c906121a9565b60026008541415610e395760405162461bcd60e51b815260206004820152601f60248201527f5265656e7472616e637947756172643a207265656e7472616e742063616c6c00604482015260640161091b565b6002600855601354610100900460ff16610e665760405163a9f4f87160e01b815260040160405180910390fd5b600c5433600090815260056020526040902054600160401b900467ffffffffffffffff16610e94908361211b565b1115610eb357604051630e362dc360e21b815260040160405180910390fd5b600d5481610ec46001546000540390565b610ece919061211b565b1115610eed576040516376592c6f60e01b815260040160405180910390fd5b3481600e54610efc9190612147565b14610f1a5760405163168afe2b60e31b815260040160405180910390fd5b610f2433826113f2565b506001600855565b6009546001600160a01b03163314610f565760405162461bcd60e51b815260040161091b906120e6565b8051610937906012906020840190611c0a565b6001600160a01b038216331415610f935760405163b06307db60e01b815260040160405180910390fd5b3360008181526007602090815260408083206001600160a01b03871680855290835292819020805460ff191686151590811790915590519081529192917f17307eab39ab6107e8899845ad3d59bd9653f200f220920489ca2b5937696c31910160405180910390a35050565b61100a84848461140c565b6001600160a01b0383163b1515801561102c575061102a8484848461176a565b155b1561104a576040516368d2bf6b60e11b815260040160405180910390fd5b50505050565b60108054610c44906121a9565b60118054610c44906121a9565b6060611075826112e2565b6110d95760405162461bcd60e51b815260206004820152602f60248201527f4552433732314d657461646174613a2055524920717565727920666f72206e6f60448201526e3732bc34b9ba32b73a103a37b5b2b760891b606482015260840161091b565b60135460ff1661117557601080546110f0906121a9565b80601f016020809104026020016040519081016040528092919081815260200182805461111c906121a9565b80156111695780601f1061113e57610100808354040283529160200191611169565b820191906000526020600020905b81548152906001019060200180831161114c57829003601f168201915b50505050509050919050565b600061117f611861565b9050600081511161119f57604051806020016040528060008152506111cd565b806111a984611870565b60116040516020016111bd93929190611fd4565b6040516020818303038152906040525b9392505050565b6009546001600160a01b031633146111fe5760405162461bcd60e51b815260040161091b906120e6565b600e55565b6009546001600160a01b0316331461122d5760405162461bcd60e51b815260040161091b906120e6565b6013805461ff001981166101009182900460ff1615909102179055565b6009546001600160a01b031633146112745760405162461bcd60e51b815260040161091b906120e6565b6001600160a01b0381166112d95760405162461bcd60e51b815260206004820152602660248201527f4f776e61626c653a206e6577206f776e657220697320746865207a65726f206160448201526564647265737360d01b606482015260840161091b565b610b8081611718565b6000805482108015610787575050600090815260046020526040902054600160e01b900460ff161590565b60008281526006602052604080822080546001600160a01b0319166001600160a01b0387811691821790925591518593918516917f8c5be1e5ebec7d5bd14f71427d1e84f3dd0314c0f7b2291e5b200ac8c7c3b92591a4505050565b60006113ea6113b1856040516bffffffffffffffffffffffff19606083901b166020820152600090603401604051602081830303815290604052805190602001209050919050565b84848080602002602001604051908101604052809392919081815260200183836020028082843760009201919091525061198a92505050565b949350505050565b610937828260405180602001604052806000815250611999565b6000611417826115fc565b9050836001600160a01b031681600001516001600160a01b03161461144e5760405162a1148160e81b815260040160405180910390fd5b6000336001600160a01b038616148061146c575061146c85336106ed565b8061148757503361147c8461081f565b6001600160a01b0316145b9050806114a757604051632ce44b5f60e11b815260040160405180910390fd5b6001600160a01b0384166114ce57604051633a954ecd60e21b815260040160405180910390fd5b6114da6000848761130d565b6001600160a01b038581166000908152600560209081526040808320805467ffffffffffffffff1980821667ffffffffffffffff92831660001901831617909255898616808652838620805493841693831660019081018416949094179055898652600490945282852080546001600160e01b031916909417600160a01b429092169190910217835587018084529220805491939091166115b05760005482146115b0578054602086015167ffffffffffffffff16600160a01b026001600160e01b03199091166001600160a01b038a16171781555b50505082846001600160a01b0316866001600160a01b03167fddf252ad1be2c89b69c2b068fc378daa952ba7f163c4a11628f55a4df523b3ef60405160405180910390a45b5050505050565b6040805160608101825260008082526020820181905291810191909152816000548110156116ff57600081815260046020908152604091829020825160608101845290546001600160a01b0381168252600160a01b810467ffffffffffffffff1692820192909252600160e01b90910460ff161515918101829052906116fd5780516001600160a01b031615611693579392505050565b5060001901600081815260046020908152604091829020825160608101845290546001600160a01b038116808352600160a01b820467ffffffffffffffff1693830193909352600160e01b900460ff16151592810192909252156116f8579392505050565b611693565b505b604051636f96cda160e11b815260040160405180910390fd5b600980546001600160a01b038381166001600160a01b0319831681179093556040519116919082907f8be0079c531659141344cd1fd0a4f28419497f9722a3daafe3b4186f6b6457e090600090a35050565b604051630a85bd0160e11b81526000906001600160a01b0385169063150b7a029061179f903390899088908890600401612096565b602060405180830381600087803b1580156117b957600080fd5b505af19250505080156117e9575060408051601f3d908101601f191682019092526117e691810190611ecc565b60015b611844573d808015611817576040519150601f19603f3d011682016040523d82523d6000602084013e61181c565b606091505b50805161183c576040516368d2bf6b60e11b815260040160405180910390fd5b805181602001fd5b6001600160e01b031916630a85bd0160e11b149050949350505050565b60606012805461079c906121a9565b6060816118945750506040805180820190915260018152600360fc1b602082015290565b8160005b81156118be57806118a8816121e4565b91506118b79050600a83612133565b9150611898565b60008167ffffffffffffffff8111156118e757634e487b7160e01b600052604160045260246000fd5b6040519080825280601f01601f191660200182016040528015611911576020820181803683370190505b5090505b84156113ea57611926600183612166565b9150611933600a866121ff565b61193e90603061211b565b60f81b81838151811061196157634e487b7160e01b600052603260045260246000fd5b60200101906001600160f81b031916908160001a905350611983600a86612133565b9450611915565b60006111cd82600b54856119a6565b6108ec83838360016119bc565b6000826119b38584611b88565b14949350505050565b6000546001600160a01b0385166119e557604051622e076360e81b815260040160405180910390fd5b83611a035760405163b562e8dd60e01b815260040160405180910390fd5b6001600160a01b038516600081815260056020908152604080832080546fffffffffffffffffffffffffffffffff19811667ffffffffffffffff8083168c018116918217600160401b67ffffffffffffffff1990941690921783900481168c01811690920217909155858452600490925290912080546001600160e01b031916909217600160a01b429092169190910217905580808501838015611ab057506001600160a01b0387163b15155b15611b39575b60405182906001600160a01b038916906000907fddf252ad1be2c89b69c2b068fc378daa952ba7f163c4a11628f55a4df523b3ef908290a4611b01600088848060010195508861176a565b611b1e576040516368d2bf6b60e11b815260040160405180910390fd5b80821415611ab6578260005414611b3457600080fd5b611b7f565b5b6040516001830192906001600160a01b038916906000907fddf252ad1be2c89b69c2b068fc378daa952ba7f163c4a11628f55a4df523b3ef908290a480821415611b3a575b506000556115f5565b600081815b8451811015611c02576000858281518110611bb857634e487b7160e01b600052603260045260246000fd5b60200260200101519050808311611bde5760008381526020829052604090209250611bef565b600081815260208490526040902092505b5080611bfa816121e4565b915050611b8d565b509392505050565b828054611c16906121a9565b90600052602060002090601f016020900481019282611c385760008555611c7e565b82601f10611c5157805160ff1916838001178555611c7e565b82800160010185558215611c7e579182015b82811115611c7e578251825591602001919060010190611c63565b50611c8a929150611c8e565b5090565b5b80821115611c8a5760008155600101611c8f565b600067ffffffffffffffff80841115611cbe57611cbe61223f565b604051601f8501601f19908116603f01168101908282118183101715611ce657611ce661223f565b81604052809350858152868686011115611cff57600080fd5b858560208301376000602087830101525050509392505050565b80356001600160a01b0381168114611d3057600080fd5b919050565b600060208284031215611d46578081fd5b6111cd82611d19565b60008060408385031215611d61578081fd5b611d6a83611d19565b9150611d7860208401611d19565b90509250929050565b600080600060608486031215611d95578081fd5b611d9e84611d19565b9250611dac60208501611d19565b9150604084013590509250925092565b60008060008060808587031215611dd1578081fd5b611dda85611d19565b9350611de860208601611d19565b925060408501359150606085013567ffffffffffffffff811115611e0a578182fd5b8501601f81018713611e1a578182fd5b611e2987823560208401611ca3565b91505092959194509250565b60008060408385031215611e47578182fd5b611e5083611d19565b915060208301358015158114611e64578182fd5b809150509250929050565b60008060408385031215611e81578182fd5b611e8a83611d19565b946020939093013593505050565b600060208284031215611ea9578081fd5b5035919050565b600060208284031215611ec1578081fd5b81356111cd81612255565b600060208284031215611edd578081fd5b81516111cd81612255565b600060208284031215611ef9578081fd5b813567ffffffffffffffff811115611f0f578182fd5b8201601f81018413611f1f578182fd5b6113ea84823560208401611ca3565b600080600060408486031215611f42578283fd5b83359250602084013567ffffffffffffffff80821115611f60578384fd5b818601915086601f830112611f73578384fd5b813581811115611f81578485fd5b8760208260051b8501011115611f95578485fd5b6020830194508093505050509250925092565b60008151808452611fc081602086016020860161217d565b601f01601f19169290920160200192915050565b600084516020611fe78285838a0161217d565b855191840191611ffa8184848a0161217d565b85549201918390600181811c908083168061201657607f831692505b85831081141561203457634e487b7160e01b88526022600452602488fd5b808015612048576001811461205957612085565b60ff19851688528388019550612085565b60008b815260209020895b8581101561207d5781548a820152908401908801612064565b505083880195505b50939b9a5050505050505050505050565b6001600160a01b03858116825284166020820152604081018390526080606082018190526000906120c990830184611fa8565b9695505050505050565b6020815260006111cd6020830184611fa8565b6020808252818101527f4f776e61626c653a2063616c6c6572206973206e6f7420746865206f776e6572604082015260600190565b6000821982111561212e5761212e612213565b500190565b60008261214257612142612229565b500490565b600081600019048311821515161561216157612161612213565b500290565b60008282101561217857612178612213565b500390565b60005b83811015612198578181015183820152602001612180565b8381111561104a5750506000910152565b600181811c908216806121bd57607f821691505b602082108114156121de57634e487b7160e01b600052602260045260246000fd5b50919050565b60006000198214156121f8576121f8612213565b5060010190565b60008261220e5761220e612229565b500690565b634e487b7160e01b600052601160045260246000fd5b634e487b7160e01b600052601260045260246000fd5b634e487b7160e01b600052604160045260246000fd5b6001600160e01b031981168114610b8057600080fdfea2646970667358221220de26a6534036af14700b436896433894e24cc7f18cc7179aa58ab6d74e8b857e64736f6c63430008040033",
  "immutableReferences": {},
  "source": "// SPDX-License-Identifier: MIT\npragma solidity ^0.8.4;\n\nimport \"erc721a/contracts/ERC721A.sol\";\nimport \"@openzeppelin/contracts/security/ReentrancyGuard.sol\";\nimport \"@openzeppelin/contracts/access/Ownable.sol\";\nimport \"@openzeppelin/contracts/utils/cryptography/MerkleProof.sol\";\n\nerror PublicSaleNotLive();\nerror WhitelistNotActive();\nerror ExceededLimit();\nerror NotEnoughTokensLeft();\nerror WrongEther();\nerror InvalidMerkle();\nerror WhitelistUsed();\n\ncontract OnlyAyep is ERC721A, ReentrancyGuard, Ownable {\n    using Address for address;\n    using Strings for uint256;\n    using MerkleProof for bytes32[];\n\n    address proxyRegistryAddress;\n\n    bytes32 public merkleRoot; // 0xabcd1234\n    uint256 public maxMints = 2;\n    uint256 public maxSupply = 500; // Genesis\n    uint256 public mintRate = 0.07 ether;\n    uint256 public whitelistMintRate = 0.05 ether;\n    string public hiddenUri = \"ipfs://<ID>/hidden.json\";\n    string public baseExtension = \".json\";\n    string public baseURI = \"\"; // ipfs://<ID>/\n    bool public revealed = false;\n    bool public publicSale = false;\n    bool public whitelistSale = false;\n\n    mapping(address => uint256) public usedAddresses;\n\n    constructor() ERC721A(\"OnlyAyep\", \"ONLYAYEP\") {}\n\n    function mint(uint256 quantity) external payable nonReentrant {\n        if (!publicSale) revert PublicSaleNotLive();\n\n        // check for user mint limit\n        if (quantity + _numberMinted(msg.sender) > maxMints) {\n            revert ExceededLimit();\n        }\n\n        if (totalSupply() + quantity > maxSupply) {\n            revert NotEnoughTokensLeft();\n        }\n\n        // check for the value user pass is equal to the quantity and the mintRate\n        if (mintRate * quantity != msg.value) {\n            revert WrongEther();\n        }\n\n        _safeMint(msg.sender, quantity);\n    }\n\n    function whiteListMint(uint256 quantity, bytes32[] calldata proof)\n        external\n        payable\n        nonReentrant\n    {\n        if (quantity > 2) revert ExceededLimit();\n        if (whitelistMintRate * quantity != msg.value) {\n            revert WrongEther();\n        }\n\n        if (usedAddresses[msg.sender] + quantity > 2) {\n            revert WhitelistUsed();\n        }\n        if (!whitelistSale) revert WhitelistNotActive();\n\n        if (totalSupply() + quantity > maxSupply) {\n            revert NotEnoughTokensLeft();\n        }\n        if (!isWhiteListed(msg.sender, proof)) revert InvalidMerkle();\n        usedAddresses[msg.sender] += quantity;\n        _safeMint(msg.sender, quantity);\n    }\n\n    function isWhiteListed(address _account, bytes32[] calldata _proof)\n        internal\n        view\n        returns (bool)\n    {\n        return _verify(leaf(_account), _proof);\n    }\n\n    function tokenURI(uint256 tokenId)\n        public\n        view\n        override\n        returns (string memory)\n    {\n        require(\n            _exists(tokenId),\n            \"ERC721Metadata: URI query for nonexistent token\"\n        );\n\n        if (!revealed) {\n            return hiddenUri;\n        }\n\n        string memory currentBaseURI = _baseURI();\n        return\n            bytes(currentBaseURI).length > 0\n                ? string(\n                    abi.encodePacked(\n                        currentBaseURI,\n                        tokenId.toString(),\n                        baseExtension\n                    )\n                )\n                : \"\";\n    }\n\n    function _baseURI() internal view override returns (string memory) {\n        return baseURI;\n    }\n\n    function setBaseUri(string memory _newBaseURI) public onlyOwner {\n        baseURI = _newBaseURI;\n    }\n\n    function leaf(address _account) internal pure returns (bytes32) {\n        return keccak256(abi.encodePacked(_account));\n    }\n\n    function _verify(bytes32 _leaf, bytes32[] memory _proof)\n        internal\n        view\n        returns (bool)\n    {\n        return MerkleProof.verify(_proof, merkleRoot, _leaf);\n    }\n\n    function setMerkleRoot(bytes32 _root) external onlyOwner {\n        merkleRoot = _root;\n    }\n\n    function toggleReveal() public onlyOwner {\n        revealed = !revealed;\n    }\n\n    function togglePublicSale() public onlyOwner {\n        publicSale = !publicSale;\n    }\n\n    function toggleWhitelistSale() public onlyOwner {\n        whitelistSale = !whitelistSale;\n    }\n\n    function setHiddenUri(string memory _hiddenUri) public onlyOwner {\n        hiddenUri = _hiddenUri;\n    }\n\n    function setMintRate(uint256 _mintRate) public onlyOwner {\n        mintRate = _mintRate;\n    }\n\n    function setWhitelistMintRate(uint256 _mintRate) public onlyOwner {\n        whitelistMintRate = _mintRate;\n    }\n\n    function setMaxSupply(uint256 _newSupply) public onlyOwner {\n        maxSupply = _newSupply;\n    }\n\n    function setMaxMints(uint256 _newMaxMints) public onlyOwner {\n        maxMints = _newMaxMints;\n    }\n\n    function withdraw() external payable onlyOwner {\n        payable(owner()).transfer(address(this).balance);\n    }\n}\n",
  "sourcePath": "/Users/arifrahman/Code/personal/nft-project/contracts/OnlyAyep.sol",
  "compiler": {
    "name": "solc",
    "version": "0.8.4+commit.c7e474f2.Emscripten.clang"
  },
  "schemaVersion": "3.4.1",
  "updatedAt": "2022-05-06T05:37:41.738Z",
  "networkType": "ethereum",
  "devdoc": {
    "kind": "dev",
    "methods": {
      "approve(address,uint256)": {
        "details": "See {IERC721-approve}."
      },
      "balanceOf(address)": {
        "details": "See {IERC721-balanceOf}."
      },
      "getApproved(uint256)": {
        "details": "See {IERC721-getApproved}."
      },
      "isApprovedForAll(address,address)": {
        "details": "See {IERC721-isApprovedForAll}."
      },
      "name()": {
        "details": "See {IERC721Metadata-name}."
      },
      "owner()": {
        "details": "Returns the address of the current owner."
      },
      "ownerOf(uint256)": {
        "details": "See {IERC721-ownerOf}."
      },
      "renounceOwnership()": {
        "details": "Leaves the contract without owner. It will not be possible to call `onlyOwner` functions anymore. Can only be called by the current owner. NOTE: Renouncing ownership will leave the contract without an owner, thereby removing any functionality that is only available to the owner."
      },
      "safeTransferFrom(address,address,uint256)": {
        "details": "See {IERC721-safeTransferFrom}."
      },
      "safeTransferFrom(address,address,uint256,bytes)": {
        "details": "See {IERC721-safeTransferFrom}."
      },
      "setApprovalForAll(address,bool)": {
        "details": "See {IERC721-setApprovalForAll}."
      },
      "supportsInterface(bytes4)": {
        "details": "See {IERC165-supportsInterface}."
      },
      "symbol()": {
        "details": "See {IERC721Metadata-symbol}."
      },
      "tokenURI(uint256)": {
        "details": "See {IERC721Metadata-tokenURI}."
      },
      "totalSupply()": {
        "details": "Burned tokens are calculated here, use _totalMinted() if you want to count just minted tokens."
      },
      "transferFrom(address,address,uint256)": {
        "details": "See {IERC721-transferFrom}."
      },
      "transferOwnership(address)": {
        "details": "Transfers ownership of the contract to a new account (`newOwner`). Can only be called by the current owner."
      }
    },
    "version": 1
  },
  "userdoc": {
    "kind": "user",
    "methods": {},
    "version": 1
  }
}