{
  "contractName": "TodoList",
  "abi": [
    {
      "inputs": [],
      "payable": false,
      "stateMutability": "nonpayable",
      "type": "constructor"
    },
    {
      "anonymous": false,
      "inputs": [
        {
          "indexed": false,
          "internalType": "uint256",
          "name": "id",
          "type": "uint256"
        },
        {
          "indexed": false,
          "internalType": "bool",
          "name": "completed",
          "type": "bool"
        }
      ],
      "name": "TaskCompleted",
      "type": "event"
    },
    {
      "anonymous": false,
      "inputs": [
        {
          "indexed": false,
          "internalType": "uint256",
          "name": "id",
          "type": "uint256"
        },
        {
          "indexed": false,
          "internalType": "string",
          "name": "content",
          "type": "string"
        },
        {
          "indexed": false,
          "internalType": "bool",
          "name": "completed",
          "type": "bool"
        }
      ],
      "name": "TaskCreated",
      "type": "event"
    },
    {
      "constant": true,
      "inputs": [
        {
          "internalType": "address",
          "name": "",
          "type": "address"
        },
        {
          "internalType": "uint256",
          "name": "",
          "type": "uint256"
        }
      ],
      "name": "tasks",
      "outputs": [
        {
          "internalType": "uint256",
          "name": "id",
          "type": "uint256"
        },
        {
          "internalType": "string",
          "name": "content",
          "type": "string"
        },
        {
          "internalType": "bool",
          "name": "completed",
          "type": "bool"
        }
      ],
      "payable": false,
      "stateMutability": "view",
      "type": "function"
    },
    {
      "constant": true,
      "inputs": [
        {
          "internalType": "address",
          "name": "",
          "type": "address"
        }
      ],
      "name": "tasksCount",
      "outputs": [
        {
          "internalType": "uint256",
          "name": "",
          "type": "uint256"
        }
      ],
      "payable": false,
      "stateMutability": "view",
      "type": "function"
    },
    {
      "constant": false,
      "inputs": [
        {
          "internalType": "string",
          "name": "_content",
          "type": "string"
        }
      ],
      "name": "createTask",
      "outputs": [],
      "payable": false,
      "stateMutability": "nonpayable",
      "type": "function"
    },
    {
      "constant": false,
      "inputs": [
        {
          "internalType": "uint256",
          "name": "_id",
          "type": "uint256"
        }
      ],
      "name": "toggleCompleted",
      "outputs": [],
      "payable": false,
      "stateMutability": "nonpayable",
      "type": "function"
    }
  ],
  "bytecode": "0x608060405234801561001057600080fd5b5060408051808201909152600a8152694669727374205461736b60b01b6020820152610044906001600160e01b0361004916565b610224565b33600081815260016020818152604080842054815160608101835281815280840188815281840187905296865285845282862082875284529190942081518155945180519495919491936100a39390850192910190610189565b50604091820151600291909101805460ff1916911515919091179055805182815260009181018290526060602080830182815286519284019290925285517f05d0fb833127fc08168556d0e7ca9554fc3f6bc843b3b7d2bf1c35aea6bab6609486948894919390926080840191860190808383885b83811015610130578181015183820152602001610118565b50505050905090810190601f16801561015d5780820380516001836020036101000a031916815260200191505b5094505050505060405180910390a1505033600090815260016020819052604090912080549091019055565b828054600181600116156101000203166002900490600052602060002090601f016020900481019282601f106101ca57805160ff19168380011785556101f7565b828001600101855582156101f7579182015b828111156101f75782518255916020019190600101906101dc565b50610203929150610207565b5090565b61022191905b80821115610203576000815560010161020d565b90565b61066f806102336000396000f3fe608060405234801561001057600080fd5b506004361061004c5760003560e01c8063111002aa14610051578063455f5024146100f95780637149d2e4146101165780637b219c39146101cc575b600080fd5b6100f76004803603602081101561006757600080fd5b81019060208101813564010000000081111561008257600080fd5b82018360208201111561009457600080fd5b803590602001918460018302840111640100000000831117156100b657600080fd5b91908080601f016020809104026020016040519081016040528093929190818152602001838380828437600092019190915250929550610204945050505050565b005b6100f76004803603602081101561010f57600080fd5b5035610344565b6101426004803603604081101561012c57600080fd5b506001600160a01b0381351690602001356104b6565b604051808481526020018060200183151515158152602001828103825284818151815260200191508051906020019080838360005b8381101561018f578181015183820152602001610177565b50505050905090810190601f1680156101bc5780820380516001836020036101000a031916815260200191505b5094505050505060405180910390f35b6101f2600480360360208110156101e257600080fd5b50356001600160a01b031661056a565b60408051918252519081900360200190f35b336000818152600160208181526040808420548151606081018352818152808401888152818401879052968652858452828620828752845291909420815181559451805194959194919361025e939085019291019061057c565b50604091820151600291909101805460ff1916911515919091179055805182815260009181018290526060602080830182815286519284019290925285517f05d0fb833127fc08168556d0e7ca9554fc3f6bc843b3b7d2bf1c35aea6bab6609486948894919390926080840191860190808383885b838110156102eb5781810151838201526020016102d3565b50505050905090810190601f1680156103185780820380516001836020036101000a031916815260200191505b5094505050505060405180910390a1505033600090815260016020819052604090912080549091019055565b61034c6105fa565b33600090815260208181526040808320858452825291829020825160608101845281548152600180830180548651600293821615610100026000190190911692909204601f81018690048602830186019096528582529194929385810193919291908301828280156103ff5780601f106103d4576101008083540402835291602001916103ff565b820191906000526020600020905b8154815290600101906020018083116103e257829003601f168201915b50505091835250506002919091015460ff1615156020918201526040808301805115905233600090815280835281812086825283522082518155828201518051939450849391926104589260018501929091019061057c565b50604091820151600291909101805460ff1916911515919091179055818101518151848152901515602082015281517fe21fa966ca5cd02748c0752352d18c48165e61cb55b4c29cccf924b5a95fcff1929181900390910190a15050565b60006020818152928152604080822084529181528190208054600180830180548551600293821615610100026000190190911692909204601f81018790048702830187019095528482529194929390928301828280156105575780601f1061052c57610100808354040283529160200191610557565b820191906000526020600020905b81548152906001019060200180831161053a57829003601f168201915b5050506002909301549192505060ff1683565b60016020526000908152604090205481565b828054600181600116156101000203166002900490600052602060002090601f016020900481019282601f106105bd57805160ff19168380011785556105ea565b828001600101855582156105ea579182015b828111156105ea5782518255916020019190600101906105cf565b506105f692915061061d565b5090565b604051806060016040528060008152602001606081526020016000151581525090565b61063791905b808211156105f65760008155600101610623565b9056fea265627a7a723158200b25c1d24fc3755a7b26b53155979518085ba5d757d8f7b7721b2afce475f2cc64736f6c63430005100032",
  "source": "// SPDX-License-Identifier: MIT\npragma solidity >=0.5.0 <0.9.0;\n\ncontract TodoList {\n    struct Task {\n        uint256 id;\n        string content;\n        bool completed;\n    }\n\n    event TaskCreated(uint256 id, string content, bool completed);\n    event TaskCompleted(uint256 id, bool completed);\n\n    mapping(address => mapping(uint256 => Task)) public tasks;\n    mapping(address => uint256) public tasksCount;\n\n    constructor() public {\n        createTask(\"First Task\");\n    }\n\n    function createTask(string memory _content) public {\n        uint256 taskCount = tasksCount[msg.sender];\n        tasks[msg.sender][taskCount] = Task(taskCount, _content, false);\n        emit TaskCreated(taskCount, _content, false);\n        tasksCount[msg.sender]++;\n    }\n\n    function toggleCompleted(uint256 _id) public {\n        Task memory task = tasks[msg.sender][_id];\n        task.completed = !task.completed;\n        tasks[msg.sender][_id] = task;\n        emit TaskCompleted(_id, task.completed);\n    }\n}\n",
  "sourcePath": "/Users/arifrahman/Code/personal/nft-project/client/contracts/TodoList.sol",
  "compiler": {
    "name": "solc",
    "version": "0.5.16+commit.9c3226ce.Emscripten.clang"
  },
  "schemaVersion": "3.4.1",
  "updatedAt": "2022-04-24T14:39:53.966Z",
  "networkType": "ethereum",
  "devdoc": {
    "methods": {}
  },
  "userdoc": {
    "methods": {}
  }
}