{
  "contractName": "TodoList",
  "abi": [
    {
      "inputs": [],
      "payable": false,
      "stateMutability": "nonpayable",
      "type": "constructor"
    },
    {
      "anonymous": false,
      "inputs": [
        {
          "indexed": false,
          "internalType": "uint256",
          "name": "id",
          "type": "uint256"
        },
        {
          "indexed": false,
          "internalType": "bool",
          "name": "completed",
          "type": "bool"
        }
      ],
      "name": "TaskCompleted",
      "type": "event"
    },
    {
      "anonymous": false,
      "inputs": [
        {
          "indexed": false,
          "internalType": "uint256",
          "name": "id",
          "type": "uint256"
        },
        {
          "indexed": false,
          "internalType": "string",
          "name": "content",
          "type": "string"
        },
        {
          "indexed": false,
          "internalType": "bool",
          "name": "completed",
          "type": "bool"
        }
      ],
      "name": "TaskCreated",
      "type": "event"
    },
    {
      "constant": true,
      "inputs": [
        {
          "internalType": "address",
          "name": "",
          "type": "address"
        },
        {
          "internalType": "uint256",
          "name": "",
          "type": "uint256"
        }
      ],
      "name": "tasks",
      "outputs": [
        {
          "internalType": "uint256",
          "name": "id",
          "type": "uint256"
        },
        {
          "internalType": "string",
          "name": "content",
          "type": "string"
        },
        {
          "internalType": "bool",
          "name": "completed",
          "type": "bool"
        }
      ],
      "payable": false,
      "stateMutability": "view",
      "type": "function"
    },
    {
      "constant": true,
      "inputs": [
        {
          "internalType": "address",
          "name": "",
          "type": "address"
        }
      ],
      "name": "tasksCount",
      "outputs": [
        {
          "internalType": "uint256",
          "name": "",
          "type": "uint256"
        }
      ],
      "payable": false,
      "stateMutability": "view",
      "type": "function"
    },
    {
      "constant": false,
      "inputs": [
        {
          "internalType": "string",
          "name": "_content",
          "type": "string"
        }
      ],
      "name": "createTask",
      "outputs": [],
      "payable": false,
      "stateMutability": "nonpayable",
      "type": "function"
    },
    {
      "constant": false,
      "inputs": [
        {
          "internalType": "uint256",
          "name": "_id",
          "type": "uint256"
        }
      ],
      "name": "toggleCompleted",
      "outputs": [],
      "payable": false,
      "stateMutability": "nonpayable",
      "type": "function"
    }
  ],
  "bytecode": "0x608060405234801561001057600080fd5b5060408051808201909152600a8152694669727374205461736b60b01b6020820152610044906001600160e01b0361004916565b61020b565b33600081815260016020818152604080842054815160608101835281815280840188815281840187905296865285845282862082875284529190942081518155945180519495919491936100a39390850192910190610170565b50604091820151600291909101805460ff1916911515919091179055805182815260009181018290526060602080830182815286519284019290925285517f05d0fb833127fc08168556d0e7ca9554fc3f6bc843b3b7d2bf1c35aea6bab6609486948894919390926080840191860190808383885b83811015610130578181015183820152602001610118565b50505050905090810190601f16801561015d5780820380516001836020036101000a031916815260200191505b5094505050505060405180910390a15050565b828054600181600116156101000203166002900490600052602060002090601f016020900481019282601f106101b157805160ff19168380011785556101de565b828001600101855582156101de579182015b828111156101de5782518255916020019190600101906101c3565b506101ea9291506101ee565b5090565b61020891905b808211156101ea57600081556001016101f4565b90565b6106568061021a6000396000f3fe608060405234801561001057600080fd5b506004361061004c5760003560e01c8063111002aa14610051578063455f5024146100f95780637149d2e4146101165780637b219c39146101cc575b600080fd5b6100f76004803603602081101561006757600080fd5b81019060208101813564010000000081111561008257600080fd5b82018360208201111561009457600080fd5b803590602001918460018302840111640100000000831117156100b657600080fd5b91908080601f016020809104026020016040519081016040528093929190818152602001838380828437600092019190915250929550610204945050505050565b005b6100f76004803603602081101561010f57600080fd5b503561032b565b6101426004803603604081101561012c57600080fd5b506001600160a01b03813516906020013561049d565b604051808481526020018060200183151515158152602001828103825284818151815260200191508051906020019080838360005b8381101561018f578181015183820152602001610177565b50505050905090810190601f1680156101bc5780820380516001836020036101000a031916815260200191505b5094505050505060405180910390f35b6101f2600480360360208110156101e257600080fd5b50356001600160a01b0316610551565b60408051918252519081900360200190f35b336000818152600160208181526040808420548151606081018352818152808401888152818401879052968652858452828620828752845291909420815181559451805194959194919361025e9390850192910190610563565b50604091820151600291909101805460ff1916911515919091179055805182815260009181018290526060602080830182815286519284019290925285517f05d0fb833127fc08168556d0e7ca9554fc3f6bc843b3b7d2bf1c35aea6bab6609486948894919390926080840191860190808383885b838110156102eb5781810151838201526020016102d3565b50505050905090810190601f1680156103185780820380516001836020036101000a031916815260200191505b5094505050505060405180910390a15050565b6103336105e1565b33600090815260208181526040808320858452825291829020825160608101845281548152600180830180548651600293821615610100026000190190911692909204601f81018690048602830186019096528582529194929385810193919291908301828280156103e65780601f106103bb576101008083540402835291602001916103e6565b820191906000526020600020905b8154815290600101906020018083116103c957829003601f168201915b50505091835250506002919091015460ff16151560209182015260408083018051159052336000908152808352818120868252835220825181558282015180519394508493919261043f92600185019290910190610563565b50604091820151600291909101805460ff1916911515919091179055818101518151848152901515602082015281517fe21fa966ca5cd02748c0752352d18c48165e61cb55b4c29cccf924b5a95fcff1929181900390910190a15050565b60006020818152928152604080822084529181528190208054600180830180548551600293821615610100026000190190911692909204601f810187900487028301870190955284825291949293909283018282801561053e5780601f106105135761010080835404028352916020019161053e565b820191906000526020600020905b81548152906001019060200180831161052157829003601f168201915b5050506002909301549192505060ff1683565b60016020526000908152604090205481565b828054600181600116156101000203166002900490600052602060002090601f016020900481019282601f106105a457805160ff19168380011785556105d1565b828001600101855582156105d1579182015b828111156105d15782518255916020019190600101906105b6565b506105dd929150610604565b5090565b604051806060016040528060008152602001606081526020016000151581525090565b61061e91905b808211156105dd576000815560010161060a565b9056fea265627a7a7231582036989a8c1a2a5a82ba6453eee30c130a142dac5dc0cefd288f240c00d155391264736f6c63430005100032",
  "source": "// SPDX-License-Identifier: MIT\npragma solidity >=0.5.0 <0.9.0;\n\ncontract TodoList {\n    struct Task {\n        uint256 id;\n        string content;\n        bool completed;\n    }\n\n    event TaskCreated(uint256 id, string content, bool completed);\n    event TaskCompleted(uint256 id, bool completed);\n\n    mapping(address => mapping(uint256 => Task)) public tasks;\n    mapping(address => uint256) public tasksCount;\n\n    constructor() public {\n        createTask(\"First Task\");\n    }\n\n    function createTask(string memory _content) public {\n        uint256 taskCount = tasksCount[msg.sender];\n        tasks[msg.sender][taskCount] = Task(taskCount, _content, false);\n        emit TaskCreated(taskCount, _content, false);\n    }\n\n    function toggleCompleted(uint256 _id) public {\n        Task memory task = tasks[msg.sender][_id];\n        task.completed = !task.completed;\n        tasks[msg.sender][_id] = task;\n        emit TaskCompleted(_id, task.completed);\n    }\n}\n",
  "sourcePath": "/Users/arifrahman/Code/personal/nft-project/client/contracts/TodoList.sol",
  "compiler": {
    "name": "solc",
    "version": "0.5.16+commit.9c3226ce.Emscripten.clang"
  },
  "schemaVersion": "3.4.1",
  "updatedAt": "2022-04-23T09:26:47.255Z",
  "devdoc": {
    "methods": {}
  },
  "userdoc": {
    "methods": {}
  }
}